S01C00006770752D6576616C756174696F6E2D6C696768742E7372656312
S3150000000097710E0093810128970200009382821552
S3150000001073905230732440F163100402970200007B
S315000000209382421573905230EF908A7B97120000AC
S31500000030938242DCE780020013132400970200003B
S315000000409382420CB302530003A302000F00F00F89
S31500000050E31C03FE172E1100130ECE389313440033
S31500000060B30E7E00138F8E0083BF0E0003310F0088
S31500000070970200009382021073905230732540F16C
S31500000080E7800F00130000001300000013000000BB
S31500000090130000001300000013000000130000000E
S315000000A013000000130000001300000013000000FE
S315000000B013000000130000001300000013000000EE
S315000000C013000000130000001300000013000000DE
S315000000D013000000130000001300000013000000CE
S315000000E013000000130000001300000013000000BE
S315000000F013000000130000001300000013000000AE
S3150000010073001000730010007300100073001000DD
S3150000011073001000730010007300100073001000CD
S3150000012073001000730010007300100073001000BD
S3150000013073001000730010007300100073001000AD
S3150000014013132500970300009383C3FBB3027300C8
S315000001500F00500F23A00200130500006780000067
S3150000016073001000130000001300000013000000CD
S3150000017073202034130101EF23301100233831009E
S31500000180233C41002330510223346102233871029B
S31500000190233C8102233091042334A1042338B10483
S315000001A0233CC1042330D1062334E1062338F1066B
S315000001B0233C01072330110923342109233831094F
S315000001C0233C41092330510B2334610B2338710B37
S315000001D0233C810B2330910D2334A10D2338B10D1F
S315000001E0233CC10D2330D10F2334E10F2338F10F07
S315000001F073250030F325103473262034233CA10EDA
S315000002002330B1102334C11063560600EF908A6C78
S315000002106F00C00093060100EF904A6B8330010027
S3150000022083310101033281018332010203338102EA
S3150000023083330103033481038334010403358104CA
S3150000024083350105033681058336010603378106AA
S31500000250833701070338810783380108033981088A
S3150000026083390109033A8109833A010A033B810A6A
S31500000270833B010B033C810B833C010C033D810C4A
S31500000280833D010D033E810D833E010E033F810F29
S31500000290833F011073100F3073901F34033F810E9C
S315000002A0833F010F1301011173002030000000008D
S315000002B00000000000000000000000000000000038
S315000002C00000000000000000000000000000000028
S315000002D00000000000000000000000000000000018
S315000002E00000000000000000000000000000000008
S315000002F000000000000000000000000000000000F8
S3150000030000000000000000000000000000000000E7
S3150000031000000000000000000000000000000000D7
S3150000032000000000000000000000000000000000C7
S3150000033000000000000000000000000000000000B7
S3150000034000000000000000000000000000000000A7
S31500000350130101FF1305800023341100EF2049111A
S31500000360B7A70D009387078D37260900B7A50D009F
S315000003702330F5001306465A93858581EF601015E4
S31500000380130101FF1305800023341100EF20490EED
S31500000390B7770D009387877337060800B7750D008A
S315000003A02330F500130646A993850571EF601012F8
S315000003B0130101FF1305800023341100EF20490BC0
S315000003C0B7770D009387877937060800B7750D0054
S315000003D02330F500130686AE93850577EF60100F80
S315000003E0130101FF1305800023341100EF20490893
S315000003F0B7770D009387877F37060800B7750D001E
S315000004002330F5001306C6B39385057DEF60100C07
S31500000410130101FE233881001304050013050001B2
S31500000420233C110023349100EF2089049305040036
S3150000043013040500EF70492537660900B7A50D00BE
S31500000440130686FB938585DE13050400EF6010080E
S315000004509304050013050400EF2009071385040023
S31500000460EF601A35130101FE2338810013040500DD
S3150000047013050001233C110023349100EF10597F2E
S315000004809305040013040500EF704925376609003B
S31500000490B7A50D0013068645938585E1130504006F
S315000004A0EF60D0029304050013050400EF20C90194
S315000004B013850400EF60DA2F130101FE2338810053
S315000004C01304050013050001233C11002334910099
S315000004D0EF10197A9305040013040500EF7009263E
S315000004E037660900B7A50D001306863F938585E498
S315000004F013050400EF60807D9304050013050400D6
S31500000500EF10997C13850400EF609A2A130101FE0F
S31500000510233881001304050013050001233C110054
S3150000052023349100EF10D9749305040013040500D9
S31500000530EF70C92637660900B7A50D001306863386
S31500000540938585E713050400EF6040789304050062
S3150000055013050400EF10597713850400EF605A2540
S31500000560130101FE23388100130405001305000161
S31500000570233C110023349100EF10996F930504007A
S3150000058013040500EF70892737660900B7A50D002B
S3150000059013068639938585EA13050400EF60007318
S315000005A09304050013050400EF1019721385040067
S315000005B0EF601A20130101FE2338810013040500A1
S315000005C013050001233C110023349100EF10596AF2
S315000005D09305040013040500EF70492837660900E7
S315000005E0B7A50D0013068601938585ED1305040056
S315000005F0EF60C06D9304050013050400EF10D96C7D
S3150000060013850400EF60DA1A130101FE2338810016
S315000006101304050013050001233C11002334910047
S31500000620EF1019659305040013040500EF704928BF
S3150000063037660900B7A50D001306860D938505F0EC
S3150000064013050400EF608068930405001305040099
S31500000650EF10996713850400EF609A15130101FEE8
S31500000660233881001304050013050001233C110003
S3150000067023349100EF10D95F93050400130405009D
S31500000680EF70092937660900B7A50D001306861312
S31500000690938505F313050400EF604063930405009A
S315000006A013050400EF10596213850400EF605A1019
S315000006B0130101FE23388100130405001305000110
S315000006C0233C110023349100EF10995A930504003E
S315000006D013040500EF70C92937660900B7A50D0098
S315000006E013068607938505F613050400EF60005E82
S315000006F09304050013050400EF10195D138504002B
S31500000700EF601A0B130101FF13058000233411005B
S31500000710EF101956B7770D009387877937060800CB
S31500000720B7750D002330F500130686AE9385057761
S31500000730EF60C059130101FF130580002334110037
S31500000740EF101953B7770D009387877F3706080098
S31500000750B7750D002330F5001306C6B39385057DE6
S31500000760EF60C056130101FF13058000233411000A
S31500000770EF101950B7B70D00938707D237A60900B7
S31500000780B7B50D002330F50013060667938585CFB0
S31500000790EF60C053130101FD233C91009304050053
S315000007A0130500032334110223308102EF10594C44
S315000007B013040500EF80C95B930710002320F100A6
S315000007C08335010013060500938604001305040013
S315000007D0EF80D93CB7A70D00938707761305040071
S315000007E02330F400EF50C97C93050500130504027D
S315000007F0EF90D97F37960900B7A50D00130646F38B
S315000008009385056D13050400EF60404CB7A70D00F6
S315000008109304050093878773130504002330F400BF
S31500000820EF90097C6F008000930405001305040017
S31500000830EF10994913850400EF608A77130101FDD3
S315000008402338210113090500130500032330810213
S31500000850233C91002334110293840500EF10594183
S315000008601304050063880400EF90D91013060500F1
S315000008706F000001EF80C94F1306050093041000B6
S315000008802320910083350100930609001305040017
S31500000890EF80D930B7A70D009387077613050400BC
S315000008A02330F400EF50C9709305050013050402C8
S315000008B0EF90D97337960900B7A50D00130646F3D6
S315000008C09385056D13050400EF604040B7A70D0042
S315000008D09304050093878773130504002330F400FF
S315000008E0EF9009706F008000930405001305040063
S315000008F0EF10993D13850400EF608A6B130101FB2D
S31500000900233821031309050013050002233081044F
S31500000910233C91022334110423343103EF1059355B
S3150000092093040500130609009385010013050100D1
S31500000930EF90897693050100138504009309010160
S31500000940EF8099660335010063043501EF50C04C12
S31500000950B7B70D001384010037A60900B7B50D001F
S31500000960938707B7130606FE938585AF13850400A4
S3150000097023B0F40023A8240123BC8400EF600035D3
S315000009808337010013040500638A370113850700C6
S31500000990EF5080486F0080001304050013850400A3
S315000009A0EF10993213050400EF608A60130101FF0E
S315000009B023308100370411001305049923341100F4
S315000009C0EF70C0579305049903340100833081000A
S315000009D037850000138601FA130585F51301010119
S315000009E06F90DA56130101FF23308100370411009E
S315000009F01305849923341100EF70405493058499AC
S31500000A00033401008330810037850000138601FA24
S31500000A10130585F5130101016F905A53B7071100AD
S31500000A2003C707A463160700130710002380E7A473
S31500000A30B707110003C787A3631607001307100043
S31500000A40238CE7A2B707110003C707A363160700A5
S31500000A50130710002388E7A2B707110003C787A270
S31500000A6063160700130710002384E7A2B7071100D7
S31500000A7003C707A263160700130710002380E7A227
S31500000A80B707110003C787A16316070013071000F5
S31500000A90238CE7A0B707110003C707A16316070059
S31500000AA0130710002388E7A0B707110003C787A024
S31500000AB063160700130710002384E7A06780000071
S31500000AC0B707110003C707AC63160700130710002A
S31500000AD02380E7ACB707110003C787AB631607008F
S31500000AE013071000238CE7AAB707110003C707AB4B
S31500000AF063160700130710002388E7AAB70711003B
S31500000B0003C787AA63160700130710002384E7AA02
S31500000B10B707110003C707AA6316070013071000DB
S31500000B202380E7AAB707110003C787A96316070042
S31500000B3013071000238CE7A8B707110003C707A9FE
S31500000B4063160700130710002388E7A8B7071100EC
S31500000B5003C787A863160700130710002384E7A8B6
S31500000B6067800000B707110003C787B66316070042
S31500000B70130710002384E7B6B707110003C707B6AB
S31500000B8063160700130710002380E7B6B7071100A6
S31500000B9003C787B56316070013071000238CE7B455
S31500000BA0B707110003C707B5631607001307100040
S31500000BB02388E7B4B707110003C787B46316070095
S31500000BC0130710002384E7B4B707110003C707B45F
S31500000BD063160700130710002380E7B4B707110058
S31500000BE003C787B36316070013071000238CE7B209
S31500000BF0B707110003C707B36316070013071000F2
S31500000C002388E7B2B707110003C787B26316070048
S31500000C10130710002384E7B2B707110003C707B212
S31500000C2063160700130710002380E7B2B707110009
S31500000C3003C787B16316070013071000238CE7B0BC
S31500000C40B707110003C707B16316070013071000A3
S31500000C502388E7B067800000B707110003C787C283
S31500000C6063160700130710002384E7C2B7071100B5
S31500000C7003C707C263160700130710002380E7C2E5
S31500000C80B707110003C787C16316070013071000D3
S31500000C90238CE7C0B707110003C707C16316070017
S31500000CA0130710002388E7C0B707110003C787C0E2
S31500000CB063160700130710002384E7C0B707110067
S31500000CC003C707C063160700130710002380E7C099
S31500000CD0B707110003C787BF631607001307100085
S31500000CE0238CE7BEB707110003C707BF63160700CB
S31500000CF0130710002388E7BEB707110003C787BE96
S31500000D0063160700130710002384E7BEB707110018
S31500000D1003C707BE63160700130710002380E7BE4C
S31500000D20B707110003C787BD631607001307100036
S31500000D30238CE7BCB707110003C707BD631607007E
S31500000D40130710002388E7BC67800000130101FE2B
S31500000D5023349100B7140000233881009384041CC7
S31500000D60372411001304843713850400233C110033
S31500000D70233C9400EFC05A532338A40063020502B3
S31500000D802334A400233095002334050083308101E9
S31500000D9003340101833481001301010267800000DE
S31500000DA0233C0400233404006FF05FFE130101FFAF
S31500000DB02330810037A50900138601FA93850100C7
S31500000DC0130545FD23341100EF905A18138601FAD6
S31500000DD0033401008330810037A50900938581FF24
S31500000DE0130505FD130101016F905A16000000005E
S31500000DF0EF801A1F130401009302000063900202A1
S31500000E0017F51000130505B817261100130606B4CA
S31500000E10B306A64093D53600EF809A1D97F21000D0
S31500000E20938242FE23B08200EF809A1EEF805A1B07
S31500000E30EF80DA4AEF809A50EF80DA3617A50A007B
S31500000E4013058553EF904A76EFC00A66EF805A196C
S31500000E5097F21000938202E903A502009382010132
S31500000E6083B5020013060000EF00400FEF90DA0F83
S31500000E7073001000000000000000000037750E002F
S31500000E8037770E00930705A8130707A8630AF7002C
S31500000E909307000063860700130505A8678007000F
S31500000EA06780000037750E00930705A837770E0098
S31500000EB0930507A8B385F54093D7354093D5F50339
S31500000EC0B385F50093D51540638A050093070000A6
S31500000ED063860700130505A8678007006780000082
S31500000EE0130101FF2330810037041100834784E09A
S31500000EF02334110063920702EFF05FF8B7970A00F8
S31500000F009387C7376386070013858104EF800A47F6
S31500000F10930710002304F4E08330810003340100BA
S31500000F201301010167800000B7970A009387C71570
S31500000F3063840702B7051100130101FF938505E1DC
S31500000F401385810423341100EF804A218330810008
S31500000F50130101016FF01FF56FF0DFF4130101F6C5
S31500000F60233C1108233881082334910823302109B2
S31500000F70233C310713050001EFC01A3313040500A3
S31500000F8013050001EFC05A329304050093070000D1
S31500000F90930600013307F4002300F7009387170038
S31500000FA0E39AD7FE93870400138704012380070082
S31500000FB093871700E39CE7FE2334010623300106DE
S31500000FC0233C0104233801042334010437D50C00E3
S31500000FD0130505BDEFD01A6F13058106EF404007D4
S31500000FE037D50C00130505BFEFD0DA6D1306810364
S31500000FF09305100003358106EF20105813060104EF
S315000010009305200003358106EF20105713060103D0
S315000010109305300003358106EF2010568336810391
S31500001020033601048335010337D50C00130505C1CA
S31500001030EFD01A33B7F90D009387099C37690E0074
S315000010401309C9EC3309F9409305090037D50C009B
S31500001050130585C4EFD0DA3093060105130609009F
S315000010609385099C03358106EF00C02C9305000289
S3150000107037D50C00130505C7EFD09A2E9306010647
S31500001080130610009305000103358106EF20906ECC
S315000010909305810203350106EF3040729306810500
S315000010A0130620009305000103358106EF20906C9E
S315000010B09305010203358105EF30407037D50C00EA
S315000010C0130585C9EFD01A60930700012334F10098
S315000010D0833781022338F10083370102233CF10074
S315000010E0930681041306800193058100033581066A
S315000010F0EF0000399305000137D50C00130505CB29
S31500001100EFD01A269306000113060000930504008B
S3150000111003350106EF30807D37D50C00130505CE6B
S31500001120EFD05A5A93060001130600009385040077
S3150000113003358105EF30807B37D50C00130505D0CC
S31500001140EFD05A58033681048335010503358106ED
S31500001150EF40C03937D50C00130505D1EFD09A56AC
S31500001160B7652605938505C003358106EF30C06A4D
S315000011709305000137D50C00130585D3EFD05A1E11
S3150000118093060001130600008335810513850400CC
S31500001190EF3010179305000237D50C00130585D6DE
S315000011A0EFD01A1C03350106EF30004F03358105D9
S315000011B0EF30804E03350105EF30004E03358104D4
S315000011C0EF30804D37D50C00130505D9EFD09A4F77
S315000011D003358106EF2090481306000093070000B0
S315000011E0130500019B8507003387F400834607003B
S315000011F06398C604938717001B0626001376F60F1E
S31500001200E392A7FE37D50C00130505DFEFD09A4B06
S3150000121013050400EFC01A0A13850400EFC09A09EB
S3150000122013050000833081090334010983348108E2
S3150000123003390108833981071301010A6780000019
S3150000124037D50C00130505DBEFD09A1137D50C0006
S31500001250130505DEEFD01A476FF09FFBB7071100A5
S3150000126083B707CD639A070037071100B737110018
S31500001270938787942338F7CCB707110083B787CCB9
S3150000128063980700B70711003707001023B4E7CCAF
S3150000129067800000130101FE23388100233C110002
S315000012A02334910037041100834704980F00F00F90
S315000012B093F7F70F63800702B704110083308101AB
S315000012C00334010103A584988334810013010102CC
S315000012D06780000013050498EF50D02BB704110067
S315000012E0E30E05FC37D50C00130505E023A404988E
S315000012F0EFC00A0763060500EF904A2C23A4A498C2
S3150000130013050498EF50502F3745000093858498B5
S31500001310138601FA130505CDEF904A438330810108
S315000013200334010103A5849883348100130101026B
S3150000133067800000130101FC233C1102233881025F
S315000013402334910223302103233C31012338410108
S3150000135063040512938405006380051293078000D9
S315000013601309060063FAC710138A0600638606107F
S3150000137083B5050083B98400130781009306000036
S31500001380B389B94013860900EF20107C13040500C9
S315000013906314050403358100130909FF9306100041
S315000013A01306090093050000EF30501F13040500D3
S315000013B063020506B7D50C0013060500938505E8FC
S315000013C037D50C00130585E5EFD08A790335810002
S315000013D0EF30802C6F00C00113060500B7D50C0056
S315000013E037D50C00938585E1130585E5EFD04A775F
S315000013F0833081031305040003340103833481021F
S315000014000339010283398101033A01011301010401
S31500001410678000000335810093063000338629413A
S3150000142093050900EF3090171304050063160502B3
S315000014300335810093060900130600009385040115
S31500001440EF30C04A1304050063100502833781009C
S315000014502330FA006FF0DFF9B7D50C00130605004C
S31500001460938585EB6FF0DFF5B7D50C001306050005
S31500001470938585F06FF0DFF41304F0FF6FF05FF7EC
S31500001480130101FC233C110223388102233491020B
S3150000149023302103233C31016308050E138905001F
S315000014A06384050E930406006300060E9389060006
S315000014B0638C060C930681001306100093850400C6
S315000014C0EF20502B13040500631405040335810037
S315000014D0938604001306000093050900EF300041CF
S315000014E013040500631205068337810083308103E8
S315000014F0130504000334010323B0F9008334810289
S315000015000339010283398101130101046780000058
S3150000151013060500B7D50C0037D50C00938585F367
S31500001520130585E5EFD0CA638330810313050400F4
S3150000153003340103833481020339010283398101B3
S31500001540130101046780000013060500B7D50C00DF
S3150000155037D50C00938505F7130585E5EFD04A606E
S3150000156003358100EF3040138330810313050400F7
S315000015700334010383348102033901028339810173
S3150000158013010104678000001304F0FF6FF0DFF918
S31500001590130101DE233C311F130601169389050052
S315000015A09305300023349120233C112023388120D9
S315000015B0233021212338411F2334511F2330611F3B
S315000015C0233C711D2338811D2334911D2330A11D19
S315000015D0233CB11B93040500233C01102330011268
S315000015E02334011223380112233C01122330011443
S315000015F02334011423380114233C0114EF20C0774F
S31500001600630005061309050013060500B7D50C008F
S3150000161037D50C00938505FA130585E5EFD04A54B6
S315000016208330812103340121833481208339811F52
S31500001630033A011F833A811E033B011E833B811D32
S31500001640033C011D833C811C033D011C833D811B22
S3150000165013050900033901201301012267800000E8
S31500001660130681169305700013850400EF20C070E1
S31500001670130905006300050213060500B7D50C0023
S3150000168037D50C00938585FD130585E5EFD04A4DCA
S315000016906FF01FF9033781169307100013950702A1
S315000016A0939517021396270293963702939747024C
S315000016B03375A700B375B7003376C700B376D70086
S315000016C0B377F700233CA1082330B10A2334C10ABB
S315000016D02330D10E2338F108EFF0DFBB833B011630
S315000016E023380100130A050063940B006F10501194
S315000016F013040000233C010C2338010C2334010C95
S315000017002330010C2338010A233C010A2330010847
S315000017102338010623340108233C0106233401063D
S3150000172023380102233C010223300104233C010437
S315000017302338010423300106233401042334010233
S3150000174023300102233C0100930D0000930A0000A0
S31500001750233C210F371900009306011713060400D6
S31500001760930509B013850400EF30C06363040500D8
S315000017706F10C0379306811713060400930529B02E
S3150000178013850400EF300062630405006F104038D3
S31500001790930710006306FA66930720006310FA1495
S315000017A083370109638407006F0050678337810917
S315000017B0638407006F0050758337010A638407004E
S315000017C06F1080088337810AE3900754631804106A
S315000017D08337010E6388070A3719000093068111C3
S315000017E013060000930529B113850400EF30805BD2
S315000017F0630405006F1050389306011213060000AB
S31500001800930539B113850400EF30C0596304050010
S315000018106F1050349306811213060000930549B1E8
S3150000182013850400EF300058630405006F10D03DA7
S315000018309306011313060000930559B1138504009E
S31500001840EF304056630405006F10D03993068113BC
S3150000185013060000930569B113850400EF30805428
S31500001860630405006F10D0359306011413060000BB
S31500001870930579B113850400EF30C0526304050067
S315000018806F10D0313719000093068114130600003B
S31500001890930589B113850400EF30C0506304050039
S315000018A06F10407E9306011513060000930599B14B
S315000018B013850400EF30004F630405006F10407A73
S315000018C093068115130600009305A9B1138504003C
S315000018D0EF30404D630405006F10001F833B011677
S315000018E003390117033B811713050000630409023E
S315000018F013050B00EF000A3F130C05001305090042
S31500001900EF004A3E9305050013050C00EFF0C941B0
S31500001910EF20CA369307100063FA7703EF20CA0850
S31500001920B7E50C00930705001307090093060B00A3
S31500001930130604009385851213850900EF901A5C3F
S31500001940833B0116033B81170339011783370101D6
S31500001950B38A6A01B38D2D0163F42701233821016F
S315000019601B0414009317040293D70702E3E477DFFE
S315000019700339810F930710006314FA006F10801B60
S31500001980930720006310FA428337810A638A071E91
S315000019900337010B8337810B930C0000335D77030C
S315000019A00337010C335477030337810CB3547703A1
S315000019B00337010D335A77030337810DB3DD770300
S315000019C0335B770363E4770513050400EF008A3180
S315000019D0130C050013850D00EF00CA3093050500B2
S315000019E013050C00EFF04934B7770E009305050098
S315000019F003B587A8EFF0D94EB7770E0083B507A8D1
S31500001A00EFF0D912EF004A1F9B0C05008337010B3C
S31500001A10130C000063E4770513850400EF008A2C9D
S31500001A20930B050013050D00EF00CA2B9305050067
S31500001A3013850B00EFF0492FB7770E0093050500CD
S31500001A4003B587A8EFF0D949B7770E0083B507A885
S31500001A50EFF0D90DEF004A1A1B0C05003385AD01D6
S31500001A60B3074501233CF100930B0000638C07028A
S31500001A70EF004A2783378101930B05001385070082
S31500001A80EF004A269305050013850B00EFF0C929E0
S31500001A90B7770E0083B507A8EFF05909EF00CA150E
S31500001AA09B0B05003305940033076501233CE100D9
S31500001AB093070000630E0702EF00CA220337810175
S31500001AC02330A10213050700EF00CA218337010264
S31500001AD09305050013850700EFF00925B7770E007B
S31500001AE083B507A8EFF09904EF000A119B070500DC
S31500001AF0B7E50C009385052E13860D0013850900A6
S31500001B00233CF100EF909A3FB7E50C0013060D0059
S31500001B109385053013850900EF905A3EB7E50C0012
S31500001B2093860C001306040093850532138509007D
S31500001B30EF90DA3CB7E50C0093060C001386040020
S31500001B409385053513850900EF905A3BB7E50C00E0
S31500001B5093860B0013060A009385853813850900C2
S31500001B60EF90DA3983378101B7E50C0013060B00D5
S31500001B70938607009385053C13850900EF901A3874
S31500001B808337010E638E071A033A8111833481125B
S31500001B90930B000063040A0413850400EF008A1403
S31500001BA01304050013050A00EF00CA139305050088
S31500001BB013050400EFF04917B7770E0093050500EB
S31500001BC003B587A8EFF0D931B7770E0083B507A81C
S31500001BD0EFF0C975EF004A029B0B050003340112B2
S31500001BE0833C0113130B00006304040413850C00EB
S31500001BF0EF004A0F130B050013050400EF008A0ED1
S31500001C009305050013050B00EFF00912B7770E00D8
S31500001C109305050003B587A8EFF0992CB7770E005A
S31500001C2083B507A8EFF08970EFF0197D1B0B05004F
S31500001C3033058A0003348113130C00003304850036
S31500001C40630A0402EF000A0A130C050013050400D8
S31500001C50EF004A099305050013050C00EFF0C90CC7
S31500001C60B7770E0083B507A8EFF0496CEFF0D97887
S31500001C701B0C050003340114338594019304000002
S31500001C8033048500630A0402EF00CA0593040500C5
S31500001C9013050400EF000A059305050013850400EB
S31500001CA0EFF08908B7770E0083B507A8EFF009684B
S31500001CB0EFF099749B040500B7E50C0013060A00C3
S31500001CC09385853F13850900EF905A230336011249
S31500001CD0B7E50C009385854113850900EF901A221C
S31500001CE003368112B7E50C0093860B009385854376
S31500001CF013850900EF909A2003360113B7E50C000F
S31500001D0093060B009385854613850900EF901A1FED
S31500001D1003368113B7E50C0093060C009385054A3C
S31500001D2013850900EF909A1D03360114B7E50C00E0
S31500001D30938604009385854D13850900EF901A1C40
S31500001D40833481140335811513040000638404026F
S31500001D50EFF059791304050013850400EFF0997824
S31500001D609305050013050400EFE0197CEFF0D96830
S31500001D701B04050003370115B7E50C0093850551D3
S31500001D803386E4009386040013850900EF901A1742
S31500001D90B7E50C00130604009385855413850900E6
S31500001DA0EF90DA15833401011307000063880402FB
S31500001DB013850A00EFF01973130405001385040058
S31500001DC0EFF059729305050013050400EFE0D9758D
S31500001DD0EF10DA6AEF105A3D13070500833601014A
S31500001DE0B7E50C0013860A0093858556138509000E
S31500001DF0EF90DA1013850900EF904A086FF05F82C2
S31500001E009306811A13060400930539B0138504005E
S31500001E10EF20507913070500630405006F1040009A
S31500001E20833701160339811A637EFA04033B0117CF
S31500001E30630C0B0213050900EFF0D96A930B05003A
S31500001E4013050B00EFF0196A9305050013850B00C7
S31500001E50EFE0996DB7770E0083B507A8EFF0094D4F
S31500001E60EFF099591B070500B7D50C00930609003A
S31500001E70130604009385850E13850900EF901A0852
S31500001E800339811AB71500009306811A1306040058
S31500001E90938545B013850400EF20D0708337810108
S31500001EA013070500B3872701233CF10063040500EF
S31500001EB06F00907983360116930710000339811A53
S31500001EC063FED704033B0117630C0B0213050900DD
S31500001ED0EFF05961930B050013050B00EFF09960C5
S31500001EE09305050013850B00EFE01964B7770E0024
S31500001EF083B507A8EFF08943EFF019501B070500DB
S31500001F00B7D50C00930609001306040093858516C1
S31500001F1013850900EF908A7E0339811AB7150000F0
S31500001F209306811A13060400938555B013850400A1
S31500001F30EF2050678337010213070500B387270197
S31500001F402330F102630405006F00507183360116D9
S31500001F5093071000033B811A63FED7040339011768
S31500001F60630C090213050B00EFF0D957930B05001C
S31500001F7013050900EFF019579305050013850B00AB
S31500001F80EFE0995AB7770E0083B507A8EFF0093A44
S31500001F90EFF099461B070500B7D50C0093060B001A
S31500001FA0130604009385851E13850900EF900A75B4
S31500001FB0033B811A37190000930601181306040023
S31500001FC0930569B013850400EF20D05D8337810245
S31500001FD0B38767012334F102630405006F0050697B
S31500001FE09306811813060400930589B0138504002F
S31500001FF0EF20505B630405006F00D069930601195A
S3150000200013060400930599B013850400EF20905938
S31500002010630405006F00506A9306811913060400D5
S315000020209305A9B013850400EF20D057630405007B
S315000020306F00D06A9306011A130604009305C9B00F
S3150000204013850400EF201056630405006F00506BE3
S315000020509306811A130604009305D9B0138504006C
S31500002060EF205054930B0500630405006F00906B3E
S31500002070833501058337811883360119033D81199C
S31500002080B385F5002338B10483358105833C011AF5
S31500002090033C811AB385D500233CB1048335010482
S315000020A00336011613071000B385A5012330B104CA
S315000020B083358103033B0118B3859501233CB102A7
S315000020C083350103B38585012338B102637EC716C4
S315000020D0033601173389D7003309A901330999015A
S315000020E02334C10E3309890113070000630806046F
S315000020F013050B002334D1102330F110EFF0993E75
S315000021000336810E2338A10E13050600EFF0993D24
S315000021100337010F9305050013050700EFE0D940CB
S31500002120B7770E0083B507A8EFF04920EFF0D92C5A
S3150000213083368110833701101B0705002338D10E23
S315000021402334F10E6302094C130509002330E11014
S31500002150EFF059398337810E13090500B77B0E005E
S3150000216013850700EFF0193893050900EFE0D93B16
S3150000217083B50BA8EFF0891BEFF019288336010F02
S315000021809B0705002334F10E13850600EFF0993501
S3150000219093050900EFE0593983B50BA8EFF009194B
S315000021A0EFF099251308050013050D001B0D080017
S315000021B0EFF0593393050900EFE0193783B50BA803
S315000021C0EFF0C916EFF059239308050013850C00AC
S315000021D09B8C0800EFF0193193050900EFE0D93424
S315000021E083B50BA8EFF08914EFF019219B0B0500BE
S315000021F013050C00EFF0192F93050900EFE0D93213
S31500002200B7770E0083B507A8EFF04912EFF0D91E95
S315000022108337810E033701101B050500B7D50C0067
S3150000222093060B002334A1002330710193880C0020
S3150000223013080D00130604009385053E1385090057
S31500002240EF90CA4B033B0118B71500009306811A9D
S3150000225013060400938575B013850400EF209034AF
S315000022608337810413070500B38767012334F1041C
S31500002270E31A054C83360116930710000339811AB9
S3150000228063FED704033B0117630C0B021305090019
S31500002290EFF05925930B050013050B00EFF0992479
S315000022A09305050013850B00EFE01928B7770E009C
S315000022B083B507A8EFF08907EFF019141B0705008F
S315000022C0B7D50C00930609001306040093858549CB
S315000022D013850900EF908A420339811AB715000069
S315000022E09306011A130604009385E5B013850400CE
S315000022F0EF20502B83370106B38727012330F106E1
S31500002300E31C054483360116130710008337011AB0
S315000023106366D71803378106B71500009306811A3E
S31500002320B307F70013060400938515B1138504005F
S315000023302334F106EF20102793060500E310054429
S3150000234003360116130710008337811A6376C70414
S315000023500339011A6306090213850700EFF099187D
S31500002360130B050013050900EFF0D91793050500B7
S3150000237013050B00EFE0591BEFF019089B0605004B
S31500002380B7D50C001306040093850558138509007C
S31500002390EF90CA368337811A03370107B715000055
S315000023A09306011AB307F700130604009385F5B0E8
S315000023B0138504002338F106EF20D01EE314053EF2
S315000023C083360116130710008337011A6368D70E88
S315000023D003378107B71500009306811AB307F70084
S315000023E013060400938525B113850400233CF106EA
S315000023F0EF20501B93060500E318053C0336011633
S31500002400130710008337811A6376C7040339011A4C
S315000024106306090213850700EFF0D90C130B0500BC
S3150000242013050900EFF0190C9305050013050B00C1
S31500002430EFE0990FEFF0497C9B060500B7D50C003D
S31500002440130604009385856513850900EF900A2B12
S315000024508337811A03370108B71500009306811ADE
S31500002460B307F70013060400938505B1138504002E
S315000024702330F108EF201013E3120536833B0116D3
S31500002480930710008336811A63EA7705833781083C
S31500002490B387D7002334F1086FF08FC4B7D50C008B
S315000024A093860700130604009385055113850900DA
S315000024B0EF90CA248337011A6FF0DFE5B7D50C0019
S315000024C093860700130604009385055F13850900AC
S315000024D0EF90CA228337011A6FF09FEFB7D50C0031
S315000024E0130604009385856C13850900EF900A2175
S315000024F0833781088336811A833B0116B387D70059
S315000025002334F1086FF0CFBD371900009306811A06
S31500002510130604009305C9B013850400EF20900844
S31500002520E318054C0337810B8337811A9306811A0A
S3150000253013060400B307F7009305D9B0138504000A
S31500002540233CF10AEF201006E316054C0337010B76
S315000025508337811A9306811A13060400B307F7001E
S315000025609305E9B0138504002338F10AEF209003A0
S31500002570E31A05540337010C8337811A9306811A2F
S3150000258013060400B307F7009305F9B0138504009A
S315000025902330F10CEF201001E31A05560337810CA6
S315000025A08337811A9306811A13060400B307F700CE
S315000025B0930509B1138504002334F10CEF20807EC6
S315000025C0E31405520337010D8337811A9306811AE6
S315000025D013060400B307F700930519B11385040029
S315000025E02338F10CEF20007CE31405540337810DEA
S315000025F08337811AB307F700233CF10C63140400F8
S315000026006FF00F9D6FF08FAD13050000930700006C
S31500002610930C0000130D00006FF05FC09306811944
S31500002620130604009305B9B113850400EF208077E3
S31500002630E314052A9306011A130604009305C9B18B
S3150000264013850400EF200076E31A052A9306811A03
S31500002650130604009305D9B113850400EF20807496
S31500002660130B0500E310052E833B81190335011A70
S315000026700339811A3385AB0033092501630A090240
S31500002680EFF04966130B050013050900EFF08965A5
S315000026909305050013050B00EFE00969B7770E00F7
S315000026A083B507A8EFE09948EFF009551B0B050025
S315000026B0B7D50C0093860B00130604009385857C22
S315000026C013850900EF908A038336011AB7D50C00EB
S315000026D0130604009385857E13850900EF900A0290
S315000026E08336811AB7E50C0013070B0013060400A6
S315000026F09385858013850900EF904A008337810909
S31500002700639407006FF04F8B371900009306811909
S3150000271013060400930539B013850400EF20806882
S31500002720E31005209306011A13060400930549B029
S3150000273013850400EF200067E31A05289306811A23
S3150000274013060400930559B013850400EF20806535
S31500002750930B0500E31C0524033C8119833C011AF5
S315000027601309000063040C0413850C00EFF089576D
S315000027701309050013050C00EFF0C9569305050073
S3150000278013050900EFE0495AB7770E0093050500D7
S3150000279003B587A8EFE0D974B7770E0083B507A80D
S315000027A0EFE0D938EFF049451B090500033B811AD4
S315000027B0338B6C01630C0B0213850C00EFF089520E
S315000027C0930B050013050B00EFF0C95193050500A7
S315000027D013850B00EFE04955B7770E0083B507A8C0
S315000027E0EFE0D934EFF049419B0B0500B7E50C004B
S315000027F093060C0013060400938585921385090041
S31500002800EF80DA6F8336011AB7E50C00130709006B
S31500002810130604009385859413850900EF801A6ECC
S315000028208336811AB7E50C0013870B0013060400E4
S315000028309385059813850900EF805A6C8337010A42
S31500002840639407006FE01FF837190000930601181C
S3150000285013060400930569B013850400EF20805425
S31500002860E31405129306811813060400930579B044
S3150000287013850400EF200053E316050E9306011995
S3150000288013060400930589B013850400EF208051D8
S31500002890E316051C9306811913060400930599B0E7
S315000028A013850400EF200050E31805189306011A5B
S315000028B0130604009305A9B013850400EF20804E8B
S315000028C0E310051E9306811A130604009305B9B09A
S315000028D013850400EF20004D130B0500E312051AC3
S315000028E0833B011803390119130D000063840B049F
S315000028F013050900EFF0093F130C050013850B00C3
S31500002900EFF0493E9305050013050C00EFE0C941C1
S31500002910B7770E009305050003B587A8EFE0595C6D
S31500002920B7770E0083B507A8EFE05920EFF0C92C62
S315000029301B0D0500033C811803378119930C000019
S3150000294063080C04130507002334E10EEFF0893900
S31500002950930C050013050C00EFF0C938930505002C
S3150000296013850C00EFE0493CB7770E009305050090
S3150000297003B587A8EFE0D956B7770E0083B507A849
S31500002980EFE0D91AEFF049270337810E9B0C0500BB
S315000029908337011A33858B01130C0000B307F5004A
S315000029A02334F10E638007042338E10EEFF08933F8
S315000029B08337810E130C050013850700EFF089326B
S315000029C09305050013050C00EFE00936B7770E00F6
S315000029D083B507A8EFE09915EFF009220337010F39
S315000029E01B0C05003305E9000339811A330925015B
S315000029F0630A0902EFF0092F130B050013050900FE
S31500002A00EFF0492E9305050013050B00EFE0C931E1
S31500002A10B7770E0083B507A8EFE05911EFF0C91D8F
S31500002A201B0B0500B7E50C0093860B00130604008C
S31500002A30938585B913850900EF805A4C8336811832
S31500002A40B7E50C0013060400938585BB13850900C2
S31500002A50EF80DA4A83360119B7E50C0013070D003B
S31500002A6013060400938505BE13850900EF801A49F5
S31500002A7083368119B7E50C0013870C001306040092
S31500002A80938585C113850900EF805A478336011A5D
S31500002A90B7E50C0013070C0013060400938505C563
S31500002AA013850900EF809A458336811AB7E50C0035
S31500002AB013070B0013060400938505C91385090047
S31500002AC0EF80DA436FE01FD0130B050013060500F5
S31500002AD0B7E50C0037D50C009385850E130585E503
S31500002AE0EFC00A0813090B006FE09FB3930B0500B4
S31500002AF013060500B7D50C0037D50C0093850501E4
S31500002B00130585E5EFC0CA0513890B006FE05FB1B9
S31500002B10930B050013060500B7D50C0037D50C003E
S31500002B2093850505130585E5EFC08A0313890B0018
S31500002B306FE01FAF638A0D5613850D00EFF0891AFB
S31500002B401304050003358101B7740E00EFF08919EF
S31500002B5093050400EFE0491D83B504A8EFE0097D65
S31500002B60EFF089099B0C050003350102EFF0891788
S31500002B7093050400EFE0491B83B504A8EFE0097B49
S31500002B80EFF089071B0C050003358102EFF089156C
S31500002B9093050400EFE0491983B504A8EFE009792D
S31500002BA0EFF089059B0B050003358104EFF08913CF
S31500002BB093050400EFE0491783B504A8EFE0097711
S31500002BC0EFF089031B0B050003350106EFF08911B1
S31500002BD093050400EFE0491583B504A8EFE00975F5
S31500002BE0EFF089011B0A0500033D810693040000EE
S31500002BF063060D0203350107EFF0C90E1304050045
S31500002C0013050D00EFF0090E9305050013050400EA
S31500002C10EFE08911EFE0597E9B040500033D810733
S31500002C201304000063060D0203350108EFF0890B5B
S31500002C301304050013050D00EFF0C90A93050500FE
S31500002C4013050400EFE0490EEFE0197B1B040500B5
S31500002C500337810383370103033D0105833D810566
S31500002C6003380104B387E70003368101B387A70160
S31500002C70B7E50C00B387B70193860C0093858515DD
S31500002C8013850900B38C0701EF805A27033601022A
S31500002C90B7E50C0093060C0093850518138509000B
S31500002CA0EF80DA2503368102B7E50C0093860B0028
S31500002CB09385851A13850900EF805A2463820C4098
S31500002CC013850C00EFF00902930B050013050D00A8
S31500002CD0EFF0490193850B00377C0E00EFE0C90445
S31500002CE083350CA8EFE08964EFE019719B0C0500B1
S31500002CF013850D00EFE0197F93850B00EFE0C90205
S31500002D0083350CA8EFE08962EFE0196F1B0D050013
S31500002D1003350104EFE0197D93850B00EFE0C90050
S31500002D2083350CA8EFE08960EFE0196D9B0D050077
S31500002D3003358103EFE0197B93850B00EFD0D97E35
S31500002D4083350CA8EFE0895EEFE0196B9B08050060
S31500002D5003350103233C1101EFE0D97893850B007D
S31500002D60EFD0997C83350CA8EFE0495CEFE0D96899
S31500002D70833881019B06050003368104B7E50C0004
S31500002D8013880D0093070D0013870C002330D10024
S31500002D909385051D93060B0013850900EF801A160F
S31500002DA003360106B7E50C0093060A009385052352
S31500002DB013850900EF809A1403368106B7E50C00E7
S31500002DC09385852513850900EF805A1303368107FD
S31500002DD0B7E50C009385052713850900EF801A12C5
S31500002DE003368108B7E50C0093858528138509000D
S31500002DF0EF80DA10B7E50C00138604009385052AE8
S31500002E0013850900EF809A0FB7E50C00130604003E
S31500002E109385052C13850900EF805A0E6FE09FF805
S31500002E20B7D50C00130605002338A1009385850944
S31500002E3037D50C00130585E5EFB09A52033701012B
S31500002E40130907006FE0CFFDB7D50C001306050088
S31500002E502338A100938585116FF09FFDB7D50C002F
S31500002E60130605002338A100938585196FF05FFCD2
S31500002E70930B050013060500B7D50C0037D50C00DB
S31500002E8093858521130585E5EFB09A4D13890B00CF
S31500002E906FE00FF9930B050013060500B7D50C007C
S31500002EA037D50C0093858526130585E5EFB05A4B7B
S31500002EB013890B006FE0CFF6930B05001306050090
S31500002EC0B7D50C0037D50C009385052B130585E582
S31500002ED0EFB01A4913890B006FE08FF4930B0500CE
S31500002EE013060500B7D50C0037D50C009385852F42
S31500002EF0130585E5EFB0DA4613890B006FE04FF254
S31500002F00930B050013060500B7D50C0037D50C004A
S31500002F1093850534130585E5EFB09A4413890B00B4
S31500002F206FE00FF013060500B7D50C0037D50C007F
S31500002F3093850539130585E5EFB09A4213890B0091
S31500002F406FE00FEEB7D50C00130605002338A1007D
S31500002F50938585446FF0DFED130B0500130605001E
S31500002F60B7D50C0037D50C009385854C130585E540
S31500002F70EFB01A3F13090B006FE08FEAB7D50C00CC
S31500002F80130605002338A1009385055337D50C0099
S31500002F90130585E5EFB0DA3C833601011389060097
S31500002FA06FE00FE8130B050013060500B7D50C00FC
S31500002FB037D50C009385855A130585E5EFB05A3A47
S31500002FC013090B006FE0CFE5B7D50C00130605001B
S31500002FD02338A100938505616FF05FFB130B050095
S31500002FE013060500B7D50C0037D50C009385056888
S31500002FF0130585E5EFB0DA3613090B006FE04FE2F3
S31500003000233C010C2338010C2334010C2330010C22
S315000030102338010A233C010A23300108233801061C
S3150000302023340108233C0106233401062338010218
S31500003030233C010223300104233C0104233801040C
S315000030402330010623340104233401022330010214
S31500003050233C0100930D0000930A00006FE09F914E
S31500003060930B050013060500B7E50C0037D50C00D9
S315000030709385050A130585E5EFB09A2E13890B0093
S315000030806FE00FDA930B050013060500B7E50C0099
S3150000309037D50C0093858505130585E5EFB05A2CC9
S315000030A013890B006FE0CFD7130A0000930C0000C2
S315000030B0130C0000930B0000130B00006FF0DFB23F
S315000030C093060000930C0000130D0000930D000002
S315000030D0930800006FF05FCA930B05001306050006
S315000030E0B7D50C0037D50C009385856E130585E59D
S315000030F0EFB01A2713890B006FE08FD2930B0500F0
S3150000310013060500B7D50C0037D50C00938505735B
S31500003110130585E5EFB0DA2413890B006FE04FD075
S31500003120930B050013060500B7E50C0037D50C0018
S3150000313093850584130585E5EFB09A2213890B0064
S315000031406FE00FCE13060500B7D50C0037D50C007F
S3150000315093858577130585E5EFB09A2013090B0053
S315000031606FE00FCC930B050013060500B7E50C00C6
S3150000317037D50C00938585A0130585E5EFB05A1E5B
S3150000318013890B006FE0CFC9930B050013060500EA
S31500003190B7E50C0037D50C009385059C130585E52E
S315000031A0EFB01A1C13890B006FE08FC713060500DA
S315000031B0B7E50C0037D50C009385858D130585E59D
S315000031C0EFB01A1A13890B006FE08FC5930B050039
S315000031D013060500B7E50C0037D50C0093858588E6
S315000031E0130585E5EFB0DA1713890B006FE04FC3BF
S315000031F0930B050013060500B7E50C0037D50C0048
S31500003200938505CD130585E5EFB09A1513890B0057
S315000032106FE00FC1930B050013060500B7E50C0020
S3150000322037D50C00938505D1130585E5EFB05A1304
S3150000323013890B006FE0CFBE930B05001306050044
S31500003240B7E50C0037D50C00938585AA130585E5EF
S31500003250EFB01A1113890B006FE08FBC930B0500BA
S3150000326013060500B7E50C0037D50C00938585A538
S31500003270130585E5EFB0DA0E13890B006FE04FBA40
S3150000328013060500B7E50C0037D50C00938585B409
S31500003290130585E5EFB0DA0C13090B006FE04FB8A4
S315000032A0930B050013060500B7E50C0037D50C0097
S315000032B0938585AF130585E5EFB09A0A13890B0050
S315000032C06FE00FB6930B050013060500B7E50C007B
S315000032D037D50C00938505D5130585E5EFB05A085B
S315000032E013890B006FE0CFB3930B0500130605009F
S315000032F0B7E50C0037D50C00938505DD130585E58C
S31500003300EFB01A0613890B006FE08FB1930B05001F
S3150000331013060500B7E50C0037D50C00938505D9D3
S31500003320130585E5EFB0DA0313890B006FE04FAFA5
S31500003330130B050013060500B7E50C0037D50C0086
S31500003340938585E1130585E5EFB09A0113090B0016
S315000033506FE00FAD930B050013060500B7E50C00F3
S3150000336037D50C00938505EB130585E5EFB04A7F4D
S3150000337013890B006FE0CFAA930B05001306050017
S31500003380B7E50C0037D50C00938505E6130585E5F2
S31500003390EFB00A7D13890B006FE08FA8130B0500B1
S315000033A013060500B7E50C0037D50C00938505001C
S315000033B0130585E5EFB0CA7A13090B006FE04FA637
S315000033C0930B050013060500B7E50C0037D50C0076
S315000033D0938585FA130585E5EFB08A7813890B0086
S315000033E06FE00FA4930B050013060500B7E50C006C
S315000033F037D50C00938505F5130585E5EFB04A76BC
S3150000340013890B006FE0CFA1930B0500130605008F
S31500003410B7E50C0037D50C00938505F0130585E557
S31500003420EFB00A7413890B006FE08F9F130101FA46
S3150000343023349104233C3103938405009309060049
S31500003440930520001306810023302105233C110437
S31500003450233881042338410323345103130905001B
S31500003460EF0090116304050413040500130605001C
S31500003470B7E50C0037D50C0093850559130585E58E
S31500003480EFB00A6E8330810513050400033401058D
S31500003490833481040339010483398103033A010328
S315000034A0833A8102130101066780000013060101B9
S315000034B09305100013050900EF00100C1304050016
S315000034C063100506033A8100833A01013B065A035D
S315000034D063649608E38809FA130681019305600080
S315000034E013050900EF0050091304050063180504CD
S315000034F0939704021387FAFF93D70702B307F700DF
S31500003500B3D757039B870700335AFA0283378101E3
S315000035101B0A0A0033DA470323A049016FF09FF61E
S3150000352013060500B7E50C0037D50C009385055D3D
S31500003530130585E5EFB0CA626FF0DFF413060500E8
S31500003540B7E50C0037D50C0093850566130585E5B0
S31500003550EFB00A616FF01FF337E50C0093850400A6
S3150000356013050561EFB0CA5F1304F0FF6FF09FF11A
S31500003570130101DB2334112423308124233C9122BF
S31500003580233821232334312323304123233C512163
S315000035902338612123347121233081216302052ED2
S315000035A093840500638E052C130B0600630A062C14
S315000035B0930A05001305810FEF401425B7470D0048
S315000035C0938787FC03B48700231C011C83BB070178
S315000035D0833784FE37590D0013090911130701209B
S315000035E0B307F700233C210F2338011C2330011EAB
S315000035F02334011E2338011E233C011E233C810077
S3150000360023BC77E123300102033584FE9307810151
S31500003610930500003385A700EF30947D374A0D00EF
S31500003620B7490D00130A0A0093898902130581021E
S31500003630233C4101233C310FEFA0036C930581022B
S315000036401305810FEF30D47A1306800093850400AA
S3150000365013058102EFB0C32283378101130781016D
S3150000366083B787FEB307F7006306051C93050000C2
S3150000367013850700EF30D4008327811193F7570095
S31500003680639C0712130620009305000013058101B1
S31500003690EF80441E13058101EF7054792334A10095
S315000036A02338B100930405006340051E630E051818
S315000036B0EF30007B1386040093050000130C050011
S315000036C0EFB04A2E13060000930500001305810192
S315000036D0EF80441A1386040093050C00130581013C
S315000036E0EF70D41693060B001386040093050C00A6
S315000036F013850A00EFD0DFD8930405006310050A8E
S3150000370063060C0013050C00EF200071B7470D008F
S31500003710938787F013058102233C4101233C310F37
S315000037202334F102EFA0136713050107EF3050466B
S31500003730B7670D0093878774130501062334F102DA
S31500003740EF50C024833784FE13070120233C8100F9
S31500003750B307F70023BC77E11305810F233001027D
S31500003760233C210FEF409436833081240334012417
S315000037700339012383398122033A0122833A8121C5
S31500003780033B0121833B8120033C01201385040078
S315000037908334812313010125678000001306050089
S315000037A0B7E50C0037D50C009385056F130585E545
S315000037B0EFB00A3B6FF0DFF4B71A1100B7E50C0063
S315000037C0130670009385056A13858A84EFE0D57E1B
S315000037D013850400EFE01A531306050093850400D1
S315000037E013858A84EFE0557DB7E50C001306A0002B
S315000037F09385856A13858A84EFE0157C13878A840E
S315000038008337070083B787FEB387E70083B4070FC4
S315000038106382040883C78403638C070283C5340468
S3150000382013858A84EFE0D537EFE0C51C9304F0FFDB
S315000038306FF0DFED83A507021385070093E54500CA
S31500003840EF3004646FF05FE3130C00006FF09FE746
S3150000385013850400EF70015303B70400B747000057
S31500003860938787CC033707039305A000E30AF7FA8B
S3150000387013850400E7000700930505006FF05FFA63
S315000038809304F0FF6FF05FEE37E50C001305856BD0
S31500003890EFC0DFC7EFC0DFB1130405001305810FCA
S315000038A0233C210FEF40942213050400EF304A70A9
S315000038B093070500033784FE233C81001384070029
S315000038C093070120B387E70023BC77E12330010289
S315000038D06FF0DFFC1304050063060C0013050C00F3
S315000038E0EF20805313058101EFB0C34A130504008E
S315000038F0EF300A6CEF204053EF20805C6FF0DFE280
S31500003900130405006FF01FFE9304050013058102E2
S31500003910EFA0935B938704006FF0DFF9130101DBDF
S315000039202334112423308124233C9122233821235C
S315000039302334312323304123233C51212338612171
S3150000394023347121233081216302052E93840500DF
S31500003950638E052C130B0600630A062C930A0500DA
S315000039601305810FEF40446AB7470D00938787FC24
S3150000397003B48700231C011C83BB0701833784FE25
S3150000398037590D001309091113070120B307F70072
S31500003990233C210F2338011C2330011E2334011E32
S315000039A02338011E233C011E233C810023BC77E102
S315000039B023300102033584FE93078101930500003D
S315000039C03385A700EF30D442374A0D00B7490D00C2
S315000039D0130A0A009389890213058102233C4101D7
S315000039E0233C310FEFA04331930581021305810F6C
S315000039F0EF301440130680009385040013058102FE
S31500003A00EFA01368833781011307810183B787FE0F
S31500003A10B307F7006306051C93050000138507002E
S31500003A20EF3004468327811193F75700639C0712F2
S31500003A30130620009305000013058101EF709463BF
S31500003A4013058101EF70943E2334A1002338B100A1
S31500003A50930405006340051E630E0518EF304040D1
S31500003A601386040093050000130C0500EFA09A735B
S31500003A70130600009305000013058101EF70945FA3
S31500003A801386040093050C0013058101EF70045C96
S31500003A9093060B001386040093050C0013850A0099
S31500003AA0EFD05F89930405006310050A63060C00D6
S31500003AB013050C00EF204036B7470D00938787F0BB
S31500003AC013058102233C4101233C310F2334F102CB
S31500003AD0EFA0532C13050107EF30900BB7670D00CD
S31500003AE093878774130501062334F102EF40106AA9
S31500003AF0833784FE13070120233C8100B307F700B8
S31500003B0023BC77E11305810F23300102233C210FEB
S31500003B10EF40C47B8330812403340124033901231D
S31500003B2083398122033A0122833A8121033B012111
S31500003B30833B8120033C01201385040083348123C9
S31500003B40130101256780000013060500B7E50C0088
S31500003B5037D50C0093858572130585E5EFB04A00CD
S31500003B606FF0DFF4B71A1100B7E50C00130670000A
S31500003B709385056A13858A84EFE01544138504004E
S31500003B80EFE05A18130605009385040013858A840E
S31500003B90EFE09542B7E50C001306A0009385856A11
S31500003BA013858A84EFE0554113878A84833707009B
S31500003BB083B787FEB387E70083B4070F63820408E1
S31500003BC083C78403638C070283C5340413858A8400
S31500003BD0EFE0057DEFD015629304F0FF6FF0DFEDA7
S31500003BE083A507021385070093E54500EF304429B6
S31500003BF06FF05FE3130C00006FF09FE7138504007E
S31500003C00EF70411803B70400B7470000938787CCCD
S31500003C10033707039305A000E30AF7FA13850400A8
S31500003C20E7000700930505006FF05FFA9304F0FFC5
S31500003C306FF05FEE37E50C001305856BEFC01F8D47
S31500003C40EFC00FF7130405001305810F233C210F66
S31500003C50EF40C46713050400EF308A35930705006B
S31500003C60033784FE233C8100138407009307012059
S31500003C70B387E70023BC77E1233001026FF0DFFC56
S31500003C801304050063060C0013050C00EF20C01892
S31500003C9013058101EFB0031013050400EF304A311C
S31500003CA0EF208018EF20C0216FF0DFE2130405003B
S31500003CB06FF01FFE9304050013058102EFA0D320C9
S31500003CC0938704006FF0DFF9138505006780000015
S31500003CD067800000130101FF23341100EF60DA2230
S31500003CE083308100B7470F00938707243305F50219
S31500003CF01301010167800000130101FD233C9100BF
S31500003D009304050023308102233821012334310135
S31500003D102334110293890500EF601A1F03B40400CF
S31500003D20B7D79A3B938707A03304F40283B784007E
S31500003D30B7440F0013090500938404243304F400E8
S31500003D40EF609A1CB3072541B3879702E3EA87FE23
S31500003D506386090023B0090023B409008330810279
S31500003D60033401028334810103390101833981005F
S31500003D701301010367800000630C050A93077000B6
S31500003D8063ECB70AB7F70C00938787EA939525008B
S31500003D90B385F50083A7050067800700034755062E
S31500003DA09307100013050000B397E7002330F600D1
S31500003DB06780000083378506130500002330F60070
S31500003DC06780000083470506130500002330F600D0
S31500003DD06780000083471506130500002330F600B0
S31500003DE06780000083472506130500002330F60090
S31500003DF067800000833705061305000093D7870107
S31500003E009397070393D707032330F60067800000D4
S31500003E10930700042330F6001305000067800000B6
S31500003E2083370507130500002330F600678000007E
S31500003E301305F0FF6780000083B7010213860500B3
S31500003E40B7E50C0003B58701130101FF938585765D
S31500003E5023341100EF709A0AEF608A736308051025
S31500003E60130101FE233881000334850323349100B6
S31500003E70233C110093040500630A040013050400A3
S31500003E8003340400EF105079E31A04FE03B604036A
S31500003E9003B584029305000013163600EFA09A308E
S31500003EA003B5840223B0040423BC0402938784056B
S31500003EB06304F500EF10507603B40402630A0400AD
S31500003EC0832784001B87F7FF2324E4006306070685
S31500003ED003B4040163020404832784001B87F7FFED
S31500003EE02324E400631A0702833704001305040041
S31500003EF083B70701E78007008327C4001B87F7FF06
S31500003F002326E400631A0700833704001305040020
S31500003F1083B78701E780070013850400EF10D06F91
S31500003F2083308101033401018334810013050000CD
S31500003F3013010102678000008337040013050400A3
S31500003F4083B70701E78007008327C4001B87F7FFB5
S31500003F502326E400E31E07F6833704001305040056
S31500003F6083B78701E78007006FF09FF61305F0FF20
S31500003F70678000006308053A130101FB23347101D1
S31500003F802334110423308104233C91022338210376
S31500003F902334310323304103233C5101233861018B
S31500003FA023308101938B0600638C0634138B050046
S31500003FB063880534033A85009384F5FF930A050068
S31500003FC083674A0103368A01B384F400B307F040DD
S31500003FD0B3F4F400630A0622130906008337890244
S31500003FE06384070E03B78703637897006F00C00DDD
S31500003FF003B78703636897001384070083B7070036
S31500004000E39807FE0336840103370401033C840367
S315000040108339040383368400630606282338E600C2
S315000040200337040163040700233CC7002338040058
S31500004030233C04006386061C23B0F6008337040085
S315000040406384070023B4D70083678901330C9C403F
S315000040502330040023340400637CFC0E83370902FA
S315000040602330F4026384070023B4870283378A026D
S315000040702330890213058001B384970023349A0202
S31500004080EF20105E233055012334350123386501B6
S3150000409023B0AB0013050000833081040334010410
S315000040A0833481030339010383398102033A010210
S315000040B0833A8101033B0101833B8100033C0100FC
S315000040C0130101056780000003390900E31809F0B0
S315000040D083670A0183390A00138CF7FF330C9C00AF
S315000040E0B307F040337CFC008337860033073C017E
S315000040F063F8E7128339060103360600B3893701F0
S31500004100E31406FE83378A003387890163FAE710D2
S3150000411037E50C0013050579EFA0DA5A37D40C0001
S31500004120B7E50C001306F0FF9385857A130584E541
S31500004130EFA01A23B7E50C001306F0FF9385057D63
S31500004140130584E5EFA0DA211305F0FF6FF0DFF425
S31500004150233C940213050004EF2090508337090393
S31500004160B3893401233005002334050023380500C4
S31500004170233C05002330050223340502233835038A
S31500004180233C8503638C0718930600006F004001EB
S3150000419003B7070193860700630607149307070012
S315000041A003B70703E36637FF2338F500233CD50042
S315000041B06380061423B8A60023BCA70083378902B0
S315000041C063840714930600006F00400103B70700DD
S315000041D093860700630E070E9307070003B787034E
S315000041E0E366ECFE2330F5002334D5006386061023
S315000041F023B0A6008339040323B4A7006FF01FE69B
S315000042002334F9026FF0DFE383670A0183390A007A
S31500004210138CF7FF330C9C00B307F040337CFC0093
S3150000422013058003EF20D04383274A0113090500B5
S31500004230233005002334350123388501232CF5006E
S315000042402330050213050004EF20904183378A01CD
S31500004250233005002334050023380500233C0500E0
S31500004260233005022334050223383503233C850316
S315000042702338A9022334A902130405006388070022
S315000042808336890003B7870063F8E6022330F90016
S31500004290233C2A01636C9C089307000093060000E8
S315000042A0130700002338E902130600006FF09FD7BA
S315000042B003B787006378D7001386070083B7070024
S315000042C0E39807FE2330F900233026016FF09FFCA8
S315000042D0233005002334F5008339040323B0A700F7
S315000042E06FF0DFD7233CF50023B8A7006FF01FED72
S315000042F02338A9026FF05FEC2334A9026FF09FEF19
S315000043001305F0FF6FF05FD9233005002334050055
S31500004310833904032334A9026FF05FD42338A9023A
S315000043206FF0DFE91305F0FF678000008337800137
S31500004330730010001304050013050900EF10D02DBB
S3150000434013050400EF20DA46630A0532130101FB68
S31500004350233471012334110423308104233C910258
S31500004360233821032334310323304103233C5101F5
S315000043702338610123308101930B0700630A072C60
S31500004380130B06006306062C033A85009309F6FF15
S31500004390930A050083670A0103378A001384050020
S315000043A0B389F900B307F040B3F9F900B3843501D6
S315000043B06360972C83378A01639007026F000008B9
S315000043C06366040363F496066372980263F08602DA
S315000043D083B707006384070683B6870003B807011F
S315000043E033880601E37ED4FC63F4960437F50C00AB
S315000043F013050588EFA01A2D37D40C00B7F50C006D
S315000044001306F0FF93858582130584E5EFA04A75B0
S31500004410B7F50C001306F0FF93850585130584E5B3
S31500004420EFA00A741305F0FF6F00400EE3E286FA70
S31500004430E3FE04FB83B70700E39007FA1305800346
S31500004440EF20102283274A01130C050013050004F0
S3150000445023300C0023348C0023383C01232CFC0031
S3150000446023300C02EF20D01F83378A01233005004A
S315000044702334050023380500233C050023300502BC
S315000044802334050223388502233C35032338AC0246
S315000044902334AC02130905006388070083368C00B9
S315000044A003B7870063F0E60A2330FC0083278C01FC
S315000044B0233C8A0123380C0223380900233C0900D7
S315000044C023340C0223300900233409006386070ACB
S315000044D083370C022330F9026384070023B42703D1
S315000044E083378A0223302C0313058001B3893701F1
S315000044F023343A03EF20D0162330550123348500A8
S315000045002338650123B0AB00130500008330810416
S31500004510033401048334810303390103833981029F
S31500004520033A0102833A8101033B0101833B810087
S31500004530033C0100130101056780000003B78700F3
S315000045406378D7001386070083B70700E39807FE52
S315000045502330FC0083278C012330860123380C028C
S3150000456023380900233C090023340C0223300900B8
S3150000457023340900E39E07F413050004233C3903A2
S31500004580EF20100E83370C0323300500233405007B
S3150000459023380500233C0500233005022334050299
S315000045A023389502233C05026380070C930600001E
S315000045B06F00400103B707019386070063020706F1
S315000045C09307070003B70703E36697FE2338F50052
S315000045D0233CD5006384060623B8A60023BCA700A7
S315000045E083378C02638A0706930600006F0040013A
S315000045F003B7070093860700630A070293070700BD
S3150000460003B78703E31607FE2330F5002334D500EE
S31500004610638A060223B0A60023B4A7006FF05FEBFF
S31500004620233CF50023B8A7006FF09FFB233005005D
S315000046302334F50023B0A7006FF09FE92338AC02BE
S315000046406FF0DFF92334AC0223B4A7006FF05FE804
S315000046501305F0FF6FF09FEB2330050023340500B0
S315000046602334AC026FF0DFE62338AC026FF05FF75D
S3150000467037F50C00130505806FF0DFD71305F0FF43
S31500004680678000001304050013050C00EF10C078C6
S3150000469013050400EF20DA11130101FD2330810216
S315000046A023341102233C91002338210123343101A4
S315000046B013040000630C05068337050003378500E5
S315000046C09304050003B987000334890163040408D1
S315000046D083378400636CF70683360401B387D700FB
S315000046E06376F70683350402639805006F000006BB
S315000046F083B50502638C050483B70503E31AF7FE49
S315000047001305040083B98503EF10400183370402C3
S31500004710638E07048337890213040000B387374189
S315000047202334F90213850400EF10006F83308102F1
S3150000473013050400033401028334810103390101A6
S3150000474083398100130101036780000003340400EC
S31500004750E31004F837F50C00930507001305858B65
S31500004760EFA00A401304F0FF6FF0DFFB83378901E7
S31500004770638E0700639687006F0080036384870259
S315000047801387070083B70700E39A07FE0335040380
S3150000479063040500EF10406813050400EF10C067BE
S315000047A06FF05FF7833704002330F7006FF01FFECA
S315000047B083370400233CF9006FF05FFD630A0500B0
S315000047C0833785001305000023B0F50067800000DD
S315000047D01305F0FF6780000093070500630A0502D2
S315000047E0638C05008336850003B7860083B6860290
S315000047F03307D74023B0E50013050000630C06001D
S3150000480083B7870083B787022330F60067800000EE
S315000048101305F0FF678000006306050C130101FC19
S3150000482023349102B7440F0023302103233C310186
S315000048302338410113890424233C110223388102C1
S31500004840130A0500938905009384F4231306C10017
S315000048509305400113050A0023260100EF10002CE2
S31500004860631A05028327C10093F77700638C070458
S31500004870638A0904EF505A6913040500EF50DA6899
S31500004880B3078540B3872703E3FAF4FE9389F9FF5C
S315000048906FF0DFFB37D40C00B7F50C0013060500EC
S315000048A09385858E130584E5EFA08A2BB7F50C005A
S315000048B01306F0FF93850590130584E5EFA04A2AB9
S315000048C01305F0FF8330810303340103833481022F
S315000048D00339010283398101033A010113010104FD
S315000048E0678000001305F0FF67800000130101FCDC
S315000048F0233C110223388102233491022330210301
S31500004900233C310123384101233451016306051E3E
S31500004910138405006382051E03370501B307D6001D
S3150000492083340500636AF71C0339850033092601C1
S315000049309377F9036392071C9386F60383B70407FC
S3150000494093F906FC3307390163E8E71A376A260547
S3150000495093050AC013850400EFF01FEC930A0500C7
S31500004960631C050893D729006386090A93992700D3
S31500004970B38989003B098940130A0AC06F00800089
S31500004980630A340903260400930580001385040096
S31500004990EF108017930705003B068900930540003A
S315000049A01385040013044400639A0708EF10C0152A
S315000049B093070500130640009305C0001385040005
S315000049C06396070AEF1040149307050013062000AC
S315000049D093050000138504006392070CEF10C012C4
S315000049E01306050093050A00138504006310060EDE
S315000049F0EFF09FE2E30605F837D40C00B7F50C009C
S31500004A001306F0FF938505A3130584E5EFA04A1569
S31500004A10930AF0FF83308103033401038334810258
S31500004A200339010283398101033A010113850A0022
S31500004A30833A8100130101046780000037D40C001B
S31500004A40B7F50C001386070093850593130584E5D7
S31500004A50EFA00A11B7F50C001306F0FF93858595B4
S31500004A60130584E5EFA0CA0F6FF05FF937D40C0089
S31500004A70B7F50C001386070093850593130584E5A7
S31500004A80EFA00A0EB7F50C001306F0FF9385859884
S31500004A90130584E5EFA0CA0C6FF05FF637D40C005F
S31500004AA0B7F50C001386070093850593130584E577
S31500004AB0EFA00A0BB7F50C001306F0FF9385059DD2
S31500004AC0130584E5EFA0CA096FF05FF337D40C0035
S31500004AD0B7F50C0093850593130584E5EFA04A0806
S31500004AE0B7F50C001306F0FF938505A0130584E5C2
S31500004AF0EFA00A076FF09FF0930AF0FF6FF09FF1A7
S31500004B00130101FB2334110423308104233C910259
S31500004B10233821032334310323304103233C51013D
S31500004B20638C051E130405006308051E03B7050103
S31500004B30B307D60083B405006360F71E03B985008A
S31500004B40330926019377F9036398071C9386F603C6
S31500004B5083B7040793F906FC3307390163EEE71AB6
S31500004B60376A260593050AC013850400EFF0DFCAED
S31500004B70930A05006312050A93D72900638C090A74
S31500004B8093992700B30934013B098940130A0AC0E7
S31500004B906F00000223260100EF005078631605140B
S31500004BA08327C10013044400232EF4FE638489087E
S31500004BB03B0689009305400013850400EF00D0747E
S31500004BC093070500130640009305C00013850400F3
S31500004BD063960708EF00507393070500130610004D
S31500004BE093050000138504006392070AEF00D07155
S31500004BF01306050093050A00138504006310060CCE
S31500004C00EFF09FC1930705001306C100930500014D
S31500004C1013850400E38007F837D40C00B7F50C00C1
S31500004C201306F0FF938505AC130584E5EF905A73E0
S31500004C30930AF0FF83308104033401048334810333
S31500004C400339010383398102033A010213850A00FD
S31500004C50833A8101130101056780000037D40C00F7
S31500004C60B7F50C001386070093850593130584E5B5
S31500004C70EF901A6FB7F50C001306F0FF9385859831
S31500004C80130584E5EF90DA6D6FF05FF937D40C0009
S31500004C90B7F50C001386070093850593130584E585
S31500004CA0EF901A6CB7F50C001306F0FF9385059D7F
S31500004CB0130584E5EF90DA6A6FF05FF637D40C00DF
S31500004CC0B7F50C0093850593130584E5EF905A69B3
S31500004CD0B7F50C001306F0FF938585A6130584E54A
S31500004CE0EF901A686FF09FF337D40C00B7F50C00FD
S31500004CF0130605009385858E130584E5EF905A66A5
S31500004D00B7F50C001306F0FF938585A9130584E516
S31500004D10EF901A656FF09FF0930AF0FF6FF09FF126
S31500004D20630E0504630C0604833805039397050296
S31500004D3093D70702B3F71703033785029396370015
S31500004D403307D70003380700630A08020337080051
S31500004D50832687006388D5020335070013080700FA
S31500004D60630E0500832685001307050013950602CA
S31500004D701355050233751503E38EA7FC1305F0FFE3
S31500004D806780000083370800E38A07FE83A7C70011
S31500004D90130500002320F6006780000013050000BD
S31500004DA067800000630A05006388060023B00600DA
S31500004DB013050000678000001305F0FF6780000000
S31500004DC0130101FA233C110423388104233491048E
S31500004DD023302105233C3103233841032334510377
S31500004DE0233061036308052493840500130A060033
S31500004DF0138605009305400013040500139B040267
S31500004E00EF009050135B0B026318051813060A0097
S31500004E109305800013050400EF00104F6318051A70
S31500004E20130640009305000013050400EF00D04D63
S31500004E30930905006316051C833504038337840232
S31500004E403375BB02931A3500B387570103B60700C3
S31500004E50630A06068337060003A787006386E40213
S31500004E6083B607006380060603A78600138607003D
S31500004E709317070293D70702B3F7B7026314F50433
S31500004E8093870600E39EE4FC833706001389C70078
S31500004E90638A070223204901833081050334010513
S31500004EA08334810403390104033A0103833A8102FE
S31500004EB0033B0102138509008339810313010106AF
S31500004EC06780000013050001EF1090798337040511
S31500004ED00336040483350403130905009306100002
S31500004EE0130584042330090023249900232609008E
S31500004EF02334F100EF1094572338A100233CB1006E
S31500004F001375F50F631C050203378402B30A5701B4
S31500004F1083B70A006388070483B707002330F900C4
S31500004F2083B70A0023B02701833704041309C90095
S31500004F30938717002330F4046FF0DFF51306810022
S31500004F4013058402EF005022833A040303378402D8
S31500004F50B37A5B03939A3A00B30A570183B70A0000
S31500004F60E39C07FA83378403233C24032330F900A8
S31500004F70638E070083E7870083360403B3F7D702FF
S31500004F80939737003307F7002330270193078403ED
S31500004F9023B0FA006FF05FF937D40C00B7F50C00B8
S31500004FA01306050093850593130584E5EF905A3B98
S31500004FB0B7F50C001306F0FF938585AF130584E55E
S31500004FC0EF901A3A9309F0FF6FF01FED37D40C00FB
S31500004FD0B7F50C001306050093850593130584E5C4
S31500004FE0EF901A38B7F50C001306F0FF938585B2DB
S31500004FF0130584E5EF90DA369309F0FF6FF0DFE9E9
S3150000500037D40C00B7F50C001306050093850593FD
S31500005010130584E5EF90DA34B7F50C001306F0FFBC
S31500005020938585B5130584E5EF909A339309F0FFD0
S315000050306FF09FE69309F0FF6FF01FE6130405007B
S3150000504013050900EF00505D13050400EF105A76B2
S31500005050130101FC233C11022338810223349102FF
S3150000506023302103233C31012338410123345101EC
S3150000507023306101630E05441309050013058007FB
S31500005080EF10105EB7F5FF01939575001304050048
S31500005090EF00902193071000939407022338F4023F
S315000050A083A701DB93098405130684069305000292
S315000050B0130504002334040023380400233C0400B1
S315000050C02330040223343403233C04022330040433
S315000050D02324F40423380404233C040423389406CC
S315000050E0EF00101F631205381306040693058001AE
S315000050F013050400EF00D01D6312053A13050004E2
S31500005100EF101056B7F60C00938A86FF3707000497
S31500005110B7060100033A04012338D5001307170028
S31500005120B7F6FF0F93841400130605019396460005
S315000051301317C7002330550123349500233CD500AF
S315000051402330E50223340502233C05022334C40040
S315000051502338A400630A0A0083278A001B87F7FF07
S315000051602324EA0063020716034A54069304100038
S31500005170339A440163EA4419370600609305100028
S3150000518013050400EFF0DFC393040500631C05104C
S31500005190130600009305200013050400EFF05FC21C
S315000051A093040500630C051E13060500B7F50C00F5
S315000051B037D50C00938505C8130585E5EF905A1A77
S315000051C003398403630A090013050900033909003A
S315000051D0EF009044E31A09FE033604030335840204
S315000051E09305000013163600EF90CA7B0335840240
S315000051F023300404233C04026384A900EF00D04159
S3150000520003390402630A0902832789001B87F7FF13
S315000052102324E900631207028337090013050900F6
S3150000522083B70701E78007008327C9001B87F7FFBD
S315000052302326E9006302072003390401630A0902F1
S31500005240832789001B87F7FF2324E90063120702DF
S31500005250833709001305090083B70701E7800700B4
S315000052608327C9001B87F7FF2326E900630C071A6B
S3150000527013050400EF00503A833081030334010321
S315000052800339010283398101033A0101833A81001E
S31500005290033B0100138504008334810213010104DA
S315000052A06780000013060500B7F50C0037D50C0023
S315000052B0938505C3130585E5EF909A0A03398403A0
S315000052C0E31409F06FF05FF183370A0013050A0053
S315000052D083B70701E78007008327CA001B87F7FF0C
S315000052E02326EA00E31207E883370A0013050A00BB
S315000052F09304100083B78701E7800700034A54062A
S31500005300339A4401E3FA44E713050004EF105035DD
S3150000531037071000033B0402939404021307170097
S3150000532093841400930605013706007F1317C70000
S3150000533023305501233495002338C500233C45010D
S315000053402330E50223340502233C0502233CD40026
S315000053502330A402E3020BE283278B001B87F7FFAF
S315000053602324EB00E31A07E083370B0013050B0039
S3150000537083B70701E78007008327CB001B87F7FF6A
S315000053802326EB00E31A07DE83370B0013050B0019
S3150000539083B78701E78007006FF01FDE1306000062
S315000053A09305300013050400EFF09FA19304050058
S315000053B0631C050213060000930540001305040054
S315000053C0EFF01FA093040500630E05021306050007
S315000053D0B7F50C0037D50C00938505D0130585E588
S315000053E0EF900A786FF09FED13060500B7F50C00F5
S315000053F037D50C00938585CC130585E5EF904A7665
S315000054006FF0DFEB13060000930550001305040050
S31500005410EFF01F9B93040500631A050223308900F1
S315000054206FF09FE5833709001305090083B78701ED
S31500005430E78007006FF0DFE38337090013050900F3
S3150000544083B78701E78007006FF01FDF13060500AB
S31500005450B7F50C0037D50C00938585D3130585E584
S31500005460EF900A706FF09FE537D40C00B7F50C008B
S3150000547013060500938505B9130584E5EF904A6E7A
S31500005480B7F50C001306F0FF938505BB130584E5FD
S31500005490EF900A6D9304F0FF6FF01FDE37D40C0017
S315000054A0B7F50C0013060500938505B9130584E5C9
S315000054B0EF900A6BB7F50C001306F0FF938505BF56
S315000054C0130584E5EF90CA699304F0FF6FF0DFDA05
S315000054D09304F0FF6FF05FDA9304050013050400F0
S315000054E0EF00901313850400EF109A2C6302051247
S315000054F063800512630E0610130101FE233491002A
