S01C00006770752D6576616C756174696F6E2D6C696768742E7372656312
S3150000000097210E009381812F97020000938282151B
S3150000001073905230732440F163100402970200007B
S315000000209382421573905230EF909A049712000013
S31500000030938242DCE780020013132400970200003B
S315000000409382420CB302530003A302000F00F00F89
S31500000050E31C03FE17DE1000130ECE489313440074
S31500000060B30E7E00138F8E0083BF0E0003310F0088
S31500000070970200009382021073905230732540F16C
S31500000080E7800F00130000001300000013000000BB
S31500000090130000001300000013000000130000000E
S315000000A013000000130000001300000013000000FE
S315000000B013000000130000001300000013000000EE
S315000000C013000000130000001300000013000000DE
S315000000D013000000130000001300000013000000CE
S315000000E013000000130000001300000013000000BE
S315000000F013000000130000001300000013000000AE
S3150000010073001000730010007300100073001000DD
S3150000011073001000730010007300100073001000CD
S3150000012073001000730010007300100073001000BD
S3150000013073001000730010007300100073001000AD
S3150000014013132500970300009383C3FBB3027300C8
S315000001500F00500F23A00200130500006780000067
S3150000016073001000130000001300000013000000CD
S3150000017073202034130101EF23301100233831009E
S31500000180233C41002330510223346102233871029B
S31500000190233C8102233091042334A1042338B10483
S315000001A0233CC1042330D1062334E1062338F1066B
S315000001B0233C01072330110923342109233831094F
S315000001C0233C41092330510B2334610B2338710B37
S315000001D0233C810B2330910D2334A10D2338B10D1F
S315000001E0233CC10D2330D10F2334E10F2338F10F07
S315000001F073250030F325103473262034233CA10EDA
S315000002002330B1102334C11063560600EF908A756F
S315000002106F00C00093060100EF904A74833001001E
S3150000022083310101033281018332010203338102EA
S3150000023083330103033481038334010403358104CA
S3150000024083350105033681058336010603378106AA
S31500000250833701070338810783380108033981088A
S3150000026083390109033A8109833A010A033B810A6A
S31500000270833B010B033C810B833C010C033D810C4A
S31500000280833D010D033E810D833E010E033F810F29
S31500000290833F011073100F3073901F34033F810E9C
S315000002A0833F010F1301011173002030000000008D
S315000002B00000000000000000000000000000000038
S315000002C00000000000000000000000000000000028
S315000002D00000000000000000000000000000000018
S315000002E00000000000000000000000000000000008
S315000002F000000000000000000000000000000000F8
S3150000030000000000000000000000000000000000E7
S3150000031000000000000000000000000000000000D7
S3150000032000000000000000000000000000000000C7
S3150000033000000000000000000000000000000000B7
S3150000034000000000000000000000000000000000A7
S31500000350130101FF1305800023341100EF20491A11
S31500000360B7A70D00938707A037260900B7A50D008C
S315000003702330F5001306466393858594EF60101EBF
S31500000380130101FF1305800023341100EF204917E4
S31500000390B7870D009387878637060800B7850D0057
S315000003A02330F500130646B293850584EF60101BD3
S315000003B0130101FF1305800023341100EF204914B7
S315000003C0B7870D009387878C37060800B7850D0021
S315000003D02330F500130686B79385058AEF6010185B
S315000003E0130101FF1305800023341100EF2049118A
S315000003F0B7870D009387879237060800B7850D00EB
S315000004002330F5001306C6BC93850590EF601015E2
S31500000410130101FE233881001304050013050001B2
S31500000420233C110023349100EF20890D930504002D
S3150000043013040500EF70492E37660900B7A50D00B5
S3150000044013068604938585F113050400EF601011E9
S315000004509304050013050400EF200910138504001A
S31500000460EF601A3E130101FE2338810013040500D4
S3150000047013050001233C110023349100EF204908A5
S315000004809305040013040500EF70492E3766090032
S31500000490B7A50D001306864E938585F41305040053
S315000004A0EF60D00B9304050013050400EF20C90A82
S315000004B013850400EF60DA38130101FE233881004A
S315000004C01304050013050001233C11002334910099
S315000004D0EF2009039305040013040500EF70092FAC
S315000004E037660900B7A50D0013068648938585F77C
S315000004F013050400EF60900693040500130504003D
S31500000500EF20890513850400EF609A33130101FE7D
S31500000510233881001304050013050001233C110054
S3150000052023349100EF10D97D9305040013040500D0
S31500000530EF70C92F37660900B7A50D001306863C74
S31500000540938585FA13050400EF60500193040500B6
S3150000055013050400EF20490013850400EF605A2EAE
S31500000560130101FE23388100130405001305000161
S31500000570233C110023349100EF1099789305040071
S3150000058013040500EF70893037660900B7A50D0022
S3150000059013068642938585FD13050400EF60007CF3
S315000005A09304050013050400EF10197B138504005E
S315000005B0EF601A29130101FE233881001304050098
S315000005C013050001233C110023349100EF105973E9
S315000005D09305040013040500EF70493137660900DE
S315000005E0B7A50D001306860A93858500130504003A
S315000005F0EF60C0769304050013050400EF10D9756B
S3150000060013850400EF60DA23130101FE233881000D
S315000006101304050013050001233C11002334910047
S31500000620EF10196E9305040013040500EF704931AD
S3150000063037660900B7A50D001306861693850503D0
S3150000064013050400EF608071930405001305040090
S31500000650EF10997013850400EF609A1E130101FED6
S31500000660233881001304050013050001233C110003
S3150000067023349100EF10D968930504001304050094
S31500000680EF70093237660900B7A50D001306861C00
S315000006909385050613050400EF60406C930405007E
S315000006A013050400EF10596B13850400EF605A1907
S315000006B0130101FE23388100130405001305000110
S315000006C0233C110023349100EF1099639305040035
S315000006D013040500EF70C93237660900B7A50D008F
S315000006E0130686109385050913050400EF6000675D
S315000006F09304050013050400EF1019661385040022
S31500000700EF601A14130101FF130580002334110052
S31500000710EF10195FB7870D009387878C370608009F
S31500000720B7850D002330F500130686B79385058A35
S31500000730EF60C062130101FF13058000233411002E
S31500000740EF10195CB7870D0093878792370608006C
S31500000750B7850D002330F5001306C6BC93850590BA
S31500000760EF60C05F130101FF130580002334110001
S31500000770EF101959B7B70D00938707E537A609009B
S31500000780B7B50D002330F50013060670938585E294
S31500000790EF60C05C130101FD233C9100930405004A
S315000007A0130500032334110223308102EF1059553B
S315000007B013040500EF80C964930710002320F1009D
S315000007C08335010013060500938604001305040013
S315000007D0EF80D945B7B70D00938707891305040045
S315000007E02330F400EF50D9059305050013050402E4
S315000007F0EFA0C90837960900B7B50D00130646FCE9
S315000008009385058013050400EF604055B7B70D00CA
S315000008109304050093878786130504002330F400AC
S31500000820EF9019056F00800093040500130504007E
S31500000830EF10995213850400EF609A00130101FD31
S315000008402338210113090500130500032330810213
S31500000850233C91002334110293840500EF10594A7A
S315000008601304050063880400EF90D91913060500E8
S315000008706F000001EF80C9581306050093041000AD
S315000008802320910083350100930609001305040017
S31500000890EF80D939B7B70D00938707891305040090
S315000008A02330F400EF50C9799305050013050402BF
S315000008B0EF90D97C37960900B7B50D00130646FCB4
S315000008C09385058013050400EF604049B7B70D0016
S315000008D09304050093878786130504002330F400EC
S315000008E0EF9009796F00800093040500130504005A
S315000008F0EF10994613850400EF608A74130101FB1B
S31500000900233821031309050013050002233081044F
S31500000910233C91022334110423343103EF10593E52
S3150000092093040500130609009385010013050100D1
S31500000930EF90897F93050100138504009309010157
S31500000940EF80996F0335010063043501EF50C05500
S31500000950B7B70D001384010037A60900B7B50D001F
S31500000960938707CA13060607938585C21385040075
S3150000097023B0F40023A8240123BC8400EF60003ECA
S315000009808337010013040500638A370113850700C6
S31500000990EF5080516F00800013040500138504009A
S315000009A0EF10993B13050400EF608A69130101FFFC
S315000009B02330810037B41000130504A2233411003C
S315000009C0EF70C060930504A20334010083308100F8
S315000009D037850000138601FA130585FE1301010110
S315000009E06F90DA5F130101FF2330810037B41000E6
S315000009F0130584A223341100EF70405D930584A291
S31500000A00033401008330810037850000138601FA24
S31500000A10130585FE130101016F905A5CB7B71000EC
S31500000A2003C707AD63160700130710002388E7AC5A
S31500000A30B7B7100003C787AC63160700130710008B
S31500000A402384E7ACB7B7100003C707AC63160700EB
S31500000A50130710002380E7ACB7B7100003C787ABB6
S31500000A606316070013071000238CE7AAB7B7100018
S31500000A7003C707AB63160700130710002388E7AA0E
S31500000A80B7B7100003C787AA63160700130710003D
S31500000A902384E7AAB7B7100003C707AA631607009F
S31500000AA0130710002380E7AAB7B7100003C787A96A
S31500000AB06316070013071000238CE7A86780000061
S31500000AC0B7B7100003C707B5631607001307100072
S31500000AD02388E7B4B7B7100003C787B463160700C7
S31500000AE0130710002384E7B4B7B7100003C707B491
S31500000AF063160700130710002380E7B4B7B710008A
S31500000B0003C787B36316070013071000238CE7B2E9
S31500000B10B7B7100003C707B3631607001307100023
S31500000B202388E7B2B7B7100003C787B2631607007A
S31500000B30130710002384E7B2B7B7100003C707B244
S31500000B4063160700130710002380E7B2B7B710003B
S31500000B5003C787B16316070013071000238CE7B09D
S31500000B6067800000B7B7100003C787BF631607008A
S31500000B7013071000238CE7BEB7B7100003C707BFE3
S31500000B8063160700130710002388E7BEB7B71000E7
S31500000B9003C787BE63160700130710002384E7BE4A
S31500000BA0B7B7100003C707BE631607001307100088
S31500000BB02380E7BEB7B7100003C787BD63160700DB
S31500000BC013071000238CE7BCB7B7100003C707BD97
S31500000BD063160700130710002388E7BCB7B7100099
S31500000BE003C787BC63160700130710002384E7BCFE
S31500000BF0B7B7100003C707BC63160700130710003A
S31500000C002380E7BCB7B7100003C787BB631607008E
S31500000C1013071000238CE7BAB7B7100003C707BB4A
S31500000C2063160700130710002388E7BAB7B710004A
S31500000C3003C787BA63160700130710002384E7BAB1
S31500000C40B7B7100003C707BA6316070013071000EB
S31500000C502380E7BA67800000B7B7100003C787CBC9
S31500000C606316070013071000238CE7CAB7B71000F6
S31500000C7003C707CB63160700130710002388E7CACC
S31500000C80B7B7100003C787CA63160700130710001B
S31500000C902384E7CAB7B7100003C707CA631607005D
S31500000CA0130710002380E7CAB7B7100003C787C928
S31500000CB06316070013071000238CE7C8B7B71000A8
S31500000CC003C707C963160700130710002388E7C880
S31500000CD0B7B7100003C787C86316070013071000CD
S31500000CE02384E7C8B7B7100003C707C86316070011
S31500000CF0130710002380E7C8B7B7100003C787C7DC
S31500000D006316070013071000238CE7C6B7B7100059
S31500000D1003C707C763160700130710002388E7C633
S31500000D20B7B7100003C787C663160700130710007E
S31500000D302384E7C6B7B7100003C707C663160700C4
S31500000D40130710002380E7C667800000130101FE29
S31500000D5023349100B7140000233881009384041CC7
S31500000D6037D410001304844713850400233C110074
S31500000D70233C9400EFC05A5C2338A40063020502AA
S31500000D802334A400233095002334050083308101E9
S31500000D9003340101833481001301010267800000DE
S31500000DA0233C0400233404006FF05FFE130101FFAF
S31500000DB02330810037A50900138601FA93850100C7
S31500000DC01305450623341100EF905A21138601FAC4
S31500000DD0033401008330810037A50900938581FF24
S31500000DE013050506130101016F905A1F000000004C
S31500000DF0EF801A2813040100930200006390020298
S31500000E0017A51000130505C117D61000130606C452
S31500000E10B306A64093D53600EF809A2697A2100017
S31500000E209382420E23B08200EF809A27EF805A24E5
S31500000E30EF80DA53EF809A59EF80DA3F17A50A0060
S31500000E401305855CEF904A7FEFC00A6FEF805A2248
S31500000E5097A21000938202F203A502009382010179
S31500000E6083B5020013060000EF00400FEF90DA187A
S31500000E7073001000000000000000000037250E007F
S31500000E8037270E00930785AF130787AF630AF7006E
S31500000E909307000063860700130585AF6780070088
S31500000EA06780000037250E00930785AF37270E00B1
S31500000EB0930587AFB385F54093D7354093D5F503B2
S31500000EC0B385F50093D51540638A050093070000A6
S31500000ED063860700130585AF6780070067800000FB
S31500000EE0130101FF2330810037B41000834784F0DB
S31500000EF02334110063920702EFF05FF8B7970A00F8
S31500000F009387C7406386070013858104EF800A50E4
S31500000F10930710002304F4F08330810003340100AA
S31500000F201301010167800000B7970A009387C71E67
S31500000F3063840702B7B51000130101FF938505F11D
S31500000F401385810423341100EF804A2A83308100FF
S31500000F50130101016FF01FF56FF0DFF4130101F6C5
S31500000F60233C1108233881082334910823302109B2
S31500000F70233C310713050001EFC01A3C130405009A
S31500000F8013050001EFC05A3B9304050093070000C8
S31500000F90930600013307F4002300F7009387170038
S31500000FA0E39AD7FE93870400138704012380070082
S31500000FB093871700E39CE7FE2334010623300106DE
S31500000FC0233C0104233801042334010437D50C00E3
S31500000FD0130505C6EFD01A7813058106EF400011F8
S31500000FE037D50C00130505C8EFD0DA761306810352
S31500000FF09305100003358106EF20105813060104EF
S315000010009305200003358106EF20105713060103D0
S315000010109305300003358106EF2010568336810391
S31500001020033601048335010337D50C00130505CAC1
S31500001030EFD01A3CB7F90D00938709AF37190E00A8
S31500001040130989F43309F9409305090037D50C00D3
S31500001050130585CDEFD0DA3993060105130609008D
S31500001060938509AF03358106EF00C02C9305000276
S3150000107037D50C00130505D0EFD09A379306010635
S31500001080130610009305000103358106EF20906ECC
S315000010909305810203350106EF3040729306810500
S315000010A0130620009305000103358106EF20906C9E
S315000010B09305010203358105EF30407037D50C00EA
S315000010C0130585D2EFD01A69930700012334F10086
S315000010D0833781022338F10083370102233CF10074
S315000010E0930681041306800193058100033581066A
S315000010F0EF0000399305000137D50C00130505D420
S31500001100EFD01A2F93060001130600009305040082
S3150000111003350106EF30500737D50C00130505D708
S31500001120EFD05A639306000113060000938504006E
S3150000113003358105EF30500537D50C00130505D969
S31500001140EFD05A61033681048335010503358106E4
S31500001150EF40804337D50C00130505DAEFD09A5FD0
S31500001160B7652605938505C003358106EF30C06A4D
S315000011709305000137D50C00130585DCEFD05A27FF
S3150000118093060001130600008335810513850400CC
S31500001190EF30D0209305000237D50C00130585DF0C
S315000011A0EFD01A2503350106EF30004F03358105D0
S315000011B0EF30804E03350105EF30004E03358104D4
S315000011C0EF30804D37D50C00130505E2EFD09A5865
S315000011D003358106EF2090481306000093070000B0
S315000011E0130500019B8507003387F400834607003B
S315000011F06398C604938717001B0626001376F60F1E
S31500001200E392A7FE37D50C00130505E8EFD09A54F4
S3150000121013050400EFC01A1313850400EFC09A12D9
S3150000122013050000833081090334010983348108E2
S3150000123003390108833981071301010A6780000019
S3150000124037D50C00130505E4EFD09A1A37D50C00F4
S31500001250130505E7EFD01A506FF09FFBB7B71000E4
S3150000126083B707D6639A070037B71000B7E71000B1
S31500001270938787A42330F7D6B7B7100083B787D5EF
S3150000128063980700B7B710003707001023BCE7D4F0
S3150000129067800000130101FE23388100233C110002
S315000012A02334910037B41000834704A10F00F00FD8
S315000012B093F7F70F63800702B7B4100083308101FC
S315000012C00334010103A584A18334810013010102C3
S315000012D067800000130504A1EF50D034B7B41000A6
S315000012E0E30E05FC37D50C00130505E923AC04A075
S315000012F0EFC00A1063060500EF904A3523ACA4A0A0
S31500001300130504A1EF50503837450000938584A19A
S31500001310138601FA130505CDEF904A4C83308101FF
S315000013200334010103A584A1833481001301010262
S3150000133067800000130101FC233C1102233881025F
S315000013402334910223302103233C31012338410108
S3150000135063040512938405006380051293078000D9
S315000013601309060063FAC710138A0600638606107F
S3150000137083B5050083B98400130781009306000036
S31500001380B389B94013860900EF20107C13040500C9
S315000013906314050403358100130909FF9306100041
S315000013A01306090093050000EF3010291304050009
S315000013B063020506B7D50C0013060500938505F1F3
S315000013C037D50C00130585EEEFD09A020335810060
S315000013D0EF30802C6F00C00113060500B7D50C0056
S315000013E037D50C00938585EA130585EEEFD05A00B4
S315000013F0833081031305040003340103833481021F
S315000014000339010283398101033A01011301010401
S31500001410678000000335810093063000338629413A
S3150000142093050900EF3050211304050063160502E9
S315000014300335810093060900130600009385040115
S31500001440EF308054130405006310050283378100D2
S315000014502330FA006FF0DFF9B7D50C00130605004C
S31500001460938585F46FF0DFF5B7D50C0013060500FC
S31500001470938585F96FF0DFF41304F0FF6FF05FF7E3
S31500001480130101FC233C110223388102233491020B
S3150000149023302103233C31016308050E138905001F
S315000014A06384050E930406006300060E9389060006
S315000014B0638C060C930681001306100093850400C6
S315000014C0EF20502B13040500631405040335810037
S315000014D0938604001306000093050900EF30C04A06
S315000014E013040500631205068337810083308103E8
S315000014F0130504000334010323B0F9008334810289
S315000015000339010283398101130101046780000058
S3150000151013060500B7D50C0037D50C00938585FC5E
S31500001520130585EEEFD0CA6C8330810313050400E2
S3150000153003340103833481020339010283398101B3
S31500001540130101046780000013060500B7D50C00DF
S3150000155037D50C0093850500130585EEEFD04A6953
S3150000156003358100EF3040138330810313050400F7
S315000015700334010383348102033901028339810173
S3150000158013010104678000001304F0FF6FF0DFF918
S31500001590130101DE233C311F130601169389050052
S315000015A09305300023349120233C112023388120D9
S315000015B0233021212338411F2334511F2330611F3B
S315000015C0233C711D2338811D2334911D2330A11D19
S315000015D0233CB11B93040500233C01102330011268
S315000015E02334011223380112233C01122330011443
S315000015F02334011423380114233C0114EF20C0774F
S31500001600630005061309050013060500B7D50C008F
S3150000161037D50C0093850503130585EEEFD04A5D9B
S315000016208330812103340121833481208339811F52
S31500001630033A011F833A811E033B011E833B811D32
S31500001640033C011D833C811C033D011C833D811B22
S3150000165013050900033901201301012267800000E8
S31500001660130681169305700013850400EF20C070E1
S31500001670130905006300050213060500B7D50C0023
S3150000168037D50C0093858506130585EEEFD04A56AF
S315000016906FF01FF9033781169307100013950702A1
S315000016A0939517021396270293963702939747024C
S315000016B03375A700B375B7003376C700B376D70086
S315000016C0B377F700233CA1082330B10A2334C10ABB
S315000016D02330D10E2338F108EFF0DFBB833B011630
S315000016E023380100130A050063940B006F10501194
S315000016F013040000233C010C2338010C2334010C95
S315000017002330010C2338010A233C010A2330010847
S315000017102338010623340108233C0106233401063D
S3150000172023380102233C010223300104233C010437
S315000017302338010423300106233401042334010233
S3150000174023300102233C0100930D0000930A0000A0
S31500001750233C210F371900009306011713060400D6
S31500001760930509B013850400EF30806D630405000E
S315000017706F10C0379306811713060400930529B02E
S3150000178013850400EF30C06B630405006F1040380A
S31500001790930710006306FA66930720006310FA1495
S315000017A083370109638407006F0050678337810917
S315000017B0638407006F0050758337010A638407004E
S315000017C06F1080088337810AE3900754631804106A
S315000017D08337010E6388070A3719000093068111C3
S315000017E013060000930529B113850400EF30406508
S315000017F0630405006F1050389306011213060000AB
S31500001800930539B113850400EF3080636304050046
S315000018106F1050349306811213060000930549B1E8
S3150000182013850400EF30C061630405006F10D03DDE
S315000018309306011313060000930559B1138504009E
S31500001840EF300060630405006F10D03993068113F2
S3150000185013060000930569B113850400EF30405E5E
S31500001860630405006F10D0359306011413060000BB
S31500001870930579B113850400EF30805C630405009D
S315000018806F10D0313719000093068114130600003B
S31500001890930589B113850400EF30805A630405006F
S315000018A06F10407E9306011513060000930599B14B
S315000018B013850400EF30C058630405006F10407AAA
S315000018C093068115130600009305A9B1138504003C
S315000018D0EF300057630405006F10001F833B0116AD
S315000018E003390117033B811713050000630409023E
S315000018F013050B00EF000A48130C05001305090039
S31500001900EF004A479305050013050C00EFF0C94A9E
S31500001910EF20CA3F9307100063FA7703EF20CA113E
S31500001920B7E50C00930705001307090093060B00A3
S31500001930130604009385851B13850900EF901A652D
S31500001940833B0116033B81170339011783370101D6
S31500001950B38A6A01B38D2D0163F42701233821016F
S315000019601B0414009317040293D70702E3E477DFFE
S315000019700339810F930710006314FA006F10801B60
S31500001980930720006310FA428337810A638A071E91
S315000019900337010B8337810B930C0000335D77030C
S315000019A00337010C335477030337810CB3547703A1
S315000019B00337010D335A77030337810DB3DD770300
S315000019C0335B770363E4770513050400EF008A3A77
S315000019D0130C050013850D00EF00CA3993050500A9
S315000019E013050C00EFF0493DB7270E0093050500DF
S315000019F003B507B0EFF0D957B7270E0083B587AF09
S31500001A00EFF0D91BEF004A289B0C05008337010B2A
S31500001A10130C000063E4770513850400EF008A3594
S31500001A20930B050013050D00EF00CA34930505005E
S31500001A3013850B00EFF04938B7270E009305050014
S31500001A4003B507B0EFF0D952B7270E0083B587AFBD
S31500001A50EFF0D916EF004A231B0C05003385AD01C4
S31500001A60B3074501233CF100930B0000638C07028A
S31500001A70EF004A3083378101930B05001385070079
S31500001A80EF004A2F9305050013850B00EFF0C932CE
S31500001A90B7270E0083B587AFEFF05912EF00CA1EC5
S31500001AA09B0B05003305940033076501233CE100D9
S31500001AB093070000630E0702EF00CA2B033781016C
S31500001AC02330A10213050700EF00CA2A833701025B
S31500001AD09305050013850700EFF0092EB7270E00C2
S31500001AE083B587AFEFF0990DEF000A1A9B07050043
S31500001AF0B7E50C009385053713860D00138509009D
S31500001B00233CF100EF909A48B7E50C0013060D0050
S31500001B109385053913850900EF905A47B7E50C0000
S31500001B2093860C00130604009385053B1385090074
S31500001B30EF90DA45B7E50C0093060C001386040017
S31500001B409385053E13850900EF905A44B7E50C00CE
S31500001B5093860B0013060A009385854113850900B9
S31500001B60EF90DA4283378101B7E50C0013060B00CC
S31500001B70938607009385054513850900EF901A4162
S31500001B808337010E638E071A033A8111833481125B
S31500001B90930B000063040A0413850400EF008A1DFA
S31500001BA01304050013050A00EF00CA1C930505007F
S31500001BB013050400EFF04920B7270E009305050032
S31500001BC003B507B0EFF0D93AB7270E0083B587AF54
S31500001BD0EFF0C97EEF004A0B9B0B050003340112A0
S31500001BE0833C0113130B00006304040413850C00EB
S31500001BF0EF004A18130B050013050400EF008A17BF
S31500001C009305050013050B00EFF0091BB7270E001F
S31500001C109305050003B507B0EFF09935B7270E0019
S31500001C2083B587AFEFF08979EF000A061B0B050035
S31500001C3033058A0003348113130C00003304850036
S31500001C40630A0402EF000A13130C050013050400CF
S31500001C50EF004A129305050013050C00EFF0C915B5
S31500001C60B7270E0083B587AFEFF04975EF00CA01BD
S31500001C701B0C050003340114338594019304000002
S31500001C8033048500630A0402EF00CA0E93040500BC
S31500001C9013050400EF000A0E9305050013850400E2
S31500001CA0EFF08911B7270E0083B587AFEFF0097102
S31500001CB0EFF0997D9B040500B7E50C0013060A00BA
S31500001CC09385854813850900EF905A2C0336011237
S31500001CD0B7E50C009385854A13850900EF901A2B0A
S31500001CE003368112B7E50C0093860B009385854C6D
S31500001CF013850900EF909A2903360113B7E50C0006
S31500001D0093060B009385854F13850900EF901A28DB
S31500001D1003368113B7E50C0093060C009385055333
S31500001D2013850900EF909A2603360114B7E50C00D7
S31500001D30938604009385855613850900EF901A252E
S31500001D40833481140335811513040000638404026F
S31500001D50EF004A021304050013850400EF008A0110
S31500001D609305050013050400EFF00905EFF0D9719E
S31500001D701B04050003370115B7E50C009385055ACA
S31500001D803386E4009386040013850900EF901A2039
S31500001D90B7E50C00130604009385855D13850900DD
S31500001DA0EF90DA1E833401011307000063880402F2
S31500001DB013850A00EFF0197C13040500138504004F
S31500001DC0EFF0597B9305050013050400EFE0D97E7B
S31500001DD0EF10DA73EF105A46130705008336010138
S31500001DE0B7E50C0013860A009385855F1385090005
S31500001DF0EF90DA1913850900EF904A116FF05F82B0
S31500001E009306811A13060400930539B0138504005E
S31500001E10EF30000313070500630405006F10400050
S31500001E20833701160339811A637EFA04033B0117CF
S31500001E30630C0B0213050900EFF0D973930B050031
S31500001E4013050B00EFF019739305050013850B00BE
S31500001E50EFE09976B7270E0083B587AFEFF0095606
S31500001E60EFF099621B070500B7D50C009306090031
S31500001E70130604009385851713850900EF901A1140
S31500001E800339811AB71500009306811A1306040058
S31500001E90938545B013850400EF20907A833781013E
S31500001EA013070500B3872701233CF10063040500EF
S31500001EB06F00907983360116930710000339811A53
S31500001EC063FED704033B0117630C0B0213050900DD
S31500001ED0EFF0596A930B050013050B00EFF09969B3
S31500001EE09305050013850B00EFE0196DB7270E006B
S31500001EF083B587AFEFF0894CEFF019591B07050042
S31500001F00B7D50C0093060900130604009385851FB8
S31500001F1013850900EF909A070339811AB715000057
S31500001F209306811A13060400938555B013850400A1
S31500001F30EF2010718337010213070500B3872701CD
S31500001F402330F102630405006F00507183360116D9
S31500001F5093071000033B811A63FED7040339011768
S31500001F60630C090213050B00EFF0D960930B050013
S31500001F7013050900EFF019609305050013850B00A2
S31500001F80EFE09963B7270E0083B587AFEFF00943FB
S31500001F90EFF0994F1B070500B7D50C0093060B0011
S31500001FA0130604009385852713850900EF900A7EA2
S31500001FB0033B811A37190000930601181306040023
S31500001FC0930569B013850400EF209067833781027B
S31500001FD0B38767012334F102630405006F0050697B
S31500001FE09306811813060400930589B0138504002F
S31500001FF0EF201065630405006F00D0699306011990
S3150000200013060400930599B013850400EF2050636E
S31500002010630405006F00506A9306811913060400D5
S315000020209305A9B013850400EF20906163040500B1
S315000020306F00D06A9306011A130604009305C9B00F
S3150000204013850400EF20D05F630405006F00506B1A
S315000020509306811A130604009305D9B0138504006C
S31500002060EF20105E930B0500630405006F00906B74
S31500002070833501058337811883360119033D81199C
S31500002080B385F5002338B10483358105833C011AF5
S31500002090033C811AB385D500233CB1048335010482
S315000020A00336011613071000B385A5012330B104CA
S315000020B083358103033B0118B3859501233CB102A7
S315000020C083350103B38585012338B102637EC716C4
S315000020D0033601173389D7003309A901330999015A
S315000020E02334C10E3309890113070000630806046F
S315000020F013050B002334D1102330F110EFF099476C
S315000021000336810E2338A10E13050600EFF099461B
S315000021100337010F9305050013050700EFE0D949C2
S31500002120B7270E0083B587AFEFF04929EFF0D93511
S3150000213083368110833701101B0705002338D10E23
S315000021402334F10E6302094C130509002330E11014
S31500002150EFF059428337810E13090500B72B0E00A5
S3150000216013850700EFF0194193050900EFE0D94404
S3150000217083B58BAFEFF08924EFF019318336010F69
S315000021809B0705002334F10E13850600EFF0993EF8
S3150000219093050900EFE0594283B58BAFEFF00922B2
S315000021A0EFF0992E1308050013050D001B0D08000E
S315000021B0EFF0593C93050900EFE0194083B58BAF6A
S315000021C0EFF0C91FEFF0592C9308050013850C009A
S315000021D09B8C0800EFF0193A93050900EFE0D93D12
S315000021E083B58BAFEFF0891DEFF0192A9B0B050025
S315000021F013050C00EFF0193893050900EFE0D93B01
S31500002200B7270E0083B587AFEFF0491BEFF0D9274C
S315000022108337810E033701101B050500B7D50C0067
S3150000222093060B002334A1002330710193880C0020
S3150000223013080D001306040093850547138509004E
S31500002240EF90CA54033B0118B71500009306811A94
S3150000225013060400938575B013850400EF20503EE5
S315000022608337810413070500B38767012334F1041C
S31500002270E31A054C83360116930710000339811AB9
S3150000228063FED704033B0117630C0B021305090019
S31500002290EFF0592E930B050013050B00EFF0992D67
S315000022A09305050013850B00EFE01931B7270E00E3
S315000022B083B587AFEFF08910EFF0191D1B070500F6
S315000022C0B7D50C00930609001306040093858552C2
S315000022D013850900EF908A4B0339811AB715000060
S315000022E09306011A130604009385E5B013850400CE
S315000022F0EF20103583370106B38727012330F10617
S31500002300E31C054483360116130710008337011AB0
S315000023106366D71803378106B71500009306811A3E
S31500002320B307F70013060400938515B1138504005F
S315000023302334F106EF20D03093060500E310054460
S3150000234003360116130710008337811A6376C70414
S315000023500339011A6306090213850700EFF0992174
S31500002360130B050013050900EFF0D92093050500AE
S3150000237013050B00EFE05924EFF019119B06050039
S31500002380B7D50C0013060400938505611385090073
S31500002390EF90CA3F8337811A03370107B71500004C
S315000023A09306011AB307F700130604009385F5B0E8
S315000023B0138504002338F106EF209028E314053E28
S315000023C083360116130710008337011A6368D70E88
S315000023D003378107B71500009306811AB307F70084
S315000023E013060400938525B113850400233CF106EA
S315000023F0EF20102593060500E318053C0336011669
S31500002400130710008337811A6376C7040339011A4C
S315000024106306090213850700EFF0D915130B0500B3
S3150000242013050900EFF019159305050013050B00B8
S31500002430EFE09918EFF059059B060500B7D50C009B
S31500002440130604009385856E13850900EF900A3400
S315000024508337811A03370108B71500009306811ADE
S31500002460B307F70013060400938505B1138504002E
S315000024702330F108EF20D01CE3120536833B01160A
S31500002480930710008336811A63EA7705833781083C
S31500002490B387D7002334F1086FF08FC4B7D50C008B
S315000024A093860700130604009385055A13850900D1
S315000024B0EF90CA2D8337011A6FF0DFE5B7D50C0010
S315000024C093860700130604009385056813850900A3
S315000024D0EF90CA2B8337011A6FF09FEFB7D50C0028
S315000024E0130604009385857513850900EF900A2A63
S315000024F0833781088336811A833B0116B387D70059
S315000025002334F1086FF0CFBD371900009306811A06
S31500002510130604009305C9B013850400EF2050127A
S31500002520E318054C0337810B8337811A9306811A0A
S3150000253013060400B307F7009305D9B0138504000A
S31500002540233CF10AEF20D00FE316054C0337010BAD
S315000025508337811A9306811A13060400B307F7001E
S315000025609305E9B0138504002338F10AEF20500DD6
S31500002570E31A05540337010C8337811A9306811A2F
S3150000258013060400B307F7009305F9B0138504009A
S315000025902330F10CEF20D00AE31A05560337810CDD
S315000025A08337811A9306811A13060400B307F700CE
S315000025B0930509B1138504002334F10CEF2050086C
S315000025C0E31405520337010D8337811A9306811AE6
S315000025D013060400B307F700930519B11385040029
S315000025E02338F10CEF20D005E31405540337810D91
S315000025F08337811AB307F700233CF10C63140400F8
S315000026006FF00F9D6FF08FAD13050000930700006C
S31500002610930C0000130D00006FF05FC09306811944
S31500002620130604009305B9B113850400EF20500189
S31500002630E314052A9306011A130604009305C9B18B
S3150000264013850400EF20C07FE31A052A9306811A3A
S31500002650130604009305D9B113850400EF20407ECC
S31500002660130B0500E310052E833B81190335011A70
S315000026700339811A3385AB0033092501630A090240
S31500002680EFF0496F130B050013050900EFF0896E93
S315000026909305050013050B00EFE00972B7270E003E
S315000026A083B587AFEFE09951EFF0095E1B0B05008C
S315000026B0B7E50C0093860B00130604009385858509
S315000026C013850900EF908A0C8336011AB7E50C00D2
S315000026D0130604009385858713850900EF900A0B7E
S315000026E08336811AB7E50C0013070B0013060400A6
S315000026F09385858913850900EF904A0983378109F7
S31500002700639407006FF04F8B371900009306811909
S3150000271013060400930539B013850400EF204072B8
S31500002720E31005209306011A13060400930549B029
S3150000273013850400EF20C070E31A05289306811A5A
S3150000274013060400930559B013850400EF20406F6B
S31500002750930B0500E31C0524033C8119833C011AF5
S315000027601309000063040C0413850C00EFF0896064
S315000027701309050013050C00EFF0C95F930505006A
S3150000278013050900EFE04963B7270E00930505001E
S3150000279003B507B0EFE0D97DB7270E0083B587AF45
S315000027A0EFE0D941EFF0494E1B090500033B811AC2
S315000027B0338B6C01630C0B0213850C00EFF0895B05
S315000027C0930B050013050B00EFF0C95A930505009E
S315000027D013850B00EFE0495EB7270E0083B587AF80
S315000027E0EFE0D93DEFF0494A9B0B0500B7E50C0039
S315000027F093060C00130604009385859B1385090038
S31500002800EF80DA788336011AB7E50C001307090062
S31500002810130604009385859D13850900EF801A77BA
S315000028208336811AB7E50C0013870B0013060400E4
S31500002830938505A113850900EF805A758337010A30
S31500002840639407006FE01FF837190000930601181C
S3150000285013060400930569B013850400EF20405E5B
S31500002860E31405129306811813060400930579B044
S3150000287013850400EF20C05CE316050E93060119CC
S3150000288013060400930589B013850400EF20405B0E
S31500002890E316051C9306811913060400930599B0E7
S315000028A013850400EF20C059E31805189306011A92
S315000028B0130604009305A9B013850400EF204058C1
S315000028C0E310051E9306811A130604009305B9B09A
S315000028D013850400EF20C056130B0500E312051AFA
S315000028E0833B011803390119130D000063840B049F
S315000028F013050900EFF00948130C050013850B00BA
S31500002900EFF049479305050013050C00EFE0C94AAF
S31500002910B7270E009305050003B507B0EFE059652C
S31500002920B7270E0083B587AFEFE05929EFF0C93519
S315000029301B0D0500033C811803378119930C000019
S3150000294063080C04130507002334E10EEFF08942F7
S31500002950930C050013050C00EFF0C9419305050023
S3150000296013850C00EFE04945B7270E0093050500D7
S3150000297003B507B0EFE0D95FB7270E0083B587AF81
S31500002980EFE0D923EFF049300337810E9B0C0500A9
S315000029908337011A33858B01130C0000B307F5004A
S315000029A02334F10E638007042338E10EEFF0893CEF
S315000029B08337810E130C050013850700EFF0893B62
S315000029C09305050013050C00EFE0093FB7270E003D
S315000029D083B587AFEFE0991EEFF0092B0337010FA0
S315000029E01B0C05003305E9000339811A330925015B
S315000029F0630A0902EFF00938130B050013050900F5
S31500002A00EFF049379305050013050B00EFE0C93ACF
S31500002A10B7270E0083B587AFEFE0591AEFF0C92646
S31500002A201B0B0500B7E50C0093860B00130604008C
S31500002A30938585C213850900EF805A558336811820
S31500002A40B7E50C0013060400938585C413850900B9
S31500002A50EF80DA5383360119B7E50C0013070D0032
S31500002A6013060400938505C713850900EF801A52E3
S31500002A7083368119B7E50C0013870C001306040092
S31500002A80938585CA13850900EF805A508336011A4B
S31500002A90B7E50C0013070C0013060400938505CE5A
S31500002AA013850900EF809A4E8336811AB7E50C002C
S31500002AB013070B0013060400938505D2138509003E
S31500002AC0EF80DA4C6FE01FD0130B050013060500EC
S31500002AD0B7E50C0037D50C0093858517130585EEF1
S31500002AE0EFC00A1113090B006FE09FB3930B0500AB
S31500002AF013060500B7D50C0037D50C009385050ADB
S31500002B00130585EEEFC0CA0E13890B006FE05FB1A7
S31500002B10930B050013060500B7D50C0037D50C003E
S31500002B209385050E130585EEEFC08A0C13890B00FD
S31500002B306FE01FAF638A0D5613850D00EFF08923F2
S31500002B401304050003358101B7240E00EFF0892236
S31500002B5093050400EFE0492683B584AFEFE019063C
S31500002B60EFF089129B0C050003350102EFF0892076
S31500002B7093050400EFE0492483B584AFEFE0190420
S31500002B80EFF089101B0C050003358102EFF0891E5A
S31500002B9093050400EFE0492283B584AFEFE0190204
S31500002BA0EFF0890E9B0B050003358104EFF0891CBD
S31500002BB093050400EFE0492083B584AFEFE01900E8
S31500002BC0EFF0890C1B0B050003350106EFF0891A9F
S31500002BD093050400EFE0491E83B584AFEFE0097E5C
S31500002BE0EFF0890A1B0A0500033D810693040000E5
S31500002BF063060D0203350107EFF0C917130405003C
S31500002C0013050D00EFF009179305050013050400E1
S31500002C10EFE0891AEFF049079B040500033D8107A1
S31500002C201304000063060D0203350108EFF0891452
S31500002C301304050013050D00EFF0C91393050500F5
S31500002C4013050400EFE04917EFF009041B04050023
S31500002C500337810383370103033D0105833D810566
S31500002C6003380104B387E70003368101B387A70160
S31500002C70B7E50C00B387B70193860C009385851ED4
S31500002C8013850900B38C0701EF805A300336010221
S31500002C90B7E50C0093060C00938505211385090002
S31500002CA0EF80DA2E03368102B7E50C0093860B001F
S31500002CB09385852313850900EF805A2D63820C4086
S31500002CC013850C00EFF0090B930B050013050D009F
S31500002CD0EFF0490A93850B00372C0E00EFE0C90D83
S31500002CE083358CAFEFE0896DEFE0197A9B0C050018
S31500002CF013850D00EFF0090893850B00EFE0C90B73
S31500002D0083358CAFEFE0896BEFE019781B0D05007A
S31500002D1003350104EFF0090693850B00EFE0C909BE
S31500002D2083358CAFEFE08969EFE019769B0D0500DE
S31500002D3003358103EFF0090493850B00EFE0C90723
S31500002D4083358CAFEFE08967EFE019749B080500C7
S31500002D5003350103233C1101EFF0C90193850B00F4
S31500002D60EFE0890583358CAFEFE04965EFE0D97177
S31500002D70833881019B06050003368104B7E50C0004
S31500002D8013880D0093070D0013870C002330D10024
S31500002D909385052693060B0013850900EF801A1FFD
S31500002DA003360106B7E50C0093060A009385052C49
S31500002DB013850900EF809A1D03368106B7E50C00DE
S31500002DC09385852E13850900EF805A1C03368107EB
S31500002DD0B7E50C009385053013850900EF801A1BB3
S31500002DE003368108B7E50C00938585311385090004
S31500002DF0EF80DA19B7E50C001386040093850533D6
S31500002E0013850900EF809A18B7E50C001306040035
S31500002E109385053513850900EF805A176FE09FF8F3
S31500002E20B7D50C00130605002338A100938585123B
S31500002E3037D50C00130585EEEFB09A5B0337010119
S31500002E40130907006FE0CFFDB7D50C001306050088
S31500002E502338A1009385851A6FF09FFDB7D50C0026
S31500002E60130605002338A100938585226FF05FFCC9
S31500002E70930B050013060500B7D50C0037D50C00DB
S31500002E809385852A130585EEEFB09A5613890B00B4
S31500002E906FE00FF9930B050013060500B7D50C007C
S31500002EA037D50C009385852F130585EEEFB05A5460
S31500002EB013890B006FE0CFF6930B05001306050090
S31500002EC0B7D50C0037D50C0093850534130585EE70
S31500002ED0EFB01A5213890B006FE08FF4930B0500C5
S31500002EE013060500B7D50C0037D50C009385853839
S31500002EF0130585EEEFB0DA4F13890B006FE04FF242
S31500002F00930B050013060500B7D50C0037D50C004A
S31500002F109385053D130585EEEFB09A4D13890B0099
S31500002F206FE00FF013060500B7D50C0037D50C007F
S31500002F3093850542130585EEEFB09A4B13890B0076
S31500002F406FE00FEEB7D50C00130605002338A1007D
S31500002F509385854D6FF0DFED130B05001306050015
S31500002F60B7D50C0037D50C0093858555130585EE2E
S31500002F70EFB01A4813090B006FE08FEAB7D50C00C3
S31500002F80130605002338A1009385055C37D50C0090
S31500002F90130585EEEFB0DA45833601011389060085
S31500002FA06FE00FE8130B050013060500B7D50C00FC
S31500002FB037D50C0093858563130585EEEFB05A432C
S31500002FC013090B006FE0CFE5B7D50C00130605001B
S31500002FD02338A1009385056A6FF05FFB130B05008C
S31500002FE013060500B7D50C0037D50C00938505717F
S31500002FF0130585EEEFB0DA3F13090B006FE04FE2E1
S31500003000233C010C2338010C2334010C2330010C22
S315000030102338010A233C010A23300108233801061C
S3150000302023340108233C0106233401062338010218
S31500003030233C010223300104233C0104233801040C
S315000030402330010623340104233401022330010214
S31500003050233C0100930D0000930A00006FE09F914E
S31500003060930B050013060500B7E50C0037D50C00D9
S3150000307093850513130585EEEFB09A3713890B0078
S315000030806FE00FDA930B050013060500B7E50C0099
S3150000309037D50C009385850E130585EEEFB05A35AE
S315000030A013890B006FE0CFD7130A0000930C0000C2
S315000030B0130C0000930B0000130B00006FF0DFB23F
S315000030C093060000930C0000130D0000930D000002
S315000030D0930800006FF05FCA930B05001306050006
S315000030E0B7D50C0037D50C0093858577130585EE8B
S315000030F0EFB01A3013890B006FE08FD2930B0500E7
S3150000310013060500B7D50C0037D50C009385057C52
S31500003110130585EEEFB0DA2D13890B006FE04FD063
S31500003120930B050013060500B7E50C0037D50C0018
S315000031309385058D130585EEEFB09A2B13890B0049
S315000031406FE00FCE13060500B7E50C0037D50C006F
S3150000315093858580130585EEEFB09A2913090B0038
S315000031606FE00FCC930B050013060500B7E50C00C6
S3150000317037D50C00938585A9130585EEEFB05A2740
S3150000318013890B006FE0CFC9930B050013060500EA
S31500003190B7E50C0037D50C00938505A5130585EE1C
S315000031A0EFB01A2513890B006FE08FC713060500D1
S315000031B0B7E50C0037D50C0093858596130585EE8B
S315000031C0EFB01A2313890B006FE08FC5930B050030
S315000031D013060500B7E50C0037D50C0093858591DD
S315000031E0130585EEEFB0DA2013890B006FE04FC3AD
S315000031F0930B050013060500B7E50C0037D50C0048
S31500003200938505D6130585EEEFB09A1E13890B003C
S315000032106FE00FC1930B050013060500B7E50C0020
S3150000322037D50C00938505DA130585EEEFB05A1CE9
S3150000323013890B006FE0CFBE930B05001306050044
S31500003240B7E50C0037D50C00938585B3130585EEDD
S31500003250EFB01A1A13890B006FE08FBC930B0500B1
S3150000326013060500B7E50C0037D50C00938585AE2F
S31500003270130585EEEFB0DA1713890B006FE04FBA2E
S3150000328013060500B7E50C0037D50C00938585BD00
S31500003290130585EEEFB0DA1513090B006FE04FB892
S315000032A0930B050013060500B7E50C0037D50C0097
S315000032B0938585B8130585EEEFB09A1313890B0035
S315000032C06FE00FB6930B050013060500B7E50C007B
S315000032D037D50C00938505DE130585EEEFB05A1140
S315000032E013890B006FE0CFB3930B0500130605009F
S315000032F0B7E50C0037D50C00938505E6130585EE7A
S31500003300EFB01A0F13890B006FE08FB1930B050016
S3150000331013060500B7E50C0037D50C00938505E2CA
S31500003320130585EEEFB0DA0C13890B006FE04FAF93
S31500003330130B050013060500B7E50C0037D50C0086
S31500003340938585EA130585EEEFB09A0A13090B00FB
S315000033506FE00FAD930B050013060500B7E50C00F3
S3150000336037D50C00938505F4130585EEEFB05A08A2
S3150000337013890B006FE0CFAA930B05001306050017
S31500003380B7E50C0037D50C00938505EF130585EEE0
S31500003390EFB01A0613890B006FE08FA8130B050018
S315000033A013060500B7E50C0037D50C009385050913
S315000033B0130585EEEFB0DA0313090B006FE04FA695
S315000033C0930B050013060500B7E50C0037D50C0076
S315000033D093858503130585EEEFB09A0113890B00DB
S315000033E06FE00FA4930B050013060500B7E50C006C
S315000033F037D50C00938505FE130585EEEFB04A7FA1
S3150000340013890B006FE0CFA1930B0500130605008F
S31500003410B7E50C0037D50C00938505F9130585EE45
S31500003420EFB00A7D13890B006FE08F9F130101FA3D
S3150000343023349104233C3103938405009309060049
S31500003440930520001306810023302105233C110437
S31500003450233881042338410323345103130905001B
S31500003460EF0090116304050413040500130605001C
S31500003470B7E50C0037D50C0093850562130585EE7C
S31500003480EFB00A7783308105130504000334010584
S31500003490833481040339010483398103033A010328
S315000034A0833A8102130101066780000013060101B9
S315000034B09305100013050900EF00100C1304050016
S315000034C063100506033A8100833A01013B065A035D
S315000034D063649608E38809FA130681019305600080
S315000034E013050900EF0050091304050063180504CD
S315000034F0939704021387FAFF93D70702B307F700DF
S31500003500B3D757039B870700335AFA0283378101E3
S315000035101B0A0A0033DA470323A049016FF09FF61E
S3150000352013060500B7E50C0037D50C009385056634
S31500003530130585EEEFB0CA6B6FF0DFF413060500D6
S31500003540B7E50C0037D50C009385056F130585EE9E
S31500003550EFB00A6A6FF01FF337E50C00938504009D
S315000035601305056AEFB0CA681304F0FF6FF09FF108
S31500003570130101DB2334112423308124233C9122BF
S31500003580233821232334312323304123233C512163
S315000035902338612123347121233081216302052ED2
S315000035A093840500638E052C130B0600630A062C14
S315000035B0930A05001305810FEF40142EB7470D003F
S315000035C09387870F03B48700231C011C83BB070165
S315000035D0833784FE37590D00130909241307012088
S315000035E0B307F700233C210F2338011C2330011EAB
S315000035F02334011E2338011E233C011E233C810077
S3150000360023BC77E123300102033584FE9307810151
S31500003610930500003385A700EF408406374A0D0066
S31500003620B7490D00130A0A139389891513058102F8
S31500003630233C4101233C310FEFA003759305810222
S315000036401305810FEF40C403130680009385040021
S3150000365013058102EFB0C32B833781011307810164
S3150000366083B787FEB307F7006306051C93050000C2
S3150000367013850700EF30D4098327811193F757008C
S31500003680639C0712130620009305000013058101B1
S31500003690EF80442713058101EF8044022334A10003
S315000036A02338B100930405006340051E630E051818
S315000036B0EF3010041386040093050000130C050078
S315000036C0EFB04A3713060000930500001305810189
S315000036D0EF8044231386040093050C001305810133
S315000036E0EF70D41F93060B001386040093050C009D
S315000036F013850A00EFD0DFD8930405006310050A8E
S3150000370063060C0013050C00EF20007AB7470D0086
S315000037109387870313058102233C4101233C310F24
S315000037202334F102EFA0137013050107EF30504F59
S31500003730B7770D0093878787130501062334F102B7
S31500003740EF50C02D833784FE13070120233C8100F0
S31500003750B307F70023BC77E11305810F233001027D
S31500003760233C210FEF40943F83308124033401240E
S315000037700339012383398122033A0122833A8121C5
S31500003780033B0121833B8120033C01201385040078
S315000037908334812313010125678000001306050089
S315000037A0B7E50C0037D50C0093850578130585EE33
S315000037B0EFB00A446FF0DFF4B7CA1000B7E50C00AB
S315000037C0130670009385057313858A94EFF0C50779
S315000037D013850400EFE01A5C1306050093850400C8
S315000037E013858A94EFF04506B7E50C001306A00092
S315000037F09385857313858A94EFF0050513878A945C
S315000038008337070083B787FEB387E70083B4070FC4
S315000038106382040883C78403638C070283C5340468
S3150000382013858A94EFE0D540EFE0C5259304F0FFB9
S315000038306FF0DFED83A507021385070093E54500CA
S31500003840EF30046D6FF05FE3130C00006FF09FE73D
S3150000385013850400EF70015C03B70400B74700004E
S31500003860938787CC033707039305A000E30AF7FA8B
S3150000387013850400E7000700930505006FF05FFA63
S315000038809304F0FF6FF05FEE37E50C0013058574C7
S31500003890EFC0DFC7EFC0DFB1130405001305810FCA
S315000038A0233C210FEF40942B13050400EF304A7997
S315000038B093070500033784FE233C81001384070029
S315000038C093070120B387E70023BC77E12330010289
S315000038D06FF0DFFC1304050063060C0013050C00F3
S315000038E0EF20805C13058101EFB0C353130504007C
S315000038F0EF300A75EF20405CEF2080656FF0DFE265
S31500003900130405006FF01FFE9304050013058102E2
S31500003910EFA09364938704006FF0DFF9130101DBD6
S315000039202334112423308124233C9122233821235C
S315000039302334312323304123233C51212338612171
S3150000394023347121233081216302052E93840500DF
S31500003950638E052C130B0600630A062C930A0500DA
S315000039601305810FEF404473B7470D009387870F08
S3150000397003B48700231C011C83BB0701833784FE25
S3150000398037590D001309092413070120B307F7005F
S31500003990233C210F2338011C2330011E2334011E32
S315000039A02338011E233C011E233C810023BC77E102
S315000039B023300102033584FE93078101930500003D
S315000039C03385A700EF30D44B374A0D00B7490D00B9
S315000039D0130A0A139389891513058102233C4101B1
S315000039E0233C310FEFA0433A930581021305810F63
S315000039F0EF301449130680009385040013058102F5
S31500003A00EFA01371833781011307810183B787FE06
S31500003A10B307F7006306051C93050000138507002E
S31500003A20EF30044F8327811193F75700639C0712E9
S31500003A30130620009305000013058101EF70946CB6
S31500003A4013058101EF7094472334A1002338B10098
S31500003A50930405006340051E630E0518EF304049C8
S31500003A601386040093050000130C0500EFA09A7C52
S31500003A70130600009305000013058101EF7094689A
S31500003A801386040093050C0013058101EF7004658D
S31500003A9093060B001386040093050C0013850A0099
S31500003AA0EFD05F89930405006310050A63060C00D6
S31500003AB013050C00EF20403FB7470D00938787039F
S31500003AC013058102233C4101233C310F2334F102CB
S31500003AD0EFA0533513050107EF309014B7770D00AB
S31500003AE093878787130501062334F102EF4010738D
S31500003AF0833784FE13070120233C8100B307F700B8
S31500003B0023BC77E11305810F23300102233C210FEB
S31500003B10EF40D40483308124033401240339012384
S31500003B2083398122033A0122833A8121033B012111
S31500003B30833B8120033C01201385040083348123C9
S31500003B40130101256780000013060500B7E50C0088
S31500003B5037D50C009385857B130585EEEFB04A09B2
S31500003B606FF0DFF4B7CA1000B7E50C00130670005B
S31500003B709385057313858A94EFE0154D138504002C
S31500003B80EFE05A21130605009385040013858A94F5
S31500003B90EFE0954BB7E50C001306A00093858573FF
S31500003BA013858A94EFE0554A13878A948337070072
S31500003BB083B787FEB387E70083B4070F63820408E1
S31500003BC083C78403638C070283C5340413858A94F0
S31500003BD0EFE01506EFD0156B9304F0FF6FF0DFED05
S31500003BE083A507021385070093E54500EF304432AD
S31500003BF06FF05FE3130C00006FF09FE7138504007E
S31500003C00EF70412103B70400B7470000938787CCC4
S31500003C10033707039305A000E30AF7FA13850400A8
S31500003C20E7000700930505006FF05FFA9304F0FFC5
S31500003C306FF05FEE37E50C0013058574EFC01F8D3E
S31500003C40EFC00FF7130405001305810F233C210F66
S31500003C50EF40C47013050400EF308A3E9307050059
S31500003C60033784FE233C8100138407009307012059
S31500003C70B387E70023BC77E1233001026FF0DFFC56
S31500003C801304050063060C0013050C00EF20C02189
S31500003C9013058101EFB0031913050400EF304A3A0A
S31500003CA0EF208021EF20C02A6FF0DFE21304050029
S31500003CB06FF01FFE9304050013058102EFA0D329C0
S31500003CC0938704006FF0DFF9138505006780000015
S31500003CD067800000130101FF23341100EF60DA2B27
S31500003CE083308100B7470F00938707243305F50219
S31500003CF01301010167800000130101FD233C9100BF
S31500003D009304050023308102233821012334310135
S31500003D102334110293890500EF601A2803B40400C6
S31500003D20B7D79A3B938707A03304F40283B784007E
S31500003D30B7440F0013090500938404243304F400E8
S31500003D40EF609A25B3072541B3879702E3EA87FE1A
S31500003D506386090023B0090023B409008330810279
S31500003D60033401028334810103390101833981005F
S31500003D701301010367800000630C050A93077000B6
S31500003D8063ECB70AB7F70C00938787FD9395250078
S31500003D90B385F50083A7050067800700034755062E
S31500003DA09307100013050000B397E7002330F600D1
S31500003DB06780000083378506130500002330F60070
S31500003DC06780000083470506130500002330F600D0
S31500003DD06780000083471506130500002330F600B0
S31500003DE06780000083472506130500002330F60090
S31500003DF067800000833705061305000093D7870107
S31500003E009397070393D707032330F60067800000D4
S31500003E10930700042330F6001305000067800000B6
S31500003E2083370507130500002330F600678000007E
S31500003E301305F0FF6780000083B7010213860500B3
S31500003E40B7E50C0003B58701130101FF9385857F54
S31500003E5023341100EF709A13EF608A7C6308051013
S31500003E60130101FE233881000334850323349100B6
S31500003E70233C110093040500630A040013050400A3
S31500003E8003340400EF204002E31A04FE03B60403E1
S31500003E9003B584029305000013163600EFA09A3985
S31500003EA003B5840223B0040423BC0402938784056B
S31500003EB06304F500EF10507F03B40402630A0400A4
S31500003EC0832784001B87F7FF2324E4006306070685
S31500003ED003B4040163020404832784001B87F7FFED
S31500003EE02324E400631A0702833704001305040041
S31500003EF083B70701E78007008327C4001B87F7FF06
S31500003F002326E400631A0700833704001305040020
S31500003F1083B78701E780070013850400EF10D07888
S31500003F2083308101033401018334810013050000CD
S31500003F3013010102678000008337040013050400A3
S31500003F4083B70701E78007008327C4001B87F7FFB5
S31500003F502326E400E31E07F6833704001305040056
S31500003F6083B78701E78007006FF09FF61305F0FF20
S31500003F70678000006308053A130101FB23347101D1
S31500003F802334110423308104233C91022338210376
S31500003F902334310323304103233C5101233861018B
S31500003FA023308101938B0600638C0634138B050046
S31500003FB063880534033A85009384F5FF930A050068
S31500003FC083674A0103368A01B384F400B307F040DD
S31500003FD0B3F4F400630A0622130906008337890244
S31500003FE06384070E03B78703637897006F00C00DDD
S31500003FF003B78703636897001384070083B7070036
S31500004000E39807FE0336840103370401033C840367
S315000040108339040383368400630606282338E600C2
S315000040200337040163040700233CC7002338040058
S31500004030233C04006386061C23B0F6008337040085
S315000040406384070023B4D70083678901330C9C403F
S315000040502330040023340400637CFC0E83370902FA
S315000040602330F4026384070023B4870283378A026D
S315000040702330890213058001B384970023349A0202
S31500004080EF201067233055012334350123386501AD
S3150000409023B0AB0013050000833081040334010410
S315000040A0833481030339010383398102033A010210
S315000040B0833A8101033B0101833B8100033C0100FC
S315000040C0130101056780000003390900E31809F0B0
S315000040D083670A0183390A00138CF7FF330C9C00AF
S315000040E0B307F040337CFC008337860033073C017E
S315000040F063F8E7128339060103360600B3893701F0
S31500004100E31406FE83378A003387890163FAE710D2
S3150000411037F50C0013050582EFA0DA6337D40C00DF
S31500004120B7F50C001306F0FF93858583130584EE1F
S31500004130EFA01A2CB7F50C001306F0FF9385058641
S31500004140130584EEEFA0DA2A1305F0FF6FF0DFF413
S31500004150233C940213050004EF209059833709038A
S31500004160B3893401233005002334050023380500C4
S31500004170233C05002330050223340502233835038A
S31500004180233C8503638C0718930600006F004001EB
S3150000419003B7070193860700630607149307070012
S315000041A003B70703E36637FF2338F500233CD50042
S315000041B06380061423B8A60023BCA70083378902B0
S315000041C063840714930600006F00400103B70700DD
S315000041D093860700630E070E9307070003B787034E
S315000041E0E366ECFE2330F5002334D5006386061023
S315000041F023B0A6008339040323B4A7006FF01FE69B
S315000042002334F9026FF0DFE383670A0183390A007A
S31500004210138CF7FF330C9C00B307F040337CFC0093
S3150000422013058003EF20D04C83274A0113090500AC
S31500004230233005002334350123388501232CF5006E
S315000042402330050213050004EF20904A83378A01C4
S31500004250233005002334050023380500233C0500E0
S31500004260233005022334050223383503233C850316
S315000042702338A9022334A902130405006388070022
S315000042808336890003B7870063F8E6022330F90016
S31500004290233C2A01636C9C089307000093060000E8
S315000042A0130700002338E902130600006FF09FD7BA
S315000042B003B787006378D7001386070083B7070024
S315000042C0E39807FE2330F900233026016FF09FFCA8
S315000042D0233005002334F5008339040323B0A700F7
S315000042E06FF0DFD7233CF50023B8A7006FF01FED72
S315000042F02338A9026FF05FEC2334A9026FF09FEF19
S315000043001305F0FF6FF05FD9233005002334050055
S31500004310833904032334A9026FF05FD42338A9023A
S315000043206FF0DFE91305F0FF678000008337800137
S31500004330730010001304050013050900EF10D036B2
S3150000434013050400EF20DA4F630A0532130101FB5F
S31500004350233471012334110423308104233C910258
S31500004360233821032334310323304103233C5101F5
S315000043702338610123308101930B0700630A072C60
S31500004380130B06006306062C033A85009309F6FF15
S31500004390930A050083670A0103378A001384050020
S315000043A0B389F900B307F040B3F9F900B3843501D6
S315000043B06360972C83378A01639007026F000008B9
S315000043C06366040363F496066372980263F08602DA
S315000043D083B707006384070683B6870003B807011F
S315000043E033880601E37ED4FC63F4960437F50C00AB
S315000043F013050591EFA01A3637D40C00B7F50C005B
S315000044001306F0FF9385858B130584EEEFA04A7E95
S31500004410B7F50C001306F0FF9385058E130584EEA1
S31500004420EFA00A7D1305F0FF6F00400EE3E286FA67
S31500004430E3FE04FB83B70700E39007FA1305800346
S31500004440EF20102B83274A01130C050013050004E7
S3150000445023300C0023348C0023383C01232CFC0031
S3150000446023300C02EF20D02883378A012330050041
S315000044702334050023380500233C050023300502BC
S315000044802334050223388502233C35032338AC0246
S315000044902334AC02130905006388070083368C00B9
S315000044A003B7870063F0E60A2330FC0083278C01FC
S315000044B0233C8A0123380C0223380900233C0900D7
S315000044C023340C0223300900233409006386070ACB
S315000044D083370C022330F9026384070023B42703D1
S315000044E083378A0223302C0313058001B3893701F1
S315000044F023343A03EF20D01F23305501233485009F
S315000045002338650123B0AB00130500008330810416
S31500004510033401048334810303390103833981029F
S31500004520033A0102833A8101033B0101833B810087
S31500004530033C0100130101056780000003B78700F3
S315000045406378D7001386070083B70700E39807FE52
S315000045502330FC0083278C012330860123380C028C
S3150000456023380900233C090023340C0223300900B8
S3150000457023340900E39E07F413050004233C3903A2
S31500004580EF20101783370C03233005002334050072
S3150000459023380500233C0500233005022334050299
S315000045A023389502233C05026380070C930600001E
S315000045B06F00400103B707019386070063020706F1
S315000045C09307070003B70703E36697FE2338F50052
S315000045D0233CD5006384060623B8A60023BCA700A7
S315000045E083378C02638A0706930600006F0040013A
S315000045F003B7070093860700630A070293070700BD
S3150000460003B78703E31607FE2330F5002334D500EE
S31500004610638A060223B0A60023B4A7006FF05FEBFF
S31500004620233CF50023B8A7006FF09FFB233005005D
S315000046302334F50023B0A7006FF09FE92338AC02BE
S315000046406FF0DFF92334AC0223B4A7006FF05FE804
S315000046501305F0FF6FF09FEB2330050023340500B0
S315000046602334AC026FF0DFE62338AC026FF05FF75D
S3150000467037F50C00130505896FF0DFD71305F0FF3A
S31500004680678000001304050013050C00EF10D0012D
S3150000469013050400EF20DA1A130101FD233081020D
S315000046A023341102233C91002338210123343101A4
S315000046B013040000630C05068337050003378500E5
S315000046C09304050003B987000334890163040408D1
S315000046D083378400636CF70683360401B387D700FB
S315000046E06376F70683350402639805006F000006BB
S315000046F083B50502638C050483B70503E31AF7FE49
S315000047001305040083B98503EF10000B83370402F9
S31500004710638E07048337890213040000B387374189
S315000047202334F90213850400EF10007883308102E8
S3150000473013050400033401028334810103390101A6
S3150000474083398100130101036780000003340400EC
S31500004750E31004F837F50C0093050700130585945C
S31500004760EFA00A491304F0FF6FF0DFFB83378901DE
S31500004770638E0700639687006F0080036384870259
S315000047801387070083B70700E39A07FE0335040380
S3150000479063040500EF10407113050400EF10C070AC
S315000047A06FF05FF7833704002330F7006FF01FFECA
S315000047B083370400233CF9006FF05FFD630A0500B0
S315000047C0833785001305000023B0F50067800000DD
S315000047D01305F0FF6780000093070500630A0502D2
S315000047E0638C05008336850003B7860083B6860290
S315000047F03307D74023B0E50013050000630C06001D
S3150000480083B7870083B787022330F60067800000EE
S315000048101305F0FF67800000130101F92334110628
S3150000482023308106233C91042338210523343105A6
S3150000483023304105233C510323386103233471039C
S3150000484023308103233C91012338A101630A051219
S31500004850B7440F0013890424930A0500138A150030
S3150000486093091000130BF0FF930B100037FC0C009C
S31500004870930C803E9384F423130681009305400134
S3150000488013850A0023340100EF104032130405009B
S31500004890631E050A03368100137D7600638879015D
S315000048A0B3F79903638407006300660313371D009B
S315000048B093060D009385090013050C9DEFA04A335E
S315000048C003368100130B060063040D02638C49074F
S315000048D0EF509A6C13040500EF501A6CB30785402D
S315000048E0B3872703E3FAF4FE938919006FF0DFF824
S315000048F01307100037F50C0093060D009385090089
S31500004900130585A0EFA0CA2E833081061305040087
S315000049100334010683348105033901058339810493
S31500004920033A0104833A8103033B0103833B81027B
S31500004930033C0102833C8101033D01011301010790
S3150000494067800000130700006FF0DFFAB7D40C0091
S31500004950B7F50C001306050093858597138584EE3D
S31500004960EFA00A29B7F50C001306F0FF9385059A08
S31500004970138584EEEFA0CA271304F0FF6FF0DFF86B
S315000049801304F0FF6FF05FF8130101FC233C1102E2
S31500004990233881022334910223302103233C310141
S315000049A023384101233451016306051E1384050093
S315000049B06382051E03370501B307D600833405005D
S315000049C0636AF71C03398500330926019377F903D7
S315000049D06392071C9386F60383B7040793F906FCD4
S315000049E03307390163E8E71A376A260593050AC0D3
S315000049F013850400EFF05FE2930A0500631C0508C7
S31500004A0093D729006386090A93992700B3898900F9
S31500004A103B098940130A0AC06F008000630A340903
S31500004A20032604009305800013850400EF10C016CA
S31500004A30930705003B068900930540001385040093
S31500004A4013044400639A0708EF1000159307050046
S31500004A50130640009305C000138504006396070AF9
S31500004A60EF1080139307050013062000930500003E
S31500004A70138504006392070CEF100012130605005D
S31500004A8093050A00138504006310060EEFF0DFD8C5
S31500004A90E30605F837D40C00B7F50C001306F0FF53
S31500004AA0938505B6130584EEEFA08A14930AF0FFEA
S31500004AB08330810303340103833481020339010205
S31500004AC083398101033A010113850A00833A810083
S31500004AD0130101046780000037D40C00B7F50C0001
S31500004AE013860700938505A6130584EEEFA04A10EA
S31500004AF0B7F50C001306F0FF938585A8130584EE21
S31500004B00EFA00A0F6FF05FF937D40C00B7F50C0071
S31500004B1013860700938505A6130584EEEFA04A0DBC
S31500004B20B7F50C001306F0FF938585AB130584EEED
S31500004B30EFA00A0C6FF05FF637D40C00B7F50C0047
S31500004B4013860700938505A6130584EEEFA04A0A8F
S31500004B50B7F50C001306F0FF938505B0130584EE38
S31500004B60EFA00A096FF05FF337D40C00B7F50C001D
S31500004B70938505A6130584EEEFA08A07B7F50C000A
S31500004B801306F0FF938505B3130584EEEFA04A06DE
S31500004B906FF09FF0930AF0FF6FF09FF1130101FB96
S31500004BA02334110423308104233C9102233821034A
S31500004BB02334310323304103233C5101638C051E0A
S31500004BC0130405006308051E03B70501B307D600E5
S31500004BD083B4050013890600636EF71C83B985004C
S31500004BE0B309360193F7F9036396071C9387F60317
S31500004BF003B7040793F707FCB3873701636CF71A0B
S31500004C00376A260593050AC013850400EFF0DFC056
S31500004C10930A05006310050A13592900630A090A55
S31500004C201319290033092401BB898940130A0AC0D4
S31500004C306F00C001EF00907763160514833781007B
S31500004C4013044400232EF4FE630489083B8689007E
S31500004C509305400013850400EF00107493070500C8
S31500004C60130640009305C0001385040063960708E9
S31500004C70EF009072930705001306100093050000DD
S31500004C80138504006392070AEF00107113060500EE
S31500004C9093050A00138504006310060CEFF0DFB7D6
S31500004CA09307050013068100930500011385040090
S31500004CB0E38207F837D40C00B7F50C001306F0FFB3
S31500004CC0938505BF130584EEEF909A72930AF0FF61
S31500004CD083308104033401048334810303390103DF
S31500004CE083398102033A010213850A00833A81015E
S31500004CF0130101056780000037D40C00B7F50C00DE
S31500004D0013860700938505A6130584EEEF905A6E69
S31500004D10B7F50C001306F0FF938585AB130584EEFB
S31500004D20EF901A6D6FF05FF937D40C00B7F50C00F1
S31500004D3013860700938505A6130584EEEF905A6B3C
S31500004D40B7F50C001306F0FF938505B0130584EE46
S31500004D50EF901A6A6FF05FF637D40C00B7F50C00C7
S31500004D60938505A6130584EEEF909A68B7F50C00B7
S31500004D701306F0FF938585B9130584EEEF905A6705
S31500004D806FF09FF337D40C00B7F50C00130605003F
S31500004D9093858597130584EEEF909A65B7F50C0019
S31500004DA01306F0FF938585BC130584EEEF905A64D5
S31500004DB06FF09FF0930AF0FF6FF09FF1630E05040A
S31500004DC0630C0604833805039397050293D70702FD
S31500004DD0B3F7170303378502939637003307D700D7
S31500004DE003380700630A0802033708008326870092
S31500004DF06388D5020335070013080700630E050014
S31500004E008326850013070500139506021355050230
S31500004E1033751503E38EA7FC1305F0FF67800000CA
S31500004E2083370800E38A07FE83A7C700130500003F
S31500004E302320F6006780000013050000678000004D
S31500004E40630A05006388060023B006001305000008
S31500004E50678000001305F0FF67800000130101FA68
S31500004E60233C110423388104233491042330210583
S31500004E70233C310323384103233451032330610398
S31500004E806308052493840500130A060013860500AB
S31500004E909305400013040500139B0402EF00D04F56
S31500004EA0135B0B026318051813060A0093058000AE
S31500004EB013050400EF00504E6318051A1306400050
S31500004EC09305000013050400EF00104D930905003B
S31500004ED06316051C83350403833784023375BB02CE
S31500004EE0931A3500B387570103B60700630A06060F
S31500004EF08337060003A787006386E40283B60700AC
S31500004F006380060603A78600138607009317070229
S31500004F1093D70702B3F7B7026314F5049387060025
S31500004F20E39EE4FC833706001389C700638A070201
S31500004F30232049018330810503340105833481042C
S31500004F4003390104033A0103833A8102033B010258
S31500004F501385090083398103130101066780000068
S31500004F6013050001EF10D0788337040503360404D7
S31500004F708335040313090500930610001305840402
S31500004F802330090023249900232609002334F10045
S31500004F90EF10D4562338A100233CB1001375F50F4A
S31500004FA0631C050203378402B30A570183B70A005C
S31500004FB06388070483B707002330F90083B70A0024
S31500004FC023B02701833704041309C9009387170008
S31500004FD02330F4046FF0DFF5130681001305840215
S31500004FE0EF005022833A040303378402B37A5B034B
S31500004FF0939A3A00B30A570183B70A00E39C07FA6B
S3150000500083378403233C24032330F900638E07008F
S3150000501083E7870083360403B3F7D70293973700F5
S315000050203307F700233027019307840323B0FA00E0
S315000050306FF05FF937D40C00B7F50C0013060500C6
S31500005040938505A6130584EEEF909A3AB7F50C0002
S315000050501306F0FF938585C2130584EEEF905A3947
S315000050609309F0FF6FF01FED37D40C00B7F50C0075
S3150000507013060500938505A6130584EEEF905A37AF
S31500005080B7F50C001306F0FF938585C5130584EE6E
S31500005090EF901A369309F0FF6FF0DFE937D40C0072
S315000050A0B7F50C0013060500938505A6130584EED7
S315000050B0EF901A34B7F50C001306F0FF938585C8F8
S315000050C0130584EEEF90DA329309F0FF6FF09FE656
S315000050D09309F0FF6FF01FE613040500130509009E
S315000050E0EF00905C13050400EF109A75130101FCA4
S315000050F0233C1102233881022334910223302103F9
S31500005100233C31012338410123345101233061010D
S31500005110630E05441309050013058007EF10505D63
S31500005120B7F5FF019395750013040500EF00902174
S3150000513093071000939407022338F40283A701DB38
S3150000514093098405130684069305000213050400DB
S315000051502334040023380400233C040023300402D3
S3150000516023343403233C0402233004042324F404AC
S3150000517023380404233C040423389406EF00D01E8D
S31500005180631205381306040693058001130504000F
S31500005190EF00901D6312053A13050004EF105055F9
S315000051A0B7F60C00938A861237070004B70601008B
S315000051B0033A04012338D50013071700B7F6FF0F8B
S315000051C09384140013060501939646001317C7002F
S315000051D02330550123349500233CD5002330E502C6
S315000051E023340502233C05022334C4002338A400DB
S315000051F0630A0A0083278A001B87F7FF2324EA0035
S3150000520063020716034A540693041000339A4401B6
S3150000521063FA44193706006093051000130504006D
S31500005220EFF0DFC393040500631C051013060000AE
S315000052309305200013050400EFF05FC293040500F8
S31500005240630C051E13060500B7F50C0037D50C00D8
S31500005250938505DB130585EEEF909A1903398403D0
S31500005260630A09001305090003390900EF00D0435A
S31500005270E31A09FE0336040303358402930500008E
S3150000528013163600EF900A7B03358402233004049C
S31500005290233C04026384A900EF0010410339040291
S315000052A0630A0902832789001B87F7FF2324E90085
S315000052B063120702833709001305090083B7070144
S315000052C0E78007008327C9001B87F7FF2326E9002D
S315000052D06308071E03390401630A0902832789004C
S315000052E01B87F7FF2324E9006312070283370900AF
S315000052F01305090083B70701E78007008327C90064
S315000053001B87F7FF2326E9006306071C1305040025
S31500005310EF0090398330810303340103033901021E
S3150000532083398101033A0101833A8100033B01007D
S315000053301385040083348102130101046780000091
S3150000534013060500B7F50C0037D50C00938505D676
S31500005350130585EEEF90DA0903398403E31409F0A7
S315000053606FF05FF183370A0013050A0083B7070160
S31500005370E78007008327CA001B87F7FF2326EA007A
S31500005380E31207E883370A0013050A0093041000A6
S3150000539083B78701E7800700034A5406339A44011E
S315000053A0E3EA44E713050004EF10903437071000D2
S315000053B0033B04029394040213071700938414001A
S315000053C0930605013706007F1317C70023305501E2
S315000053D0233495002338C500233C45012330E502DC
S315000053E023340502233C0502233CD4002330A402C7
S315000053F0E3020BE283278B001B87F7FF2324EB00D6
S31500005400E31A07E083370B0013050B0083B7070188
S31500005410E78007008327CB001B87F7FF2326EB00D7
S31500005420E31A07DE83370B0013050B0083B78701EA
S31500005430E78007006FF01FDE1306000093053000BB
S3150000544013050400EFF09FA193040500631C0502F9
S31500005450130600009305400013050400EFF01FA09B
S3150000546093040500630E050213060500B7F50C004C
S3150000547037D50C00938505E3130585EEEF904A7743
S315000054806FF09FED13060500B7F50C0037D50C003D
S31500005490938585DF130585EEEF908A756FF0DFEB58
S315000054A0130600009305500013050400EFF01F9B40
S315000054B093040500631A0502233089006FF09FE507
S315000054C0833709001305090083B78701E7800700C2
S315000054D06FF05FE0833709001305090083B7870182
S315000054E0E78007006FF09FE213060500B7F50C0092
S315000054F037D50C00938585E6130585EEEF904A6F48
