S01600006770752D6576616C756174696F6E2E737265635D
S3150000000097710E009381814D9702000093828215AD
S3150000001073905230732440F163100402970200007B
S315000000209382421573905230EF909A2A97120000ED
S31500000030938242DCE780020013132400970200003B
S315000000409382420CB302530003A302000F00F00F89
S31500000050E31C03FE172E1100130ECE689313440003
S31500000060B30E7E00138F8E0083BF0E0003310F0088
S31500000070970200009382021073905230732540F16C
S31500000080E7800F00130000001300000013000000BB
S31500000090130000001300000013000000130000000E
S315000000A013000000130000001300000013000000FE
S315000000B013000000130000001300000013000000EE
S315000000C013000000130000001300000013000000DE
S315000000D013000000130000001300000013000000CE
S315000000E013000000130000001300000013000000BE
S315000000F013000000130000001300000013000000AE
S3150000010073001000730010007300100073001000DD
S3150000011073001000730010007300100073001000CD
S3150000012073001000730010007300100073001000BD
S3150000013073001000730010007300100073001000AD
S3150000014013132500970300009383C3FBB3027300C8
S315000001500F00500F23A00200130500006780000067
S3150000016073001000130000001300000013000000CD
S3150000017073202034130101EF23301100233831009E
S31500000180233C41002330510223346102233871029B
S31500000190233C8102233091042334A1042338B10483
S315000001A0233CC1042330D1062334E1062338F1066B
S315000001B0233C01072330110923342109233831094F
S315000001C0233C41092330510B2334610B2338710B37
S315000001D0233C810B2330910D2334A10D2338B10D1F
S315000001E0233CC10D2330D10F2334E10F2338F10F07
S315000001F073250030F325103473262034233CA10EDA
S315000002002330B1102334C11063560600EF909A1BB9
S315000002106F00C00093060100EF905A1A8330010068
S3150000022083310101033281018332010203338102EA
S3150000023083330103033481038334010403358104CA
S3150000024083350105033681058336010603378106AA
S31500000250833701070338810783380108033981088A
S3150000026083390109033A8109833A010A033B810A6A
S31500000270833B010B033C810B833C010C033D810C4A
S31500000280833D010D033E810D833E010E033F810F29
S31500000290833F011073100F3073901F34033F810E9C
S315000002A0833F010F1301011173002030000000008D
S315000002B00000000000000000000000000000000038
S315000002C00000000000000000000000000000000028
S315000002D00000000000000000000000000000000018
S315000002E00000000000000000000000000000000008
S315000002F000000000000000000000000000000000F8
S3150000030000000000000000000000000000000000E7
S3150000031000000000000000000000000000000000D7
S3150000032000000000000000000000000000000000C7
S3150000033000000000000000000000000000000000B7
S3150000034000000000000000000000000000000000A7
S31500000350130101FF1305800023341100EF208940AB
S31500000360B7A70D00938707B337360900B7A50D0069
S315000003702330F50013068689938585A7EF605044E0
S31500000380130101FF1305800023341100EF20893D7E
S31500000390B7870D009387879937060800B7850D0044
S315000003A02330F500130686D893850597EF605041F4
S315000003B0130101FF1305800023341100EF20893A51
S315000003C0B7870D009387879F37060800B7850D000E
S315000003D02330F5001306C6DD9385059DEF60503E7C
S315000003E0130101FF1305800023341100EF20893724
S315000003F0B7870D00938787A537060800B7850D00D8
S315000004002330F500130606E3938505A3EF60503B02
S31500000410130101FE233881001304050013050001B2
S31500000420233C110023349100EF20C93393050400C7
S3150000043013040500EF70895437660900B7A50D004F
S315000004401306C62A9385850413050400EF6050370A
S315000004509304050013050400EF20493613850400B4
S31500000460EF605A64130101FE23388100130405006E
S3150000047013050001233C110023349100EF20892E3F
S315000004809305040013040500EF70895437660900CC
S31500000490B7A50D001306C6749385850713050400DA
S315000004A0EF6010329304050013050400EF200931B4
S315000004B013850400EF601A5F130101FE23388100E3
S315000004C01304050013050001233C11002334910099
S315000004D0EF2049299305040013040500EF704955E0
S315000004E037660900B7A50D001306C66E9385850A03
S315000004F013050400EF60D02C9304050013050400D7
S31500000500EF20C92B13850400EF60DA59130101FEB1
S31500000510233881001304050013050001233C110054
S3150000052023349100EF2009249305040013040500E9
S31500000530EF70095637660900B7A50D001306C662A7
S315000005409385850D13050400EF609027930405003D
S3150000055013050400EF20892613850400EF609A54E2
S31500000560130101FE23388100130405001305000161
S31500000570233C110023349100EF20C91E930504008B
S3150000058013040500EF70C95637660900B7A50D00BC
S315000005901306C6689385851013050400EF60502284
S315000005A09304050013050400EF2049211385040078
S315000005B0EF605A4F130101FE233881001304050032
S315000005C013050001233C110023349100EF20891903
S315000005D09305040013040500EF7089573766090078
S315000005E0B7A50D001306C6309385851313050400C1
S315000005F0EF60101D9304050013050400EF20091C8D
S3150000060013850400EF601A4A130101FE23388100A6
S315000006101304050013050001233C11002334910047
S31500000620EF2049149305040013040500EF70895761
S3150000063037660900B7A50D001306C63C9385051657
S3150000064013050400EF60D01793040500130504009A
S31500000650EF20C91613850400EF60DA44130101FE8A
S31500000660233881001304050013050001233C110003
S3150000067023349100EF20090F9305040013040500AD
S31500000680EF70495837660900B7A50D001306C64234
S315000006909385051913050400EF6090129304050075
S315000006A013050400EF20891113850400EF609A3FBB
S315000006B0130101FE23388100130405001305000110
S315000006C0233C110023349100EF20C909930504004F
S315000006D013040500EF70095937660900B7A50D0028
S315000006E01306C6369385051C13050400EF60500DEE
S315000006F09304050013050400EF20490C138504003C
S31500000700EF605A3A130101FF1305800023341100EC
S31500000710EF204905B7870D009387879F37060800A6
S31500000720B7850D002330F5001306C6DD9385059DBC
S31500000730EF601009130101FF130580002334110037
S31500000740EF204902B7870D00938787A53706080073
S31500000750B7850D002330F500130606E3938505A340
S31500000760EF601006130101FF13058000233411000A
S31500000770EF10597FB7B70D00938707F837B6090012
S31500000780B7B50D002330F50013064696938585F51B
S31500000790EF601003130101FD233C91009304050053
S315000007A0130500032334110223308102EF10997BD5
S315000007B013040500EF80190B930710002320F100A6
S315000007C08335010013060500938604001305040013
S315000007D0EF80196CB7B70D009387079C13050400CB
S315000007E02330F400EF50192C93050500130504027D
S315000007F0EFA0092F37960900B7B50D00130686221C
S315000008009385059313050400EF60807BB7B70D0051
S315000008109304050093878799130504002330F40099
S31500000820EF90592B6F008000930405001305040018
S31500000830EF10D97813850400EF60DA26130101FD65
S315000008402338210113090500130500032330810213
S31500000850233C91002334110293840500EF10997014
S315000008601304050063880400EF9019401306050081
S315000008706F000001EF80097F130605009304100046
S315000008802320910083350100930609001305040017
S31500000890EF801960B7B70D009387079C1305040016
S315000008A02330F400EF5019209305050013050402C8
S315000008B0EFA0092337960900B7B50D001306862267
S315000008C09385059313050400EF60806FB7B70D009D
S315000008D09304050093878799130504002330F400D9
S315000008E0EF90591F6F008000930405001305040064
S315000008F0EF10D96C13850400EF60DA1A130101FBBF
S31500000900233821031309050013050002233081044F
S31500000910233C91022334110423343103EF109964EC
S3150000092093040500130609009385010013050100D1
S31500000930EF90D92593050100138504009309010161
S31500000940EF90C9150335010063043501EF50007CB3
S31500000950B7B70D001384010037A60900B7B50D001F
S31500000960938707DD1306462D938585D513850400E9
S3150000097023B0F40023A8240123BC8400EF60406464
S315000009808337010013040500638A370113850700C6
S31500000990EF50C0776F008000130405001385040034
S315000009A0EF10D96113050400EF60DA0F130101FFA0
S315000009B02330810037041100130504C723341100C6
S315000009C0EF701007930504C70334010083308100DC
S315000009D037850000138601FA1305C52413010101AA
S315000009E06FA08A01130101FF233081003704110033
S315000009F0130504C823341100EF709003930504C84F
S31500000A00033401008330810037850000138601FA24
S31500000A101305C524130101016F901A7EB707110053
S31500000A2003C787D263160700130710002384E7D293
S31500000A30B707110003C707D2631607001307100094
S31500000A402380E7D2B707110003C787D163160700D3
S31500000A5013071000238CE7D0B707110003C707D18F
S31500000A6063160700130710002388E7D0B7071100A5
S31500000A7003C787D063160700130710002384E7D047
S31500000A80B707110003C707D0631607001307100046
S31500000A902380E7D0B707110003C787CF6316070087
S31500000AA013071000238CE7CEB707110003C707CF43
S31500000AB063160700130710002388E7CE678000003F
S31500000AC0B707110003C787DA63160700130710007C
S31500000AD02384E7DAB707110003C707DA63160700AE
S31500000AE0130710002380E7DAB707110003C787D979
S31500000AF06316070013071000238CE7D8B707110009
S31500000B0003C707D963160700130710002388E7D821
S31500000B10B707110003C787D863160700130710002D
S31500000B202384E7D8B707110003C707D86316070061
S31500000B30130710002380E7D8B707110003C787D72C
S31500000B406316070013071000238CE7D6B7071100BA
S31500000B5003C707D763160700130710002388E7D6D5
S31500000B6067800000B707110003C707E56316070093
S31500000B70130710002388E7E4B707110003C787E4CB
S31500000B8063160700130710002384E7E4B707110074
S31500000B9003C707E463160700130710002380E7E482
S31500000BA0B707110003C787E3631607001307100092
S31500000BB0238CE7E2B707110003C707E363160700B4
S31500000BC0130710002388E7E2B707110003C787E27F
S31500000BD063160700130710002384E7E2B707110026
S31500000BE003C707E263160700130710002380E7E236
S31500000BF0B707110003C787E1631607001307100044
S31500000C00238CE7E0B707110003C707E16316070067
S31500000C10130710002388E7E0B707110003C787E032
S31500000C2063160700130710002384E7E0B7071100D7
S31500000C3003C707E063160700130710002380E7E0E9
S31500000C40B707110003C787DF6316070013071000F5
S31500000C50238CE7DE67800000B707110003C707F1A2
S31500000C6063160700130710002388E7F0B707110083
S31500000C7003C787F063160700130710002384E7F005
S31500000C80B707110003C707F0631607001307100024
S31500000C902380E7F0B707110003C787EF6316070045
S31500000CA013071000238CE7EEB707110003C707EF01
S31500000CB063160700130710002388E7EEB707110035
S31500000CC003C787EE63160700130710002384E7EEB9
S31500000CD0B707110003C707EE6316070013071000D6
S31500000CE02380E7EEB707110003C787ED63160700F9
S31500000CF013071000238CE7ECB707110003C707EDB5
S31500000D0063160700130710002388E7ECB7071100E6
S31500000D1003C787EC63160700130710002384E7EC6C
S31500000D20B707110003C707EC631607001307100087
S31500000D302380E7ECB707110003C787EB63160700AC
S31500000D4013071000238CE7EA67800000130101FEF9
S31500000D5023349100B7140000233881009384041CC7
S31500000D60372411001304846713850400233C110003
S31500000D70233C9400EFC01A7E2338A40063020502C8
S31500000D802334A400233095002334050083308101E9
S31500000D9003340101833481001301010267800000DE
S31500000DA0233C0400233404006FF05FFE130101FFAF
S31500000DB02330810037A50900138601FA93850100C7
S31500000DC01305852C23341100EF901A43138601FA7C
S31500000DD0033401008330810037A50900938581FF24
S31500000DE01305452C130101016F901A410000000004
S31500000DF0EF801A4E13040100930200006390020272
S31500000E0017F51000130505E617261100130606E46C
S31500000E10B306A64093D53600EF809A4C97F21000A1
S31500000E209382422E23B08200EF809A4DEF805A4A79
S31500000E30EF80DA79EF809A7FEF80DA6517A50A00EE
S31500000E401305457EEF905A25EFC0DA10EF805A4819
S31500000E5097F210009382821703A502009382010184
S31500000E6083B5020013060000EF00400FEF909A3A98
S31500000E7073001000000000000000000037750E002F
S31500000E8037770E00930785CD130787CD630AF700E2
S31500000E909307000063860700130585CD678007006A
S31500000EA06780000037750E00930785CD37770E00F3
S31500000EB0930587CDB385F54093D7354093D5F50394
S31500000EC0B385F50093D51540638A050093070000A6
S31500000ED063860700130585CD6780070067800000DD
S31500000EE0130101FF2330810037041100834784106A
S31500000EF02334110063920702EFF05FF8B7970A00F8
S31500000F00938707676386070013858104EF804A7617
S31500000F10930710002304F41083308100033401008A
S31500000F201301010167800000B7970A009387074500
S31500000F3063840702B7051100130101FF93850511AC
S31500000F401385810423341100EF808A508330810099
S31500000F50130101016FF01FF56FF0DFF4130101F6C5
S31500000F60233C1108233881082334910823302109B2
S31500000F70233C310713050040EFC0DA5D130405007A
S31500000F8013050040EFC01A5D9304050093070000A7
S31500000F90930600403307F4002300F70093871700F9
S31500000FA0E39AD7FE93870400138704402380070043
S31500000FB093871700E39CE7FE2334010623300106DE
S31500000FC0233C0104233801042334010437D50C00E3
S31500000FD0130505DFEFE0CA1913058106EF30105837
S31500000FE037D50C00130505E1EFE08A1813068103D7
S31500000FF09305100003358106EF20505813060104AF
S315000010009305200003358106EF2050571306010390
S315000010109305300003358106EF2050568336810351
S31500001020033601048335010337D50C00130505E3A8
S31500001030EFD0DA5DB7F90D00938709C237690E0064
S31500001040130989123309F9409305090037D50C00B5
S31500001050130585E6EFD09A5B930601051306090092
S31500001060938509C203358106EF00002D371900006C
S315000010709305098037D50C00130505E9EFD01A59F9
S3150000108093060106130610009305004003358106FA
S31500001090EF20906E9305810203350106EF30C07292
S315000010A0930681051306200093050040033581064B
S315000010B0EF20906C9305010203358105EF30C07077
S315000010C037D50C00130585EBEFE08A0A930700403D
S315000010D02334F100833781022338F100833701027C
S315000010E0233CF100930681041306800193058100D9
S315000010F003358106EF0000399305004037D50C0013
S31500001100130505EDEFD09A50930600401306000034
S315000011109305040003350106EF30407E37D50C00F9
S31500001120130505F0EFE0CA0493060040130600001D
S315000011309385040003358105EF30407C37D50C00DC
S31500001140130505F2EFE0CA02033681048335010573
S3150000115003358106EF40400A37D50C00130505F329
S31500001160EFE00A01B7652605938505C003358106BC
S31500001170EF30406B9305004037D50C00130585F51D
S31500001180EFD0DA4893060040130600008335810548
S3150000119013850400EF30407F9305098037D50C0096
S315000011A0130585F8EFD09A4603350106EF30804FD8
S315000011B003358105EF30004F03350105EF30804ED2
S315000011C003358104EF30004E37D50C00130505FBBF
S315000011D0EFD01A7A03358106EF20904813060000F7
S315000011E093070000130500409B8507003387F40032
S315000011F0834607006392C602938717001B062600E4
S315000012001376F60FE392A7FE37D50C0013050501FA
S31500001210EFD01A766F00C00137D50C00130505FD17
S31500001220EFD0DA3E37D50C0013050500EFD05A741F
S3150000123013050400EFC0DA3213850400EFC05A32FA
S3150000124013050000833081090334010983348108C2
S3150000125003390108833981071301010A67800000F9
S31500001260B707110083B787FB639A0700370711009A
S31500001270B7371100938787C4233CF7FAB7071100E5
S3150000128083B707FB63980700B707110037070010FD
S3150000129023B8E7FA67800000130101FE23388100B6
S315000012A0233C11002334910037041100834704C600
S315000012B00F00F00F93F7F70F63800702B7041100D2
S315000012C0833081010334010103A584C68334810080
S315000012D01301010267800000130504C6EF50D05ABF
S315000012E0B7041100E30E05FC37D50C001305050203
S315000012F023A404C6EFC08A3163060500EF900A5B9B
S3150000130023A4A4C6130504C6EF50505E374500005B
S31500001310938584C6138601FA130545CDEF90CA6DF1
S31500001320833081010334010103A584C6833481001F
S315000013301301010267800000130101FC233C110226
S31500001340233881022334910223302103233C3101C7
S315000013502338410163040512938405006380051256
S31500001360930780001309060063FAC710138A060064
S315000013706386061083B5050083B9840013078100D0
S3150000138093060000B389B94013860900EF20907CCC
S31500001390130405006314050403358100130909FFCE
S315000013A0930610001306090093050000EF30006E47
S315000013B01304050063020506B7D50C0013060500E5
S315000013C09385050A37D50C0013058507EFD01A2437
S315000013D003358100EF30002D6F00C00113060500B4
S315000013E0B7D50C0037D50C00938585031305850703
S315000013F0EFD0DA218330810313050400033401039F
S31500001400833481020339010283398101033A0101E0
S315000014101301010467800000033581009306300044
S315000014203386294193050900EF3040661304050011
S3150000143063160502033581009306090013060000B2
S3150000144093850401EF30804B1304050063100502F9
S31500001450833781002330FA006FF0DFF9B7D50C002F
S31500001460130605009385850D6FF0DFF5B7D50C00E3
S3150000147013060500938585126FF0DFF41304F0FF61
S315000014806FF05FF7130101FC233C11022338810240
S315000014902334910223302103233C31016308050ED6
S315000014A0138905006384050E930406006300060E87
S315000014B093890600638C060C9306810013061000C0
S315000014C093850400EF20502B1304050063140504D4
S315000014D00335810093860400130600009305090076
S315000014E0EF30C041130405006312050683378100FF
S315000014F083308103130504000334010323B0F9008C
S315000015008334810203390102833981011301010405
S315000015106780000013060500B7D50C0037D50C0010
S315000015209385851513058507EFD05A0E8330810301
S3150000153013050400033401038334810203390102D5
S315000015408339810113010104678000001306050039
S31500001550B7D50C0037D50C009385051913058507FB
S31500001560EFD0DA0A03358100EF30C01383308103F0
S315000015701305040003340103833481020339010295
S315000015808339810113010104678000001304F0FF11
S315000015906FF0DFF9130101DE233C311F130601163C
S315000015A0938905009305300023349120233C1120B4
S315000015B023388120233021212338411F2334511F12
S315000015C02330611F233C711D2338811D2334911D57
S315000015D02330A11D233CB11B93040500233C0110BD
S315000015E0233001122334011223380112233C011245
S315000015F0233001142334011423380114233C01142D
S31500001600EF20C077630005061309050013060500E1
S31500001610B7D50C0037D50C009385051C1305850737
S31500001620EFD0CA7E833081210334012183348120A7
S315000016308339811F033A011F833A811E033B011E32
S31500001640833B811D033C011D833C811C033D011C22
S31500001650833D811B13050900033901201301012273
S315000016606780000013068116930570001385040039
S31500001670EF20C0701309050063000502130605007C
S31500001680B7D50C0037D50C009385851F1305850744
S31500001690EFD0CA776FF01FF9033781169307100052
S315000016A0139507029395170213962702939637020E
S315000016B0939747023375A700B375B7003376C70013
S315000016C0B376D700B377F700233CA1082330B10ADD
S315000016D02334C10A2330D10E2338F108EFF0DFBBE3
S315000016E0833B011623380100130A050063940B009F
S315000016F06F10501113040000233C010C2338010C19
S315000017002334010C2330010C2338010A233C010A3F
S31500001710233001082338010623340108233C01063F
S315000017202334010623380102233C0102233001043D
S31500001730233C010423380104233001062334010429
S315000017402334010223300102233C0100930D0000E3
S31500001750930A0000233C210F371900009306011756
S3150000176013060400930509B013850400EF30803298
S31500001770630405006F10C037930681171306040033
S31500001780930529B013850400EF30C03063040500CB
S315000017906F104038930710006306FA66930720001F
S315000017A06310FA1483370109638407006F005067DA
S315000017B083378109638407006F0050758337010AF8
S315000017C0638407006F1080088337810AE39007540B
S315000017D0631804108337010E6388070A371900005F
S315000017E09306811113060000930529B113850400A1
S315000017F0EF30402A630405006F105038930601123B
S3150000180013060000930539B113850400EF308028D4
S31500001810630405006F10503493068112130600000E
S31500001820930549B113850400EF30C0266304050013
S315000018306F10D03D9306011313060000930559B1AE
S3150000184013850400EF300025630405006F10D039BE
S315000018509306811313060000930569B113850400EE
S31500001860EF304023630405006F10D0359306011452
S3150000187013060000930579B113850400EF3080212B
S31500001880630405006F10D0313719000093068114E8
S3150000189013060000930589B113850400EF30801FFD
S315000018A0630405006F10407E9306011513060000C1
S315000018B0930599B113850400EF30C01D630405003C
S315000018C06F10407A93068115130600009305A9B19F
S315000018D013850400EF30001C630405006F10001F21
S315000018E0833B011603390117033B811713050000DB
S315000018F06304090213050B00EF000A6E130C0500C2
S3150000190013050900EF004A6D9305050013050C0049
S31500001910EFF0C970EF20CA659307100063FA7703EA
S31500001920EF20CA37B7E50C00930705001307090037
S3150000193093060B001306040093858534138509006E
S31500001940EFA08A06833B0116033B81170339011773
S3150000195083370101B38A6A01B38D2D0163F4270130
S31500001960233821011B0414009317040293D707029E
S31500001970E3E477DF0339810F930710006314FA005D
S315000019806F10801B930720006310FA428337810A89
S31500001990638A071E0337010B8337810B930C000004
S315000019A0335D77030337010C335477030337810C18
S315000019B0B35477030337010D335A77030337810D89
S315000019C0B3DD7703335B770363E477051305040020
S315000019D0EF008A60130C050013850D00EF00CA5F47
S315000019E09305050013050C00EFF04963B7770E0069
S315000019F09305050003B507CEEFF0D97DB7770E0046
S31500001A0083B587CDEFF0D941EF004A4E9B0C050018
S31500001A108337010B130C000063E47705138504007C
S31500001A20EF008A5B930B050013050D00EF00CA5A01
S31500001A309305050013850B00EFF0495EB7770E009E
S31500001A409305050003B507CEEFF0D978B7770E00FA
S31500001A5083B587CDEFF0D93CEF004A491B0C050052
S31500001A603385AD01B3074501233CF100930B00001C
S31500001A70638C0702EF004A5683378101930B0500FA
S31500001A8013850700EF004A559305050013850B00E3
S31500001A90EFF0C958B7770E0083B587CDEFF0593808
S31500001AA0EF00CA449B0B050033059400330765011C
S31500001AB0233CE10093070000630E0702EF00CA51C2
S31500001AC0033781012330A10213050700EF00CA5036
S31500001AD0833701029305050013850700EFF00954CB
S31500001AE0B7770E0083B587CDEFF09933EF000A4044
S31500001AF09B070500B7E50C009385055013860D007E
S31500001B0013850900233CF100EF901A6AB7E50C0033
S31500001B1013060D009385055213850900EF90DA68C8
S31500001B20B7E50C0093860C00130604009385055454
S31500001B3013850900EF905A67B7E50C0093060C0071
S31500001B40138604009385055713850900EF90DA651F
S31500001B50B7E50C0093860B0013060A009385855A99
S31500001B6013850900EF905A6483378101B7E50C00AD
S31500001B7013060B00938607009385055E13850900FF
S31500001B80EF909A628337010E638E071A033A81112A
S31500001B9083348112930B000063040A041385040046
S31500001BA0EF008A431304050013050A00EF00CA423A
S31500001BB09305050013050400EFF04946B7770E00BC
S31500001BC09305050003B507CEEFF0D960B7770E0091
S31500001BD083B587CDEFF0D924EF004A319B0B050082
S31500001BE003340112833C0113130B00006304040445
S31500001BF013850C00EF004A3E130B05001305040085
S31500001C00EF008A3D9305050013050B00EFF009412F
S31500001C10B7770E009305050003B507CEEFF0995B85
S31500001C20B7770E0083B587CDEFF0991FEF000A2C2A
S31500001C301B0B050033058A0003348113130C0000C7
S31500001C4033048500630A0402EF000A39130C050009
S31500001C5013050400EF004A389305050013050C0030
S31500001C60EFF0C93BB7770E0083B587CDEFF0591B70
S31500001C70EF00CA271B0C05000334011433859401B9
S31500001C809304000033048500630A0402EF00CA349B
S31500001C909304050013050400EF000A3493050500BC
S31500001CA013850400EFF08937B7770E0083B587CD2B
S31500001CB0EFF01917EF008A239B040500B7E50C0027
S31500001CC013060A009385856113850900EF90DA4DA6
S31500001CD003360112B7E50C00938585631385090069
S31500001CE0EF909A4C03368112B7E50C0093860B00F1
S31500001CF09385856513850900EF901A4B033601130A
S31500001D00B7E50C0093060B009385856813850900DB
S31500001D10EF909A4903368113B7E50C0093060C0041
S31500001D209385056C13850900EF901A480336011454
S31500001D30B7E50C00938604009385856F138509002B
S31500001D40EF909A46833481140335811513040000FD
S31500001D5063840402EF004A28130405001385040077
S31500001D60EF008A279305050013050400EFF0092B01
S31500001D70EF00CA171B04050003370115B7E50C0071
S31500001D80938505733386E400938604001385090062
S31500001D90EF909A41B7E50C0013060400938585760B
S31500001DA013850900EF905A408334010113070000A0
S31500001DB06388040213850A00EF000A221304050053
S31500001DC013850400EF004A2193050500130504005E
S31500001DD0EFF0C924EF20CA19EF105A6C130705005B
S31500001DE083360101B7E50C0013860A0093858578D2
S31500001DF013850900EF905A3B13850900EF90CA320C
S31500001E006FF05F829306811A13060400930539B0BA
S31500001E1013850400EF20104813070500630405002E
S31500001E206F104000833701160339811A637EFA0466
S31500001E30033B0117630C0B0213050900EF00CA19D7
S31500001E40930B050013050B00EF000A199305050017
S31500001E5013850B00EFF0891CB7770E0083B587CD8D
S31500001E60EFF0097CEF008A081B070500B7D50C00C8
S31500001E70930609001306040093858530138509002F
S31500001E80EF909A320339811AB71500009306811A2A
S31500001E9013060400938545B013850400EF20903F98
S31500001EA08337810113070500B3872701233CF1001F
S31500001EB0630405006F0090798336011693071000BE
S31500001EC00339811A63FED704033B0117630C0B0227
S31500001ED013050900EF004A10930B050013050B00CC
S31500001EE0EF008A0F9305050013850B00EFF0091329
S31500001EF0B7770E0083B587CDEFF08972EFF0197FC3
S31500001F001B070500B7D50C0093060900130604004D
S31500001F109385853813850900EF901A290339811AAC
S31500001F20B71500009306811A13060400938555B071
S31500001F3013850400EF2010368337010213070500CE
S31500001F40B38727012330F102630405006F00507147
S31500001F508336011693071000033B811A63FED704EC
S31500001F6003390117630C090213050B00EF00CA06BB
S31500001F70930B050013050900EF000A0693050500FB
S31500001F8013850B00EFF08909B7770E0083B587CD6F
S31500001F90EFF00969EFF099751B070500B7D50C003E
S31500001FA093060B00130604009385854013850900EC
S31500001FB0EF909A1F033B811A371900009306011808
S31500001FC013060400930569B013850400EF20902CD6
S31500001FD083378102B38767012334F1026304050066
S31500001FE06F0050699306811813060400930589B0A3
S31500001FF013850400EF20102A630405006F00D069E2
S315000020009306011913060400930599B0138504007D
S31500002010EF205028630405006F00506A930681196B
S31500002020130604009305A9B013850400EF2090263B
S31500002030630405006F00D06A9306011A13060400B4
S315000020409305C9B013850400EF20D024630405006E
S315000020506F00506B9306811A130604009305D9B0DE
S3150000206013850400EF201023930B0500630405007D
S315000020706F00906B8335010583378118833601190C
S31500002080033D8119B385F5002338B10483358105F5
S31500002090833C011A033C811AB385D500233CB10465
S315000020A0833501040336011613071000B385A50115
S315000020B02330B10483358103033B0118B3859501B1
S315000020C0233CB10283350103B38585012338B10270
S315000020D0637EC716033601173389D7003309A90172
S315000020E0330999012334C10E33098901130700000E
S315000020F06308060413050B002334D1102330F110B6
S31500002100EFF0996D0336810E2338A10E13050600F4
S31500002110EFF0996C0337010F9305050013050700CF
S31500002120EFE0D96FB7770E0083B587CDEFF0494F53
S31500002130EFF0D95B83368110833701101B0705004A
S315000021402338D10E2334F10E6302094C130509001E
S315000021502330E110EFF059688337810E130905002B
S31500002160B77B0E0013850700EFF01967930509008A
S31500002170EFE0D96A83B58BCDEFF0894AEFF01957B6
S315000021808336010F9B0705002334F10E13850600E5
S31500002190EFF0996493050900EFE0596883B58BCD9C
S315000021A0EFF00948EFF099541308050013050D00E8
S315000021B01B0D0800EFF0596293050900EFE0196660
S315000021C083B58BCDEFF0C945EFF059529308050062
S315000021D013850C009B8C0800EFF01960930509002D
S315000021E0EFE0D96383B58BCDEFF08943EFF019505B
S315000021F09B0B050013050C00EFF0195E9305090013
S31500002200EFE0D961B7770E0083B587CDEFF049418E
S31500002210EFF0D94D8337810E033701101B050500FA
S31500002220B7D50C0093060B002334A10023307101AF
S3150000223093880C0013080D001306040093850560AF
S3150000224013850900EF904A76033B0118B715000085
S315000022509306811A13060400938575B0138504004E
S31500002260EF2050038337810413070500B387670106
S315000022702334F104E31A054C833601169307100044
S315000022800339811A63FED704033B0117630C0B0263
S3150000229013050900EFF05954930B050013050B00C5
S315000022A0EFF099539305050013850B00EFE01957DE
S315000022B0B7770E0083B587CDEFF08936EFF0194377
S315000022C01B070500B7D50C0093060900130604008A
S315000022D09385856B13850900EF900A6D0339811A82
S315000022E0B71500009306011A130604009385E5B09E
S315000022F013850400EF20007A83370106B387270190
S315000023002330F106E31C054483360116130710003B
S315000023108337011A6366D71803378106B71500009D
S315000023209306811AB307F70013060400938515B1C7
S31500002330138504002334F106EF20C07593060500CB
S31500002340E310054403360116130710008337811A7C
S315000023506376C7040339011A630609021385070069
S31500002360EFF09947130B050013050900EFF0D94666
S315000023709305050013050B00EFE0594AEFF01937F6
S315000023809B060500B7D50C00130604009385057A55
S3150000239013850900EF904A618337811A03370107D5
S315000023A0B71500009306011AB307F70013060400D9
S315000023B09385F5B0138504002338F106EF20806D70
S315000023C0E314053E83360116130710008337011AFE
S315000023D06368D70E03378107B71500009306811A85
S315000023E0B307F70013060400938525B1138504008F
S315000023F0233CF106EF20006A93060500E318053C2E
S3150000240003360116130710008337811A6376C70453
S315000024100339011A6306090213850700EFF0D93B59
S31500002420130B050013050900EFF0193B9305050092
S3150000243013050B00EFE0993EEFF0592B9B060500C4
S31500002440B7E50C00130604009385858713850900FC
S31500002450EF908A558337811A03370108B7150000B4
S315000024609306811AB307F70013060400938505B196
S31500002470138504002330F108EF20C061E31205360E
S31500002480833B0116930710008336811A63EA7705AA
S3150000249083378108B387D7002334F1086FF08FC4E0
S315000024A0B7D50C00938607001306040093850573C1
S315000024B013850900EF904A4F8337011A6FF0DFE565
S315000024C0B7E50C0093860700130604009385058183
S315000024D013850900EF904A4D8337011A6FF09FEF7D
S315000024E0B7E50C00130604009385858E1385090055
S315000024F0EF908A4B833781088336811A833B011616
S31500002500B387D7002334F1086FF0CFBD3719000029
S315000025109306811A130604009305C9B013850400B7
S31500002520EF204057E318054C0337810B8337811A98
S315000025309306811A13060400B307F7009305D9B072
S3150000254013850400233CF10AEF20C054E316054C22
S315000025500337010B8337811A9306811A1306040089
S31500002560B307F7009305E9B0138504002338F10A91
S31500002570EF204052E31A05540337010C8337811AC2
S315000025809306811A13060400B307F7009305F9B002
S31500002590138504002330F10CEF20C04FE31A0556D3
S315000025A00337810C8337811A9306811A13060400B8
S315000025B0B307F700930509B1138504002334F10C22
S315000025C0EF20404DE31405520337010D8337811A7E
S315000025D09306811A13060400B307F700930519B191
S315000025E0138504002338F10CEF20C04AE314055488
S315000025F00337810D8337811AB307F700233CF10CAB
S31500002600631404006FF00F9D6FF08FAD130500008B
S3150000261093070000930C0000130D00006FF05FC0DD
S3150000262093068119130604009305B9B113850400B6
S31500002630EF204046E314052A9306011A1306040008
S315000026409305C9B113850400EF20C044E31A052A97
S315000026509306811A130604009305D9B11385040065
S31500002660EF204043130B0500E310052E833B811931
S315000026700335011A0339811A3385AB003309250165
S31500002680630A0902EFF05915130B0500130509003B
S31500002690EFF099149305050013050B00EFE01918E8
S315000026A0B7770E0083B587CDEFE09977EFF0190481
S315000026B01B0B0500B7E50C0093860B001306040000
S315000026C09385859E13850900EF900A2E8336011A9D
S315000026D0B7E50C0013060400938585A01385090051
S315000026E0EF908A2C8336811AB7E50C0013070B008E
S315000026F013060400938585A213850900EF90CA2A64
S3150000270083378109639407006FF04F8B37190000F8
S315000027109306811913060400930539B01385040046
S31500002720EF204037E31005209306011A1306040034
S31500002730930549B013850400EF20C035E31A052838
S315000027409306811A13060400930559B013850400F5
S31500002750EF204034930B0500E31C0524033C81194C
S31500002760833C011A1309000063040C0413850C0052
S31500002770EFF099061309050013050C00EFF0D905D3
S315000027809305050013050900EFE05909B7770E0018
S315000027909305050003B507CEEFF0C923B7770E0002
S315000027A083B587CDEFE0D967EFF049741B090500C3
S315000027B0033B811A338B6C01630C0B0213850C00EF
S315000027C0EFF09901930B050013050B00EFF0D9000C
S315000027D09305050013850B00EFE05904B7770E004B
S315000027E083B587CDEFE0D963EFF049709B0B050009
S315000027F0B7E50C0093060C0013060400938585B418
S3150000280013850900EF904A1A8336011AB7E50C00C2
S315000028101307090013060400938585B6138509007E
S31500002820EF908A188336811AB7E50C0013870B00E0
S3150000283013060400938505BA13850900EF90CA169E
S315000028408337010A639407006FE01FF83719000009
S315000028509306011813060400930569B01385040056
S31500002860EF204023E3140512930681181306040093
S31500002870930579B013850400EF20C021E316050EF9
S315000028809306011913060400930589B01385040005
S31500002890EF204020E316051C930681191306040059
S315000028A0930599B013850400EF20C01EE3180518A0
S315000028B09306011A130604009305A9B013850400B4
S315000028C0EF20401DE310051E9306811A130604002F
S315000028D09305B9B013850400EF20C01B130B050048
S315000028E0E312051A833B011803390119130D000081
S315000028F063840B0413050900EFF0096E130C050041
S3150000290013850B00EFF0496D9305050013050C00C8
S31500002910EFE0C970B7770E009305050003B507CE43
S31500002920EFF0490BB7770E0083B587CDEFE0594F2F
S31500002930EFF0C95B1B0D0500033C811803378119B5
S31500002940930C000063080C04130507002334E10E02
S31500002950EFF08968930C050013050C00EFF0C967CA
S315000029609305050013850C00EFE0496BB7770E0061
S315000029709305050003B507CEEFF0C905B7770E003E
S3150000298083B587CDEFE0D949EFF049560337810E7D
S315000029909B0C05008337011A33858B01130C00004D
S315000029A0B307F5002334F10E638007042338E10EE4
S315000029B0EFF089628337810E130C0500138507003B
S315000029C0EFF089619305050013050C00EFE009653A
S315000029D0B7770E0083B587CDEFE09944EFF0095144
S315000029E00337010F1B0C05003305E9000339811A73
S315000029F033092501630A0902EFF0095E130B05008E
S31500002A0013050900EFF0495D9305050013050B005A
S31500002A10EFE0C960B7770E0083B587CDEFE0594088
S31500002A20EFF0C94C1B0B0500B7E50C0093860B00B5
S31500002A3013060400938585DB13850900EF80DA769B
S31500002A4083368118B7E50C0013060400938585DDEF
S31500002A5013850900EF805A7583360119B7E50C0016
S31500002A6013070D0013060400938505E0138509007E
S31500002A70EF809A7383368119B7E50C0013870C0033
S31500002A8013060400938585E313850900EF80DA7148
S31500002A908336011AB7E50C0013070C001306040071
S31500002AA0938505E713850900EF801A708336811A2E
S31500002AB0B7E50C0013070B0013060400938505EB1E
S31500002AC013850900EF805A6E6FE01FD0130B0500C7
S31500002AD013060500B7E50C0037D50C009385853045
S31500002AE013058507EFC08A3213090B006FE09FB309
S31500002AF0930B050013060500B7D50C0037D50C005F
S31500002B009385052313058507EFC04A3013890B000B
S31500002B106FE05FB1930B050013060500B7D50C00F7
S31500002B2037D50C009385052713058507EFC00A2EB8
S31500002B3013890B006FE01FAF638A0D5613850D00D6
S31500002B40EFF089491304050003358101B7740E00BF
S31500002B50EFF0894893050400EFE0494C83B584CD36
S31500002B60EFE0192CEFF089389B0C050003350102C4
S31500002B70EFF0894693050400EFE0494A83B584CD1A
S31500002B80EFE0192AEFF089361B0C050003358102A8
S31500002B90EFF0894493050400EFE0494883B584CDFE
S31500002BA0EFE01928EFF089349B0B0500033581040B
S31500002BB0EFF0894293050400EFE0494683B584CDE2
S31500002BC0EFE01926EFF089321B0B050003350106ED
S31500002BD0EFF0894093050400EFE0494483B584CDC6
S31500002BE0EFE01924EFF089301B0A0500033D81064A
S31500002BF09304000063060D0203350107EFF0C93D9B
S31500002C001304050013050D00EFF0093D93050500BB
S31500002C1013050400EFE08940EFF0492D9B04050001
S31500002C20033D81071304000063060D020335010806
S31500002C30EFF0893A1304050013050D00EFF0C939CA
S31500002C409305050013050400EFE0493DEFF0092A5E
S31500002C501B0405000337810383370103033D010588
S31500002C60833D810503380104B387E70003368101FC
S31500002C70B387A701B7E50C00B387B70193860C00AD
S31500002C809385853713850900B38C0701EF80DA51E8
S31500002C9003360102B7E50C0093060C009385053A4E
S31500002CA013850900EF805A5003368102B7E50C0000
S31500002CB093860B009385853C13850900EF80DA4ED9
S31500002CC063820C4013850C00EFF00931930B05006D
S31500002CD013050D00EFF0493093850B00377C0E008D
S31500002CE0EFE0C93383358CCDEFE09913EFF009207F
S31500002CF09B0C050013850D00EFF0092E93850B0044
S31500002D00EFE0C93183358CCDEFE09911EFF0091E64
S31500002D101B0D050003350104EFF0092C93850B000C
S31500002D20EFE0C92F83358CCDEFE0990FEFF0091C4A
S31500002D309B0D050003358103EFF0092A93850B00EF
S31500002D40EFE0C92D83358CCDEFE0990DEFF0091A30
S31500002D509B08050003350103233C1101EFF0C92749
S31500002D6093850B00EFE0892B83358CCDEFE0590B73
S31500002D70EFF0C917833881019B06050003368104ED
S31500002D80B7E50C0013880D0093070D0013870C00A0
S31500002D902330D1009385053F93060B001385090068
S31500002DA0EF809A4003360106B7E50C0093060A0049
S31500002DB09385054513850900EF801A3F0336810682
S31500002DC0B7E50C009385854713850900EF80DA3D4A
S31500002DD003368107B7E50C0093850549138509007D
S31500002DE0EF809A3C03368108B7E50C009385854A47
S31500002DF013850900EF805A3BB7E50C0013860400E3
S31500002E009385054C13850900EF801A3AB7E50C0047
S31500002E10130604009385054E13850900EF80DA3802
S31500002E206FE09FF8B7D50C00130605002338A10004
S31500002E309385852B37D50C0013058507EFB01A7DD2
S31500002E4003370101130907006FE0CFFDB7D50C006A
S31500002E50130605002338A100938585336FF09FFD87
S31500002E60B7D50C00130605002338A1009385853BD2
S31500002E706FF05FFC930B050013060500B7D50C0039
S31500002E8037D50C009385854313058507EFB01A786F
S31500002E9013890B006FE00FF9930B0500130605006D
S31500002EA0B7D50C0037D50C009385854813058507E3
S31500002EB0EFB0DA7513890B006FE0CFF6930B0500C0
S31500002EC013060500B7D50C0037D50C009385054DC4
S31500002ED013058507EFB09A7313890B006FE08FF423
S31500002EE0930B050013060500B7D50C0037D50C006B
S31500002EF09385855113058507EFB05A7113890B0029
S31500002F006FE04FF2930B050013060500B7D50C00D2
S31500002F1037D50C009385055613058507EFB01A6F54
S31500002F2013890B006FE00FF013060500B7D50C00F0
S31500002F3037D50C009385055B13058507EFB01A6D31
S31500002F4013890B006FE00FEEB7D50C0013060500D2
S31500002F502338A100938585666FF0DFED130B05001E
S31500002F6013060500B7D50C0037D50C009385856E82
S31500002F7013058507EFB09A6913090B006FE08FEA16
S31500002F80B7D50C00130605002338A10093850575F7
S31500002F9037D50C0013058507EFB05A678336010154
S31500002FA0138906006FE00FE8130B050013060500F2
S31500002FB0B7D50C0037D50C009385857C130585079E
S31500002FC0EFB0DA6413090B006FE0CFE5B7E50C004C
S31500002FD0130605002338A100938505836FF05FFB78
S31500002FE0130B050013060500B7E50C0037D50C00DA
S31500002FF09385058A13058507EFB05A6113090B00FF
S315000030006FE04FE2233C010C2338010C2334010C02
S315000030102330010C2338010A233C010A233001081E
S315000030202338010623340108233C01062334010614
S3150000303023380102233C010223300104233C01040E
S31500003040233801042330010623340104233401020A
S3150000305023300102233C0100930D0000930A000077
S315000030606FE09F91930B050013060500B7E50C0072
S3150000307037D50C009385052C13058507EFB01A5933
S3150000308013890B006FE00FDA930B0500130605009A
S31500003090B7E50C0037D50C00938585271305850702
S315000030A0EFB0DA5613890B006FE0CFD7130A000092
S315000030B0930C0000130C0000930B0000130B000090
S315000030C06FF0DFB293060000930C0000130D0000B2
S315000030D0930D0000930800006FF05FCA930B050084
S315000030E013060500B7E50C0037D50C0093858590CF
S315000030F013058507EFB09A5113890B006FE08FD245
S31500003100930B050013060500B7E50C0037D50C0038
S315000031109385059513058507EFB05A4F13890B0064
S315000031206FE04FD0930B050013060500B7E50C00C2
S3150000313037D50C00938505A613058507EFB01A4D04
S3150000314013890B006FE00FCE13060500B7E50C00E0
S3150000315037D50C009385859913058507EFB01A4B73
S3150000316013090B006FE00FCC930B05001306050047
S31500003170B7E50C0037D50C00938585C21305850786
S31500003180EFB0DA4813890B006FE0CFC9930B050047
S3150000319013060500B7E50C0037D50C00938505BE70
S315000031A013058507EFB09A4613890B006FE08FC7AA
S315000031B013060500B7E50C0037D50C00938585AFDF
S315000031C013058507EFB09A4413890B006FE08FC58E
S315000031D0930B050013060500B7E50C0037D50C0068
S315000031E0938585AA13058507EFB05A4213890B000C
S315000031F06FE04FC3930B050013060500B7E50C00FF
S3150000320037D50C00938505EF13058507EFB01A40F7
S3150000321013890B006FE00FC1930B05001306050021
S31500003220B7E50C0037D50C00938505F31305850724
S31500003230EFB0DA3D13890B006FE0CFBE930B0500AC
S3150000324013060500B7E50C0037D50C00938585CC31
S3150000325013058507EFB09A3B13890B006FE08FBC0F
S31500003260930B050013060500B7E50C0037D50C00D7
S31500003270938585C713058507EFB05A3913890B0067
S315000032806FE04FBA13060500B7E50C0037D50C0002
S31500003290938585D613058507EFB05A3713090B00BA
S315000032A06FE04FB8930B050013060500B7E50C0059
S315000032B037D50C00938585D113058507EFB01A35F0
S315000032C013890B006FE00FB6930B0500130605007C
S315000032D0B7E50C0037D50C00938505F71305850770
S315000032E0EFB0DA3213890B006FE0CFB3930B050012
S315000032F013060500B7E50C0037D50C00938505FFCE
S3150000330013058507EFB09A3013890B006FE08FB174
S31500003310930B050013060500B7E50C0037D50C0026
S31500003320938505FB13058507EFB05A2E13890B000D
S315000033306FE04FAF130B050013060500B7E50C0051
S3150000334037D50C009385850313058507EFB01A2C36
S3150000335013090B006FE00FAD930B05001306050074
S31500003360B7E50C0037D50C009385050D13058507C9
S31500003370EFB0DA2913890B006FE0CFAA930B050093
S3150000338013060500B7E50C0037D50C009385050834
S3150000339013058507EFB09A2713890B006FE08FA8F6
S315000033A0130B050013060500B7E50C0037D50C0016
S315000033B09385052213058507EFB05A2513090B00DF
S315000033C06FE04FA6930B050013060500B7E50C004A
S315000033D037D50C009385851C13058507EFB01A2396
S315000033E013890B006FE00FA4930B0500130605006D
S315000033F0B7E50C0037D50C0093850517130585072F
S31500003400EFB0DA2013890B006FE0CFA1930B050014
S3150000341013060500B7E50C0037D50C009385051299
S3150000342013058507EFB09A1E13890B006FE08F9F77
S31500003430130101FA23349104233C310393840500DC
S315000034409309060093052000130681002330210509
S31500003450233C1104233881042338410323345103C8
S3150000346013090500EF009011630405041304050019
S3150000347013060500B7E50C0037D50C009385057BD0
S3150000348013058507EFB09A188330810513050400EC
S31500003490033401058334810403390104833981032C
S315000034A0033A0103833A8102130101066780000093
S315000034B0130601019305100013050900EF00100C17
S315000034C01304050063100506033A8100833A0101DF
S315000034D03B065A0363649608E38809FA13068101DA
S315000034E09305600013050900EF0050091304050059
S315000034F063180504939704021387FAFF93D707020C
S31500003500B307F700B3D757039B870700335AFA026E
S31500003510833781011B0A0A0033DA470323A04901D6
S315000035206FF09FF613060500B7E50C0037D50C00C3
S315000035309385057F13058507EFB05A0D6FF0DFF40D
S3150000354013060500B7F50C0037D50C0093850588E2
S3150000355013058507EFB09A0B6FF01FF337F50C00D4
S315000035609385040013050583EFB05A0A1304F0FF90
S315000035706FF09FF1130101DB2334112423308124E2
S31500003580233C912223382123233431232330412322
S31500003590233C512123386121233471212330812199
S315000035A06302052E93840500638E052C130B06001B
S315000035B0630A062C930A05001305810FEF40145485
S315000035C0B7470D009387072303B48700231C011C0C
S315000035D083BB0701833784FE37590D00130909376A
S315000035E013070120B307F700233C210F2338011CE2
S315000035F02330011E2334011E2338011E233C011EE5
S31500003600233C810023BC77E123300102033584FE8D
S3150000361093078101930500003385A700EF40842CB2
S31500003620374A0D00B7490D00130A8A2693890929DE
S3150000363013058102233C4101233C310FEFA0131BEC
S31500003640930581021305810FEF40C42913068000FC
S315000036509385040013058102EFB0C35183378101BE
S315000036601307810183B787FEB307F7006306051CBE
S315000036709305000013850700EF30D42F83278111AF
S3150000368093F75700639C071213062000930500006A
S3150000369013058101EF80444D13058101EF80442815
S315000036A02334A1002338B100930405006340051EAE
S315000036B0630E0518EF30102A1386040093050000E8
S315000036C0130C0500EFB0CA5813060000930500005E
S315000036D013058101EF8044491386040093050C000D
S315000036E013058101EF70D44593060B001386040081
S315000036F093050C0013850A00EFD0DFD8930405006C
S315000037006310050A63060C0013050C00EF20102059
S31500003710B7470D009387071713058102233C410124
S31500003720233C310F2334F102EFB0031613050107D2
S31500003730EF305075B7770D009387879A130501060A
S315000037402334F102EF50C053833784FE1307012060
S31500003750233C8100B307F70023BC77E11305810FF3
S3150000376023300102233C210FEF40946583308124EE
S31500003770033401240339012383398122033A0122C8
S31500003780833A8121033B0121833B8120033C0120B5
S31500003790138504008334812313010125678000000B
S315000037A013060500B7F50C0037D50C009385059177
S315000037B013058507EFB08A656FF0DFF4B71A1100BD
S315000037C0B7F50C00130670009385058C13858AB433
S315000037D0EFF0C52D13850400EFE09A7D1306050072
S315000037E09385040013858AB4EFF0452CB7F50C00D9
S315000037F01306A0009385858C13858AB4EFF0052BFC
S3150000380013878AB48337070083B787FEB387E70039
S3150000381083B4070F6382040883C78403638C07029B
S3150000382083C5340413858AB4EFE0D566EFE0C54B53
S315000038309304F0FF6FF0DFED83A507021385070001
S3150000384093E54500EF3014136FF05FE3130C0000AF
S315000038506FF09FE713850400EF70110203B70400B1
S31500003860B74700009387C7CC033707039305A0002B
S31500003870E30AF7FA13850400E7000700930505003D
S315000038806FF05FFA9304F0FF6FF05FEE37F50C0010
S315000038901305858DEFC09FC7EFC09FB113040500C8
S315000038A01305810F233C210FEF40945113050400AB
S315000038B0EF305A1F93070500033784FE233C81002F
S315000038C01384070093070120B387E70023BC77E141
S315000038D0233001026FF0DFFC1304050063060C00C1
S315000038E013050C00EF20900213058101EFB0C37998
S315000038F013050400EF301A1BEF205002EF20900B47
S315000039006FF0DFE2130405006FF01FFE930405005D
S3150000391013058102EFB0830A938704006FF0DFF985
S31500003920130101DB2334112423308124233C91220B
S31500003930233821232334312323304123233C5121AF
S315000039402338612123347121233081216302052E1E
S3150000395093840500638E052C130B0600630A062C60
S31500003960930A05001305810FEF405419B7470D0060
S315000039709387072303B48700231C011C83BB07011D
S31500003980833784FE37590D001309093713070120C1
S31500003990B307F700233C210F2338011C2330011EF7
S315000039A02334011E2338011E233C011E233C8100C3
S315000039B023BC77E123300102033584FE930781019E
S315000039C0930500003385A700EF30D471374A0D0008
S315000039D0B7490D00130A8A2693890929130581021E
S315000039E0233C4101233C310FEFA043609305810244
S315000039F01305810FEF30146F1306800093850400C2
S31500003A0013058102EFB00317833781011307810184
S31500003A1083B787FEB307F7006306051C930500000E
S31500003A2013850700EF3004758327811193F757003C
S31500003A30639C0712130620009305000013058101FD
S31500003A40EF80841213058101EF70946D2334A10079
S31500003A502338B100930405006340051E630E051864
S31500003A60EF30406F1386040093050000130C050029
S31500003A70EFB00A1E1306000093050000130581012E
S31500003A80EF80840E1386040093050C001305810154
S31500003A90EF70140B93060B001386040093050C00BD
S31500003AA013850A00EFD05F89930405006310050AA9
S31500003AB063060C0013050C00EF204065B7470D00A8
S31500003AC09387071713058102233C4101233C310FDD
S31500003AD02334F102EFA0535B13050107EF30903A50
S31500003AE0B7770D009387879A130501062334F102F1
S31500003AF0EF500019833784FE13070120233C810011
S31500003B00B307F70023BC77E11305810F23300102C9
S31500003B10233C210FEF40D42A83308124033401242F
S31500003B200339012383398122033A0122833A812111
S31500003B30033B0121833B8120033C012013850400C4
S31500003B4083348123130101256780000013060500D5
S31500003B50B7F50C0037D50C009385859413058507BA
S31500003B60EFB0CA2A6FF0DFF4B71A1100B7F50C00F0
S31500003B70130670009385058C13858AB4EFE01573E0
S31500003B8013850400EFE0DA4213060500938504006E
S31500003B9013858AB4EFE09571B7F50C001306A00003
S31500003BA09385858C13858AB4EFE0557013878AB4A4
S31500003BB08337070083B787FEB387E70083B4070F11
S31500003BC06382040883C78403638C070283C53404B5
S31500003BD013858AB4EFE0152CEFE005119304F0FF8E
S31500003BE06FF0DFED83A507021385070093E5450017
S31500003BF0EF3044586FF05FE3130C00006FF09FE75F
S31500003C0013850400EF70414703B70400B74700006F
S31500003C109387C7CC033707039305A000E30AF7FA97
S31500003C2013850400E7000700930505006FF05FFAAF
S31500003C309304F0FF6FF05FEE37F50C001305858DEA
S31500003C40EFC0DF8CEFC0CFF6130405001305810F1C
S31500003C50233C210FEF40D41613050400EF308A648D
S31500003C6093070500033784FE233C81001384070075
S31500003C7093070120B387E70023BC77E123300102D5
S31500003C806FF0DFFC1304050063060C0013050C003F
S31500003C90EF20C04713058101EFB0033F1305040071
S31500003CA0EF304A60EF208047EF20C0506FF0DFE230
S31500003CB0130405006FF01FFE93040500130581022F
S31500003CC0EFA0D34F938704006FF0DFF9138505004B
S31500003CD06780000067800000130101FF2334110094
S31500003CE0EF00905D83308100B7470F00938707246C
S31500003CF03305F5021301010167800000130101FD80
S31500003D00233C9100930405002330810223382101CE
S31500003D10233431012334110293890500EF00D05971
S31500003D2003B40400B7D79A3B938707A03304F40281
S31500003D3083B78400B7440F00130905009384042455
S31500003D403304F400EF005057B3072541B3879702B9
S31500003D50E3EA87FE6386090023B0090023B409005D
S31500003D608330810203340102833481010339010166
S31500003D70833981001301010367800000630C050A83
S31500003D809307700063ECB70AB7F70C00938707F840
S31500003D9093952500B385F50083A705006780070086
S31500003DA0034755069307100013050000B397E70075
S31500003DB02330F60067800000833785061305000070
S31500003DC02330F600678000008347050613050000D0
S31500003DD02330F600678000008347150613050000B0
S31500003DE02330F60067800000834725061305000090
S31500003DF02330F600678000008337050613050000B0
S31500003E0093D787019397070393D707032330F600C9
S31500003E1067800000930700042330F60013050000B6
S31500003E206780000083370507130500002330F6007E
S31500003E30678000001305F0FF6780000083B701026A
S31500003E4013860500B7F50C0003B58701130101FFC2
S31500003E509385859823341100EF701A35EF605A2246
S31500003E6063080510130101FE23388100033485031E
S31500003E7023349100233C110093040500630A0400D7
S31500003E801305040003340400EF204028E31A04FE5F
S31500003E9003B6040303B58402930500001316360027
S31500003EA0EFA01A5B03B5840223B0040423BC04020A
S31500003EB0938784056304F500EF20402503B40402CC
S31500003EC0630A0400832784001B87F7FF2324E4008A
S31500003ED06306070603B4040163020404832784000F
S31500003EE01B87F7FF2324E400631A070283370400C5
S31500003EF01305040083B70701E78007008327C40082
S31500003F001B87F7FF2326E400631A070083370400A4
S31500003F101305040083B78701E780070013850400B3
S31500003F20EF20C01E833081010334010183348100F8
S31500003F3013050000130101026780000083370400A7
S31500003F401305040083B70701E78007008327C40031
S31500003F501B87F7FF2326E400E31E07F683370400DA
S31500003F601305040083B78701E78007006FF09FF60B
S31500003F701305F0FF67800000630C053A130101FB8F
S31500003F80233861012334110423308104233C910238
S31500003F90233821032334310323304103233C5101C9
S31500003FA02334710123308101138B060063800636AA
S31500003FB0938A0500638C0534833985009384F5FF65
S31500003FC0130A050083E7490103B68901B384F400A7
S31500003FD0B307F040B3F4F400630A0622130906009F
S31500003FE0833789026384070E03B7870363789700D4
S31500003FF06F00C00D03B7870363689700138407003B
S3150000400083B70700E39807FE0336840103370401EC
S31500004010033C8403833B040383368400630606283B
S315000040202338E6000337040163040700233CC70076
S3150000403023380400233C0400638E062823B0F600D0
S31500004040833704006384070023B4D700836789019C
S31500004050330C9C4023300400233404006370FC10AE
S31500004060833709022330F4026384070023B48702EE
S3150000407083B789022330890213058001B384970030
S3150000408023B49902EF30000D233045012334750126
S31500004090233855012330AB0013050000833081041B
S315000040A00334010483348103033901038339810214
S315000040B0033A0102833A8101033B0101833B8100FC
S315000040C0033C010013010105678000000339090064
S315000040D0E31809F083E7090183BB0900138CF7FF96
S315000040E0330C9C00B307F040337CFC00B3067C0124
S315000040F08337860063F8D71203370601B387E700D4
S3150000410063F6FB00938B0700B306FC00033606003C
S31500004110E31006FE83B7890063F6D71037F50C0067
S315000041201305059BEFB0CA0437D40C00B7F50C0095
S315000041301306F0FF9385859C13058407EFA01A4D9F
S31500004140B7F50C001306F0FF9385059F130584074A
S31500004150EFA0DA4B1305F0FF6FF05FF4233C9402F7
S3150000416013050004EF20107F83370903B38B740116
S31500004170233005002334050023380500233C0500C1
S31500004180233005022334050223387503233C8503B7
S31500004190638C0718930600006F00400103B7070100
S315000041A093860700630607149307070003B7070300
S315000041B0E36677FF2338F500233CD50063800614B9
S315000041C023B8A60023BCA70083378902638407149B
S315000041D0930600006F00400103B7070093860700AF
S315000041E0630E070E9307070003B78703E366ECFE2B
S315000041F02330F5002334D5006386061023B0A600CD
S31500004200833B040323B4A7006FF09FE583E709010E
S3150000421083BB0900138CF7FF330C9C00B307F040F7
S31500004220337CFC0013058003EF20D07283A749017D
S315000042301309050023300500233475012338850151
S31500004240232CF5002330050213050004EF2090709F
S3150000425083B7890123300500233405002338050080
S31500004260233C050023300502233405022338750359
S31500004270233C85032338A9022334A902130405002D
S31500004280638807008336890003B7870063F8E60270
S315000042902330F90023BC290163609C0A93070000C0
S315000042A093060000130700002338E90213060000F6
S315000042B06FF09FD703B787006378D7001386070090
S315000042C083B70700E39807FE2330F9002330260161
S315000042D06FF09FFC2334F9026FF0DFD62330050020
S315000042E02334F500833B040323B0A7006FF05FD7A8
S315000042F0233CF50023B8A7006FF01FED2338A90271
S315000043006FF05FEC2334A9026FF09FEF1305F0FF07
S315000043106FF0DFD82330050023340500833B040308
S315000043202334A9026FF0DFD32338A9026FF0DFE947
S315000043301305F0FF678000008337800173001000CB
S315000043401304050013050900EF10505C1305040063
S31500004350EF205A75630A0532130101FB23347101FC
S315000043602334110423308104233C91022338210392
S315000043702334310323304103233C510123386101A7
S3150000438023308101930B0700630A072C130B0600E9
S315000043906306062C033A85009309F6FF930A050087
S315000043A083670A0103378A0013840500B389F9007D
S315000043B0B307F040B3F9F900B38435016360972C75
S315000043C083378A01639007026F000008636604035F
S315000043D063F496066372980263F0860283B7070059
S315000043E06384070683B6870003B80701338806018E
S315000043F0E37ED4FC63F4960437F50C00130505AA96
S31500004400EFA01A5737D40C00B7F50C001306F0FFCF
S31500004410938585A413058407EFA05A1FB7F50C00F2
S315000044201306F0FF938505A713058407EFA01A1E50
S315000044301305F0FF6F00400EE3E286FAE3FE04FB8D
S3150000444083B70700E39007FA13058003EF20905027
S3150000445083274A01130C05001305000423300C00C2
S3150000446023348C0023383C01232CFC0023300C021F
S31500004470EF20504E83378A01233005002334050090
S3150000448023380500233C05002330050223340502AA
S3150000449023388502233C35032338AC022334AC028F
S315000044A0130905006388070083368C0003B787006D
S315000044B063F0E60A2330FC0083278C01233C8A0143
S315000044C023380C0223380900233C090023340C024C
S315000044D023300900233409006386070A83370C0258
S315000044E02330F9026384070023B4270383378A0243
S315000044F023302C0313058001B389370123343A0393
S31500004500EF205045233055012334850023386501BB
S3150000451023B0AB001305000083308104033401048B
S31500004520833481030339010383398102033A01028B
S31500004530833A8101033B0101833B8100033C010077
S31500004540130101056780000003B787006378D70071
S315000045501386070083B70700E39807FE2330FC00A5
S3150000456083278C012330860123380C022338090067
S31500004570233C090023340C022330090023340900AC
S31500004580E39E07F413050004233C3903EF20903C17
S3150000459083370C0323300500233405002338050038
S315000045A0233C0500233005022334050223389502F7
S315000045B0233C05026380070C930600006F00400150
S315000045C003B70701938607006302070693070700F0
S315000045D003B70703E36697FE2338F500233CD500AF
S315000045E06384060623B8A60023BCA70083378C0283
S315000045F0638A0706930600006F00400103B70700B1
S3150000460093860700630A07029307070003B7870329
S31500004610E31607FE2330F5002334D500638A06022D
S3150000462023B0A60023B4A7006FF05FEB233CF50090
S3150000463023B8A7006FF09FFB233005002334F50055
S3150000464023B0A7006FF09FE92338AC026FF0DFF9C3
S315000046502334AC0223B4A7006FF05FE81305F0FF24
S315000046606FF09FEB23300500233405002334AC02A2
S315000046706FF0DFE62338AC026FF05FF737F50C001A
S31500004680130505A26FF0DFD71305F0FF6780000062
S315000046901304050013050C00EF1050271305040042
S315000046A0EF205A40130101FD233081022334110209
S315000046B0233C9100233821012334310113040000E7
S315000046C0630C050683370500033785009304050050
S315000046D003B987000334890163040408833784001F
S315000046E0636CF70683360401B387D7006376F70653
S315000046F083350402639805006F00000683B5050242
S31500004700638C050483B70503E31AF7FE130504005B
S3150000471083B98503EF00505183370402638E070483
S315000047208337890213040000B38737412334F90223
S3150000473013850400EF10901D8330810213050400D9
S315000047400334010283348101033901018339810075
S31500004750130101036780000003340400E31004F82A
S3150000476037F50C0093050700130585ADEFA00A6A1F
S315000047701304F0FF6FF0DFFB83378901638E0700B8
S31500004780639687006F0080036384870213870700A0
S3150000479083B70700E39A07FE0335040363040500A5
S315000047A0EF10D01613050400EF1050166FF05FF7E8
S315000047B0833704002330F7006FF01FFE83370400B1
S315000047C0233CF9006FF05FFD630A0500833785001F
S315000047D01305000023B0F500678000001305F0FF05
S315000047E06780000093070500630A0502638C0500D5
S315000047F08336850003B7860083B686023307D74023
S3150000480023B0E50013050000630C060083B787009C
S3150000481083B787022330F600678000001305F0FF98
S31500004820678000006308050C130101FC2334910224
S31500004830B7440F0023302103233C310123384101C3
S3150000484013890424233C110223388102130A05002C
S31500004850938905009384F423130681009305400190
S3150000486013050A0023340100EF10805A631C050269
S315000048708337810093F777002334F100638C0704B4
S31500004880638A0904EF00402313040500EF00C022E9
S31500004890B3078540B3872703E3FAF4FE9389F9FF4C
S315000048A06FF09FFB37D40C00B7F50C00130605001C
S315000048B0938585B013058407EFA04A55B7F50C001C
S315000048C01306F0FF938505B313058407EFA00A547A
S315000048D01305F0FF8330810303340103833481021F
S315000048E00339010283398101033A010113010104ED
S315000048F0678000001305F0FF67800000630205066D
S315000049009307060013860500638C0504033805012A
S31500004910B385D70013070500033505006362B804A5
S3150000492083358700B385B70093F7F503639A0702CB
S315000049309386F6038337050793F606FC3387D5007F
S3150000494063E0E702130101FF23341100EF009052E8
S31500004950631C05008330810013010101678000009C
S315000049601305F0FF6780000013060500B7F50C007D
S3150000497037D50C00938505B613058507EFA00A49C0
S315000049801305F0FF6FF01FFD13870500638E050406
S3150000499093050500630A0504833807013308D6002A
S315000049A00335070063E20805033787003306E60090
S315000049B01377F603631A07029387F603033705078F
S315000049C093F707FCB387C7006360F702130101FF83
S315000049D023341100EF00507D631C050083308100F5
S315000049E013010101678000001305F0FF67800000D6
S315000049F013060500B7F50C0037D50C00938585B96D
S31500004A0013058507EFA08A401305F0FF6FF01FFD21
S31500004A10630E0504630C06048338050393970502A9
S31500004A2093D70702B3F71703033785029396370028
S31500004A303307D70003380700630A08020337080064
S31500004A40832687006388D50203350700130807000D
S31500004A50630E0500832685001307050013950602DD
S31500004A601355050233751503E38EA7FC1305F0FFF6
S31500004A706780000083370800E38A07FE83A7C70024
S31500004A80130500002320F6006780000013050000D0
S31500004A9067800000630A05006388060023B00600ED
S31500004AA013050000678000001305F0FF6780000013
S31500004AB01305000067800000B707110003B587C71C
S31500004AC01305150023BCA7C667800000130101FA71
S31500004AD0233C110423388104233491042330210517
S31500004AE0233C31032338410323345103233061032C
S31500004AF06308052493840500130A0600138605003F
S31500004B009305400013040500139B0402EF10002FC9
S31500004B10135B0B026318051813060A009305800041
S31500004B2013050400EF10802D6318051A13064000C4
S31500004B309305000013050400EF10402C93090500AF
S31500004B406316051C83350403833784023375BB0261
S31500004B50931A3500B387570103B60700630A0606A2
S31500004B608337060003A787006386E40283B607003F
S31500004B706380060603A786001386070093170702BD
S31500004B8093D70702B3F7B7026314F50493870600B9
S31500004B90E39EE4FC833706001389C700638A070295
S31500004BA023204901833081050334010583348104C0
S31500004BB003390104033A0103833A8102033B0102EC
S31500004BC013850900833981031301010667800000FC
S31500004BD013050001EF20005883370405033604044B
S31500004BE08335040313090500930610001305840496
S31500004BF02330090023249900232609002334F100D9
S31500004C00EF2004362338A100233CB1001375F50FBD
S31500004C10631C050203378402B30A570183B70A00EF
S31500004C206388070483B707002330F90083B70A00B7
S31500004C3023B02701833704041309C900938717009B
S31500004C402330F4046FF0DFF51306810013058402A8
S31500004C50EF108001833A040303378402B37A5B03BF
S31500004C60939A3A00B30A570183B70A00E39C07FAFE
S31500004C7083378403233C24032330F900638E070023
S31500004C8083E7870083360403B3F7D7029397370089
S31500004C903307F700233027019307840323B0FA0074
S31500004CA06FF05FF937D40C00B7F50C00130605005A
S31500004CB0938505FA13058407EFA04A15B7F50C008E
S31500004CC01306F0FF938505BD13058407EFA00A14AC
S31500004CD09309F0FF6FF01FED37D40C00B7F50C0009
S31500004CE013060500938505FA13058407EFA00A123B
S31500004CF0B7F50C001306F0FF938505C0130584076E
S31500004D00EFA0CA109309F0FF6FF0DFE937D40C006B
S31500004D10B7F50C0013060500938505FA13058407FD
S31500004D20EFA0CA0EB7F50C001306F0FF938505C376
S31500004D3013058407EFA08A0D9309F0FF6FF09FE635
S31500004D409309F0FF6FF01FE6130405001305090031
S31500004D50EF10C03B13050400EF20CA54130101FCF9
S31500004D60233C11022338810223349102233021038C
S31500004D70233C3101233841012334510123306101A1
S31500004D80630E05441309050013058007EF20803CD8
S31500004D90B7F5FF019395750013040500EF10C000E9
S31500004DA093071000939407022338F40283A701DBCC
S31500004DB0930984051306840693050002130504006F
S31500004DC02334040023380400233C04002330040267
S31500004DD023343403233C0402233004042324F40440
S31500004DE023380404233C040423389406EF00107E81
S31500004DF063120538130604069305800113050400A3
S31500004E00EF00D07C6312053A13050004EF208034CE
S31500004E10B7F60C00938A062637070004B70600701B
S31500004E20033A04012338D5001307170093069000B0
S31500004E3093841400130605019396C6011317C70041
S31500004E402330550123349500233CD5002330E50259
S31500004E5023340502233C05022334C4002338A4006E
S31500004E60630A0A0083278A001B87F7FF2324EA00C8
S31500004E7063020716034A540693041000339A44014A
S31500004E8063FA441937060060930510001305040001
S31500004E90EFF0DFC393040500631C05101306000042
S31500004EA09305200013050400EFF05FC2930405008C
S31500004EB0630C051E13060500B7F50C0037D50C006C
S31500004EC0938585D513058507EF905A7403398403B6
S31500004ED0630A09001305090003390900EF100023CE
S31500004EE0E31A09FE03360403033584029305000022
S31500004EF013163600EF90DA55033584022330040486
S31500004F00233C04026384A900EF1040200339040205
S31500004F10630A0902832789001B87F7FF2324E90018
S31500004F2063120702833709001305090083B70701D7
S31500004F30E78007008327C9001B87F7FF2326E900C0
S31500004F406308071E03390401630A090283278900DF
S31500004F501B87F7FF2324E900631207028337090042
S31500004F601305090083B70701E78007008327C900F7
S31500004F701B87F7FF2326E9006306071C13050400B9
S31500004F80EF10C01883308103033401030339010293
S31500004F9083398101033A0101833A8100033B010011
S31500004FA01385040083348102130101046780000025
S31500004FB013060500B7F50C0037D50C00938585D090
S31500004FC013058507EF909A6403398403E31409F007
S31500004FD06FF05FF183370A0013050A0083B70701F4
S31500004FE0E78007008327CA001B87F7FF2326EA000E
S31500004FF0E31207E883370A0013050A00930410003A
S3150000500083B78701E7800700034A5406339A4401B1
S31500005010E3EA44E713050004EF20C0133707100046
S31500005020033B0402939404021307170093841400AD
S31500005030930605013706007F1317C7002330550175
S31500005040233495002338C500233C45012330E5026F
S3150000505023340502233C0502233CD4002330A4025A
S31500005060E3020BE283278B001B87F7FF2324EB0069
S31500005070E31A07E083370B0013050B0083B707011C
S31500005080E78007008327CB001B87F7FF2326EB006B
S31500005090E31A07DE83370B0013050B0083B787017E
S315000050A0E78007006FF01FDE13060000930530004F
S315000050B013050400EFF09FA193040500631C05028D
S315000050C0130600009305400013050400EFF01FA02F
S315000050D093040500630E050213060500B7F50C00E0
S315000050E037D50C00938585DD13058507EF901A5299
S315000050F06FF09FED13060500B7F50C0037D50C00D1
S31500005100938505DA13058507EF905A506FF0DFEBAC
S31500005110130600009305500013050400EFF01F9BD3
S3150000512093040500631A0502233089006FF09FE59A
S31500005130833709001305090083B78701E780070055
S315000051406FF05FE0833709001305090083B7870115
S31500005150E78007006FF09FE213060500B7F50C0025
S3150000516037D50C00938505E113058507EF901A4A9C
S315000051706FF09FE537D40C00B7F50C001306050059
S31500005180938585C613058407EF905A48B7F50C003A
S315000051901306F0FF938585C813058407EF901A4719
S315000051A09304F0FF6FF01FDE37D40C00B7F50C0048
S315000051B013060500938585C613058407EF901A45E7
S315000051C0B7F50C001306F0FF938585CC130584070D
S315000051D0EF90DA439304F0FF6FF0DFDA9304F0FF09
S315000051E06FF05FDA9304050013050400EF001072F8
S315000051F013850400EF200A0B630205126380051273
S31500005200630E0610130101FE2334910083B485005A
S315000052102330210193051000033986001B86040004
S3150000522023388100233C110013040500EFF01F8A88
S315000052306316050613D604429305200013050400E1
S31500005240EFF0DF88631C05061B0609009305300096
S3150000525013050400EFF09F876312050813560942F1
S315000052609305400013050400EFF05F8663180508F8
S31500005270130630009305000013050400EF001038F4
S315000052806312050A833081010334010183348100EE
S3150000529003390100130101026780000013060500AF
S315000052A0B7F50C0037D50C00938505E41305850783
S315000052B0EF90DA351305F0FF6FF0DFFC13060500FB
S315000052C0B7F50C0037D50C00938505E8130585075F
S315000052D0EF90DA331305F0FF6FF0DFFA13060500DF
S315000052E0B7F50C0037D50C00938585EC13058507BB
S315000052F0EF90DA311305F0FF6FF0DFF813060500C3
S31500005300B7F50C0037D50C00938585F01305850796
S31500005310EF90DA2F1305F0FF6FF0DFF61305F0FFBD
S315000053206780000037D40C00B7F50C0013060500A3
S31500005330938505FA13058407EF905A2DB7F50C00EF
S315000053401306F0FF938505F513058407EF901A2CD5
S315000053501305F0FF6FF01FF367800000130101FED5
S315000053602338810003348502233C11002334910045
S3150000537063020402033504039304040003340400A7
S3150000538063040500EF00905813850400EF001058E1
S31500005390E31204FE8330810103340101833481006A
S315000053A013010102678000006F0050566F0010560F
S315000053B0130101FFB7F70C002330810023341100DD
S315000053C09387872813040501638AF50203B58500D0
S315000053D0B7F50C00938705176302F502034705002E
S315000053E09307A0026306F70293850517EFB0CA7507
S315000053F0133515003305A0403374A40083308100B3
S315000054001305040003340100130101016780000045
S3150000541013040000833081001305040003340100E7
S31500005420130101016780000003B78502130101FE25
S315000054302338810023349100233C110023302101BD
S3150000544083B7050213840500930405006304071A55
S315000054502330F7026384070023B4E70283B704030B
S315000054602330040223340402638E071E033604032A
S31500005470930600006F00400103B7070193860700FB
S31500005480630607149307070003B70703E366C7FE1F
S315000054902338F400233CD4006394060E23B8840218
S315000054A023BC87000339840113850700630C0900B8
S315000054B00337890383370903B307F700638AC706EF
S315000054C0630C05000337840383370403833605031F
S315000054D0B307F7006388F61283B78402638C071656
S315000054E003368403930600006F00400103B70700EC
S315000054F093860700630A070A9307070003B7870323
