S01C00006770752D6576616C756174696F6E2D6C696768742E7372656312
S3150000000097210E00938181599702000093828215F1
S3150000001073905230732440F163100402970200007B
S315000000209382421573905230EF909A2197120000F6
S31500000030938242DCE780020013132400970200003B
S315000000409382420CB302530003A302000F00F00F89
S31500000050E31C03FE17DE1000130ECE789313440044
S31500000060B30E7E00138F8E0083BF0E0003310F0088
S31500000070970200009382021073905230732540F16C
S31500000080E7800F00130000001300000013000000BB
S31500000090130000001300000013000000130000000E
S315000000A013000000130000001300000013000000FE
S315000000B013000000130000001300000013000000EE
S315000000C013000000130000001300000013000000DE
S315000000D013000000130000001300000013000000CE
S315000000E013000000130000001300000013000000BE
S315000000F013000000130000001300000013000000AE
S3150000010073001000730010007300100073001000DD
S3150000011073001000730010007300100073001000CD
S3150000012073001000730010007300100073001000BD
S3150000013073001000730010007300100073001000AD
S3150000014013132500970300009383C3FBB3027300C8
S315000001500F00500F23A00200130500006780000067
S3150000016073001000130000001300000013000000CD
S3150000017073202034130101EF23301100233831009E
S31500000180233C41002330510223346102233871029B
S31500000190233C8102233091042334A1042338B10483
S315000001A0233CC1042330D1062334E1062338F1066B
S315000001B0233C01072330110923342109233831094F
S315000001C0233C41092330510B2334610B2338710B37
S315000001D0233C810B2330910D2334A10D2338B10D1F
S315000001E0233CC10D2330D10F2334E10F2338F10F07
S315000001F073250030F325103473262034233CA10EDA
S315000002002330B1102334C11063560600EF909A12C2
S315000002106F00C00093060100EF905A118330010071
S3150000022083310101033281018332010203338102EA
S3150000023083330103033481038334010403358104CA
S3150000024083350105033681058336010603378106AA
S31500000250833701070338810783380108033981088A
S3150000026083390109033A8109833A010A033B810A6A
S31500000270833B010B033C810B833C010C033D810C4A
S31500000280833D010D033E810D833E010E033F810F29
S31500000290833F011073100F3073901F34033F810E9C
S315000002A0833F010F1301011173002030000000008D
S315000002B00000000000000000000000000000000038
S315000002C00000000000000000000000000000000028
S315000002D00000000000000000000000000000000018
S315000002E00000000000000000000000000000000008
S315000002F000000000000000000000000000000000F8
S3150000030000000000000000000000000000000000E7
S3150000031000000000000000000000000000000000D7
S3150000032000000000000000000000000000000000C7
S3150000033000000000000000000000000000000000B7
S3150000034000000000000000000000000000000000A7
S31500000350130101FF1305800023341100EF20C93675
S31500000360B7A70D00938707CA37260900B7A50D0062
S315000003702330F5001306C67F938585BEEF60903A5D
S31500000380130101FF1305800023341100EF20C93348
S31500000390B7870D00938787B037060800B7850D002D
S315000003A02330F5001306C6CE938505AEEF60903771
S315000003B0130101FF1305800023341100EF20C9301B
S315000003C0B7870D00938787B637060800B7850D00F7
S315000003D02330F500130606D4938505B4EF609034F8
S315000003E0130101FF1305800023341100EF20C92DEE
S315000003F0B7870D00938787BC37060800B7850D00C1
S315000004002330F500130646D9938505BAEF6090317F
S31500000410130101FE233881001304050013050001B2
S31500000420233C110023349100EF20092A9305040090
S3150000043013040500EF70C94A37660900B7A50D0019
S31500000440130606219385851B13050400EF60902D86
S315000004509304050013050400EF20892C138504007E
S31500000460EF609A5A130101FE233881001304050038
S3150000047013050001233C110023349100EF20C92409
S315000004809305040013040500EF70C94A3766090096
S31500000490B7A50D001306066B9385851E130504008C
S315000004A0EF6050289304050013050400EF20492748
S315000004B013850400EF605A55130101FE23388100AD
S315000004C01304050013050001233C11002334910099
S315000004D0EF20891F9305040013040500EF70894B74
S315000004E037660900B7A50D001306066593858521B5
S315000004F013050400EF6010239304050013050400A0
S31500000500EF20092213850400EF601A50130101FE43
S31500000510233881001304050013050001233C110054
S3150000052023349100EF20491A9305040013040500B3
S31500000530EF70494C37660900B7A50D00130606593A
S315000005409385852413050400EF60D01D93040500F0
S3150000055013050400EF20C91C13850400EF60DA4A76
S31500000560130101FE23388100130405001305000161
S31500000570233C110023349100EF2009159305040054
S3150000058013040500EF70094D37660900B7A50D0085
S315000005901306065F9385852713050400EF60901800
S315000005A09304050013050400EF2089171385040042
S315000005B0EF609A45130101FE2338810013040500FC
S315000005C013050001233C110023349100EF20C90FCD
S315000005D09305040013040500EF70C94D3766090042
S315000005E0B7A50D00130606279385852A1305040073
S315000005F0EF6050139304050013050400EF20491221
S3150000060013850400EF605A40130101FE2338810070
S315000006101304050013050001233C11002334910047
S31500000620EF20890A9305040013040500EF70C94DF5
S3150000063037660900B7A50D00130606339385052D09
S3150000064013050400EF60100E930405001305040063
S31500000650EF20090D13850400EF601A3B130101FE1C
S31500000660233881001304050013050001233C110003
S3150000067023349100EF204905930504001304050077
S31500000680EF70894E37660900B7A50D0013060639C7
S315000006909385053013050400EF60D0089304050028
S315000006A013050400EF20C90713850400EF60DA354F
S315000006B0130101FE23388100130405001305000110
S315000006C0233C110023349100EF2009009305040018
S315000006D013040500EF70494F37660900B7A50D00F2
S315000006E01306062D9385053313050400EF6090036A
S315000006F09304050013050400EF2089021385040006
S31500000700EF609A30130101FF1305800023341100B6
S31500000710EF10997BB7870D00938787B637060800D9
S31500000720B7850D002330F500130606D4938505B46E
S31500000730EF60407F130101FF130580002334110091
S31500000740EF109978B7870D00938787BC37060800A6
S31500000750B7850D002330F500130646D9938505BAF3
S31500000760EF60407C130101FF130580002334110064
S31500000770EF109975B7B70D009387070F37B60900C5
S31500000780B7B50D002330F5001306868C9385850CCE
S31500000790EF604079130101FD233C910093040500AD
S315000007A0130500032334110223308102EF10D9719F
S315000007B013040500EF805901930710002320F10070
S315000007C08335010013060500938604001305040013
S315000007D0EF805962B7B70D00938707B3130504007E
S315000007E02330F400EF505922930505001305040247
S315000007F0EFA0492537960900B7B50D001306C618B0
S31500000800938505AA13050400EF60C071B7B70D0004
S3150000081093040500938787B0130504002330F40082
S31500000820EF9099216F0080009304050013050400E2
S31500000830EF10196F13850400EF601A1D130101FDF7
S315000008402338210113090500130500032330810213
S31500000850233C91002334110293840500EF10D966DE
S315000008601304050063880400EF905936130605004B
S315000008706F000001EF804975130605009304100010
S315000008802320910083350100930609001305040017
S31500000890EF805956B7B70D00938707B313050400C9
S315000008A02330F400EF505916930505001305040292
S315000008B0EFA0491937960900B7B50D001306C618FB
S315000008C0938505AA13050400EF60C065B7B70D0050
S315000008D093040500938787B0130504002330F400C2
S315000008E0EF9099156F00800093040500130504002E
S315000008F0EF10196313850400EF601A11130101FB51
S31500000900233821031309050013050002233081044F
S31500000910233C91022334110423343103EF10D95AB6
S3150000092093040500130609009385010013050100D1
S31500000930EF90191C9305010013850400930901012A
S31500000940EF90090C0335010063043501EF50407246
S31500000950B7B70D001384010037A60900B7B50D001F
S31500000960938707F413068623938585EC1385040085
S3150000097023B0F40023A8240123BC8400EF60805A2E
S315000009808337010013040500638A370113850700C6
S31500000990EF50006E6F0080001304050013850400FD
S315000009A0EF10195813050400EF601A06130101FF32
S315000009B02330810037B41000130504D0233411000E
S315000009C0EF70407D930504D003340100833081002D
S315000009D037850000138601FA1305051B1301010173
S315000009E06F90DA7C130101FF2330810037B41000C9
S315000009F0130584D123341100EF70C079930584D197
S31500000A00033401008330810037850000138601FA24
S31500000A101305051B130101016F905A79B7B7100032
S31500000A2003C707DC63160700130710002380E7DC03
S31500000A30B7B7100003C787DB63160700130710005C
S31500000A40238CE7DAB7B7100003C707DB6316070086
S31500000A50130710002388E7DAB7B7100003C787DA51
S31500000A6063160700130710002384E7DAB7B71000F0
S31500000A7003C707DA63160700130710002380E7DAB7
S31500000A80B7B7100003C787D963160700130710000E
S31500000A90238CE7D8B7B7100003C707D9631607003A
S31500000AA0130710002388E7D8B7B7100003C787D805
S31500000AB063160700130710002384E7D86780000039
S31500000AC0B7B7100003C707E4631607001307100043
S31500000AD02380E7E4B7B7100003C787E36316070070
S31500000AE013071000238CE7E2B7B7100003C707E32C
S31500000AF063160700130710002388E7E2B7B7100054
S31500000B0003C787E263160700130710002384E7E292
S31500000B10B7B7100003C707E26316070013071000F4
S31500000B202380E7E2B7B7100003C787E16316070023
S31500000B3013071000238CE7E0B7B7100003C707E1DF
S31500000B4063160700130710002388E7E0B7B7100005
S31500000B5003C787E063160700130710002384E7E046
S31500000B6067800000B7B7100003C787EE631607005B
S31500000B70130710002384E7EEB7B7100003C707EE8C
S31500000B8063160700130710002380E7EEB7B71000BF
S31500000B9003C787ED6316070013071000238CE7ECE5
S31500000BA0B7B7100003C707ED631607001307100059
S31500000BB02388E7ECB7B7100003C787EC6316070076
S31500000BC0130710002384E7ECB7B7100003C707EC40
S31500000BD063160700130710002380E7ECB7B7100071
S31500000BE003C787EB6316070013071000238CE7EA99
S31500000BF0B7B7100003C707EB63160700130710000B
S31500000C002388E7EAB7B7100003C787EA6316070029
S31500000C10130710002384E7EAB7B7100003C707EAF3
S31500000C2063160700130710002380E7EAB7B7100022
S31500000C3003C787E96316070013071000238CE7E84C
S31500000C40B7B7100003C707E96316070013071000BC
S31500000C502388E7E867800000B7B7100003C787FA64
S31500000C6063160700130710002384E7FAB7B71000CE
S31500000C7003C707FA63160700130710002380E7FA75
S31500000C80B7B7100003C787F96316070013071000EC
S31500000C90238CE7F8B7B7100003C707F963160700F8
S31500000CA0130710002388E7F8B7B7100003C787F8C3
S31500000CB063160700130710002384E7F8B7B7100080
S31500000CC003C707F863160700130710002380E7F829
S31500000CD0B7B7100003C787F763160700130710009E
S31500000CE0238CE7F6B7B7100003C707F763160700AC
S31500000CF0130710002388E7F6B7B7100003C787F677
S31500000D0063160700130710002384E7F6B7B7100031
S31500000D1003C707F663160700130710002380E7F6DC
S31500000D20B7B7100003C787F563160700130710004F
S31500000D30238CE7F4B7B7100003C707F5631607005F
S31500000D40130710002388E7F467800000130101FEF3
S31500000D5023349100B7140000233881009384041CC7
S31500000D6037D410001304847713850400233C110044
S31500000D70233C9400EFC05A792338A400630205028D
S31500000D802334A400233095002334050083308101E9
S31500000D9003340101833481001301010267800000DE
S31500000DA0233C0400233404006FF05FFE130101FFAF
S31500000DB02330810037A50900138601FA93850100C7
S31500000DC01305C52223341100EF905A3E138601FA0B
S31500000DD0033401008330810037A50900938581FF24
S31500000DE013058522130101016F905A3C0000000093
S31500000DF0EF801A451304010093020000639002027B
S31500000E0017A51000130505EF17D61000130606F4F4
S31500000E10B306A64093D53600EF809A4397A21000FA
S31500000E209382423E23B08200EF809A44EF805A417B
S31500000E30EF80DA70EF809A76EF80DA5C17A50A0009
S31500000E4013058579EF905A1CEFC01A0CEF805A3FB4
S31500000E5097A210009382022103A50200938201014A
S31500000E6083B5020013060000EF00400FEF90DA355D
S31500000E7073001000000000000000000037250E007F
S31500000E8037270E00930785D9130787D9630AF7001A
S31500000E909307000063860700130585D9678007005E
S31500000EA06780000037250E00930785D937270E0087
S31500000EB0930587D9B385F54093D7354093D5F50388
S31500000EC0B385F50093D51540638A050093070000A6
S31500000ED063860700130585D96780070067800000D1
S31500000EE0130101FF2330810037B4100083478420AB
S31500000EF02334110063920702EFF05FF8B7970A00F8
S31500000F009387475D6386070013858104EF808A6CAB
S31500000F10930710002304F42083308100033401007A
S31500000F201301010167800000B7970A009387473BCA
S31500000F3063840702B7B51000130101FF93850521ED
S31500000F401385810423341100EF80CA468330810063
S31500000F50130101016FF01FF56FF0DFF4130101F6C5
S31500000F60233C1108233881082334910823302109B2
S31500000F70233C310713050001EFC01A59130405007D
S31500000F8013050001EFC05A589304050093070000AB
S31500000F90930600013307F4002300F7009387170038
S31500000FA0E39AD7FE93870400138704012380070082
S31500000FB093871700E39CE7FE2334010623300106DE
S31500000FC0233C0104233801042334010437D50C00E3
S31500000FD0130505E3EFE00A1513058106EF40802DA2
S31500000FE037D50C00130505E5EFE0CA131306810398
S31500000FF09305100003358106EF20105813060104EF
S315000010009305200003358106EF20105713060103D0
S315000010109305300003358106EF2010568336810391
S31500001020033601048335010337D50C00130505E7A4
S31500001030EFD01A59B7F90D00938709D937190E0061
S315000010401309891E3309F9409305090037D50C00A9
S31500001050130585EAEFD0DA56930601051306090053
S31500001060938509D903358106EF00C02C930500024C
S3150000107037D50C00130505EDEFD09A5493060106FB
S31500001080130610009305000103358106EF20906ECC
S315000010909305810203350106EF3040729306810500
S315000010A0130620009305000103358106EF20906C9E
S315000010B09305010203358105EF30407037D50C00EA
S315000010C0130585EFEFE00A06930700012334F100CC
S315000010D0833781022338F10083370102233CF10074
S315000010E0930681041306800193058100033581066A
S315000010F0EF0000399305000137D50C00130505F103
S31500001100EFD01A4C93060001130600009305040065
S3150000111003350106EF30D02337D50C00130505F44F
S31500001120EFE04A00930600011306000093850400D1
S3150000113003358105EF30D02137D50C00130505F6B0
S31500001140EFD05A7E033681048335010503358106C7
S31500001150EF40006037D50C00130505F7EFD09A7CF9
S31500001160B7652605938505C003358106EF30C06A4D
S315000011709305000137D50C00130585F9EFD05A44C5
S3150000118093060001130600008335810513850400CC
S31500001190EF30503D9305000237D50C00130585FC52
S315000011A0EFD01A4203350106EF30004F03358105B3
S315000011B0EF30804E03350105EF30004E03358104D4
S315000011C0EF30804D37D50C00130505FFEFD09A752B
S315000011D003358106EF2090481306000093070000B0
S315000011E0130500019B8507003387F400834607003B
S315000011F06398C604938717001B0626001376F60F1E
S31500001200E392A7FE37D50C0013050505EFD09A71BA
S3150000121013050400EFC01A3013850400EFC09A2F9F
S3150000122013050000833081090334010983348108E2
S3150000123003390108833981071301010A6780000019
S3150000124037D50C0013050501EFD09A3737D50C00BA
S3150000125013050504EFD01A6D6FF09FFBB7B71000AA
S3150000126083B70705639A070037B71000B7E7100082
S31500001270938787D42338F704B7B7100083B787045A
S3150000128063980700B7B710003707001023B4E704C8
S3150000129067800000130101FE23388100233C110002
S315000012A02334910037B41000834704CF0F00F00FAA
S315000012B093F7F70F63800702B7B4100083308101FC
S315000012C00334010103A584CF833481001301010295
S315000012D067800000130504CFEF505051B7B41000DB
S315000012E0E30E05FC37D50C001305050623AC04CE2A
S315000012F0EFC00A2D63060500EF904A5223ACA4CE38
S31500001300130504CFEF50D05437450000938584CFA2
S31500001310138601FA130505CDEF904A6983308101E2
S315000013200334010103A584CF833481001301010234
S3150000133067800000130101FC233C1102233881025F
S315000013402334910223302103233C31012338410108
S3150000135063040512938405006380051293078000D9
S315000013601309060063FAC710138A0600638606107F
S3150000137083B5050083B98400130781009306000036
S31500001380B389B94013860900EF20107C13040500C9
S315000013906314050403358100130909FF9306100041
S315000013A01306090093050000EF309045130405006D
S315000013B063020506B7D50C00130605009385050ED6
S315000013C037D50C001305850BEFD09A1F0335810026
S315000013D0EF30802C6F00C00113060500B7D50C0056
S315000013E037D50C00938585071305850BEFD05A1D5D
S315000013F0833081031305040003340103833481021F
S315000014000339010283398101033A01011301010401
S31500001410678000000335810093063000338629413A
S3150000142093050900EF30D03D13040500631605024D
S315000014300335810093060900130600009385040115
S31500001440EF30007113040500631005028337810035
S315000014502330FA006FF0DFF9B7D50C00130605004C
S31500001460938585116FF0DFF5B7D50C0013060500DF
S31500001470938585166FF0DFF41304F0FF6FF05FF7C6
S31500001480130101FC233C110223388102233491020B
S3150000149023302103233C31016308050E138905001F
S315000014A06384050E930406006300060E9389060006
S315000014B0638C060C930681001306100093850400C6
S315000014C0EF20502B13040500631405040335810037
S315000014D0938604001306000093050900EF30406769
S315000014E013040500631205068337810083308103E8
S315000014F0130504000334010323B0F9008334810289
S315000015000339010283398101130101046780000058
S3150000151013060500B7D50C0037D50C009385851941
S315000015201305850BEFD0DA09833081031305040018
S3150000153003340103833481020339010283398101B3
S31500001540130101046780000013060500B7D50C00DF
S3150000155037D50C009385051D1305850BEFD05A066C
S3150000156003358100EF3040138330810313050400F7
S315000015700334010383348102033901028339810173
S3150000158013010104678000001304F0FF6FF0DFF918
S31500001590130101DE233C311F130601169389050052
S315000015A09305300023349120233C112023388120D9
S315000015B0233021212338411F2334511F2330611F3B
S315000015C0233C711D2338811D2334911D2330A11D19
S315000015D0233CB11B93040500233C01102330011268
S315000015E02334011223380112233C01122330011443
S315000015F02334011423380114233C0114EF20C0774F
S31500001600630005061309050013060500B7D50C008F
S3150000161037D50C00938505201305850BEFD04A7A44
S315000016208330812103340121833481208339811F52
S31500001630033A011F833A811E033B011E833B811D32
S31500001640033C011D833C811C033D011C833D811B22
S3150000165013050900033901201301012267800000E8
S31500001660130681169305700013850400EF20C070E1
S31500001670130905006300050213060500B7D50C0023
S3150000168037D50C00938585231305850BEFD04A7358
S315000016906FF01FF9033781169307100013950702A1
S315000016A0939517021396270293963702939747024C
S315000016B03375A700B375B7003376C700B376D70086
S315000016C0B377F700233CA1082330B10A2334C10ABB
S315000016D02330D10E2338F108EFF0DFBB833B011630
S315000016E023380100130A050063940B006F10501194
S315000016F013040000233C010C2338010C2334010C95
S315000017002330010C2338010A233C010A2330010847
S315000017102338010623340108233C0106233401063D
S3150000172023380102233C010223300104233C010437
S315000017302338010423300106233401042334010233
S3150000174023300102233C0100930D0000930A0000A0
S31500001750233C210F371900009306011713060400D6
S31500001760930509B013850400EF30100A63040500E1
S315000017706F10C0379306811713060400930529B02E
S3150000178013850400EF305008630405006F104038DD
S31500001790930710006306FA66930720006310FA1495
S315000017A083370109638407006F0050678337810917
S315000017B0638407006F0050758337010A638407004E
S315000017C06F1080088337810AE3900754631804106A
S315000017D08337010E6388070A3719000093068111C3
S315000017E013060000930529B113850400EF30D001DC
S315000017F0630405006F1050389306011213060000AB
S31500001800930539B113850400EF3010006304050019
S315000018106F1050349306811213060000930549B1E8
S3150000182013850400EF30407E630405006F10D03D41
S315000018309306011313060000930559B1138504009E
S31500001840EF30807C630405006F10D0399306811356
S3150000185013060000930569B113850400EF30C07AC2
S31500001860630405006F10D0359306011413060000BB
S31500001870930579B113850400EF3000796304050000
S315000018806F10D0313719000093068114130600003B
S31500001890930589B113850400EF30007763040500D2
S315000018A06F10407E9306011513060000930599B14B
S315000018B013850400EF304075630405006F10407A0D
S315000018C093068115130600009305A9B1138504003C
S315000018D0EF308073630405006F10001F833B011611
S315000018E003390117033B811713050000630409023E
S315000018F013050B00EF008A64130C0500130509009D
S31500001900EF00CA639305050013050C00EFF0496765
S31500001910EF204A5C9307100063FA7703EF204A2E04
S31500001920B7E50C00930705001307090093060B00A3
S31500001930130604009385853813850900EFA00A0273
S31500001940833B0116033B81170339011783370101D6
S31500001950B38A6A01B38D2D0163F42701233821016F
S315000019601B0414009317040293D70702E3E477DFFE
S315000019700339810F930710006314FA006F10801B60
S31500001980930720006310FA428337810A638A071E91
S315000019900337010B8337810B930C0000335D77030C
S315000019A00337010C335477030337810CB3547703A1
S315000019B00337010D335A77030337810DB3DD770300
S315000019C0335B770363E4770513050400EF000A57DA
S315000019D0130C050013850D00EF004A56930505000C
S315000019E013050C00EFF0C959B7270E009305050043
S315000019F003B507DAEFF05974B7270E0083B587D918
S31500001A00EFF05938EF00CA449B0C05008337010BF1
S31500001A10130C000063E4770513850400EF000A52F7
S31500001A20930B050013050D00EF004A5193050500C1
S31500001A3013850B00EFF0C954B7270E009305050078
S31500001A4003B507DAEFF0596FB7270E0083B587D9CC
S31500001A50EFF05933EF00CA3F1B0C05003385AD018B
S31500001A60B3074501233CF100930B0000638C07028A
S31500001A70EF00CA4C83378101930B050013850700DD
S31500001A80EF00CA4B9305050013850B00EFF0494F95
S31500001A90B7270E0083B587D9EFF0D92EEF004A3B62
S31500001AA09B0B05003305940033076501233CE100D9
S31500001AB093070000630E0702EF004A4803378101CF
S31500001AC02330A10213050700EF004A4783370102BE
S31500001AD09305050013850700EFF0894AB7270E0026
S31500001AE083B587D9EFF0192AEF008A369B070500E0
S31500001AF0B7E50C009385055413860D001385090080
S31500001B00233CF100EF909A65B7E50C0013060D0033
S31500001B109385055613850900EF905A64B7E50C00C6
S31500001B2093860C0013060400938505581385090057
S31500001B30EF90DA62B7E50C0093060C0013860400FA
S31500001B409385055B13850900EF905A61B7E50C0094
S31500001B5093860B0013060A009385855E138509009C
S31500001B60EF90DA5F83378101B7E50C0013060B00AF
S31500001B70938607009385056213850900EF901A5E28
S31500001B808337010E638E071A033A8111833481125B
S31500001B90930B000063040A0413850400EF000A3A5D
S31500001BA01304050013050A00EF004A3993050500E2
S31500001BB013050400EFF0C93CB7270E009305050096
S31500001BC003B507DAEFF05957B7270E0083B587D963
S31500001BD0EFF0591BEF00CA279B0B050003340112D7
S31500001BE0833C0113130B00006304040413850C00EB
S31500001BF0EF00CA34130B050013050400EF000A3486
S31500001C009305050013050B00EFF08937B7270E0083
S31500001C109305050003B507DAEFF01952B7270E0052
S31500001C2083B587D9EFF01916EF008A221B0B050042
S31500001C3033058A0003348113130C00003304850036
S31500001C40630A0402EF008A2F130C05001305040033
S31500001C50EF00CA2E9305050013050C00EFF049327C
S31500001C60B7270E0083B587D9EFF0D911EF004A1ECA
S31500001C701B0C050003340114338594019304000002
S31500001C8033048500630A0402EF004A2B930405001F
S31500001C9013050400EF008A2A930505001385040046
S31500001CA0EFF0092EB7270E0083B587D9EFF0990D0F
S31500001CB0EF000A1A9B040500B7E50C0013060A009C
S31500001CC09385856513850900EF905A4903360112FD
S31500001CD0B7E50C009385856713850900EF901A48D0
S31500001CE003368112B7E50C0093860B009385856950
S31500001CF013850900EF909A4603360113B7E50C00E9
S31500001D0093060B009385856C13850900EF901A45A1
S31500001D1003368113B7E50C0093060C009385057016
S31500001D2013850900EF909A4303360114B7E50C00BA
S31500001D30938604009385857313850900EF901A42F4
S31500001D40833481140335811513040000638404026F
S31500001D50EF00CA1E1304050013850400EF000A1ED7
S31500001D609305050013050400EFF08921EF004A0EE4
S31500001D701B04050003370115B7E50C0093850577AD
S31500001D803386E4009386040013850900EF901A3D1C
S31500001D90B7E50C00130604009385857A13850900C0
S31500001DA0EF90DA3B833401011307000063880402D5
S31500001DB013850A00EF008A18130405001385040032
S31500001DC0EF00CA179305050013050400EFF0491B41
S31500001DD0EF204A10EF10DA6213070500833601017F
S31500001DE0B7E50C0013860A009385857C13850900E8
S31500001DF0EF90DA3613850900EF904A2E6FF05F8276
S31500001E009306811A13060400930539B0138504005E
S31500001E10EF30801F13070500630405006F104000B4
S31500001E20833701160339811A637EFA04033B0117CF
S31500001E30630C0B0213050900EF004A10930B050013
S31500001E4013050B00EF008A0F9305050013850B00A1
S31500001E50EFF00913B7270E0083B587D9EFF0897223
S31500001E60EFF0197F1B070500B7D50C009306090094
S31500001E70130604009385853413850900EF901A2E06
S31500001E800339811AB71500009306811A1306040058
S31500001E90938545B013850400EF3000178337810121
S31500001EA013070500B3872701233CF10063040500EF
S31500001EB06F00907983360116930710000339811A53
S31500001EC063FED704033B0117630C0B0213050900DD
S31500001ED0EF00CA06930B050013050B00EF000A0678
S31500001EE09305050013850B00EFF08909B7270E004F
S31500001EF083B587D9EFF00969EFF099751B070500DF
S31500001F00B7D50C0093060900130604009385853C9B
S31500001F1013850900EF909A240339811AB71500003A
S31500001F209306811A13060400938555B013850400A1
S31500001F30EF30800D8337010213070500B3872701B1
S31500001F402330F102630405006F00507183360116D9
S31500001F5093071000033B811A63FED7040339011768
S31500001F60630C090213050B00EFF0597D930B050076
S31500001F7013050900EFF0997C9305050013850B0006
S31500001F80EFF00900B7270E0083B587D9EFF0895F18
S31500001F90EFF0196C1B070500B7D50C0093060B0074
S31500001FA0130604009385854413850900EF901A1BD8
S31500001FB0033B811A37190000930601181306040023
S31500001FC0930569B013850400EF300004833781025E
S31500001FD0B38767012334F102630405006F0050697B
S31500001FE09306811813060400930589B0138504002F
S31500001FF0EF308001630405006F00D0699306011974
S3150000200013060400930599B013850400EF20D07FD2
S31500002010630405006F00506A9306811913060400D5
S315000020209305A9B013850400EF20107E6304050014
S315000020306F00D06A9306011A130604009305C9B00F
S3150000204013850400EF20507C630405006F00506B7D
S315000020509306811A130604009305D9B0138504006C
S31500002060EF20907A930B0500630405006F00906BD8
S31500002070833501058337811883360119033D81199C
S31500002080B385F5002338B10483358105833C011AF5
S31500002090033C811AB385D500233CB1048335010482
S315000020A00336011613071000B385A5012330B104CA
S315000020B083358103033B0118B3859501233CB102A7
S315000020C083350103B38585012338B102637EC716C4
S315000020D0033601173389D7003309A901330999015A
S315000020E02334C10E3309890113070000630806046F
S315000020F013050B002334D1102330F110EFF01964CF
S315000021000336810E2338A10E13050600EFF019637E
S315000021100337010F9305050013050700EFE0596625
S31500002120B7270E0083B587D9EFF0C945EFF05952AE
S3150000213083368110833701101B0705002338D10E23
S315000021402334F10E6302094C130509002330E11014
S31500002150EFF0D95E8337810E13090500B72B0E0009
S3150000216013850700EFF0995D93050900EFE05961CB
S3150000217083B58BD9EFF00941EFF0994D8336010F06
S315000021809B0705002334F10E13850600EFF0195B5B
S3150000219093050900EFE0D95E83B58BD9EFF0893E50
S315000021A0EFF0194B1308050013050D001B0D080071
S315000021B0EFF0D95893050900EFE0995C83B58BD908
S315000021C0EFF0493CEFF0D9489308050013850C0061
S315000021D09B8C0800EFF0995693050900EFE0595AD9
S315000021E083B58BD9EFF0093AEFF099469B0B0500C2
S315000021F013050C00EFF0995493050900EFE05958C8
S31500002200B7270E0083B587D9EFF0C937EFF05944E9
S315000022108337810E033701101B050500B7D50C0067
S3150000222093060B002334A1002330710193880C0020
S3150000223013080D0013060400938505641385090031
S31500002240EF90CA71033B0118B71500009306811A77
S3150000225013060400938575B013850400EF20D05A49
S315000022608337810413070500B38767012334F1041C
S31500002270E31A054C83360116930710000339811AB9
S3150000228063FED704033B0117630C0B021305090019
S31500002290EFF0D94A930B050013050B00EFF0194A2E
S315000022A09305050013850B00EFE0994DB7270E0047
S315000022B083B587D9EFF0092DEFF099391B07050093
S315000022C0B7D50C0093060900130604009385856FA5
S315000022D013850900EF908A680339811AB715000043
S315000022E09306011A130604009385E5B013850400CE
S315000022F0EF20905183370106B38727012330F1067B
S31500002300E31C054483360116130710008337011AB0
S315000023106366D71803378106B71500009306811A3E
S31500002320B307F70013060400938515B1138504005F
S315000023302334F106EF20504D93060500E3100544C3
S3150000234003360116130710008337811A6376C70414
S315000023500339011A6306090213850700EFF0193ED7
S31500002360130B050013050900EFF0593D9305050011
S3150000237013050B00EFE0D940EFF0992D9B06050001
S31500002380B7D50C00130604009385057E1385090056
S31500002390EF90CA5C8337811A03370107B71500002F
S315000023A09306011AB307F700130604009385F5B0E8
S315000023B0138504002338F106EF201045E314053E8B
S315000023C083360116130710008337011A6368D70E88
S315000023D003378107B71500009306811AB307F70084
S315000023E013060400938525B113850400233CF106EA
S315000023F0EF20904193060500E318053C03360116CD
S31500002400130710008337811A6376C7040339011A4C
S315000024106306090213850700EFF05932130B050016
S3150000242013050900EFF099319305050013050B001C
S31500002430EFE01935EFF0D9219B060500B7E50C0052
S31500002440130604009385858B13850900EF900A51C6
S315000024508337811A03370108B71500009306811ADE
S31500002460B307F70013060400938505B1138504002E
S315000024702330F108EF205039E3120536833B01166D
S31500002480930710008336811A63EA7705833781083C
S31500002490B387D7002334F1086FF08FC4B7D50C008B
S315000024A093860700130604009385057713850900B4
S315000024B0EF90CA4A8337011A6FF0DFE5B7E50C00E3
S315000024C09386070013060400938505851385090086
S315000024D0EF90CA488337011A6FF09FEFB7E50C00FB
S315000024E0130604009385859213850900EF900A4729
S315000024F0833781088336811A833B0116B387D70059
S315000025002334F1086FF0CFBD371900009306811A06
S31500002510130604009305C9B013850400EF20D02EDE
S31500002520E318054C0337810B8337811A9306811A0A
S3150000253013060400B307F7009305D9B0138504000A
S31500002540233CF10AEF20502CE316054C0337010B10
S315000025508337811A9306811A13060400B307F7001E
S315000025609305E9B0138504002338F10AEF20D0293A
S31500002570E31A05540337010C8337811A9306811A2F
S3150000258013060400B307F7009305F9B0138504009A
S315000025902330F10CEF205027E31A05560337810C40
S315000025A08337811A9306811A13060400B307F700CE
S315000025B0930509B1138504002334F10CEF20D024D0
S315000025C0E31405520337010D8337811A9306811AE6
S315000025D013060400B307F700930519B11385040029
S315000025E02338F10CEF205022E31405540337810DF4
S315000025F08337811AB307F700233CF10C63140400F8
S315000026006FF00F9D6FF08FAD13050000930700006C
S31500002610930C0000130D00006FF05FC09306811944
S31500002620130604009305B9B113850400EF20D01DED
S31500002630E314052A9306011A130604009305C9B18B
S3150000264013850400EF20501CE31A052A9306811A0D
S31500002650130604009305D9B113850400EF20D01AA0
S31500002660130B0500E310052E833B81190335011A70
S315000026700339811A3385AB0033092501630A090240
S31500002680EFF0D90B130B050013050900EFF0190B3A
S315000026909305050013050B00EFE0990EB7270E0012
S315000026A083B587D9EFE0196EEFF0897A1B0B050029
S315000026B0B7E50C0093860B0013060400938585A2EC
S315000026C013850900EF908A298336011AB7E50C00B5
S315000026D013060400938585A413850900EF900A2844
S315000026E08336811AB7E50C0013070B0013060400A6
S315000026F0938585A613850900EF904A2683378109BD
S31500002700639407006FF04F8B371900009306811909
S3150000271013060400930539B013850400EF20D00E8C
S31500002720E31005209306011A13060400930549B029
S3150000273013850400EF20500DE31A05289306811A2D
S3150000274013060400930559B013850400EF20D00B3F
S31500002750930B0500E31C0524033C8119833C011AF5
S315000027601309000063040C0413850C00EFF0097DC7
S315000027701309050013050C00EFF0497C93050500CD
S3150000278013050900EFE0C97FB7270E009305050082
S3150000279003B507DAEFF0491AB7270E0083B587D9D4
S315000027A0EFE0595EEFF0C96A1B090500033B811A89
S315000027B0338B6C01630C0B0213850C00EFF0097868
S315000027C0930B050013050B00EFF049779305050001
S315000027D013850B00EFE0C97AB7270E0083B587D9BA
S315000027E0EFE0595AEFF0C9669B0B0500B7E50C0000
S315000027F093060C0013060400938585B8138509001B
S31500002800EF90CA158336011AB7E50C0013070900C5
S3150000281013060400938585BA13850900EF900A1400
S315000028208336811AB7E50C0013870B0013060400E4
S31500002830938505BE13850900EF904A128337010A76
S31500002840639407006FE01FF837190000930601181C
S3150000285013060400930569B013850400EF20C07ABF
S31500002860E31405129306811813060400930579B044
S3150000287013850400EF204079E316050E930601192F
S3150000288013060400930589B013850400EF20C07772
S31500002890E316051C9306811913060400930599B0E7
S315000028A013850400EF204076E31805189306011AF5
S315000028B0130604009305A9B013850400EF20C07425
S315000028C0E310051E9306811A130604009305B9B09A
S315000028D013850400EF204073130B0500E312051A5D
S315000028E0833B011803390119130D000063840B049F
S315000028F013050900EFF08964130C050013850B001E
S31500002900EFF0C9639305050013050C00EFE0496776
S31500002910B7270E009305050003B507DAEFF0C901E6
S31500002920B7270E0083B587D9EFE0D945EFF04952B6
S315000029301B0D0500033C811803378119930C000019
S3150000294063080C04130507002334E10EEFF0095F5A
S31500002950930C050013050C00EFF0495E9305050086
S3150000296013850C00EFE0C961B7270E00930505003B
S3150000297003B507DAEFE0597CB7270E0083B587D990
S31500002980EFE05940EFF0C94C0337810E9B0C050070
S315000029908337011A33858B01130C0000B307F5004A
S315000029A02334F10E638007042338E10EEFF0095952
S315000029B08337810E130C050013850700EFF00958C5
S315000029C09305050013050C00EFE0895BB7270E00A1
S315000029D083B587D9EFE0193BEFF089470337010F3D
S315000029E01B0C05003305E9000339811A330925015B
S315000029F0630A0902EFF08954130B05001305090059
S31500002A00EFF0C9539305050013050B00EFE0495796
S31500002A10B7270E0083B587D9EFE0D936EFF04943E3
S31500002A201B0B0500B7E50C0093860B00130604008C
S31500002A30938585DF13850900EF805A7283368118E6
S31500002A40B7E50C0013060400938585E1138509009C
S31500002A50EF80DA7083360119B7E50C0013070D0015
S31500002A6013060400938505E413850900EF801A6FA9
S31500002A7083368119B7E50C0013870C001306040092
S31500002A80938585E713850900EF805A6D8336011A11
S31500002A90B7E50C0013070C0013060400938505EB3D
S31500002AA013850900EF809A6B8336811AB7E50C000F
S31500002AB013070B0013060400938505EF1385090021
S31500002AC0EF80DA696FE01FD0130B050013060500CF
S31500002AD0B7E50C0037D50C00938585341305850BB7
S31500002AE0EFC00A2E13090B006FE09FB3930B05008E
S31500002AF013060500B7D50C0037D50C0093850527BE
S31500002B001305850BEFC0CA2B13890B006FE05FB16D
S31500002B10930B050013060500B7D50C0037D50C003E
S31500002B209385052B1305850BEFC08A2913890B00A6
S31500002B306FE01FAF638A0D5613850D00EFF0094055
S31500002B401304050003358101B7240E00EFF0093F99
S31500002B5093050400EFE0C94283B584D9EFE09922DA
S31500002B60EFF0092F9B0C050003350102EFF0093D3C
S31500002B7093050400EFE0C94083B584D9EFE09920BE
S31500002B80EFF0092D1B0C050003358102EFF0093B20
S31500002B9093050400EFE0C93E83B584D9EFE0991EA2
S31500002BA0EFF0092B9B0B050003358104EFF0093983
S31500002BB093050400EFE0C93C83B584D9EFE0991C86
S31500002BC0EFF009291B0B050003350106EFF0093765
S31500002BD093050400EFE0C93A83B584D9EFE0991A6A
S31500002BE0EFF009271B0A0500033D81069304000048
S31500002BF063060D0203350107EFF04934130405009F
S31500002C0013050D00EFF08933930505001305040045
S31500002C10EFE00937EFF0C9239B040500033D810768
S31500002C201304000063060D0203350108EFF00931B5
S31500002C301304050013050D00EFF049309305050058
S31500002C4013050400EFE0C933EFF089201B040500EB
S31500002C500337810383370103033D0105833D810566
S31500002C6003380104B387E70003368101B387A70160
S31500002C70B7E50C00B387B70193860C009385853BB7
S31500002C8013850900B38C0701EF805A4D0336010204
S31500002C90B7E50C0093060C009385053E13850900E5
S31500002CA0EF80DA4B03368102B7E50C0093860B0002
S31500002CB09385854013850900EF805A4A63820C404C
S31500002CC013850C00EFF08927930B050013050D0003
S31500002CD0EFF0C92693850B00372C0E00EFE0492A4A
S31500002CE083358CD9EFE0190AEFF089169B0C0500A5
S31500002CF013850D00EFF0892493850B00EFE049283A
S31500002D0083358CD9EFE01908EFF089141B0D050007
S31500002D1003350104EFF0892293850B00EFE0492685
S31500002D2083358CD9EFE01906EFF089129B0D05006B
S31500002D3003358103EFF0892093850B00EFE04924EA
S31500002D4083358CD9EFE01904EFF089109B08050054
S31500002D5003350103233C1101EFF0491E93850B0057
S31500002D60EFE0092283358CD9EFE0D901EFF0490E67
S31500002D70833881019B06050003368104B7E50C0004
S31500002D8013880D0093070D0013870C002330D10024
S31500002D909385054393060B0013850900EF801A3CC3
S31500002DA003360106B7E50C0093060A00938505492C
S31500002DB013850900EF809A3A03368106B7E50C00C1
S31500002DC09385854B13850900EF805A3903368107B1
S31500002DD0B7E50C009385054D13850900EF801A3879
S31500002DE003368108B7E50C009385854E13850900E7
S31500002DF0EF80DA36B7E50C0013860400938505509C
S31500002E0013850900EF809A35B7E50C001306040018
S31500002E109385055213850900EF805A346FE09FF8B9
S31500002E20B7D50C00130605002338A1009385852F1E
S31500002E3037D50C001305850BEFB09A7803370101DF
S31500002E40130907006FE0CFFDB7D50C001306050088
S31500002E502338A100938585376FF09FFDB7D50C0009
S31500002E60130605002338A1009385853F6FF05FFCAC
S31500002E70930B050013060500B7D50C0037D50C00DB
S31500002E80938585471305850BEFB09A7313890B005D
S31500002E906FE00FF9930B050013060500B7D50C007C
S31500002EA037D50C009385854C1305850BEFB05A7109
S31500002EB013890B006FE0CFF6930B05001306050090
S31500002EC0B7D50C0037D50C00938505511305850B36
S31500002ED0EFB01A6F13890B006FE08FF4930B0500A8
S31500002EE013060500B7D50C0037D50C00938585551C
S31500002EF01305850BEFB0DA6C13890B006FE04FF208
S31500002F00930B050013060500B7D50C0037D50C004A
S31500002F109385055A1305850BEFB09A6A13890B0042
S31500002F206FE00FF013060500B7D50C0037D50C007F
S31500002F309385055F1305850BEFB09A6813890B001F
S31500002F406FE00FEEB7D50C00130605002338A1007D
S31500002F509385856A6FF0DFED130B050013060500F8
S31500002F60B7D50C0037D50C00938585721305850BF4
S31500002F70EFB01A6513090B006FE08FEAB7D50C00A6
S31500002F80130605002338A1009385057937D50C0073
S31500002F901305850BEFB0DA6283360101138906004B
S31500002FA06FE00FE8130B050013060500B7E50C00EC
S31500002FB037D50C00938585801305850BEFB05A60D5
S31500002FC013090B006FE0CFE5B7E50C00130605000B
S31500002FD02338A100938505876FF05FFB130B05006F
S31500002FE013060500B7E50C0037D50C009385058E52
S31500002FF01305850BEFB0DA5C13090B006FE04FE2A7
S31500003000233C010C2338010C2334010C2330010C22
S315000030102338010A233C010A23300108233801061C
S3150000302023340108233C0106233401062338010218
S31500003030233C010223300104233C0104233801040C
S315000030402330010623340104233401022330010214
S31500003050233C0100930D0000930A00006FE09F914E
S31500003060930B050013060500B7E50C0037D50C00D9
S31500003070938505301305850BEFB09A5413890B0021
S315000030806FE00FDA930B050013060500B7E50C0099
S3150000309037D50C009385852B1305850BEFB05A5257
S315000030A013890B006FE0CFD7130A0000930C0000C2
S315000030B0130C0000930B0000130B00006FF0DFB23F
S315000030C093060000930C0000130D0000930D000002
S315000030D0930800006FF05FCA930B05001306050006
S315000030E0B7E50C0037D50C00938585941305850B41
S315000030F0EFB01A4D13890B006FE08FD2930B0500CA
S3150000310013060500B7E50C0037D50C009385059925
S315000031101305850BEFB0DA4A13890B006FE04FD029
S31500003120930B050013060500B7E50C0037D50C0018
S31500003130938505AA1305850BEFB09A4813890B00F2
S315000031406FE00FCE13060500B7E50C0037D50C006F
S315000031509385859D1305850BEFB09A4613090B00E1
S315000031606FE00FCC930B050013060500B7E50C00C6
S3150000317037D50C00938585C61305850BEFB05A44E9
S3150000318013890B006FE0CFC9930B050013060500EA
S31500003190B7E50C0037D50C00938505C21305850BE2
S315000031A0EFB01A4213890B006FE08FC713060500B4
S315000031B0B7E50C0037D50C00938585B31305850B51
S315000031C0EFB01A4013890B006FE08FC5930B050013
S315000031D013060500B7E50C0037D50C00938585AEC0
S315000031E01305850BEFB0DA3D13890B006FE04FC373
S315000031F0930B050013060500B7E50C0037D50C0048
S31500003200938505F31305850BEFB09A3B13890B00E5
S315000032106FE00FC1930B050013060500B7E50C0020
S3150000322037D50C00938505F71305850BEFB05A3992
S3150000323013890B006FE0CFBE930B05001306050044
S31500003240B7E50C0037D50C00938585D01305850BA3
S31500003250EFB01A3713890B006FE08FBC930B050094
S3150000326013060500B7E50C0037D50C00938585CB12
S315000032701305850BEFB0DA3413890B006FE04FBAF4
S3150000328013060500B7E50C0037D50C00938585DAE3
S315000032901305850BEFB0DA3213090B006FE04FB858
S315000032A0930B050013060500B7E50C0037D50C0097
S315000032B0938585D51305850BEFB09A3013890B00DE
S315000032C06FE00FB6930B050013060500B7E50C007B
S315000032D037D50C00938505FB1305850BEFB05A2EE9
S315000032E013890B006FE0CFB3930B0500130605009F
S315000032F0B7E50C0037D50C00938505031305850B40
S31500003300EFB01A2C13890B006FE08FB1930B0500F9
S3150000331013060500B7E50C0037D50C00938505FFAD
S315000033201305850BEFB0DA2913890B006FE04FAF59
S31500003330130B050013060500B7E50C0037D50C0086
S31500003340938585071305850BEFB09A2713090B00A4
S315000033506FE00FAD930B050013060500B7E50C00F3
S3150000336037D50C00938505111305850BEFB05A254B
S3150000337013890B006FE0CFAA930B05001306050017
S31500003380B7E50C0037D50C009385050C1305850BA6
S31500003390EFB01A2313890B006FE08FA8130B0500FB
S315000033A013060500B7E50C0037D50C0093850526F6
S315000033B01305850BEFB0DA2013090B006FE04FA65B
S315000033C0930B050013060500B7E50C0037D50C0076
S315000033D0938585201305850BEFB09A1E13890B0084
S315000033E06FE00FA4930B050013060500B7E50C006C
S315000033F037D50C009385051B1305850BEFB05A1CBA
S3150000340013890B006FE0CFA1930B0500130605008F
S31500003410B7E50C0037D50C00938505161305850B0B
S31500003420EFB01A1A13890B006FE08F9F130101FA90
S3150000343023349104233C3103938405009309060049
S31500003440930520001306810023302105233C110437
S31500003450233881042338410323345103130905001B
S31500003460EF0090116304050413040500130605001C
S31500003470B7E50C0037D50C009385057F1305850B42
S31500003480EFB01A14833081051305040003340105D7
S31500003490833481040339010483398103033A010328
S315000034A0833A8102130101066780000013060101B9
S315000034B09305100013050900EF00100C1304050016
S315000034C063100506033A8100833A01013B065A035D
S315000034D063649608E38809FA130681019305600080
S315000034E013050900EF0050091304050063180504CD
S315000034F0939704021387FAFF93D70702B307F700DF
S31500003500B3D757039B870700335AFA0283378101E3
S315000035101B0A0A0033DA470323A049016FF09FF61E
S3150000352013060500B7F50C0037D50C009385058307
S315000035301305850BEFB0DA086FF0DFF4130605000C
S31500003540B7F50C0037D50C009385058C1305850B54
S31500003550EFB01A076FF01FF337F50C0093850400E0
S3150000356013050587EFB0DA051304F0FF6FF09FF13E
S31500003570130101DB2334112423308124233C9122BF
S31500003580233821232334312323304123233C512163
S315000035902338612123347121233081216302052ED2
S315000035A093840500638E052C130B0600630A062C14
S315000035B0930A05001305810FEF40944AB7470D00A3
S315000035C09387073A03B48700231C011C83BB0701BA
S315000035D0833784FE37590D001309094E130701205E
S315000035E0B307F700233C210F2338011C2330011EAB
S315000035F02334011E2338011E233C011E233C810077
S3150000360023BC77E123300102033584FE9307810151
S31500003610930500003385A700EF400423374A0D00C9
S31500003620B7490D00130A8A3D9389094013058102A3
S31500003630233C4101233C310FEFA0931193058102F6
S315000036401305810FEF404420130680009385040084
S3150000365013058102EFB043488337810113078101C7
S3150000366083B787FEB307F7006306051C93050000C2
S3150000367013850700EF3054268327811193F75700EF
S31500003680639C0712130620009305000013058101B1
S31500003690EF80C44313058101EF80C41E2334A100CB
S315000036A02338B100930405006340051E630E051818
S315000036B0EF3090201386040093050000130C0500DC
S315000036C0EFB04A541306000093050000130581016C
S315000036D0EF80C43F1386040093050C001305810197
S315000036E0EF70543C93060B001386040093050C0000
S315000036F013850A00EFD0DFD8930405006310050A8E
S3150000370063060C0013050C00EF209016B7470D005A
S315000037109387072E13058102233C4101233C310F79
S315000037202334F102EFB0830C13050107EF30D06BA1
S31500003730B7770D00938787B1130501062334F1028D
S31500003740EF50404A833784FE13070120233C810053
S31500003750B307F70023BC77E11305810F233001027D
S31500003760233C210FEF40145C833081240334012471
S315000037700339012383398122033A0122833A8121C5
S31500003780033B0121833B8120033C01201385040078
S315000037908334812313010125678000001306050089
S315000037A0B7F50C0037D50C00938505951305850BE9
S315000037B0EFB00A616FF0DFF4B7CA1000B7F50C007E
S315000037C0130670009385059013858AC4EFF045248F
S315000037D013850400EFE01A791306050093850400AB
S315000037E013858AC4EFF0C522B7F50C001306A000B6
S315000037F09385859013858AC4EFF0852113878AC443
S315000038008337070083B787FEB387E70083B4070FC4
S315000038106382040883C78403638C070283C5340468
S3150000382013858AC4EFE0555DEFE045429304F0FF4F
S315000038306FF0DFED83A507021385070093E54500CA
S31500003840EF3094096FF05FE3130C00006FF09FE711
S3150000385013850400EF70817803B70400B7470000B2
S31500003860938787CC033707039305A000E30AF7FA8B
S3150000387013850400E7000700930505006FF05FFA63
S315000038809304F0FF6FF05FEE37F50C00130585919A
S31500003890EFC0DFC7EFC0DFB1130405001305810FCA
S315000038A0233C210FEF40144813050400EF30DA15CE
S315000038B093070500033784FE233C81001384070029
S315000038C093070120B387E70023BC77E12330010289
S315000038D06FF0DFFC1304050063060C0013050C00F3
S315000038E0EF20007913058101EFB043701305040042
S315000038F0EF309A11EF20C078EF2010026FF0DFE270
S31500003900130405006FF01FFE9304050013058102E2
S31500003910EFB00301938704006FF0DFF9130101DBB9
S315000039202334112423308124233C9122233821235C
S315000039302334312323304123233C51212338612171
S3150000394023347121233081216302052E93840500DF
S31500003950638E052C130B0600630A062C930A0500DA
S315000039601305810FEF40D40FB7470D009387073A31
S3150000397003B48700231C011C83BB0701833784FE25
S3150000398037590D001309094E13070120B307F70035
S31500003990233C210F2338011C2330011E2334011E32
S315000039A02338011E233C011E233C810023BC77E102
S315000039B023300102033584FE93078101930500003D
S315000039C03385A700EF305468374A0D00B7490D001C
S315000039D0130A8A3D9389094013058102233C41015C
S315000039E0233C310FEFA0C356930581021305810FC7
S315000039F0EF30946513068000938504001305810259
S31500003A00EFB0830D833781011307810183B787FEEA
S31500003A10B307F7006306051C93050000138507002E
S31500003A20EF30846B8327811193F75700639C07124D
S31500003A30130620009305000013058101EF80040999
S31500003A4013058101EF7014642334A1002338B100FB
S31500003A50930405006340051E630E0518EF30C0652C
S31500003A601386040093050000130C0500EFB08A19B5
S31500003A70130600009305000013058101EF8004057D
S31500003A801386040093050C0013058101EF70940161
S31500003A9093060B001386040093050C0013850A0099
S31500003AA0EFD05F89930405006310050A63060C00D6
S31500003AB013050C00EF20C05BB7470D009387072E58
S31500003AC013058102233C4101233C310F2334F102CB
S31500003AD0EFA0D35113050107EF301031B7770D0072
S31500003AE0938787B1130501062334F102EF50800F47
S31500003AF0833784FE13070120233C8100B307F700B8
S31500003B0023BC77E11305810F23300102233C210FEB
S31500003B10EF405421833081240334012403390123E7
S31500003B2083398122033A0122833A8121033B012111
S31500003B30833B8120033C01201385040083348123C9
S31500003B40130101256780000013060500B7F50C0078
S31500003B5037D50C00938585981305850BEFB04A265B
S31500003B606FF0DFF4B7CA1000B7F50C00130670004B
S31500003B709385059013858AC4EFE095691385040043
S31500003B80EFE05A3E130605009385040013858AC4A8
S31500003B90EFE01568B7F50C001306A0009385859035
S31500003BA013858AC4EFE0D56613878AC48337070076
S31500003BB083B787FEB387E70083B4070F63820408E1
S31500003BC083C78403638C070283C5340413858AC4C0
S31500003BD0EFE09522EFE085079304F0FF6FF0DFED4D
S31500003BE083A507021385070093E54500EF30C44E11
S31500003BF06FF05FE3130C00006FF09FE7138504007E
S31500003C00EF70C13D03B70400B7470000938787CC28
S31500003C10033707039305A000E30AF7FA13850400A8
S31500003C20E7000700930505006FF05FFA9304F0FFC5
S31500003C306FF05FEE37F50C0013058591EFC01F8D11
S31500003C40EFC00FF7130405001305810F233C210F66
S31500003C50EF40540D13050400EF300A5B930705008F
S31500003C60033784FE233C8100138407009307012059
S31500003C70B387E70023BC77E1233001026FF0DFFC56
S31500003C801304050063060C0013050C00EF20403EEC
S31500003C9013058101EFB0833513050400EF30CA56D2
S31500003CA0EF20003EEF2040476FF0DFE213040500EF
S31500003CB06FF01FFE9304050013058102EFA0534623
S31500003CC0938704006FF0DFF9138505006780000015
S31500003CD067800000130101FF23341100EF60DA480A
S31500003CE083308100B7470F00938707243305F50219
S31500003CF01301010167800000130101FD233C9100BF
S31500003D009304050023308102233821012334310135
S31500003D102334110293890500EF601A4503B40400A9
S31500003D20B7D79A3B938707A03304F40283B784007E
S31500003D30B7440F0013090500938404243304F400E8
S31500003D40EF609A42B3072541B3879702E3EA87FEFD
S31500003D506386090023B0090023B409008330810279
S31500003D60033401028334810103390101833981005F
S31500003D701301010367800000630C050A93077000B6
S31500003D8063ECB70AB7F70C009387072893952500CD
S31500003D90B385F50083A7050067800700034755062E
S31500003DA09307100013050000B397E7002330F600D1
S31500003DB06780000083378506130500002330F60070
S31500003DC06780000083470506130500002330F600D0
S31500003DD06780000083471506130500002330F600B0
S31500003DE06780000083472506130500002330F60090
S31500003DF067800000833705061305000093D7870107
S31500003E009397070393D707032330F60067800000D4
S31500003E10930700042330F6001305000067800000B6
S31500003E2083370507130500002330F600678000007E
S31500003E301305F0FF6780000083B7010213860500B3
S31500003E40B7F50C0003B58701130101FF9385859C27
S31500003E5023341100EF709A30EF609A196308051049
S31500003E60130101FE233881000334850323349100B6
S31500003E70233C110093040500630A040013050400A3
S31500003E8003340400EF20C01EE31A04FE03B6040345
S31500003E9003B584029305000013163600EFA09A5668
S31500003EA003B5840223B0040423BC0402938784056B
S31500003EB06304F500EF20C01B03B40402630A040088
S31500003EC0832784001B87F7FF2324E4006306070685
S31500003ED003B4040163020404832784001B87F7FFED
S31500003EE02324E400631A0702833704001305040041
S31500003EF083B70701E78007008327C4001B87F7FF06
S31500003F002326E400631A0700833704001305040020
S31500003F1083B78701E780070013850400EF2040156B
S31500003F2083308101033401018334810013050000CD
S31500003F3013010102678000008337040013050400A3
S31500003F4083B70701E78007008327C4001B87F7FFB5
S31500003F502326E400E31E07F6833704001305040056
S31500003F6083B78701E78007006FF09FF61305F0FF20
S31500003F70678000006308053A130101FB23347101D1
S31500003F802334110423308104233C91022338210376
S31500003F902334310323304103233C5101233861018B
S31500003FA023308101938B0600638C0634138B050046
S31500003FB063880534033A85009384F5FF930A050068
S31500003FC083674A0103368A01B384F400B307F040DD
S31500003FD0B3F4F400630A0622130906008337890244
S31500003FE06384070E03B78703637897006F00C00DDD
S31500003FF003B78703636897001384070083B7070036
S31500004000E39807FE0336840103370401033C840367
S315000040108339040383368400630606282338E600C2
S315000040200337040163040700233CC7002338040058
S31500004030233C04006386061C23B0F6008337040085
S315000040406384070023B4D70083678901330C9C403F
S315000040502330040023340400637CFC0E83370902FA
S315000040602330F4026384070023B4870283378A026D
S315000040702330890213058001B384970023349A0202
S31500004080EF30800323305501233435012338650191
S3150000409023B0AB0013050000833081040334010410
S315000040A0833481030339010383398102033A010210
S315000040B0833A8101033B0101833B8100033C0100FC
S315000040C0130101056780000003390900E31809F0B0
S315000040D083670A0183390A00138CF7FF330C9C00AF
S315000040E0B307F040337CFC008337860033073C017E
S315000040F063F8E7128339060103360600B3893701F0
S31500004100E31406FE83378A003387890163FAE710D2
S3150000411037F50C001305059FEFB0CA0037D40C0025
S31500004120B7F50C001306F0FF938585A01305840BE5
S31500004130EFA01A49B7F50C001306F0FF938505A307
S315000041401305840BEFA0DA471305F0FF6FF0DFF4D9
S31500004150233C940213050004EF20107683370903ED
S31500004160B3893401233005002334050023380500C4
S31500004170233C05002330050223340502233835038A
S31500004180233C8503638C0718930600006F004001EB
S3150000419003B7070193860700630607149307070012
S315000041A003B70703E36637FF2338F500233CD50042
S315000041B06380061423B8A60023BCA70083378902B0
S315000041C063840714930600006F00400103B70700DD
S315000041D093860700630E070E9307070003B787034E
S315000041E0E366ECFE2330F5002334D5006386061023
S315000041F023B0A6008339040323B4A7006FF01FE69B
S315000042002334F9026FF0DFE383670A0183390A007A
S31500004210138CF7FF330C9C00B307F040337CFC0093
S3150000422013058003EF20506983274A01130905000F
S31500004230233005002334350123388501232CF5006E
S315000042402330050213050004EF20106783378A0127
S31500004250233005002334050023380500233C0500E0
S31500004260233005022334050223383503233C850316
S315000042702338A9022334A902130405006388070022
S315000042808336890003B7870063F8E6022330F90016
S31500004290233C2A01636C9C089307000093060000E8
S315000042A0130700002338E902130600006FF09FD7BA
S315000042B003B787006378D7001386070083B7070024
S315000042C0E39807FE2330F900233026016FF09FFCA8
S315000042D0233005002334F5008339040323B0A700F7
S315000042E06FF0DFD7233CF50023B8A7006FF01FED72
S315000042F02338A9026FF05FEC2334A9026FF09FEF19
S315000043001305F0FF6FF05FD9233005002334050055
S31500004310833904032334A9026FF05FD42338A9023A
S315000043206FF0DFE91305F0FF678000008337800137
S31500004330730010001304050013050900EF10505315
S3150000434013050400EF205A6C630A0532130101FBC2
S31500004350233471012334110423308104233C910258
S31500004360233821032334310323304103233C5101F5
S315000043702338610123308101930B0700630A072C60
S31500004380130B06006306062C033A85009309F6FF15
S31500004390930A050083670A0103378A001384050020
S315000043A0B389F900B307F040B3F9F900B3843501D6
S315000043B06360972C83378A01639007026F000008B9
S315000043C06366040363F496066372980263F08602DA
S315000043D083B707006384070683B6870003B807011F
S315000043E033880601E37ED4FC63F4960437F50C00AB
S315000043F0130505AEEFA01A5337D40C00B7F50C0021
S315000044001306F0FF938585A81305840BEFA05A1BAE
S31500004410B7F50C001306F0FF938505AB1305840B67
S31500004420EFA01A1A1305F0FF6F00400EE3E286FABA
S31500004430E3FE04FB83B70700E39007FA1305800346
S31500004440EF20904783274A01130C0500130500044B
S3150000445023300C0023348C0023383C01232CFC0031
S3150000446023300C02EF20504583378A0123300500A4
S315000044702334050023380500233C050023300502BC
S315000044802334050223388502233C35032338AC0246
S315000044902334AC02130905006388070083368C00B9
S315000044A003B7870063F0E60A2330FC0083278C01FC
S315000044B0233C8A0123380C0223380900233C0900D7
S315000044C023340C0223300900233409006386070ACB
S315000044D083370C022330F9026384070023B42703D1
S315000044E083378A0223302C0313058001B3893701F1
S315000044F023343A03EF20503C233055012334850002
S315000045002338650123B0AB00130500008330810416
S31500004510033401048334810303390103833981029F
S31500004520033A0102833A8101033B0101833B810087
S31500004530033C0100130101056780000003B78700F3
S315000045406378D7001386070083B70700E39807FE52
S315000045502330FC0083278C012330860123380C028C
S3150000456023380900233C090023340C0223300900B8
S3150000457023340900E39E07F413050004233C3903A2
S31500004580EF20903383370C032330050023340500D6
S3150000459023380500233C0500233005022334050299
S315000045A023389502233C05026380070C930600001E
S315000045B06F00400103B707019386070063020706F1
S315000045C09307070003B70703E36697FE2338F50052
S315000045D0233CD5006384060623B8A60023BCA700A7
S315000045E083378C02638A0706930600006F0040013A
S315000045F003B7070093860700630A070293070700BD
S3150000460003B78703E31607FE2330F5002334D500EE
S31500004610638A060223B0A60023B4A7006FF05FEBFF
S31500004620233CF50023B8A7006FF09FFB233005005D
S315000046302334F50023B0A7006FF09FE92338AC02BE
S315000046406FF0DFF92334AC0223B4A7006FF05FE804
S315000046501305F0FF6FF09FEB2330050023340500B0
S315000046602334AC026FF0DFE62338AC026FF05FF75D
S3150000467037F50C00130505A66FF0DFD71305F0FF1D
S31500004680678000001304050013050C00EF10501E90
S3150000469013050400EF205A37130101FD2330810270
S315000046A023341102233C91002338210123343101A4
S315000046B013040000630C05068337050003378500E5
S315000046C09304050003B987000334890163040408D1
S315000046D083378400636CF70683360401B387D700FB
S315000046E06376F70683350402639805006F000006BB
S315000046F083B50502638C050483B70503E31AF7FE49
S315000047001305040083B98503EF108027833704025D
S31500004710638E07048337890213040000B387374189
S315000047202334F90213850400EF10901483308102BC
S3150000473013050400033401028334810103390101A6
S3150000474083398100130101036780000003340400EC
S31500004750E31004F837F50C0093050700130585B13F
S31500004760EFA00A661304F0FF6FF0DFFB83378901C1
S31500004770638E0700639687006F0080036384870259
S315000047801387070083B70700E39A07FE0335040380
S3150000479063040500EF10D00D13050400EF10500D53
S315000047A06FF05FF7833704002330F7006FF01FFECA
S315000047B083370400233CF9006FF05FFD630A0500B0
S315000047C0833785001305000023B0F50067800000DD
S315000047D01305F0FF6780000093070500630A0502D2
S315000047E0638C05008336850003B7860083B6860290
S315000047F03307D74023B0E50013050000630C06001D
S3150000480083B7870083B787022330F60067800000EE
S315000048101305F0FF6780000063000530130101F700
S315000048202330810837B41000834704D12330410771
S315000048302338610523341108233C910623382107C8
S3150000484023343107233C5105233471052330810578
S31500004850233C91032338A1032334B103130A050033
S31500004860138B05006384071EB7B7100083B587D086
S31500004870130710009385150023B4B7D06388E500AD
S3150000488093074006B3F7F502639E070037F50C0061
S31500004890130585B4EFA0CA5283B7010203B5070119
S315000048A0EF60DA0313040000930B0000130CF0FF13
S315000048B0B7FC0C0037FD0C00B7FD0C00630A0406BC
S315000048C093072003B377F402638407061306810077
S315000048D09305400113050A0023340100EF108049B7
S315000048E06316051C833481009309140093F4740045
S315000048F063900B0A9307700C63E4372363860410F6
S315000049006308641737440F00EF600A06130904248E
S31500004910930405001304F423EF600A05330595405C
S3150000492033052503E37AA4FE13840900E31A04F889
S315000049309305040013850CB7EFA08A4883B70102DC
S3150000494003B50701EF608A791306810093054001DC
S3150000495013050A0023340100EF10C0416318051443
S31500004960033681009305040013058DCC93747600FD
S3150000497013B7140093860400EFA08A4483B701029C
S315000049809309140003B50701EF604A75E3840BF63B
S315000049909307803EB3F7F9026386070083378100E9
S315000049A0E38E87F5130601019305000313050A003C
S315000049B023380100233C0100EF10C03B63100514AF
S315000049C0130681019305400313050A00EF10803A90
S315000049D0631805100338810183370101033681000E
S315000049E013B71400938604009385090013858DC2BE
S315000049F0EFA00A3D83B7010203B50701EF600A6E17
S31500004A00033C8100E39E04EE639C0B081305000043
S31500004A108330810803340108833481070339010791
S31500004A2083398106033A0106833A8105033B010572
S31500004A30833B8104033C0104833C8103033D010362
S31500004A40833D8102130101096780000083B70102DB
S31500004A50930600001306200003B507019305000026
S31500004A60EFB0CA4A930710002308F4D06FF0DFDFD7
S31500004A70E38E0BF8033681001307000037F50C00B0
S31500004A809386040093850900130505C7EFA04A33F2
S31500004A9083B7010203B50701EF604A646FF01FF7A1
S31500004AA003368100130710006FF05FFD37D40C004A
S31500004AB0B7F50C0013060500938505B91305840B9D
S31500004AC0EFA00A30B7F50C001306F0FF938585BBFF
S31500004AD01305840BEFA0CA2E1305F0FF6FF05FF3EA
S31500004AE0B7F70C00938507B9B7D70C001306050076
S31500004AF01385870BEFA0CA2C6FF0DFEDB7F70C001C
S31500004B00938507B9B7D70C00130605001385870BE5
S31500004B10EFA00A2B6FF0DFEA1305F0FF67800000B5
S31500004B2003368100B7F70C009386040093850900CD
S31500004B30138587BEEFA0CA2883B70102930B100026
S31500004B4003B50701EF608A59033C81006FF01FDB54
S31500004B50130101FC233C1102233881022334910204
S31500004B6023302103233C31012338410123345101F1
S31500004B706306051E138405006382051E03370501BF
S31500004B80B307D60083340500636AF71C0339850032
S31500004B90330926019377F9036392071C9386F6037C
S31500004BA083B7040793F906FC3307390163E8E71A6C
S31500004BB0376A260593050AC013850400EFF0DFC5A2
S31500004BC0930A0500631C050893D729006386090A22
S31500004BD093992700B38989003B098940130A0AC0C3
S31500004BE06F008000630A34090326040093058000E1
S31500004BF013850400EF10C016930705003B068900D5
S31500004C00930540001385040013044400639A0708C3
S31500004C10EF10001593070500130640009305C0002A
S31500004C20138504006396070AEF10801393070500A7
S31500004C301306200093050000138504006392070CF9
S31500004C40EF1000121306050093050A0013850400F1
S31500004C506310060EEFF05FBCE30605F837D40C00D0
S31500004C60B7F50C001306F0FF938585E01305840B5A
S31500004C70EFA00A15930AF0FF833081030334010382
S31500004C80833481020339010283398101033A010128
S31500004C9013850A00833A810013010104678000002E
S31500004CA037D40C00B7F50C0013860700938585D022
S31500004CB01305840BEFA0CA10B7F50C001306F0FF1E
S31500004CC0938505D31305840BEFA08A0F6FF05FF968
S31500004CD037D40C00B7F50C0013860700938585D0F2
S31500004CE01305840BEFA0CA0DB7F50C001306F0FFF1
S31500004CF0938505D61305840BEFA08A0C6FF05FF63B
S31500004D0037D40C00B7F50C0013860700938585D0C1
S31500004D101305840BEFA0CA0AB7F50C001306F0FFC3
S31500004D20938585DA1305840BEFA08A096FF05FF38C
S31500004D3037D40C00B7F50C00938585D01305840B8A
S31500004D40EFA00A08B7F50C001306F0FF938585DD82
S31500004D501305840BEFA0CA066FF09FF0930AF0FFCD
S31500004D606FF09FF1130101FB2334110423308104FA
S31500004D70233C91022338210323343103233041039A
S31500004D80233C5101638C051E130405006308051EB0
S31500004D9003B70501B307D60083B4050013890600DF
S31500004DA0636EF71C83B98500B309360193F7F903DF
S31500004DB06396071C9387F60303B7040793F707FC6C
S31500004DC0B3873701636CF71A376A260593050AC05D
S31500004DD013850400EFF05FA4930A05006310050A2B
S31500004DE013592900630A090A1319290033092401F2
S31500004DF0BB898940130A0AC06F00C001EF00907793
S31500004E00631605148337810013044400232EF4FE31
S31500004E10630489083B8689009305400013850400D6
S31500004E20EF00107493070500130640009305C000B9
S31500004E301385040063960708EF0090729307050038
S31500004E401306100093050000138504006392070AF9
S31500004E50EF0010711306050093050A001385040080
S31500004E606310060CEFF05F9B9307050013068100A5
S31500004E709305000113850400E38207F837D40C007C
S31500004E80B7F50C001306F0FF938585E91305840B2F
S31500004E90EF901A73930AF0FF833081040334010400
S31500004EA0833481030339010383398102033A010202
S31500004EB013850A00833A810113010105678000000A
S31500004EC037D40C00B7F50C0013860700938585D000
S31500004ED01305840BEF90DA6EB7F50C001306F0FF9E
S31500004EE0938505D61305840BEF909A6D6FF05FF9E5
S31500004EF037D40C00B7F50C0013860700938585D0D0
S31500004F001305840BEF90DA6BB7F50C001306F0FF70
S31500004F10938585DA1305840BEF909A6A6FF05FF636
S31500004F2037D40C00B7F50C00938585D01305840B98
S31500004F30EF901A69B7F50C001306F0FF938505E4A8
S31500004F401305840BEF90DA676FF09FF337D40C00EC
S31500004F50B7F50C0013060500938505B91305840BF8
S31500004F60EF901A66B7F50C001306F0FF938505E778
S31500004F701305840BEF90DA646FF09FF0930AF0FF4D
S31500004F806FF09FF1630E0504630C06048338050376
S31500004F909397050293D70702B3F7170303378502E2
S31500004FA0939637003307D70003380700630A0802D1
S31500004FB003370800832687006388D5020335070078
S31500004FC013080700630E05008326850013070500F6
S31500004FD0139506021355050233751503E38EA7FCD8
S31500004FE01305F0FF6780000083370800E38A07FE99
S31500004FF083A7C700130500002320F6006780000082
S315000050001305000067800000630A05006388060038
S3150000501023B0060013050000678000001305F0FFAB
S3150000502067800000130101FA233C11042338810430
S315000050302334910423302105233C310323384103D3
S315000050402334510323306103630805249384050048
S31500005050130A060013860500930540001304050095
S31500005060139B0402EF00D04F135B0B026318051865
S3150000507013060A009305800013050400EF00504E46
S315000050806318051A13064000930500001305040073
S31500005090EF00104D930905006316051C83350403C4
S315000050A0833784023375BB02931A3500B3875701E1
S315000050B003B60700630A06068337060003A78700C0
S315000050C06386E40283B607006380060603A78600AC
S315000050D0138607009317070293D70702B3F7B702A1
S315000050E06314F50493870600E39EE4FC8337060009
S315000050F01389C700638A070223204901833081058B
S31500005100033401058334810403390104033A01039E
S31500005110833A8102033B0102138509008339810327
S31500005120130101066780000013050001EF10D07817
S315000051308337040503360404833504031309050085
S3150000514093061000130584042330090023249900D4
S31500005150232609002334F100EF10D4562338A1008A
S31500005160233CB1001375F50F631C05020337840257
S31500005170B30A570183B70A006388070483B7070099
S315000051802330F90083B70A0023B0270183370404CC
S315000051901309C900938717002330F4046FF0DFF575
S315000051A01306810013058402EF005022833A04039C
S315000051B003378402B37A5B03939A3A00B30A570122
S315000051C083B70A00E39C07FA83378403233C24034E
S315000051D02330F900638E070083E7870083360403D4
S315000051E0B3F7D702939737003307F7002330270129
S315000051F09307840323B0FA006FF05FF937D40C00ED
S31500005200B7F50C0013060500938585D01305840BAE
S31500005210EF901A3BB7F50C001306F0FF938505EDEA
S315000052201305840BEF90DA399309F0FF6FF01FED49
S3150000523037D40C00B7F50C0013060500938585D00E
S315000052401305840BEF90DA37B7F50C001306F0FF61
S31500005250938505F01305840BEF909A369309F0FFBA
S315000052606FF0DFE937D40C00B7F50C001306050024
S31500005270938585D01305840BEF909A34B7F50C000F
S315000052801306F0FF938505F31305840BEF905A334D
S315000052909309F0FF6FF09FE69309F0FF6FF01FE6AA
S315000052A01304050013050900EF00905C13050400C4
S315000052B0EF109A75130101FC233C11022338810279
S315000052C02334910223302103233C31012338410149
S315000052D02334510123306101630E0544130905008F
S315000052E013058007EF10505DB7F5FF019395750024
S315000052F013040500EF009021930710009394070212
S315000053002338F40283A701DB930984051306840678
S315000053109305000213050400233404002338040017
S31500005320233C04002330040223343403233C0402C8
S31500005330233004042324F40423380404233C040403
S3150000534023389406EF00D01E6312053813060406B0
S315000053509305800113050400EF00901D6312053AC2
S3150000536013050004EF105055B7F60C00938A063D5E
S3150000537037070004B7060100033A04012338D500B5
S3150000538013071700B7F6FF0F9384140013060501E1
S31500005390939646001317C700233055012334950012
S315000053A0233CD5002330E50223340502233C0502C5
S315000053B02334C4002338A400630A0A0083278A0022
S315000053C01B87F7FF2324EA0063020716034A5406E5
S315000053D093041000339A440163FA441937060060B7
S315000053E09305100013050400EFF0DFC393040500D6
S315000053F0631C051013060000930520001305040026
S31500005400EFF05FC293040500630C051E130605004A
S31500005410B7F50C0037D50C00938585051305850B6C
S31500005420EF901A1A03398403630A09001305090069
S3150000543003390900EF00D043E31A09FE03360403DB
S31500005440033584029305000013163600EF908A7B1D
S315000054500335840223300404233C04026384A90038
S31500005460EF00104103390402630A09028327890009
S315000054701B87F7FF2324E90063120702833709001D
S315000054801305090083B70701E78007008327C900D2
S315000054901B87F7FF2326E9006308071E033904016B
S315000054A0630A0902832789001B87F7FF2324E90083
S315000054B063120702833709001305090083B7070142
S315000054C0E78007008327C9001B87F7FF2326E9002B
S315000054D06306071C13050400EF009039833081032F
S315000054E0033401030339010283398101033A0101BF
S315000054F0833A8100033B0100138504008334810253
