S01C00006770752D6576616C756174696F6E2D6C696768742E7372656312
S3150000000097210E00938181509702000093828215FA
S3150000001073905230732440F163100402970200007B
S315000000209382421573905230EF909A1C97120000FB
S31500000030938242DCE780020013132400970200003B
S315000000409382420CB302530003A302000F00F00F89
S31500000050E31C03FE17DE1000130ECE689313440054
S31500000060B30E7E00138F8E0083BF0E0003310F0088
S31500000070970200009382021073905230732540F16C
S31500000080E7800F00130000001300000013000000BB
S31500000090130000001300000013000000130000000E
S315000000A013000000130000001300000013000000FE
S315000000B013000000130000001300000013000000EE
S315000000C013000000130000001300000013000000DE
S315000000D013000000130000001300000013000000CE
S315000000E013000000130000001300000013000000BE
S315000000F013000000130000001300000013000000AE
S3150000010073001000730010007300100073001000DD
S3150000011073001000730010007300100073001000CD
S3150000012073001000730010007300100073001000BD
S3150000013073001000730010007300100073001000AD
S3150000014013132500970300009383C3FBB3027300C8
S315000001500F00500F23A00200130500006780000067
S3150000016073001000130000001300000013000000CD
S3150000017073202034130101EF23301100233831009E
S31500000180233C41002330510223346102233871029B
S31500000190233C8102233091042334A1042338B10483
S315000001A0233CC1042330D1062334E1062338F1066B
S315000001B0233C01072330110923342109233831094F
S315000001C0233C41092330510B2334610B2338710B37
S315000001D0233C810B2330910D2334A10D2338B10D1F
S315000001E0233CC10D2330D10F2334E10F2338F10F07
S315000001F073250030F325103473262034233CA10EDA
S315000002002330B1102334C11063560600EF909A0DC7
S315000002106F00C00093060100EF905A0C8330010076
S3150000022083310101033281018332010203338102EA
S3150000023083330103033481038334010403358104CA
S3150000024083350105033681058336010603378106AA
S31500000250833701070338810783380108033981088A
S3150000026083390109033A8109833A010A033B810A6A
S31500000270833B010B033C810B833C010C033D810C4A
S31500000280833D010D033E810D833E010E033F810F29
S31500000290833F011073100F3073901F34033F810E9C
S315000002A0833F010F1301011173002030000000008D
S315000002B00000000000000000000000000000000038
S315000002C00000000000000000000000000000000028
S315000002D00000000000000000000000000000000018
S315000002E00000000000000000000000000000000008
S315000002F000000000000000000000000000000000F8
S3150000030000000000000000000000000000000000E7
S3150000031000000000000000000000000000000000D7
S3150000032000000000000000000000000000000000C7
S3150000033000000000000000000000000000000000B7
S3150000034000000000000000000000000000000000A7
S31500000350130101FF1305800023341100EF208932B9
S31500000360B7A70D00938707C137260900B7A50D006B
S315000003702330F5001306867B938585B5EF605036EE
S31500000380130101FF1305800023341100EF20892F8C
S31500000390B7870D00938787A737060800B7850D0036
S315000003A02330F500130686CA938505A5EF60503302
S315000003B0130101FF1305800023341100EF20892C5F
S315000003C0B7870D00938787AD37060800B7850D0000
S315000003D02330F5001306C6CF938505ABEF6050308A
S315000003E0130101FF1305800023341100EF20892932
S315000003F0B7870D00938787B337060800B7850D00CA
S315000004002330F500130606D5938505B1EF60502D10
S31500000410130101FE233881001304050013050001B2
S31500000420233C110023349100EF20C92593050400D5
S3150000043013040500EF70894637660900B7A50D005D
S315000004401306C61C9385851213050400EF60502918
S315000004509304050013050400EF20492813850400C2
S31500000460EF605A56130101FE23388100130405007C
S3150000047013050001233C110023349100EF2089204D
S315000004809305040013040500EF70894637660900DA
S31500000490B7A50D001306C6669385851513050400DA
S315000004A0EF6010249304050013050400EF200923D0
S315000004B013850400EF601A51130101FE23388100F1
S315000004C01304050013050001233C11002334910099
S315000004D0EF20491B9305040013040500EF704947FC
S315000004E037660900B7A50D001306C6609385851803
S315000004F013050400EF60D01E9304050013050400E5
S31500000500EF20C91D13850400EF60DA4B130101FECD
S31500000510233881001304050013050001233C110054
S3150000052023349100EF2009169305040013040500F7
S31500000530EF70094837660900B7A50D001306C654C3
S315000005409385851B13050400EF609019930405003D
S3150000055013050400EF20891813850400EF609A46FE
S31500000560130101FE23388100130405001305000161
S31500000570233C110023349100EF20C9109305040099
S3150000058013040500EF70C94837660900B7A50D00CA
S315000005901306C65A9385851E13050400EF60501492
S315000005A09304050013050400EF2049131385040086
S315000005B0EF605A41130101FE233881001304050040
S315000005C013050001233C110023349100EF20890B11
S315000005D09305040013040500EF7089493766090086
S315000005E0B7A50D001306C6229385852113050400C1
S315000005F0EF60100F9304050013050400EF20090EA9
S3150000060013850400EF601A3C130101FE23388100B4
S315000006101304050013050001233C11002334910047
S31500000620EF2049069305040013040500EF7089497D
S3150000063037660900B7A50D001306C62E9385052457
S3150000064013050400EF60D0099304050013050400A8
S31500000650EF20C90813850400EF60DA36130101FEA6
S31500000660233881001304050013050001233C110003
S3150000067023349100EF2009019305040013040500BB
S31500000680EF70494A37660900B7A50D001306C63450
S315000006909385052713050400EF6090049304050075
S315000006A013050400EF20890313850400EF609A31D7
S315000006B0130101FE23388100130405001305000110
S315000006C0233C110023349100EF10D97B93050400DD
S315000006D013040500EF70094B37660900B7A50D0036
S315000006E01306C6289385052A13050400EF60407F8C
S315000006F09304050013050400EF10597E13850400CA
S31500000700EF605A2C130101FF1305800023341100FA
S31500000710EF105977B7870D00938787AD3706080026
S31500000720B7850D002330F5001306C6CF938505ABBC
S31500000730EF60007B130101FF1305800023341100D5
S31500000740EF105974B7870D00938787B337060800F3
S31500000750B7850D002330F500130606D5938505B140
S31500000760EF600078130101FF1305800023341100A8
S31500000770EF105971B7B70D009387070637B6090012
S31500000780B7B50D002330F50013064688938585031B
S31500000790EF600075130101FD233C910093040500F1
S315000007A0130500032334110223308102EF10996DE3
S315000007B013040500EF80097D930710002320F10044
S315000007C08335010013060500938604001305040013
S315000007D0EF80195EB7B70D00938707AA13050400CB
S315000007E02330F400EF50191E93050500130504028B
S315000007F0EFA0092137960900B7B50D001306861438
S31500000800938505A113050400EF60806DB7B70D0051
S3150000081093040500938787A7130504002330F4008B
S31500000820EF90591D6F008000930405001305040026
S31500000830EF10D96A13850400EF60DA18130101FD81
S315000008402338210113090500130500032330810213
S31500000850233C91002334110293840500EF10996222
S315000008601304050063880400EF901932130605008F
S315000008706F000001EF800971130605009304100054
S315000008802320910083350100930609001305040017
S31500000890EF801952B7B70D00938707AA1305040016
S315000008A02330F400EF5019129305050013050402D6
S315000008B0EFA0091537960900B7B50D001306861483
S315000008C0938505A113050400EF608061B7B70D009D
S315000008D093040500938787A7130504002330F400CB
S315000008E0EF9059116F008000930405001305040072
S315000008F0EF10D95E13850400EF60DA0C130101FBDB
S31500000900233821031309050013050002233081044F
S31500000910233C91022334110423343103EF109956FA
S3150000092093040500130609009385010013050100D1
S31500000930EF90D9179305010013850400930901016F
S31500000940EF90C9070335010063043501EF50006ECF
S31500000950B7B70D001384010037A60900B7B50D001F
S31500000960938707EB1306461F938585E313850400DB
S3150000097023B0F40023A8240123BC8400EF60405672
S315000009808337010013040500638A370113850700C6
S31500000990EF50C0696F008000130405001385040042
S315000009A0EF10D95313050400EF60DA01130101FFBC
S315000009B02330810037B41000130504C4233411001A
S315000009C0EF700079930504C403340100833081007D
S315000009D037850000138601FA1305C51613010101B8
S315000009E06F90DA77130101FF2330810037B41000CE
S315000009F0130584C523341100EF708075930584C5F3
S31500000A00033401008330810037850000138601FA24
S31500000A101305C516130101016F905A74B7B710007C
S31500000A2003C707D063160700130710002380E7D01B
S31500000A30B7B7100003C787CF631607001307100068
S31500000A40238CE7CEB7B7100003C707CF631607009E
S31500000A50130710002388E7CEB7B7100003C787CE69
S31500000A6063160700130710002384E7CEB7B71000FC
S31500000A7003C707CE63160700130710002380E7CECF
S31500000A80B7B7100003C787CD63160700130710001A
S31500000A90238CE7CCB7B7100003C707CD6316070052
S31500000AA0130710002388E7CCB7B7100003C787CC1D
S31500000AB063160700130710002384E7CC6780000045
S31500000AC0B7B7100003C707D863160700130710004F
S31500000AD02380E7D8B7B7100003C787D76316070088
S31500000AE013071000238CE7D6B7B7100003C707D744
S31500000AF063160700130710002388E7D6B7B7100060
S31500000B0003C787D663160700130710002384E7D6AA
S31500000B10B7B7100003C707D6631607001307100000
S31500000B202380E7D6B7B7100003C787D5631607003B
S31500000B3013071000238CE7D4B7B7100003C707D5F7
S31500000B4063160700130710002388E7D4B7B7100011
S31500000B5003C787D463160700130710002384E7D45E
S31500000B6067800000B7B7100003C787E26316070067
S31500000B70130710002384E7E2B7B7100003C707E2A4
S31500000B8063160700130710002380E7E2B7B71000CB
S31500000B9003C787E16316070013071000238CE7E0FD
S31500000BA0B7B7100003C707E1631607001307100065
S31500000BB02388E7E0B7B7100003C787E0631607008E
S31500000BC0130710002384E7E0B7B7100003C707E058
S31500000BD063160700130710002380E7E0B7B710007D
S31500000BE003C787DF6316070013071000238CE7DEB1
S31500000BF0B7B7100003C707DF631607001307100017
S31500000C002388E7DEB7B7100003C787DE6316070041
S31500000C10130710002384E7DEB7B7100003C707DE0B
S31500000C2063160700130710002380E7DEB7B710002E
S31500000C3003C787DD6316070013071000238CE7DC64
S31500000C40B7B7100003C707DD6316070013071000C8
S31500000C502388E7DC67800000B7B7100003C787EE7C
S31500000C6063160700130710002384E7EEB7B71000DA
S31500000C7003C707EE63160700130710002380E7EE8D
S31500000C80B7B7100003C787ED6316070013071000F8
S31500000C90238CE7ECB7B7100003C707ED6316070010
S31500000CA0130710002388E7ECB7B7100003C787ECDB
S31500000CB063160700130710002384E7ECB7B710008C
S31500000CC003C707EC63160700130710002380E7EC41
S31500000CD0B7B7100003C787EB6316070013071000AA
S31500000CE0238CE7EAB7B7100003C707EB63160700C4
S31500000CF0130710002388E7EAB7B7100003C787EA8F
S31500000D0063160700130710002384E7EAB7B710003D
S31500000D1003C707EA63160700130710002380E7EAF4
S31500000D20B7B7100003C787E963160700130710005B
S31500000D30238CE7E8B7B7100003C707E96316070077
S31500000D40130710002388E7E867800000130101FEFF
S31500000D5023349100B7140000233881009384041CC7
S31500000D6037D410001304846713850400233C110054
S31500000D70233C9400EFC05A742338A4006302050292
S31500000D802334A400233095002334050083308101E9
S31500000D9003340101833481001301010267800000DE
S31500000DA0233C0400233404006FF05FFE130101FFAF
S31500000DB02330810037A50900138601FA93850100C7
S31500000DC01305851E23341100EF905A39138601FA54
S31500000DD0033401008330810037A50900938581FF24
S31500000DE01305451E130101016F905A3700000000DC
S31500000DF0EF801A4013040100930200006390020280
S31500000E0017A51000130505E317D61000130606E410
S31500000E10B306A64093D53600EF809A3E97A21000FF
S31500000E209382422E23B08200EF809A3FEF805A3C95
S31500000E30EF80DA6BEF809A71EF80DA5717A50A0018
S31500000E4013058574EF905A17EFC01A07EF805A3AC8
S31500000E5097A210009382021503A502009382010156
S31500000E6083B5020013060000EF00400FEF90DA3062
S31500000E7073001000000000000000000037250E007F
S31500000E8037270E00930785D0130787D0630AF7002C
S31500000E909307000063860700130585D06780070067
S31500000EA06780000037250E00930785D037270E0090
S31500000EB0930587D0B385F54093D7354093D5F50391
S31500000EC0B385F50093D51540638A050093070000A6
S31500000ED063860700130585D06780070067800000DA
S31500000EE0130101FF2330810037B4100083478410BB
S31500000EF02334110063920702EFF05FF8B7970A00F8
S31500000F00938707596386070013858104EF804A6833
S31500000F10930710002304F41083308100033401008A
S31500000F201301010167800000B7970A00938707370E
S31500000F3063840702B7B51000130101FF93850511FD
S31500000F401385810423341100EF808A4283308100A7
S31500000F50130101016FF01FF56FF0DFF4130101F6C5
S31500000F60233C1108233881082334910823302109B2
S31500000F70233C310713050001EFC01A541304050082
S31500000F8013050001EFC05A539304050093070000B0
S31500000F90930600013307F4002300F7009387170038
S31500000FA0E39AD7FE93870400138704012380070082
S31500000FB093871700E39CE7FE2334010623300106DE
S31500000FC0233C0104233801042334010437D50C00E3
S31500000FD0130505DEEFE00A1013058106EF404029F0
S31500000FE037D50C00130505E0EFE0CA0E13068103A2
S31500000FF09305100003358106EF20105813060104EF
S315000010009305200003358106EF20105713060103D0
S315000010109305300003358106EF2010568336810391
S31500001020033601048335010337D50C00130505E2A9
S31500001030EFD01A54B7F90D00938709D037190E006F
S31500001040130989153309F9409305090037D50C00B2
S31500001050130585E5EFD0DA5193060105130609005D
S31500001060938509D003358106EF00C02C9305000255
S3150000107037D50C00130505E8EFD09A4F9306010605
S31500001080130610009305000103358106EF20906ECC
S315000010909305810203350106EF3040729306810500
S315000010A0130620009305000103358106EF20906C9E
S315000010B09305010203358105EF30407037D50C00EA
S315000010C0130585EAEFE00A01930700012334F100D6
S315000010D0833781022338F10083370102233CF10074
S315000010E0930681041306800193058100033581066A
S315000010F0EF0000399305000137D50C00130505EC08
S31500001100EFD01A479306000113060000930504006A
S3150000111003350106EF30901F37D50C00130505EF98
S31500001120EFD05A7B93060001130600009385040056
S3150000113003358105EF30901D37D50C00130505F1F9
S31500001140EFD05A79033681048335010503358106CC
S31500001150EF40C05B37D50C00130505F2EFD09A7748
S31500001160B7652605938505C003358106EF30C06A4D
S315000011709305000137D50C00130585F4EFD05A3FCF
S3150000118093060001130600008335810513850400CC
S31500001190EF3010399305000237D50C00130585F79B
S315000011A0EFD01A3D03350106EF30004F03358105B8
S315000011B0EF30804E03350105EF30004E03358104D4
S315000011C0EF30804D37D50C00130505FAEFD09A7035
S315000011D003358106EF2090481306000093070000B0
S315000011E0130500019B8507003387F400834607003B
S315000011F06398C604938717001B0626001376F60F1E
S31500001200E392A7FE37D50C0013050500EFD09A6CC4
S3150000121013050400EFC01A2B13850400EFC09A2AA9
S3150000122013050000833081090334010983348108E2
S3150000123003390108833981071301010A6780000019
S3150000124037D50C00130505FCEFD09A3237D50C00C4
S31500001250130505FFEFD01A686FF09FFBB7B71000B4
S3150000126083B707F9639A070037B71000B7E710008E
S31500001270938787C42338F7F8B7B7100083B787F882
S3150000128063980700B7B710003707001023B4E7F8D4
S3150000129067800000130101FE23388100233C110002
S315000012A02334910037B41000834704C30F00F00FB6
S315000012B093F7F70F63800702B7B4100083308101FC
S315000012C00334010103A584C38334810013010102A1
S315000012D067800000130504C3EF50104DB7B410002B
S315000012E0E30E05FC37D50C001305050123AC04C23B
S315000012F0EFC00A2863060500EF904A4D23ACA4C24E
S31500001300130504C3EF50905037450000938584C3FE
S31500001310138601FA130505CDEF904A6483308101E7
S315000013200334010103A584C3833481001301010240
S3150000133067800000130101FC233C1102233881025F
S315000013402334910223302103233C31012338410108
S3150000135063040512938405006380051293078000D9
S315000013601309060063FAC710138A0600638606107F
S3150000137083B5050083B98400130781009306000036
S31500001380B389B94013860900EF20107C13040500C9
S315000013906314050403358100130909FF9306100041
S315000013A01306090093050000EF30504113040500B1
S315000013B063020506B7D50C001306050093850509DB
S315000013C037D50C0013058506EFD09A1A0335810030
S315000013D0EF30802C6F00C00113060500B7D50C0056
S315000013E037D50C009385850213058506EFD05A186C
S315000013F0833081031305040003340103833481021F
S315000014000339010283398101033A01011301010401
S31500001410678000000335810093063000338629413A
S3150000142093050900EF309039130405006316050291
S315000014300335810093060900130600009385040115
S31500001440EF30C06C1304050063100502833781007A
S315000014502330FA006FF0DFF9B7D50C00130605004C
S315000014609385850C6FF0DFF5B7D50C0013060500E4
S31500001470938585116FF0DFF41304F0FF6FF05FF7CB
S31500001480130101FC233C110223388102233491020B
S3150000149023302103233C31016308050E138905001F
S315000014A06384050E930406006300060E9389060006
S315000014B0638C060C930681001306100093850400C6
S315000014C0EF20502B13040500631405040335810037
S315000014D0938604001306000093050900EF300063AD
S315000014E013040500631205068337810083308103E8
S315000014F0130504000334010323B0F9008334810289
S315000015000339010283398101130101046780000058
S3150000151013060500B7D50C0037D50C009385851446
S3150000152013058506EFD0DA04833081031305040022
S3150000153003340103833481020339010283398101B3
S31500001540130101046780000013060500B7D50C00DF
S3150000155037D50C009385051813058506EFD05A017B
S3150000156003358100EF3040138330810313050400F7
S315000015700334010383348102033901028339810173
S3150000158013010104678000001304F0FF6FF0DFF918
S31500001590130101DE233C311F130601169389050052
S315000015A09305300023349120233C112023388120D9
S315000015B0233021212338411F2334511F2330611F3B
S315000015C0233C711D2338811D2334911D2330A11D19
S315000015D0233CB11B93040500233C01102330011268
S315000015E02334011223380112233C01122330011443
S315000015F02334011423380114233C0114EF20C0774F
S31500001600630005061309050013060500B7D50C008F
S3150000161037D50C009385051B13058506EFD04A7553
S315000016208330812103340121833481208339811F52
S31500001630033A011F833A811E033B011E833B811D32
S31500001640033C011D833C811C033D011C833D811B22
S3150000165013050900033901201301012267800000E8
S31500001660130681169305700013850400EF20C070E1
S31500001670130905006300050213060500B7D50C0023
S3150000168037D50C009385851E13058506EFD04A6E67
S315000016906FF01FF9033781169307100013950702A1
S315000016A0939517021396270293963702939747024C
S315000016B03375A700B375B7003376C700B376D70086
S315000016C0B377F700233CA1082330B10A2334C10ABB
S315000016D02330D10E2338F108EFF0DFBB833B011630
S315000016E023380100130A050063940B006F10501194
S315000016F013040000233C010C2338010C2334010C95
S315000017002330010C2338010A233C010A2330010847
S315000017102338010623340108233C0106233401063D
S3150000172023380102233C010223300104233C010437
S315000017302338010423300106233401042334010233
S3150000174023300102233C0100930D0000930A0000A0
S31500001750233C210F371900009306011713060400D6
S31500001760930509B013850400EF30D0056304050026
S315000017706F10C0379306811713060400930529B02E
S3150000178013850400EF301004630405006F10403821
S31500001790930710006306FA66930720006310FA1495
S315000017A083370109638407006F0050678337810917
S315000017B0638407006F0050758337010A638407004E
S315000017C06F1080088337810AE3900754631804106A
S315000017D08337010E6388070A3719000093068111C3
S315000017E013060000930529B113850400EF30807DB0
S315000017F0630405006F1050389306011213060000AB
S31500001800930539B113850400EF30C07B63040500EE
S315000018106F1050349306811213060000930549B1E8
S3150000182013850400EF30007A630405006F10D03D85
S315000018309306011313060000930559B1138504009E
S31500001840EF304078630405006F10D039930681139A
S3150000185013060000930569B113850400EF30807606
S31500001860630405006F10D0359306011413060000BB
S31500001870930579B113850400EF30C0746304050045
S315000018806F10D0313719000093068114130600003B
S31500001890930589B113850400EF30C0726304050017
S315000018A06F10407E9306011513060000930599B14B
S315000018B013850400EF300071630405006F10407A51
S315000018C093068115130600009305A9B1138504003C
S315000018D0EF30406F630405006F10001F833B011655
S315000018E003390117033B811713050000630409023E
S315000018F013050B00EF004A60130C050013050900E1
S31500001900EF008A5F9305050013050C00EFF00963ED
S31500001910EF200A589307100063FA7703EF200A2A8C
S31500001920B7E50C00930705001307090093060B00A3
S31500001930130604009385853313850900EF901A7DFD
S31500001940833B0116033B81170339011783370101D6
S31500001950B38A6A01B38D2D0163F42701233821016F
S315000019601B0414009317040293D70702E3E477DFFE
S315000019700339810F930710006314FA006F10801B60
S31500001980930720006310FA428337810A638A071E91
S315000019900337010B8337810B930C0000335D77030C
S315000019A00337010C335477030337810CB3547703A1
S315000019B00337010D335A77030337810DB3DD770300
S315000019C0335B770363E4770513050400EF00CA521F
S315000019D0130C050013850D00EF000A529305050050
S315000019E013050C00EFF08955B7270E009305050087
S315000019F003B507D1EFF01970B7270E0083B587D06E
S31500001A00EFF01934EF008A409B0C05008337010B79
S31500001A10130C000063E4770513850400EF00CA4D3C
S31500001A20930B050013050D00EF000A4D9305050005
S31500001A3013850B00EFF08950B7270E0093050500BC
S31500001A4003B507D1EFF0196BB7270E0083B587D022
S31500001A50EFF0192FEF008A3B1B0C05003385AD0113
S31500001A60B3074501233CF100930B0000638C07028A
S31500001A70EF008A4883378101930B05001385070021
S31500001A80EF008A479305050013850B00EFF0094B1D
S31500001A90B7270E0083B587D0EFF0992AEF000A37F3
S31500001AA09B0B05003305940033076501233CE100D9
S31500001AB093070000630E0702EF000A440337810113
S31500001AC02330A10213050700EF000A438337010202
S31500001AD09305050013850700EFF04946B7270E006A
S31500001AE083B587D0EFF0D925EF004A329B07050072
S31500001AF0B7E50C009385054F13860D001385090085
S31500001B00233CF100EF909A60B7E50C0013060D0038
S31500001B109385055113850900EF905A5FB7E50C00D0
S31500001B2093860C001306040093850553138509005C
S31500001B30EF90DA5DB7E50C0093060C0013860400FF
S31500001B409385055613850900EF905A5CB7E50C009E
S31500001B5093860B0013060A009385855913850900A1
S31500001B60EF90DA5A83378101B7E50C0013060B00B4
S31500001B70938607009385055D13850900EF901A5932
S31500001B808337010E638E071A033A8111833481125B
S31500001B90930B000063040A0413850400EF00CA35A2
S31500001BA01304050013050A00EF000A359305050026
S31500001BB013050400EFF08938B7270E0093050500DA
S31500001BC003B507D1EFF01953B7270E0083B587D0B9
S31500001BD0EFF01917EF008A239B0B0500033401125F
S31500001BE0833C0113130B00006304040413850C00EB
S31500001BF0EF008A30130B050013050400EF00CA2F0F
S31500001C009305050013050B00EFF04933B7270E00C7
S31500001C109305050003B507D1EFF0D94DB7270E00A0
S31500001C2083B587D0EFF0D911EF004A1E1B0B0500D4
S31500001C3033058A0003348113130C00003304850036
S31500001C40630A0402EF004A2B130C05001305040077
S31500001C50EF008A2A9305050013050C00EFF0092E04
S31500001C60B7270E0083B587D0EFF0990DEF000A1A5B
S31500001C701B0C050003340114338594019304000002
S31500001C8033048500630A0402EF000A279304050063
S31500001C9013050400EF004A2693050500138504008A
S31500001CA0EFF0C929B7270E0083B587D0EFF05909A1
S31500001CB0EF00CA159B040500B7E50C0013060A00E1
S31500001CC09385856013850900EF905A440336011207
S31500001CD0B7E50C009385856213850900EF901A43DA
S31500001CE003368112B7E50C0093860B009385856455
S31500001CF013850900EF909A4103360113B7E50C00EE
S31500001D0093060B009385856713850900EF901A40AB
S31500001D1003368113B7E50C0093060C009385056B1B
S31500001D2013850900EF909A3E03360114B7E50C00BF
S31500001D30938604009385856E13850900EF901A3DFE
S31500001D40833481140335811513040000638404026F
S31500001D50EF008A1A1304050013850400EF00CA1960
S31500001D609305050013050400EFF0491DEF000A0A6C
S31500001D701B04050003370115B7E50C0093850572B2
S31500001D803386E4009386040013850900EF901A3821
S31500001D90B7E50C00130604009385857513850900C5
S31500001DA0EF90DA36833401011307000063880402DA
S31500001DB013850A00EF004A14130405001385040076
S31500001DC0EF008A139305050013050400EFF00917C9
S31500001DD0EF200A0CEF109A5E130705008336010107
S31500001DE0B7E50C0013860A009385857713850900ED
S31500001DF0EF90DA3113850900EF904A296FF05F8280
S31500001E009306811A13060400930539B0138504005E
S31500001E10EF30401B13070500630405006F104000F8
S31500001E20833701160339811A637EFA04033B0117CF
S31500001E30630C0B0213050900EF000A0C930B050057
S31500001E4013050B00EF004A0B9305050013850B00E5
S31500001E50EFF0C90EB7270E0083B587D0EFF0496EB5
S31500001E60EFF0D97A1B070500B7D50C0093060900D9
S31500001E70130604009385852F13850900EF901A2910
S31500001E800339811AB71500009306811A1306040058
S31500001E90938545B013850400EF30C0128337810166
S31500001EA013070500B3872701233CF10063040500EF
S31500001EB06F00907983360116930710000339811A53
S31500001EC063FED704033B0117630C0B0213050900DD
S31500001ED0EF008A02930B050013050B00EF00CA0101
S31500001EE09305050013850B00EFF04905B7270E0093
S31500001EF083B587D0EFF0C964EFF059711B07050071
S31500001F00B7D50C00930609001306040093858537A0
S31500001F1013850900EF909A1F0339811AB71500003F
S31500001F209306811A13060400938555B013850400A1
S31500001F30EF3040098337010213070500B3872701F5
S31500001F402330F102630405006F00507183360116D9
S31500001F5093071000033B811A63FED7040339011768
S31500001F60630C090213050B00EFF01979930B0500BA
S31500001F7013050900EFF059789305050013850B004A
S31500001F80EFE0D97BB7270E0083B587D0EFF0495B2A
S31500001F90EFF0D9671B070500B7D50C0093060B00B9
S31500001FA0130604009385853F13850900EF901A16E2
S31500001FB0033B811A37190000930601181306040023
S31500001FC0930569B013850400EF20D07F8337810223
S31500001FD0B38767012334F102630405006F0050697B
S31500001FE09306811813060400930589B0138504002F
S31500001FF0EF20507D630405006F00D0699306011938
S3150000200013060400930599B013850400EF20907B16
S31500002010630405006F00506A9306811913060400D5
S315000020209305A9B013850400EF20D0796304050059
S315000020306F00D06A9306011A130604009305C9B00F
S3150000204013850400EF201078630405006F00506BC1
S315000020509306811A130604009305D9B0138504006C
S31500002060EF205076930B0500630405006F00906B1C
S31500002070833501058337811883360119033D81199C
S31500002080B385F5002338B10483358105833C011AF5
S31500002090033C811AB385D500233CB1048335010482
S315000020A00336011613071000B385A5012330B104CA
S315000020B083358103033B0118B3859501233CB102A7
S315000020C083350103B38585012338B102637EC716C4
S315000020D0033601173389D7003309A901330999015A
S315000020E02334C10E3309890113070000630806046F
S315000020F013050B002334D1102330F110EFF0D95F14
S315000021000336810E2338A10E13050600EFF0D95EC3
S315000021100337010F9305050013050700EFE0196269
S31500002120B7270E0083B587D0EFF08941EFF0194E3F
S3150000213083368110833701101B0705002338D10E23
S315000021402334F10E6302094C130509002330E11014
S31500002150EFF0995A8337810E13090500B72B0E004D
S3150000216013850700EFF0595993050900EFE0195D53
S3150000217083B58BD0EFF0C93CEFF059498336010F98
S315000021809B0705002334F10E13850600EFF0D956A0
S3150000219093050900EFE0995A83B58BD0EFF0493AE1
S315000021A0EFF0D9461308050013050D001B0D0800B6
S315000021B0EFF0995493050900EFE0595883B58BD099
S315000021C0EFF00938EFF099449308050013850C00E9
S315000021D09B8C0800EFF0595293050900EFE0195661
S315000021E083B58BD0EFF0C935EFF059429B0B050054
S315000021F013050C00EFF0595093050900EFE0195450
S31500002200B7270E0083B587D0EFF08933EFF019407A
S315000022108337810E033701101B050500B7D50C0067
S3150000222093060B002334A1002330710193880C0020
S3150000223013080D00130604009385055F1385090036
S31500002240EF90CA6C033B0118B71500009306811A7C
S3150000225013060400938575B013850400EF2090568D
S315000022608337810413070500B38767012334F1041C
S31500002270E31A054C83360116930710000339811AB9
S3150000228063FED704033B0117630C0B021305090019
S31500002290EFF09946930B050013050B00EFF0D945B7
S315000022A09305050013850B00EFE05949B7270E008B
S315000022B083B587D0EFF0C928EFF059351B07050025
S315000022C0B7D50C0093060900130604009385856AAA
S315000022D013850900EF908A630339811AB715000048
S315000022E09306011A130604009385E5B013850400CE
S315000022F0EF20504D83370106B38727012330F106BF
S31500002300E31C054483360116130710008337011AB0
S315000023106366D71803378106B71500009306811A3E
S31500002320B307F70013060400938515B1138504005F
S315000023302334F106EF20104993060500E310054407
S3150000234003360116130710008337811A6376C70414
S315000023500339011A6306090213850700EFF0D9391C
S31500002360130B050013050900EFF019399305050055
S3150000237013050B00EFE0993CEFF059299B06050089
S31500002380B7D50C001306040093850579138509005B
S31500002390EF90CA578337811A03370107B715000034
S315000023A09306011AB307F700130604009385F5B0E8
S315000023B0138504002338F106EF20D040E314053ED0
S315000023C083360116130710008337011A6368D70E88
S315000023D003378107B71500009306811AB307F70084
S315000023E013060400938525B113850400233CF106EA
S315000023F0EF20503D93060500E318053C0336011611
S31500002400130710008337811A6376C7040339011A4C
S315000024106306090213850700EFF0192E130B05005A
S3150000242013050900EFF0592D9305050013050B0060
S31500002430EFE0D930EFF0991D9B060500B7E50C00DB
S31500002440130604009385858613850900EF900A4CD0
S315000024508337811A03370108B71500009306811ADE
S31500002460B307F70013060400938505B1138504002E
S315000024702330F108EF201035E3120536833B0116B1
S31500002480930710008336811A63EA7705833781083C
S31500002490B387D7002334F1086FF08FC4B7D50C008B
S315000024A093860700130604009385057213850900B9
S315000024B0EF90CA458337011A6FF0DFE5B7E50C00E8
S315000024C0938607001306040093850580138509008B
S315000024D0EF90CA438337011A6FF09FEFB7E50C0000
S315000024E0130604009385858D13850900EF900A4233
S315000024F0833781088336811A833B0116B387D70059
S315000025002334F1086FF0CFBD371900009306811A06
S31500002510130604009305C9B013850400EF20902A22
S31500002520E318054C0337810B8337811A9306811A0A
S3150000253013060400B307F7009305D9B0138504000A
S31500002540233CF10AEF201028E316054C0337010B54
S315000025508337811A9306811A13060400B307F7001E
S315000025609305E9B0138504002338F10AEF2090257E
S31500002570E31A05540337010C8337811A9306811A2F
S3150000258013060400B307F7009305F9B0138504009A
S315000025902330F10CEF201023E31A05560337810C84
S315000025A08337811A9306811A13060400B307F700CE
S315000025B0930509B1138504002334F10CEF20902014
S315000025C0E31405520337010D8337811A9306811AE6
S315000025D013060400B307F700930519B11385040029
S315000025E02338F10CEF20101EE31405540337810D38
S315000025F08337811AB307F700233CF10C63140400F8
S315000026006FF00F9D6FF08FAD13050000930700006C
S31500002610930C0000130D00006FF05FC09306811944
S31500002620130604009305B9B113850400EF20901931
S31500002630E314052A9306011A130604009305C9B18B
S3150000264013850400EF201018E31A052A9306811A51
S31500002650130604009305D9B113850400EF209016E4
S31500002660130B0500E310052E833B81190335011A70
S315000026700339811A3385AB0033092501630A090240
S31500002680EFF09907130B050013050900EFF0D906C3
S315000026909305050013050B00EFE0590AB7270E0056
S315000026A083B587D0EFE0D969EFF049761B0B0500BB
S315000026B0B7E50C0093860B00130604009385859DF1
S315000026C013850900EF908A248336011AB7E50C00BA
S315000026D0130604009385859F13850900EF900A234E
S315000026E08336811AB7E50C0013070B0013060400A6
S315000026F0938585A113850900EF904A2183378109C7
S31500002700639407006FF04F8B371900009306811909
S3150000271013060400930539B013850400EF20900AD0
S31500002720E31005209306011A13060400930549B029
S3150000273013850400EF201009E31A05289306811A71
S3150000274013060400930559B013850400EF20900783
S31500002750930B0500E31C0524033C8119833C011AF5
S315000027601309000063040C0413850C00EFF0C9780C
S315000027701309050013050C00EFF009789305050011
S3150000278013050900EFE0897BB7270E0093050500C6
S3150000279003B507D1EFF00916B7270E0083B587D02A
S315000027A0EFE0195AEFF089661B090500033B811A11
S315000027B0338B6C01630C0B0213850C00EFF0C973AD
S315000027C0930B050013050B00EFF009739305050045
S315000027D013850B00EFE08976B7270E0083B587D007
S315000027E0EFE01956EFF089629B0B0500B7E50C0088
S315000027F093060C0013060400938585B31385090020
S31500002800EF90CA108336011AB7E50C0013070900CA
S3150000281013060400938585B513850900EF900A0F0A
S315000028208336811AB7E50C0013870B0013060400E4
S31500002830938505B913850900EF904A0D8337010A80
S31500002840639407006FE01FF837190000930601181C
S3150000285013060400930569B013850400EF20807603
S31500002860E31405129306811813060400930579B044
S3150000287013850400EF200075E316050E9306011973
S3150000288013060400930589B013850400EF208073B6
S31500002890E316051C9306811913060400930599B0E7
S315000028A013850400EF200072E31805189306011A39
S315000028B0130604009305A9B013850400EF20807069
S315000028C0E310051E9306811A130604009305B9B09A
S315000028D013850400EF20006F130B0500E312051AA1
S315000028E0833B011803390119130D000063840B049F
S315000028F013050900EFF04960130C050013850B0062
S31500002900EFF0895F9305050013050C00EFE00963FE
S31500002910B7270E009305050003B507D1EFE0997DB3
S31500002920B7270E0083B587D0EFE09941EFF0094E47
S315000029301B0D0500033C811803378119930C000019
S3150000294063080C04130507002334E10EEFF0C95A9F
S31500002950930C050013050C00EFF0095A93050500CA
S3150000296013850C00EFE0895DB7270E00930505007F
S3150000297003B507D1EFE01978B7270E0083B587D0E6
S31500002980EFE0193CEFF089480337810E9B0C0500F8
S315000029908337011A33858B01130C0000B307F5004A
S315000029A02334F10E638007042338E10EEFF0C95497
S315000029B08337810E130C050013850700EFF0C9530A
S315000029C09305050013050C00EFE04957B7270E00E5
S315000029D083B587D0EFE0D936EFF049430337010FCF
S315000029E01B0C05003305E9000339811A330925015B
S315000029F0630A0902EFF04950130B0500130509009D
S31500002A00EFF0894F9305050013050B00EFE009531E
S31500002A10B7270E0083B587D0EFE09932EFF0093F74
S31500002A201B0B0500B7E50C0093860B00130604008C
S31500002A30938585DA13850900EF805A6D83368118F0
S31500002A40B7E50C0013060400938585DC13850900A1
S31500002A50EF80DA6B83360119B7E50C0013070D001A
S31500002A6013060400938505DF13850900EF801A6AB3
S31500002A7083368119B7E50C0013870C001306040092
S31500002A80938585E213850900EF805A688336011A1B
S31500002A90B7E50C0013070C0013060400938505E642
S31500002AA013850900EF809A668336811AB7E50C0014
S31500002AB013070B0013060400938505EA1385090026
S31500002AC0EF80DA646FE01FD0130B050013060500D4
S31500002AD0B7E50C0037D50C009385852F13058506C1
S31500002AE0EFC00A2913090B006FE09FB3930B050093
S31500002AF013060500B7D50C0037D50C0093850522C3
S31500002B0013058506EFC0CA2613890B006FE05FB177
S31500002B10930B050013060500B7D50C0037D50C003E
S31500002B209385052613058506EFC08A2413890B00B5
S31500002B306FE01FAF638A0D5613850D00EFF0C93B9A
S31500002B401304050003358101B7240E00EFF0C93ADE
S31500002B5093050400EFE0893E83B584D0EFE0591E6B
S31500002B60EFF0C92A9B0C050003350102EFF0C938C6
S31500002B7093050400EFE0893C83B584D0EFE0591C4F
S31500002B80EFF0C9281B0C050003358102EFF0C936AA
S31500002B9093050400EFE0893A83B584D0EFE0591A33
S31500002BA0EFF0C9269B0B050003358104EFF0C9340D
S31500002BB093050400EFE0893883B584D0EFE0591817
S31500002BC0EFF0C9241B0B050003350106EFF0C932EF
S31500002BD093050400EFE0893683B584D0EFE05916FB
S31500002BE0EFF0C9221B0A0500033D8106930400008D
S31500002BF063060D0203350107EFF0093013040500E3
S31500002C0013050D00EFF0492F930505001305040089
S31500002C10EFE0C932EFF0891F9B040500033D8107F1
S31500002C201304000063060D0203350108EFF0C92CFA
S31500002C301304050013050D00EFF0092C930505009C
S31500002C4013050400EFE0892FEFF0491C1B04050073
S31500002C500337810383370103033D0105833D810566
S31500002C6003380104B387E70003368101B387A70160
S31500002C70B7E50C00B387B70193860C0093858536BC
S31500002C8013850900B38C0701EF805A480336010209
S31500002C90B7E50C0093060C009385053913850900EA
S31500002CA0EF80DA4603368102B7E50C0093860B0007
S31500002CB09385853B13850900EF805A4563820C4056
S31500002CC013850C00EFF04923930B050013050D0047
S31500002CD0EFF0892293850B00372C0E00EFE00926D2
S31500002CE083358CD0EFE0D905EFF049129B0C050037
S31500002CF013850D00EFF0492093850B00EFE00924C2
S31500002D0083358CD0EFE0D903EFF049101B0D050099
S31500002D1003350104EFF0491E93850B00EFE009220D
S31500002D2083358CD0EFE0D901EFF0490E9B0D0500FD
S31500002D3003358103EFF0491C93850B00EFE0092072
S31500002D4083358CD0EFE0C97FEFF0490C9B08050076
S31500002D5003350103233C1101EFF0091A93850B009B
S31500002D60EFE0C91D83358CD0EFE0897DEFF0090ACD
S31500002D70833881019B06050003368104B7E50C0004
S31500002D8013880D0093070D0013870C002330D10024
S31500002D909385053E93060B0013850900EF801A37CD
S31500002DA003360106B7E50C0093060A009385054431
S31500002DB013850900EF809A3503368106B7E50C00C6
S31500002DC09385854613850900EF805A3403368107BB
S31500002DD0B7E50C009385054813850900EF801A3383
S31500002DE003368108B7E50C009385854913850900EC
S31500002DF0EF80DA31B7E50C00138604009385054BA6
S31500002E0013850900EF809A30B7E50C00130604001D
S31500002E109385054D13850900EF805A2F6FE09FF8C3
S31500002E20B7D50C00130605002338A1009385852A23
S31500002E3037D50C0013058506EFB09A7303370101E9
S31500002E40130907006FE0CFFDB7D50C001306050088
S31500002E502338A100938585326FF09FFDB7D50C000E
S31500002E60130605002338A1009385853A6FF05FFCB1
S31500002E70930B050013060500B7D50C0037D50C00DB
S31500002E809385854213058506EFB09A6E13890B006C
S31500002E906FE00FF9930B050013060500B7D50C007C
S31500002EA037D50C009385854713058506EFB05A6C18
S31500002EB013890B006FE0CFF6930B05001306050090
S31500002EC0B7D50C0037D50C009385054C1305850640
S31500002ED0EFB01A6A13890B006FE08FF4930B0500AD
S31500002EE013060500B7D50C0037D50C009385855021
S31500002EF013058506EFB0DA6713890B006FE04FF212
S31500002F00930B050013060500B7D50C0037D50C004A
S31500002F109385055513058506EFB09A6513890B0051
S31500002F206FE00FF013060500B7D50C0037D50C007F
S31500002F309385055A13058506EFB09A6313890B002E
S31500002F406FE00FEEB7D50C00130605002338A1007D
S31500002F50938585656FF0DFED130B050013060500FD
S31500002F60B7D50C0037D50C009385856D13058506FE
S31500002F70EFB01A6013090B006FE08FEAB7D50C00AB
S31500002F80130605002338A1009385057437D50C0078
S31500002F9013058506EFB0DA5D833601011389060055
S31500002FA06FE00FE8130B050013060500B7D50C00FC
S31500002FB037D50C009385857B13058506EFB05A5BE4
S31500002FC013090B006FE0CFE5B7E50C00130605000B
S31500002FD02338A100938505826FF05FFB130B050074
S31500002FE013060500B7E50C0037D50C009385058957
S31500002FF013058506EFB0DA5713090B006FE04FE2B1
S31500003000233C010C2338010C2334010C2330010C22
S315000030102338010A233C010A23300108233801061C
S3150000302023340108233C0106233401062338010218
S31500003030233C010223300104233C0104233801040C
S315000030402330010623340104233401022330010214
S31500003050233C0100930D0000930A00006FE09F914E
S31500003060930B050013060500B7E50C0037D50C00D9
S315000030709385052B13058506EFB09A4F13890B0030
S315000030806FE00FDA930B050013060500B7E50C0099
S3150000309037D50C009385852613058506EFB05A4D66
S315000030A013890B006FE0CFD7130A0000930C0000C2
S315000030B0130C0000930B0000130B00006FF0DFB23F
S315000030C093060000930C0000130D0000930D000002
S315000030D0930800006FF05FCA930B05001306050006
S315000030E0B7E50C0037D50C009385858F130585064B
S315000030F0EFB01A4813890B006FE08FD2930B0500CF
S3150000310013060500B7E50C0037D50C00938505942A
S3150000311013058506EFB0DA4513890B006FE04FD033
S31500003120930B050013060500B7E50C0037D50C0018
S31500003130938505A513058506EFB09A4313890B0001
S315000031406FE00FCE13060500B7E50C0037D50C006F
S315000031509385859813058506EFB09A4113090B00F0
S315000031606FE00FCC930B050013060500B7E50C00C6
S3150000317037D50C00938585C113058506EFB05A3FF8
S3150000318013890B006FE0CFC9930B050013060500EA
S31500003190B7E50C0037D50C00938505BD13058506EC
S315000031A0EFB01A3D13890B006FE08FC713060500B9
S315000031B0B7E50C0037D50C00938585AE130585065B
S315000031C0EFB01A3B13890B006FE08FC5930B050018
S315000031D013060500B7E50C0037D50C00938585A9C5
S315000031E013058506EFB0DA3813890B006FE04FC37D
S315000031F0930B050013060500B7E50C0037D50C0048
S31500003200938505EE13058506EFB09A3613890B00F4
S315000032106FE00FC1930B050013060500B7E50C0020
S3150000322037D50C00938505F213058506EFB05A34A1
S3150000323013890B006FE0CFBE930B05001306050044
S31500003240B7E50C0037D50C00938585CB13058506AD
S31500003250EFB01A3213890B006FE08FBC930B050099
S3150000326013060500B7E50C0037D50C00938585C617
S3150000327013058506EFB0DA2F13890B006FE04FBAFE
S3150000328013060500B7E50C0037D50C00938585D5E8
S3150000329013058506EFB0DA2D13090B006FE04FB862
S315000032A0930B050013060500B7E50C0037D50C0097
S315000032B0938585D013058506EFB09A2B13890B00ED
S315000032C06FE00FB6930B050013060500B7E50C007B
S315000032D037D50C00938505F613058506EFB05A29F8
S315000032E013890B006FE0CFB3930B0500130605009F
S315000032F0B7E50C0037D50C00938505FE130585064A
S31500003300EFB01A2713890B006FE08FB1930B0500FE
S3150000331013060500B7E50C0037D50C00938505FAB2
S3150000332013058506EFB0DA2413890B006FE04FAF63
S31500003330130B050013060500B7E50C0037D50C0086
S315000033409385850213058506EFB09A2213090B00B3
S315000033506FE00FAD930B050013060500B7E50C00F3
S3150000336037D50C009385050C13058506EFB05A205A
S3150000337013890B006FE0CFAA930B05001306050017
S31500003380B7E50C0037D50C009385050713058506B0
S31500003390EFB01A1E13890B006FE08FA8130B050000
S315000033A013060500B7E50C0037D50C0093850521FB
S315000033B013058506EFB0DA1B13090B006FE04FA665
S315000033C0930B050013060500B7E50C0037D50C0076
S315000033D09385851B13058506EFB09A1913890B0093
S315000033E06FE00FA4930B050013060500B7E50C006C
S315000033F037D50C009385051613058506EFB05A17C9
S3150000340013890B006FE0CFA1930B0500130605008F
S31500003410B7E50C0037D50C00938505111305850615
S31500003420EFB01A1513890B006FE08F9F130101FA95
S3150000343023349104233C3103938405009309060049
S31500003440930520001306810023302105233C110437
S31500003450233881042338410323345103130905001B
S31500003460EF0090116304050413040500130605001C
S31500003470B7E50C0037D50C009385057A130585064C
S31500003480EFB01A0F833081051305040003340105DC
S31500003490833481040339010483398103033A010328
S315000034A0833A8102130101066780000013060101B9
S315000034B09305100013050900EF00100C1304050016
S315000034C063100506033A8100833A01013B065A035D
S315000034D063649608E38809FA130681019305600080
S315000034E013050900EF0050091304050063180504CD
S315000034F0939704021387FAFF93D70702B307F700DF
S31500003500B3D757039B870700335AFA0283378101E3
S315000035101B0A0A0033DA470323A049016FF09FF61E
S3150000352013060500B7E50C0037D50C009385057E1C
S3150000353013058506EFB0DA036FF0DFF41306050016
S31500003540B7F50C0037D50C0093850587130585065E
S31500003550EFB01A026FF01FF337F50C0093850400E5
S3150000356013050582EFB0DA001304F0FF6FF09FF148
S31500003570130101DB2334112423308124233C9122BF
S31500003580233821232334312323304123233C512163
S315000035902338612123347121233081216302052ED2
S315000035A093840500638E052C130B0600630A062C14
S315000035B0930A05001305810FEF405446B7470D00E7
S315000035C09387073103B48700231C011C83BB0701C3
S315000035D0833784FE37590D00130909451307012067
S315000035E0B307F700233C210F2338011C2330011EAB
S315000035F02334011E2338011E233C011E233C810077
S3150000360023BC77E123300102033584FE9307810151
S31500003610930500003385A700EF40C41E374A0D000E
S31500003620B7490D00130A8A349389093713058102B5
S31500003630233C4101233C310FEFA0530D930581023A
S315000036401305810FEF40041C1306800093850400C8
S3150000365013058102EFB0034483378101130781010B
S3150000366083B787FEB307F7006306051C93050000C2
S3150000367013850700EF3014228327811193F7570033
S31500003680639C0712130620009305000013058101B1
S31500003690EF80843F13058101EF80841A2334A10053
S315000036A02338B100930405006340051E630E051818
S315000036B0EF30501C1386040093050000130C050020
S315000036C0EFB04A4F13060000930500001305810171
S315000036D0EF80843B1386040093050C0013058101DB
S315000036E0EF70143893060B001386040093050C0044
S315000036F013850A00EFD0DFD8930405006310050A8E
S3150000370063060C0013050C00EF205012B7470D009E
S315000037109387072513058102233C4101233C310F82
S315000037202334F102EFB0430813050107EF30906729
S31500003730B7770D00938787A8130501062334F10296
S31500003740EF500046833784FE13070120233C810097
S31500003750B307F70023BC77E11305810F233001027D
S31500003760233C210FEF40D4578330812403340124B6
S315000037700339012383398122033A0122833A8121C5
S31500003780033B0121833B8120033C01201385040078
S315000037908334812313010125678000001306050089
S315000037A0B7F50C0037D50C009385059013058506F3
S315000037B0EFB00A5C6FF0DFF4B7CA1000B7F50C0083
S315000037C0130670009385058B13858AB4EFF00520E8
S315000037D013850400EFE01A741306050093850400B0
S315000037E013858AB4EFF0851EB7F50C001306A0000A
S315000037F09385858B13858AB4EFF0451D13878AB4AC
S315000038008337070083B787FEB387E70083B4070FC4
S315000038106382040883C78403638C070283C5340468
S3150000382013858AB4EFE01559EFE0053E9304F0FFE7
S315000038306FF0DFED83A507021385070093E54500CA
S31500003840EF3054056FF05FE3130C00006FF09FE755
S3150000385013850400EF70417403B70400B7470000F6
S31500003860938787CC033707039305A000E30AF7FA8B
S3150000387013850400E7000700930505006FF05FFA63
S315000038809304F0FF6FF05FEE37F50C001305858C9F
S31500003890EFC0DFC7EFC0DFB1130405001305810FCA
S315000038A0233C210FEF40D44313050400EF309A1157
S315000038B093070500033784FE233C81001384070029
S315000038C093070120B387E70023BC77E12330010289
S315000038D06FF0DFFC1304050063060C0013050C00F3
S315000038E0EF20C07413058101EFB0036C13050400CB
S315000038F0EF305A0DEF208074EF20C07D6FF0DFE2CD
S31500003900130405006FF01FFE9304050013058102E2
S31500003910EFA0D37C938704006FF0DFF9130101DB7E
S315000039202334112423308124233C9122233821235C
S315000039302334312323304123233C51212338612171
S3150000394023347121233081216302052E93840500DF
S31500003950638E052C130B0600630A062C930A0500DA
S315000039601305810FEF40940BB7470D00938707317E
S3150000397003B48700231C011C83BB0701833784FE25
S3150000398037590D001309094513070120B307F7003E
S31500003990233C210F2338011C2330011E2334011E32
S315000039A02338011E233C011E233C810023BC77E102
S315000039B023300102033584FE93078101930500003D
S315000039C03385A700EF301464374A0D00B7490D0060
S315000039D0130A8A349389093713058102233C41016E
S315000039E0233C310FEFA08352930581021305810F0B
S315000039F0EF3054611306800093850400130581029D
S31500003A00EFB04309833781011307810183B787FE2E
S31500003A10B307F7006306051C93050000138507002E
S31500003A20EF3044678327811193F75700639C071291
S31500003A30130620009305000013058101EF80C404DE
S31500003A4013058101EF70D45F2334A1002338B10040
S31500003A50930405006340051E630E0518EF30806170
S31500003A601386040093050000130C0500EFB08A14BA
S31500003A70130600009305000013058101EF80C400C2
S31500003A801386040093050C0013058101EF70447D35
S31500003A9093060B001386040093050C0013850A0099
S31500003AA0EFD05F89930405006310050A63060C00D6
S31500003AB013050C00EF208057B7470D0093870725A5
S31500003AC013058102233C4101233C310F2334F102CB
S31500003AD0EFA0934D13050107EF30D02CB7770D00FB
S31500003AE0938787A8130501062334F102EF50400B94
S31500003AF0833784FE13070120233C8100B307F700B8
S31500003B0023BC77E11305810F23300102233C210FEB
S31500003B10EF40141D8330812403340124033901232B
S31500003B2083398122033A0122833A8121033B012111
S31500003B30833B8120033C01201385040083348123C9
S31500003B40130101256780000013060500B7F50C0078
S31500003B5037D50C009385859313058506EFB04A216A
S31500003B606FF0DFF4B7CA1000B7F50C00130670004B
S31500003B709385058B13858AB4EFE05565138504009C
S31500003B80EFE05A39130605009385040013858AB4BD
S31500003B90EFE0D563B7F50C001306A0009385858B7F
S31500003BA013858AB4EFE0956213878AB483370700DA
S31500003BB083B787FEB387E70083B4070F63820408E1
S31500003BC083C78403638C070283C5340413858AB4D0
S31500003BD0EFE0551EEFE045039304F0FF6FF0DFEDD5
S31500003BE083A507021385070093E54500EF30844A55
S31500003BF06FF05FE3130C00006FF09FE7138504007E
S31500003C00EF70813903B70400B7470000938787CC6C
S31500003C10033707039305A000E30AF7FA13850400A8
S31500003C20E7000700930505006FF05FFA9304F0FFC5
S31500003C306FF05FEE37F50C001305858CEFC01F8D16
S31500003C40EFC00FF7130405001305810F233C210F66
S31500003C50EF40140913050400EF30CA569307050018
S31500003C60033784FE233C8100138407009307012059
S31500003C70B387E70023BC77E1233001026FF0DFFC56
S31500003C801304050063060C0013050C00EF20003A30
S31500003C9013058101EFB0433113050400EF308A525A
S31500003CA0EF20C039EF2000436FF0DFE21304050078
S31500003CB06FF01FFE9304050013058102EFA0134267
S31500003CC0938704006FF0DFF9138505006780000015
S31500003CD067800000130101FF23341100EF60DA430F
S31500003CE083308100B7470F00938707243305F50219
S31500003CF01301010167800000130101FD233C9100BF
S31500003D009304050023308102233821012334310135
S31500003D102334110293890500EF601A4003B40400AE
S31500003D20B7D79A3B938707A03304F40283B784007E
S31500003D30B7440F0013090500938404243304F400E8
S31500003D40EF609A3DB3072541B3879702E3EA87FE02
S31500003D506386090023B0090023B409008330810279
S31500003D60033401028334810103390101833981005F
S31500003D701301010367800000630C050A93077000B6
S31500003D8063ECB70AB7F70C009387071F93952500D6
S31500003D90B385F50083A7050067800700034755062E
S31500003DA09307100013050000B397E7002330F600D1
S31500003DB06780000083378506130500002330F60070
S31500003DC06780000083470506130500002330F600D0
S31500003DD06780000083471506130500002330F600B0
S31500003DE06780000083472506130500002330F60090
S31500003DF067800000833705061305000093D7870107
S31500003E009397070393D707032330F60067800000D4
S31500003E10930700042330F6001305000067800000B6
S31500003E2083370507130500002330F600678000007E
S31500003E301305F0FF6780000083B7010213860500B3
S31500003E40B7F50C0003B58701130101FF938585972C
S31500003E5023341100EF709A2BEF609A146308051053
S31500003E60130101FE233881000334850323349100B6
S31500003E70233C110093040500630A040013050400A3
S31500003E8003340400EF20801AE31A04FE03B6040389
S31500003E9003B584029305000013163600EFA09A516D
S31500003EA003B5840223B0040423BC0402938784056B
S31500003EB06304F500EF20801703B40402630A0400CC
S31500003EC0832784001B87F7FF2324E4006306070685
S31500003ED003B4040163020404832784001B87F7FFED
S31500003EE02324E400631A0702833704001305040041
S31500003EF083B70701E78007008327C4001B87F7FF06
S31500003F002326E400631A0700833704001305040020
S31500003F1083B78701E780070013850400EF200011AF
S31500003F2083308101033401018334810013050000CD
S31500003F3013010102678000008337040013050400A3
S31500003F4083B70701E78007008327C4001B87F7FFB5
S31500003F502326E400E31E07F6833704001305040056
S31500003F6083B78701E78007006FF09FF61305F0FF20
S31500003F70678000006308053A130101FB23347101D1
S31500003F802334110423308104233C91022338210376
S31500003F902334310323304103233C5101233861018B
S31500003FA023308101938B0600638C0634138B050046
S31500003FB063880534033A85009384F5FF930A050068
S31500003FC083674A0103368A01B384F400B307F040DD
S31500003FD0B3F4F400630A0622130906008337890244
S31500003FE06384070E03B78703637897006F00C00DDD
S31500003FF003B78703636897001384070083B7070036
S31500004000E39807FE0336840103370401033C840367
S315000040108339040383368400630606282338E600C2
S315000040200337040163040700233CC7002338040058
S31500004030233C04006386061C23B0F6008337040085
S315000040406384070023B4D70083678901330C9C403F
S315000040502330040023340400637CFC0E83370902FA
S315000040602330F4026384070023B4870283378A026D
S315000040702330890213058001B384970023349A0202
S31500004080EF20507F23305501233435012338650155
S3150000409023B0AB0013050000833081040334010410
S315000040A0833481030339010383398102033A010210
S315000040B0833A8101033B0101833B8100033C0100FC
S315000040C0130101056780000003390900E31809F0B0
S315000040D083670A0183390A00138CF7FF330C9C00AF
S315000040E0B307F040337CFC008337860033073C017E
S315000040F063F8E7128339060103360600B3893701F0
S31500004100E31406FE83378A003387890163FAE710D2
S3150000411037F50C001305059AEFA0DA7B37D40C00AF
S31500004120B7F50C001306F0FF9385859B13058406EF
S31500004130EFA01A44B7F50C001306F0FF9385059E11
S3150000414013058406EFA0DA421305F0FF6FF0DFF4E3
S31500004150233C940213050004EF20D0718337090332
S31500004160B3893401233005002334050023380500C4
S31500004170233C05002330050223340502233835038A
S31500004180233C8503638C0718930600006F004001EB
S3150000419003B7070193860700630607149307070012
S315000041A003B70703E36637FF2338F500233CD50042
S315000041B06380061423B8A60023BCA70083378902B0
S315000041C063840714930600006F00400103B70700DD
S315000041D093860700630E070E9307070003B787034E
S315000041E0E366ECFE2330F5002334D5006386061023
S315000041F023B0A6008339040323B4A7006FF01FE69B
S315000042002334F9026FF0DFE383670A0183390A007A
S31500004210138CF7FF330C9C00B307F040337CFC0093
S3150000422013058003EF20106583274A011309050053
S31500004230233005002334350123388501232CF5006E
S315000042402330050213050004EF20D06283378A016C
S31500004250233005002334050023380500233C0500E0
S31500004260233005022334050223383503233C850316
S315000042702338A9022334A902130405006388070022
S315000042808336890003B7870063F8E6022330F90016
S31500004290233C2A01636C9C089307000093060000E8
S315000042A0130700002338E902130600006FF09FD7BA
S315000042B003B787006378D7001386070083B7070024
S315000042C0E39807FE2330F900233026016FF09FFCA8
S315000042D0233005002334F5008339040323B0A700F7
S315000042E06FF0DFD7233CF50023B8A7006FF01FED72
S315000042F02338A9026FF05FEC2334A9026FF09FEF19
S315000043001305F0FF6FF05FD9233005002334050055
S31500004310833904032334A9026FF05FD42338A9023A
S315000043206FF0DFE91305F0FF678000008337800137
S31500004330730010001304050013050900EF10104F59
S3150000434013050400EF201A68630A0532130101FB06
S31500004350233471012334110423308104233C910258
S31500004360233821032334310323304103233C5101F5
S315000043702338610123308101930B0700630A072C60
S31500004380130B06006306062C033A85009309F6FF15
S31500004390930A050083670A0103378A001384050020
S315000043A0B389F900B307F040B3F9F900B3843501D6
S315000043B06360972C83378A01639007026F000008B9
S315000043C06366040363F496066372980263F08602DA
S315000043D083B707006384070683B6870003B807011F
S315000043E033880601E37ED4FC63F4960437F50C00AB
S315000043F0130505A9EFA01A4E37D40C00B7F50C002B
S315000044001306F0FF938585A313058406EFA05A16BD
S31500004410B7F50C001306F0FF938505A61305840671
S31500004420EFA01A151305F0FF6F00400EE3E286FABF
S31500004430E3FE04FB83B70700E39007FA1305800346
S31500004440EF20504383274A01130C0500130500048F
S3150000445023300C0023348C0023383C01232CFC0031
S3150000446023300C02EF20104183378A0123300500E8
S315000044702334050023380500233C050023300502BC
S315000044802334050223388502233C35032338AC0246
S315000044902334AC02130905006388070083368C00B9
S315000044A003B7870063F0E60A2330FC0083278C01FC
S315000044B0233C8A0123380C0223380900233C0900D7
S315000044C023340C0223300900233409006386070ACB
S315000044D083370C022330F9026384070023B42703D1
S315000044E083378A0223302C0313058001B3893701F1
S315000044F023343A03EF201038233055012334850046
S315000045002338650123B0AB00130500008330810416
S31500004510033401048334810303390103833981029F
S31500004520033A0102833A8101033B0101833B810087
S31500004530033C0100130101056780000003B78700F3
S315000045406378D7001386070083B70700E39807FE52
S315000045502330FC0083278C012330860123380C028C
S3150000456023380900233C090023340C0223300900B8
S3150000457023340900E39E07F413050004233C3903A2
S31500004580EF20502F83370C0323300500233405001A
S3150000459023380500233C0500233005022334050299
S315000045A023389502233C05026380070C930600001E
S315000045B06F00400103B707019386070063020706F1
S315000045C09307070003B70703E36697FE2338F50052
S315000045D0233CD5006384060623B8A60023BCA700A7
S315000045E083378C02638A0706930600006F0040013A
S315000045F003B7070093860700630A070293070700BD
S3150000460003B78703E31607FE2330F5002334D500EE
S31500004610638A060223B0A60023B4A7006FF05FEBFF
S31500004620233CF50023B8A7006FF09FFB233005005D
S315000046302334F50023B0A7006FF09FE92338AC02BE
S315000046406FF0DFF92334AC0223B4A7006FF05FE804
S315000046501305F0FF6FF09FEB2330050023340500B0
S315000046602334AC026FF0DFE62338AC026FF05FF75D
S3150000467037F50C00130505A16FF0DFD71305F0FF22
S31500004680678000001304050013050C00EF10101AD4
S3150000469013050400EF201A33130101FD23308102B4
S315000046A023341102233C91002338210123343101A4
S315000046B013040000630C05068337050003378500E5
S315000046C09304050003B987000334890163040408D1
S315000046D083378400636CF70683360401B387D700FB
S315000046E06376F70683350402639805006F000006BB
S315000046F083B50502638C050483B70503E31AF7FE49
S315000047001305040083B98503EF10402383370402A1
S31500004710638E07048337890213040000B387374189
S315000047202334F90213850400EF1050108330810200
S3150000473013050400033401028334810103390101A6
S3150000474083398100130101036780000003340400EC
S31500004750E31004F837F50C0093050700130585AC44
S31500004760EFA00A611304F0FF6FF0DFFB83378901C6
S31500004770638E0700639687006F0080036384870259
S315000047801387070083B70700E39A07FE0335040380
S3150000479063040500EF10900913050400EF101009DB
S315000047A06FF05FF7833704002330F7006FF01FFECA
S315000047B083370400233CF9006FF05FFD630A0500B0
S315000047C0833785001305000023B0F50067800000DD
S315000047D01305F0FF6780000093070500630A0502D2
S315000047E0638C05008336850003B7860083B6860290
S315000047F03307D74023B0E50013050000630C06001D
S3150000480083B7870083B787022330F60067800000EE
S315000048101305F0FF67800000130101F72334110828
S3150000482023308108233C910623382107233431079E
S3150000483023304107233C5105233861052334710594
S3150000484023308105233C91032338A1032334B1038C
S315000048506302052837B41000834704C5130A050010
S31500004860938A05006386071A37B71000833787C413
S3150000487093061000938517002334B7C4638ED50AB8
S3150000488093074006B3F7F5026388070AB74B0F0094
S31500004890938A1A0093091000130B0000130CF0FF03
S315000048A037FD0C0013890B24B7FD0C00130681009D
S315000048B09305400113050A0023340100EF10404719
S315000048C0130405006312051A0336810093747600FB
S315000048D063120B089307700C63E237216388040E9A
S315000048E0638A5915EF604A03130405009384FB237A
S315000048F0EF608A023305854033052503E3FAA4FEFB
S315000049006388090093072003B3F7F902638607005B
S31500004910938919006FF09FF99385090013850DB2ED
S31500004920EFA00A4583B701029389190003B5070171
S31500004930EF60CA756FF09FF737F50C00130585AF6A
S31500004940EFA00A4383B7010203B50701EF600A74BB
S315000049506FF0DFF39307803EB3F7F9026384070035
S31500004960E30E86F7130601019305000313050A00FB
S3150000497023380100233C0100EF10803B631E051223
S31500004980130681019305400313050A00EF10403A10
S315000049906316051003368100033881018337010150
S315000049A013B71400938604009385090013058DBD83
S315000049B0EFA00A3C83B7010203B50701EF600A6D59
S315000049C003368100130C0600E39C04F0631A0B08FF
S315000049D083308108130504000334010883348107FA
S315000049E00339010783398106033A0106833A8105B3
S315000049F0033B0105833B8104033C0104833C8103A3
S31500004A00033D0103833D8102130101096780000014
S31500004A1083B70102930600001306200003B50701C1
S31500004A2093050000EFB08A49930710002308F4C4E9
S31500004A306FF09FE313070000E30C0BF837F50C004B
S31500004A409386040093850900130505C2EFA04A3238
S31500004A5083B7010203B50701EF604A636FF05FF7A2
S31500004A60130710006FF09FFDB7D40C00B7F50C00CC
S31500004A7013060500938505B413858406EFA04A2F17
S31500004A80B7F50C001306F0FF938585B613858406EB
S31500004A90EFA00A2E1304F0FF6FF09FF3B7F70C0098
S31500004AA0938507B4B7D70C00130605001385870650
S31500004AB0EFA00A2C6FF01FEEB7F70C00938507B432
S31500004AC0B7D70C001306050013858706EFA04A2A00
S31500004AD06FF01FEB1304F0FF6FF09FEFB7F70C00BA
S31500004AE09386040093850900138587B9EFA04A28A9
S31500004AF083B70102130B100003B50701EF600A59D3
S31500004B00033C810013060C006FF05FDD130101FC0E
S31500004B10233C1102233881022334910223302103DE
S31500004B20233C310123384101233451016306051E1C
S31500004B30138405006382051E03370501B307D600FB
S31500004B4083340500636AF71C03398500330926019F
S31500004B509377F9036392071C9386F60383B70407DA
S31500004B6093F906FC3307390163E8E71A376A260525
S31500004B7093050AC013850400EFF01FCA930A0500C7
S31500004B80631C050893D729006386090A93992700B1
S31500004B90B38989003B098940130A0AC06F00800067
S31500004BA0630A340903260400930580001385040074
S31500004BB0EF10C016930705003B06890093054000D9
S31500004BC01385040013044400639A0708EF100015C8
S31500004BD093070500130640009305C00013850400E3
S31500004BE06396070AEF10801393070500130620004B
S31500004BF093050000138504006392070CEF10001262
S31500004C001306050093050A00138504006310060EBB
S31500004C10EFF09FC0E30605F837D40C00B7F50C009B
S31500004C201306F0FF938585D713058406EFA04A1473
S31500004C30930AF0FF83308103033401038334810236
S31500004C400339010283398101033A010113850A0000
S31500004C50833A8100130101046780000037D40C00F9
S31500004C60B7F50C0013860700938585C713058406E0
S31500004C70EFA00A10B7F50C001306F0FF938505CADE
S31500004C8013058406EFA0CA0E6FF05FF937D40C0047
S31500004C90B7F50C0013860700938585C713058406B0
S31500004CA0EFA00A0DB7F50C001306F0FF938505CDAE
S31500004CB013058406EFA0CA0B6FF05FF637D40C001D
S31500004CC0B7F50C0013860700938585C71305840680
S31500004CD0EFA00A0AB7F50C001306F0FF938585D1FD
S31500004CE013058406EFA0CA086FF05FF337D40C00F3
S31500004CF0B7F50C00938585C713058406EFA04A0710
S31500004D00B7F50C001306F0FF938585D413058406CA
S31500004D10EFA00A066FF09FF0930AF0FF6FF09FF185
S31500004D20130101FB2334110423308104233C910237
S31500004D30233821032334310323304103233C51011B
S31500004D40638C051E130405006308051E03B70501E1
S31500004D50B307D60083B4050013890600636EF71CFB
S31500004D6083B98500B309360193F7F9036396071CE7
S31500004D709387F60303B7040793F707FCB387370156
S31500004D80636CF71A376A260593050AC01385040073
S31500004D90EFF09FA8930A05006310050A135929002E
S31500004DA0630A090A1319290033092401BB898940BA
S31500004DB0130A0AC06F00C001EF009077631605144E
S31500004DC08337810013044400232EF4FE630489080C
S31500004DD03B8689009305400013850400EF0010749C
S31500004DE093070500130640009305C00013850400D1
S31500004DF063960708EF0090729307050013061000EC
S31500004E0093050000138504006392070AEF001071F2
S31500004E101306050093050A00138504006310060CAB
S31500004E20EFF09F9F9307050013068100930500018D
S31500004E3013850400E38207F837D40C00B7F50C009D
S31500004E401306F0FF938585E013058406EF905A72EA
S31500004E50930AF0FF83308104033401048334810311
S31500004E600339010383398102033A010213850A00DB
S31500004E70833A8101130101056780000037D40C00D5
S31500004E80B7F50C0013860700938585C713058406BE
S31500004E90EF901A6EB7F50C001306F0FF938505CD5B
S31500004EA013058406EF90DA6C6FF05FF937D40C00C7
S31500004EB0B7F50C0013860700938585C7130584068E
S31500004EC0EF901A6BB7F50C001306F0FF938585D1AA
S31500004ED013058406EF90DA696FF05FF637D40C009D
S31500004EE0B7F50C00938585C713058406EF905A68BD
S31500004EF0B7F50C001306F0FF938505DB1305840652
S31500004F00EF901A676FF09FF337D40C00B7F50C00DB
S31500004F1013060500938505B413058406EF905A65BC
S31500004F20B7F50C001306F0FF938505DE130584061E
S31500004F30EF901A646FF09FF0930AF0FF6FF09FF105
S31500004F40630E0504630C0604833805039397050274
S31500004F5093D70702B3F717030337850293963700F3
S31500004F603307D70003380700630A0802033708002F
S31500004F70832687006388D5020335070013080700D8
S31500004F80630E0500832685001307050013950602A8
S31500004F901355050233751503E38EA7FC1305F0FFC1
S31500004FA06780000083370800E38A07FE83A7C700EF
S31500004FB0130500002320F60067800000130500009B
S31500004FC067800000630A05006388060023B00600B8
S31500004FD013050000678000001305F0FF67800000DE
S31500004FE0130101FA233C110423388104233491046C
S31500004FF023302105233C3103233841032334510355
S31500005000233061036308052493840500130A060010
S31500005010138605009305400013040500139B040244
S31500005020EF00D04F135B0B026318051813060A0036
S315000050309305800013050400EF00504E6318051A0F
S31500005040130640009305000013050400EF00104D01
S31500005050930905006316051C833504038337840210
S315000050603375BB02931A3500B387570103B60700A1
S31500005070630A06068337060003A787006386E402F1
S3150000508083B607006380060603A78600138607001B
S315000050909317070293D70702B3F7B7026314F50411
S315000050A093870600E39EE4FC833706001389C70056
S315000050B0638A0702232049018330810503340105F1
S315000050C08334810403390104033A0103833A8102DC
S315000050D0033B01021385090083398103130101068D
S315000050E06780000013050001EF10D07883370405B0
S315000050F003360404833504031309050093061000E0
S31500005100130584042330090023249900232609006B
S315000051102334F100EF10D4562338A100233CB1000C
S315000051201375F50F631C050203378402B30A570192
S3150000513083B70A006388070483B707002330F900A2
S3150000514083B70A0023B02701833704041309C90073
S31500005150938717002330F4046FF0DFF51306810000
S3150000516013058402EF005022833A040303378402B6
S31500005170B37A5B03939A3A00B30A570183B70A00DE
S31500005180E39C07FA83378403233C24032330F90086
S31500005190638E070083E7870083360403B3F7D702DD
S315000051A0939737003307F7002330270193078403CB
S315000051B023B0FA006FF05FF937D40C00B7F50C0096
S315000051C013060500938585C713058406EF905A3AA2
S315000051D0B7F50C001306F0FF938505E41305840666
S315000051E0EF901A399309F0FF6FF01FED37D40C00DA
S315000051F0B7F50C0013060500938585C713058406CD
S31500005200EF901A37B7F50C001306F0FF938505E704
S3150000521013058406EF90DA359309F0FF6FF0DFE9A6
S3150000522037D40C00B7F50C0013060500938585C727
S3150000523013058406EF90DA33B7F50C001306F0FF7A
S31500005240938505EA13058406EF909A329309F0FFD9
S315000052506FF09FE69309F0FF6FF01FE61304050059
S3150000526013050900EF00905C13050400EF109A7512
S31500005270130101FC233C11022338810223349102DD
S3150000528023302103233C31012338410123345101CA
S3150000529023306101630E05441309050013058007D9
S315000052A0EF10505DB7F5FF019395750013040500E7
S315000052B0EF00902193071000939407022338F4021D
S315000052C083A701DB93098405130684069305000270
S315000052D0130504002334040023380400233C04008F
S315000052E02330040223343403233C04022330040411
S315000052F02324F40423380404233C040423389406AA
S31500005300EF00D01E631205381306040693058001CC
S3150000531013050400EF00901D6312053A13050004FF
S31500005320EF105055B7F60C00938A06343707000481
S31500005330B7060100033A04012338D5001307170006
S31500005340B7F6FF0F938414001306050193964600E3
S315000053501317C7002330550123349500233CD5008D
S315000053602330E50223340502233C05022334C4001E
S315000053702338A400630A0A0083278A001B87F7FFE5
S315000053802324EA0063020716034A54069304100016
S31500005390339A440163FA44193706006093051000F6
S315000053A013050400EFF0DFC393040500631C05102A
S315000053B0130600009305200013050400EFF05FC2FA
S315000053C093040500630C051E13060500B7F50C00D3
S315000053D037D50C00938585FC13058506EF905A1981
S315000053E003398403630A0900130509000339090018
S315000053F0EF00D043E31A09FE0336040303358402A3
S315000054009305000013163600EF90CA7A033584021E
S3150000541023300404233C04026384A900EF001041F6
S3150000542003390402630A0902832789001B87F7FFF1
S315000054302324E900631207028337090013050900D4
S3150000544083B70701E78007008327C9001B87F7FF9B
S315000054502326E9006308071E03390401630A0902CB
S31500005460832789001B87F7FF2324E90063120702BD
S31500005470833709001305090083B70701E780070092
S315000054808327C9001B87F7FF2326E9006306071C4D
S3150000549013050400EF0090398330810303340103C0
S315000054A00339010283398101033A0101833A8100FC
S315000054B0033B0100138504008334810213010104B8
S315000054C06780000013060500B7F50C0037D50C0001
S315000054D0938585F713058506EF909A0903398403AA
S315000054E0E31409F06FF05FF183370A0013050A0031
S315000054F083B70701E78007008327CA001B87F7FFEA
