S01600006770752D6576616C756174696F6E2E737265635D
S3150000000097210E0093818139970200009382821511
S3150000001073905230732440F163100402970200007B
S315000000209382421573905230EF909A0A971200000D
S31500000030938242DCE780020013132400970200003B
S315000000409382420CB302530003A302000F00F00F89
S31500000050E31C03FE17DE1000130ECE489313440074
S31500000060B30E7E00138F8E0083BF0E0003310F0088
S31500000070970200009382021073905230732540F16C
S31500000080E7800F00130000001300000013000000BB
S31500000090130000001300000013000000130000000E
S315000000A013000000130000001300000013000000FE
S315000000B013000000130000001300000013000000EE
S315000000C013000000130000001300000013000000DE
S315000000D013000000130000001300000013000000CE
S315000000E013000000130000001300000013000000BE
S315000000F013000000130000001300000013000000AE
S3150000010073001000730010007300100073001000DD
S3150000011073001000730010007300100073001000CD
S3150000012073001000730010007300100073001000BD
S3150000013073001000730010007300100073001000AD
S3150000014013132500970300009383C3FBB3027300C8
S315000001500F00500F23A00200130500006780000067
S3150000016073001000130000001300000013000000CD
S3150000017073202034130101EF23301100233831009E
S31500000180233C41002330510223346102233871029B
S31500000190233C8102233091042334A1042338B10483
S315000001A0233CC1042330D1062334E1062338F1066B
S315000001B0233C01072330110923342109233831094F
S315000001C0233C41092330510B2334610B2338710B37
S315000001D0233C810B2330910D2334A10D2338B10D1F
S315000001E0233CC10D2330D10F2334E10F2338F10F07
S315000001F073250030F325103473262034233CA10EDA
S315000002002330B1102334C11063560600EF908A7B69
S315000002106F00C00093060100EF904A7A8330010018
S3150000022083310101033281018332010203338102EA
S3150000023083330103033481038334010403358104CA
S3150000024083350105033681058336010603378106AA
S31500000250833701070338810783380108033981088A
S3150000026083390109033A8109833A010A033B810A6A
S31500000270833B010B033C810B833C010C033D810C4A
S31500000280833D010D033E810D833E010E033F810F29
S31500000290833F011073100F3073901F34033F810E9C
S315000002A0833F010F1301011173002030000000008D
S315000002B00000000000000000000000000000000038
S315000002C00000000000000000000000000000000028
S315000002D00000000000000000000000000000000018
S315000002E00000000000000000000000000000000008
S315000002F000000000000000000000000000000000F8
S3150000030000000000000000000000000000000000E7
S3150000031000000000000000000000000000000000D7
S3150000032000000000000000000000000000000000C7
S3150000033000000000000000000000000000000000B7
S3150000034000000000000000000000000000000000A7
S31500000350130101FF1305800023341100EF20C91F8C
S31500000360B7A70D00938707AA37260900B7A50D0082
S315000003702330F5001306C6689385859EEF609023AB
S31500000380130101FF1305800023341100EF20C91C5F
S31500000390B7870D009387879037060800B7850D004D
S315000003A02330F5001306C6B79385058EEF609020BF
S315000003B0130101FF1305800023341100EF20C91932
S315000003C0B7870D009387879637060800B7850D0017
S315000003D02330F500130606BD93850594EF60901D46
S315000003E0130101FF1305800023341100EF20C91605
S315000003F0B7870D009387879C37060800B7850D00E1
S315000004002330F500130646C29385059AEF60901ACD
S31500000410130101FE233881001304050013050001B2
S31500000420233C110023349100EF20091393050400A7
S3150000043013040500EF70C93337660900B7A50D0030
S315000004401306060A938585FB13050400EF609016D4
S315000004509304050013050400EF2089151385040095
S31500000460EF609A43130101FE23388100130405004F
S3150000047013050001233C110023349100EF20C90D20
S315000004809305040013040500EF70C93337660900AD
S31500000490B7A50D0013060654938585FE13050400C3
S315000004A0EF6050119304050013050400EF20491076
S315000004B013850400EF605A3E130101FE23388100C4
S315000004C01304050013050001233C11002334910099
S315000004D0EF2089089305040013040500EF708934A2
S315000004E037660900B7A50D001306064E93858501EC
S315000004F013050400EF60100C9304050013050400B7
S31500000500EF20090B13850400EF601A39130101FE71
S31500000510233881001304050013050001233C110054
S3150000052023349100EF2049039305040013040500CA
S31500000530EF70493537660900B7A50D001306064268
S315000005409385850413050400EF60D0069304050027
S3150000055013050400EF20C90513850400EF60DA33A4
S31500000560130101FE23388100130405001305000161
S31500000570233C110023349100EF10197E93050400EB
S3150000058013040500EF70093637660900B7A50D009C
S31500000590130606489385850713050400EF6090014E
S315000005A09304050013050400EF2089001385040059
S315000005B0EF609A2E130101FE233881001304050013
S315000005C013050001233C110023349100EF10D97864
S315000005D09305040013040500EF70C9363766090059
S315000005E0B7A50D00130606109385850A13050400AA
S315000005F0EF60407C9304050013050400EF10597B5F
S3150000060013850400EF605A29130101FE2338810087
S315000006101304050013050001233C11002334910047
S31500000620EF1099739305040013040500EF70C936A3
S3150000063037660900B7A50D001306061C9385050D40
S3150000064013050400EF60007793040500130504000A
S31500000650EF10197613850400EF601A24130101FECA
S31500000660233881001304050013050001233C110003
S3150000067023349100EF10596E93050400130405000E
S31500000680EF70893737660900B7A50D0013060622F5
S315000006909385051013050400EF60C07193040500EF
S315000006A013050400EF10D97013850400EF60DA1EFD
S315000006B0130101FE23388100130405001305000110
S315000006C0233C110023349100EF10196993050400AF
S315000006D013040500EF70493837660900B7A50D0009
S315000006E0130606169385051313050400EF60806C48
S315000006F09304050013050400EF10996B138504009D
S31500000700EF609A19130101FF1305800023341100CD
S31500000710EF109964B7870D00938787963706080010
S31500000720B7850D002330F500130606BD93850594A5
S31500000730EF604068130101FF1305800023341100A8
S31500000740EF109961B7870D009387879C37060800DD
S31500000750B7850D002330F500130646C29385059A2A
S31500000760EF604065130101FF13058000233411007B
S31500000770EF10995EB7B70D00938707EF37A609000C
S31500000780B7B50D002330F50013068675938585EC05
S31500000790EF604062130101FD233C910093040500C4
S315000007A0130500032334110223308102EF10D95AB6
S315000007B013040500EF80496A930710002320F10017
S315000007C08335010013060500938604001305040013
S315000007D0EF80594BB7B70D009387079313050400B5
S315000007E02330F400EF50590B93050500130504025E
S315000007F0EFA0490E37960900B7B50D001306C601DE
S315000008009385058A13050400EF60C05AB7B70D003B
S315000008109304050093878790130504002330F400A2
S31500000820EF90990A6F0080009304050013050400F9
S31500000830EF10195813850400EF601A06130101FD25
S315000008402338210113090500130500032330810213
S31500000850233C91002334110293840500EF10D94FF5
S315000008601304050063880400EF90591F1306050062
S315000008706F000001EF80495E130605009304100027
S315000008802320910083350100930609001305040017
S31500000890EF80593FB7B70D00938707931305040000
S315000008A02330F400EF50497F930505001305040239
S315000008B0EFA0490237960900B7B50D001306C60129
S315000008C09385058A13050400EF60C04EB7B70D0087
S315000008D09304050093878790130504002330F400E2
S315000008E0EF90897E6F0080009304050013050400D5
S315000008F0EF10194C13850400EF600A7A130101FB0F
S31500000900233821031309050013050002233081044F
S31500000910233C91022334110423343103EF10D943CD
S3150000092093040500130609009385010013050100D1
S31500000930EF90190593050100138504009309010141
S31500000940EF8019750335010063043501EF50405BF4
S31500000950B7B70D001384010037A60900B7B50D001F
S31500000960938707D41306860C938585CC13850400DC
S3150000097023B0F40023A8240123BC8400EF60804345
S315000009808337010013040500638A370113850700C6
S31500000990EF5000576F008000130405001385040014
S315000009A0EF10194113050400EF600A6F130101FFF0
S315000009B02330810037B41000130504AD2334110031
S315000009C0EF704066930504AD033401008330810067
S315000009D037850000138601FA13050504130101018A
S315000009E06F90DA65130101FF2330810037B41000E0
S315000009F0130584AD23341100EF70C062930584ADF6
S31500000A00033401008330810037850000138601FA24
S31500000A1013050504130101016F905A62B7B7100060
S31500000A2003C707B863160700130710002380E7B84B
S31500000A30B7B7100003C787B7631607001307100080
S31500000A40238CE7B6B7B7100003C707B763160700CE
S31500000A50130710002388E7B6B7B7100003C787B699
S31500000A6063160700130710002384E7B6B7B7100014
S31500000A7003C707B663160700130710002380E7B6FF
S31500000A80B7B7100003C787B5631607001307100032
S31500000A90238CE7B4B7B7100003C707B56316070082
S31500000AA0130710002388E7B4B7B7100003C787B44D
S31500000AB063160700130710002384E7B4678000005D
S31500000AC0B7B7100003C707C0631607001307100067
S31500000AD02380E7C0B7B7100003C787BF63160700B8
S31500000AE013071000238CE7BEB7B7100003C707BF74
S31500000AF063160700130710002388E7BEB7B7100078
S31500000B0003C787BE63160700130710002384E7BEDA
S31500000B10B7B7100003C707BE631607001307100018
S31500000B202380E7BEB7B7100003C787BD631607006B
S31500000B3013071000238CE7BCB7B7100003C707BD27
S31500000B4063160700130710002388E7BCB7B7100029
S31500000B5003C787BC63160700130710002384E7BC8E
S31500000B6067800000B7B7100003C787CA631607007F
S31500000B70130710002384E7CAB7B7100003C707CAD4
S31500000B8063160700130710002380E7CAB7B71000E3
S31500000B9003C787C96316070013071000238CE7C82D
S31500000BA0B7B7100003C707C963160700130710007D
S31500000BB02388E7C8B7B7100003C787C863160700BE
S31500000BC0130710002384E7C8B7B7100003C707C888
S31500000BD063160700130710002380E7C8B7B7100095
S31500000BE003C787C76316070013071000238CE7C6E1
S31500000BF0B7B7100003C707C763160700130710002F
S31500000C002388E7C6B7B7100003C787C66316070071
S31500000C10130710002384E7C6B7B7100003C707C63B
S31500000C2063160700130710002380E7C6B7B7100046
S31500000C3003C787C56316070013071000238CE7C494
S31500000C40B7B7100003C707C56316070013071000E0
S31500000C502388E7C467800000B7B7100003C787D6AC
S31500000C6063160700130710002384E7D6B7B71000F2
S31500000C7003C707D663160700130710002380E7D6BD
S31500000C80B7B7100003C787D5631607001307100010
S31500000C90238CE7D4B7B7100003C707D56316070040
S31500000CA0130710002388E7D4B7B7100003C787D40B
S31500000CB063160700130710002384E7D4B7B71000A4
S31500000CC003C707D463160700130710002380E7D471
S31500000CD0B7B7100003C787D36316070013071000C2
S31500000CE0238CE7D2B7B7100003C707D363160700F4
S31500000CF0130710002388E7D2B7B7100003C787D2BF
S31500000D0063160700130710002384E7D2B7B7100055
S31500000D1003C707D263160700130710002380E7D224
S31500000D20B7B7100003C787D1631607001307100073
S31500000D30238CE7D0B7B7100003C707D163160700A7
S31500000D40130710002388E7D067800000130101FE17
S31500000D5023349100B7140000233881009384041CC7
S31500000D6037D410001304844713850400233C110074
S31500000D70233C9400EFC05A622338A40063020502A4
S31500000D802334A400233095002334050083308101E9
S31500000D9003340101833481001301010267800000DE
S31500000DA0233C0400233404006FF05FFE130101FFAF
S31500000DB02330810037A50900138601FA93850100C7
S31500000DC01305C50B23341100EF905A27138601FA39
S31500000DD0033401008330810037A50900938581FF24
S31500000DE01305850B130101016F905A2500000000C1
S31500000DF0EF801A2E13040100930200006390020292
S31500000E0017A51000130505CC17D61000130606C447
S31500000E10B306A64093D53600EF809A2C97A2100011
S31500000E209382420E23B08200EF809A2DEF805A2AD9
S31500000E30EF80DA59EF809A5FEF80DA4517A50A004E
S31500000E4013058562EF905A05EFC00A75EF805A28A0
S31500000E5097A21000938202FD03A50200938201016E
S31500000E6083B5020013060000EF00400FEF90DA1E74
S31500000E7073001000000000000000000037250E007F
S31500000E8037270E00930785B9130787B9630AF7005A
S31500000E909307000063860700130585B9678007007E
S31500000EA06780000037250E00930785B937270E00A7
S31500000EB0930587B9B385F54093D7354093D5F503A8
S31500000EC0B385F50093D51540638A050093070000A6
S31500000ED063860700130585B96780070067800000F1
S31500000EE0130101FF2330810037B41000834784F0DB
S31500000EF02334110063920702EFF05FF8B7970A00F8
S31500000F00938747466386070013858104EF808A55D9
S31500000F10930710002304F4F08330810003340100AA
S31500000F201301010167800000B7970A0093874724E1
S31500000F3063840702B7B51000130101FF938505F11D
S31500000F401385810423341100EF80CA2F833081007A
S31500000F50130101016FF01FF56FF0DFF4130101F6C5
S31500000F60233C1108233881082334910823302109B2
S31500000F70233C310713050040EFC01A421304050055
S31500000F8013050040EFC05A41930405009307000083
S31500000F90930600403307F4002300F70093871700F9
S31500000FA0E39AD7FE93870400138704402380070043
S31500000FB093871700E39CE7FE2334010623300106DE
S31500000FC0233C0104233801042334010437D50C00E3
S31500000FD0130505CCEFD01A7E13058106EF40801667
S31500000FE037D50C00130505CEEFD0DA7C1306810346
S31500000FF09305100003358106EF20505813060104AF
S315000010009305200003358106EF2050571306010390
S315000010109305300003358106EF2050568336810351
S31500001020033601048335010337D50C00130505D0BB
S31500001030EFD01A42B7F90D00938709B937190E0098
S31500001040130989FE3309F9409305090037D50C00C9
S31500001050130585D3EFD0DA3F930601051306090081
S31500001060938509B903358106EF00002D3719000075
S315000010709305098037D50C00130505D6EFD05A3DE8
S3150000108093060106130610009305004003358106FA
S31500001090EF20906E9305810203350106EF30407212
S315000010A0930681051306200093050040033581064B
S315000010B0EF20906C9305010203358105EF304070F7
S315000010C037D50C00130585D8EFD0DA6E93070040AC
S315000010D02334F100833781022338F100833701027C
S315000010E0233CF100930681041306800193058100D9
S315000010F003358106EF0000399305004037D50C0013
S31500001100130505DAEFD0DA34930600401306000023
S315000011109305040003350106EF30900C37D50C001B
S31500001120130505DDEFD01A6993060040130600008B
S315000011309385040003358105EF30900A37D50C00FE
S31500001140130505DFEFD01A670336810483350105E1
S3150000115003358106EF40C04837D50C00130505E07E
S31500001160EFD05A65B7652605938505C00335810618
S31500001170EF30C06A9305004037D50C00130585E2B1
S31500001180EFD01A2D93060040130600008335810523
S3150000119013850400EF3010269305098037D50C001F
S315000011A0130585E5EFD0DA2A03350106EF30004F47
S315000011B003358105EF30804E03350105EF30004ED3
S315000011C003358104EF30804D37D50C00130505E853
S315000011D0EFD05A5E03358106EF20904813060000D3
S315000011E093070000130500409B8507003387F40032
S315000011F0834607006392C602938717001B062600E4
S315000012001376F60FE392A7FE37D50C00130505EE0D
S31500001210EFD05A5A6F00C00137D50C00130505EA06
S31500001220EFD01A2337D50C00130505EDEFD09A58E9
S3150000123013050400EFC01A1713850400EFC09A16B1
S3150000124013050000833081090334010983348108C2
S3150000125003390108833981071301010A67800000F9
S31500001260B7B7100083B707E1639A070037B71000D6
S31500001270B7E71000938787A42338F7E0B7B71000C5
S3150000128083B787E063980700B7B7100037070010E9
S3150000129023B4E7E067800000130101FE23388100D4
S315000012A0233C11002334910037B41000834704AC6B
S315000012B00F00F00F93F7F70F63800702B7B4100023
S315000012C0833081010334010103A584AC833481009A
S315000012D01301010267800000130504ACEF50103AB9
S315000012E0B7B41000E30E05FC37D50C00130505EF67
S315000012F023A404ACEFC0CA1563060500EF900A3BB1
S3150000130023A4A4AC130504ACEF50903D3745000070
S31500001310938584AC138601FA130545CDEF900A52E6
S31500001320833081010334010103A584AC8334810039
S315000013301301010267800000130101FC233C110226
S31500001340233881022334910223302103233C3101C7
S315000013502338410163040512938405006380051256
S31500001360930780001309060063FAC710138A060064
S315000013706386061083B5050083B9840013078100D0
S3150000138093060000B389B94013860900EF20107C4C
S31500001390130405006314050403358100130909FFCE
S315000013A0930610001306090093050000EF30502E37
S315000013B01304050063020506B7D50C0013060500E5
S315000013C0938505F737D50C00130585F4EFD05A0839
S315000013D003358100EF30802C6F00C0011306050035
S315000013E0B7D50C0037D50C00938585F0130585F429
S315000013F0EFD01A068330810313050400033401037A
S31500001400833481020339010283398101033A0101E0
S315000014101301010467800000033581009306300044
S315000014203386294193050900EF3090261304050001
S3150000143063160502033581009306090013060000B2
S3150000144093850401EF30C0591304050063100502AB
S31500001450833781002330FA006FF0DFF9B7D50C002F
S3150000146013060500938585FA6FF0DFF5B7D50C00F6
S3150000147013060500938585FF6FF0DFF41304F0FF74
S315000014806FF05FF7130101FC233C11022338810240
S315000014902334910223302103233C31016308050ED6
S315000014A0138905006384050E930406006300060E87
S315000014B093890600638C060C9306810013061000C0
S315000014C093850400EF20502B1304050063140504D4
S315000014D00335810093860400130600009305090076
S315000014E0EF300050130405006312050683378100B0
S315000014F083308103130504000334010323B0F9008C
S315000015008334810203390102833981011301010405
S315000015106780000013060500B7D50C0037D50C0010
S3150000152093858502130585F4EFD08A728330810393
S3150000153013050400033401038334810203390102D5
S315000015408339810113010104678000001306050039
S31500001550B7D50C0037D50C0093850506130585F421
S31500001560EFD00A6F03358100EF30401383308103DB
S315000015701305040003340103833481020339010295
S315000015808339810113010104678000001304F0FF11
S315000015906FF0DFF9130101DE233C311F130601163C
S315000015A0938905009305300023349120233C1120B4
S315000015B023388120233021212338411F2334511F12
S315000015C02330611F233C711D2338811D2334911D57
S315000015D02330A11D233CB11B93040500233C0110BD
S315000015E0233001122334011223380112233C011245
S315000015F0233001142334011423380114233C01142D
S31500001600EF20C077630005061309050013060500E1
S31500001610B7D50C0037D50C0093850509130585F45D
S31500001620EFD00A6383308121033401218334812082
S315000016308339811F033A011F833A811E033B011E32
S31500001640833B811D033C011D833C811C033D011C22
S31500001650833D811B13050900033901201301012273
S315000016606780000013068116930570001385040039
S31500001670EF20C0701309050063000502130605007C
S31500001680B7D50C0037D50C009385850C130585F46A
S31500001690EFD00A5C6FF01FF903378116930710002D
S315000016A0139507029395170213962702939637020E
S315000016B0939747023375A700B375B7003376C70013
S315000016C0B376D700B377F700233CA1082330B10ADD
S315000016D02334C10A2330D10E2338F108EFF0DFBBE3
S315000016E0833B011623380100130A050063940B009F
S315000016F06F10501113040000233C010C2338010C19
S315000017002334010C2330010C2338010A233C010A3F
S31500001710233001082338010623340108233C01063F
S315000017202334010623380102233C0102233001043D
S31500001730233C010423380104233001062334010429
S315000017402334010223300102233C0100930D0000E3
S31500001750930A0000233C210F371900009306011756
S3150000176013060400930509B013850400EF30C07218
S31500001770630405006F10C037930681171306040033
S31500001780930529B013850400EF300071630405004A
S315000017906F104038930710006306FA66930720001F
S315000017A06310FA1483370109638407006F005067DA
S315000017B083378109638407006F0050758337010AF8
S315000017C0638407006F1080088337810AE39007540B
S315000017D0631804108337010E6388070A371900005F
S315000017E09306811113060000930529B113850400A1
S315000017F0EF30806A630405006F10503893060112BB
S3150000180013060000930539B113850400EF30C06854
S31500001810630405006F10503493068112130600000E
S31500001820930549B113850400EF3000676304050092
S315000018306F10D03D9306011313060000930559B1AE
S3150000184013850400EF304065630405006F10D0393E
S315000018509306811313060000930569B113850400EE
S31500001860EF308063630405006F10D03593060114D2
S3150000187013060000930579B113850400EF30C061AB
S31500001880630405006F10D0313719000093068114E8
S3150000189013060000930589B113850400EF30C05F7D
S315000018A0630405006F10407E9306011513060000C1
S315000018B0930599B113850400EF30005E63040500BB
S315000018C06F10407A93068115130600009305A9B19F
S315000018D013850400EF30405C630405006F10001FA1
S315000018E0833B011603390117033B811713050000DB
S315000018F06304090213050B00EF004A4D130C0500A3
S3150000190013050900EF008A4C9305050013050C002A
S31500001910EFF00950EF200A459307100063FA7703AA
S31500001920EF200A17B7E50C00930705001307090017
S3150000193093060B0013060400938585211385090081
S31500001940EF90DA6A833B0116033B811703390117CF
S3150000195083370101B38A6A01B38D2D0163F4270130
S31500001960233821011B0414009317040293D707029E
S31500001970E3E477DF0339810F930710006314FA005D
S315000019806F10801B930720006310FA428337810A89
S31500001990638A071E0337010B8337810B930C000004
S315000019A0335D77030337010C335477030337810C18
S315000019B0B35477030337010D335A77030337810D89
S315000019C0B3DD7703335B770363E477051305040020
S315000019D0EF00CA3F130C050013850D00EF000A3F08
S315000019E09305050013050C00EFF08942B7270E009A
S315000019F09305050003B507BAEFF0195DB7270E008A
S31500001A0083B587B9EFF01921EF008A2D9B0C0500ED
S31500001A108337010B130C000063E47705138504007C
S31500001A20EF00CA3A930B050013050D00EF000A3AC2
S31500001A309305050013850B00EFF0893DB7270E00CF
S31500001A409305050003B507BAEFF01958B7270E003E
S31500001A5083B587B9EFF0191CEF008A281B0C050027
S31500001A603385AD01B3074501233CF100930B00001C
S31500001A70638C0702EF008A3583378101930B0500DB
S31500001A8013850700EF008A349305050013850B00C4
S31500001A90EFF00938B7270E0083B587B9EFF099172D
S31500001AA0EF000A249B0B05003305940033076501FC
S31500001AB0233CE10093070000630E0702EF000A31A2
S31500001AC0033781012330A10213050700EF000A3016
S31500001AD0833701029305050013850700EFF04933AC
S31500001AE0B7270E0083B587B9EFF0D912EF004A1F6A
S31500001AF09B070500B7E50C009385053D13860D0091
S31500001B0013850900233CF100EF905A4EB7E50C000F
S31500001B1013060D009385053F13850900EF901A4DB6
S31500001B20B7E50C0093860C00130604009385054167
S31500001B3013850900EF909A4BB7E50C0093060C004D
S31500001B40138604009385054413850900EF901A4A0D
S31500001B50B7E50C0093860B0013060A0093858547AC
S31500001B6013850900EF909A4883378101B7E50C0089
S31500001B7013060B00938607009385054B1385090012
S31500001B80EF90DA468337010E638E071A033A811106
S31500001B9083348112930B000063040A041385040046
S31500001BA0EF00CA221304050013050A00EF000A22FB
S31500001BB09305050013050400EFF08925B7270E00ED
S31500001BC09305050003B507BAEFF01940B7270E00D5
S31500001BD083B587B9EFF01904EF008A109B0B050057
S31500001BE003340112833C0113130B00006304040445
S31500001BF013850C00EF008A1D130B05001305040066
S31500001C00EF00CA1C9305050013050B00EFF04920F1
S31500001C10B7270E009305050003B507BAEFF0D93ACA
S31500001C20B7270E0083B587B9EFF0C97EEF004A0BE0
S31500001C301B0B050033058A0003348113130C0000C7
S31500001C4033048500630A0402EF004A18130C0500EA
S31500001C5013050400EF008A179305050013050C0011
S31500001C60EFF0091BB7270E0083B587B9EFF0897A25
S31500001C70EF000A071B0C0500033401143385940199
S31500001C809304000033048500630A0402EF000A147B
S31500001C909304050013050400EF004A13930505009D
S31500001CA013850400EFF0C916B7270E0083B587B970
S31500001CB0EFF04976EF00CA029B040500B7E50C0079
S31500001CC013060A009385854E13850900EF901A3294
S31500001CD003360112B7E50C0093858550138509007C
S31500001CE0EF90DA3003368112B7E50C0093860B00CD
S31500001CF09385855213850900EF905A2F03360113F9
S31500001D00B7E50C0093060B009385855513850900EE
S31500001D10EF90DA2D03368113B7E50C0093060C001D
S31500001D209385055913850900EF905A2C0336011443
S31500001D30B7E50C00938604009385855C138509003E
S31500001D40EF90DA2A833481140335811513040000D9
S31500001D5063840402EF008A07130405001385040058
S31500001D60EF00CA069305050013050400EFF0490AC3
S31500001D70EFF019771B04050003370115B7E50C00D2
S31500001D80938505603386E400938604001385090075
S31500001D90EF90DA25B7E50C001306040093858563FA
S31500001DA013850900EF909A2483340101130700007C
S31500001DB06388040213850A00EF004A011304050034
S31500001DC013850400EF008A0093050500130504003F
S31500001DD0EFF00904EF101A79EF109A4B130705007C
S31500001DE083360101B7E50C0013860A0093858565E5
S31500001DF013850900EF909A1F13850900EF900A17C3
S31500001E006FF05F829306811A13060400930539B0BA
S31500001E1013850400EF30400813070500630405002E
S31500001E206F104000833701160339811A637EFA0466
S31500001E30033B0117630C0B0213050900EFF0197938
S31500001E40930B050013050B00EFF059789305050079
S31500001E5013850B00EFE0D97BB7270E0083B587B952
S31500001E60EFF0495BEFF0D9671B070500B7D50C000B
S31500001E7093060900130604009385851D1385090042
S31500001E80EF90DA160339811AB71500009306811A06
S31500001E9013060400938545B013850400EF20D07F18
S31500001EA08337810113070500B3872701233CF1001F
S31500001EB0630405006F0090798336011693071000BE
S31500001EC00339811A63FED704033B0117630C0B0227
S31500001ED013050900EFF0996F930B050013050B002E
S31500001EE0EFF0D96E9305050013850B00EFE05972EC
S31500001EF0B7270E0083B587B9EFF0C951EFF0595EE9
S31500001F001B070500B7D50C0093060900130604004D
S31500001F109385852513850900EF905A0D0339811A9B
S31500001F20B71500009306811A13060400938555B071
S31500001F3013850400EF20507683370102130705004E
S31500001F40B38727012330F102630405006F00507147
S31500001F508336011693071000033B811A63FED704EC
S31500001F6003390117630C090213050B00EFF019661C
S31500001F70930B050013050900EFF05965930505005D
S31500001F8013850B00EFE0D968B7270E0083B587B934
S31500001F90EFF04948EFF0D9541B070500B7D50C0000
S31500001FA093060B00130604009385852D13850900FF
S31500001FB0EF90DA03033B811A3719000093060118E4
S31500001FC013060400930569B013850400EF20D06C56
S31500001FD083378102B38767012334F1026304050066
S31500001FE06F0050699306811813060400930589B0A3
S31500001FF013850400EF20506A630405006F00D06962
S315000020009306011913060400930599B0138504007D
S31500002010EF209068630405006F00506A93068119EB
S31500002020130604009305A9B013850400EF20D066BB
S31500002030630405006F00D06A9306011A13060400B4
S315000020409305C9B013850400EF20106563040500ED
S315000020506F00506B9306811A130604009305D9B0DE
S3150000206013850400EF205063930B050063040500FD
S315000020706F00906B8335010583378118833601190C
S31500002080033D8119B385F5002338B10483358105F5
S31500002090833C011A033C811AB385D500233CB10465
S315000020A0833501040336011613071000B385A50115
S315000020B02330B10483358103033B0118B3859501B1
S315000020C0233CB10283350103B38585012338B10270
S315000020D0637EC716033601173389D7003309A90172
S315000020E0330999012334C10E33098901130700000E
S315000020F06308060413050B002334D1102330F110B6
S31500002100EFF0D94C0336810E2338A10E13050600D5
S31500002110EFF0D94B0337010F9305050013050700B0
S31500002120EFE0194FB7270E0083B587B9EFF0892E78
S31500002130EFF0193B83368110833701101B0705002A
S315000021402338D10E2334F10E6302094C130509001E
S315000021502330E110EFF099478337810E130905000C
S31500002160B72B0E0013850700EFF0594693050900BB
S31500002170EFE0194A83B58BB9EFF0C929EFF059366C
S315000021808336010F9B0705002334F10E13850600E5
S31500002190EFF0D94393050900EFE0994783B58BB972
S315000021A0EFF04927EFF0D9331308050013050D00AA
S315000021B01B0D0800EFF0994193050900EFE0594522
S315000021C083B58BB9EFF00925EFF099319308050037
S315000021D013850C009B8C0800EFF0593F930509000E
S315000021E0EFE0194383B58BB9EFF0C922EFF0592F11
S315000021F09B0B050013050C00EFF0593D93050900F4
S31500002200EFE01941B7270E0083B587B9EFF08920B3
S31500002210EFF0192D8337810E033701101B050500DA
S31500002220B7D50C0093060B002334A10023307101AF
S3150000223093880C0013080D00130604009385054DC2
S3150000224013850900EF908A5A033B0118B715000061
S315000022509306811A13060400938575B0138504004E
S31500002260EF2090438337810413070500B387670186
S315000022702334F104E31A054C833601169307100044
S315000022800339811A63FED704033B0117630C0B0263
S3150000229013050900EFF09933930B050013050B00A6
S315000022A0EFF0D9329305050013850B00EFE05936A0
S315000022B0B7270E0083B587B9EFF0C915EFF059229D
S315000022C01B070500B7D50C0093060900130604008A
S315000022D09385855813850900EF904A510339811A71
S315000022E0B71500009306011A130604009385E5B09E
S315000022F013850400EF20503A83370106B387270180
S315000023002330F106E31C054483360116130710003B
S315000023108337011A6366D71803378106B71500009D
S315000023209306811AB307F70013060400938515B1C7
S31500002330138504002334F106EF20103693060500BA
S31500002340E310054403360116130710008337811A7C
S315000023506376C7040339011A630609021385070069
S31500002360EFF0D926130B050013050900EFF0192627
S315000023709305050013050B00EFE09929EFF05916B8
S315000023809B060500B7D50C00130604009385056768
S3150000239013850900EF908A458337811A03370107B1
S315000023A0B71500009306011AB307F70013060400D9
S315000023B09385F5B0138504002338F106EF20D02D60
S315000023C0E314053E83360116130710008337011AFE
S315000023D06368D70E03378107B71500009306811A85
S315000023E0B307F70013060400938525B1138504008F
S315000023F0233CF106EF20502A93060500E318053C1E
S3150000240003360116130710008337811A6376C70453
S315000024100339011A6306090213850700EFF0191B39
S31500002420130B050013050900EFF0591A9305050073
S3150000243013050B00EFE0D91DEFF0990A9B06050086
S31500002440B7D50C001306040093858574138509001F
S31500002450EF90CA398337811A03370108B715000090
S315000024609306811AB307F70013060400938505B196
S31500002470138504002330F108EF201022E3120536FD
S31500002480833B0116930710008336811A63EA7705AA
S3150000249083378108B387D7002334F1086FF08FC4E0
S315000024A0B7D50C00938607001306040093850560D4
S315000024B013850900EF908A338337011A6FF0DFE541
S315000024C0B7D50C0093860700130604009385056EA6
S315000024D013850900EF908A318337011A6FF09FEF59
S315000024E0B7D50C00130604009385857B1385090078
S315000024F0EF90CA2F833781088336811A833B0116F2
S31500002500B387D7002334F1086FF0CFBD3719000029
S315000025109306811A130604009305C9B013850400B7
S31500002520EF209017E318054C0337810B8337811A88
S315000025309306811A13060400B307F7009305D9B072
S3150000254013850400233CF10AEF201015E316054C11
S315000025500337010B8337811A9306811A1306040089
S31500002560B307F7009305E9B0138504002338F10A91
S31500002570EF209012E31A05540337010C8337811AB2
S315000025809306811A13060400B307F7009305F9B002
S31500002590138504002330F10CEF201010E31A0556C2
S315000025A00337810C8337811A9306811A13060400B8
S315000025B0B307F700930509B1138504002334F10C22
S315000025C0EF20900DE31405520337010D8337811A6E
S315000025D09306811A13060400B307F700930519B191
S315000025E0138504002338F10CEF20100BE314055477
S315000025F00337810D8337811AB307F700233CF10CAB
S31500002600631404006FF00F9D6FF08FAD130500008B
S3150000261093070000930C0000130D00006FF05FC0DD
S3150000262093068119130604009305B9B113850400B6
S31500002630EF209006E314052A9306011A13060400F8
S315000026409305C9B113850400EF201005E31A052A86
S315000026509306811A130604009305D9B11385040065
S31500002660EF209003130B0500E310052E833B811921
S315000026700335011A0339811A3385AB003309250165
S31500002680630A0902EFF08974130B050013050900AC
S31500002690EFF0C9739305050013050B00EFE04977CA
S315000026A0B7270E0083B587B9EFE0D956EFF0496337
S315000026B01B0B0500B7E50C0093860B001306040000
S315000026C09385858B13850900EF904A128336011A8C
S315000026D0B7E50C00130604009385858D1385090064
S315000026E0EF90CA108336811AB7E50C0013070B006A
S315000026F0130604009385858F13850900EF900A0F52
S3150000270083378109639407006FF04F8B37190000F8
S315000027109306811913060400930539B01385040046
S31500002720EF208077E31005209306011A13060400B4
S31500002730930549B013850400EF200076E31A0528B7
S315000027409306811A13060400930559B013850400F5
S31500002750EF208074930B0500E31C0524033C8119CC
S31500002760833C011A1309000063040C0413850C0052
S31500002770EFF0C9651309050013050C00EFF00965B4
S315000027809305050013050900EFE08968B7270E00D9
S315000027909305050003B507BAEFF00903B7270E0046
S315000027A083B587B9EFE01947EFF089531B09050098
S315000027B0033B811A338B6C01630C0B0213850C00EF
S315000027C0EFF0C960930B050013050B00EFF00960ED
S315000027D09305050013850B00EFE08963B7270E000C
S315000027E083B587B9EFE01943EFF0894F9B0B0500DE
S315000027F0B7E50C0093060C0013060400938585A12B
S3150000280013850900EF809A7E8336011AB7E50C001E
S315000028101307090013060400938585A31385090091
S31500002820EF80DA7C8336811AB7E50C0013870B003C
S3150000283013060400938505A713850900EF801A7B0C
S315000028408337010A639407006FE01FF83719000009
S315000028509306011813060400930569B01385040056
S31500002860EF208063E3140512930681181306040013
S31500002870930579B013850400EF200062E316050E78
S315000028809306011913060400930589B01385040005
S31500002890EF208060E316051C9306811913060400D9
S315000028A0930599B013850400EF20005FE31805181F
S315000028B09306011A130604009305A9B013850400B4
S315000028C0EF20805DE310051E9306811A13060400AF
S315000028D09305B9B013850400EF20005C130B0500C7
S315000028E0E312051A833B011803390119130D000081
S315000028F063840B0413050900EFF0494D130C050022
S3150000290013850B00EFF0894C9305050013050C00A9
S31500002910EFE00950B7270E009305050003B507BA87
S31500002920EFE0996AB7270E0083B587B9EFE0992ED5
S31500002930EFF0093B1B0D0500033C81180337811995
S31500002940930C000063080C04130507002334E10E02
S31500002950EFF0C947930C050013050C00EFF009478B
S315000029609305050013850C00EFE0894AB7270E0092
S315000029709305050003B507BAEFE01965B7270E0002
S3150000298083B587B9EFE01929EFF089350337810E52
S315000029909B0C05008337011A33858B01130C00004D
S315000029A0B307F5002334F10E638007042338E10EE4
S315000029B0EFF0C9418337810E130C0500138507001C
S315000029C0EFF0C9409305050013050C00EFE04944FC
S315000029D0B7270E0083B587B9EFE0D923EFF049306A
S315000029E00337010F1B0C05003305E9000339811A73
S315000029F033092501630A0902EFF0493D130B05006F
S31500002A0013050900EFF0893C9305050013050B003B
S31500002A10EFE00940B7270E0083B587B9EFE0991FAD
S31500002A20EFF0092C1B0B0500B7E50C0093860B0095
S31500002A3013060400938585C813850900EF801A5B89
S31500002A4083368118B7E50C0013060400938585CA02
S31500002A5013850900EF809A5983360119B7E50C00F2
S31500002A6013070D0013060400938505CD1385090091
S31500002A70EF80DA5783368119B7E50C0013870C000F
S31500002A8013060400938585D013850900EF801A5636
S31500002A908336011AB7E50C0013070C001306040071
S31500002AA0938505D413850900EF805A548336811A1D
S31500002AB0B7E50C0013070B0013060400938505D831
S31500002AC013850900EF809A526FE01FD0130B0500A3
S31500002AD013060500B7E50C0037D50C009385851D58
S31500002AE0130585F4EFC0CA1613090B006FE09FB3F8
S31500002AF0930B050013060500B7D50C0037D50C005F
S31500002B0093850510130585F4EFC08A1413890B000D
S31500002B106FE05FB1930B050013060500B7D50C00F7
S31500002B2037D50C0093850514130585F4EFC04A12BA
S31500002B3013890B006FE01FAF638A0D5613850D00D6
S31500002B40EFF0C9281304050003358101B7240E00F0
S31500002B50EFF0C92793050400EFE0892B83B584B90C
S31500002B60EFE0590BEFF0C9179B0C05000335010286
S31500002B70EFF0C92593050400EFE0892983B584B9F0
S31500002B80EFE05909EFF0C9151B0C0500033581026A
S31500002B90EFF0C92393050400EFE0892783B584B9D4
S31500002BA0EFE05907EFF0C9139B0B050003358104CD
S31500002BB0EFF0C92193050400EFE0892583B584B9B8
S31500002BC0EFE05905EFF0C9111B0B050003350106AF
S31500002BD0EFF0C91F93050400EFE0892383B584B99C
S31500002BE0EFE05903EFF0C90F1B0A0500033D81060C
S31500002BF09304000063060D0203350107EFF0091D7B
S31500002C001304050013050D00EFF0491C930505009C
S31500002C1013050400EFE0C91FEFF0890C9B040500C3
S31500002C20033D81071304000063060D020335010806
S31500002C30EFF0C9191304050013050D00EFF009198B
S31500002C409305050013050400EFE0891CEFF0490920
S31500002C501B0405000337810383370103033D010588
S31500002C60833D810503380104B387E70003368101FC
S31500002C70B387A701B7E50C00B387B70193860C00AD
S31500002C809385852413850900B38C0701EF801A36D6
S31500002C9003360102B7E50C0093060C009385052761
S31500002CA013850900EF809A3403368102B7E50C00DC
S31500002CB093860B009385852913850900EF801A33C7
S31500002CC063820C4013850C00EFF04910930B05004E
S31500002CD013050D00EFF0890F93850B00372C0E00BE
S31500002CE0EFE0091383358CB9EFE0C972EFE0597F45
S31500002CF09B0C050013850D00EFF0490D93850B0025
S31500002D00EFE0091183358CB9EFE0C970EFE0597D2A
S31500002D101B0D050003350104EFF0490B93850B00ED
S31500002D20EFE0090F83358CB9EFE0C96EEFE0597B10
S31500002D309B0D050003358103EFF0490993850B00D0
S31500002D40EFE0090D83358CB9EFE0C96CEFE05979F6
S31500002D509B08050003350103233C1101EFF0090729
S31500002D6093850B00EFE0C90A83358CB9EFE0896AD9
S31500002D70EFE01977833881019B060500033681044D
S31500002D80B7E50C0013880D0093070D0013870C00A0
S31500002D902330D1009385052C93060B00138509007B
S31500002DA0EF80DA2403360106B7E50C0093060A0025
S31500002DB09385053213850900EF805A230336810671
S31500002DC0B7E50C009385853413850900EF801A2238
S31500002DD003368107B7E50C00938505361385090090
S31500002DE0EF80DA2003368108B7E50C009385853736
S31500002DF013850900EF809A1FB7E50C0013860400BF
S31500002E009385053913850900EF805A1EB7E50C0036
S31500002E10130604009385053B13850900EF801A1DF0
S31500002E206FE09FF8B7D50C00130605002338A10004
S31500002E309385851837D50C00130585F4EFB05A61D4
S31500002E4003370101130907006FE0CFFDB7D50C006A
S31500002E50130605002338A100938585206FF09FFD9A
S31500002E60B7D50C00130605002338A10093858528E5
S31500002E706FF05FFC930B050013060500B7D50C0039
S31500002E8037D50C0093858530130585F4EFB05A5C71
S31500002E9013890B006FE00FF9930B0500130605006D
S31500002EA0B7D50C0037D50C0093858535130585F409
S31500002EB0EFB01A5A13890B006FE0CFF6930B05009B
S31500002EC013060500B7D50C0037D50C009385053AD7
S31500002ED0130585F4EFB0DA5713890B006FE08FF412
S31500002EE0930B050013060500B7D50C0037D50C006B
S31500002EF09385853E130585F4EFB09A5513890B002B
S31500002F006FE04FF2930B050013060500B7D50C00D2
S31500002F1037D50C0093850543130585F4EFB05A5356
S31500002F2013890B006FE00FF013060500B7D50C00F0
S31500002F3037D50C0093850548130585F4EFB05A5133
S31500002F4013890B006FE00FEEB7D50C0013060500D2
S31500002F502338A100938585536FF0DFED130B050031
S31500002F6013060500B7D50C0037D50C009385855B95
S31500002F70130585F4EFB0DA4D13090B006FE08FEA05
S31500002F80B7D50C00130605002338A100938505620A
S31500002F9037D50C00130585F4EFB09A4B8336010143
S31500002FA0138906006FE00FE8130B050013060500F2
S31500002FB0B7D50C0037D50C0093858569130585F4C4
S31500002FC0EFB01A4913090B006FE0CFE5B7D50C0037
S31500002FD0130605002338A100938505706FF05FFB8B
S31500002FE0130B050013060500B7D50C0037D50C00EA
S31500002FF093850577130585F4EFB09A4513090B0001
S315000030006FE04FE2233C010C2338010C2334010C02
S315000030102330010C2338010A233C010A233001081E
S315000030202338010623340108233C01062334010614
S3150000303023380102233C010223300104233C01040E
S31500003040233801042330010623340104233401020A
S3150000305023300102233C0100930D0000930A000077
S315000030606FE09F91930B050013060500B7E50C0072
S3150000307037D50C0093850519130585F4EFB05A3D35
S3150000308013890B006FE00FDA930B0500130605009A
S31500003090B7E50C0037D50C0093858514130585F428
S315000030A0EFB01A3B13890B006FE0CFD7130A00006D
S315000030B0930C0000130C0000930B0000130B000090
S315000030C06FF0DFB293060000930C0000130D0000B2
S315000030D0930D0000930800006FF05FCA930B050084
S315000030E013060500B7D50C0037D50C009385857DF2
S315000030F0130585F4EFB0DA3513890B006FE08FD234
S31500003100930B050013060500B7E50C0037D50C0038
S3150000311093850582130585F4EFB09A3313890B0066
S315000031206FE04FD0930B050013060500B7E50C00C2
S3150000313037D50C0093850593130585F4EFB05A3106
S3150000314013890B006FE00FCE13060500B7E50C00E0
S3150000315037D50C0093858586130585F4EFB05A2F75
S3150000316013090B006FE00FCC930B05001306050047
S31500003170B7E50C0037D50C00938585AF130585F4AC
S31500003180EFB01A2D13890B006FE0CFC9930B050022
S3150000319013060500B7E50C0037D50C00938505AB83
S315000031A0130585F4EFB0DA2A13890B006FE08FC799
S315000031B013060500B7E50C0037D50C009385859CF2
S315000031C0130585F4EFB0DA2813890B006FE08FC57D
S315000031D0930B050013060500B7E50C0037D50C0068
S315000031E093858597130585F4EFB09A2613890B000E
S315000031F06FE04FC3930B050013060500B7E50C00FF
S3150000320037D50C00938505DC130585F4EFB05A24F9
S3150000321013890B006FE00FC1930B05001306050021
S31500003220B7E50C0037D50C00938505E0130585F44A
S31500003230EFB01A2213890B006FE0CFBE930B050087
S3150000324013060500B7E50C0037D50C00938585B944
S31500003250130585F4EFB0DA1F13890B006FE08FBCFE
S31500003260930B050013060500B7E50C0037D50C00D7
S31500003270938585B4130585F4EFB09A1D13890B0069
S315000032806FE04FBA13060500B7E50C0037D50C0002
S31500003290938585C3130585F4EFB09A1B13090B00BC
S315000032A06FE04FB8930B050013060500B7E50C0059
S315000032B037D50C00938585BE130585F4EFB05A19F2
S315000032C013890B006FE00FB6930B0500130605007C
S315000032D0B7E50C0037D50C00938505E4130585F496
S315000032E0EFB01A1713890B006FE0CFB3930B0500ED
S315000032F013060500B7E50C0037D50C00938505ECE1
S31500003300130585F4EFB0DA1413890B006FE08FB163
S31500003310930B050013060500B7E50C0037D50C0026
S31500003320938505E8130585F4EFB09A1213890B000F
S315000033306FE04FAF130B050013060500B7E50C0051
S3150000334037D50C00938585F0130585F4EFB05A1038
S3150000335013090B006FE00FAD930B05001306050074
S31500003360B7E50C0037D50C00938505FA130585F4EF
S31500003370EFB01A0E13890B006FE0CFAA930B05006E
S3150000338013060500B7E50C0037D50C00938505F547
S31500003390130585F4EFB0DA0B13890B006FE08FA8E5
S315000033A0130B050013060500B7E50C0037D50C0016
S315000033B09385050F130585F4EFB09A0913090B00E1
S315000033C06FE04FA6930B050013060500B7E50C004A
S315000033D037D50C0093858509130585F4EFB05A0798
S315000033E013890B006FE00FA4930B0500130605006D
S315000033F0B7E50C0037D50C0093850504130585F455
S31500003400EFB01A0513890B006FE0CFA1930B0500EF
S3150000341013060500B7E50C0037D50C00938505FFAC
S31500003420130585F4EFB0DA0213890B006FE08F9F66
S31500003430130101FA23349104233C310393840500DC
S315000034409309060093052000130681002330210509
S31500003450233C1104233881042338410323345103C8
S3150000346013090500EF009011630405041304050019
S3150000347013060500B7E50C0037D50C0093850568E3
S31500003480130585F4EFB0CA7C83308105130504006B
S31500003490033401058334810403390104833981032C
S315000034A0033A0103833A8102130101066780000093
S315000034B0130601019305100013050900EF00100C17
S315000034C01304050063100506033A8100833A0101DF
S315000034D03B065A0363649608E38809FA13068101DA
S315000034E09305600013050900EF0050091304050059
S315000034F063180504939704021387FAFF93D707020C
S31500003500B307F700B3D757039B870700335AFA026E
S31500003510833781011B0A0A0033DA470323A04901D6
S315000035206FF09FF613060500B7E50C0037D50C00C3
S315000035309385056C130585F4EFB08A716FF0DFF49F
S3150000354013060500B7E50C0037D50C009385057505
S31500003550130585F4EFB0CA6F6FF01FF337E50C0063
S315000035609385040013050570EFB08A6E1304F0FF0F
S315000035706FF09FF1130101DB2334112423308124E2
S31500003580233C912223382123233431232330412322
S31500003590233C512123386121233471212330812199
S315000035A06302052E93840500638E052C130B06001B
S315000035B0630A062C930A05001305810FEF40543366
S315000035C0B7470D009387871903B48700231C011C96
S315000035D083BB0701833784FE37590D001309092E73
S315000035E013070120B307F700233C210F2338011CE2
S315000035F02330011E2334011E2338011E233C011EE5
S31500003600233C810023BC77E123300102033584FE8D
S3150000361093078101930500003385A700EF40C40B93
S31500003620374A0D00B7490D00130A0A1D9389891FF1
S3150000363013058102233C4101233C310FEFA0437A5D
S31500003640930581021305810FEF40040913068000DC
S315000036509385040013058102EFB00331833781019E
S315000036601307810183B787FEB307F7006306051CBE
S315000036709305000013850700EF30140F832781118F
S3150000368093F75700639C071213062000930500006A
S3150000369013058101EF80842C13058101EF808407D7
S315000036A02334A1002338B100930405006340051EAE
S315000036B0630E0518EF3050091386040093050000C9
S315000036C0130C0500EFB00A3D130600009305000039
S315000036D013058101EF8084281386040093050C00EE
S315000036E013058101EF70142593060B001386040061
S315000036F093050C0013850A00EFD0DFD8930405006C
S315000037006310050A63060C0013050C00EF20407FCA
S31500003710B7470D009387870D13058102233C4101AE
S31500003720233C310F2334F102EFA053751305010733
S31500003730EF309054B7770D009387879113050106F4
S315000037402334F102EF500033833784FE1307012040
S31500003750233C8100B307F70023BC77E11305810FF3
S3150000376023300102233C210FEF40D44483308124CF
S31500003770033401240339012383398122033A0122C8
S31500003780833A8121033B0121833B8120033C0120B5
S31500003790138504008334812313010125678000000B
S315000037A013060500B7E50C0037D50C009385057E9A
S315000037B0130585F4EFB0CA496FF0DFF4B7CA1000FD
S315000037C0B7E50C00130670009385057913858A9476
S315000037D0EFF0050D13850400EFE0DA61130605002E
S315000037E09385040013858A94EFF0850BB7E50C00EA
S315000037F01306A0009385857913858A94EFF0450A10
S3150000380013878A948337070083B787FEB387E70059
S3150000381083B4070F6382040883C78403638C07029B
S3150000382083C5340413858A94EFE01546EFE0052B33
S315000038309304F0FF6FF0DFED83A507021385070001
S3150000384093E54500EF3044726FF05FE3130C000020
S315000038506FF09FE713850400EF70416103B7040022
S31500003860B74700009387C7CC033707039305A0002B
S31500003870E30AF7FA13850400E7000700930505003D
S315000038806FF05FFA9304F0FF6FF05FEE37E50C0020
S315000038901305857AEFC09FC7EFC09FB113040500DB
S315000038A01305810F233C210FEF40D430130504008C
S315000038B0EF308A7E93070500033784FE233C8100A0
S315000038C01384070093070120B387E70023BC77E141
S315000038D0233001026FF0DFFC1304050063060C00C1
S315000038E013050C00EF20C06113058101EFB00359E9
S315000038F013050400EF304A7AEF208061EF20C06A9A
S315000039006FF0DFE2130405006FF01FFE930405005D
S3150000391013058102EFA0D369938704006FF0DFF9E6
S31500003920130101DB2334112423308124233C91220B
S31500003930233821232334312323304123233C5121AF
S315000039402338612123347121233081216302052E1E
S3150000395093840500638E052C130B0600630A062C60
S31500003960930A05001305810FEF408478B7470D00D1
S315000039709387871903B48700231C011C83BB0701A7
S31500003980833784FE37590D001309092E13070120CA
S31500003990B307F700233C210F2338011C2330011EF7
S315000039A02334011E2338011E233C011E233C8100C3
S315000039B023BC77E123300102033584FE930781019E
S315000039C0930500003385A700EF301451374A0D00E8
S315000039D0B7490D00130A0A1D9389891F1305810231
S315000039E0233C4101233C310FEFA0833F9305810225
S315000039F01305810FEF30544E1306800093850400A3
S31500003A0013058102EFA053768337810113078101E5
S31500003A1083B787FEB307F7006306051C930500000E
S31500003A2013850700EF3044548327811193F757001D
S31500003A30639C0712130620009305000013058101FD
S31500003A40EF70D47113058101EF70D44C2334A100BB
S31500003A502338B100930405006340051E630E051864
S31500003A60EF30804E1386040093050000130C05000A
S31500003A70EFB04A021306000093050000130581010A
S31500003A80EF70D46D1386040093050C0013058101B5
S31500003A90EF70446A93060B001386040093050C002E
S31500003AA013850A00EFD05F89930405006310050AA9
S31500003AB063060C0013050C00EF208044B7470D0089
S31500003AC09387870D13058102233C4101233C310F67
S31500003AD02334F102EFA0933A13050107EF30D01912
S31500003AE0B7770D0093878791130501062334F102FA
S31500003AF0EF405078833784FE13070120233C810072
S31500003B00B307F70023BC77E11305810F23300102C9
S31500003B10233C210FEF40140A83308124033401240F
S31500003B200339012383398122033A0122833A812111
S31500003B30033B0121833B8120033C012013850400C4
S31500003B4083348123130101256780000013060500D5
S31500003B50B7F50C0037D50C0093858581130585F4E0
S31500003B60EFB00A0F6FF0DFF4B7CA1000B7E50C002C
S31500003B70130670009385057913858A94EFE05552F4
S31500003B8013850400EFE01A27130605009385040049
S31500003B9013858A94EFE0D550B7E50C001306A00014
S31500003BA09385857913858A94EFE0954F13878A94D8
S31500003BB08337070083B787FEB387E70083B4070F11
S31500003BC06382040883C78403638C070283C53404B5
S31500003BD013858A94EFE0550BEFD055709304F0FFF0
S31500003BE06FF0DFED83A507021385070093E5450017
S31500003BF0EF3084376FF05FE3130C00006FF09FE740
S31500003C0013850400EF70812603B70400B747000050
S31500003C109387C7CC033707039305A000E30AF7FA97
S31500003C2013850400E7000700930505006FF05FFAAF
S31500003C309304F0FF6FF05FEE37E50C001305857A0D
S31500003C40EFC0DF8CEFC0CFF6130405001305810F1C
S31500003C50233C210FEF40047613050400EF30CA43DE
S31500003C6093070500033784FE233C81001384070075
S31500003C7093070120B387E70023BC77E123300102D5
S31500003C806FF0DFFC1304050063060C0013050C003F
S31500003C90EF20002713058101EFB0431E1305040032
S31500003CA0EF308A3FEF20C026EF2000306FF0DFE2D2
S31500003CB0130405006FF01FFE93040500130581022F
S31500003CC0EFA0132F938704006FF0DFF9138505002B
S31500003CD06780000067800000130101FF2334110094
S31500003CE0EF609A3183308100B7470F00938707242E
S31500003CF03305F5021301010167800000130101FD80
S31500003D00233C9100930405002330810223382101CE
S31500003D10233431012334110293890500EF60DA2D33
S31500003D2003B40400B7D79A3B938707A03304F40281
S31500003D3083B78400B7440F00130905009384042455
S31500003D403304F400EF605A2BB3072541B38797027B
S31500003D50E3EA87FE6386090023B0090023B409005D
S31500003D608330810203340102833481010339010166
S31500003D70833981001301010367800000630C050A83
S31500003D809307700063ECB70AB7F70C0093878707B1
S31500003D9093952500B385F50083A705006780070086
S31500003DA0034755069307100013050000B397E70075
S31500003DB02330F60067800000833785061305000070
S31500003DC02330F600678000008347050613050000D0
S31500003DD02330F600678000008347150613050000B0
S31500003DE02330F60067800000834725061305000090
S31500003DF02330F600678000008337050613050000B0
S31500003E0093D787019397070393D707032330F600C9
S31500003E1067800000930700042330F60013050000B6
S31500003E206780000083370507130500002330F6007E
S31500003E30678000001305F0FF6780000083B701026A
S31500003E4013860500B7F50C0003B58701130101FFC2
S31500003E509385858523341100EF705A19EF605A0255
S31500003E6063080510130101FE23388100033485031E
S31500003E7023349100233C110093040500630A0400D7
S31500003E801305040003340400EF208007E31A04FE40
S31500003E9003B6040303B58402930500001316360027
S31500003EA0EFA05A3F03B5840223B0040423BC0402E6
S31500003EB0938784056304F500EF20800403B40402AD
S31500003EC0630A0400832784001B87F7FF2324E4008A
S31500003ED06306070603B4040163020404832784000F
S31500003EE01B87F7FF2324E400631A070283370400C5
S31500003EF01305040083B70701E78007008327C40082
S31500003F001B87F7FF2326E400631A070083370400A4
S31500003F101305040083B78701E780070013850400B3
S31500003F20EF10107E83308101033401018334810058
S31500003F3013050000130101026780000083370400A7
S31500003F401305040083B70701E78007008327C40031
S31500003F501B87F7FF2326E400E31E07F683370400DA
S31500003F601305040083B78701E78007006FF09FF60B
S31500003F701305F0FF678000006308053A130101FB93
S31500003F80233471012334110423308104233C91022C
S31500003F90233821032334310323304103233C5101C9
S31500003FA02338610123308101938B0600638C06342C
S31500003FB0138B050063880534033A85009384F5FF67
S31500003FC0930A050083674A0103368A01B384F40025
S31500003FD0B307F040B3F4F400630A0622130906009F
S31500003FE0833789026384070E03B7870363789700D4
S31500003FF06F00C00D03B7870363689700138407003B
S3150000400083B70700E39807FE0336840103370401EC
S31500004010033C84038339040383368400630606283D
S315000040202338E6000337040163040700233CC70076
S3150000403023380400233C04006386061C23B0F600E4
S31500004040833704006384070023B4D700836789019C
S31500004050330C9C402330040023340400637CFC0EA4
S31500004060833709022330F4026384070023B48702EE
S3150000407083378A022330890213058001B3849700AF
S3150000408023349A02EF20506C233055012334350136
S315000040902338650123B0AB0013050000833081048B
S315000040A00334010483348103033901038339810214
S315000040B0033A0102833A8101033B0101833B8100FC
S315000040C0033C010013010105678000000339090064
S315000040D0E31809F083670A0183390A00138CF7FF96
S315000040E0330C9C00B307F040337CFC00833786001A
S315000040F033073C0163F8E7128339060103360600ED
S31500004100B3893701E31406FE83378A0033878901B2
S3150000411063FAE71037F50C0013050588EFA09A69D6
S3150000412037D40C00B7F50C001306F0FF938585898C
S31500004130130584F4EFA0DA31B7F50C001306F0FF8F
S315000041409385058C130584F4EFA09A301305F0FFD0
S315000041506FF0DFF4233C940213050004EF20D05ED9
S3150000416083370903B389340123300500233405005E
S3150000417023380500233C05002330050223340502BD
S3150000418023383503233C8503638C07189306000008
S315000041906F00400103B70701938607006306071403
S315000041A09307070003B70703E36637FF2338F500D5
S315000041B0233CD5006380061423B8A60023BCA700C1
S315000041C08337890263840714930600006F00400159
S315000041D003B7070093860700630E070E93070700D1
S315000041E003B78703E366ECFE2330F5002334D500DE
S315000041F06386061023B0A6008339040323B4A70000
S315000042006FF01FE62334F9026FF0DFE383670A01DC
S3150000421083390A00138CF7FF330C9C00B307F04078
S31500004220337CFC0013058003EF20105283274A01DC
S315000042301309050023300500233435012338850191
S31500004240232CF5002330050213050004EF20D04F80
S3150000425083378A01233005002334050023380500FF
S31500004260233C050023300502233405022338350399
S31500004270233C85032338A9022334A902130405002D
S31500004280638807008336890003B7870063F8E60270
S315000042902330F900233C2A01636C9C089307000035
S315000042A093060000130700002338E90213060000F6
S315000042B06FF09FD703B787006378D7001386070090
S315000042C083B70700E39807FE2330F9002330260161
S315000042D06FF09FFC233005002334F5008339040377
S315000042E023B0A7006FF0DFD7233CF50023B8A70063
S315000042F06FF01FED2338A9026FF05FEC2334A9029B
S315000043006FF09FEF1305F0FF6FF05FD923300500C4
S3150000431023340500833904032334A9026FF05FD4E4
S315000043202338A9026FF0DFE91305F0FF678000006C
S31500004330833780017300100013040500130509007C
S31500004340EF10103C13050400EF201A55630A0532DE
S31500004350130101FB2334710123341104233081043A
S31500004360233C9102233821032334310323304103B4
S31500004370233C51012338610123308101930B07004F
S31500004380630A072C130B06006306062C033A850006
S315000043909309F6FF930A050083670A0103378A002B
S315000043A013840500B389F900B307F040B3F9F900A7
S315000043B0B38435016360972C83378A0163900702C3
S315000043C06F0000086366040363F49606637298023E
S315000043D063F0860283B707006384070683B6870007
S315000043E003B8070133880601E37ED4FC63F4960420
S315000043F037F50C0013050597EFA0DA3B37D40C0010
S31500004400B7F50C001306F0FF93858591130584F428
S31500004410EFA01A04B7F50C001306F0FF9385059478
S31500004420130584F4EFA0DA021305F0FF6F00400EC7
S31500004430E3E286FAE3FE04FB83B70700E39007FA9C
S3150000444013058003EF20503083274A01130C050023
S315000044501305000423300C0023348C0023383C0160
S31500004460232CFC0023300C02EF20102E83378A0108
S31500004470233005002334050023380500233C0500BE
S31500004480233005022334050223388502233C3503F5
S315000044902338AC022334AC021309050063880700F5
S315000044A083368C0003B7870063F0E60A2330FC00EE
S315000044B083278C01233C8A0123380C022338090008
S315000044C0233C090023340C0223300900233409005D
S315000044D06386070A83370C022330F90263840700D8
S315000044E023B4270383378A0223302C031305800164
S315000044F0B389370123343A03EF20102523305501C1
S31500004500233485002338650123B0AB001305000072
S3150000451083308104033401048334810303390103A6
S3150000452083398102033A0102833A8101033B010187
S31500004530833B8100033C01001301010567800000F5
S3150000454003B787006378D7001386070083B7070091
S31500004550E39807FE2330FC0083278C012330860175
S3150000456023380C0223380900233C090023340C02AB
S315000045702330090023340900E39E07F413050004E1
S31500004580233C3903EF20501C83370C0323300500EE
S315000045902334050023380500233C0500233005029B
S315000045A02334050223389502233C05026380070C59
S315000045B0930600006F00400103B7070193860700CA
S315000045C0630207069307070003B70703E36697FE30
S315000045D02338F500233CD5006384060623B8A600DD
S315000045E023BCA70083378C02638A07069306000064
S315000045F06F00400103B7070093860700630A0702AE
S315000046009307070003B78703E31607FE2330F50079
S315000046102334D500638A060223B0A60023B4A7007C
S315000046206FF05FEB233CF50023B8A7006FF09FFB0C
S31500004630233005002334F50023B0A7006FF09FE96F
S315000046402338AC026FF0DFF92334AC0223B4A700A1
S315000046506FF05FE81305F0FF6FF09FEB2330050066
S31500004660233405002334AC026FF0DFE62338AC02B6
S315000046706FF05FF737F50C001305058F6FF0DFD786
S315000046801305F0FF678000001304050013050C00F6
S31500004690EF10100713050400EF201A20130101FD87
S315000046A02330810223341102233C91002338210157
S315000046B02334310113040000630C0506833705001B
S315000046C0033785009304050003B987000334890185
S315000046D06304040883378400636CF7068336040199
S315000046E0B387D7006376F70683350402639805001F
S315000046F06F00000683B50502638C050483B70503C6
S31500004700E31AF7FE1305040083B98503EF10401082
S3150000471083370402638E070483378902130400007B
S31500004720B38737412334F90213850400EF10407D27
S3150000473083308102130504000334010283348101AE
S3150000474003390101833981001301010367800000E9
S3150000475003340400E31004F837F50C009305070052
S315000047601305859AEFA0CA4E1304F0FF6FF0DFFB26
S3150000477083378901638E0700639687006F00800385
S31500004780638487021387070083B70700E39A07FE4F
S315000047900335040363040500EF1080761305040057
S315000047A0EF1000766FF05FF7833704002330F700D1
S315000047B06FF01FFE83370400233CF9006FF05FFDA6
S315000047C0630A0500833785001305000023B0F50052
S315000047D0678000001305F0FF67800000930705005F
S315000047E0630A0502638C05008336850003B78600DD
S315000047F083B686023307D74023B0E50013050000D1
S31500004800630C060083B7870083B787022330F60060
S31500004810678000001305F0FF67800000130101F8B0
S31500004820233C1106233881062334910623302107C1
S31500004830233C3105233841052334510523306105D6
S31500004840233C710323388103233491032330A103CE
S31500004850233CB10163020518B7440F0013890424F1
S31500004860930A0500138A150093091000130B000024
S31500004870930BF0FF930C803E37FD0C00130C700C6D
S315000048809384F423130681009305400113850A00DF
S3150000489023340100EF1000371304050063140510DC
S315000048A003368100937D7600630A0B04B3F7990300
S315000048B0638407006300760313B71D0093860D001B
S315000048C09385090013050DA7EFA08A3803368100EA
S315000048D0930B060063880D0463884909EF50DA716B
S315000048E013040500EF505A7133058540330525033F
S315000048F0E3FAA4FE938919006FF0DFF8E37C3CFD30
S31500004900B7F70C0093860D0093850900138507A35E
S31500004910EFA00A34833B8100130B100013860B00B3
S31500004920E39C0DFA63120B0683308107130504001E
S31500004930033401078334810603390106833981056F
S31500004940033A0105833A8104033B0104833B810357
S31500004950033C0103833C8102033D0102833D810147
S31500004960130101086780000013070000E30E0BFA2D
S3150000497037F50C0093860D0093850900130585AA6B
S31500004980EFA00A2D6FF05FFA37F50C001307100041
S3150000499093860D0093850900130585AAEFA04A2B7F
S315000049A06FF09FF8B7D40C00B7F50C00130605009E
S315000049B09385859D138584F4EFA08A29B7F50C00AD
S315000049C01306F0FF938505A0138584F4EFA04A280B
S315000049D01304F0FF6FF05FF51304F0FF6FF0DFF4E0
S315000049E0130101FC233C1102233881022334910276
S315000049F023302103233C3101233841012334510163
S31500004A006306051E138405006382051E0337050130
S31500004A10B307D60083340500636AF71C03398500A3
S31500004A20330926019377F9036392071C9386F603ED
S31500004A3083B7040793F906FC3307390163E8E71ADD
S31500004A40376A260593050AC013850400EFF01FDDBB
S31500004A50930A0500631C050893D729006386090A93
S31500004A6093992700B38989003B098940130A0AC034
S31500004A706F008000630A3409032604009305800052
S31500004A8013850400EF10C016930705003B06890046
S31500004A90930540001385040013044400639A070835
S31500004AA0EF10001593070500130640009305C0009C
S31500004AB0138504006396070AEF1080139307050019
S31500004AC01306200093050000138504006392070C6B
S31500004AD0EF1000121306050093050A001385040063
S31500004AE06310060EEFF09FD3E30605F837D40C00EB
S31500004AF0B7F50C001306F0FF938505C0130584F483
S31500004B00EFA00A15930AF0FF8330810303340103F3
S31500004B10833481020339010283398101033A010199
S31500004B2013850A00833A810013010104678000009F
S31500004B3037D40C00B7F50C0013860700938505B033
S31500004B40130584F4EFA0CA10B7F50C001306F0FFA6
S31500004B50938585B2130584F4EFA08A0F6FF05FF991
S31500004B6037D40C00B7F50C0013860700938505B003
S31500004B70130584F4EFA0CA0DB7F50C001306F0FF79
S31500004B80938585B5130584F4EFA08A0C6FF05FF664
S31500004B9037D40C00B7F50C0013860700938505B0D3
S31500004BA0130584F4EFA0CA0AB7F50C001306F0FF4C
S31500004BB0938505BA130584F4EFA08A096FF05FF3B5
S31500004BC037D40C00B7F50C00938505B0130584F4B3
S31500004BD0EFA00A08B7F50C001306F0FF938505BD94
S31500004BE0130584F4EFA0CA066FF09FF0930AF0FF56
S31500004BF06FF09FF1130101FB23341104233081046C
S31500004C00233C91022338210323343103233041030B
S31500004C10233C5101638C051E130405006308051E21
S31500004C2003B70501B307D60083B405001389060050
S31500004C30636EF71C83B98500B309360193F7F90350
S31500004C406396071C9387F60303B7040793F707FCDD
S31500004C50B3873701636CF71A376A260593050AC0CE
S31500004C6013850400EFF09FBB930A05006310050A45
S31500004C7013592900630A090A131929003309240163
S31500004C80BB898940130A0AC06F00C001EF00907704
S31500004C90631605148337810013044400232EF4FEA3
S31500004CA0630489083B868900930540001385040048
S31500004CB0EF00107493070500130640009305C0002B
S31500004CC01385040063960708EF00907293070500AA
S31500004CD01306100093050000138504006392070A6B
S31500004CE0EF0010711306050093050A0013850400F2
S31500004CF06310060CEFF09FB29307050013068100C0
S31500004D009305000113850400E38207F837D40C00ED
S31500004D10B7F50C001306F0FF938505C9130584F457
S31500004D20EF901A73930AF0FF833081040334010471
S31500004D30833481030339010383398102033A010273
S31500004D4013850A00833A810113010105678000007B
S31500004D5037D40C00B7F50C0013860700938505B011
S31500004D60130584F4EF90DA6EB7F50C001306F0FF26
S31500004D70938585B5130584F4EF909A6D6FF05FF90E
S31500004D8037D40C00B7F50C0013860700938505B0E1
S31500004D90130584F4EF90DA6BB7F50C001306F0FFF9
S31500004DA0938505BA130584F4EF909A6A6FF05FF65F
S31500004DB037D40C00B7F50C00938505B0130584F4C1
S31500004DC0EF901A69B7F50C001306F0FF938585C3BB
S31500004DD0130584F4EF90DA676FF09FF337D40C0075
S31500004DE0B7F50C00130605009385859D130584F41D
S31500004DF0EF901A66B7F50C001306F0FF938585C68B
S31500004E00130584F4EF90DA646FF09FF0930AF0FFD5
S31500004E106FF09FF1630E0504630C060483380503E7
S31500004E209397050293D70702B3F717030337850253
S31500004E30939637003307D70003380700630A080242
S31500004E4003370800832687006388D50203350700E9
S31500004E5013080700630E0500832685001307050067
S31500004E60139506021355050233751503E38EA7FC49
S31500004E701305F0FF6780000083370800E38A07FE0A
S31500004E8083A7C700130500002320F60067800000F3
S31500004E901305000067800000630A050063880600AA
S31500004EA023B0060013050000678000001305F0FF1D
S31500004EB067800000130101FA233C110423388104A2
S31500004EC02334910423302105233C31032338410345
S31500004ED023345103233061036308052493840500BA
S31500004EE0130A060013860500930540001304050007
S31500004EF0139B0402EF00D04F135B0B0263180518D7
S31500004F0013060A009305800013050400EF00504EB7
S31500004F106318051A130640009305000013050400E4
S31500004F20EF00104D930905006316051C8335040335
S31500004F30833784023375BB02931A3500B387570152
S31500004F4003B60700630A06068337060003A7870031
S31500004F506386E40283B607006380060603A786001D
S31500004F60138607009317070293D70702B3F7B70212
S31500004F706314F50493870600E39EE4FC833706007A
S31500004F801389C700638A07022320490183308105FC
S31500004F90033401058334810403390104033A010310
S31500004FA0833A8102033B0102138509008339810399
S31500004FB0130101066780000013050001EF10D07889
S31500004FC083370405033604048335040313090500F7
S31500004FD09306100013058404233009002324990046
S31500004FE0232609002334F100EF10D4562338A100FC
S31500004FF0233CB1001375F50F631C050203378402C9
S31500005000B30A570183B70A006388070483B707000A
S315000050102330F90083B70A0023B02701833704043D
S315000050201309C900938717002330F4046FF0DFF5E6
S315000050301306810013058402EF005022833A04030D
S3150000504003378402B37A5B03939A3A00B30A570193
S3150000505083B70A00E39C07FA83378403233C2403BF
S315000050602330F900638E070083E787008336040345
S31500005070B3F7D702939737003307F700233027019A
S315000050809307840323B0FA006FF05FF937D40C005E
S31500005090B7F50C0013060500938505B0130584F4D7
S315000050A0EF901A3BB7F50C001306F0FF938585CCFD
S315000050B0130584F4EF90DA399309F0FF6FF01FEDD2
S315000050C037D40C00B7F50C0013060500938505B020
S315000050D0130584F4EF90DA37B7F50C001306F0FFEA
S315000050E0938585CF130584F4EF909A369309F0FFE4
S315000050F06FF0DFE937D40C00B7F50C001306050096
S31500005100938505B0130584F4EF909A34B7F50C0037
S315000051101306F0FF938585D2130584F4EF905A3376
S315000051209309F0FF6FF09FE69309F0FF6FF01FE61B
S315000051301304050013050900EF00905C1305040035
S31500005140EF109A75130101FC233C110223388102EA
S315000051502334910223302103233C310123384101BA
S315000051602334510123306101630E05441309050000
S3150000517013058007EF10505DB7F5FF019395750095
S3150000518013040500EF009021930710009394070283
S315000051902338F40283A701DB9309840513068406EA
S315000051A09305000213050400233404002338040089
S315000051B0233C04002330040223343403233C04023A
S315000051C0233004042324F40423380404233C040475
S315000051D023389406EF00D01E631205381306040622
S315000051E09305800113050400EF00901D6312053A34
S315000051F013050004EF105055B7F60C00938A861C71
S3150000520037070004B7060100033A04012338D50026
S3150000521013071700B7F6FF0F938414001306050152
S31500005220939646001317C700233055012334950083
S31500005230233CD5002330E50223340502233C050236
S315000052402334C4002338A400630A0A0083278A0093
S315000052501B87F7FF2324EA0063020716034A540656
S3150000526093041000339A440163FA44193706006028
S315000052709305100013050400EFF0DFC39304050047
S31500005280631C051013060000930520001305040097
S31500005290EFF05FC293040500630C051E13060500BC
S315000052A0B7F50C0037D50C00938505E5130585F495
S315000052B0EF901A1A03398403630A090013050900DB
S315000052C003390900EF00D043E31A09FE033604034D
S315000052D0033584029305000013163600EF908A7B8F
S315000052E00335840223300404233C04026384A900AA
S315000052F0EF00104103390402630A0902832789007B
S315000053001B87F7FF2324E90063120702833709008E
S315000053101305090083B70701E78007008327C90043
S315000053201B87F7FF2326E9006308071E03390401DC
S31500005330630A0902832789001B87F7FF2324E900F4
S3150000534063120702833709001305090083B70701B3
S31500005350E78007008327C9001B87F7FF2326E9009C
S315000053606306071C13050400EF00903983308103A0
S31500005370033401030339010283398101033A010130
S31500005380833A8100033B01001385040083348102C4
S31500005390130101046780000013060500B7F50C0031
S315000053A037D50C00938505E0130585F4EF905A0A6E
S315000053B003398403E31409F06FF05FF183370A00C1
S315000053C013050A0083B70701E78007008327CA0091
S315000053D01B87F7FF2326EA00E31207E883370A0054
S315000053E013050A009304100083B78701E7800700BE
S315000053F0034A5406339A4401E3EA44E713050004DA
S31500005400EF10903437071000033B04029394040214
S315000054101307170093841400930605013706007FCF
S315000054201317C70023305501233495002338C500D0
S31500005430233C45012330E50223340502233C0502C3
S31500005440233CD4002330A402E3020BE283278B0023
S315000054501B87F7FF2324EB00E31A07E083370B00D3
S3150000546013050B0083B70701E78007008327CB00EE
S315000054701B87F7FF2326EB00E31A07DE83370B00B3
S3150000548013050B0083B78701E78007006FF01FDE67
S31500005490130600009305300013050400EFF09FA1EA
S315000054A093040500631C05021306000093054000E3
S315000054B013050400EFF01FA093040500630E050218
S315000054C013060500B7F50C0037D50C00938505EDDE
S315000054D0130585F4EF90CA776FF09FED130605006C
S315000054E0B7F50C0037D50C00938585E9130585F4CF
S315000054F0EF900A766FF0DFEB13060000930550007D
