S01C00006770752D6576616C756174696F6E2D6C696768742E7372656312
S3150000000097210E009381815D9702000093828215ED
S3150000001073905230732440F163100402970200007B
S315000000209382421573905230EF909A2397120000F4
S31500000030938242DCE780020013132400970200003B
S315000000409382420CB302530003A302000F00F00F89
S31500000050E31C03FE17DE1000130ECE789313440044
S31500000060B30E7E00138F8E0083BF0E0003310F0088
S31500000070970200009382021073905230732540F16C
S31500000080E7800F00130000001300000013000000BB
S31500000090130000001300000013000000130000000E
S315000000A013000000130000001300000013000000FE
S315000000B013000000130000001300000013000000EE
S315000000C013000000130000001300000013000000DE
S315000000D013000000130000001300000013000000CE
S315000000E013000000130000001300000013000000BE
S315000000F013000000130000001300000013000000AE
S3150000010073001000730010007300100073001000DD
S3150000011073001000730010007300100073001000CD
S3150000012073001000730010007300100073001000BD
S3150000013073001000730010007300100073001000AD
S3150000014013132500970300009383C3FBB3027300C8
S315000001500F00500F23A00200130500006780000067
S3150000016073001000130000001300000013000000CD
S3150000017073202034130101EF23301100233831009E
S31500000180233C41002330510223346102233871029B
S31500000190233C8102233091042334A1042338B10483
S315000001A0233CC1042330D1062334E1062338F1066B
S315000001B0233C01072330110923342109233831094F
S315000001C0233C41092330510B2334610B2338710B37
S315000001D0233C810B2330910D2334A10D2338B10D1F
S315000001E0233CC10D2330D10F2334E10F2338F10F07
S315000001F073250030F325103473262034233CA10EDA
S315000002002330B1102334C11063560600EF909A14C0
S315000002106F00C00093060100EF905A13833001006F
S3150000022083310101033281018332010203338102EA
S3150000023083330103033481038334010403358104CA
S3150000024083350105033681058336010603378106AA
S31500000250833701070338810783380108033981088A
S3150000026083390109033A8109833A010A033B810A6A
S31500000270833B010B033C810B833C010C033D810C4A
S31500000280833D010D033E810D833E010E033F810F29
S31500000290833F011073100F3073901F34033F810E9C
S315000002A0833F010F1301011173002030000000008D
S315000002B00000000000000000000000000000000038
S315000002C00000000000000000000000000000000028
S315000002D00000000000000000000000000000000018
S315000002E00000000000000000000000000000000008
S315000002F000000000000000000000000000000000F8
S3150000030000000000000000000000000000000000E7
S3150000031000000000000000000000000000000000D7
S3150000032000000000000000000000000000000000C7
S3150000033000000000000000000000000000000000B7
S3150000034000000000000000000000000000000000A7
S31500000350130101FF1305800023341100EF20C93873
S31500000360B7A70D00938707CE37360900B7A50D004E
S315000003702330F5001306C681938585C2EF60903C55
S31500000380130101FF1305800023341100EF20C93546
S31500000390B7870D00938787B437060800B7850D0029
S315000003A02330F5001306C6D0938505B2EF60903969
S315000003B0130101FF1305800023341100EF20C93219
S315000003C0B7870D00938787BA37060800B7850D00F3
S315000003D02330F500130606D6938505B8EF609036F0
S315000003E0130101FF1305800023341100EF20C92FEC
S315000003F0B7870D00938787C037060800B7850D00BD
S315000004002330F500130646DB938505BEEF60903377
S31500000410130101FE233881001304050013050001B2
S31500000420233C110023349100EF20092C930504008E
S3150000043013040500EF70C94C37660900B7A50D0017
S31500000440130606239385851F13050400EF60902F7E
S315000004509304050013050400EF20892E138504007C
S31500000460EF609A5C130101FE233881001304050036
S3150000047013050001233C110023349100EF20C92607
S315000004809305040013040500EF70C94C3766090094
S31500000490B7A50D001306066D938585221305040086
S315000004A0EF60502A9304050013050400EF20492944
S315000004B013850400EF605A57130101FE23388100AB
S315000004C01304050013050001233C11002334910099
S315000004D0EF2089219305040013040500EF70894D70
S315000004E037660900B7A50D001306066793858525AF
S315000004F013050400EF60102593040500130504009E
S31500000500EF20092413850400EF601A52130101FE3F
S31500000510233881001304050013050001233C110054
S3150000052023349100EF20491C9305040013040500B1
S31500000530EF70494E37660900B7A50D001306065B36
S315000005409385852813050400EF60D01F93040500EA
S3150000055013050400EF20C91E13850400EF60DA4C72
S31500000560130101FE23388100130405001305000161
S31500000570233C110023349100EF2009179305040052
S3150000058013040500EF70094F37660900B7A50D0083
S31500000590130606619385852B13050400EF60901AF8
S315000005A09304050013050400EF2089191385040040
S315000005B0EF609A47130101FE2338810013040500FA
S315000005C013050001233C110023349100EF20C911CB
S315000005D09305040013040500EF70C94F3766090040
S315000005E0B7A50D00130606299385852E130504006D
S315000005F0EF6050159304050013050400EF2049141D
S3150000060013850400EF605A42130101FE233881006E
S315000006101304050013050001233C11002334910047
S31500000620EF20890C9305040013040500EF70C94FF1
S3150000063037660900B7A50D00130606359385053103
S3150000064013050400EF601010930405001305040061
S31500000650EF20090F13850400EF601A3D130101FE18
S31500000660233881001304050013050001233C110003
S3150000067023349100EF204907930504001304050075
S31500000680EF70895037660900B7A50D001306063BC3
S315000006909385053413050400EF60D00A9304050022
S315000006A013050400EF20C90913850400EF60DA374B
S315000006B0130101FE23388100130405001305000110
S315000006C0233C110023349100EF2009029305040016
S315000006D013040500EF70495137660900B7A50D00F0
S315000006E01306062F9385053713050400EF60900562
S315000006F09304050013050400EF2089041385040004
S31500000700EF609A32130101FF1305800023341100B4
S31500000710EF10997DB7870D00938787BA37060800D3
S31500000720B7850D002330F500130606D6938505B868
S31500000730EF605001130101FF1305800023341100FF
S31500000740EF10997AB7870D00938787C037060800A0
S31500000750B7850D002330F500130646DB938505BEED
S31500000760EF60407E130101FF130580002334110062
S31500000770EF109977B7B70D009387071337B60900BF
S31500000780B7B50D002330F5001306868E93858510C8
S31500000790EF60407B130101FD233C910093040500AB
S315000007A0130500032334110223308102EF10D9739D
S315000007B013040500EF805903930710002320F1006E
S315000007C08335010013060500938604001305040013
S315000007D0EF805964B7B70D00938707B71305040078
S315000007E02330F400EF505924930505001305040245
S315000007F0EFA0492737960900B7B50D001306C61AAC
S31500000800938505AE13050400EF60C073B7B70D00FE
S3150000081093040500938787B4130504002330F4007E
S31500000820EF9099236F0080009304050013050400E0
S31500000830EF10197113850400EF601A1F130101FDF3
S315000008402338210113090500130500032330810213
S31500000850233C91002334110293840500EF10D968DC
S315000008601304050063880400EF9059381306050049
S315000008706F000001EF80497713060500930410000E
S315000008802320910083350100930609001305040017
S31500000890EF805958B7B70D00938707B713050400C3
S315000008A02330F400EF505918930505001305040290
S315000008B0EFA0491B37960900B7B50D001306C61AF7
S315000008C0938505AE13050400EF60C067B7B70D004A
S315000008D093040500938787B4130504002330F400BE
S315000008E0EF9099176F00800093040500130504002C
S315000008F0EF10196513850400EF601A13130101FB4D
S31500000900233821031309050013050002233081044F
S31500000910233C91022334110423343103EF10D95CB4
S3150000092093040500130609009385010013050100D1
S31500000930EF90191E93050100138504009309010128
S31500000940EF90090E0335010063043501EF50407442
S31500000950B7B70D001384010037A60900B7B50D001F
S31500000960938707F813068625938585F0138504007B
S3150000097023B0F40023A8240123BC8400EF60805C2C
S315000009808337010013040500638A370113850700C6
S31500000990EF5000706F0080001304050013850400FB
S315000009A0EF10195A13050400EF601A08130101FF2E
S315000009B02330810037B41000130504D4233411000A
S315000009C0EF70407F930504D4033401008330810027
S315000009D037850000138601FA1305051D1301010171
S315000009E06F90DA7E130101FF2330810037B41000C7
S315000009F0130584D523341100EF70C07B930584D58D
S31500000A00033401008330810037850000138601FA24
S31500000A101305051D130101016F905A7BB7B710002E
S31500000A2003C707E063160700130710002380E7E0FB
S31500000A30B7B7100003C787DF631607001307100058
S31500000A40238CE7DEB7B7100003C707DF631607007E
S31500000A50130710002388E7DEB7B7100003C787DE49
S31500000A6063160700130710002384E7DEB7B71000EC
S31500000A7003C707DE63160700130710002380E7DEAF
S31500000A80B7B7100003C787DD63160700130710000A
S31500000A90238CE7DCB7B7100003C707DD6316070032
S31500000AA0130710002388E7DCB7B7100003C787DCFD
S31500000AB063160700130710002384E7DC6780000035
S31500000AC0B7B7100003C707E863160700130710003F
S31500000AD02380E7E8B7B7100003C787E76316070068
S31500000AE013071000238CE7E6B7B7100003C707E724
S31500000AF063160700130710002388E7E6B7B7100050
S31500000B0003C787E663160700130710002384E7E68A
S31500000B10B7B7100003C707E66316070013071000F0
S31500000B202380E7E6B7B7100003C787E5631607001B
S31500000B3013071000238CE7E4B7B7100003C707E5D7
S31500000B4063160700130710002388E7E4B7B7100001
S31500000B5003C787E463160700130710002384E7E43E
S31500000B6067800000B7B7100003C787F26316070057
S31500000B70130710002384E7F2B7B7100003C707F284
S31500000B8063160700130710002380E7F2B7B71000BB
S31500000B9003C787F16316070013071000238CE7F0DD
S31500000BA0B7B7100003C707F1631607001307100055
S31500000BB02388E7F0B7B7100003C787F0631607006E
S31500000BC0130710002384E7F0B7B7100003C707F038
S31500000BD063160700130710002380E7F0B7B710006D
S31500000BE003C787EF6316070013071000238CE7EE91
S31500000BF0B7B7100003C707EF631607001307100007
S31500000C002388E7EEB7B7100003C787EE6316070021
S31500000C10130710002384E7EEB7B7100003C707EEEB
S31500000C2063160700130710002380E7EEB7B710001E
S31500000C3003C787ED6316070013071000238CE7EC44
S31500000C40B7B7100003C707ED6316070013071000B8
S31500000C502388E7EC67800000B7B7100003C787FE5C
S31500000C6063160700130710002384E7FEB7B71000CA
S31500000C7003C707FE63160700130710002380E7FE6D
S31500000C80B7B7100003C787FD6316070013071000E8
S31500000C90238CE7FCB7B7100003C707FD63160700F0
S31500000CA0130710002388E7FCB7B7100003C787FCBB
S31500000CB063160700130710002384E7FCB7B710007C
S31500000CC003C707FC63160700130710002380E7FC21
S31500000CD0B7B7100003C787FB63160700130710009A
S31500000CE0238CE7FAB7B7100003C707FB63160700A4
S31500000CF0130710002388E7FAB7B7100003C787FA6F
S31500000D0063160700130710002384E7FAB7B710002D
S31500000D1003C707FA63160700130710002380E7FAD4
S31500000D20B7B7100003C787F963160700130710004B
S31500000D30238CE7F8B7B7100003C707F96316070057
S31500000D40130710002388E7F867800000130101FEEF
S31500000D5023349100B7140000233881009384041CC7
S31500000D6037D410001304847713850400233C110044
S31500000D70233C9400EFC05A7B2338A400630205028B
S31500000D802334A400233095002334050083308101E9
S31500000D9003340101833481001301010267800000DE
S31500000DA0233C0400233404006FF05FFE130101FFAF
S31500000DB02330810037A50900138601FA93850100C7
S31500000DC01305C52423341100EF905A40138601FA07
S31500000DD0033401008330810037A50900938581FF24
S31500000DE013058524130101016F905A3E000000008F
S31500000DF0EF801A4713040100930200006390020279
S31500000E0017A51000130505F317D61000130606F4F0
S31500000E10B306A64093D53600EF809A4597A21000F8
S31500000E209382423E23B08200EF809A46EF805A4377
S31500000E30EF80DA72EF809A78EF80DA5E17A50A0003
S31500000E401305857BEF905A1EEFC01A0EEF805A41AC
S31500000E5097A210009382022503A502009382010146
S31500000E6083B5020013060000EF00400FEF90DA375B
S31500000E7073001000000000000000000037250E007F
S31500000E8037270E00930785DD130787DD630AF70012
S31500000E909307000063860700130585DD678007005A
S31500000EA06780000037250E00930785DD37270E0083
S31500000EB0930587DDB385F54093D7354093D5F50384
S31500000EC0B385F50093D51540638A050093070000A6
S31500000ED063860700130585DD6780070067800000CD
S31500000EE0130101FF2330810037B4100083478420AB
S31500000EF02334110063920702EFF05FF8B7970A00F8
S31500000F009387475F6386070013858104EF808A6EA7
S31500000F10930710002304F42083308100033401007A
S31500000F201301010167800000B7970A009387473DC8
S31500000F3063840702B7B51000130101FF93850521ED
S31500000F401385810423341100EF80CA488330810061
S31500000F50130101016FF01FF56FF0DFF4130101F6C5
S31500000F60233C1108233881082334910823302109B2
S31500000F70233C310713050001EFC01A5B130405007B
S31500000F8013050001EFC05A5A9304050093070000A9
S31500000F90930600013307F4002300F7009387170038
S31500000FA0E39AD7FE93870400138704012380070082
S31500000FB093871700E39CE7FE2334010623300106DE
S31500000FC0233C0104233801042334010437D50C00E3
S31500000FD0130505E5EFE00A1713058106EF40802F9C
S31500000FE037D50C00130505E7EFE0CA151306810394
S31500000FF09305100003358106EF20105813060104EF
S315000010009305200003358106EF20105713060103D0
S315000010109305300003358106EF2010568336810391
S31500001020033601048335010337D50C00130505E9A2
S31500001030EFD01A5BB7F90D00938709DD37190E005B
S31500001040130989223309F9409305090037D50C00A5
S31500001050130585ECEFD0DA5893060105130609004F
S31500001060938509DD03358106EF00C02C9305000248
S3150000107037D50C00130505EFEFD09A5693060106F7
S31500001080130610009305000103358106EF20906ECC
S315000010909305810203350106EF3040729306810500
S315000010A0130620009305000103358106EF20906C9E
S315000010B09305010203358105EF30407037D50C00EA
S315000010C0130585F1EFE00A08930700012334F100C8
S315000010D0833781022338F10083370102233CF10074
S315000010E0930681041306800193058100033581066A
S315000010F0EF0000399305000137D50C00130505F301
S31500001100EFD01A4E93060001130600009305040063
S3150000111003350106EF30D02537D50C00130505F64B
S31500001120EFE04A02930600011306000093850400CF
S3150000113003358105EF30D02337D50C00130505F8AC
S31500001140EFE04A0003368104833501050335810645
S31500001150EF40006237D50C00130505F9EFD09A7EF3
S31500001160B7652605938505C003358106EF30C06A4D
S315000011709305000137D50C00130585FBEFD05A46C1
S3150000118093060001130600008335810513850400CC
S31500001190EF30503F9305000237D50C00130585FE4E
S315000011A0EFD01A4403350106EF30004F03358105B1
S315000011B0EF30804E03350105EF30004E03358104D4
S315000011C0EF30804D37D50C0013050501EFD09A7727
S315000011D003358106EF2090481306000093070000B0
S315000011E0130500019B8507003387F400834607003B
S315000011F06398C604938717001B0626001376F60F1E
S31500001200E392A7FE37D50C0013050507EFD09A73B6
S3150000121013050400EFC01A3213850400EFC09A319B
S3150000122013050000833081090334010983348108E2
S3150000123003390108833981071301010A6780000019
S3150000124037D50C0013050503EFD09A3937D50C00B6
S3150000125013050506EFD01A6F6FF09FFBB7B71000A6
S3150000126083B70709639A070037B71000B7E710007E
S31500001270938787D42338F708B7B7100083B7870852
S3150000128063980700B7B710003707001023B4E708C4
S3150000129067800000130101FE23388100233C110002
S315000012A02334910037B41000834704D30F00F00FA6
S315000012B093F7F70F63800702B7B4100083308101FC
S315000012C00334010103A584D3833481001301010291
S315000012D067800000130504D3EF505053B7B41000D5
S315000012E0E30E05FC37D50C001305050823AC04D224
S315000012F0EFC00A2F63060500EF904A5423ACA4D230
S31500001300130504D3EF50D05637450000938584D398
S31500001310138601FA130505CDEF904A6B83308101E0
S315000013200334010103A584D3833481001301010230
S3150000133067800000130101FC233C1102233881025F
S315000013402334910223302103233C31012338410108
S3150000135063040512938405006380051293078000D9
S315000013601309060063FAC710138A0600638606107F
S3150000137083B5050083B98400130781009306000036
S31500001380B389B94013860900EF20107C13040500C9
S315000013906314050403358100130909FF9306100041
S315000013A01306090093050000EF309047130405006B
S315000013B063020506B7D50C001306050093850510D4
S315000013C037D50C001305850DEFD09A210335810022
S315000013D0EF30802C6F00C00113060500B7D50C0056
S315000013E037D50C00938585091305850DEFD05A1F57
S315000013F0833081031305040003340103833481021F
S315000014000339010283398101033A01011301010401
S31500001410678000000335810093063000338629413A
S3150000142093050900EF30D03F13040500631605024B
S315000014300335810093060900130600009385040115
S31500001440EF30007313040500631005028337810033
S315000014502330FA006FF0DFF9B7D50C00130605004C
S31500001460938585136FF0DFF5B7D50C0013060500DD
S31500001470938585186FF0DFF41304F0FF6FF05FF7C4
S31500001480130101FC233C110223388102233491020B
S3150000149023302103233C31016308050E138905001F
S315000014A06384050E930406006300060E9389060006
S315000014B0638C060C930681001306100093850400C6
S315000014C0EF20502B13040500631405040335810037
S315000014D0938604001306000093050900EF30406967
S315000014E013040500631205068337810083308103E8
S315000014F0130504000334010323B0F9008334810289
S315000015000339010283398101130101046780000058
S3150000151013060500B7D50C0037D50C009385851B3F
S315000015201305850DEFD0DA0B833081031305040014
S3150000153003340103833481020339010283398101B3
S31500001540130101046780000013060500B7D50C00DF
S3150000155037D50C009385051F1305850DEFD05A0866
S3150000156003358100EF3040138330810313050400F7
S315000015700334010383348102033901028339810173
S3150000158013010104678000001304F0FF6FF0DFF918
S31500001590130101DE233C311F130601169389050052
S315000015A09305300023349120233C112023388120D9
S315000015B0233021212338411F2334511F2330611F3B
S315000015C0233C711D2338811D2334911D2330A11D19
S315000015D0233CB11B93040500233C01102330011268
S315000015E02334011223380112233C01122330011443
S315000015F02334011423380114233C0114EF20C0774F
S31500001600630005061309050013060500B7D50C008F
S3150000161037D50C00938505221305850DEFD04A7C3E
S315000016208330812103340121833481208339811F52
S31500001630033A011F833A811E033B011E833B811D32
S31500001640033C011D833C811C033D011C833D811B22
S3150000165013050900033901201301012267800000E8
S31500001660130681169305700013850400EF20C070E1
S31500001670130905006300050213060500B7D50C0023
S3150000168037D50C00938585251305850DEFD04A7552
S315000016906FF01FF9033781169307100013950702A1
S315000016A0939517021396270293963702939747024C
S315000016B03375A700B375B7003376C700B376D70086
S315000016C0B377F700233CA1082330B10A2334C10ABB
S315000016D02330D10E2338F108EFF0DFBB833B011630
S315000016E023380100130A050063940B006F10501194
S315000016F013040000233C010C2338010C2334010C95
S315000017002330010C2338010A233C010A2330010847
S315000017102338010623340108233C0106233401063D
S3150000172023380102233C010223300104233C010437
S315000017302338010423300106233401042334010233
S3150000174023300102233C0100930D0000930A0000A0
S31500001750233C210F371900009306011713060400D6
S31500001760930509B013850400EF30100C63040500DF
S315000017706F10C0379306811713060400930529B02E
S3150000178013850400EF30500A630405006F104038DB
S31500001790930710006306FA66930720006310FA1495
S315000017A083370109638407006F0050678337810917
S315000017B0638407006F0050758337010A638407004E
S315000017C06F1080088337810AE3900754631804106A
S315000017D08337010E6388070A3719000093068111C3
S315000017E013060000930529B113850400EF30D003DA
S315000017F0630405006F1050389306011213060000AB
S31500001800930539B113850400EF3010026304050017
S315000018106F1050349306811213060000930549B1E8
S3150000182013850400EF305000630405006F10D03DAF
S315000018309306011313060000930559B1138504009E
S31500001840EF30807E630405006F10D0399306811354
S3150000185013060000930569B113850400EF30C07CC0
S31500001860630405006F10D0359306011413060000BB
S31500001870930579B113850400EF30007B63040500FE
S315000018806F10D0313719000093068114130600003B
S31500001890930589B113850400EF30007963040500D0
S315000018A06F10407E9306011513060000930599B14B
S315000018B013850400EF304077630405006F10407A0B
S315000018C093068115130600009305A9B1138504003C
S315000018D0EF308075630405006F10001F833B01160F
S315000018E003390117033B811713050000630409023E
S315000018F013050B00EF008A66130C0500130509009B
S31500001900EF00CA659305050013050C00EFF0496961
S31500001910EF204A5E9307100063FA7703EF204A3000
S31500001920B7E50C00930705001307090093060B00A3
S31500001930130604009385853A13850900EFA00A046F
S31500001940833B0116033B81170339011783370101D6
S31500001950B38A6A01B38D2D0163F42701233821016F
S315000019601B0414009317040293D70702E3E477DFFE
S315000019700339810F930710006314FA006F10801B60
S31500001980930720006310FA428337810A638A071E91
S315000019900337010B8337810B930C0000335D77030C
S315000019A00337010C335477030337810CB3547703A1
S315000019B00337010D335A77030337810DB3DD770300
S315000019C0335B770363E4770513050400EF000A59D8
S315000019D0130C050013850D00EF004A58930505000A
S315000019E013050C00EFF0C95BB7270E009305050041
S315000019F003B507DEEFF05976B7270E0083B587DD0E
S31500001A00EFF0593AEF00CA469B0C05008337010BED
S31500001A10130C000063E4770513850400EF000A54F5
S31500001A20930B050013050D00EF004A5393050500BF
S31500001A3013850B00EFF0C956B7270E009305050076
S31500001A4003B507DEEFF05971B7270E0083B587DDC2
S31500001A50EFF05935EF00CA411B0C05003385AD0187
S31500001A60B3074501233CF100930B0000638C07028A
S31500001A70EF00CA4E83378101930B050013850700DB
S31500001A80EF00CA4D9305050013850B00EFF0495191
S31500001A90B7270E0083B587DDEFF0D930EF004A3D5A
S31500001AA09B0B05003305940033076501233CE100D9
S31500001AB093070000630E0702EF004A4A03378101CD
S31500001AC02330A10213050700EF004A4983370102BC
S31500001AD09305050013850700EFF0894CB7270E0024
S31500001AE083B587DDEFF0192CEF008A389B070500D8
S31500001AF0B7E50C009385055613860D00138509007E
S31500001B00233CF100EF909A67B7E50C0013060D0031
S31500001B109385055813850900EF905A66B7E50C00C2
S31500001B2093860C00130604009385055A1385090055
S31500001B30EF90DA64B7E50C0093060C0013860400F8
S31500001B409385055D13850900EF905A63B7E50C0090
S31500001B5093860B0013060A0093858560138509009A
S31500001B60EF90DA6183378101B7E50C0013060B00AD
S31500001B70938607009385056413850900EF901A6024
S31500001B808337010E638E071A033A8111833481125B
S31500001B90930B000063040A0413850400EF000A3C5B
S31500001BA01304050013050A00EF004A3B93050500E0
S31500001BB013050400EFF0C93EB7270E009305050094
S31500001BC003B507DEEFF05959B7270E0083B587DD59
S31500001BD0EFF0591DEF00CA299B0B050003340112D3
S31500001BE0833C0113130B00006304040413850C00EB
S31500001BF0EF00CA36130B050013050400EF000A3682
S31500001C009305050013050B00EFF08939B7270E0081
S31500001C109305050003B507DEEFF01954B7270E004C
S31500001C2083B587DDEFF01918EF008A241B0B05003A
S31500001C3033058A0003348113130C00003304850036
S31500001C40630A0402EF008A31130C05001305040031
S31500001C50EF00CA309305050013050C00EFF0493478
S31500001C60B7270E0083B587DDEFF0D913EF004A20C2
S31500001C701B0C050003340114338594019304000002
S31500001C8033048500630A0402EF004A2D930405001D
S31500001C9013050400EF008A2C930505001385040044
S31500001CA0EFF00930B7270E0083B587DDEFF0990F07
S31500001CB0EF000A1C9B040500B7E50C0013060A009A
S31500001CC09385856713850900EF905A4B03360112F9
S31500001CD0B7E50C009385856913850900EF901A4ACC
S31500001CE003368112B7E50C0093860B009385856B4E
S31500001CF013850900EF909A4803360113B7E50C00E7
S31500001D0093060B009385856E13850900EF901A479D
S31500001D1003368113B7E50C0093060C009385057214
S31500001D2013850900EF909A4503360114B7E50C00B8
S31500001D30938604009385857513850900EF901A44F0
S31500001D40833481140335811513040000638404026F
S31500001D50EF00CA201304050013850400EF000A20D3
S31500001D609305050013050400EFF08923EF004A10E0
S31500001D701B04050003370115B7E50C0093850579AB
S31500001D803386E4009386040013850900EF901A3F1A
S31500001D90B7E50C00130604009385857C13850900BE
S31500001DA0EF90DA3D833401011307000063880402D3
S31500001DB013850A00EF008A1A130405001385040030
S31500001DC0EF00CA199305050013050400EFF0491D3D
S31500001DD0EF204A12EF10DA6413070500833601017B
S31500001DE0B7E50C0013860A009385857E13850900E6
S31500001DF0EF90DA3813850900EF904A306FF05F8272
S31500001E009306811A13060400930539B0138504005E
S31500001E10EF30802113070500630405006F104000B2
S31500001E20833701160339811A637EFA04033B0117CF
S31500001E30630C0B0213050900EF004A12930B050011
S31500001E4013050B00EF008A119305050013850B009F
S31500001E50EFF00915B7270E0083B587DDEFF089741B
S31500001E60EF000A011B070500B7D50C009306090011
S31500001E70130604009385853613850900EF901A3002
S31500001E800339811AB71500009306811A1306040058
S31500001E90938545B013850400EF300019833781011F
S31500001EA013070500B3872701233CF10063040500EF
S31500001EB06F00907983360116930710000339811A53
S31500001EC063FED704033B0117630C0B0213050900DD
S31500001ED0EF00CA08930B050013050B00EF000A0874
S31500001EE09305050013850B00EFF0890BB7270E004D
S31500001EF083B587DDEFF0096BEFF099771B070500D7
S31500001F00B7D50C0093060900130604009385853E99
S31500001F1013850900EF909A260339811AB715000038
S31500001F209306811A13060400938555B013850400A1
S31500001F30EF30800F8337010213070500B3872701AF
S31500001F402330F102630405006F00507183360116D9
S31500001F5093071000033B811A63FED7040339011768
S31500001F60630C090213050B00EFF0597F930B050074
S31500001F7013050900EFF0997E9305050013850B0004
S31500001F80EFF00902B7270E0083B587DDEFF0896110
S31500001F90EFF0196E1B070500B7D50C0093060B0072
S31500001FA0130604009385854613850900EF901A1DD4
S31500001FB0033B811A37190000930601181306040023
S31500001FC0930569B013850400EF300006833781025C
S31500001FD0B38767012334F102630405006F0050697B
S31500001FE09306811813060400930589B0138504002F
S31500001FF0EF308003630405006F00D0699306011972
S3150000200013060400930599B013850400EF30C00150
S31500002010630405006F00506A9306811913060400D5
S315000020209305A9B013850400EF3000006304050092
S315000020306F00D06A9306011A130604009305C9B00F
S3150000204013850400EF20507E630405006F00506B7B
S315000020509306811A130604009305D9B0138504006C
S31500002060EF20907C930B0500630405006F00906BD6
S31500002070833501058337811883360119033D81199C
S31500002080B385F5002338B10483358105833C011AF5
S31500002090033C811AB385D500233CB1048335010482
S315000020A00336011613071000B385A5012330B104CA
S315000020B083358103033B0118B3859501233CB102A7
S315000020C083350103B38585012338B102637EC716C4
S315000020D0033601173389D7003309A901330999015A
S315000020E02334C10E3309890113070000630806046F
S315000020F013050B002334D1102330F110EFF01966CD
S315000021000336810E2338A10E13050600EFF019657C
S315000021100337010F9305050013050700EFE0596823
S31500002120B7270E0083B587DDEFF0C947EFF05954A6
S3150000213083368110833701101B0705002338D10E23
S315000021402334F10E6302094C130509002330E11014
S31500002150EFF0D9608337810E13090500B72B0E0007
S3150000216013850700EFF0995F93050900EFE05963C7
S3150000217083B58BDDEFF00943EFF0994F8336010FFE
S315000021809B0705002334F10E13850600EFF0195D59
S3150000219093050900EFE0D96083B58BDDEFF0894048
S315000021A0EFF0194D1308050013050D001B0D08006F
S315000021B0EFF0D95A93050900EFE0995E83B58BDD00
S315000021C0EFF0493EEFF0D94A9308050013850C005D
S315000021D09B8C0800EFF0995893050900EFE0595CD5
S315000021E083B58BDDEFF0093CEFF099489B0B0500BA
S315000021F013050C00EFF0995693050900EFE0595AC4
S31500002200B7270E0083B587DDEFF0C939EFF05946E1
S315000022108337810E033701101B050500B7D50C0067
S3150000222093060B002334A1002330710193880C0020
S3150000223013080D001306040093850566138509002F
S31500002240EF90CA73033B0118B71500009306811A75
S3150000225013060400938575B013850400EF20D05C47
S315000022608337810413070500B38767012334F1041C
S31500002270E31A054C83360116930710000339811AB9
S3150000228063FED704033B0117630C0B021305090019
S31500002290EFF0D94C930B050013050B00EFF0194C2A
S315000022A09305050013850B00EFE0994FB7270E0045
S315000022B083B587DDEFF0092FEFF0993B1B0705008B
S315000022C0B7D50C00930609001306040093858571A3
S315000022D013850900EF908A6A0339811AB715000041
S315000022E09306011A130604009385E5B013850400CE
S315000022F0EF20905383370106B38727012330F10679
S31500002300E31C054483360116130710008337011AB0
S315000023106366D71803378106B71500009306811A3E
S31500002320B307F70013060400938515B1138504005F
S315000023302334F106EF20504F93060500E3100544C1
S3150000234003360116130710008337811A6376C70414
S315000023500339011A6306090213850700EFF01940D5
S31500002360130B050013050900EFF0593F930505000F
S3150000237013050B00EFE0D942EFF0992F9B060500FD
S31500002380B7E50C0013060400938505801385090044
S31500002390EF90CA5E8337811A03370107B71500002D
S315000023A09306011AB307F700130604009385F5B0E8
S315000023B0138504002338F106EF201047E314053E89
S315000023C083360116130710008337011A6368D70E88
S315000023D003378107B71500009306811AB307F70084
S315000023E013060400938525B113850400233CF106EA
S315000023F0EF20904393060500E318053C03360116CB
S31500002400130710008337811A6376C7040339011A4C
S315000024106306090213850700EFF05934130B050014
S3150000242013050900EFF099339305050013050B001A
S31500002430EFE01937EFF0D9239B060500B7E50C004E
S31500002440130604009385858D13850900EF900A53C2
S315000024508337811A03370108B71500009306811ADE
S31500002460B307F70013060400938505B1138504002E
S315000024702330F108EF20503BE3120536833B01166B
S31500002480930710008336811A63EA7705833781083C
S31500002490B387D7002334F1086FF08FC4B7D50C008B
S315000024A093860700130604009385057913850900B2
S315000024B0EF90CA4C8337011A6FF0DFE5B7E50C00E1
S315000024C09386070013060400938505871385090084
S315000024D0EF90CA4A8337011A6FF09FEFB7E50C00F9
S315000024E0130604009385859413850900EF900A4925
S315000024F0833781088336811A833B0116B387D70059
S315000025002334F1086FF0CFBD371900009306811A06
S31500002510130604009305C9B013850400EF20D030DC
S31500002520E318054C0337810B8337811A9306811A0A
S3150000253013060400B307F7009305D9B0138504000A
S31500002540233CF10AEF20502EE316054C0337010B0E
S315000025508337811A9306811A13060400B307F7001E
S315000025609305E9B0138504002338F10AEF20D02B38
S31500002570E31A05540337010C8337811A9306811A2F
S3150000258013060400B307F7009305F9B0138504009A
S315000025902330F10CEF205029E31A05560337810C3E
S315000025A08337811A9306811A13060400B307F700CE
S315000025B0930509B1138504002334F10CEF20D026CE
S315000025C0E31405520337010D8337811A9306811AE6
S315000025D013060400B307F700930519B11385040029
S315000025E02338F10CEF205024E31405540337810DF2
S315000025F08337811AB307F700233CF10C63140400F8
S315000026006FF00F9D6FF08FAD13050000930700006C
S31500002610930C0000130D00006FF05FC09306811944
S31500002620130604009305B9B113850400EF20D01FEB
S31500002630E314052A9306011A130604009305C9B18B
S3150000264013850400EF20501EE31A052A9306811A0B
S31500002650130604009305D9B113850400EF20D01C9E
S31500002660130B0500E310052E833B81190335011A70
S315000026700339811A3385AB0033092501630A090240
S31500002680EFF0D90D130B050013050900EFF0190D36
S315000026909305050013050B00EFE09910B7270E0010
S315000026A083B587DDEFE01970EFF0897C1B0B050021
S315000026B0B7E50C0093860B0013060400938585A4EA
S315000026C013850900EF908A2B8336011AB7E50C00B3
S315000026D013060400938585A613850900EF900A2A40
S315000026E08336811AB7E50C0013070B0013060400A6
S315000026F0938585A813850900EF904A2883378109B9
S31500002700639407006FF04F8B371900009306811909
S3150000271013060400930539B013850400EF20D0108A
S31500002720E31005209306011A13060400930549B029
S3150000273013850400EF20500FE31A05289306811A2B
S3150000274013060400930559B013850400EF20D00D3D
S31500002750930B0500E31C0524033C8119833C011AF5
S315000027601309000063040C0413850C00EFF0097FC5
S315000027701309050013050C00EFF0497E93050500CB
S3150000278013050900EFE0D901B7270E0093050500F0
S3150000279003B507DEEFF0491CB7270E0083B587DDCA
S315000027A0EFE05960EFF0C96C1B090500033B811A85
S315000027B0338B6C01630C0B0213850C00EFF0097A66
S315000027C0930B050013050B00EFF0497993050500FF
S315000027D013850B00EFE0C97CB7270E0083B587DDB4
S315000027E0EFE0595CEFF0C9689B0B0500B7E50C00FC
S315000027F093060C0013060400938585BA1385090019
S31500002800EF90CA178336011AB7E50C0013070900C3
S3150000281013060400938585BC13850900EF900A16FC
S315000028208336811AB7E50C0013870B0013060400E4
S31500002830938505C013850900EF904A148337010A72
S31500002840639407006FE01FF837190000930601181C
S3150000285013060400930569B013850400EF20C07CBD
S31500002860E31405129306811813060400930579B044
S3150000287013850400EF20407BE316050E930601192D
S3150000288013060400930589B013850400EF20C07970
S31500002890E316051C9306811913060400930599B0E7
S315000028A013850400EF204078E31805189306011AF3
S315000028B0130604009305A9B013850400EF20C07623
S315000028C0E310051E9306811A130604009305B9B09A
S315000028D013850400EF204075130B0500E312051A5B
S315000028E0833B011803390119130D000063840B049F
S315000028F013050900EFF08966130C050013850B001C
S31500002900EFF0C9659305050013050C00EFE0496972
S31500002910B7270E009305050003B507DEEFF0C903E0
S31500002920B7270E0083B587DDEFE0D947EFF04954AE
S315000029301B0D0500033C811803378119930C000019
S3150000294063080C04130507002334E10EEFF0096158
S31500002950930C050013050C00EFF049609305050084
S3150000296013850C00EFE0C963B7270E009305050039
S3150000297003B507DEEFE0597EB7270E0083B587DD86
S31500002980EFE05942EFF0C94E0337810E9B0C05006C
S315000029908337011A33858B01130C0000B307F5004A
S315000029A02334F10E638007042338E10EEFF0095B50
S315000029B08337810E130C050013850700EFF0095AC3
S315000029C09305050013050C00EFE0895DB7270E009F
S315000029D083B587DDEFE0193DEFF089490337010F35
S315000029E01B0C05003305E9000339811A330925015B
S315000029F0630A0902EFF08956130B05001305090057
S31500002A00EFF0C9559305050013050B00EFE0495992
S31500002A10B7270E0083B587DDEFE0D938EFF04945DB
S31500002A201B0B0500B7E50C0093860B00130604008C
S31500002A30938585E113850900EF805A7483368118E2
S31500002A40B7E50C0013060400938585E3138509009A
S31500002A50EF80DA7283360119B7E50C0013070D0013
S31500002A6013060400938505E613850900EF801A71A5
S31500002A7083368119B7E50C0013870C001306040092
S31500002A80938585E913850900EF805A6F8336011A0D
S31500002A90B7E50C0013070C0013060400938505ED3B
S31500002AA013850900EF809A6D8336811AB7E50C000D
S31500002AB013070B0013060400938505F1138509001F
S31500002AC0EF80DA6B6FE01FD0130B050013060500CD
S31500002AD0B7E50C0037D50C00938585361305850DB3
S31500002AE0EFC00A3013090B006FE09FB3930B05008C
S31500002AF013060500B7D50C0037D50C0093850529BC
S31500002B001305850DEFC0CA2D13890B006FE05FB169
S31500002B10930B050013060500B7D50C0037D50C003E
S31500002B209385052D1305850DEFC08A2B13890B00A0
S31500002B306FE01FAF638A0D5613850D00EFF0094253
S31500002B401304050003358101B7240E00EFF0094197
S31500002B5093050400EFE0C94483B584DDEFE09924D2
S31500002B60EFF009319B0C050003350102EFF0093F38
S31500002B7093050400EFE0C94283B584DDEFE09922B6
S31500002B80EFF0092F1B0C050003358102EFF0093D1C
S31500002B9093050400EFE0C94083B584DDEFE099209A
S31500002BA0EFF0092D9B0B050003358104EFF0093B7F
S31500002BB093050400EFE0C93E83B584DDEFE0991E7E
S31500002BC0EFF0092B1B0B050003350106EFF0093961
S31500002BD093050400EFE0C93C83B584DDEFE0991C62
S31500002BE0EFF009291B0A0500033D81069304000046
S31500002BF063060D0203350107EFF04936130405009D
S31500002C0013050D00EFF08935930505001305040043
S31500002C10EFE00939EFF0C9259B040500033D810764
S31500002C201304000063060D0203350108EFF00933B3
S31500002C301304050013050D00EFF049329305050056
S31500002C4013050400EFE0C935EFF089221B040500E7
S31500002C500337810383370103033D0105833D810566
S31500002C6003380104B387E70003368101B387A70160
S31500002C70B7E50C00B387B70193860C009385853DB5
S31500002C8013850900B38C0701EF805A4F0336010202
S31500002C90B7E50C0093060C009385054013850900E3
S31500002CA0EF80DA4D03368102B7E50C0093860B0000
S31500002CB09385854213850900EF805A4C63820C4048
S31500002CC013850C00EFF08929930B050013050D0001
S31500002CD0EFF0C92893850B00372C0E00EFE0492C46
S31500002CE083358CDDEFE0190CEFF089189B0C05009D
S31500002CF013850D00EFF0892693850B00EFE0492A36
S31500002D0083358CDDEFE0190AEFF089161B0D0500FF
S31500002D1003350104EFF0892493850B00EFE0492881
S31500002D2083358CDDEFE01908EFF089149B0D050063
S31500002D3003358103EFF0892293850B00EFE04926E6
S31500002D4083358CDDEFE01906EFF089129B0805004C
S31500002D5003350103233C1101EFF0492093850B0055
S31500002D60EFE0092483358CDDEFE0D903EFF049105D
S31500002D70833881019B06050003368104B7E50C0004
S31500002D8013880D0093070D0013870C002330D10024
S31500002D909385054593060B0013850900EF801A3EBF
S31500002DA003360106B7E50C0093060A009385054B2A
S31500002DB013850900EF809A3C03368106B7E50C00BF
S31500002DC09385854D13850900EF805A3B03368107AD
S31500002DD0B7E50C009385054F13850900EF801A3A75
S31500002DE003368108B7E50C009385855013850900E5
S31500002DF0EF80DA38B7E50C00138604009385055298
S31500002E0013850900EF809A37B7E50C001306040016
S31500002E109385055413850900EF805A366FE09FF8B5
S31500002E20B7D50C00130605002338A100938585311C
S31500002E3037D50C001305850DEFB09A7A03370101DB
S31500002E40130907006FE0CFFDB7D50C001306050088
S31500002E502338A100938585396FF09FFDB7D50C0007
S31500002E60130605002338A100938585416FF05FFCAA
S31500002E70930B050013060500B7D50C0037D50C00DB
S31500002E80938585491305850DEFB09A7513890B0057
S31500002E906FE00FF9930B050013060500B7D50C007C
S31500002EA037D50C009385854E1305850DEFB05A7303
S31500002EB013890B006FE0CFF6930B05001306050090
S31500002EC0B7D50C0037D50C00938505531305850D32
S31500002ED0EFB01A7113890B006FE08FF4930B0500A6
S31500002EE013060500B7D50C0037D50C00938585571A
S31500002EF01305850DEFB0DA6E13890B006FE04FF204
S31500002F00930B050013060500B7D50C0037D50C004A
S31500002F109385055C1305850DEFB09A6C13890B003C
S31500002F206FE00FF013060500B7D50C0037D50C007F
S31500002F30938505611305850DEFB09A6A13890B0019
S31500002F406FE00FEEB7D50C00130605002338A1007D
S31500002F509385856C6FF0DFED130B050013060500F6
S31500002F60B7D50C0037D50C00938585741305850DF0
S31500002F70EFB01A6713090B006FE08FEAB7D50C00A4
S31500002F80130605002338A1009385057B37D50C0071
S31500002F901305850DEFB0DA64833601011389060047
S31500002FA06FE00FE8130B050013060500B7E50C00EC
S31500002FB037D50C00938585821305850DEFB05A62CF
S31500002FC013090B006FE0CFE5B7E50C00130605000B
S31500002FD02338A100938505896FF05FFB130B05006D
S31500002FE013060500B7E50C0037D50C009385059050
S31500002FF01305850DEFB0DA5E13090B006FE04FE2A3
S31500003000233C010C2338010C2334010C2330010C22
S315000030102338010A233C010A23300108233801061C
S3150000302023340108233C0106233401062338010218
S31500003030233C010223300104233C0104233801040C
S315000030402330010623340104233401022330010214
S31500003050233C0100930D0000930A00006FE09F914E
S31500003060930B050013060500B7E50C0037D50C00D9
S31500003070938505321305850DEFB09A5613890B001B
S315000030806FE00FDA930B050013060500B7E50C0099
S3150000309037D50C009385852D1305850DEFB05A5451
S315000030A013890B006FE0CFD7130A0000930C0000C2
S315000030B0130C0000930B0000130B00006FF0DFB23F
S315000030C093060000930C0000130D0000930D000002
S315000030D0930800006FF05FCA930B05001306050006
S315000030E0B7E50C0037D50C00938585961305850D3D
S315000030F0EFB01A4F13890B006FE08FD2930B0500C8
S3150000310013060500B7E50C0037D50C009385059B23
S315000031101305850DEFB0DA4C13890B006FE04FD025
S31500003120930B050013060500B7E50C0037D50C0018
S31500003130938505AC1305850DEFB09A4A13890B00EC
S315000031406FE00FCE13060500B7E50C0037D50C006F
S315000031509385859F1305850DEFB09A4813090B00DB
S315000031606FE00FCC930B050013060500B7E50C00C6
S3150000317037D50C00938585C81305850DEFB05A46E3
S3150000318013890B006FE0CFC9930B050013060500EA
S31500003190B7E50C0037D50C00938505C41305850DDE
S315000031A0EFB01A4413890B006FE08FC713060500B2
S315000031B0B7E50C0037D50C00938585B51305850D4D
S315000031C0EFB01A4213890B006FE08FC5930B050011
S315000031D013060500B7E50C0037D50C00938585B0BE
S315000031E01305850DEFB0DA3F13890B006FE04FC36F
S315000031F0930B050013060500B7E50C0037D50C0048
S31500003200938505F51305850DEFB09A3D13890B00DF
S315000032106FE00FC1930B050013060500B7E50C0020
S3150000322037D50C00938505F91305850DEFB05A3B8C
S3150000323013890B006FE0CFBE930B05001306050044
S31500003240B7E50C0037D50C00938585D21305850D9F
S31500003250EFB01A3913890B006FE08FBC930B050092
S3150000326013060500B7E50C0037D50C00938585CD10
S315000032701305850DEFB0DA3613890B006FE04FBAF0
S3150000328013060500B7E50C0037D50C00938585DCE1
S315000032901305850DEFB0DA3413090B006FE04FB854
S315000032A0930B050013060500B7E50C0037D50C0097
S315000032B0938585D71305850DEFB09A3213890B00D8
S315000032C06FE00FB6930B050013060500B7E50C007B
S315000032D037D50C00938505FD1305850DEFB05A30E3
S315000032E013890B006FE0CFB3930B0500130605009F
S315000032F0B7E50C0037D50C00938505051305850D3C
S31500003300EFB01A2E13890B006FE08FB1930B0500F7
S3150000331013060500B7E50C0037D50C0093850501AB
S315000033201305850DEFB0DA2B13890B006FE04FAF55
S31500003330130B050013060500B7E50C0037D50C0086
S31500003340938585091305850DEFB09A2913090B009E
S315000033506FE00FAD930B050013060500B7E50C00F3
S3150000336037D50C00938505131305850DEFB05A2745
S3150000337013890B006FE0CFAA930B05001306050017
S31500003380B7E50C0037D50C009385050E1305850DA2
S31500003390EFB01A2513890B006FE08FA8130B0500F9
S315000033A013060500B7E50C0037D50C0093850528F4
S315000033B01305850DEFB0DA2213090B006FE04FA657
S315000033C0930B050013060500B7E50C0037D50C0076
S315000033D0938585221305850DEFB09A2013890B007E
S315000033E06FE00FA4930B050013060500B7E50C006C
S315000033F037D50C009385051D1305850DEFB05A1EB4
S3150000340013890B006FE0CFA1930B0500130605008F
S31500003410B7E50C0037D50C00938505181305850D07
S31500003420EFB01A1C13890B006FE08F9F130101FA8E
S3150000343023349104233C3103938405009309060049
S31500003440930520001306810023302105233C110437
S31500003450233881042338410323345103130905001B
S31500003460EF0090116304050413040500130605001C
S31500003470B7F50C0037D50C00938505811305850D2E
S31500003480EFB01A16833081051305040003340105D5
S31500003490833481040339010483398103033A010328
S315000034A0833A8102130101066780000013060101B9
S315000034B09305100013050900EF00100C1304050016
S315000034C063100506033A8100833A01013B065A035D
S315000034D063649608E38809FA130681019305600080
S315000034E013050900EF0050091304050063180504CD
S315000034F0939704021387FAFF93D70702B307F700DF
S31500003500B3D757039B870700335AFA0283378101E3
S315000035101B0A0A0033DA470323A049016FF09FF61E
S3150000352013060500B7F50C0037D50C009385058505
S315000035301305850DEFB0DA0A6FF0DFF41306050008
S31500003540B7F50C0037D50C009385058E1305850D50
S31500003550EFB01A096FF01FF337F50C0093850400DE
S3150000356013050589EFB0DA071304F0FF6FF09FF13A
S31500003570130101DB2334112423308124233C9122BF
S31500003580233821232334312323304123233C512163
S315000035902338612123347121233081216302052ED2
S315000035A093840500638E052C130B0600630A062C14
S315000035B0930A05001305810FEF40944CB7470D00A1
S315000035C09387873D03B48700231C011C83BB070137
S315000035D0833784FE37590D0013090952130701205A
S315000035E0B307F700233C210F2338011C2330011EAB
S315000035F02334011E2338011E233C011E233C810077
S3150000360023BC77E123300102033584FE9307810151
S31500003610930500003385A700EF400425374A0D00C7
S31500003620B7490D00130A0A4193898943130581029C
S31500003630233C4101233C310FEFA0931393058102F4
S315000036401305810FEF404422130680009385040082
S3150000365013058102EFB0434A8337810113078101C5
S3150000366083B787FEB307F7006306051C93050000C2
S3150000367013850700EF3054288327811193F75700ED
S31500003680639C0712130620009305000013058101B1
S31500003690EF80C44513058101EF80C4202334A100C7
S315000036A02338B100930405006340051E630E051818
S315000036B0EF3090221386040093050000130C0500DA
S315000036C0EFB04A561306000093050000130581016A
S315000036D0EF80C4411386040093050C001305810195
S315000036E0EF70543E93060B001386040093050C00FE
S315000036F013850A00EFD0DFD8930405006310050A8E
S3150000370063060C0013050C00EF209018B7470D0058
S315000037109387873113058102233C4101233C310FF6
S315000037202334F102EFB0830E13050107EF30D06D9D
S31500003730B7770D00938787B5130501062334F10289
S31500003740EF50404C833784FE13070120233C810051
S31500003750B307F70023BC77E11305810F233001027D
S31500003760233C210FEF40145E83308124033401246F
S315000037700339012383398122033A0122833A8121C5
S31500003780033B0121833B8120033C01201385040078
S315000037908334812313010125678000001306050089
S315000037A0B7F50C0037D50C00938505971305850DE5
S315000037B0EFB00A636FF0DFF4B7CA1000B7F50C007C
S315000037C0130670009385059213858AC4EFF045268B
S315000037D013850400EFE01A7B1306050093850400A9
S315000037E013858AC4EFF0C524B7F50C001306A000B4
S315000037F09385859213858AC4EFF0852313878AC43F
S315000038008337070083B787FEB387E70083B4070FC4
S315000038106382040883C78403638C070283C5340468
S3150000382013858AC4EFE0555FEFE045449304F0FF4B
S315000038306FF0DFED83A507021385070093E54500CA
S31500003840EF30940B6FF05FE3130C00006FF09FE70F
S3150000385013850400EF70817A03B70400B7470000B0
S31500003860938787CC033707039305A000E30AF7FA8B
S3150000387013850400E7000700930505006FF05FFA63
S315000038809304F0FF6FF05FEE37F50C001305859398
S31500003890EFC0DFC7EFC0DFB1130405001305810FCA
S315000038A0233C210FEF40144A13050400EF30DA17CA
S315000038B093070500033784FE233C81001384070029
S315000038C093070120B387E70023BC77E12330010289
S315000038D06FF0DFFC1304050063060C0013050C00F3
S315000038E0EF20007B13058101EFB04372130504003E
S315000038F0EF309A13EF20C07AEF2010046FF0DFE26A
S31500003900130405006FF01FFE9304050013058102E2
S31500003910EFB00303938704006FF0DFF9130101DBB7
S315000039202334112423308124233C9122233821235C
S315000039302334312323304123233C51212338612171
S3150000394023347121233081216302052E93840500DF
S31500003950638E052C130B0600630A062C930A0500DA
S315000039601305810FEF40D411B7470D009387873DAC
S3150000397003B48700231C011C83BB0701833784FE25
S3150000398037590D001309095213070120B307F70031
S31500003990233C210F2338011C2330011E2334011E32
S315000039A02338011E233C011E233C810023BC77E102
S315000039B023300102033584FE93078101930500003D
S315000039C03385A700EF30546A374A0D00B7490D001A
S315000039D0130A0A419389894313058102233C410155
S315000039E0233C310FEFA0C358930581021305810FC5
S315000039F0EF30946713068000938504001305810257
S31500003A00EFB0830F833781011307810183B787FEE8
S31500003A10B307F7006306051C93050000138507002E
S31500003A20EF30846D8327811193F75700639C07124B
S31500003A30130620009305000013058101EF80040B97
S31500003A4013058101EF7014662334A1002338B100F9
S31500003A50930405006340051E630E0518EF30C0672A
S31500003A601386040093050000130C0500EFB08A1BB3
S31500003A70130600009305000013058101EF8004077B
S31500003A801386040093050C0013058101EF7094035F
S31500003A9093060B001386040093050C0013850A0099
S31500003AA0EFD05F89930405006310050A63060C00D6
S31500003AB013050C00EF20C05DB7470D0093878731D3
S31500003AC013058102233C4101233C310F2334F102CB
S31500003AD0EFA0D35313050107EF301033B7770D006E
S31500003AE0938787B5130501062334F102EF50801141
S31500003AF0833784FE13070120233C8100B307F700B8
S31500003B0023BC77E11305810F23300102233C210FEB
S31500003B10EF405423833081240334012403390123E5
S31500003B2083398122033A0122833A8121033B012111
S31500003B30833B8120033C01201385040083348123C9
S31500003B40130101256780000013060500B7F50C0078
S31500003B5037D50C009385859A1305850DEFB04A2855
S31500003B606FF0DFF4B7CA1000B7F50C00130670004B
S31500003B709385059213858AC4EFE0956B138504003F
S31500003B80EFE05A40130605009385040013858AC4A6
S31500003B90EFE0156AB7F50C001306A0009385859231
S31500003BA013858AC4EFE0D56813878AC48337070074
S31500003BB083B787FEB387E70083B4070F63820408E1
S31500003BC083C78403638C070283C5340413858AC4C0
S31500003BD0EFE09524EFE085099304F0FF6FF0DFED49
S31500003BE083A507021385070093E54500EF30C4500F
S31500003BF06FF05FE3130C00006FF09FE7138504007E
S31500003C00EF70C13F03B70400B7470000938787CC26
S31500003C10033707039305A000E30AF7FA13850400A8
S31500003C20E7000700930505006FF05FFA9304F0FFC5
S31500003C306FF05FEE37F50C0013058593EFC01F8D0F
S31500003C40EFC00FF7130405001305810F233C210F66
S31500003C50EF40540F13050400EF300A5D930705008B
S31500003C60033784FE233C8100138407009307012059
S31500003C70B387E70023BC77E1233001026FF0DFFC56
S31500003C801304050063060C0013050C00EF204040EA
S31500003C9013058101EFB0833713050400EF30CA58CE
S31500003CA0EF200040EF2040496FF0DFE213040500EB
S31500003CB06FF01FFE9304050013058102EFA0534821
S31500003CC0938704006FF0DFF9138505006780000015
S31500003CD067800000130101FF23341100EF60DA4A08
S31500003CE083308100B7470F00938707243305F50219
S31500003CF01301010167800000130101FD233C9100BF
S31500003D009304050023308102233821012334310135
S31500003D102334110293890500EF601A4703B40400A7
S31500003D20B7D79A3B938707A03304F40283B784007E
S31500003D30B7440F0013090500938404243304F400E8
S31500003D40EF609A44B3072541B3879702E3EA87FEFB
S31500003D506386090023B0090023B409008330810279
S31500003D60033401028334810103390101833981005F
S31500003D701301010367800000630C050A93077000B6
S31500003D8063ECB70AB7F70C009387872B939525004A
S31500003D90B385F50083A7050067800700034755062E
S31500003DA09307100013050000B397E7002330F600D1
S31500003DB06780000083378506130500002330F60070
S31500003DC06780000083470506130500002330F600D0
S31500003DD06780000083471506130500002330F600B0
S31500003DE06780000083472506130500002330F60090
S31500003DF067800000833705061305000093D7870107
S31500003E009397070393D707032330F60067800000D4
S31500003E10930700042330F6001305000067800000B6
S31500003E2083370507130500002330F600678000007E
S31500003E301305F0FF6780000083B7010213860500B3
S31500003E40B7F50C0003B58701130101FF9385859E25
S31500003E5023341100EF709A32EF609A1B6308051045
S31500003E60130101FE233881000334850323349100B6
S31500003E70233C110093040500630A040013050400A3
S31500003E8003340400EF20C020E31A04FE03B6040343
S31500003E9003B584029305000013163600EFA09A5866
S31500003EA003B5840223B0040423BC0402938784056B
S31500003EB06304F500EF20C01D03B40402630A040086
S31500003EC0832784001B87F7FF2324E4006306070685
S31500003ED003B4040163020404832784001B87F7FFED
S31500003EE02324E400631A0702833704001305040041
S31500003EF083B70701E78007008327C4001B87F7FF06
S31500003F002326E400631A0700833704001305040020
S31500003F1083B78701E780070013850400EF20401769
S31500003F2083308101033401018334810013050000CD
S31500003F3013010102678000008337040013050400A3
S31500003F4083B70701E78007008327C4001B87F7FFB5
S31500003F502326E400E31E07F6833704001305040056
S31500003F6083B78701E78007006FF09FF61305F0FF20
S31500003F70678000006308053A130101FB23347101D1
S31500003F802334110423308104233C91022338210376
S31500003F902334310323304103233C5101233861018B
S31500003FA023308101938B0600638C0634138B050046
S31500003FB063880534033A85009384F5FF930A050068
S31500003FC083674A0103368A01B384F400B307F040DD
S31500003FD0B3F4F400630A0622130906008337890244
S31500003FE06384070E03B78703637897006F00C00DDD
S31500003FF003B78703636897001384070083B7070036
S31500004000E39807FE0336840103370401033C840367
S315000040108339040383368400630606282338E600C2
S315000040200337040163040700233CC7002338040058
S31500004030233C04006386061C23B0F6008337040085
S315000040406384070023B4D70083678901330C9C403F
S315000040502330040023340400637CFC0E83370902FA
S315000040602330F4026384070023B4870283378A026D
S315000040702330890213058001B384970023349A0202
S31500004080EF3080052330550123343501233865018F
S3150000409023B0AB0013050000833081040334010410
S315000040A0833481030339010383398102033A010210
S315000040B0833A8101033B0101833B8100033C0100FC
S315000040C0130101056780000003390900E31809F0B0
S315000040D083670A0183390A00138CF7FF330C9C00AF
S315000040E0B307F040337CFC008337860033073C017E
S315000040F063F8E7128339060103360600B3893701F0
S31500004100E31406FE83378A003387890163FAE710D2
S3150000411037F50C00130505A1EFB0CA0237D40C0021
S31500004120B7F50C001306F0FF938585A21305840DE1
S31500004130EFA01A4BB7F50C001306F0FF938505A503
S315000041401305840DEFA0DA491305F0FF6FF0DFF4D5
S31500004150233C940213050004EF20107883370903EB
S31500004160B3893401233005002334050023380500C4
S31500004170233C05002330050223340502233835038A
S31500004180233C8503638C0718930600006F004001EB
S3150000419003B7070193860700630607149307070012
S315000041A003B70703E36637FF2338F500233CD50042
S315000041B06380061423B8A60023BCA70083378902B0
S315000041C063840714930600006F00400103B70700DD
S315000041D093860700630E070E9307070003B787034E
S315000041E0E366ECFE2330F5002334D5006386061023
S315000041F023B0A6008339040323B4A7006FF01FE69B
S315000042002334F9026FF0DFE383670A0183390A007A
S31500004210138CF7FF330C9C00B307F040337CFC0093
S3150000422013058003EF20506B83274A01130905000D
S31500004230233005002334350123388501232CF5006E
S315000042402330050213050004EF20106983378A0125
S31500004250233005002334050023380500233C0500E0
S31500004260233005022334050223383503233C850316
S315000042702338A9022334A902130405006388070022
S315000042808336890003B7870063F8E6022330F90016
S31500004290233C2A01636C9C089307000093060000E8
S315000042A0130700002338E902130600006FF09FD7BA
S315000042B003B787006378D7001386070083B7070024
S315000042C0E39807FE2330F900233026016FF09FFCA8
S315000042D0233005002334F5008339040323B0A700F7
S315000042E06FF0DFD7233CF50023B8A7006FF01FED72
S315000042F02338A9026FF05FEC2334A9026FF09FEF19
S315000043001305F0FF6FF05FD9233005002334050055
S31500004310833904032334A9026FF05FD42338A9023A
S315000043206FF0DFE91305F0FF678000008337800137
S31500004330730010001304050013050900EF10505513
S3150000434013050400EF205A6E630A0532130101FBC0
S31500004350233471012334110423308104233C910258
S31500004360233821032334310323304103233C5101F5
S315000043702338610123308101930B0700630A072C60
S31500004380130B06006306062C033A85009309F6FF15
S31500004390930A050083670A0103378A001384050020
S315000043A0B389F900B307F040B3F9F900B3843501D6
S315000043B06360972C83378A01639007026F000008B9
S315000043C06366040363F496066372980263F08602DA
S315000043D083B707006384070683B6870003B807011F
S315000043E033880601E37ED4FC63F4960437F50C00AB
S315000043F0130505B0EFA01A5537D40C00B7F50C001D
S315000044001306F0FF938585AA1305840DEFA05A1DA8
S31500004410B7F50C001306F0FF938505AD1305840D63
S31500004420EFA01A1C1305F0FF6F00400EE3E286FAB8
S31500004430E3FE04FB83B70700E39007FA1305800346
S31500004440EF20904983274A01130C05001305000449
S3150000445023300C0023348C0023383C01232CFC0031
S3150000446023300C02EF20504783378A0123300500A2
S315000044702334050023380500233C050023300502BC
S315000044802334050223388502233C35032338AC0246
S315000044902334AC02130905006388070083368C00B9
S315000044A003B7870063F0E60A2330FC0083278C01FC
S315000044B0233C8A0123380C0223380900233C0900D7
S315000044C023340C0223300900233409006386070ACB
S315000044D083370C022330F9026384070023B42703D1
S315000044E083378A0223302C0313058001B3893701F1
S315000044F023343A03EF20503E233055012334850000
S315000045002338650123B0AB00130500008330810416
S31500004510033401048334810303390103833981029F
S31500004520033A0102833A8101033B0101833B810087
S31500004530033C0100130101056780000003B78700F3
S315000045406378D7001386070083B70700E39807FE52
S315000045502330FC0083278C012330860123380C028C
S3150000456023380900233C090023340C0223300900B8
S3150000457023340900E39E07F413050004233C3903A2
S31500004580EF20903583370C032330050023340500D4
S3150000459023380500233C0500233005022334050299
S315000045A023389502233C05026380070C930600001E
S315000045B06F00400103B707019386070063020706F1
S315000045C09307070003B70703E36697FE2338F50052
S315000045D0233CD5006384060623B8A60023BCA700A7
S315000045E083378C02638A0706930600006F0040013A
S315000045F003B7070093860700630A070293070700BD
S3150000460003B78703E31607FE2330F5002334D500EE
S31500004610638A060223B0A60023B4A7006FF05FEBFF
S31500004620233CF50023B8A7006FF09FFB233005005D
S315000046302334F50023B0A7006FF09FE92338AC02BE
S315000046406FF0DFF92334AC0223B4A7006FF05FE804
S315000046501305F0FF6FF09FEB2330050023340500B0
S315000046602334AC026FF0DFE62338AC026FF05FF75D
S3150000467037F50C00130505A86FF0DFD71305F0FF1B
S31500004680678000001304050013050C00EF1050208E
S3150000469013050400EF205A39130101FD233081026E
S315000046A023341102233C91002338210123343101A4
S315000046B013040000630C05068337050003378500E5
S315000046C09304050003B987000334890163040408D1
S315000046D083378400636CF70683360401B387D700FB
S315000046E06376F70683350402639805006F000006BB
S315000046F083B50502638C050483B70503E31AF7FE49
S315000047001305040083B98503EF108029833704025B
S31500004710638E07048337890213040000B387374189
S315000047202334F90213850400EF10901683308102BA
S3150000473013050400033401028334810103390101A6
S3150000474083398100130101036780000003340400EC
S31500004750E31004F837F50C0093050700130585B33D
S31500004760EFA00A681304F0FF6FF0DFFB83378901BF
S31500004770638E0700639687006F0080036384870259
S315000047801387070083B70700E39A07FE0335040380
S3150000479063040500EF10D00F13050400EF10500F4F
S315000047A06FF05FF7833704002330F7006FF01FFECA
S315000047B083370400233CF9006FF05FFD630A0500B0
S315000047C0833785001305000023B0F50067800000DD
S315000047D01305F0FF6780000093070500630A0502D2
S315000047E0638C05008336850003B7860083B6860290
S315000047F03307D74023B0E50013050000630C06001D
S3150000480083B7870083B787022330F60067800000EE
S315000048101305F0FF6780000063000532130101F7FE
S315000048202330810837B41000834704D5233041076D
S315000048302334710523341108233C910623382107BC
S3150000484023343107233C5105233861052330810584
S31500004850233C91032338A1032334B103130A050033
S31500004860938B05006384072037BB100083358BD4F8
S3150000487093071000938515002334BBD46388F50095
S3150000488093074006B3F7F502639E070037F50C0061
S31500004890130585B6EFA0CA5483B7010203B5070115
S315000048A0EF60DA0513040000130C0000930CF0FF10
S315000048B0B7FD0C0037FD0C00630A040A93072003BA
S315000048C0B377F4026390070C03368BD49305040088
S315000048D013850DB9EFA0CA5083B7010203B50701CE
S315000048E0EF60DA01130681009305400113050A0003
S315000048F023340100EF10004A631A051C8336810039
S3150000490003368BD49305040093F4760093B7140012
S315000049101387040013050DCFEFA08A4C83B701025D
S315000049209309140003B50701EF604A7D63100C0874
S315000049309307700C63E637216388040E630A7415C7
S3150000494037440F00EF604A0413090424930405005A
S315000049501304F423EF604A0333059540330525031A
S31500004960E37AA4FE13840900E31A04F403368BD415
S3150000497093071000E30CF6F493072003B377F602CF
S31500004980E38607F4130681009305400113050A0028
S3150000499023340100EF100040631A051283348100AE
S315000049A09309140093F47400E3040CF89307803E13
S315000049B0B3F7F9026386070083378100E38E97F722
S315000049C0130601019305000313050A0023380100AD
S315000049D0233C0100EF10003C63120514130681010D
S315000049E09305400313050A00EF10C03A631A051039
S315000049F003388101833701010336810037F50C0046
S31500004A0013B714009386040093850900130505C5A2
S31500004A10EFA00A3D83B7010203B50701EF600A6EF6
S31500004A20833C8100E39C04F0631C0C081305000022
S31500004A308330810803340108833481070339010771
S31500004A4083398106033A0106833A8105033B010552
S31500004A50833B8104033C0104833C8103033D010342
S31500004A60833D8102130101096780000083B70102BB
S31500004A70930600001306200003B507019305000006
S31500004A80EFB0CA4A930710002308F4D46FF0DFDDB5
S31500004A90E30E0CF8033681001307000037F50C000F
S31500004AA09386040093850900130585C9EFA04A3350
S31500004AB083B7010203B50701EF604A646FF01FF781
S31500004AC003368100130710006FF05FFD37D40C002A
S31500004AD0B7F50C0013060500938585BB1305840DF9
S31500004AE0EFA00A30B7F50C001306F0FF938505BE5C
S31500004AF01305840DEFA0CA2E1305F0FF6FF05FF3C8
S31500004B00B7F70C00938587BBB7D70C0013060500D3
S31500004B101385870DEFA0CA2C6FF09FEDB7F70C0039
S31500004B20938587BBB7D70C00130605001385870D41
S31500004B30EFA00A2B6FF09FEA1305F0FF67800000D5
S31500004B4003368100B7F70C009386040093850900AD
S31500004B50138507C1EFA0CA2883B70102130C100002
S31500004B6003B50701EF608A59833C81006FF0DFDCF3
S31500004B70130101FC233C11022338810223349102E4
S31500004B8023302103233C31012338410123345101D1
S31500004B906306051E138405006382051E033705019F
S31500004BA0B307D60083340500636AF71C0339850012
S31500004BB0330926019377F9036392071C9386F6035C
S31500004BC083B7040793F906FC3307390163E8E71A4C
S31500004BD0376A260593050AC013850400EFF0DFC384
S31500004BE0930A0500631C050893D729006386090A02
S31500004BF093992700B38989003B098940130A0AC0A3
S31500004C006F008000630A34090326040093058000C0
S31500004C1013850400EF10C016930705003B068900B4
S31500004C20930540001385040013044400639A0708A3
S31500004C30EF10001593070500130640009305C0000A
S31500004C40138504006396070AEF1080139307050087
S31500004C501306200093050000138504006392070CD9
S31500004C60EF1000121306050093050A0013850400D1
S31500004C706310060EEFF05FBAE30605F837D40C00B2
S31500004C80B7F50C001306F0FF938505E41305840DB4
S31500004C90EFA00A15930AF0FF833081030334010362
S31500004CA0833481020339010283398101033A010108
S31500004CB013850A00833A810013010104678000000E
S31500004CC037D40C00B7F50C0013860700938505D47E
S31500004CD01305840DEFA0CA10B7F50C001306F0FFFC
S31500004CE0938585D61305840DEFA08A0F6FF05FF9C3
S31500004CF037D40C00B7F50C0013860700938505D44E
S31500004D001305840DEFA0CA0DB7F50C001306F0FFCE
S31500004D10938585D91305840DEFA08A0C6FF05FF695
S31500004D2037D40C00B7F50C0013860700938505D41D
S31500004D301305840DEFA0CA0AB7F50C001306F0FFA1
S31500004D40938505DE1305840DEFA08A096FF05FF3E6
S31500004D5037D40C00B7F50C00938505D41305840DE4
S31500004D60EFA00A08B7F50C001306F0FF938505E1DE
S31500004D701305840DEFA0CA066FF09FF0930AF0FFAB
S31500004D806FF09FF1130101FB2334110423308104DA
S31500004D90233C91022338210323343103233041037A
S31500004DA0233C5101638C051E130405006308051E90
S31500004DB003B70501B307D60083B4050013890600BF
S31500004DC0636EF71C83B98500B309360193F7F903BF
S31500004DD06396071C9387F60303B7040793F707FC4C
S31500004DE0B3873701636CF71A376A260593050AC03D
S31500004DF013850400EFF05FA2930A05006310050A0D
S31500004E0013592900630A090A1319290033092401D1
S31500004E10BB898940130A0AC06F00C001EF00907772
S31500004E20631605148337810013044400232EF4FE11
S31500004E30630489083B8689009305400013850400B6
S31500004E40EF00107493070500130640009305C00099
S31500004E501385040063960708EF0090729307050018
S31500004E601306100093050000138504006392070AD9
S31500004E70EF0010711306050093050A001385040060
S31500004E806310060CEFF05F99930705001306810087
S31500004E909305000113850400E38207F837D40C005C
S31500004EA0B7F50C001306F0FF938505ED1305840D89
S31500004EB0EF901A73930AF0FF8330810403340104E0
S31500004EC0833481030339010383398102033A0102E2
S31500004ED013850A00833A81011301010567800000EA
S31500004EE037D40C00B7F50C0013860700938505D45C
S31500004EF01305840DEF90DA6EB7F50C001306F0FF7C
S31500004F00938585D91305840DEF909A6D6FF05FF93F
S31500004F1037D40C00B7F50C0013860700938505D42B
S31500004F201305840DEF90DA6BB7F50C001306F0FF4E
S31500004F30938505DE1305840DEF909A6A6FF05FF690
S31500004F4037D40C00B7F50C00938505D41305840DF2
S31500004F50EF901A69B7F50C001306F0FF938585E705
S31500004F601305840DEF90DA676FF09FF337D40C00CA
S31500004F70B7F50C0013060500938585BB1305840D54
S31500004F80EF901A66B7F50C001306F0FF938585EAD5
S31500004F901305840DEF90DA646FF09FF0930AF0FF2B
S31500004FA06FF09FF1630E0504630C06048338050356
S31500004FB09397050293D70702B3F7170303378502C2
S31500004FC0939637003307D70003380700630A0802B1
S31500004FD003370800832687006388D5020335070058
S31500004FE013080700630E05008326850013070500D6
S31500004FF0139506021355050233751503E38EA7FCB8
S315000050001305F0FF6780000083370800E38A07FE78
S3150000501083A7C700130500002320F6006780000061
S315000050201305000067800000630A05006388060018
S3150000503023B0060013050000678000001305F0FF8B
S3150000504067800000130101FA233C11042338810410
S315000050502334910423302105233C310323384103B3
S315000050602334510323306103630805249384050028
S31500005070130A060013860500930540001304050075
S31500005080139B0402EF00D04F135B0B026318051845
S3150000509013060A009305800013050400EF00504E26
S315000050A06318051A13064000930500001305040053
S315000050B0EF00104D930905006316051C83350403A4
S315000050C0833784023375BB02931A3500B3875701C1
S315000050D003B60700630A06068337060003A78700A0
S315000050E06386E40283B607006380060603A786008C
S315000050F0138607009317070293D70702B3F7B70281
S315000051006314F50493870600E39EE4FC83370600E8
S315000051101389C700638A070223204901833081056A
S31500005120033401058334810403390104033A01037E
S31500005130833A8102033B0102138509008339810307
S31500005140130101066780000013050001EF10D078F7
S315000051508337040503360404833504031309050065
S3150000516093061000130584042330090023249900B4
S31500005170232609002334F100EF10D4562338A1006A
S31500005180233CB1001375F50F631C05020337840237
S31500005190B30A570183B70A006388070483B7070079
S315000051A02330F90083B70A0023B0270183370404AC
S315000051B01309C900938717002330F4046FF0DFF555
S315000051C01306810013058402EF005022833A04037C
S315000051D003378402B37A5B03939A3A00B30A570102
S315000051E083B70A00E39C07FA83378403233C24032E
S315000051F02330F900638E070083E7870083360403B4
S31500005200B3F7D702939737003307F7002330270108
S315000052109307840323B0FA006FF05FF937D40C00CC
S31500005220B7F50C0013060500938505D41305840D08
S31500005230EF901A3BB7F50C001306F0FF938585F047
S315000052401305840DEF90DA399309F0FF6FF01FED27
S3150000525037D40C00B7F50C0013060500938505D46A
S315000052601305840DEF90DA37B7F50C001306F0FF3F
S31500005270938585F31305840DEF909A369309F0FF15
S315000052806FF0DFE937D40C00B7F50C001306050004
S31500005290938505D41305840DEF909A34B7F50C0069
S315000052A01306F0FF938585F61305840DEF905A33A8
S315000052B09309F0FF6FF09FE69309F0FF6FF01FE68A
S315000052C01304050013050900EF00905C13050400A4
S315000052D0EF109A75130101FC233C11022338810259
S315000052E02334910223302103233C31012338410129
S315000052F02334510123306101630E0544130905006F
S3150000530013058007EF10505DB7F5FF019395750003
S3150000531013040500EF0090219307100093940702F1
S315000053202338F40283A701DB930984051306840658
S3150000533093050002130504002334040023380400F7
S31500005340233C04002330040223343403233C0402A8
S31500005350233004042324F40423380404233C0404E3
S3150000536023389406EF00D01E631205381306040690
S315000053709305800113050400EF00901D6312053AA2
S3150000538013050004EF105055B7F60C00938A8640BB
S3150000539037070004B7060100033A04012338D50095
S315000053A013071700B7F6FF0F9384140013060501C1
S315000053B0939646001317C7002330550123349500F2
S315000053C0233CD5002330E50223340502233C0502A5
S315000053D02334C4002338A400630A0A0083278A0002
S315000053E01B87F7FF2324EA0063020716034A5406C5
S315000053F093041000339A440163FA44193706006097
S315000054009305100013050400EFF0DFC393040500B5
S31500005410631C051013060000930520001305040005
S31500005420EFF05FC293040500630C051E130605002A
S31500005430B7F50C0037D50C00938505091305850DC6
S31500005440EF901A1A03398403630A09001305090049
S3150000545003390900EF00D043E31A09FE03360403BB
S31500005460033584029305000013163600EF908A7BFD
S315000054700335840223300404233C04026384A90018
S31500005480EF00104103390402630A090283278900E9
S315000054901B87F7FF2324E9006312070283370900FD
S315000054A01305090083B70701E78007008327C900B2
S315000054B01B87F7FF2326E9006308071E033904014B
S315000054C0630A0902832789001B87F7FF2324E90063
S315000054D063120702833709001305090083B7070122
S315000054E0E78007008327C9001B87F7FF2326E9000B
S315000054F06306071C13050400EF009039833081030F
