S01600006770752D6576616C756174696F6E2E737265635D
S3150000000097210E00938181519702000093828215F9
S3150000001073905230732440F163100402970200007B
S315000000209382421573905230EF909A1D97120000FA
S31500000030938242DCE780020013132400970200003B
S315000000409382420CB302530003A302000F00F00F89
S31500000050E31C03FE17DE1000130ECE689313440054
S31500000060B30E7E00138F8E0083BF0E0003310F0088
S31500000070970200009382021073905230732540F16C
S31500000080E7800F00130000001300000013000000BB
S31500000090130000001300000013000000130000000E
S315000000A013000000130000001300000013000000FE
S315000000B013000000130000001300000013000000EE
S315000000C013000000130000001300000013000000DE
S315000000D013000000130000001300000013000000CE
S315000000E013000000130000001300000013000000BE
S315000000F013000000130000001300000013000000AE
S3150000010073001000730010007300100073001000DD
S3150000011073001000730010007300100073001000CD
S3150000012073001000730010007300100073001000BD
S3150000013073001000730010007300100073001000AD
S3150000014013132500970300009383C3FBB3027300C8
S315000001500F00500F23A00200130500006780000067
S3150000016073001000130000001300000013000000CD
S3150000017073202034130101EF23301100233831009E
S31500000180233C41002330510223346102233871029B
S31500000190233C8102233091042334A1042338B10483
S315000001A0233CC1042330D1062334E1062338F1066B
S315000001B0233C01072330110923342109233831094F
S315000001C0233C41092330510B2334610B2338710B37
S315000001D0233C810B2330910D2334A10D2338B10D1F
S315000001E0233CC10D2330D10F2334E10F2338F10F07
S315000001F073250030F325103473262034233CA10EDA
S315000002002330B1102334C11063560600EF909A0EC6
S315000002106F00C00093060100EF905A0D8330010075
S3150000022083310101033281018332010203338102EA
S3150000023083330103033481038334010403358104CA
S3150000024083350105033681058336010603378106AA
S31500000250833701070338810783380108033981088A
S3150000026083390109033A8109833A010A033B810A6A
S31500000270833B010B033C810B833C010C033D810C4A
S31500000280833D010D033E810D833E010E033F810F29
S31500000290833F011073100F3073901F34033F810E9C
S315000002A0833F010F1301011173002030000000008D
S315000002B00000000000000000000000000000000038
S315000002C00000000000000000000000000000000028
S315000002D00000000000000000000000000000000018
S315000002E00000000000000000000000000000000008
S315000002F000000000000000000000000000000000F8
S3150000030000000000000000000000000000000000E7
S3150000031000000000000000000000000000000000D7
S3150000032000000000000000000000000000000000C7
S3150000033000000000000000000000000000000000B7
S3150000034000000000000000000000000000000000A7
S31500000350130101FF1305800023341100EF20C93279
S31500000360B7A70D00938707C237260900B7A50D006A
S315000003702330F5001306C67B938585B6EF6090366D
S31500000380130101FF1305800023341100EF20C92F4C
S31500000390B7870D00938787A837060800B7850D0035
S315000003A02330F5001306C6CA938505A6EF60903381
S315000003B0130101FF1305800023341100EF20C92C1F
S315000003C0B7870D00938787AE37060800B7850D00FF
S315000003D02330F500130606D0938505ACEF60903008
S315000003E0130101FF1305800023341100EF20C929F2
S315000003F0B7870D00938787B437060800B7850D00C9
S315000004002330F500130646D5938505B2EF60902D8F
S31500000410130101FE233881001304050013050001B2
S31500000420233C110023349100EF2009269305040094
S3150000043013040500EF70C94637660900B7A50D001D
S315000004401306061D9385851313050400EF60902996
S315000004509304050013050400EF2089281385040082
S31500000460EF609A56130101FE23388100130405003C
S3150000047013050001233C110023349100EF20C9200D
S315000004809305040013040500EF70C946376609009A
S31500000490B7A50D0013060667938585161305040098
S315000004A0EF6050249304050013050400EF20492350
S315000004B013850400EF605A51130101FE23388100B1
S315000004C01304050013050001233C11002334910099
S315000004D0EF20891B9305040013040500EF7089477C
S315000004E037660900B7A50D001306066193858519C1
S315000004F013050400EF60101F9304050013050400A4
S31500000500EF20091E13850400EF601A4C130101FE4B
S31500000510233881001304050013050001233C110054
S3150000052023349100EF2049169305040013040500B7
S31500000530EF70494837660900B7A50D001306065542
S315000005409385851C13050400EF60D01993040500FC
S3150000055013050400EF20C91813850400EF60DA467E
S31500000560130101FE23388100130405001305000161
S31500000570233C110023349100EF2009119305040058
S3150000058013040500EF70094937660900B7A50D0089
S315000005901306065B9385851F13050400EF60901410
S315000005A09304050013050400EF2089131385040046
S315000005B0EF609A41130101FE233881001304050000
S315000005C013050001233C110023349100EF20C90BD1
S315000005D09305040013040500EF70C9493766090046
S315000005E0B7A50D001306062393858522130504007F
S315000005F0EF60500F9304050013050400EF20490E29
S3150000060013850400EF605A3C130101FE2338810074
S315000006101304050013050001233C11002334910047
S31500000620EF2089069305040013040500EF70C949FD
S3150000063037660900B7A50D001306062F9385052515
S3150000064013050400EF60100A930405001305040067
S31500000650EF20090913850400EF601A37130101FE24
S31500000660233881001304050013050001233C110003
S3150000067023349100EF20490193050400130405007B
S31500000680EF70894A37660900B7A50D0013060635CF
S315000006909385052813050400EF60D0049304050034
S315000006A013050400EF20C90313850400EF60DA3157
S315000006B0130101FE23388100130405001305000110
S315000006C0233C110023349100EF10197C930504009C
S315000006D013040500EF70494B37660900B7A50D00F6
S315000006E0130606299385052B13050400EF60807F0A
S315000006F09304050013050400EF10997E138504008A
S31500000700EF609A2C130101FF1305800023341100BA
S31500000710EF109977B7870D00938787AE37060800E5
S31500000720B7850D002330F500130606D0938505AC7A
S31500000730EF60407B130101FF130580002334110095
S31500000740EF109974B7870D00938787B437060800B2
S31500000750B7850D002330F500130646D5938505B2FF
S31500000760EF604078130101FF130580002334110068
S31500000770EF109971B7B70D009387070737B60900D1
S31500000780B7B50D002330F5001306868893858504DA
S31500000790EF604075130101FD233C910093040500B1
S315000007A0130500032334110223308102EF10D96DA3
S315000007B013040500EF80497D930710002320F10004
S315000007C08335010013060500938604001305040013
S315000007D0EF80595EB7B70D00938707AB130504008A
S315000007E02330F400EF50591E93050500130504024B
S315000007F0EFA0492137960900B7B50D001306C614B8
S31500000800938505A213050400EF60C06DB7B70D0010
S3150000081093040500938787A8130504002330F4008A
S31500000820EF90991D6F0080009304050013050400E6
S31500000830EF10196B13850400EF601A19130101FDFF
S315000008402338210113090500130500032330810213
S31500000850233C91002334110293840500EF10D962E2
S315000008601304050063880400EF905932130605004F
S315000008706F000001EF804971130605009304100014
S315000008802320910083350100930609001305040017
S31500000890EF805952B7B70D00938707AB13050400D5
S315000008A02330F400EF505912930505001305040296
S315000008B0EFA0491537960900B7B50D001306C61403
S315000008C0938505A213050400EF60C061B7B70D005C
S315000008D093040500938787A8130504002330F400CA
S315000008E0EF9099116F008000930405001305040032
S315000008F0EF10195F13850400EF601A0D130101FB59
S31500000900233821031309050013050002233081044F
S31500000910233C91022334110423343103EF10D956BA
S3150000092093040500130609009385010013050100D1
S31500000930EF9019189305010013850400930901012E
S31500000940EF9009080335010063043501EF50406E4E
S31500000950B7B70D001384010037A60900B7B50D001F
S31500000960938707EC1306861F938585E41385040099
S3150000097023B0F40023A8240123BC8400EF60805632
S315000009808337010013040500638A370113850700C6
S31500000990EF50006A6F008000130405001385040001
S315000009A0EF10195413050400EF601A02130101FF3A
S315000009B02330810037B41000130504C52334110019
S315000009C0EF704079930504C503340100833081003C
S315000009D037850000138601FA130505171301010177
S315000009E06F90DA78130101FF2330810037B41000CD
S315000009F0130584C623341100EF70C075930584C6B1
S31500000A00033401008330810037850000138601FA24
S31500000A1013050517130101016F905A75B7B710003A
S31500000A2003C707D163160700130710002388E7D012
S31500000A30B7B7100003C787D0631607001307100067
S31500000A402384E7D0B7B7100003C707D063160700A3
S31500000A50130710002380E7D0B7B7100003C787CF6E
S31500000A606316070013071000238CE7CEB7B71000F4
S31500000A7003C707CF63160700130710002388E7CEC6
S31500000A80B7B7100003C787CE631607001307100019
S31500000A902384E7CEB7B7100003C707CE6316070057
S31500000AA0130710002380E7CEB7B7100003C787CD22
S31500000AB06316070013071000238CE7CC678000003D
S31500000AC0B7B7100003C707D963160700130710004E
S31500000AD02388E7D8B7B7100003C787D8631607007F
S31500000AE0130710002384E7D8B7B7100003C707D849
S31500000AF063160700130710002380E7D8B7B7100066
S31500000B0003C787D76316070013071000238CE7D6A1
S31500000B10B7B7100003C707D76316070013071000FF
S31500000B202388E7D6B7B7100003C787D66316070032
S31500000B30130710002384E7D6B7B7100003C707D6FC
S31500000B4063160700130710002380E7D6B7B7100017
S31500000B5003C787D56316070013071000238CE7D455
S31500000B6067800000B7B7100003C787E36316070066
S31500000B7013071000238CE7E2B7B7100003C707E39B
S31500000B8063160700130710002388E7E2B7B71000C3
S31500000B9003C787E263160700130710002384E7E202
S31500000BA0B7B7100003C707E2631607001307100064
S31500000BB02380E7E2B7B7100003C787E16316070093
S31500000BC013071000238CE7E0B7B7100003C707E14F
S31500000BD063160700130710002388E7E0B7B7100075
S31500000BE003C787E063160700130710002384E7E0B6
S31500000BF0B7B7100003C707E0631607001307100016
S31500000C002380E7E0B7B7100003C787DF6316070046
S31500000C1013071000238CE7DEB7B7100003C707DF02
S31500000C2063160700130710002388E7DEB7B7100026
S31500000C3003C787DE63160700130710002384E7DE69
S31500000C40B7B7100003C707DE6316070013071000C7
S31500000C502380E7DE67800000B7B7100003C787EF81
S31500000C606316070013071000238CE7EEB7B71000D2
S31500000C7003C707EF63160700130710002388E7EE84
S31500000C80B7B7100003C787EE6316070013071000F7
S31500000C902384E7EEB7B7100003C707EE6316070015
S31500000CA0130710002380E7EEB7B7100003C787EDE0
S31500000CB06316070013071000238CE7ECB7B7100084
S31500000CC003C707ED63160700130710002388E7EC38
S31500000CD0B7B7100003C787EC6316070013071000A9
S31500000CE02384E7ECB7B7100003C707EC63160700C9
S31500000CF0130710002380E7ECB7B7100003C787EB94
S31500000D006316070013071000238CE7EAB7B7100035
S31500000D1003C707EB63160700130710002388E7EAEB
S31500000D20B7B7100003C787EA63160700130710005A
S31500000D302384E7EAB7B7100003C707EA631607007C
S31500000D40130710002380E7EA67800000130101FE05
S31500000D5023349100B7140000233881009384041CC7
S31500000D6037D410001304846713850400233C110054
S31500000D70233C9400EFC05A752338A4006302050291
S31500000D802334A400233095002334050083308101E9
S31500000D9003340101833481001301010267800000DE
S31500000DA0233C0400233404006FF05FFE130101FFAF
S31500000DB02330810037A50900138601FA93850100C7
S31500000DC01305C51E23341100EF905A3A138601FA13
S31500000DD0033401008330810037A50900938581FF24
S31500000DE01305851E130101016F905A38000000009B
S31500000DF0EF801A411304010093020000639002027F
S31500000E0017A51000130505E417D61000130606E40F
S31500000E10B306A64093D53600EF809A3F97A21000FE
S31500000E209382422E23B08200EF809A40EF805A3D93
S31500000E30EF80DA6CEF809A72EF80DA5817A50A0015
S31500000E4013058575EF905A18EFC01A08EF805A3BC4
S31500000E5097A210009382021603A502009382010155
S31500000E6083B5020013060000EF00400FEF90DA3161
S31500000E7073001000000000000000000037250E007F
S31500000E8037270E00930785D1130787D1630AF7002A
S31500000E909307000063860700130585D16780070066
S31500000EA06780000037250E00930785D137270E008F
S31500000EB0930587D1B385F54093D7354093D5F50390
S31500000EC0B385F50093D51540638A050093070000A6
S31500000ED063860700130585D16780070067800000D9
S31500000EE0130101FF2330810037B4100083478410BB
S31500000EF02334110063920702EFF05FF8B7970A00F8
S31500000F00938747596386070013858104EF808A68B3
S31500000F10930710002304F41083308100033401008A
S31500000F201301010167800000B7970A0093874737CE
S31500000F3063840702B7B51000130101FF93850511FD
S31500000F401385810423341100EF80CA428330810067
S31500000F50130101016FF01FF56FF0DFF4130101F6C5
S31500000F60233C1108233881082334910823302109B2
S31500000F70233C310713050040EFC01A551304050042
S31500000F8013050040EFC05A54930405009307000070
S31500000F90930600403307F4002300F70093871700F9
S31500000FA0E39AD7FE93870400138704402380070043
S31500000FB093871700E39CE7FE2334010623300106DE
S31500000FC0233C0104233801042334010437D50C00E3
S31500000FD0130505DFEFE00A1113058106EF408029AE
S31500000FE037D50C00130505E1EFE0CA0F13068103A0
S31500000FF09305100003358106EF20505813060104AF
S315000010009305200003358106EF2050571306010390
S315000010109305300003358106EF2050568336810351
S31500001020033601048335010337D50C00130505E3A8
S31500001030EFD01A55B7F90D00938709D137190E006D
S31500001040130989163309F9409305090037D50C00B1
S31500001050130585E6EFD0DA5293060105130609005B
S31500001060938509D103358106EF00002D371900005D
S315000010709305098037D50C00130505E9EFD05A50C2
S3150000108093060106130610009305004003358106FA
S31500001090EF20906E9305810203350106EF30407212
S315000010A0930681051306200093050040033581064B
S315000010B0EF20906C9305010203358105EF304070F7
S315000010C037D50C00130585EBEFE0CA019307004006
S315000010D02334F100833781022338F100833701027C
S315000010E0233CF100930681041306800193058100D9
S315000010F003358106EF0000399305004037D50C0013
S31500001100130505EDEFD0DA479306004013060000FD
S315000011109305040003350106EF30901F37D50C0008
S31500001120130505F0EFD01A7C930600401306000065
S315000011309385040003358105EF30901D37D50C00EB
S31500001140130505F2EFD01A7A0336810483350105BB
S3150000115003358106EF40C05B37D50C00130505F358
S31500001160EFD05A78B7652605938505C00335810605
S31500001170EF30C06A9305004037D50C00130585F59E
S31500001180EFD01A4093060040130600008335810510
S3150000119013850400EF3010399305098037D50C000C
S315000011A0130585F8EFD0DA3D03350106EF30004F21
S315000011B003358105EF30804E03350105EF30004ED3
S315000011C003358104EF30804D37D50C00130505FB40
S315000011D0EFD05A7103358106EF20904813060000C0
S315000011E093070000130500409B8507003387F40032
S315000011F0834607006392C602938717001B062600E4
S315000012001376F60FE392A7FE37D50C0013050501FA
S31500001210EFD05A6D6F00C00137D50C00130505FDE0
S31500001220EFD01A3637D50C0013050500EFD09A6BB0
S3150000123013050400EFC01A2A13850400EFC09A298B
S3150000124013050000833081090334010983348108C2
S3150000125003390108833981071301010A67800000F9
S31500001260B7B7100083B707FA639A070037B71000BD
S31500001270B7E71000938787C42330F7FAB7B7100093
S3150000128083B787F963980700B7B7100037070010D0
S3150000129023BCE7F867800000130101FE23388100B4
S315000012A0233C11002334910037B41000834704C453
S315000012B00F00F00F93F7F70F63800702B7B4100023
S315000012C0833081010334010103A584C48334810082
S315000012D01301010267800000130504C4EF50104D8E
S315000012E0B7B41000E30E05FC37D50C001305050254
S315000012F023A404C4EFC0CA2863060500EF900A4E73
S3150000130023A4A4C4130504C4EF509050374500002D
S31500001310938584C4138601FA130545CDEF900A65BB
S31500001320833081010334010103A584C48334810021
S315000013301301010267800000130101FC233C110226
S31500001340233881022334910223302103233C3101C7
S315000013502338410163040512938405006380051256
S31500001360930780001309060063FAC710138A060064
S315000013706386061083B5050083B9840013078100D0
S3150000138093060000B389B94013860900EF20107C4C
S31500001390130405006314050403358100130909FFCE
S315000013A0930610001306090093050000EF30504124
S315000013B01304050063020506B7D50C0013060500E5
S315000013C09385050A37D50C0013058507EFD05A1B00
S315000013D003358100EF30802C6F00C0011306050035
S315000013E0B7D50C0037D50C00938585031305850703
S315000013F0EFD01A1983308103130504000334010367
S31500001400833481020339010283398101033A0101E0
S315000014101301010467800000033581009306300044
S315000014203386294193050900EF30903913040500EE
S3150000143063160502033581009306090013060000B2
S3150000144093850401EF30C06C130405006310050298
S31500001450833781002330FA006FF0DFF9B7D50C002F
S31500001460130605009385850D6FF0DFF5B7D50C00E3
S3150000147013060500938585126FF0DFF41304F0FF61
S315000014806FF05FF7130101FC233C11022338810240
S315000014902334910223302103233C31016308050ED6
S315000014A0138905006384050E930406006300060E87
S315000014B093890600638C060C9306810013061000C0
S315000014C093850400EF20502B1304050063140504D4
S315000014D00335810093860400130600009305090076
S315000014E0EF3000631304050063120506833781009D
S315000014F083308103130504000334010323B0F9008C
S315000015008334810203390102833981011301010405
S315000015106780000013060500B7D50C0037D50C0010
S315000015209385851513058507EFD09A0583308103CA
S3150000153013050400033401038334810203390102D5
S315000015408339810113010104678000001306050039
S31500001550B7D50C0037D50C009385051913058507FB
S31500001560EFD01A0203358100EF3040138330810338
S315000015701305040003340103833481020339010295
S315000015808339810113010104678000001304F0FF11
S315000015906FF0DFF9130101DE233C311F130601163C
S315000015A0938905009305300023349120233C1120B4
S315000015B023388120233021212338411F2334511F12
S315000015C02330611F233C711D2338811D2334911D57
S315000015D02330A11D233CB11B93040500233C0110BD
S315000015E0233001122334011223380112233C011245
S315000015F0233001142334011423380114233C01142D
S31500001600EF20C077630005061309050013060500E1
S31500001610B7D50C0037D50C009385051C1305850737
S31500001620EFD00A768330812103340121833481206F
S315000016308339811F033A011F833A811E033B011E32
S31500001640833B811D033C011D833C811C033D011C22
S31500001650833D811B13050900033901201301012273
S315000016606780000013068116930570001385040039
S31500001670EF20C0701309050063000502130605007C
S31500001680B7D50C0037D50C009385851F1305850744
S31500001690EFD00A6F6FF01FF903378116930710001A
S315000016A0139507029395170213962702939637020E
S315000016B0939747023375A700B375B7003376C70013
S315000016C0B376D700B377F700233CA1082330B10ADD
S315000016D02334C10A2330D10E2338F108EFF0DFBBE3
S315000016E0833B011623380100130A050063940B009F
S315000016F06F10501113040000233C010C2338010C19
S315000017002334010C2330010C2338010A233C010A3F
S31500001710233001082338010623340108233C01063F
S315000017202334010623380102233C0102233001043D
S31500001730233C010423380104233001062334010429
S315000017402334010223300102233C0100930D0000E3
S31500001750930A0000233C210F371900009306011756
S3150000176013060400930509B013850400EF30D00575
S31500001770630405006F10C037930681171306040033
S31500001780930529B013850400EF30100463040500A7
S315000017906F104038930710006306FA66930720001F
S315000017A06310FA1483370109638407006F005067DA
S315000017B083378109638407006F0050758337010AF8
S315000017C0638407006F1080088337810AE39007540B
S315000017D0631804108337010E6388070A371900005F
S315000017E09306811113060000930529B113850400A1
S315000017F0EF30807D630405006F10503893060112A8
S3150000180013060000930539B113850400EF30C07B41
S31500001810630405006F10503493068112130600000E
S31500001820930549B113850400EF30007A630405007F
S315000018306F10D03D9306011313060000930559B1AE
S3150000184013850400EF304078630405006F10D0392B
S315000018509306811313060000930569B113850400EE
S31500001860EF308076630405006F10D03593060114BF
S3150000187013060000930579B113850400EF30C07498
S31500001880630405006F10D0313719000093068114E8
S3150000189013060000930589B113850400EF30C0726A
S315000018A0630405006F10407E9306011513060000C1
S315000018B0930599B113850400EF30007163040500A8
S315000018C06F10407A93068115130600009305A9B19F
S315000018D013850400EF30406F630405006F10001F8E
S315000018E0833B011603390117033B811713050000DB
S315000018F06304090213050B00EF004A60130C050090
S3150000190013050900EF008A5F9305050013050C0017
S31500001910EFF00963EF200A589307100063FA770384
S31500001920EF200A2AB7E50C00930705001307090004
S3150000193093060B001306040093858534138509006E
S31500001940EF90DA7D833B0116033B811703390117BC
S3150000195083370101B38A6A01B38D2D0163F4270130
S31500001960233821011B0414009317040293D707029E
S31500001970E3E477DF0339810F930710006314FA005D
S315000019806F10801B930720006310FA428337810A89
S31500001990638A071E0337010B8337810B930C000004
S315000019A0335D77030337010C335477030337810C18
S315000019B0B35477030337010D335A77030337810D89
S315000019C0B3DD7703335B770363E477051305040020
S315000019D0EF00CA52130C050013850D00EF000A52E2
S315000019E09305050013050C00EFF08955B7270E0087
S315000019F09305050003B507D2EFF01970B7270E005F
S31500001A0083B587D1EFF01934EF008A409B0C0500AF
S31500001A108337010B130C000063E47705138504007C
S31500001A20EF00CA4D930B050013050D00EF000A4D9C
S31500001A309305050013850B00EFF08950B7270E00BC
S31500001A409305050003B507D2EFF0196BB7270E0013
S31500001A5083B587D1EFF0192FEF008A3B1B0C0500E9
S31500001A603385AD01B3074501233CF100930B00001C
S31500001A70638C0702EF008A4883378101930B0500C8
S31500001A8013850700EF008A479305050013850B00B1
S31500001A90EFF0094BB7270E0083B587D1EFF0992AEF
S31500001AA0EF000A379B0B05003305940033076501E9
S31500001AB0233CE10093070000630E0702EF000A448F
S31500001AC0033781012330A10213050700EF000A4303
S31500001AD0833701029305050013850700EFF0494699
S31500001AE0B7270E0083B587D1EFF0D925EF004A322C
S31500001AF09B070500B7E50C009385055013860D007E
S31500001B0013850900233CF100EF905A61B7E50C00FC
S31500001B1013060D009385055213850900EF901A6090
S31500001B20B7E50C0093860C00130604009385055454
S31500001B3013850900EF909A5EB7E50C0093060C003A
S31500001B40138604009385055713850900EF901A5DE7
S31500001B50B7E50C0093860B0013060A009385855A99
S31500001B6013850900EF909A5B83378101B7E50C0076
S31500001B7013060B00938607009385055E13850900FF
S31500001B80EF90DA598337010E638E071A033A8111F3
S31500001B9083348112930B000063040A041385040046
S31500001BA0EF00CA351304050013050A00EF000A35D5
S31500001BB09305050013050400EFF08938B7270E00DA
S31500001BC09305050003B507D2EFF01953B7270E00AA
S31500001BD083B587D1EFF01917EF008A239B0B050019
S31500001BE003340112833C0113130B00006304040445
S31500001BF013850C00EF008A30130B05001305040053
S31500001C00EF00CA2F9305050013050B00EFF04933CB
S31500001C10B7270E009305050003B507D2EFF0D94D9F
S31500001C20B7270E0083B587D1EFF0D911EF004A1E12
S31500001C301B0B050033058A0003348113130C0000C7
S31500001C4033048500630A0402EF004A2B130C0500D7
S31500001C5013050400EF008A2A9305050013050C00FE
S31500001C60EFF0092EB7270E0083B587D1EFF0990D57
S31500001C70EF000A1A1B0C0500033401143385940186
S31500001C809304000033048500630A0402EF000A2768
S31500001C909304050013050400EF004A26930505008A
S31500001CA013850400EFF0C929B7270E0083B587D145
S31500001CB0EFF05909EF00CA159B040500B7E50C00C3
S31500001CC013060A009385856113850900EF901A456E
S31500001CD003360112B7E50C00938585631385090069
S31500001CE0EF90DA4303368112B7E50C0093860B00BA
S31500001CF09385856513850900EF905A4203360113D3
S31500001D00B7E50C0093060B009385856813850900DB
S31500001D10EF90DA4003368113B7E50C0093060C000A
S31500001D209385056C13850900EF905A3F033601141D
S31500001D30B7E50C00938604009385856F138509002B
S31500001D40EF90DA3D833481140335811513040000C6
S31500001D5063840402EF008A1A130405001385040045
S31500001D60EF00CA199305050013050400EFF0491D9D
S31500001D70EF000A0A1B04050003370115B7E50C003E
S31500001D80938505733386E400938604001385090062
S31500001D90EF90DA38B7E50C001306040093858576D4
S31500001DA013850900EF909A37833401011307000069
S31500001DB06388040213850A00EF004A141304050021
S31500001DC013850400EF008A1393050500130504002C
S31500001DD0EFF00917EF200A0CEF109A5E13070500C3
S31500001DE083360101B7E50C0013860A0093858578D2
S31500001DF013850900EF909A3213850900EF900A2A9D
S31500001E006FF05F829306811A13060400930539B0BA
S31500001E1013850400EF30401B13070500630405001B
S31500001E206F104000833701160339811A637EFA0466
S31500001E30033B0117630C0B0213050900EF000A0CA4
S31500001E40930B050013050B00EF004A0B93050500E5
S31500001E5013850B00EFF0C90EB7270E0083B587D1A7
S31500001E60EFF0496EEFF0D97A1B070500B7D50C00E5
S31500001E70930609001306040093858530138509002F
S31500001E80EF90DA290339811AB71500009306811AF3
S31500001E9013060400938545B013850400EF30C01285
S31500001EA08337810113070500B3872701233CF1001F
S31500001EB0630405006F0090798336011693071000BE
S31500001EC00339811A63FED704033B0117630C0B0227
S31500001ED013050900EF008A02930B050013050B009A
S31500001EE0EF00CA019305050013850B00EFF04905C5
S31500001EF0B7270E0083B587D1EFF0C964EFF05971AB
S31500001F001B070500B7D50C0093060900130604004D
S31500001F109385853813850900EF905A200339811A75
S31500001F20B71500009306811A13060400938555B071
S31500001F3013850400EF3040098337010213070500BB
S31500001F40B38727012330F102630405006F00507147
S31500001F508336011693071000033B811A63FED704EC
S31500001F6003390117630C090213050B00EFF0197909
S31500001F70930B050013050900EFF05978930505004A
S31500001F8013850B00EFE0D97BB7270E0083B587D109
S31500001F90EFF0495BEFF0D9671B070500B7D50C00DA
S31500001FA093060B00130604009385854013850900EC
S31500001FB0EF90DA16033B811A3719000093060118D1
S31500001FC013060400930569B013850400EF20D07F43
S31500001FD083378102B38767012334F1026304050066
S31500001FE06F0050699306811813060400930589B0A3
S31500001FF013850400EF20507D630405006F00D0694F
S315000020009306011913060400930599B0138504007D
S31500002010EF20907B630405006F00506A93068119D8
S31500002020130604009305A9B013850400EF20D079A8
S31500002030630405006F00D06A9306011A13060400B4
S315000020409305C9B013850400EF20107863040500DA
S315000020506F00506B9306811A130604009305D9B0DE
S3150000206013850400EF205076930B050063040500EA
S315000020706F00906B8335010583378118833601190C
S31500002080033D8119B385F5002338B10483358105F5
S31500002090833C011A033C811AB385D500233CB10465
S315000020A0833501040336011613071000B385A50115
S315000020B02330B10483358103033B0118B3859501B1
S315000020C0233CB10283350103B38585012338B10270
S315000020D0637EC716033601173389D7003309A90172
S315000020E0330999012334C10E33098901130700000E
S315000020F06308060413050B002334D1102330F110B6
S31500002100EFF0D95F0336810E2338A10E13050600C2
S31500002110EFF0D95E0337010F93050500130507009D
S31500002120EFE01962B7270E0083B587D1EFF089413A
S31500002130EFF0194E83368110833701101B07050017
S315000021402338D10E2334F10E6302094C130509001E
S315000021502330E110EFF0995A8337810E13090500F9
S31500002160B72B0E0013850700EFF0595993050900A8
S31500002170EFE0195D83B58BD1EFF0C93CEFF059491B
S315000021808336010F9B0705002334F10E13850600E5
S31500002190EFF0D95693050900EFE0995A83B58BD134
S315000021A0EFF0493AEFF0D9461308050013050D0084
S315000021B01B0D0800EFF0995493050900EFE05958FC
S315000021C083B58BD1EFF00938EFF0994493080500F9
S315000021D013850C009B8C0800EFF0595293050900FB
S315000021E0EFE0195683B58BD1EFF0C935EFF05942C0
S315000021F09B0B050013050C00EFF0595093050900E1
S31500002200EFE01954B7270E0083B587D1EFF0893375
S31500002210EFF019408337810E033701101B050500C7
S31500002220B7D50C0093060B002334A10023307101AF
S3150000223093880C0013080D001306040093850560AF
S3150000224013850900EF908A6D033B0118B71500004E
S315000022509306811A13060400938575B0138504004E
S31500002260EF2090568337810413070500B387670173
S315000022702334F104E31A054C833601169307100044
S315000022800339811A63FED704033B0117630C0B0263
S3150000229013050900EFF09946930B050013050B0093
S315000022A0EFF0D9459305050013850B00EFE059497A
S315000022B0B7270E0083B587D1EFF0C928EFF059355F
S315000022C01B070500B7D50C0093060900130604008A
S315000022D09385856B13850900EF904A640339811A4B
S315000022E0B71500009306011A130604009385E5B09E
S315000022F013850400EF20504D83370106B38727016D
S315000023002330F106E31C054483360116130710003B
S315000023108337011A6366D71803378106B71500009D
S315000023209306811AB307F70013060400938515B1C7
S31500002330138504002334F106EF20104993060500A7
S31500002340E310054403360116130710008337811A7C
S315000023506376C7040339011A630609021385070069
S31500002360EFF0D939130B050013050900EFF0193901
S315000023709305050013050B00EFE0993CEFF0592992
S315000023809B060500B7D50C00130604009385057A55
S3150000239013850900EF908A588337811A033701079E
S315000023A0B71500009306011AB307F70013060400D9
S315000023B09385F5B0138504002338F106EF20D0404D
S315000023C0E314053E83360116130710008337011AFE
S315000023D06368D70E03378107B71500009306811A85
S315000023E0B307F70013060400938525B1138504008F
S315000023F0233CF106EF20503D93060500E318053C0B
S3150000240003360116130710008337811A6376C70453
S315000024100339011A6306090213850700EFF0192E26
S31500002420130B050013050900EFF0592D9305050060
S3150000243013050B00EFE0D930EFF0991D9B06050060
S31500002440B7E50C00130604009385858713850900FC
S31500002450EF90CA4C8337811A03370108B71500007D
S315000024609306811AB307F70013060400938505B196
S31500002470138504002330F108EF201035E3120536EA
S31500002480833B0116930710008336811A63EA7705AA
S3150000249083378108B387D7002334F1086FF08FC4E0
S315000024A0B7D50C00938607001306040093850573C1
S315000024B013850900EF908A468337011A6FF0DFE52E
S315000024C0B7E50C0093860700130604009385058183
S315000024D013850900EF908A448337011A6FF09FEF46
S315000024E0B7E50C00130604009385858E1385090055
S315000024F0EF90CA42833781088336811A833B0116DF
S31500002500B387D7002334F1086FF0CFBD3719000029
S315000025109306811A130604009305C9B013850400B7
S31500002520EF20902AE318054C0337810B8337811A75
S315000025309306811A13060400B307F7009305D9B072
S3150000254013850400233CF10AEF201028E316054CFE
S315000025500337010B8337811A9306811A1306040089
S31500002560B307F7009305E9B0138504002338F10A91
S31500002570EF209025E31A05540337010C8337811A9F
S315000025809306811A13060400B307F7009305F9B002
S31500002590138504002330F10CEF201023E31A0556AF
S315000025A00337810C8337811A9306811A13060400B8
S315000025B0B307F700930509B1138504002334F10C22
S315000025C0EF209020E31405520337010D8337811A5B
S315000025D09306811A13060400B307F700930519B191
S315000025E0138504002338F10CEF20101EE314055464
S315000025F00337810D8337811AB307F700233CF10CAB
S31500002600631404006FF00F9D6FF08FAD130500008B
S3150000261093070000930C0000130D00006FF05FC0DD
S3150000262093068119130604009305B9B113850400B6
S31500002630EF209019E314052A9306011A13060400E5
S315000026409305C9B113850400EF201018E31A052A73
S315000026509306811A130604009305D9B11385040065
S31500002660EF209016130B0500E310052E833B81190E
S315000026700335011A0339811A3385AB003309250165
S31500002680630A0902EFF09907130B05001305090009
S31500002690EFF0D9069305050013050B00EFE0590A84
S315000026A0B7270E0083B587D1EFE0D969EFF04976F9
S315000026B01B0B0500B7E50C0093860B001306040000
S315000026C09385859E13850900EF904A258336011A66
S315000026D0B7E50C0013060400938585A01385090051
S315000026E0EF90CA238336811AB7E50C0013070B0057
S315000026F013060400938585A213850900EF900A222C
S3150000270083378109639407006FF04F8B37190000F8
S315000027109306811913060400930539B01385040046
S31500002720EF20900AE31005209306011A1306040011
S31500002730930549B013850400EF201009E31A052814
S315000027409306811A13060400930559B013850400F5
S31500002750EF209007930B0500E31C0524033C811929
S31500002760833C011A1309000063040C0413850C0052
S31500002770EFF0C9781309050013050C00EFF009788E
S315000027809305050013050900EFE0897BB7270E00C6
S315000027909305050003B507D2EFF00916B7270E001B
S315000027A083B587D1EFE0195AEFF089661B0905005A
S315000027B0033B811A338B6C01630C0B0213850C00EF
S315000027C0EFF0C973930B050013050B00EFF00973C7
S315000027D09305050013850B00EFE08976B7270E00F9
S315000027E083B587D1EFE01956EFF089629B0B0500A0
S315000027F0B7E50C0093060C0013060400938585B418
S3150000280013850900EF908A118336011AB7E50C008B
S315000028101307090013060400938585B6138509007E
S31500002820EF90CA0F8336811AB7E50C0013870B00A9
S3150000283013060400938505BA13850900EF900A0E66
S315000028408337010A639407006FE01FF83719000009
S315000028509306011813060400930569B01385040056
S31500002860EF208076E3140512930681181306040000
S31500002870930579B013850400EF200075E316050E65
S315000028809306011913060400930589B01385040005
S31500002890EF208073E316051C9306811913060400C6
S315000028A0930599B013850400EF200072E31805180C
S315000028B09306011A130604009305A9B013850400B4
S315000028C0EF208070E310051E9306811A130604009C
S315000028D09305B9B013850400EF20006F130B0500B4
S315000028E0E312051A833B011803390119130D000081
S315000028F063840B0413050900EFF04960130C05000F
S3150000290013850B00EFF0895F9305050013050C0096
S31500002910EFE00963B7270E009305050003B507D25C
S31500002920EFE0997DB7270E0083B587D1EFE0994197
S31500002930EFF0094E1B0D0500033C81180337811982
S31500002940930C000063080C04130507002334E10E02
S31500002950EFF0C95A930C050013050C00EFF0095A65
S315000029609305050013850C00EFE0895DB7270E007F
S315000029709305050003B507D2EFE01978B7270E00D7
S3150000298083B587D1EFE0193CEFF089480337810E14
S315000029909B0C05008337011A33858B01130C00004D
S315000029A0B307F5002334F10E638007042338E10EE4
S315000029B0EFF0C9548337810E130C05001385070009
S315000029C0EFF0C9539305050013050C00EFE04957D6
S315000029D0B7270E0083B587D1EFE0D936EFF049432C
S315000029E00337010F1B0C05003305E9000339811A73
S315000029F033092501630A0902EFF04950130B05005C
S31500002A0013050900EFF0894F9305050013050B0028
S31500002A10EFE00953B7270E0083B587D1EFE099326F
S31500002A20EFF0093F1B0B0500B7E50C0093860B0082
S31500002A3013060400938585DB13850900EF801A6E63
S31500002A4083368118B7E50C0013060400938585DDEF
S31500002A5013850900EF809A6C83360119B7E50C00DF
S31500002A6013070D0013060400938505E0138509007E
S31500002A70EF80DA6A83368119B7E50C0013870C00FC
S31500002A8013060400938585E313850900EF801A6910
S31500002A908336011AB7E50C0013070C001306040071
S31500002AA0938505E713850900EF805A678336811AF7
S31500002AB0B7E50C0013070B0013060400938505EB1E
S31500002AC013850900EF809A656FE01FD0130B050090
S31500002AD013060500B7E50C0037D50C009385853045
S31500002AE013058507EFC0CA2913090B006FE09FB3D2
S31500002AF0930B050013060500B7D50C0037D50C005F
S31500002B009385052313058507EFC08A2713890B00D4
S31500002B106FE05FB1930B050013060500B7D50C00F7
S31500002B2037D50C009385052713058507EFC04A2581
S31500002B3013890B006FE01FAF638A0D5613850D00D6
S31500002B40EFF0C93B1304050003358101B7240E00DD
S31500002B50EFF0C93A93050400EFE0893E83B584D1CE
S31500002B60EFE0591EEFF0C92A9B0C05000335010260
S31500002B70EFF0C93893050400EFE0893C83B584D1B2
S31500002B80EFE0591CEFF0C9281B0C05000335810244
S31500002B90EFF0C93693050400EFE0893A83B584D196
S31500002BA0EFE0591AEFF0C9269B0B050003358104A7
S31500002BB0EFF0C93493050400EFE0893883B584D17A
S31500002BC0EFE05918EFF0C9241B0B05000335010689
S31500002BD0EFF0C93293050400EFE0893683B584D15E
S31500002BE0EFE05916EFF0C9221B0A0500033D8106E6
S31500002BF09304000063060D0203350107EFF0093068
S31500002C001304050013050D00EFF0492F9305050089
S31500002C1013050400EFE0C932EFF0891F9B0405009D
S31500002C20033D81071304000063060D020335010806
S31500002C30EFF0C92C1304050013050D00EFF0092C65
S31500002C409305050013050400EFE0892FEFF0491CFA
S31500002C501B0405000337810383370103033D010588
S31500002C60833D810503380104B387E70003368101FC
S31500002C70B387A701B7E50C00B387B70193860C00AD
S31500002C809385853713850900B38C0701EF801A49B0
S31500002C9003360102B7E50C0093060C009385053A4E
S31500002CA013850900EF809A4703368102B7E50C00C9
S31500002CB093860B009385853C13850900EF801A46A1
S31500002CC063820C4013850C00EFF04923930B05003B
S31500002CD013050D00EFF0892293850B00372C0E00AB
S31500002CE0EFE0092683358CD1EFE0D905EFF04912E4
S31500002CF09B0C050013850D00EFF0492093850B0012
S31500002D00EFE0092483358CD1EFE0D903EFF04910C9
S31500002D101B0D050003350104EFF0491E93850B00DA
S31500002D20EFE0092283358CD1EFE0D901EFF0490EAF
S31500002D309B0D050003358103EFF0491C93850B00BD
S31500002D40EFE0092083358CD1EFE0C97FEFF0490C25
S31500002D509B08050003350103233C1101EFF0091A16
S31500002D6093850B00EFE0C91D83358CD1EFE0897D9B
S31500002D70EFF0090A833881019B06050003368104BA
S31500002D80B7E50C0013880D0093070D0013870C00A0
S31500002D902330D1009385053F93060B001385090068
S31500002DA0EF80DA3703360106B7E50C0093060A0012
S31500002DB09385054513850900EF805A36033681064B
S31500002DC0B7E50C009385854713850900EF801A3512
S31500002DD003368107B7E50C0093850549138509007D
S31500002DE0EF80DA3303368108B7E50C009385854A10
S31500002DF013850900EF809A32B7E50C0013860400AC
S31500002E009385054C13850900EF805A31B7E50C0010
S31500002E10130604009385054E13850900EF801A30CA
S31500002E206FE09FF8B7D50C00130605002338A10004
S31500002E309385852B37D50C0013058507EFB05A749B
S31500002E4003370101130907006FE0CFFDB7D50C006A
S31500002E50130605002338A100938585336FF09FFD87
S31500002E60B7D50C00130605002338A1009385853BD2
S31500002E706FF05FFC930B050013060500B7D50C0039
S31500002E8037D50C009385854313058507EFB05A6F38
S31500002E9013890B006FE00FF9930B0500130605006D
S31500002EA0B7D50C0037D50C009385854813058507E3
S31500002EB0EFB01A6D13890B006FE0CFF6930B050088
S31500002EC013060500B7D50C0037D50C009385054DC4
S31500002ED013058507EFB0DA6A13890B006FE08FF4EC
S31500002EE0930B050013060500B7D50C0037D50C006B
S31500002EF09385855113058507EFB09A6813890B00F2
S31500002F006FE04FF2930B050013060500B7D50C00D2
S31500002F1037D50C009385055613058507EFB05A661D
S31500002F2013890B006FE00FF013060500B7D50C00F0
S31500002F3037D50C009385055B13058507EFB05A64FA
S31500002F4013890B006FE00FEEB7D50C0013060500D2
S31500002F502338A100938585666FF0DFED130B05001E
S31500002F6013060500B7D50C0037D50C009385856E82
S31500002F7013058507EFB0DA6013090B006FE08FEADF
S31500002F80B7D50C00130605002338A10093850575F7
S31500002F9037D50C0013058507EFB09A5E833601011D
S31500002FA0138906006FE00FE8130B050013060500F2
S31500002FB0B7D50C0037D50C009385857C130585079E
S31500002FC0EFB01A5C13090B006FE0CFE5B7E50C0014
S31500002FD0130605002338A100938505836FF05FFB78
S31500002FE0130B050013060500B7E50C0037D50C00DA
S31500002FF09385058A13058507EFB09A5813090B00C8
S315000030006FE04FE2233C010C2338010C2334010C02
S315000030102330010C2338010A233C010A233001081E
S315000030202338010623340108233C01062334010614
S3150000303023380102233C010223300104233C01040E
S31500003040233801042330010623340104233401020A
S3150000305023300102233C0100930D0000930A000077
S315000030606FE09F91930B050013060500B7E50C0072
S3150000307037D50C009385052C13058507EFB05A50FC
S3150000308013890B006FE00FDA930B0500130605009A
S31500003090B7E50C0037D50C00938585271305850702
S315000030A0EFB01A4E13890B006FE0CFD7130A00005A
S315000030B0930C0000130C0000930B0000130B000090
S315000030C06FF0DFB293060000930C0000130D0000B2
S315000030D0930D0000930800006FF05FCA930B050084
S315000030E013060500B7E50C0037D50C0093858590CF
S315000030F013058507EFB0DA4813890B006FE08FD20E
S31500003100930B050013060500B7E50C0037D50C0038
S315000031109385059513058507EFB09A4613890B002D
S315000031206FE04FD0930B050013060500B7E50C00C2
S3150000313037D50C00938505A613058507EFB05A44CD
S3150000314013890B006FE00FCE13060500B7E50C00E0
S3150000315037D50C009385859913058507EFB05A423C
S3150000316013090B006FE00FCC930B05001306050047
S31500003170B7E50C0037D50C00938585C21305850786
S31500003180EFB01A4013890B006FE0CFC9930B05000F
S3150000319013060500B7E50C0037D50C00938505BE70
S315000031A013058507EFB0DA3D13890B006FE08FC773
S315000031B013060500B7E50C0037D50C00938585AFDF
S315000031C013058507EFB0DA3B13890B006FE08FC557
S315000031D0930B050013060500B7E50C0037D50C0068
S315000031E0938585AA13058507EFB09A3913890B00D5
S315000031F06FE04FC3930B050013060500B7E50C00FF
S3150000320037D50C00938505EF13058507EFB05A37C0
S3150000321013890B006FE00FC1930B05001306050021
S31500003220B7E50C0037D50C00938505F31305850724
S31500003230EFB01A3513890B006FE0CFBE930B050074
S3150000324013060500B7E50C0037D50C00938585CC31
S3150000325013058507EFB0DA3213890B006FE08FBCD8
S31500003260930B050013060500B7E50C0037D50C00D7
S31500003270938585C713058507EFB09A3013890B0030
S315000032806FE04FBA13060500B7E50C0037D50C0002
S31500003290938585D613058507EFB09A2E13090B0083
S315000032A06FE04FB8930B050013060500B7E50C0059
S315000032B037D50C00938585D113058507EFB05A2CB9
S315000032C013890B006FE00FB6930B0500130605007C
S315000032D0B7E50C0037D50C00938505F71305850770
S315000032E0EFB01A2A13890B006FE0CFB3930B0500DA
S315000032F013060500B7E50C0037D50C00938505FFCE
S3150000330013058507EFB0DA2713890B006FE08FB13D
S31500003310930B050013060500B7E50C0037D50C0026
S31500003320938505FB13058507EFB09A2513890B00D6
S315000033306FE04FAF130B050013060500B7E50C0051
S3150000334037D50C009385850313058507EFB05A23FF
S3150000335013090B006FE00FAD930B05001306050074
S31500003360B7E50C0037D50C009385050D13058507C9
S31500003370EFB01A2113890B006FE0CFAA930B05005B
S3150000338013060500B7E50C0037D50C009385050834
S3150000339013058507EFB0DA1E13890B006FE08FA8BF
S315000033A0130B050013060500B7E50C0037D50C0016
S315000033B09385052213058507EFB09A1C13090B00A8
S315000033C06FE04FA6930B050013060500B7E50C004A
S315000033D037D50C009385851C13058507EFB05A1A5F
S315000033E013890B006FE00FA4930B0500130605006D
S315000033F0B7E50C0037D50C0093850517130585072F
S31500003400EFB01A1813890B006FE0CFA1930B0500DC
S3150000341013060500B7E50C0037D50C009385051299
S3150000342013058507EFB0DA1513890B006FE08F9F40
S31500003430130101FA23349104233C310393840500DC
S315000034409309060093052000130681002330210509
S31500003450233C1104233881042338410323345103C8
S3150000346013090500EF009011630405041304050019
S3150000347013060500B7E50C0037D50C009385057BD0
S3150000348013058507EFB0DA0F8330810513050400B5
S31500003490033401058334810403390104833981032C
S315000034A0033A0103833A8102130101066780000093
S315000034B0130601019305100013050900EF00100C17
S315000034C01304050063100506033A8100833A0101DF
S315000034D03B065A0363649608E38809FA13068101DA
S315000034E09305600013050900EF0050091304050059
S315000034F063180504939704021387FAFF93D707020C
S31500003500B307F700B3D757039B870700335AFA026E
S31500003510833781011B0A0A0033DA470323A04901D6
S315000035206FF09FF613060500B7E50C0037D50C00C3
S315000035309385057F13058507EFB09A046FF0DFF4D6
S3150000354013060500B7F50C0037D50C0093850588E2
S3150000355013058507EFB0DA026FF01FF337F50C009D
S315000035609385040013050583EFB09A011304F0FF59
S315000035706FF09FF1130101DB2334112423308124E2
S31500003580233C912223382123233431232330412322
S31500003590233C512123386121233471212330812199
S315000035A06302052E93840500638E052C130B06001B
S315000035B0630A062C930A05001305810FEF40544653
S315000035C0B7470D009387073203B48700231C011CFD
S315000035D083BB0701833784FE37590D00130909465B
S315000035E013070120B307F700233C210F2338011CE2
S315000035F02330011E2334011E2338011E233C011EE5
S31500003600233C810023BC77E123300102033584FE8D
S3150000361093078101930500003385A700EF40C41E80
S31500003620374A0D00B7490D00130A8A3593890938C0
S3150000363013058102233C4101233C310FEFA0530DBA
S31500003640930581021305810FEF40041C13068000C9
S315000036509385040013058102EFB00344833781018B
S315000036601307810183B787FEB307F7006306051CBE
S315000036709305000013850700EF301422832781117C
S3150000368093F75700639C071213062000930500006A
S3150000369013058101EF80843F13058101EF80841AB1
S315000036A02334A1002338B100930405006340051EAE
S315000036B0630E0518EF30501C1386040093050000B6
S315000036C0130C0500EFB00A50130600009305000026
S315000036D013058101EF80843B1386040093050C00DB
S315000036E013058101EF70143893060B00138604004E
S315000036F093050C0013850A00EFD0DFD8930405006C
S315000037006310050A63060C0013050C00EF20501227
S31500003710B7470D009387072613058102233C410115
S31500003720233C310F2334F102EFB0430813050107A0
S31500003730EF309067B7770D00938787A913050106C9
S315000037402334F102EF500046833784FE130701202D
S31500003750233C8100B307F70023BC77E11305810FF3
S3150000376023300102233C210FEF40D45783308124BC
S31500003770033401240339012383398122033A0122C8
S31500003780833A8121033B0121833B8120033C0120B5
S31500003790138504008334812313010125678000000B
S315000037A013060500B7F50C0037D50C009385059177
S315000037B013058507EFB0CA5C6FF0DFF4B7CA1000D7
S315000037C0B7F50C00130670009385058C13858AB433
S315000037D0EFF0052013850400EFE0DA741306050008
S315000037E09385040013858AB4EFF0851EB7F50C00A7
S315000037F01306A0009385858C13858AB4EFF0451DCA
S3150000380013878AB48337070083B787FEB387E70039
S3150000381083B4070F6382040883C78403638C07029B
S3150000382083C5340413858AB4EFE01559EFE0053EED
S315000038309304F0FF6FF0DFED83A507021385070001
S3150000384093E54500EF3054056FF05FE3130C00007D
S315000038506FF09FE713850400EF70417403B704000F
S31500003860B74700009387C7CC033707039305A0002B
S31500003870E30AF7FA13850400E7000700930505003D
S315000038806FF05FFA9304F0FF6FF05FEE37F50C0010
S315000038901305858DEFC09FC7EFC09FB113040500C8
S315000038A01305810F233C210FEF40D4431305040079
S315000038B0EF309A1193070500033784FE233C8100FD
S315000038C01384070093070120B387E70023BC77E141
S315000038D0233001026FF0DFFC1304050063060C00C1
S315000038E013050C00EF20C07413058101EFB0036CC3
S315000038F013050400EF305A0DEF208074EF20C07DD1
S315000039006FF0DFE2130405006FF01FFE930405005D
S3150000391013058102EFA0D37C938704006FF0DFF9D3
S31500003920130101DB2334112423308124233C91220B
S31500003930233821232334312323304123233C5121AF
S315000039402338612123347121233081216302052E1E
S3150000395093840500638E052C130B0600630A062C60
S31500003960930A05001305810FEF40940BB7470D002E
S315000039709387073203B48700231C011C83BB07010E
S31500003980833784FE37590D001309094613070120B2
S31500003990B307F700233C210F2338011C2330011EF7
S315000039A02334011E2338011E233C011E233C8100C3
S315000039B023BC77E123300102033584FE930781019E
S315000039C0930500003385A700EF301464374A0D00D5
S315000039D0B7490D00130A8A35938909381305810200
S315000039E0233C4101233C310FEFA083529305810212
S315000039F01305810FEF305461130680009385040090
S31500003A0013058102EFB04309833781011307810152
S31500003A1083B787FEB307F7006306051C930500000E
S31500003A2013850700EF3044678327811193F757000A
S31500003A30639C0712130620009305000013058101FD
S31500003A40EF80C40413058101EF70D45F2334A10015
S31500003A502338B100930405006340051E630E051864
S31500003A60EF3080611386040093050000130C0500F7
S31500003A70EFB04A15130600009305000013058101F7
S31500003A80EF80C4001386040093050C001305810122
S31500003A90EF70447D93060B001386040093050C001B
S31500003AA013850A00EFD05F89930405006310050AA9
S31500003AB063060C0013050C00EF208057B7470D0076
S31500003AC09387072613058102233C4101233C310FCE
S31500003AD02334F102EFA0934D13050107EF30D02CEC
S31500003AE0B7770D00938787A9130501062334F102E2
S31500003AF0EF50400B833784FE13070120233C8100DF
S31500003B00B307F70023BC77E11305810F23300102C9
S31500003B10233C210FEF40141D8330812403340124FC
S31500003B200339012383398122033A0122833A812111
S31500003B30033B0121833B8120033C012013850400C4
S31500003B4083348123130101256780000013060500D5
S31500003B50B7F50C0037D50C009385859413058507BA
S31500003B60EFB00A226FF0DFF4B7CA1000B7F50C0009
S31500003B70130670009385058C13858AB4EFE05565AE
S31500003B8013850400EFE01A3A130605009385040036
S31500003B9013858AB4EFE0D563B7F50C001306A000D1
S31500003BA09385858C13858AB4EFE0956213878AB472
S31500003BB08337070083B787FEB387E70083B4070F11
S31500003BC06382040883C78403638C070283C53404B5
S31500003BD013858AB4EFE0551EEFE045039304F0FF2A
S31500003BE06FF0DFED83A507021385070093E5450017
S31500003BF0EF30844A6FF05FE3130C00006FF09FE72D
S31500003C0013850400EF70813903B70400B74700003D
S31500003C109387C7CC033707039305A000E30AF7FA97
S31500003C2013850400E7000700930505006FF05FFAAF
S31500003C309304F0FF6FF05FEE37F50C001305858DEA
S31500003C40EFC0DF8CEFC0CFF6130405001305810F1C
S31500003C50233C210FEF40140913050400EF30CA5628
S31500003C6093070500033784FE233C81001384070075
S31500003C7093070120B387E70023BC77E123300102D5
S31500003C806FF0DFFC1304050063060C0013050C003F
S31500003C90EF20003A13058101EFB04331130504000C
S31500003CA0EF308A52EF20C039EF2000436FF0DFE299
S31500003CB0130405006FF01FFE93040500130581022F
S31500003CC0EFA01342938704006FF0DFF91385050018
S31500003CD06780000067800000130101FF2334110094
S31500003CE0EF609A4483308100B7470F00938707241B
S31500003CF03305F5021301010167800000130101FD80
S31500003D00233C9100930405002330810223382101CE
S31500003D10233431012334110293890500EF60DA4020
S31500003D2003B40400B7D79A3B938707A03304F40281
S31500003D3083B78400B7440F00130905009384042455
S31500003D403304F400EF605A3EB3072541B387970268
S31500003D50E3EA87FE6386090023B0090023B409005D
S31500003D608330810203340102833481010339010166
S31500003D70833981001301010367800000630C050A83
S31500003D809307700063ECB70AB7F70C009387072018
S31500003D9093952500B385F50083A705006780070086
S31500003DA0034755069307100013050000B397E70075
S31500003DB02330F60067800000833785061305000070
S31500003DC02330F600678000008347050613050000D0
S31500003DD02330F600678000008347150613050000B0
S31500003DE02330F60067800000834725061305000090
S31500003DF02330F600678000008337050613050000B0
S31500003E0093D787019397070393D707032330F600C9
S31500003E1067800000930700042330F60013050000B6
S31500003E206780000083370507130500002330F6007E
S31500003E30678000001305F0FF6780000083B701026A
S31500003E4013860500B7F50C0003B58701130101FFC2
S31500003E509385859823341100EF705A2CEF605A151C
S31500003E6063080510130101FE23388100033485031E
S31500003E7023349100233C110093040500630A0400D7
S31500003E801305040003340400EF20801AE31A04FE2D
S31500003E9003B6040303B58402930500001316360027
S31500003EA0EFA05A5203B5840223B0040423BC0402D3
S31500003EB0938784056304F500EF20801703B404029A
S31500003EC0630A0400832784001B87F7FF2324E4008A
S31500003ED06306070603B4040163020404832784000F
S31500003EE01B87F7FF2324E400631A070283370400C5
S31500003EF01305040083B70701E78007008327C40082
S31500003F001B87F7FF2326E400631A070083370400A4
S31500003F101305040083B78701E780070013850400B3
S31500003F20EF200011833081010334010183348100C5
S31500003F3013050000130101026780000083370400A7
S31500003F401305040083B70701E78007008327C40031
S31500003F501B87F7FF2326E400E31E07F683370400DA
S31500003F601305040083B78701E78007006FF09FF60B
S31500003F701305F0FF678000006308053A130101FB93
S31500003F80233471012334110423308104233C91022C
S31500003F90233821032334310323304103233C5101C9
S31500003FA02338610123308101938B0600638C06342C
S31500003FB0138B050063880534033A85009384F5FF67
S31500003FC0930A050083674A0103368A01B384F40025
S31500003FD0B307F040B3F4F400630A0622130906009F
S31500003FE0833789026384070E03B7870363789700D4
S31500003FF06F00C00D03B7870363689700138407003B
S3150000400083B70700E39807FE0336840103370401EC
S31500004010033C84038339040383368400630606283D
S315000040202338E6000337040163040700233CC70076
S3150000403023380400233C04006386061C23B0F600E4
S31500004040833704006384070023B4D700836789019C
S31500004050330C9C402330040023340400637CFC0EA4
S31500004060833709022330F4026384070023B48702EE
S3150000407083378A022330890213058001B3849700AF
S3150000408023349A02EF20507F233055012334350123
S315000040902338650123B0AB0013050000833081048B
S315000040A00334010483348103033901038339810214
S315000040B0033A0102833A8101033B0101833B8100FC
S315000040C0033C010013010105678000000339090064
S315000040D0E31809F083670A0183390A00138CF7FF96
S315000040E0330C9C00B307F040337CFC00833786001A
S315000040F033073C0163F8E7128339060103360600ED
S31500004100B3893701E31406FE83378A0033878901B2
S3150000411063FAE71037F50C001305059BEFA09A7CB0
S3150000412037D40C00B7F50C001306F0FF9385859C79
S3150000413013058407EFA0DA44B7F50C001306F0FF69
S315000041409385059F13058407EFA09A431305F0FF97
S315000041506FF0DFF4233C940213050004EF20D071C6
S3150000416083370903B389340123300500233405005E
S3150000417023380500233C05002330050223340502BD
S3150000418023383503233C8503638C07189306000008
S315000041906F00400103B70701938607006306071403
S315000041A09307070003B70703E36637FF2338F500D5
S315000041B0233CD5006380061423B8A60023BCA700C1
S315000041C08337890263840714930600006F00400159
S315000041D003B7070093860700630E070E93070700D1
S315000041E003B78703E366ECFE2330F5002334D500DE
S315000041F06386061023B0A6008339040323B4A70000
S315000042006FF01FE62334F9026FF0DFE383670A01DC
S3150000421083390A00138CF7FF330C9C00B307F04078
S31500004220337CFC0013058003EF20106583274A01C9
S315000042301309050023300500233435012338850191
S31500004240232CF5002330050213050004EF20D0626D
S3150000425083378A01233005002334050023380500FF
S31500004260233C050023300502233405022338350399
S31500004270233C85032338A9022334A902130405002D
S31500004280638807008336890003B7870063F8E60270
S315000042902330F900233C2A01636C9C089307000035
S315000042A093060000130700002338E90213060000F6
S315000042B06FF09FD703B787006378D7001386070090
S315000042C083B70700E39807FE2330F9002330260161
S315000042D06FF09FFC233005002334F5008339040377
S315000042E023B0A7006FF0DFD7233CF50023B8A70063
S315000042F06FF01FED2338A9026FF05FEC2334A9029B
S315000043006FF09FEF1305F0FF6FF05FD923300500C4
S3150000431023340500833904032334A9026FF05FD4E4
S315000043202338A9026FF0DFE91305F0FF678000006C
S31500004330833780017300100013040500130509007C
S31500004340EF10104F13050400EF201A68630A0532B8
S31500004350130101FB2334710123341104233081043A
S31500004360233C9102233821032334310323304103B4
S31500004370233C51012338610123308101930B07004F
S31500004380630A072C130B06006306062C033A850006
S315000043909309F6FF930A050083670A0103378A002B
S315000043A013840500B389F900B307F040B3F9F900A7
S315000043B0B38435016360972C83378A0163900702C3
S315000043C06F0000086366040363F49606637298023E
S315000043D063F0860283B707006384070683B6870007
S315000043E003B8070133880601E37ED4FC63F4960420
S315000043F037F50C00130505AAEFA0DA4E37D40C00EA
S31500004400B7F50C001306F0FF938585A41305840702
S31500004410EFA01A17B7F50C001306F0FF938505A752
S3150000442013058407EFA0DA151305F0FF6F00400EA1
S31500004430E3E286FAE3FE04FB83B70700E39007FA9C
S3150000444013058003EF20504383274A01130C050010
S315000044501305000423300C0023348C0023383C0160
S31500004460232CFC0023300C02EF20104183378A01F5
S31500004470233005002334050023380500233C0500BE
S31500004480233005022334050223388502233C3503F5
S315000044902338AC022334AC021309050063880700F5
S315000044A083368C0003B7870063F0E60A2330FC00EE
S315000044B083278C01233C8A0123380C022338090008
S315000044C0233C090023340C0223300900233409005D
S315000044D06386070A83370C022330F90263840700D8
S315000044E023B4270383378A0223302C031305800164
S315000044F0B389370123343A03EF20103823305501AE
S31500004500233485002338650123B0AB001305000072
S3150000451083308104033401048334810303390103A6
S3150000452083398102033A0102833A8101033B010187
S31500004530833B8100033C01001301010567800000F5
S3150000454003B787006378D7001386070083B7070091
S31500004550E39807FE2330FC0083278C012330860175
S3150000456023380C0223380900233C090023340C02AB
S315000045702330090023340900E39E07F413050004E1
S31500004580233C3903EF20502F83370C0323300500DB
S315000045902334050023380500233C0500233005029B
S315000045A02334050223389502233C05026380070C59
S315000045B0930600006F00400103B7070193860700CA
S315000045C0630207069307070003B70703E36697FE30
S315000045D02338F500233CD5006384060623B8A600DD
S315000045E023BCA70083378C02638A07069306000064
S315000045F06F00400103B7070093860700630A0702AE
S315000046009307070003B78703E31607FE2330F50079
S315000046102334D500638A060223B0A60023B4A7007C
S315000046206FF05FEB233CF50023B8A7006FF09FFB0C
S31500004630233005002334F50023B0A7006FF09FE96F
S315000046402338AC026FF0DFF92334AC0223B4A700A1
S315000046506FF05FE81305F0FF6FF09FEB2330050066
S31500004660233405002334AC026FF0DFE62338AC02B6
S315000046706FF05FF737F50C00130505A26FF0DFD773
S315000046801305F0FF678000001304050013050C00F6
S31500004690EF10101A13050400EF201A33130101FD61
S315000046A02330810223341102233C91002338210157
S315000046B02334310113040000630C0506833705001B
S315000046C0033785009304050003B987000334890185
S315000046D06304040883378400636CF7068336040199
S315000046E0B387D7006376F70683350402639805001F
S315000046F06F00000683B50502638C050483B70503C6
S31500004700E31AF7FE1305040083B98503EF1040236F
S3150000471083370402638E070483378902130400007B
S31500004720B38737412334F90213850400EF10501084
S3150000473083308102130504000334010283348101AE
S3150000474003390101833981001301010367800000E9
S3150000475003340400E31004F837F50C009305070052
S31500004760130585ADEFA0CA611304F0FF6FF0DFFB00
S3150000477083378901638E0700639687006F00800385
S31500004780638487021387070083B70700E39A07FE4F
S315000047900335040363040500EF10900913050400B4
S315000047A0EF1010096FF05FF7833704002330F7002E
S315000047B06FF01FFE83370400233CF9006FF05FFDA6
S315000047C0630A0500833785001305000023B0F50052
S315000047D0678000001305F0FF67800000930705005F
S315000047E0630A0502638C05008336850003B78600DD
S315000047F083B686023307D74023B0E50013050000D1
S31500004800630C060083B7870083B787022330F60060
S31500004810678000001305F0FF67800000130101F7B1
S315000048202334110823308108233C910623382107BD
S315000048302334310723304107233C510523386105D2
S315000048402334710523308105233C91032338A103CA
S315000048502334B1036302052837B41000834704C626
S31500004860130A0500938A05006386071A37B71000F6
S31500004870833787C59306100093851700233CB7C47A
S31500004880638ED50A93074006B3F7F5026388070AD5
S31500004890B74B0F00938A1A0093091000130B000000
S315000048A0130CF0FF37FD0C0013890B24B7FD0C0029
S315000048B0130681009305400113050A002334010005
S315000048C0EF104047130405006312051A03368100F2
S315000048D09374760063120B089307700C63E237211A
S315000048E06388040E638A5915EF600A0413040500F1
S315000048F09384FB23EF604A03330585403305250384
S31500004900E3FAA4FE6388090093072003B3F7F902CC
S3150000491063860700938919006FF09FF99385090054
S3150000492013850DB3EFA0CA4583B701029389190019
S3150000493003B50701EF608A766FF09FF737F50C0035
S31500004940130585B0EFA0CA4383B7010203B507017B
S31500004950EF60CA746FF0DFF39307803EB3F7F90296
S3150000496063840700E30E86F713060101930500032F
S3150000497013050A0023380100233C0100EF10803B99
S31500004980631E0512130681019305400313050A00F1
S31500004990EF10403A63160510033681000338810193
S315000049A08337010113B71400938604009385090029
S315000049B013058DBEEFA0CA3C83B7010203B50701FC
S315000049C0EF60CA6D03368100130C0600E39C04F009
S315000049D0631A0B08833081081305040003340108A9
S315000049E0833481070339010783398106033A0106B7
S315000049F0833A8105033B0105833B8104033C0104A3
S31500004A00833C8103033D0103833D810213010109B8
S31500004A106780000083B7010293060000130620009A
S31500004A2003B5070193050000EFB04A4A930710004B
S31500004A302300F4C66FF09FE313070000E30C0BF8A6
S31500004A4037F50C009386040093850900130505C30A
S31500004A50EFA00A3383B7010203B50701EF600A64CA
S31500004A606FF05FF7130710006FF09FFDB7D40C00CF
S31500004A70B7F50C0013060500938505B51385840765
S31500004A80EFA00A30B7F50C001306F0FF938585B743
S31500004A9013858407EFA0CA2E1304F0FF6FF09FF36F
S31500004AA0B7F70C00938507B5B7D70C0013060500BA
S31500004AB013858707EFA0CA2C6FF01FEEB7F70C001F
S31500004AC0938507B5B7D70C0013060500138587072E
S31500004AD0EFA00A2B6FF01FEB1304F0FF6FF09FEFB0
S31500004AE0B7F70C009386040093850900138587BAEF
S31500004AF0EFA00A2983B70102130B100003B50701C3
S31500004B00EF60CA59033C810013060C006FF05FDDAD
S31500004B10130101FC233C1102233881022334910244
S31500004B2023302103233C3101233841012334510131
S31500004B306306051E138405006382051E03370501FF
S31500004B40B307D60083340500636AF71C0339850072
S31500004B50330926019377F9036392071C9386F603BC
S31500004B6083B7040793F906FC3307390163E8E71AAC
S31500004B70376A260593050AC013850400EFF01FCA9D
S31500004B80930A0500631C050893D729006386090A62
S31500004B9093992700B38989003B098940130A0AC003
S31500004BA06F008000630A3409032604009305800021
S31500004BB013850400EF10C016930705003B06890015
S31500004BC0930540001385040013044400639A070804
S31500004BD0EF10001593070500130640009305C0006B
S31500004BE0138504006396070AEF10801393070500E8
S31500004BF01306200093050000138504006392070C3A
S31500004C00EF1000121306050093050A001385040031
S31500004C106310060EEFF09FC0E30605F837D40C00CC
S31500004C20B7F50C001306F0FF938585D813058407A6
S31500004C30EFA00A15930AF0FF8330810303340103C2
S31500004C40833481020339010283398101033A010168
S31500004C5013850A00833A810013010104678000006E
S31500004C6037D40C00B7F50C0013860700938585C86A
S31500004C7013058407EFA0CA10B7F50C001306F0FF62
S31500004C80938505CB13058407EFA08A0F6FF05FF9B4
S31500004C9037D40C00B7F50C0013860700938585C83A
S31500004CA013058407EFA0CA0DB7F50C001306F0FF35
S31500004CB0938505CE13058407EFA08A0C6FF05FF687
S31500004CC037D40C00B7F50C0013860700938585C80A
S31500004CD013058407EFA0CA0AB7F50C001306F0FF08
S31500004CE0938585D213058407EFA08A096FF05FF3D9
S31500004CF037D40C00B7F50C00938585C813058407D7
S31500004D00EFA00A08B7F50C001306F0FF938585D5CA
S31500004D1013058407EFA0CA066FF09FF0930AF0FF11
S31500004D206FF09FF1130101FB23341104233081043A
S31500004D30233C9102233821032334310323304103DA
S31500004D40233C5101638C051E130405006308051EF0
S31500004D5003B70501B307D60083B40500138906001F
S31500004D60636EF71C83B98500B309360193F7F9031F
S31500004D706396071C9387F60303B7040793F707FCAC
S31500004D80B3873701636CF71A376A260593050AC09D
S31500004D9013850400EFF09FA8930A05006310050A27
S31500004DA013592900630A090A131929003309240132
S31500004DB0BB898940130A0AC06F00C001EF009077D3
S31500004DC0631605148337810013044400232EF4FE72
S31500004DD0630489083B868900930540001385040017
S31500004DE0EF00107493070500130640009305C000FA
S31500004DF01385040063960708EF0090729307050079
S31500004E001306100093050000138504006392070A39
S31500004E10EF0010711306050093050A0013850400C0
S31500004E206310060CEFF09F9F9307050013068100A1
S31500004E309305000113850400E38207F837D40C00BC
S31500004E40B7F50C001306F0FF938585E1130584077B
S31500004E50EF901A73930AF0FF833081040334010440
S31500004E60833481030339010383398102033A010242
S31500004E7013850A00833A810113010105678000004A
S31500004E8037D40C00B7F50C0013860700938585C848
S31500004E9013058407EF90DA6EB7F50C001306F0FFE2
S31500004EA0938505CE13058407EF909A6D6FF05FF931
S31500004EB037D40C00B7F50C0013860700938585C818
S31500004EC013058407EF90DA6BB7F50C001306F0FFB5
S31500004ED0938585D213058407EF909A6A6FF05FF683
S31500004EE037D40C00B7F50C00938585C813058407E5
S31500004EF0EF901A69B7F50C001306F0FF938505DCF1
S31500004F0013058407EF90DA676FF09FF337D40C0030
S31500004F10B7F50C0013060500938505B51305840740
S31500004F20EF901A66B7F50C001306F0FF938505DFC0
S31500004F3013058407EF90DA646FF09FF0930AF0FF91
S31500004F406FF09FF1630E0504630C060483380503B6
S31500004F509397050293D70702B3F717030337850222
S31500004F60939637003307D70003380700630A080211
S31500004F7003370800832687006388D50203350700B8
S31500004F8013080700630E0500832685001307050036
S31500004F90139506021355050233751503E38EA7FC18
S31500004FA01305F0FF6780000083370800E38A07FED9
S31500004FB083A7C700130500002320F60067800000C2
S31500004FC01305000067800000630A05006388060079
S31500004FD023B0060013050000678000001305F0FFEC
S31500004FE067800000130101FA233C11042338810471
S31500004FF02334910423302105233C31032338410314
S315000050002334510323306103630805249384050088
S31500005010130A0600138605009305400013040500D5
S31500005020139B0402EF00D04F135B0B0263180518A5
S3150000503013060A009305800013050400EF00504E86
S315000050406318051A130640009305000013050400B3
S31500005050EF00104D930905006316051C8335040304
S31500005060833784023375BB02931A3500B387570121
S3150000507003B60700630A06068337060003A7870000
S315000050806386E40283B607006380060603A78600EC
S31500005090138607009317070293D70702B3F7B702E1
S315000050A06314F50493870600E39EE4FC8337060049
S315000050B01389C700638A07022320490183308105CB
S315000050C0033401058334810403390104033A0103DF
S315000050D0833A8102033B0102138509008339810368
S315000050E0130101066780000013050001EF10D07858
S315000050F083370405033604048335040313090500C6
S315000051009306100013058404233009002324990014
S31500005110232609002334F100EF10D4562338A100CA
S31500005120233CB1001375F50F631C05020337840297
S31500005130B30A570183B70A006388070483B70700D9
S315000051402330F90083B70A0023B02701833704040C
S315000051501309C900938717002330F4046FF0DFF5B5
S315000051601306810013058402EF005022833A0403DC
S3150000517003378402B37A5B03939A3A00B30A570162
S3150000518083B70A00E39C07FA83378403233C24038E
S315000051902330F900638E070083E787008336040314
S315000051A0B3F7D702939737003307F7002330270169
S315000051B09307840323B0FA006FF05FF937D40C002D
S315000051C0B7F50C0013060500938585C813058407FB
S315000051D0EF901A3BB7F50C001306F0FF938505E533
S315000051E013058407EF90DA399309F0FF6FF01FED8E
S315000051F037D40C00B7F50C0013060500938585C857
S3150000520013058407EF90DA37B7F50C001306F0FFA5
S31500005210938505E813058407EF909A369309F0FF06
S315000052206FF0DFE937D40C00B7F50C001306050064
S31500005230938585C813058407EF909A34B7F50C005B
S315000052401306F0FF938505EB13058407EF905A3399
S315000052509309F0FF6FF09FE69309F0FF6FF01FE6EA
S315000052601304050013050900EF00905C1305040004
S31500005270EF109A75130101FC233C110223388102B9
S315000052802334910223302103233C31012338410189
S315000052902334510123306101630E054413090500CF
S315000052A013058007EF10505DB7F5FF019395750064
S315000052B013040500EF009021930710009394070252
S315000052C02338F40283A701DB9309840513068406B9
S315000052D09305000213050400233404002338040058
S315000052E0233C04002330040223343403233C040209
S315000052F0233004042324F40423380404233C040444
S3150000530023389406EF00D01E6312053813060406F0
S315000053109305800113050400EF00901D6312053A02
S3150000532013050004EF105055B7F60C00938A0635A6
S3150000533037070004B7060100033A04012338D500F5
S3150000534013071700B7F6FF0F938414001306050121
S31500005350939646001317C700233055012334950052
S31500005360233CD5002330E50223340502233C050205
S315000053702334C4002338A400630A0A0083278A0062
S315000053801B87F7FF2324EA0063020716034A540625
S3150000539093041000339A440163FA441937060060F7
S315000053A09305100013050400EFF0DFC39304050016
S315000053B0631C051013060000930520001305040066
S315000053C0EFF05FC293040500630C051E130605008B
S315000053D0B7F50C0037D50C00938585FD13058507B9
S315000053E0EF901A1A03398403630A090013050900AA
S315000053F003390900EF00D043E31A09FE033604031C
S31500005400033584029305000013163600EF908A7B5D
S315000054100335840223300404233C04026384A90078
S31500005420EF00104103390402630A09028327890049
S315000054301B87F7FF2324E90063120702833709005D
S315000054401305090083B70701E78007008327C90012
S315000054501B87F7FF2326E9006308071E03390401AB
S31500005460630A0902832789001B87F7FF2324E900C3
S3150000547063120702833709001305090083B7070182
S31500005480E78007008327C9001B87F7FF2326E9006B
S315000054906306071C13050400EF009039833081036F
S315000054A0033401030339010283398101033A0101FF
S315000054B0833A8100033B0100138504008334810293
S315000054C0130101046780000013060500B7F50C0000
S315000054D037D50C00938585F813058507EF905A0A92
S315000054E003398403E31409F06FF05FF183370A0090
S315000054F013050A0083B70701E78007008327CA0060
