S01D00006770752D6576616C756174696F6E2D737061776E312E73726563CF
S3150000000097910E00938181379702000093828215A3
S3150000001073905230732440F163100402970200007B
S315000000209382421573905230EF908A7797120000B0
S31500000030938242DCE780020013132400970200003B
S315000000409382420CB302530003A302000F00F00F89
S31500000050E31C03FE174E1100130ECE489313440003
S31500000060B30E7E00138F8E0083BF0E0003310F0088
S31500000070970200009382021073905230732540F16C
S31500000080E7800F00130000001300000013000000BB
S31500000090130000001300000013000000130000000E
S315000000A013000000130000001300000013000000FE
S315000000B013000000130000001300000013000000EE
S315000000C013000000130000001300000013000000DE
S315000000D013000000130000001300000013000000CE
S315000000E013000000130000001300000013000000BE
S315000000F013000000130000001300000013000000AE
S3150000010073001000730010007300100073001000DD
S3150000011073001000730010007300100073001000CD
S3150000012073001000730010007300100073001000BD
S3150000013073001000730010007300100073001000AD
S3150000014013132500970300009383C3FBB3027300C8
S315000001500F00500F23A00200130500006780000067
S3150000016073001000130000001300000013000000CD
S3150000017073202034130101EF23301100233831009E
S31500000180233C41002330510223346102233871029B
S31500000190233C8102233091042334A1042338B10483
S315000001A0233CC1042330D1062334E1062338F1066B
S315000001B0233C01072330110923342109233831094F
S315000001C0233C41092330510B2334610B2338710B37
S315000001D0233C810B2330910D2334A10D2338B10D1F
S315000001E0233CC10D2330D10F2334E10F2338F10F07
S315000001F073250030F325103473262034233CA10EDA
S315000002002330B1102334C11063560600EF908A687C
S315000002106F00C00093060100EF904A67833001002B
S3150000022083310101033281018332010203338102EA
S3150000023083330103033481038334010403358104CA
S3150000024083350105033681058336010603378106AA
S31500000250833701070338810783380108033981088A
S3150000026083390109033A8109833A010A033B810A6A
S31500000270833B010B033C810B833C010C033D810C4A
S31500000280833D010D033E810D833E010E033F810F29
S31500000290833F011073100F3073901F34033F810E9C
S315000002A0833F010F1301011173002030000000008D
S315000002B00000000000000000000000000000000038
S315000002C00000000000000000000000000000000028
S315000002D00000000000000000000000000000000018
S315000002E00000000000000000000000000000000008
S315000002F000000000000000000000000000000000F8
S3150000030000000000000000000000000000000000E7
S3150000031000000000000000000000000000000000D7
S3150000032000000000000000000000000000000000C7
S3150000033000000000000000000000000000000000B7
S3150000034000000000000000000000000000000000A7
S31500000350130101FF1305800023341100EF20C90C9F
S31500000360B7A70D009387078A37260900B7950D00B2
S315000003702330F5001306C6559385857EEF609010F1
S31500000380130101FF1305800023341100EF20C90972
S31500000390B7770D009387877037060800B7750D008D
S315000003A02330F5001306C6A49385056EEF60900D05
S315000003B0130101FF1305800023341100EF20C90645
S315000003C0B7770D009387877637060800B7750D0057
S315000003D02330F500130606AA93850574EF60900A8C
S315000003E0130101FF1305800023341100EF20C90318
S315000003F0B7770D009387877C37060800B7750D0021
S315000004002330F500130646AF9385057AEF60900713
S31500000410130101FE233881001304050013050001B2
S31500000420233C110023349100EF20090093050400BA
S3150000043013040500EF70C92037660900B7A50D0043
S31500000440130606F7938585DB13050400EF6090031A
S315000004509304050013050400EF20890213850400A8
S31500000460EF609A30130101FE233881001304050062
S3150000047013050001233C110023349100EF10D97AB3
S315000004809305040013040500EF70C92037660900C0
S31500000490B7A50D0013060641938585DE13050400F6
S315000004A0EF60407E9304050013050400EF10597DAC
S315000004B013850400EF605A2B130101FE23388100D7
S315000004C01304050013050001233C11002334910099
S315000004D0EF1099759305040013040500EF70892148
S315000004E037660900B7A50D001306063B938585E11F
S315000004F013050400EF60007993040500130504005A
S31500000500EF10197813850400EF601A26130101FE17
S31500000510233881001304050013050001233C110054
S3150000052023349100EF10597093050400130405005D
S31500000530EF70492237660900B7A50D001306062F8E
S31500000540938585E413050400EF60C07393040500EA
S3150000055013050400EF10D97213850400EF60DA204A
S31500000560130101FE23388100130405001305000161
S31500000570233C110023349100EF10196B93050400FE
S3150000058013040500EF70092337660900B7A50D00AF
S3150000059013060635938585E713050400EF60806E24
S315000005A09304050013050400EF10996D13850400EC
S315000005B0EF609A1B130101FE233881001304050026
S315000005C013050001233C110023349100EF10D96577
S315000005D09305040013040500EF70C923376609006C
S315000005E0B7A50D00130606FD938585EA13050400DD
S315000005F0EF6040699304050013050400EF10596885
S3150000060013850400EF605A16130101FE233881009A
S315000006101304050013050001233C11002334910047
S31500000620EF1099609305040013040500EF70C923C9
S3150000063037660900B7A50D0013060609938505ED73
S3150000064013050400EF60006493040500130504001D
S31500000650EF10196313850400EF601A11130101FEF0
S31500000660233881001304050013050001233C110003
S3150000067023349100EF10595B930504001304050021
S31500000680EF70892437660900B7A50D001306060F1B
S31500000690938505F013050400EF60C05E9304050022
S315000006A013050400EF10D95D13850400EF60DA0B23
S315000006B0130101FE23388100130405001305000110
S315000006C0233C110023349100EF10195693050400C2
S315000006D013040500EF70492537660900B7A50D001C
S315000006E013060603938505F313050400EF6080598E
S315000006F09304050013050400EF10995813850400B0
S31500000700EF609A06130101FF1305800023341100E0
S31500000710EF109951B7770D00938787763706080053
S31500000720B7750D002330F500130606AA93850574E8
S31500000730EF604055130101FF1305800023341100BB
S31500000740EF10994EB7770D009387877C3706080020
S31500000750B7750D002330F500130646AF9385057A6D
S31500000760EF604052130101FF13058000233411008E
S31500000770EF10994BB7B70D00938707CF37A609003F
S31500000780B7B50D002330F50013068662938585CC38
S31500000790EF60404F130101FD233C910093040500D7
S315000007A0130500032334110223308102EF10D947C9
S315000007B013040500EF804957930710002320F1002A
S315000007C08335010013060500938604001305040013
S315000007D0EF805938B7A70D009387077313050400F8
S315000007E02330F400EF504978930505001305040201
S315000007F0EF90597B37960900B7A50D001306C6EE94
S315000008009385056A13050400EF60C047B7A70D007E
S315000008109304050093878770130504002330F400C2
S31500000820EF9089776F00800093040500130504009C
S31500000830EF10194513850400EF600A73130101FDDB
S315000008402338210113090500130500032330810213
S31500000850233C91002334110293840500EF10D93C08
S315000008601304050063880400EF90590C1306050075
S315000008706F000001EF80494B13060500930410003A
S315000008802320910083350100930609001305040017
S31500000890EF80592CB7A70D00938707731305040043
S315000008A02330F400EF50496C93050500130504024C
S315000008B0EF90596F37960900B7A50D001306C6EEDF
S315000008C09385056A13050400EF60C03BB7A70D00CA
S315000008D09304050093878770130504002330F40002
S315000008E0EF90896B6F0080009304050013050400E8
S315000008F0EF10193913850400EF600A67130101FB35
S31500000900233821031309050013050002233081044F
S31500000910233C91022334110423343103EF10D930E0
S3150000092093040500130609009385010013050100D1
S31500000930EF900972930501001385040093090101E4
S31500000940EF8019620335010063043501EF5040481A
S31500000950B7B70D001384010037A60900B7B50D001F
S31500000960938707B4130686F9938585AC138504002F
S3150000097023B0F40023A8240123BC8400EF60803058
S315000009808337010013040500638A370113850700C6
S31500000990EF5000446F008000130405001385040027
S315000009A0EF10192E13050400EF600A5C130101FF16
S315000009B02330810037241100130504A923341100C4
S315000009C0EF704053930504A903340100833081007E
S315000009D037850000138601FA130505F1130101019D
S315000009E06F90DA52130101FF233081003724110082
S315000009F0130584A923341100EF70C04F930584A911
S31500000A00033401008330810037850000138601FA24
S31500000A10130505F1130101016F905A4FB727110015
S31500000A2003C707B463160700130710002380E7B453
S31500000A30B727110003C787B3631607001307100013
S31500000A40238CE7B2B727110003C707B36316070065
S31500000A50130710002388E7B2B727110003C787B230
S31500000A6063160700130710002384E7B2B7271100A7
S31500000A7003C707B263160700130710002380E7B207
S31500000A80B727110003C787B16316070013071000C5
S31500000A90238CE7B0B727110003C707B16316070019
S31500000AA0130710002388E7B0B727110003C787B0E4
S31500000AB063160700130710002384E7B06780000061
S31500000AC0B727110003C707BC6316070013071000FA
S31500000AD02380E7BCB727110003C787BB631607004F
S31500000AE013071000238CE7BAB727110003C707BB0B
S31500000AF063160700130710002388E7BAB72711000B
S31500000B0003C787BA63160700130710002384E7BAE2
S31500000B10B727110003C707BA6316070013071000AB
S31500000B202380E7BAB727110003C787B96316070002
S31500000B3013071000238CE7B8B727110003C707B9BE
S31500000B4063160700130710002388E7B8B7271100BC
S31500000B5003C787B863160700130710002384E7B896
S31500000B6067800000B727110003C787C66316070012
S31500000B70130710002384E7C6B727110003C707C66B
S31500000B8063160700130710002380E7C6B727110076
S31500000B9003C787C56316070013071000238CE7C435
S31500000BA0B727110003C707C5631607001307100010
S31500000BB02388E7C4B727110003C787C46316070055
S31500000BC0130710002384E7C4B727110003C707C41F
S31500000BD063160700130710002380E7C4B727110028
S31500000BE003C787C36316070013071000238CE7C2E9
S31500000BF0B727110003C707C36316070013071000C2
S31500000C002388E7C2B727110003C787C26316070008
S31500000C10130710002384E7C2B727110003C707C2D2
S31500000C2063160700130710002380E7C2B7271100D9
S31500000C3003C787C16316070013071000238CE7C09C
S31500000C40B727110003C707C1631607001307100073
S31500000C502388E7C067800000B727110003C787D243
S31500000C6063160700130710002384E7D2B727110085
S31500000C7003C707D263160700130710002380E7D2C5
S31500000C80B727110003C787D16316070013071000A3
S31500000C90238CE7D0B727110003C707D163160700D7
S31500000CA0130710002388E7D0B727110003C787D0A2
S31500000CB063160700130710002384E7D0B727110037
S31500000CC003C707D063160700130710002380E7D079
S31500000CD0B727110003C787CF631607001307100055
S31500000CE0238CE7CEB727110003C707CF631607008B
S31500000CF0130710002388E7CEB727110003C787CE56
S31500000D0063160700130710002384E7CEB7271100E8
S31500000D1003C707CE63160700130710002380E7CE2C
S31500000D20B727110003C787CD631607001307100006
S31500000D30238CE7CCB727110003C707CD631607003E
S31500000D40130710002388E7CC67800000130101FE1B
S31500000D5023349100B7140000233881009384041CC7
S31500000D60374411001304844713850400233C110003
S31500000D70233C9400EFC05A4F2338A40063020502B7
S31500000D802334A400233095002334050083308101E9
S31500000D9003340101833481001301010267800000DE
S31500000DA0233C0400233404006FF05FFE130101FFAF
S31500000DB02330810037A50900138601FA93850100C7
S31500000DC01305C5F823341100EF905A14138601FA5F
S31500000DD0033401008330810037A50900938581FF24
S31500000DE0130585F8130101016F905A1200000000E7
S31500000DF0EF801A1B130401009302000063900202A5
S31500000E0017151100130505C817461100130606C469
S31500000E10B306A64093D53600EF809A1997121100B3
S31500000E209382420E23B08200EF809A1AEF805A17FF
S31500000E30EF80DA46EF809A4CEF80DA3217A50A0087
S31500000E401305854FEF904A72EFC00A62EF805A157C
S31500000E5097121100938202F903A502009382010101
S31500000E6083B5020013060000EF00400FEF90DA0B87
S31500000E7073001000000000000000000037950E000F
S31500000E8037970E00930785B7130787B7630AF700EE
S31500000E909307000063860700130585B76780070080
S31500000EA06780000037950E00930785B737970E00C9
S31500000EB0930587B7B385F54093D7354093D5F503AA
S31500000EC0B385F50093D51540638A050093070000A6
S31500000ED063860700130585B76780070067800000F3
S31500000EE0130101FF2330810037241100834784F06A
S31500000EF02334110063920702EFF05FF8B7970A00F8
S31500000F00938747336386070013858104EF808A42FF
S31500000F10930710002304F4F08330810003340100AA
S31500000F201301010167800000B7970A0093874711F4
S31500000F3063840702B7251100130101FF938505F1AC
S31500000F401385810423341100EF80CA1C833081008D
S31500000F50130101016FF01FF56FF0DFF4130101F6C5
S31500000F60233C1108233881082334910823302109B2
S31500000F70233C310713051000EFC01A2F1309050093
S31500000F8013051000EFC05A2E1304050023000900B4
S31500000F90230005002334010623300106233C010407
S31500000FA0233801042334010437D50C00130505B991
S31500000FB0EFD05A6D13058106EF40C00537D50C00FA
S31500000FC0130505BBEFD01A6C1306810393051000B9
S31500000FD003358106EF2050561306010493052000C1
S31500000FE003358106EF2050551306010393053000A3
S31500000FF003358106EF2050548336810303360104FE
S315000010008335010337D50C00130505BDEFD05A31E2
S31500001010B7F90D0093870999B7840E00938484FC71
S31500001020B384F4409385040037D50C00130585C0BE
S31500001030EFD01A2F930601051386040093850999AC
S3150000104003358106EF00002B9305200037D50C00F1
S31500001050130505C3EFD0DA2C93060106130610001C
S315000010609305100003358106EF20D06C93058102AD
S3150000107003350106EF3080709306810513062000C4
S315000010809305100003358106EF20D06A930501020F
S3150000109003358105EF30806E37D50C00130585C505
S315000010A0EFD05A5E930710002334F1008337810294
S315000010B02338F10083370102233CF10093068104B3
S315000010C0130680019305810003358106EF00403742
S315000010D09305100037D50C00130505C7EFD05A2429
S315000010E09306100013060000930509000335010658
S315000010F0EF30007C37D50C00130505CAEFD09A589F
S3150000110093061000130600009305040003358105BD
S31500001110EF30007A37D50C00130505CCEFD09A5680
S31500001120033681048335010503358106EF404038D7
S3150000113037D50C00130505CDEFD0DA54B765260573
S31500001140938505C003358106EF30006993051000CD
S3150000115037D50C00130585CFEFD09A1C93061000E7
S31500001160130600008335810513050400EF30901542
S315000011709305200037D50C00130585D2EFD05A1AF7
S3150000118003350106EF30404D03358105EF30C04C85
S3150000119003350105EF30404C03358104EF30C04B79
S315000011A037D50C00130505D5EFD0DA4D033581068A
S315000011B0EF20D046834604006390060437D50C0022
S315000011C0130505DBEFD01A4C13050900EFC09A0A88
S315000011D013050400EFC01A0A1305000083308109C5
S315000011E003340109833481080339010883398107EF
S315000011F01301010A67800000130600009305000032
S3150000120037D50C00130505D7EFD09A1137D50C004A
S31500001210130505DAEFD01A476FF01FFBB727110049
S3150000122083B707DD639A070037271100B757110008
S31500001230938787A42338F7DCB727110083B787DCA9
S3150000124063980700B72711003707001023B4E7DCBF
S3150000125067800000130101FE23388100233C110042
S315000012602334910037241100834704A80F00F00FA0
S3150000127093F7F70F63800702B724110083308101CB
S315000012800334010103A584A88334810013010102FC
S3150000129067800000130504A8EF50502BB7241100F7
S315000012A0E30E05FC37D50C00130505DC23A404A8C2
S315000012B0EFC00A0763060500EF904A2C23A4A4A8F2
S315000012C0130504A8EF50D02E37450000938584A857
S315000012D0138601FA130505C9EF904A43833081014D
S315000012E00334010103A584A883348100130101029C
S315000012F067800000130101FC233C110223388102A0
S315000013002334910223302103233C31012338410148
S315000013106304051293840500638005129307800019
S315000013201309060063FAC710138A060063860610BF
S3150000133083B5050083B98400130781009306000076
S31500001340B389B94013860900EF20107C1304050009
S315000013506314050403358100130909FF9306100081
S315000013601306090093050000EF30901F13040500D3
S3150000137063020506B7D50C0013060500938505E440
S3150000138037D50C00130585E1EFD08A790335810046
S31500001390EF30802C6F00C00113060500B7D50C0096
S315000013A037D50C00938585DD130585E1EFD04A77A7
S315000013B0833081031305040003340103833481025F
S315000013C00339010283398101033A01011301010442
S315000013D0678000000335810093063000338629417B
S315000013E093050900EF30D0171304050063160502B4
S315000013F00335810093060900130600009385040156
S31500001400EF30004B1304050063100502833781009B
S315000014102330FA006FF0DFF9B7D50C00130605008C
S31500001420938585E76FF0DFF5B7D50C001306050049
S31500001430938585EC6FF0DFF41304F0FF6FF05FF730
S31500001440130101FC233C110223388102233491024B
S3150000145023302103233C31016308050E138905005F
S315000014606384050E930406006300060E9389060046
S31500001470638C060C93068100130610009385040006
S31500001480EF20502B13040500631405040335810077
S31500001490938604001306000093050900EF304041CF
S315000014A01304050063120506833781008330810328
S315000014B0130504000334010323B0F90083348102C9
S315000014C00339010283398101130101046780000099
S315000014D013060500B7D50C0037D50C00938585EFAC
S315000014E0130585E1EFD0CA63833081031305040039
S315000014F003340103833481020339010283398101F4
S31500001500130101046780000013060500B7D50C001F
S3150000151037D50C00938505F3130585E1EFD04A60B6
S3150000152003358100EF304013833081031305040037
S3150000153003340103833481020339010283398101B3
S3150000154013010104678000001304F0FF6FF0DFF958
S31500001550130101DE233C311F130601169389050092
S315000015609305300023349120233C11202338812019
S31500001570233021212338411F2334511F2330611F7B
S31500001580233C711D2338811D2334911D2330A11D59
S31500001590233CB11B93040500233C011023300112A8
S315000015A02334011223380112233C01122330011483
S315000015B02334011423380114233C0114EF20C0778F
S315000015C0630005061309050013060500B7D50C00D0
S315000015D037D50C00938505F6130585E1EFD04A54FF
S315000015E08330812103340121833481208339811F93
S315000015F0033A011F833A811E033B011E833B811D73
S31500001600033C011D833C811C033D011C833D811B62
S315000016101305090003390120130101226780000028
S31500001620130681169305700013850400EF20C07021
S31500001630130905006300050213060500B7D50C0063
S3150000164037D50C00938585F9130585E1EFD04A4D12
S315000016506FF01FF9033781169307100013950702E1
S31500001660939517021396270293963702939747028C
S315000016703375A700B375B7003376C700B376D700C6
S31500001680B377F700233CA1082330B10A2334C10AFB
S315000016902330D10E2338F108EFF0DFBB833B011670
S315000016A023380100130A050063940B006F105011D4
S315000016B013040000233C010C2338010C2334010CD5
S315000016C02330010C2338010A233C010A2330010888
S315000016D02338010623340108233C0106233401067E
S315000016E023380102233C010223300104233C010478
S315000016F02338010423300106233401042334010274
S3150000170023300102233C0100930D0000930A0000E0
S31500001710233C210F37190000930601171306040016
S31500001720930509B013850400EF30006463040500D7
S315000017306F10C0379306811713060400930529B06E
S3150000174013850400EF304062630405006F104038D3
S31500001750930710006306FA66930720006310FA14D5
S3150000176083370109638407006F0050678337810957
S31500001770638407006F0050758337010A638407008E
S315000017806F1080088337810AE390075463180410AA
S315000017908337010E6388070A371900009306811103
S315000017A013060000930529B113850400EF30C05BD2
S315000017B0630405006F1050389306011213060000EB
S315000017C0930539B113850400EF30005A6304050010
S315000017D06F1050349306811213060000930549B129
S315000017E013850400EF304058630405006F10D03DA8
S315000017F09306011313060000930559B113850400DF
S31500001800EF308056630405006F10D03993068113BC
S3150000181013060000930569B113850400EF30C05428
S31500001820630405006F10D0359306011413060000FB
S31500001830930579B113850400EF3000536304050066
S315000018406F10D0313719000093068114130600007B
S31500001850930589B113850400EF3000516304050038
S315000018606F10407E9306011513060000930599B18B
S3150000187013850400EF30404F630405006F10407A73
S3150000188093068115130600009305A9B1138504007C
S31500001890EF30804D630405006F10001F833B011677
S315000018A003390117033B811713050000630409027E
S315000018B013050B00EF008A3E130C05001305090003
S315000018C0EF00CA3D9305050013050C00EFF04941F2
S315000018D0EF204A369307100063FA7703EF204A0891
S315000018E0B7E50C00930705001307090093060B00E4
S315000018F0130604009385850E13850900EF901A5C84
S31500001900833B0116033B8117033901178337010116
S31500001910B38A6A01B38D2D0163F4270123382101AF
S315000019201B0414009317040293D70702E3E477DF3E
S315000019300339810F930710006314FA006F10801BA0
S31500001940930720006310FA428337810A638A071ED1
S315000019500337010B8337810B930C0000335D77034C
S315000019600337010C335477030337810CB3547703E1
S315000019700337010D335A77030337810DB3DD770340
S31500001980335B770363E4770513050400EF000A3140
S31500001990130C050013850D00EF004A309305050072
S315000019A013050C00EFF0C933B7970E009305050039
S315000019B003B507B8EFF0594EB7970E0083B587B752
S315000019C0EFF05912EF00CA1E9B0C05008337010B7E
S315000019D0130C000063E4770513850400EF000A2C5E
S315000019E0930B050013050D00EF004A2B9305050028
S315000019F013850B00EFF0C92EB7970E00930505006F
S31500001A0003B507B8EFF05949B7970E0083B587B706
S31500001A10EFF0590DEF00CA191B0C05003385AD0117
S31500001A20B3074501233CF100930B0000638C0702CA
S31500001A30EF00CA2683378101930B05001385070043
S31500001A40EF00CA259305050013850B00EFF0492921
S31500001A50B7970E0083B587B7EFF0D908EF004A15A0
S31500001A609B0B05003305940033076501233CE10019
S31500001A7093070000630E0702EF004A220337810135
S31500001A802330A10213050700EF004A218337010224
S31500001A909305050013850700EFF08924B7970E001C
S31500001AA083B587B7EFF01904EF008A109B0705008E
S31500001AB0B7E50C009385052A13860D0013850900EA
S31500001AC0233CF100EF909A3FB7E50C0013060D009A
S31500001AD09385052C13850900EF905A3EB7E50C0057
S31500001AE093860C00130604009385052E13850900C2
S31500001AF0EF90DA3CB7E50C0093060C001386040061
S31500001B009385053113850900EF905A3BB7E50C0024
S31500001B1093860B0013060A00938585341385090006
S31500001B20EF90DA3983378101B7E50C0013060B0015
S31500001B30938607009385053813850900EF901A38B8
S31500001B408337010E638E071A033A8111833481129B
S31500001B50930B000063040A0413850400EF000A14C3
S31500001B601304050013050A00EF004A139305050048
S31500001B7013050400EFF0C916B7970E00930505008C
S31500001B8003B507B8EFF05931B7970E0083B587B79D
S31500001B90EFF04975EF00CA019B0B050003340112F3
S31500001BA0833C0113130B00006304040413850C002B
S31500001BB0EF00CA0E130B050013050400EF000A0E12
S31500001BC09305050013050B00EFF08911B7970E007A
S31500001BD09305050003B507B8EFF0192CB7970E006B
S31500001BE083B587B7EFF00970EFF0997C1B0B050002
S31500001BF033058A0003348113130C00003304850077
S31500001C00630A0402EF008A09130C05001305040099
S31500001C10EF00CA089305050013050C00EFF0490C08
S31500001C20B7970E0083B587B7EFF0C96BEFF0597819
S31500001C301B0C050003340114338594019304000042
S31500001C4033048500630A0402EF004A059304050085
S31500001C5013050400EF008A049305050013850400AC
S31500001C60EFF00908B7970E0083B587B7EFF08967DD
S31500001C70EFF019749B040500B7E50C0013060A0083
S31500001C809385853B13850900EF905A23033601128D
S31500001C90B7E50C009385853D13850900EF901A2260
S31500001CA003368112B7E50C0093860B009385853FBA
S31500001CB013850900EF909A2003360113B7E50C004F
S31500001CC093060B009385854213850900EF901A1F32
S31500001CD003368113B7E50C0093060C009385054681
S31500001CE013850900EF909A1D03360114B7E50C0021
S31500001CF0938604009385854913850900EF901A1C85
S31500001D0083348114033581151304000063840402AF
S31500001D10EFF0D9781304050013850400EFF0197865
S31500001D209305050013050400EFE0997BEFF0596871
S31500001D301B04050003370115B7E50C009385054D17
S31500001D403386E4009386040013850900EF901A1782
S31500001D50B7E50C001306040093858550138509002A
S31500001D60EF90DA158334010113070000638804023B
S31500001D7013850A00EFF09972130405001385040019
S31500001D80EFF0D9719305050013050400EFE05975CE
S31500001D90EF105A6AEF10DA3C13070500833601018B
S31500001DA0B7E50C0013860A00938585521385090052
S31500001DB0EF90DA1013850900EF904A086FF05F8202
S31500001DC09306811A13060400930539B0138504009F
S31500001DD0EF20907913070500630405006F1040009B
S31500001DE0833701160339811A637EFA04033B011710
S31500001DF0630C0B0213050900EFF0596A930B0500FB
S31500001E0013050B00EFF099699305050013850B0088
S31500001E10EFE0196DB7970E0083B587B7EFF0894CE1
S31500001E20EFF019591B070500B7D50C0093060900FA
S31500001E30130604009385850A13850900EF901A0896
S31500001E400339811AB71500009306811A1306040098
S31500001E50938545B013850400EF2010718337810107
S31500001E6013070500B3872701233CF100630405002F
S31500001E706F00907983360116930710000339811A93
S31500001E8063FED704033B0117630C0B02130509001D
S31500001E90EFF0D960930B050013050B00EFF0196006
S31500001EA09305050013850B00EFE09963B7970E00C5
S31500001EB083B587B7EFF00943EFF0994F1B0705008D
S31500001EC0B7D50C0093060900130604009385851206
S31500001ED013850900EF908A7E0339811AB715000031
S31500001EE09306811A13060400938555B013850400E2
S31500001EF0EF2090678337010213070500B387270198
S31500001F002330F102630405006F0050718336011619
S31500001F1093071000033B811A63FED70403390117A8
S31500001F20630C090213050B00EFF05957930B0500DC
S31500001F3013050900EFF099569305050013850B006C
S31500001F40EFE0195AB7970E0083B587B7EFF08939D6
S31500001F50EFF019461B070500B7D50C0093060B00DA
S31500001F60130604009385851A13850900EF900A75F8
S31500001F70033B811A37190000930601181306040063
S31500001F80930569B013850400EF20105E8337810244
S31500001F90B38767012334F102630405006F005069BB
S31500001FA09306811813060400930589B0138504006F
S31500001FB0EF20905B630405006F00D069930601195A
S31500001FC013060400930599B013850400EF20D05939
S31500001FD0630405006F00506A930681191306040016
S31500001FE09305A9B013850400EF201058630405007B
S31500001FF06F00D06A9306011A130604009305C9B050
S3150000200013850400EF205056630405006F00506BE3
S315000020109306811A130604009305D9B013850400AC
S31500002020EF209054930B0500630405006F00906B3E
S31500002030833501058337811883360119033D8119DC
S31500002040B385F5002338B10483358105833C011A35
S31500002050033C811AB385D500233CB10483350104C2
S315000020600336011613071000B385A5012330B1040A
S3150000207083358103033B0118B3859501233CB102E7
S3150000208083350103B38585012338B102637EC71604
S31500002090033601173389D7003309A901330999019A
S315000020A02334C10E330989011307000063080604AF
S315000020B013050B002334D1102330F110EFF0193E35
S315000020C00336810E2338A10E13050600EFF0193DE5
S315000020D00337010F9305050013050700EFE059408C
S315000020E0B7970E0083B587B7EFF0C91FEFF0592CED
S315000020F083368110833701101B0705002338D10E64
S315000021002334F10E6302094C130509002330E11054
S31500002110EFF0D9388337810E13090500B79B0E00FF
S3150000212013850700EFF0993793050900EFE0593B57
S3150000213083B58BB7EFF0091BEFF099278336010FB4
S315000021409B0705002334F10E13850600EFF01935C1
S3150000215093050900EFE0D93883B58BB7EFF08918FE
S31500002160EFF019251308050013050D001B0D0800D7
S31500002170EFF0D93293050900EFE0993683B58BB7B6
S31500002180EFF04916EFF0D9229308050013850C00ED
S315000021909B8C0800EFF0993093050900EFE0593465
S315000021A083B58BB7EFF00914EFF099209B0B050070
S315000021B013050C00EFF0992E93050900EFE0593254
S315000021C0B7970E0083B587B7EFF0C911EFF0591E28
S315000021D08337810E033701101B050500B7D50C00A8
S315000021E093060B002334A1002330710193880C0061
S315000021F013080D00130604009385053A138509009C
S31500002200EF90CA4B033B0118B71500009306811ADD
S3150000221013060400938575B013850400EF20D034AF
S315000022208337810413070500B38767012334F1045C
S31500002230E31A054C83360116930710000339811AF9
S3150000224063FED704033B0117630C0B021305090059
S31500002250EFF0D924930B050013050B00EFF01924BA
S315000022609305050013850B00EFE09927B7970E003D
S3150000227083B587B7EFF00907EFF099131B07050041
S31500002280B7D50C009306090013060400938585450F
S3150000229013850900EF908A420339811AB7150000A9
S315000022A09306011A130604009385E5B0138504000E
S315000022B0EF20902B83370106B38727012330F106E1
S315000022C0E31C054483360116130710008337011AF1
S315000022D06366D71803378106B71500009306811A7F
S315000022E0B307F70013060400938515B113850400A0
S315000022F02334F106EF20502793060500E31005442A
S3150000230003360116130710008337811A6376C70454
S315000023100339011A6306090213850700EFF019183D
S31500002320130B050013050900EFF059179305050077
S3150000233013050B00EFE0D91AEFF099079B0605008D
S31500002340B7D50C00130604009385055413850900C0
S31500002350EF90CA368337811A03370107B715000095
S315000023609306011AB307F700130604009385F5B028
S31500002370138504002338F106EF20101FE314053EF1
S3150000238083360116130710008337011A6368D70EC8
S3150000239003378107B71500009306811AB307F700C4
S315000023A013060400938525B113850400233CF1062A
S315000023B0EF20901B93060500E318053C0336011633
S315000023C0130710008337811A6376C7040339011A8D
S315000023D06306090213850700EFF0590C130B05007D
S315000023E013050900EFF0990B9305050013050B0083
S315000023F0EFE0190FEFF0C97B9B060500B7D50C007F
S31500002400130604009385856113850900EF900A2B56
S315000024108337811A03370108B71500009306811A1E
S31500002420B307F70013060400938505B1138504006E
S315000024302330F108EF205013E3120536833B0116D3
S31500002440930710008336811A63EA7705833781087C
S31500002450B387D7002334F1086FF08FC4B7D50C00CB
S3150000246093860700130604009385054D138509001E
S31500002470EF90CA248337011A6FF0DFE5B7D50C0059
S3150000248093860700130604009385055B13850900F0
S31500002490EF90CA228337011A6FF09FEFB7D50C0071
S315000024A0130604009385856813850900EF900A21B9
S315000024B0833781088336811A833B0116B387D70099
S315000024C02334F1086FF0CFBD371900009306811A47
S315000024D0130604009305C9B013850400EF20D00845
S315000024E0E318054C0337810B8337811A9306811A4B
S315000024F013060400B307F7009305D9B0138504004B
S31500002500233CF10AEF205006E316054C0337010B76
S315000025108337811A9306811A13060400B307F7005E
S315000025209305E9B0138504002338F10AEF20D003A0
S31500002530E31A05540337010C8337811A9306811A6F
S3150000254013060400B307F7009305F9B013850400DA
S315000025502330F10CEF205001E31A05560337810CA6
S315000025608337811A9306811A13060400B307F7000E
S31500002570930509B1138504002334F10CEF20C07EC6
S31500002580E31405520337010D8337811A9306811A26
S3150000259013060400B307F700930519B11385040069
S315000025A02338F10CEF20407CE31405540337810DEA
S315000025B08337811AB307F700233CF10C6314040038
S315000025C06FF00F9D6FF08FAD1305000093070000AD
S315000025D0930C0000130D00006FF05FC09306811985
S315000025E0130604009305B9B113850400EF20C077E4
S315000025F0E314052A9306011A130604009305C9B1CC
S3150000260013850400EF204076E31A052A9306811A03
S31500002610130604009305D9B113850400EF20C07496
S31500002620130B0500E310052E833B81190335011AB0
S315000026300339811A3385AB0033092501630A090280
S31500002640EFF0C965130B050013050900EFF00965E6
S315000026509305050013050B00EFE08968B7970E0098
S3150000266083B587B7EFE01948EFF089541B0B0500D7
S31500002670B7D50C0093860B00130604009385857866
S3150000268013850900EF908A038336011AB7D50C002B
S31500002690130604009385857A13850900EF900A02D4
S315000026A08336811AB7D50C0013070B0013060400F6
S315000026B09385857C13850900EF904A00833781094D
S315000026C0639407006FF04F8B37190000930681194A
S315000026D013060400930539B013850400EF20C06883
S315000026E0E31005209306011A13060400930549B06A
S315000026F013850400EF204067E31A05289306811A24
S3150000270013060400930559B013850400EF20C06535
S31500002710930B0500E31C0524033C8119833C011A35
S315000027201309000063040C0413850C00EFF009572D
S315000027301309050013050C00EFF049569305050033
S3150000274013050900EFE0C959B7970E009305050078
S3150000275003B507B8EFE05974B7970E0083B587B78E
S31500002760EFE05938EFF0C9441B090500033B811A15
S31500002770338B6C01630C0B0213850C00EFF00952CE
S31500002780930B050013050B00EFF049519305050067
S3150000279013850B00EFE0C954B7970E0083B587B7D2
S315000027A0EFE05934EFF0C9409B0B0500B7E50C008C
S315000027B093060C00130604009385858E1385090085
S315000027C0EF80DA6F8336011AB7E50C0013070900AC
S315000027D0130604009385859013850900EF801A6E11
S315000027E08336811AB7E50C0013870B001306040025
S315000027F09385059413850900EF805A6C8337010A87
S31500002800639407006FE01FF837190000930601185C
S3150000281013060400930569B013850400EF20C05425
S31500002820E31405129306811813060400930579B084
S3150000283013850400EF204053E316050E9306011995
S3150000284013060400930589B013850400EF20C051D8
S31500002850E316051C9306811913060400930599B027
S3150000286013850400EF204050E31805189306011A5B
S31500002870130604009305A9B013850400EF20C04E8B
S31500002880E310051E9306811A130604009305B9B0DA
S3150000289013850400EF20404D130B0500E312051AC3
S315000028A0833B011803390119130D000063840B04DF
S315000028B013050900EFF0893E130C050013850B0084
S315000028C0EFF0C93D9305050013050C00EFE0494103
S315000028D0B7970E009305050003B507B8EFE0D95B7F
S315000028E0B7970E0083B587B7EFE0D91FEFF0492CF5
S315000028F01B0D0500033C811803378119930C00005A
S3150000290063080C04130507002334E10EEFF00939C0
S31500002910930C050013050C00EFF0493893050500EC
S3150000292013850C00EFE0C93BB7970E009305050031
S3150000293003B507B8EFE05956B7970E0083B587B7CA
S31500002940EFE0591AEFF0C9260337810E9B0C0500FC
S315000029508337011A33858B01130C0000B307F5008A
S315000029602334F10E638007042338E10EEFF00933B8
S315000029708337810E130C050013850700EFF009322B
S315000029809305050013050C00EFE08935B7970E0097
S3150000299083B587B7EFE01915EFF089210337010FEB
S315000029A01B0C05003305E9000339811A330925019B
S315000029B0630A0902EFF0892E130B050013050900BF
S315000029C0EFF0C92D9305050013050B00EFE0493123
S315000029D0B7970E0083B587B7EFE0D910EFF0491D22
S315000029E01B0B0500B7E50C0093860B0013060400CD
S315000029F0938585B513850900EF805A4C8336811877
S31500002A00B7E50C0013060400938585B71385090006
S31500002A10EF80DA4A83360119B7E50C0013070D007B
S31500002A2013060400938505BA13850900EF801A4939
S31500002A3083368119B7E50C0013870C0013060400D2
S31500002A40938585BD13850900EF805A478336011AA1
S31500002A50B7E50C0013070C0013060400938505C1A7
S31500002A6013850900EF809A458336811AB7E50C0075
S31500002A7013070B0013060400938505C5138509008B
S31500002A80EF80DA436FE01FD0130B05001306050035
S31500002A90B7E50C0037D50C009385850A130585E14B
S31500002AA0EFC00A0813090B006FE09FB3930B0500F4
S31500002AB013060500B7D50C0037D50C00938505FD28
S31500002AC0130585E1EFC0CA0513890B006FE05FB1FE
S31500002AD0930B050013060500B7D50C0037D50C007F
S31500002AE093850501130585E1EFC08A0313890B0061
S31500002AF06FE01FAF638A0D5613850D00EFF0091ABC
S31500002B001304050003358101B7940E00EFF009198F
S31500002B1093050400EFE0C91C83B584B7EFE0897C18
S31500002B20EFF009099B0C050003350102EFF00917C8
S31500002B3093050400EFE0C91A83B584B7EFE0897AFC
S31500002B40EFF009071B0C050003358102EFF00915AC
S31500002B5093050400EFE0C91883B584B7EFE08978E0
S31500002B60EFF009059B0B050003358104EFF009130F
S31500002B7093050400EFE0C91683B584B7EFE08976C4
S31500002B80EFF009031B0B050003350106EFF00911F1
S31500002B9093050400EFE0C91483B584B7EFE08974A8
S31500002BA0EFF009011B0A0500033D810693040000AE
S31500002BB063060D0203350107EFF0490E1304050005
S31500002BC013050D00EFF0890D9305050013050400AC
S31500002BD0EFE00911EFE0D97D9B040500033D810775
S31500002BE01304000063060D0203350108EFF0090B1C
S31500002BF01304050013050D00EFF0490A93050500BF
S31500002C0013050400EFE0C90DEFE0997A1B040500F7
S31500002C100337810383370103033D0105833D8105A6
S31500002C2003380104B387E70003368101B387A701A0
S31500002C30B7E50C00B387B70193860C009385851121
S31500002C4013850900B38C0701EF805A27033601026A
S31500002C50B7E50C0093060C0093850514138509004F
S31500002C60EF80DA2503368102B7E50C0093860B0068
S31500002C709385851613850900EF805A2463820C40DC
S31500002C8013850C00EFF08901930B050013050D0069
S31500002C90EFF0C90093850B00379C0E00EFE0490466
S31500002CA083358CB7EFE00964EFE099709B0C050063
S31500002CB013850D00EFE0997E93850B00EFE0490246
S31500002CC083358CB7EFE00962EFE0996E1B0D0500C6
S31500002CD003350104EFE0997C93850B00EFE0490092
S31500002CE083358CB7EFE00960EFE0996C9B0D05002A
S31500002CF003358103EFE0997A93850B00EFD0597E77
S31500002D0083358CB7EFE0095EEFE0996A9B08050012
S31500002D1003350103233C1101EFE0597893850B003D
S31500002D20EFD0197C83358CB7EFE0C95BEFE05968CB
S31500002D30833881019B06050003368104B7E50C0044
S31500002D4013880D0093070D0013870C002330D10064
S31500002D509385051993060B0013850900EF801A1653
S31500002D6003360106B7E50C0093060A009385051F96
S31500002D7013850900EF809A1403368106B7E50C0027
S31500002D809385852113850900EF805A130336810741
S31500002D90B7E50C009385052313850900EF801A1209
S31500002DA003368108B7E50C00938585241385090051
S31500002DB0EF80DA10B7E50C0013860400938505262C
S31500002DC013850900EF809A0FB7E50C00130604007F
S31500002DD09385052813850900EF805A0E6FE09FF84A
S31500002DE0B7D50C00130605002338A1009385850589
S31500002DF037D50C00130585E1EFB09A520337010170
S31500002E00130907006FE0CFFDB7D50C0013060500C8
S31500002E102338A1009385850D6FF09FFDB7D50C0073
S31500002E20130605002338A100938585156FF05FFC16
S31500002E30930B050013060500B7D50C0037D50C001B
S31500002E409385851D130585E1EFB09A4D13890B0017
S31500002E506FE00FF9930B050013060500B7D50C00BC
S31500002E6037D50C0093858522130585E1EFB05A4BC3
S31500002E7013890B006FE0CFF6930B050013060500D0
S31500002E80B7D50C0037D50C0093850527130585E1CA
S31500002E90EFB01A4913890B006FE08FF4930B05000E
S31500002EA013060500B7D50C0037D50C009385852B86
S31500002EB0130585E1EFB0DA4613890B006FE04FF298
S31500002EC0930B050013060500B7D50C0037D50C008B
S31500002ED093850530130585E1EFB09A4413890B00FD
S31500002EE06FE00FF013060500B7D50C0037D50C00C0
S31500002EF093850535130585E1EFB09A4213890B00DA
S31500002F006FE00FEEB7D50C00130605002338A100BD
S31500002F10938585406FF0DFED130B05001306050062
S31500002F20B7D50C0037D50C0093858548130585E188
S31500002F30EFB01A3F13090B006FE08FEAB7D50C000C
S31500002F40130605002338A1009385054F37D50C00DD
S31500002F50130585E1EFB0DA3C8336010113890600DB
S31500002F606FE00FE8130B050013060500B7D50C003C
S31500002F7037D50C0093858556130585E1EFB05A3A8F
S31500002F8013090B006FE0CFE5B7D50C00130605005B
S31500002F902338A1009385055D6FF05FFB130B0500D9
S31500002FA013060500B7D50C0037D50C0093850564CC
S31500002FB0130585E1EFB0DA3613090B006FE04FE237
S31500002FC0233C010C2338010C2334010C2330010C63
S31500002FD02338010A233C010A23300108233801065D
S31500002FE023340108233C0106233401062338010259
S31500002FF0233C010223300104233C0104233801044D
S315000030002330010623340104233401022330010254
S31500003010233C0100930D0000930A00006FE09F918E
S31500003020930B050013060500B7E50C0037D50C0019
S3150000303093850506130585E1EFB09A2E13890B00DB
S315000030406FE00FDA930B050013060500B7E50C00D9
S3150000305037D50C0093858501130585E1EFB05A2C11
S3150000306013890B006FE0CFD7130A0000930C000002
S31500003070130C0000930B0000130B00006FF0DFB27F
S3150000308093060000930C0000130D0000930D000042
S31500003090930800006FF05FCA930B05001306050046
S315000030A0B7D50C0037D50C009385856A130585E1E5
S315000030B0EFB01A2713890B006FE08FD2930B050030
S315000030C013060500B7D50C0037D50C009385056FA0
S315000030D0130585E1EFB0DA2413890B006FE04FD0BA
S315000030E0930B050013060500B7E50C0037D50C0059
S315000030F093850580130585E1EFB09A2213890B00AD
S315000031006FE00FCE13060500B7D50C0037D50C00BF
S3150000311093858573130585E1EFB09A2013090B009B
S315000031206FE00FCC930B050013060500B7E50C0006
S3150000313037D50C009385859C130585E1EFB05A1EA3
S3150000314013890B006FE0CFC9930B0500130605002A
S31500003150B7E50C0037D50C0093850598130585E176
S31500003160EFB01A1C13890B006FE08FC7130605001A
S31500003170B7E50C0037D50C0093858589130585E1E5
S31500003180EFB01A1A13890B006FE08FC5930B050079
S3150000319013060500B7E50C0037D50C00938585842A
S315000031A0130585E1EFB0DA1713890B006FE04FC303
S315000031B0930B050013060500B7E50C0037D50C0088
S315000031C0938505C9130585E1EFB09A1513890B00A0
S315000031D06FE00FC1930B050013060500B7E50C0061
S315000031E037D50C00938505CD130585E1EFB05A134D
S315000031F013890B006FE0CFBE930B05001306050085
S31500003200B7E50C0037D50C00938585A6130585E137
S31500003210EFB01A1113890B006FE08FBC930B0500FA
S3150000322013060500B7E50C0037D50C00938585A17C
S31500003230130585E1EFB0DA0E13890B006FE04FBA84
S3150000324013060500B7E50C0037D50C00938585B04D
S31500003250130585E1EFB0DA0C13090B006FE04FB8E8
S31500003260930B050013060500B7E50C0037D50C00D7
S31500003270938585AB130585E1EFB09A0A13890B0098
S315000032806FE00FB6930B050013060500B7E50C00BB
S3150000329037D50C00938505D1130585E1EFB05A08A3
S315000032A013890B006FE0CFB3930B050013060500DF
S315000032B0B7E50C0037D50C00938505D9130585E1D4
S315000032C0EFB01A0613890B006FE08FB1930B050060
S315000032D013060500B7E50C0037D50C00938505D518
S315000032E0130585E1EFB0DA0313890B006FE04FAFEA
S315000032F0130B050013060500B7E50C0037D50C00C7
S31500003300938585DD130585E1EFB09A0113090B005E
S315000033106FE00FAD930B050013060500B7E50C0033
S3150000332037D50C00938505E7130585E1EFB04A7F95
S3150000333013890B006FE0CFAA930B05001306050057
S31500003340B7E50C0037D50C00938505E2130585E13A
S31500003350EFB00A7D13890B006FE08FA8130B0500F1
S3150000336013060500B7E50C0037D50C00938505FC60
S31500003370130585E1EFB0CA7A13090B006FE04FA67B
S31500003380930B050013060500B7E50C0037D50C00B6
S31500003390938585F6130585E1EFB08A7813890B00CE
S315000033A06FE00FA4930B050013060500B7E50C00AC
S315000033B037D50C00938505F1130585E1EFB04A7604
S315000033C013890B006FE0CFA1930B050013060500D0
S315000033D0B7E50C0037D50C00938505EC130585E1A0
S315000033E0EFB00A7413890B006FE08F9F130101FA87
S315000033F023349104233C310393840500930906008A
S31500003400930520001306810023302105233C110477
S31500003410233881042338410323345103130905005B
S31500003420EF0090116304050413040500130605005C
S31500003430B7E50C0037D50C0093850555130585E1D6
S31500003440EFB00A6E833081051305040003340105CD
S31500003450833481040339010483398103033A010368
S31500003460833A8102130101066780000013060101F9
S315000034709305100013050900EF00100C1304050056
S3150000348063100506033A8100833A01013B065A039D
S3150000349063649608E38809FA1306810193056000C0
S315000034A013050900EF00500913040500631805040D
S315000034B0939704021387FAFF93D70702B307F7001F
S315000034C0B3D757039B870700335AFA028337810124
S315000034D01B0A0A0033DA470323A049016FF09FF65F
S315000034E013060500B7E50C0037D50C009385055982
S315000034F0130585E1EFB0CA626FF0DFF4130605002D
S31500003500B7E50C0037D50C0093850562130585E1F8
S31500003510EFB00A616FF01FF337E50C0093850400E6
S315000035201305055DEFB0CA5F1304F0FF6FF09FF15E
S31500003530130101DB2334112423308124233C9122FF
S31500003540233821232334312323304123233C5121A3
S315000035502338612123347121233081216302052E12
S3150000356093840500638E052C130B0600630A062C54
S31500003570930A05001305810FEF409424B7470D0009
S31500003580938787F903B48700231C011C83BB0701BB
S31500003590833784FE37590D001309090E13070120DE
S315000035A0B307F700233C210F2338011C2330011EEB
S315000035B02334011E2338011E233C011E233C8100B7
S315000035C023BC77E123300102033584FE9307810192
S315000035D0930500003385A700EF30147D374A0D00B0
S315000035E0B7490D00130A0AFD938989FF1305810265
S315000035F0233C4101233C310FEFA0836B93058102ED
S315000036001305810FEF30547A13068000938504006A
S3150000361013058102EFB0432283378101130781012D
S3150000362083B787FEB307F7006306051C9305000002
S3150000363013850700EF3054008327811193F7570055
S31500003640639C0712130620009305000013058101F1
S31500003650EF80C41D13058101EF70D4782334A100D7
S315000036602338B100930405006340051E630E051858
S31500003670EF30807A1386040093050000130C0500D2
S31500003680EFB04A2E130600009305000013058101D2
S31500003690EF80C4191386040093050C0013058101FD
S315000036A0EF70541693060B001386040093050C0066
S315000036B013850A00EFD0DFD8930405006310050ACE
S315000036C063060C0013050C00EF208070B7470D0051
S315000036D0938787ED13058102233C4101233C310F7B
S315000036E02334F102EFA0936613050107EF30D045AE
S315000036F0B7670D0093878771130501062334F1021E
S31500003700EF504024833784FE13070120233C8100B9
S31500003710B307F70023BC77E11305810F23300102BD
S31500003720233C210FEF4014368330812403340124D7
S315000037300339012383398122033A0122833A812105
S31500003740033B0121833B8120033C012013850400B8
S3150000375083348123130101256780000013060500C9
S31500003760B7E50C0037D50C009385056B130585E18D
S31500003770EFB00A3B6FF0DFF4B73A1100B7E50C0083
S31500003780130670009385056613858A94EFE0557ECF
S3150000379013850400EFE01A53130605009385040011
S315000037A013858A94EFE0D57CB7E50C001306A000DC
S315000037B09385856613858A94EFE0957B13878A94B3
S315000037C08337070083B787FEB387E70083B4070F05
S315000037D06382040883C78403638C070283C53404A9
S315000037E013858A94EFE05537EFE0451C9304F0FF0C
S315000037F06FF0DFED83A507021385070093E545000B
S31500003800EF3084636FF05FE3130C00006FF09FE707
S3150000381013850400EF70815203B70400B747000018
S31500003820938787C8033707039305A000E30AF7FACF
S3150000383013850400E7000700930505006FF05FFAA3
S315000038409304F0FF6FF05FEE37E50C001305856714
S31500003850EFC0DFCBEFC0DFB5130405001305810F02
S31500003860233C210FEF40142213050400EF30CA6FEA
S3150000387093070500033784FE233C81001384070069
S3150000388093070120B387E70023BC77E123300102C9
S315000038906FF0DFFC1304050063060C0013050C0033
S315000038A0EF20005313058101EFB0434A13050400CE
S315000038B0EF308A6BEF20C052EF20005C6FF0DFE242
S315000038C0130405006FF01FFE930405001305810223
S315000038D0EFA0135B938704006FF0DFF9130101DBA0
S315000038E02334112423308124233C9122233821239D
S315000038F02334312323304123233C512123386121B2
S3150000390023347121233081216302052E938405001F
S31500003910638E052C130B0600630A062C930A05001A
S315000039201305810FEF40C469B7470D00938787F9E8
S3150000393003B48700231C011C83BB0701833784FE65
S3150000394037590D001309090E13070120B307F700B5
S31500003950233C210F2338011C2330011E2334011E72
S315000039602338011E233C011E233C810023BC77E142
S3150000397023300102033584FE93078101930500007D
S315000039803385A700EF305442374A0D00B7490D0082
S31500003990130A0AFD938989FF13058102233C41011D
S315000039A0233C310FEFA0C330930581021305810F2D
S315000039B0EF30943F130680009385040013058102BF
S315000039C0EFA09367833781011307810183B787FED1
S315000039D0B307F7006306051C93050000138507006F
S315000039E0EF3084458327811193F75700639C0712B4
S315000039F0130620009305000013058101EF70146380
S31500003A0013058101EF70143E2334A1002338B10061
S31500003A10930405006340051E630E0518EF30C03F92
S31500003A201386040093050000130C0500EFA09A739B
S31500003A30130600009305000013058101EF70145F63
S31500003A401386040093050C0013058101EF70845B57
S31500003A5093060B001386040093050C0013850A00D9
S31500003A60EFD05F89930405006310050A63060C0016
S31500003A7013050C00EF20C035B7470D00938787ED7F
S31500003A8013058102233C4101233C310F2334F1020B
S31500003A90EFA0D32B13050107EF30100BB7670D000E
S31500003AA093878771130501062334F102EF4090696D
S31500003AB0833784FE13070120233C8100B307F700F8
S31500003AC023BC77E11305810F23300102233C210F2C
S31500003AD0EF40447B833081240334012403390123DE
S31500003AE083398122033A0122833A8121033B012152
S31500003AF0833B8120033C012013850400833481230A
S31500003B00130101256780000013060500B7E50C00C8
S31500003B1037D50C009385856E130585E1EFB04A0015
S31500003B206FF0DFF4B73A1100B7E50C00130670002A
S31500003B309385056613858A94EFE095431385040003
S31500003B40EFE05A18130605009385040013858A943E
S31500003B50EFE01542B7E50C001306A00093858566D5
S31500003B6013858A94EFE0D54013878A94833707003C
S31500003B7083B787FEB387E70083B4070F6382040821
S31500003B8083C78403638C070283C5340413858A9430
S31500003B90EFE0857CEFD095619304F0FF6FF0DFEDE9
S31500003BA083A507021385070093E54500EF30C42877
S31500003BB06FF05FE3130C00006FF09FE713850400BE
S31500003BC0EF70C11703B70400B7470000938787C893
S31500003BD0033707039305A000E30AF7FA13850400E9
S31500003BE0E7000700930505006FF05FFA9304F0FF06
S31500003BF06FF05FEE37E50C0013058567EFC01F9188
S31500003C00EFC00FFB130405001305810F233C210FA2
S31500003C10EF40446713050400EF300A3593070500AB
S31500003C20033784FE233C8100138407009307012099
S31500003C30B387E70023BC77E1233001026FF0DFFC96
S31500003C401304050063060C0013050C00EF20401852
S31500003C5013058101EFB0830F13050400EF30CA305E
S31500003C60EF200018EF2040216FF0DFE2130405007B
S31500003C706FF01FFE9304050013058102EFA0532089
S31500003C80938704006FF0DFF9138505006780000055
S31500003C9067800000130101FF23341100EF60DA2270
S31500003CA083308100B7470F00938707243305F50259
S31500003CB01301010167800000130101FD233C9100FF
S31500003CC09304050023308102233821012334310176
S31500003CD02334110293890500EF601A1F03B4040010
S31500003CE0B7D79A3B938707A03304F40283B78400BF
S31500003CF0B7440F0013090500938404243304F40029
S31500003D00EF609A1CB3072541B3879702E3EA87FE63
S31500003D106386090023B0090023B4090083308102B9
S31500003D20033401028334810103390101833981009F
S31500003D301301010367800000630C050A93077000F6
S31500003D4063ECB70AB7F70C00938787E793952500CE
S31500003D50B385F50083A7050067800700034755066E
S31500003D609307100013050000B397E7002330F60011
S31500003D706780000083378506130500002330F600B0
S31500003D806780000083470506130500002330F60010
S31500003D906780000083471506130500002330F600F0
S31500003DA06780000083472506130500002330F600D0
S31500003DB067800000833705061305000093D7870147
S31500003DC09397070393D707032330F6006780000015
S31500003DD0930700042330F6001305000067800000F7
S31500003DE083370507130500002330F60067800000BF
S31500003DF01305F0FF6780000083B7010213860500F4
S31500003E00B7E50C0003B58701130101FF93858572A1
S31500003E1023341100EF709A0AEF608A736308051065
S31500003E20130101FE233881000334850323349100F6
S31500003E30233C110093040500630A040013050400E3
S31500003E4003340400EF10D078E31A04FE03B604032B
S31500003E5003B584029305000013163600EFA09A30CE
S31500003E6003B5840223B0040423BC040293878405AB
S31500003E706304F500EF10D07503B40402630A04006E
S31500003E80832784001B87F7FF2324E40063060706C5
S31500003E9003B4040163020404832784001B87F7FF2D
S31500003EA02324E400631A0702833704001305040081
S31500003EB083B70701E78007008327C4001B87F7FF46
S31500003EC02326E400631A0700833704001305040061
S31500003ED083B78701E780070013850400EF10506F52
S31500003EE0833081010334010183348100130500000E
S31500003EF013010102678000008337040013050400E4
S31500003F0083B70701E78007008327C4001B87F7FFF5
S31500003F102326E400E31E07F6833704001305040096
S31500003F2083B78701E78007006FF09FF61305F0FF60
S31500003F30678000006308053A130101FB2334710111
S31500003F402334110423308104233C910223382103B6
S31500003F502334310323304103233C510123386101CB
S31500003F6023308101938B0600638C0634138B050086
S31500003F7063880534033A85009384F5FF930A0500A8
S31500003F8083674A0103368A01B384F400B307F0401D
S31500003F90B3F4F400630A0622130906008337890284
S31500003FA06384070E03B78703637897006F00C00D1D
S31500003FB003B78703636897001384070083B7070076
S31500003FC0E39807FE0336840103370401033C8403A8
S31500003FD08339040383368400630606282338E60003
S31500003FE00337040163040700233CC7002338040099
S31500003FF0233C04006386061C23B0F60083370400C6
S315000040006384070023B4D70083678901330C9C407F
S315000040102330040023340400637CFC0E833709023A
S315000040202330F4026384070023B4870283378A02AD
S315000040302330890213058001B384970023349A0242
S31500004040EF20905D23305501233435012338650177
S3150000405023B0AB0013050000833081040334010450
S31500004060833481030339010383398102033A010250
S31500004070833A8101033B0101833B8100033C01003C
S31500004080130101056780000003390900E31809F0F0
S3150000409083670A0183390A00138CF7FF330C9C00EF
S315000040A0B307F040337CFC008337860033073C01BE
S315000040B063F8E7128339060103360600B389370130
S315000040C0E31406FE83378A003387890163FAE71013
S315000040D037E50C0013050575EFA0DA5A37D40C0046
S315000040E0B7E50C001306F0FF93858576130584E18A
S315000040F0EFA01A23B7E50C001306F0FF93850579A8
S31500004100130584E1EFA0DA211305F0FF6FF0DFF469
S31500004110233C940213050004EF2010508337090353
S31500004120B389340123300500233405002338050004
S31500004130233C0500233005022334050223383503CA
S31500004140233C8503638C0718930600006F0040012B
S3150000415003B7070193860700630607149307070052
S3150000416003B70703E36637FF2338F500233CD50082
S315000041706380061423B8A60023BCA70083378902F0
S3150000418063840714930600006F00400103B707001D
S3150000419093860700630E070E9307070003B787038E
S315000041A0E366ECFE2330F5002334D5006386061063
S315000041B023B0A6008339040323B4A7006FF01FE6DB
S315000041C02334F9026FF0DFE383670A0183390A00BB
S315000041D0138CF7FF330C9C00B307F040337CFC00D4
S315000041E013058003EF20504383274A011309050076
S315000041F0233005002334350123388501232CF500AF
S315000042002330050213050004EF20104183378A018D
S31500004210233005002334050023380500233C050020
S31500004220233005022334050223383503233C850356
S315000042302338A9022334A902130405006388070062
S315000042408336890003B7870063F8E6022330F90056
S31500004250233C2A01636C9C08930700009306000028
S31500004260130700002338E902130600006FF09FD7FA
S3150000427003B787006378D7001386070083B7070064
S31500004280E39807FE2330F900233026016FF09FFCE8
S31500004290233005002334F5008339040323B0A70037
S315000042A06FF0DFD7233CF50023B8A7006FF01FEDB2
S315000042B02338A9026FF05FEC2334A9026FF09FEF59
S315000042C01305F0FF6FF05FD9233005002334050096
S315000042D0833904032334A9026FF05FD42338A9027B
S315000042E06FF0DFE91305F0FF678000008337800178
S315000042F0730010001304050013050900EF10502D7C
S3150000430013050400EF205A46630A0532130101FB28
S31500004310233471012334110423308104233C910298
S31500004320233821032334310323304103233C510135
S315000043302338610123308101930B0700630A072CA0
S31500004340130B06006306062C033A85009309F6FF55
S31500004350930A050083670A0103378A001384050060
S31500004360B389F900B307F040B3F9F900B384350116
S315000043706360972C83378A01639007026F000008F9
S315000043806366040363F496066372980263F086021A
S3150000439083B707006384070683B6870003B807015F
S315000043A033880601E37ED4FC63F4960437F50C00EB
S315000043B013050584EFA01A2D37D40C00B7E50C00C1
S315000043C01306F0FF9385857E130584E1EFA04A75F9
S315000043D0B7F50C001306F0FF93850581130584E1FC
S315000043E0EFA00A741305F0FF6F00400EE3E286FAB1
S315000043F0E3FE04FB83B70700E39007FA1305800387
S31500004400EF20902183274A01130C050013050004B1
S3150000441023300C0023348C0023383C01232CFC0071
S3150000442023300C02EF20501F83378A01233005000A
S315000044302334050023380500233C050023300502FC
S315000044402334050223388502233C35032338AC0286
S315000044502334AC02130905006388070083368C00F9
S3150000446003B7870063F0E60A2330FC0083278C013C
S31500004470233C8A0123380C0223380900233C090017
S3150000448023340C0223300900233409006386070A0B
S3150000449083370C022330F9026384070023B4270311
S315000044A083378A0223302C0313058001B389370131
S315000044B023343A03EF205016233055012334850068
S315000044C02338650123B0AB00130500008330810457
S315000044D003340104833481030339010383398102E0
S315000044E0033A0102833A8101033B0101833B8100C8
S315000044F0033C0100130101056780000003B7870034
S315000045006378D7001386070083B70700E39807FE92
S315000045102330FC0083278C012330860123380C02CC
S3150000452023380900233C090023340C0223300900F8
S3150000453023340900E39E07F413050004233C3903E2
S31500004540EF20900D83370C0323300500233405003C
S3150000455023380500233C05002330050223340502D9
S3150000456023389502233C05026380070C930600005E
S315000045706F00400103B70701938607006302070631
S315000045809307070003B70703E36697FE2338F50092
S31500004590233CD5006384060623B8A60023BCA700E7
S315000045A083378C02638A0706930600006F0040017A
S315000045B003B7070093860700630A070293070700FD
S315000045C003B78703E31607FE2330F5002334D5002F
S315000045D0638A060223B0A60023B4A7006FF05FEB40
S315000045E0233CF50023B8A7006FF09FFB233005009E
S315000045F02334F50023B0A7006FF09FE92338AC02FF
S315000046006FF0DFF92334AC0223B4A7006FF05FE844
S315000046101305F0FF6FF09FEB2330050023340500F0
S315000046202334AC026FF0DFE62338AC026FF05FF79D
S3150000463037E50C001305057C6FF0DFD71305F0FF97
S31500004640678000001304050013050C00EF10407886
S3150000465013050400EF205A11130101FD23308102D6
S3150000466023341102233C91002338210123343101E4
S3150000467013040000630C0506833705000337850025
S315000046809304050003B98700033489016304040811
S3150000469083378400636CF70683360401B387D7003B
S315000046A06376F70683350402639805006F000006FB
S315000046B083B50502638C050483B70503E31AF7FE89
S315000046C01305040083B98503EF10800183370402C4
S315000046D0638E07048337890213040000B3873741CA
S315000046E02334F90213850400EF10806E83308102B3
S315000046F013050400033401028334810103390101E7
S31500004700833981001301010367800000033404002C
S31500004710E31004F837F50C009305070013058587A9
S31500004720EFA00A401304F0FF6FF0DFFB8337890127
S31500004730638E0700639687006F0080036384870299
S315000047401387070083B70700E39A07FE03350403C0
S3150000475063040500EF10C06713050400EF104067FF
S315000047606FF05FF7833704002330F7006FF01FFE0A
S3150000477083370400233CF9006FF05FFD630A0500F0
S31500004780833785001305000023B0F500678000001D
S315000047901305F0FF6780000093070500630A050212
S315000047A0638C05008336850003B7860083B68602D0
S315000047B03307D74023B0E50013050000630C06005D
S315000047C083B7870083B787022330F600678000002F
S315000047D01305F0FF678000006308050C130101FC58
S315000047E023349102B7440F0023302103233C3101C7
S315000047F02338410113890424233C11022338810202
S31500004800130A0500938905009384F4231306810097
S315000048109305400113050A0023340100EF10802B95
S31500004820631C05028337810093F777002334F10078
S31500004830638C0704638A0904EF501A6913040500A0
S31500004840EF509A68B3078540B3872703E3FAF4FE6F
S315000048509389F9FF6FF09FFB37D40C00B7F50C0076
S31500004860130605009385858A130584E1EFA04A2B7C
S31500004870B7F50C001306F0FF9385058D130584E14B
S31500004880EFA00A2A1305F0FF8330810303340103E6
S31500004890833481020339010283398101033A01011C
S315000048A013010104678000001305F0FF6780000014
S315000048B0130101FC233C11022338810223349102A7
S315000048C023302103233C3101233841012334510194
S315000048D06306051E138405006382051E0337050162
S315000048E0B307D60083340500636AF71C03398500D5
S315000048F0330926019377F9036392071C9386F6031F
S3150000490083B7040793F906FC3307390163E8E71A0E
S31500004910376A260593050AC013850400EFF0DFEB1E
S31500004920930A0500631C050893D729006386090AC4
S3150000493093992700B38989003B098940130A0AC065
S315000049406F008000630A3409032604009305800083
S3150000495013850400EF10C016930705003B06890077
S31500004960930540001385040013044400639A070866
S31500004970EF10001593070500130640009305C000CD
S31500004980138504006396070AEF108013930705004A
S315000049901306200093050000138504006392070C9C
S315000049A0EF1000121306050093050A001385040094
S315000049B06310060EEFF05FE2E30605F837D40C004D
S315000049C0B7F50C001306F0FF938505A0130584E1E7
S315000049D0EFA00A15930AF0FF833081030334010325
S315000049E0833481020339010283398101033A0101CB
S315000049F013850A00833A81001301010467800000D1
S31500004A0037D40C00B7F50C00138607009385059084
S31500004A10130584E1EFA0CA10B7F50C001306F0FFEA
S31500004A2093858592130584E1EFA08A0F6FF05FF9F5
S31500004A3037D40C00B7F50C00138607009385059054
S31500004A40130584E1EFA0CA0DB7F50C001306F0FFBD
S31500004A5093858595130584E1EFA08A0C6FF05FF6C8
S31500004A6037D40C00B7F50C00138607009385059024
S31500004A70130584E1EFA0CA0AB7F50C001306F0FF90
S31500004A809385059A130584E1EFA08A096FF05FF319
S31500004A9037D40C00B7F50C0093850590130584E117
S31500004AA0EFA00A08B7F50C001306F0FF9385059DE5
S31500004AB0130584E1EFA0CA066FF09FF0930AF0FF9A
S31500004AC06FF09FF1130101FB23341104233081049D
S31500004AD0233C91022338210323343103233041033D
S31500004AE0233C5101638C051E130405006308051E53
S31500004AF003B70501B307D60083B405001389060082
S31500004B00636EF71C83B98500B309360193F7F90381
S31500004B106396071C9387F60303B7040793F707FC0E
S31500004B20B3873701636CF71A376A260593050AC0FF
S31500004B3013850400EFF05FCA930A05006310050AA7
S31500004B4013592900630A090A131929003309240194
S31500004B50BB898940130A0AC06F00C001EF00907735
S31500004B60631605148337810013044400232EF4FED4
S31500004B70630489083B868900930540001385040079
S31500004B80EF00107493070500130640009305C0005C
S31500004B901385040063960708EF00907293070500DB
S31500004BA01306100093050000138504006392070A9C
S31500004BB0EF0010711306050093050A001385040023
S31500004BC06310060CEFF05FC1930705001306810022
S31500004BD09305000113850400E38207F837D40C001F
S31500004BE0B7F50C001306F0FF938505A9130584E1BC
S31500004BF0EF901A73930AF0FF8330810403340104A3
S31500004C00833481030339010383398102033A0102A4
S31500004C1013850A00833A81011301010567800000AC
S31500004C2037D40C00B7F50C00138607009385059062
S31500004C30130584E1EF90DA6EB7F50C001306F0FF6A
S31500004C4093858595130584E1EF909A6D6FF05FF972
S31500004C5037D40C00B7F50C00138607009385059032
S31500004C60130584E1EF90DA6BB7F50C001306F0FF3D
S31500004C709385059A130584E1EF909A6A6FF05FF6C3
S31500004C8037D40C00B7F50C0093850590130584E125
S31500004C90EF901A69B7F50C001306F0FF938585A30C
S31500004CA0130584E1EF90DA676FF09FF337D40C00B9
S31500004CB0B7F50C00130605009385858A130584E174
S31500004CC0EF901A66B7F50C001306F0FF938585A6DC
S31500004CD0130584E1EF90DA646FF09FF0930AF0FF1A
S31500004CE06FF09FF1630E0504630C06048338050319
S31500004CF09397050293D70702B3F717030337850285
S31500004D00939637003307D70003380700630A080273
S31500004D1003370800832687006388D502033507001A
S31500004D2013080700630E0500832685001307050098
S31500004D30139506021355050233751503E38EA7FC7A
S31500004D401305F0FF6780000083370800E38A07FE3B
S31500004D5083A7C700130500002320F6006780000024
S31500004D601305000067800000630A050063880600DB
S31500004D7023B0060013050000678000001305F0FF4E
S31500004D8067800000130101FA233C110423388104D3
S31500004D902334910423302105233C31032338410376
S31500004DA023345103233061036308052493840500EB
S31500004DB0130A060013860500930540001304050038
S31500004DC0139B0402EF00D04F135B0B026318051808
S31500004DD013060A009305800013050400EF00504EE9
S31500004DE06318051A13064000930500001305040016
S31500004DF0EF00104D930905006316051C8335040367
S31500004E00833784023375BB02931A3500B387570183
S31500004E1003B60700630A06068337060003A7870062
S31500004E206386E40283B607006380060603A786004E
S31500004E30138607009317070293D70702B3F7B70243
S31500004E406314F50493870600E39EE4FC83370600AB
S31500004E501389C700638A070223204901833081052D
S31500004E60033401058334810403390104033A010341
S31500004E70833A8102033B01021385090083398103CA
S31500004E80130101066780000013050001EF10D078BA
S31500004E908337040503360404833504031309050028
S31500004EA09306100013058404233009002324990077
S31500004EB0232609002334F100EF10D4562338A1002D
S31500004EC0233CB1001375F50F631C050203378402FA
S31500004ED0B30A570183B70A006388070483B707003C
S31500004EE02330F90083B70A0023B02701833704046F
S31500004EF01309C900938717002330F4046FF0DFF518
S31500004F001306810013058402EF005022833A04033E
S31500004F1003378402B37A5B03939A3A00B30A5701C4
S31500004F2083B70A00E39C07FA83378403233C2403F0
S31500004F302330F900638E070083E787008336040376
S31500004F40B3F7D702939737003307F70023302701CB
S31500004F509307840323B0FA006FF05FF937D40C008F
S31500004F60B7F50C001306050093850590130584E13B
S31500004F70EF901A3BB7F50C001306F0FF938585AC4E
S31500004F80130584E1EF90DA399309F0FF6FF01FED16
S31500004F9037D40C00B7F50C00130605009385059071
S31500004FA0130584E1EF90DA37B7F50C001306F0FF2E
S31500004FB0938585AF130584E1EF909A369309F0FF48
S31500004FC06FF0DFE937D40C00B7F50C0013060500C7
S31500004FD093850590130584E1EF909A34B7F50C009C
S31500004FE01306F0FF938585B2130584E1EF905A33DB
S31500004FF09309F0FF6FF09FE69309F0FF6FF01FE64D
S315000050001304050013050900EF00905C1305040066
S31500005010EF109A75130101FC233C1102233881021B
S315000050202334910223302103233C310123384101EB
S315000050302334510123306101630E05441309050031
S3150000504013058007EF10505DB7F5FF0193957500C6
S3150000505013040500EF0090219307100093940702B4
S315000050602338F40283A701DB93098405130684061B
S3150000507093050002130504002334040023380400BA
S31500005080233C04002330040223343403233C04026B
S31500005090233004042324F40423380404233C0404A6
S315000050A023389406EF00D01E631205381306040653
S315000050B09305800113050400EF00901D6312053A65
S315000050C013050004EF105055B7F60C00938A86FCC2
S315000050D037070004B7060100033A04012338D50058
S315000050E013071700B7F6FF0F938414001306050184
S315000050F0939646001317C7002330550123349500B5
S31500005100233CD5002330E50223340502233C050267
S315000051102334C4002338A400630A0A0083278A00C4
S315000051201B87F7FF2324EA0063020716034A540687
S3150000513093041000339A440163FA44193706006059
S315000051409305100013050400EFF0DFC39304050078
S31500005150631C0510130600009305200013050400C8
S31500005160EFF05FC293040500630C051E13060500ED
S31500005170B7F50C0037D50C00938505C5130585E1F9
S31500005180EF901A1A03398403630A0900130509000C
S3150000519003390900EF00D043E31A09FE033604037E
S315000051A0033584029305000013163600EF908A7BC0
S315000051B00335840223300404233C04026384A900DB
S315000051C0EF00104103390402630A090283278900AC
S315000051D01B87F7FF2324E9006312070283370900C0
S315000051E01305090083B70701E78007008327C90075
S315000051F01B87F7FF2326E9006308071E033904010E
S31500005200630A0902832789001B87F7FF2324E90025
S3150000521063120702833709001305090083B70701E4
S31500005220E78007008327C9001B87F7FF2326E900CD
S315000052306306071C13050400EF00903983308103D1
S31500005240033401030339010283398101033A010161
S31500005250833A8100033B01001385040083348102F5
S31500005260130101046780000013060500B7F50C0062
S3150000527037D50C00938505C0130585E1EF905A0AD2
S3150000528003398403E31409F06FF05FF183370A00F2
S3150000529013050A0083B70701E78007008327CA00C2
S315000052A01B87F7FF2326EA00E31207E883370A0085
S315000052B013050A009304100083B78701E7800700EF
S315000052C0034A5406339A4401E3EA44E7130500040B
S315000052D0EF10903437071000033B04029394040246
S315000052E01307170093841400930605013706007F01
S315000052F01317C70023305501233495002338C50002
S31500005300233C45012330E50223340502233C0502F4
S31500005310233CD4002330A402E3020BE283278B0054
S315000053201B87F7FF2324EB00E31A07E083370B0004
S3150000533013050B0083B70701E78007008327CB001F
S315000053401B87F7FF2326EB00E31A07DE83370B00E4
S3150000535013050B0083B78701E78007006FF01FDE98
S31500005360130600009305300013050400EFF09FA11B
S3150000537093040500631C0502130600009305400014
S3150000538013050400EFF01FA093040500630E050249
S3150000539013060500B7F50C0037D50C00938505CD2F
S315000053A0130585E1EF90CA776FF09FED13060500B0
S315000053B0B7F50C0037D50C00938585C9130585E133
S315000053C0EF900A766FF0DFEB1306000093055000AE
S315000053D013050400EFF01F9B93040500631A0502F2
S315000053E0233089006FF09FE5833709001305090014
S315000053F083B78701E78007006FF05FE08337090016
S315000054001305090083B78701E78007006FF09FE265
S3150000541013060500B7F50C0037D50C00938585D02B
S31500005420130585E1EF90CA6F6FF09FE537D40C0046
S31500005430B7F50C0013060500938505B6130584E140
S31500005440EF900A6EB7F50C001306F0FF938505B8CA
S31500005450130584E1EF90CA6C9304F0FF6FF01FDE32
S3150000546037D40C00B7F50C0013060500938505B676
S31500005470130584E1EF90CA6AB7F50C001306F0FF36
S31500005480938505BC130584E1EF908A699304F0FFC8
S315000054906FF0DFDA9304F0FF6FF05FDA9304050034
S315000054A013050400EF00D01213850400EF10DA2B69
S315000054B06302051263800512630E0610130101FED6
S315000054C02334910083B48500233021019305100015
S315000054D0033986001B86040023388100233C110013
S315000054E013040500EFF01F8A6316050613D604425F
S315000054F09305200013050400EFF0DF88631C050602
