S01C00006770752D6576616C756174696F6E2D6C696768742E7372656312
S3150000000097810E009381015D97020000938282150D
S3150000001073905230732440F163100402970200007B
S315000000209382421573905230EF908A7C97120000AB
S31500000030938242DCE780020013132400970200003B
S315000000409382420CB302530003A302000F00F00F89
S31500000050E31C03FE173E1100130ECE6893134400F3
S31500000060B30E7E00138F8E0083BF0E0003310F0088
S31500000070970200009382021073905230732540F16C
S31500000080E7800F00130000001300000013000000BB
S31500000090130000001300000013000000130000000E
S315000000A013000000130000001300000013000000FE
S315000000B013000000130000001300000013000000EE
S315000000C013000000130000001300000013000000DE
S315000000D013000000130000001300000013000000CE
S315000000E013000000130000001300000013000000BE
S315000000F013000000130000001300000013000000AE
S3150000010073001000730010007300100073001000DD
S3150000011073001000730010007300100073001000CD
S3150000012073001000730010007300100073001000BD
S3150000013073001000730010007300100073001000AD
S3150000014013132500970300009383C3FBB3027300C8
S315000001500F00500F23A00200130500006780000067
S3150000016073001000130000001300000013000000CD
S3150000017073202034130101EF23301100233831009E
S31500000180233C41002330510223346102233871029B
S31500000190233C8102233091042334A1042338B10483
S315000001A0233CC1042330D1062334E1062338F1066B
S315000001B0233C01072330110923342109233831094F
S315000001C0233C41092330510B2334610B2338710B37
S315000001D0233C810B2330910D2334A10D2338B10D1F
S315000001E0233CC10D2330D10F2334E10F2338F10F07
S315000001F073250030F325103473262034233CA10EDA
S315000002002330B1102334C11063560600EF908A6D77
S315000002106F00C00093060100EF904A6C8330010026
S3150000022083310101033281018332010203338102EA
S3150000023083330103033481038334010403358104CA
S3150000024083350105033681058336010603378106AA
S31500000250833701070338810783380108033981088A
S3150000026083390109033A8109833A010A033B810A6A
S31500000270833B010B033C810B833C010C033D810C4A
S31500000280833D010D033E810D833E010E033F810F29
S31500000290833F011073100F3073901F34033F810E9C
S315000002A0833F010F1301011173002030000000008D
S315000002B00000000000000000000000000000000038
S315000002C00000000000000000000000000000000028
S315000002D00000000000000000000000000000000018
S315000002E00000000000000000000000000000000008
S315000002F000000000000000000000000000000000F8
S3150000030000000000000000000000000000000000E7
S3150000031000000000000000000000000000000000D7
S3150000032000000000000000000000000000000000C7
S3150000033000000000000000000000000000000000B7
S3150000034000000000000000000000000000000000A7
S31500000350130101FF1305800023341100EF208912D9
S31500000360B7A70D009387078237260900B7950D00BA
S315000003702330F5001306865B93858576EF6050166D
S31500000380130101FF1305800023341100EF20890FAC
S31500000390B7770D009387876837060800B7750D0095
S315000003A02330F500130686AA93850566EF60501381
S315000003B0130101FF1305800023341100EF20890C7F
S315000003C0B7770D009387876E37060800B7750D005F
S315000003D02330F5001306C6AF9385056CEF60501009
S315000003E0130101FF1305800023341100EF20890952
S315000003F0B7770D009387877437060800B7750D0029
S315000004002330F500130606B593850572EF60500D8F
S31500000410130101FE233881001304050013050001B2
S31500000420233C110023349100EF20C90593050400F5
S3150000043013040500EF70892637660900B7A50D007D
S315000004401306C6FC938585D313050400EF60500997
S315000004509304050013050400EF20490813850400E2
S31500000460EF605A36130101FE23388100130405009C
S3150000047013050001233C110023349100EF2089006D
S315000004809305040013040500EF70892637660900FA
S31500000490B7A50D001306C646938585D61305040039
S315000004A0EF6010049304050013050400EF20090310
S315000004B013850400EF601A31130101FE2338810011
S315000004C01304050013050001233C11002334910099
S315000004D0EF10597B9305040013040500EF704927BC
S315000004E037660900B7A50D001306C640938585D962
S315000004F013050400EF60C07E930405001305040095
S31500000500EF10D97D13850400EF60DA2B130101FE8D
S31500000510233881001304050013050001233C110054
S3150000052023349100EF101976930504001304050097
S31500000530EF70092837660900B7A50D001306C63403
S31500000540938585DC13050400EF608079930405002C
S3150000055013050400EF10997813850400EF609A26BE
S31500000560130101FE23388100130405001305000161
S31500000570233C110023349100EF10D9709305040039
S3150000058013040500EF70C92837660900B7A50D00EA
S315000005901306C63A938585DF13050400EF604074A1
S315000005A09304050013050400EF1059731385040026
S315000005B0EF605A21130101FE233881001304050060
S315000005C013050001233C110023349100EF10996BB1
S315000005D09305040013040500EF70892937660900A6
S315000005E0B7A50D001306C602938585E21305040020
S315000005F0EF60006F9304050013050400EF10196EF9
S3150000060013850400EF601A1C130101FE23388100D4
S315000006101304050013050001233C11002334910047
S31500000620EF1059669305040013040500EF7089293D
S3150000063037660900B7A50D001306C60E938505E5B6
S3150000064013050400EF60C069930405001305040058
S31500000650EF10D96813850400EF60DA16130101FE66
S31500000660233881001304050013050001233C110003
S3150000067023349100EF10196193050400130405005B
S31500000680EF70492A37660900B7A50D001306C61490
S31500000690938505E813050400EF6080649304050064
S315000006A013050400EF10996313850400EF609A1197
S315000006B0130101FE23388100130405001305000110
S315000006C0233C110023349100EF10D95B93050400FD
S315000006D013040500EF70092B37660900B7A50D0056
S315000006E01306C608938505EB13050400EF60405F0B
S315000006F09304050013050400EF10595E13850400EA
S31500000700EF605A0C130101FF13058000233411001A
S31500000710EF105957B7770D009387876E3706080095
S31500000720B7750D002330F5001306C6AF9385056C2B
S31500000730EF60005B130101FF1305800023341100F5
S31500000740EF105954B7770D00938787743706080062
S31500000750B7750D002330F500130606B593850572AF
S31500000760EF600058130101FF1305800023341100C8
S31500000770EF105951B7B70D00938707C737A6090081
S31500000780B7B50D002330F50013064668938585C47A
S31500000790EF600055130101FD233C91009304050011
S315000007A0130500032334110223308102EF10994D03
S315000007B013040500EF80095D930710002320F10064
S315000007C08335010013060500938604001305040013
S315000007D0EF80193EB7A70D009387076B130504003A
S315000007E02330F400EF50097E93050500130504023B
S315000007F0EFA0090137960900B7A50D00130686F488
S315000008009385056213050400EF60804DB7A70D00C0
S315000008109304050093878768130504002330F400CA
S31500000820EF90497D6F0080009304050013050400D6
S31500000830EF10D94A13850400EF60CA78130101FD51
S315000008402338210113090500130500032330810213
S31500000850233C91002334110293840500EF10994242
S315000008601304050063880400EF90191213060500AF
S315000008706F000001EF800951130605009304100074
S315000008802320910083350100930609001305040017
S31500000890EF801932B7A70D009387076B1305040085
S315000008A02330F400EF500972930505001305040286
S315000008B0EF90197537960900B7A50D00130686F453
S315000008C09385056213050400EF608041B7A70D000C
S315000008D09304050093878768130504002330F4000A
S315000008E0EF9049716F008000930405001305040022
S315000008F0EF10D93E13850400EF60CA6C130101FBAB
S31500000900233821031309050013050002233081044F
S31500000910233C91022334110423343103EF1099361A
S3150000092093040500130609009385010013050100D1
S31500000930EF90C9779305010013850400930901011F
S31500000940EF80D9670335010063043501EF50004E8F
S31500000950B7B70D001384010037A60900B7B50D001F
S31500000960938707AC130646FF938585A41385040079
S3150000097023B0F40023A8240123BC8400EF60403692
S315000009808337010013040500638A370113850700C6
S31500000990EF50C0496F008000130405001385040062
S315000009A0EF10D93313050400EF60CA61130101FF8C
S315000009B02330810037141100130504D123341100AC
S315000009C0EF700059930504D1033401008330810090
S315000009D037850000138601FA1305C5F613010101D8
S315000009E06F909A53130101FF2330810037141100D1
S315000009F0130504D223341100EF708055930504D2F9
S31500000A00033401008330810037850000138601FA24
S31500000A101305C5F6130101016F901A50B71711009F
S31500000A2003C787DC63160700130710002384E7DC7F
S31500000A30B717110003C707DC63160700130710007A
S31500000A402380E7DCB717110003C787DB63160700AF
S31500000A5013071000238CE7DAB717110003C707DB6B
S31500000A6063160700130710002388E7DAB71711008B
S31500000A7003C787DA63160700130710002384E7DA33
S31500000A80B717110003C707DA63160700130710002C
S31500000A902380E7DAB717110003C787D96316070063
S31500000AA013071000238CE7D8B717110003C707D91F
S31500000AB063160700130710002388E7D86780000035
S31500000AC0B717110003C787E4631607001307100062
S31500000AD02384E7E4B717110003C707E4631607008A
S31500000AE0130710002380E7E4B717110003C787E355
S31500000AF06316070013071000238CE7E2B7171100EF
S31500000B0003C707E363160700130710002388E7E20D
S31500000B10B717110003C787E2631607001307100013
S31500000B202384E7E2B717110003C707E2631607003D
S31500000B30130710002380E7E2B717110003C787E108
S31500000B406316070013071000238CE7E0B7171100A0
S31500000B5003C707E163160700130710002388E7E0C1
S31500000B6067800000B717110003C707EF6316070079
S31500000B70130710002388E7EEB717110003C787EEA7
S31500000B8063160700130710002384E7EEB71711005A
S31500000B9003C707EE63160700130710002380E7EE6E
S31500000BA0B717110003C787ED631607001307100078
S31500000BB0238CE7ECB717110003C707ED6316070090
S31500000BC0130710002388E7ECB717110003C787EC5B
S31500000BD063160700130710002384E7ECB71711000C
S31500000BE003C707EC63160700130710002380E7EC22
S31500000BF0B717110003C787EB63160700130710002A
S31500000C00238CE7EAB717110003C707EB6316070043
S31500000C10130710002388E7EAB717110003C787EA0E
S31500000C2063160700130710002384E7EAB7171100BD
S31500000C3003C707EA63160700130710002380E7EAD5
S31500000C40B717110003C787E96316070013071000DB
S31500000C50238CE7E867800000B717110003C707FB7E
S31500000C6063160700130710002388E7FAB717110069
S31500000C7003C787FA63160700130710002384E7FAF1
S31500000C80B717110003C707FA63160700130710000A
S31500000C902380E7FAB717110003C787F96316070021
S31500000CA013071000238CE7F8B717110003C707F9DD
S31500000CB063160700130710002388E7F8B71711001B
S31500000CC003C787F863160700130710002384E7F8A5
S31500000CD0B717110003C707F86316070013071000BC
S31500000CE02380E7F8B717110003C787F763160700D5
S31500000CF013071000238CE7F6B717110003C707F791
S31500000D0063160700130710002388E7F6B7171100CC
S31500000D1003C787F663160700130710002384E7F658
S31500000D20B717110003C707F663160700130710006D
S31500000D302380E7F6B717110003C787F56316070088
S31500000D4013071000238CE7F467800000130101FEEF
S31500000D5023349100B7140000233881009384041CC7
S31500000D60373411001304846713850400233C1100F3
S31500000D70233C9400EFC01A502338A40063020502F6
S31500000D802334A400233095002334050083308101E9
S31500000D9003340101833481001301010267800000DE
S31500000DA0233C0400233404006FF05FFE130101FFAF
S31500000DB02330810037A50900138601FA93850100C7
S31500000DC0130585FE23341100EF901A15138601FAD8
S31500000DD0033401008330810037A50900938581FF24
S31500000DE0130545FE130101016F901A130000000060
S31500000DF0EF801A20130401009302000063900202A0
S31500000E0017051100130505F017361100130606E441
S31500000E10B306A64093D53600EF809A1E97021100BE
S31500000E209382422E23B08200EF809A1FEF805A1CD5
S31500000E30EF80DA4BEF809A51EF80DA3717A50A0078
S31500000E4013054550EF904A77EFC0CA62EF805A1AF1
S31500000E50970211009382822103A502009382010169
S31500000E6083B5020013060000EF00400FEF909A0CC6
S31500000E7073001000000000000000000037850E001F
S31500000E8037870E00930705DD130707DD630AF700B2
S31500000E909307000063860700130505DD67800700DA
S31500000EA06780000037850E00930705DD37870E0043
S31500000EB0930507DDB385F54093D7354093D5F50304
S31500000EC0B385F50093D51540638A050093070000A6
S31500000ED063860700130505DD67800700678000004D
S31500000EE0130101FF2330810037141100834784105A
S31500000EF02334110063920702EFF05FF8B7970A00F8
S31500000F00938707396386070013858104EF804A4873
S31500000F10930710002304F41083308100033401008A
S31500000F201301010167800000B7970A00938707172E
S31500000F3063840702B7151100130101FF938505119C
S31500000F401385810423341100EF808A2283308100C7
S31500000F50130101016FF01FF56FF0DFF4130101F6C5
S31500000F60233C1108233881082334910823302109B2
S31500000F70233C310713050001EFC0DA2F13040500E7
S31500000F8013050001EFC01A2F930405009307000014
S31500000F90930600013307F4002300F7009387170038
S31500000FA0E39AD7FE93870400138704012380070082
S31500000FB093871700E39CE7FE2334010623300106DE
S31500000FC0233C0104233801042334010437D50C00E3
S31500000FD0130505B1EFD0DA6B13058106EF40400922
S31500000FE037D50C00130505B3EFD09A6A13068103B3
S31500000FF09305100003358106EF20105813060104EF
S315000010009305200003358106EF20105713060103D0
S315000010109305300003358106EF2010568336810391
S31500001020033601048335010337D50C00130505B5D6
S31500001030EFD0DA2FB7F90D009387099137790E00B3
S315000010401309C9213309F9409305090037D50C0066
S31500001050130585B8EFD09A2D9306010513060900EE
S315000010609385099103358106EF00C02C9305000294
S3150000107037D50C00130505BBEFD05A2B9306010696
S31500001080130610009305000103358106EF20906ECC
S315000010909305810203350106EF3040729306810500
S315000010A0130620009305000103358106EF20906C9E
S315000010B09305010203358105EF30407037D50C00EA
S315000010C0130585BDEFD0DA5C930700012334F100E8
S315000010D0833781022338F10083370102233CF10074
S315000010E0930681041306800193058100033581066A
S315000010F0EF0000399305000137D50C00130505BF35
S31500001100EFD0DA22930600011306000093050400CF
S3150000111003350106EF30C07D37D50C00130505C237
S31500001120EFD01A57930600011306000093850400BA
S3150000113003358105EF30C07B37D50C00130505C498
S31500001140EFD01A5503368104833501050335810630
S31500001150EF40C03B37D50C00130505C5EFD05A53F9
S31500001160B7652605938505C003358106EF30C06A4D
S315000011709305000137D50C00130585C7EFD01A1B60
S3150000118093060001130600008335810513850400CC
S31500001190EF3050179305000237D50C00130585CAAA
S315000011A0EFD0DA1803350106EF30004F033581051D
S315000011B0EF30804E03350105EF30004E03358104D4
S315000011C0EF30804D37D50C00130505CDEFD05A4CC6
S315000011D003358106EF2090481306000093070000B0
S315000011E0130500019B8507003387F400834607003B
S315000011F06398C604938717001B0626001376F60F1E
S31500001200E392A7FE37D50C00130505D3EFD05A4855
S3150000121013050400EFC0DA0613850400EFC05A0672
S3150000122013050000833081090334010983348108E2
S3150000123003390108833981071301010A6780000019
S3150000124037D50C00130505CFEFD05A0E37D50C0055
S31500001250130505D2EFD0DA436FF09FFBB7171100E5
S3150000126083B78705639A070037171100B747110040
S31500001270938787C4233CF704B717110083B7070584
S3150000128063980700B71711003707001023B8E70463
S3150000129067800000130101FE23388100233C110002
S315000012A02334910037141100834704D00F00F00F48
S315000012B093F7F70F63800702B7141100833081019B
S315000012C00334010103A584D0833481001301010294
S315000012D067800000130504D0EF50102DB7141100DD
S315000012E0E30E05FC37D50C00130505D423A404D062
S315000012F0EFC0CA0363060500EF904A2D23A4A4D0CD
S31500001300130504D0EF50903037450000938584D004
S31500001310138601FA130505CDEF900A40833081014B
S315000013200334010103A584D0833481001301010233
S3150000133067800000130101FC233C1102233881025F
S315000013402334910223302103233C31012338410108
S3150000135063040512938405006380051293078000D9
S315000013601309060063FAC710138A0600638606107F
S3150000137083B5050083B98400130781009306000036
S31500001380B389B94013860900EF20107C13040500C9
S315000013906314050403358100130909FF9306100041
S315000013A01306090093050000EF30901F1304050093
S315000013B063020506B7D50C0013060500938505DC08
S315000013C037D50C00130585D9EFD04A760335810051
S315000013D0EF30802C6F00C00113060500B7D50C0056
S315000013E037D50C00938585D5130585D9EFD00A74BA
S315000013F0833081031305040003340103833481021F
S315000014000339010283398101033A01011301010401
S31500001410678000000335810093063000338629413A
S3150000142093050900EF30D017130405006316050273
S315000014300335810093060900130600009385040115
S31500001440EF30004B1304050063100502833781005B
S315000014502330FA006FF0DFF9B7D50C00130605004C
S31500001460938585DF6FF0DFF5B7D50C001306050011
S31500001470938585E46FF0DFF41304F0FF6FF05FF7F8
S31500001480130101FC233C110223388102233491020B
S3150000149023302103233C31016308050E138905001F
S315000014A06384050E930406006300060E9389060006
S315000014B0638C060C930681001306100093850400C6
S315000014C0EF20502B13040500631405040335810037
S315000014D0938604001306000093050900EF3040418F
S315000014E013040500631205068337810083308103E8
S315000014F0130504000334010323B0F9008334810289
S315000015000339010283398101130101046780000058
S3150000151013060500B7D50C0037D50C00938585E773
S31500001520130585D9EFD08A60833081031305040043
S3150000153003340103833481020339010283398101B3
S31500001540130101046780000013060500B7D50C00DF
S3150000155037D50C00938505EB130585D9EFD00A5DC9
S3150000156003358100EF3040138330810313050400F7
S315000015700334010383348102033901028339810173
S3150000158013010104678000001304F0FF6FF0DFF918
S31500001590130101DE233C311F130601169389050052
S315000015A09305300023349120233C112023388120D9
S315000015B0233021212338411F2334511F2330611F3B
S315000015C0233C711D2338811D2334911D2330A11D19
S315000015D0233CB11B93040500233C01102330011268
S315000015E02334011223380112233C01122330011443
S315000015F02334011423380114233C0114EF20C0774F
S31500001600630005061309050013060500B7D50C008F
S3150000161037D50C00938505EE130585D9EFD00A5111
S315000016208330812103340121833481208339811F52
S31500001630033A011F833A811E033B011E833B811D32
S31500001640033C011D833C811C033D011C833D811B22
S3150000165013050900033901201301012267800000E8
S31500001660130681169305700013850400EF20C070E1
S31500001670130905006300050213060500B7D50C0023
S3150000168037D50C00938585F1130585D9EFD00A4A25
S315000016906FF01FF9033781169307100013950702A1
S315000016A0939517021396270293963702939747024C
S315000016B03375A700B375B7003376C700B376D70086
S315000016C0B377F700233CA1082330B10A2334C10ABB
S315000016D02330D10E2338F108EFF0DFBB833B011630
S315000016E023380100130A050063940B006F10501194
S315000016F013040000233C010C2338010C2334010C95
S315000017002330010C2338010A233C010A2330010847
S315000017102338010623340108233C0106233401063D
S3150000172023380102233C010223300104233C010437
S315000017302338010423300106233401042334010233
S3150000174023300102233C0100930D0000930A0000A0
S31500001750233C210F371900009306011713060400D6
S31500001760930509B013850400EF3000646304050097
S315000017706F10C0379306811713060400930529B02E
S3150000178013850400EF304062630405006F10403893
S31500001790930710006306FA66930720006310FA1495
S315000017A083370109638407006F0050678337810917
S315000017B0638407006F0050758337010A638407004E
S315000017C06F1080088337810AE3900754631804106A
S315000017D08337010E6388070A3719000093068111C3
S315000017E013060000930529B113850400EF30C05B92
S315000017F0630405006F1050389306011213060000AB
S31500001800930539B113850400EF30005A63040500CF
S315000018106F1050349306811213060000930549B1E8
S3150000182013850400EF304058630405006F10D03D67
S315000018309306011313060000930559B1138504009E
S31500001840EF308056630405006F10D039930681137C
S3150000185013060000930569B113850400EF30C054E8
S31500001860630405006F10D0359306011413060000BB
S31500001870930579B113850400EF3000536304050026
S315000018806F10D0313719000093068114130600003B
S31500001890930589B113850400EF30005163040500F8
S315000018A06F10407E9306011513060000930599B14B
S315000018B013850400EF30404F630405006F10407A33
S315000018C093068115130600009305A9B1138504003C
S315000018D0EF30804D630405006F10001F833B011637
S315000018E003390117033B811713050000630409023E
S315000018F013050B00EF004A40130C05001305090001
S31500001900EF008A3F9305050013050C00EFF009432D
S31500001910EF200A389307100063FA7703EF200A0ACC
S31500001920B7E50C00930705001307090093060B00A3
S31500001930130604009385850613850900EF90DA588F
S31500001940833B0116033B81170339011783370101D6
S31500001950B38A6A01B38D2D0163F42701233821016F
S315000019601B0414009317040293D70702E3E477DFFE
S315000019700339810F930710006314FA006F10801B60
S31500001980930720006310FA428337810A638A071E91
S315000019900337010B8337810B930C0000335D77030C
S315000019A00337010C335477030337810CB3547703A1
S315000019B00337010D335A77030337810DB3DD770300
S315000019C0335B770363E4770513050400EF00CA323F
S315000019D0130C050013850D00EF000A329305050070
S315000019E013050C00EFF08935B7870E009305050047
S315000019F003B587DDEFF01950B7870E0083B507DD15
S31500001A00EFF01914EF008A209B0C05008337010BB9
S31500001A10130C000063E4770513850400EF00CA2D5C
S31500001A20930B050013050D00EF000A2D9305050025
S31500001A3013850B00EFF08930B7870E00930505007C
S31500001A4003B587DDEFF0194BB7870E0083B507DDC9
S31500001A50EFF0190FEF008A1B1B0C05003385AD0153
S31500001A60B3074501233CF100930B0000638C07028A
S31500001A70EF008A2883378101930B05001385070041
S31500001A80EF008A279305050013850B00EFF0092B5D
S31500001A90B7870E0083B507DDEFF0990AEF000A1746
S31500001AA09B0B05003305940033076501233CE100D9
S31500001AB093070000630E0702EF000A240337810133
S31500001AC02330A10213050700EF000A238337010222
S31500001AD09305050013850700EFF04926B7870E002A
S31500001AE083B507DDEFF0D905EF004A129B07050025
S31500001AF0B7E50C009385052213860D0013850900B2
S31500001B00233CF100EF905A3CB7E50C0013060D009C
S31500001B109385052413850900EF901A3BB7E50C0061
S31500001B2093860C0013060400938505261385090089
S31500001B30EF909A39B7E50C0093060C001386040063
S31500001B409385052913850900EF901A38B7E50C002F
S31500001B5093860B0013060A009385852C13850900CE
S31500001B60EF909A3683378101B7E50C0013060B0018
S31500001B70938607009385053013850900EF90DA34C4
S31500001B808337010E638E071A033A8111833481125B
S31500001B90930B000063040A0413850400EF00CA15C2
S31500001BA01304050013050A00EF000A159305050046
S31500001BB013050400EFF08918B7870E00930505009A
S31500001BC003B587DDEFF01933B7870E0083B507DD60
S31500001BD0EFF00977EF008A039B0B0500033401122F
S31500001BE0833C0113130B00006304040413850C00EB
S31500001BF0EF008A10130B050013050400EF00CA0F4F
S31500001C009305050013050B00EFF04913B7870E0087
S31500001C109305050003B587DDEFF0D92DB7870E00D4
S31500001C2083B507DDEFF0C971EFF0597E1B0B050098
S31500001C3033058A0003348113130C00003304850036
S31500001C40630A0402EF004A0B130C05001305040097
S31500001C50EF008A0A9305050013050C00EFF0090E44
S31500001C60B7870E0083B507DDEFF0896DEFF0197ABF
S31500001C701B0C050003340114338594019304000002
S31500001C8033048500630A0402EF000A079304050083
S31500001C9013050400EF004A069305050013850400AA
S31500001CA0EFF0C909B7870E0083B507DDEFF0496984
S31500001CB0EFF0D9759B040500B7E50C0013060A0082
S31500001CC09385853313850900EF901A200336011298
S31500001CD0B7E50C009385853513850900EF90DA1E6C
S31500001CE003368112B7E50C0093860B009385853782
S31500001CF013850900EF905A1D03360113B7E50C0052
S31500001D0093060B009385853A13850900EF90DA1B3D
S31500001D1003368113B7E50C0093060C009385053E48
S31500001D2013850900EF905A1A03360114B7E50C0023
S31500001D30938604009385854113850900EF90DA1890
S31500001D40833481140335811513040000638404026F
S31500001D50EFF0997A1304050013850400EFF0D979A2
S31500001D609305050013050400EFE0597DEFF0196AAD
S31500001D701B04050003370115B7E50C0093850545DF
S31500001D803386E4009386040013850900EF90DA1386
S31500001D90B7E50C00130604009385854813850900F2
S31500001DA0EF909A128334010113070000638804023E
S31500001DB013850A00EFF05974130405001385040017
S31500001DC0EFF099739305050013050400EFE019770A
S31500001DD0EF101A6CEF109A3E1307050083360101C7
S31500001DE0B7E50C0013860A009385854A138509001A
S31500001DF0EF909A0D13850900EF900A056FF05F8248
S31500001E009306811A13060400930539B0138504005E
S31500001E10EF20907913070500630405006F1040005A
S31500001E20833701160339811A637EFA04033B0117CF
S31500001E30630C0B0213050900EFF0196C930B0500F8
S31500001E4013050B00EFF0596B9305050013850B0086
S31500001E50EFE0D96EB7870E0083B507DDEFF0494E88
S31500001E60EFF0D95A1B070500B7D50C0093060900F9
S31500001E70130604009385850213850900EF90DA04A2
S31500001E800339811AB71500009306811A1306040058
S31500001E90938545B013850400EF20107183378101C7
S31500001EA013070500B3872701233CF10063040500EF
S31500001EB06F00907983360116930710000339811A53
S31500001EC063FED704033B0117630C0B0213050900DD
S31500001ED0EFF09962930B050013050B00EFF0D96143
S31500001EE09305050013850B00EFE05965B7870E00D3
S31500001EF083B507DDEFF0C944EFF059511B07050024
S31500001F00B7D50C0093060900130604009385850ACD
S31500001F1013850900EF904A7B0339811AB715000033
S31500001F209306811A13060400938555B013850400A1
S31500001F30EF2090678337010213070500B387270157
S31500001F402330F102630405006F00507183360116D9
S31500001F5093071000033B811A63FED7040339011768
S31500001F60630C090213050B00EFF01959930B0500DA
S31500001F7013050900EFF059589305050013850B006A
S31500001F80EFE0D95BB7870E0083B507DDEFF0493B7D
S31500001F90EFF0D9471B070500B7D50C0093060B00D9
S31500001FA0130604009385851213850900EF90CA7104
S31500001FB0033B811A37190000930601181306040023
S31500001FC0930569B013850400EF20105E8337810204
S31500001FD0B38767012334F102630405006F0050697B
S31500001FE09306811813060400930589B0138504002F
S31500001FF0EF20905B630405006F00D069930601191A
S3150000200013060400930599B013850400EF20D059F8
S31500002010630405006F00506A9306811913060400D5
S315000020209305A9B013850400EF201058630405003A
S315000020306F00D06A9306011A130604009305C9B00F
S3150000204013850400EF205056630405006F00506BA3
S315000020509306811A130604009305D9B0138504006C
S31500002060EF209054930B0500630405006F00906BFE
S31500002070833501058337811883360119033D81199C
S31500002080B385F5002338B10483358105833C011AF5
S31500002090033C811AB385D500233CB1048335010482
S315000020A00336011613071000B385A5012330B104CA
S315000020B083358103033B0118B3859501233CB102A7
S315000020C083350103B38585012338B102637EC716C4
S315000020D0033601173389D7003309A901330999015A
S315000020E02334C10E3309890113070000630806046F
S315000020F013050B002334D1102330F110EFF0D93F34
S315000021000336810E2338A10E13050600EFF0D93EE3
S315000021100337010F9305050013050700EFE0194289
S31500002120B7870E0083B507DDEFF08921EFF0192E92
S3150000213083368110833701101B0705002338D10E23
S315000021402334F10E6302094C130509002330E11014
S31500002150EFF0993A8337810E13090500B78B0E000D
S3150000216013850700EFF0593993050900EFE0193D93
S3150000217083B50BDDEFF0C91CEFF059298336010F4B
S315000021809B0705002334F10E13850600EFF0D936C0
S3150000219093050900EFE0993A83B50BDDEFF0491A94
S315000021A0EFF0D9261308050013050D001B0D0800D6
S315000021B0EFF0993493050900EFE0593883B50BDD4C
S315000021C0EFF00918EFF099249308050013850C0029
S315000021D09B8C0800EFF0593293050900EFE01936A1
S315000021E083B50BDDEFF0C915EFF059229B0B050007
S315000021F013050C00EFF0593093050900EFE0193490
S31500002200B7870E0083B507DDEFF08913EFF01920CD
S315000022108337810E033701101B050500B7D50C0067
S3150000222093060B002334A1002330710193880C0020
S3150000223013080D0013060400938505321385090063
S31500002240EF908A48033B0118B71500009306811AE0
S3150000225013060400938575B013850400EF20D0346F
S315000022608337810413070500B38767012334F1041C
S31500002270E31A054C83360116930710000339811AB9
S3150000228063FED704033B0117630C0B021305090019
S31500002290EFF09926930B050013050B00EFF0D925F7
S315000022A09305050013850B00EFE05929B7870E004B
S315000022B083B507DDEFF0C908EFF059151B070500D8
S315000022C0B7D50C0093060900130604009385853DD7
S315000022D013850900EF904A3F0339811AB7150000AC
S315000022E09306011A130604009385E5B013850400CE
S315000022F0EF20902B83370106B38727012330F106A1
S31500002300E31C054483360116130710008337011AB0
S315000023106366D71803378106B71500009306811A3E
S31500002320B307F70013060400938515B1138504005F
S315000023302334F106EF20502793060500E3100544E9
S3150000234003360116130710008337811A6376C70414
S315000023500339011A6306090213850700EFF0D9193C
S31500002360130B050013050900EFF019199305050075
S3150000237013050B00EFE0991CEFF059099B060500C9
S31500002380B7D50C00130604009385054C1385090088
S31500002390EF908A338337811A03370107B715000098
S315000023A09306011AB307F700130604009385F5B0E8
S315000023B0138504002338F106EF20101FE314053EB1
S315000023C083360116130710008337011A6368D70E88
S315000023D003378107B71500009306811AB307F70084
S315000023E013060400938525B113850400233CF106EA
S315000023F0EF20901B93060500E318053C03360116F3
S31500002400130710008337811A6376C7040339011A4C
S315000024106306090213850700EFF0190E130B05007A
S3150000242013050900EFF0590D9305050013050B0080
S31500002430EFE0D910EFF0897D9B060500B7D50C00BB
S31500002440130604009385855913850900EF90CA2762
S315000024508337811A03370108B71500009306811ADE
S31500002460B307F70013060400938505B1138504002E
S315000024702330F108EF205013E3120536833B011693
S31500002480930710008336811A63EA7705833781083C
S31500002490B387D7002334F1086FF08FC4B7D50C008B
S315000024A093860700130604009385054513850900E6
S315000024B0EF908A218337011A6FF0DFE5B7D50C005C
S315000024C093860700130604009385055313850900B8
S315000024D0EF908A1F8337011A6FF09FEFB7D50C0074
S315000024E0130604009385856013850900EF90CA1DC5
S315000024F0833781088336811A833B0116B387D70059
S315000025002334F1086FF0CFBD371900009306811A06
S31500002510130604009305C9B013850400EF20D00804
S31500002520E318054C0337810B8337811A9306811A0A
S3150000253013060400B307F7009305D9B0138504000A
S31500002540233CF10AEF205006E316054C0337010B36
S315000025508337811A9306811A13060400B307F7001E
S315000025609305E9B0138504002338F10AEF20D00360
S31500002570E31A05540337010C8337811A9306811A2F
S3150000258013060400B307F7009305F9B0138504009A
S315000025902330F10CEF205001E31A05560337810C66
S315000025A08337811A9306811A13060400B307F700CE
S315000025B0930509B1138504002334F10CEF20C07E86
S315000025C0E31405520337010D8337811A9306811AE6
S315000025D013060400B307F700930519B11385040029
S315000025E02338F10CEF20407CE31405540337810DAA
S315000025F08337811AB307F700233CF10C63140400F8
S315000026006FF00F9D6FF08FAD13050000930700006C
S31500002610930C0000130D00006FF05FC09306811944
S31500002620130604009305B9B113850400EF20C077A3
S31500002630E314052A9306011A130604009305C9B18B
S3150000264013850400EF204076E31A052A9306811AC3
S31500002650130604009305D9B113850400EF20C07456
S31500002660130B0500E310052E833B81190335011A70
S315000026700339811A3385AB0033092501630A090240
S31500002680EFF08967130B050013050900EFF0C96623
S315000026909305050013050B00EFE0496AB7870E00A6
S315000026A083B507DDEFE0D949EFF049561B0B05006E
S315000026B0B7D50C0093860B0013060400938585702E
S315000026C013850900EF904A008336011AB7D50C002E
S315000026D0130604009385857213850900EF80DA7E60
S315000026E08336811AB7D50C0013070B0013060400B6
S315000026F09385857413850900EF801A7D83378109D8
S31500002700639407006FF04F8B371900009306811909
S3150000271013060400930539B013850400EF20C06842
S31500002720E31005209306011A13060400930549B029
S3150000273013850400EF204067E31A05289306811AE3
S3150000274013060400930559B013850400EF20C065F5
S31500002750930B0500E31C0524033C8119833C011AF5
S315000027601309000063040C0413850C00EFF0C9582C
S315000027701309050013050C00EFF009589305050031
S3150000278013050900EFE0895BB7870E009305050086
S3150000279003B587DDEFE01976B7870E0083B507DD51
S315000027A0EFE0193AEFF089461B090500033B811A51
S315000027B0338B6C01630C0B0213850C00EFF0C953CD
S315000027C0930B050013050B00EFF009539305050065
S315000027D013850B00EFE08956B7870E0083B507DD3A
S315000027E0EFE01936EFF089429B0B0500B7E50C00C8
S315000027F093060C001306040093858586138509004D
S31500002800EF809A6C8336011AB7E50C0013070900AE
S31500002810130604009385858813850900EF80DA6A1C
S315000028208336811AB7E50C0013870B0013060400E4
S315000028309385058C13850900EF801A698337010A91
S31500002840639407006FE01FF837190000930601181C
S3150000285013060400930569B013850400EF20C054E5
S31500002860E31405129306811813060400930579B044
S3150000287013850400EF204053E316050E9306011955
S3150000288013060400930589B013850400EF20C05198
S31500002890E316051C9306811913060400930599B0E7
S315000028A013850400EF204050E31805189306011A1B
S315000028B0130604009305A9B013850400EF20C04E4B
S315000028C0E310051E9306811A130604009305B9B09A
S315000028D013850400EF20404D130B0500E312051A83
S315000028E0833B011803390119130D000063840B049F
S315000028F013050900EFF04940130C050013850B0082
S31500002900EFF0893F9305050013050C00EFE009433E
S31500002910B7870E009305050003B587DDEFE0995DE7
S31500002920B7870E0083B507DDEFE09921EFF0092E9A
S315000029301B0D0500033C811803378119930C000019
S3150000294063080C04130507002334E10EEFF0C93ABF
S31500002950930C050013050C00EFF0093A93050500EA
S3150000296013850C00EFE0893DB7870E00930505003F
S3150000297003B587DDEFE01958B7870E0083B507DD8D
S31500002980EFE0191CEFF089280337810E9B0C050038
S315000029908337011A33858B01130C0000B307F5004A
S315000029A02334F10E638007042338E10EEFF0C934B7
S315000029B08337810E130C050013850700EFF0C9332A
S315000029C09305050013050C00EFE04937B7870E00A5
S315000029D083B507DDEFE0D916EFF049230337010F82
S315000029E01B0C05003305E9000339811A330925015B
S315000029F0630A0902EFF04930130B050013050900BD
S31500002A00EFF0892F9305050013050B00EFE009335E
S31500002A10B7870E0083B507DDEFE09912EFF0091FC7
S31500002A201B0B0500B7E50C0093860B00130604008C
S31500002A30938585AD13850900EF801A498336811881
S31500002A40B7E50C0013060400938585AF13850900CE
S31500002A50EF809A4783360119B7E50C0013070D007E
S31500002A6013060400938505B213850900EF80DA4545
S31500002A7083368119B7E50C0013870C001306040092
S31500002A80938585B513850900EF801A448336011AAC
S31500002A90B7E50C0013070C0013060400938505B96F
S31500002AA013850900EF805A428336811AB7E50C0078
S31500002AB013070B0013060400938505BD1385090053
S31500002AC0EF809A406FE01FD0130B05001306050038
S31500002AD0B7E50C0037D50C0093858502130585D91B
S31500002AE0EFC0CA0413090B006FE09FB3930B0500F8
S31500002AF013060500B7D50C0037D50C00938505F5F0
S31500002B00130585D9EFC08A0213890B006FE05FB108
S31500002B10930B050013060500B7D50C0037D50C003E
S31500002B20938505F9130585D9EFC04A0013890B0073
S31500002B306FE01FAF638A0D5613850D00EFF0C91BBA
S31500002B401304050003358101B7840E00EFF0C91A9E
S31500002B5093050400EFE0891E83B504DDEFE0497EAE
S31500002B60EFF0C90A9B0C050003350102EFF0C91806
S31500002B7093050400EFE0891C83B504DDEFE0497C92
S31500002B80EFF0C9081B0C050003358102EFF0C916EA
S31500002B9093050400EFE0891A83B504DDEFE0497A76
S31500002BA0EFF0C9069B0B050003358104EFF0C9144D
S31500002BB093050400EFE0891883B504DDEFE049785A
S31500002BC0EFF0C9041B0B050003350106EFF0C9122F
S31500002BD093050400EFE0891683B504DDEFE049763E
S31500002BE0EFF0C9021B0A0500033D810693040000AD
S31500002BF063060D0203350107EFF009101304050003
S31500002C0013050D00EFF0490F9305050013050400A9
S31500002C10EFE0C912EFE0997F9B040500033D8107B1
S31500002C201304000063060D0203350108EFF0C90C1A
S31500002C301304050013050D00EFF0090C93050500BC
S31500002C4013050400EFE0890FEFE0597C1B04050033
S31500002C500337810383370103033D0105833D810566
S31500002C6003380104B387E70003368101B387A70160
S31500002C70B7E50C00B387B70193860C0093858509E9
S31500002C8013850900B38C0701EF801A24033601026D
S31500002C90B7E50C0093060C009385050C1385090017
S31500002CA0EF809A2203368102B7E50C0093860B006B
S31500002CB09385850E13850900EF801A2163820C40E7
S31500002CC013850C00EFF04903930B050013050D0067
S31500002CD0EFF0890293850B00378C0E00EFE00906B2
S31500002CE083350CDDEFE0C965EFE059729B0C0500FA
S31500002CF013850D00EFF0490093850B00EFE0090402
S31500002D0083350CDDEFE0C963EFE059701B0D05005C
S31500002D1003350104EFE0597E93850B00EFE00902CD
S31500002D2083350CDDEFE0C961EFE0596E9B0D0500C0
S31500002D3003358103EFE0597C93850B00EFE0090032
S31500002D4083350CDDEFE0C95FEFE0596C9B080500A9
S31500002D5003350103233C1101EFE0197A93850B003B
S31500002D60EFD0D97D83350CDDEFE0895DEFE0196AA0
S31500002D70833881019B06050003368104B7E50C0004
S31500002D8013880D0093070D0013870C002330D10024
S31500002D909385051193060B0013850900EF80DA125F
S31500002DA003360106B7E50C0093060A00938505175E
S31500002DB013850900EF805A1103368106B7E50C002A
S31500002DC09385851913850900EF801A10033681074C
S31500002DD0B7E50C009385051B13850900EF80DA0E15
S31500002DE003368108B7E50C009385851C1385090019
S31500002DF0EF809A0DB7E50C00138604009385051E37
S31500002E0013850900EF805A0CB7E50C001306040081
S31500002E109385052013850900EF801A0B6FE09FF854
S31500002E20B7D50C00130605002338A100938585FD50
S31500002E3037D50C00130585D9EFB05A4F033701017A
S31500002E40130907006FE0CFFDB7D50C001306050088
S31500002E502338A100938585056FF09FFDB7D50C003B
S31500002E60130605002338A1009385850D6FF05FFCDE
S31500002E70930B050013060500B7D50C0037D50C00DB
S31500002E8093858515130585D9EFB05A4A13890B002A
S31500002E906FE00FF9930B050013060500B7D50C007C
S31500002EA037D50C009385851A130585D9EFB01A48D6
S31500002EB013890B006FE0CFF6930B05001306050090
S31500002EC0B7D50C0037D50C009385051F130585D99A
S31500002ED0EFB0DA4513890B006FE08FF4930B050012
S31500002EE013060500B7D50C0037D50C00938585234E
S31500002EF0130585D9EFB09A4313890B006FE04FF2A3
S31500002F00930B050013060500B7D50C0037D50C004A
S31500002F1093850528130585D9EFB05A4113890B000F
S31500002F206FE00FF013060500B7D50C0037D50C007F
S31500002F309385052D130585D9EFB05A3F13890B00EC
S31500002F406FE00FEEB7D50C00130605002338A1007D
S31500002F50938585386FF0DFED130B0500130605002A
S31500002F60B7D50C0037D50C0093858540130585D958
S31500002F70EFB0DA3B13090B006FE08FEAB7D50C0010
S31500002F80130605002338A1009385054737D50C00A5
S31500002F90130585D9EFB09A398336010113890600E6
S31500002FA06FE00FE8130B050013060500B7D50C00FC
S31500002FB037D50C009385854E130585D9EFB01A37A2
S31500002FC013090B006FE0CFE5B7D50C00130605001B
S31500002FD02338A100938505556FF05FFB130B0500A1
S31500002FE013060500B7D50C0037D50C009385055C94
S31500002FF0130585D9EFB09A3313090B006FE04FE242
S31500003000233C010C2338010C2334010C2330010C22
S315000030102338010A233C010A23300108233801061C
S3150000302023340108233C0106233401062338010218
S31500003030233C010223300104233C0104233801040C
S315000030402330010623340104233401022330010214
S31500003050233C0100930D0000930A00006FE09F914E
S31500003060930B050013060500B7E50C0037D50C00D9
S31500003070938505FE130585D9EFB05A2B13890B00EE
S315000030806FE00FDA930B050013060500B7E50C0099
S3150000309037D50C00938585F9130585D9EFB01A2924
S315000030A013890B006FE0CFD7130A0000930C0000C2
S315000030B0130C0000930B0000130B00006FF0DFB23F
S315000030C093060000930C0000130D0000930D000002
S315000030D0930800006FF05FCA930B05001306050006
S315000030E0B7D50C0037D50C0093858562130585D9B5
S315000030F0EFB0DA2313890B006FE08FD2930B050034
S3150000310013060500B7D50C0037D50C009385056767
S31500003110130585D9EFB09A2113890B006FE04FD0C4
S31500003120930B050013060500B7D50C0037D50C0028
S3150000313093850578130585D9EFB05A1F13890B00BF
S315000031406FE00FCE13060500B7D50C0037D50C007F
S315000031509385856B130585D9EFB05A1D13090B00AE
S315000031606FE00FCC930B050013060500B7E50C00C6
S3150000317037D50C0093858594130585D9EFB01A1BB6
S3150000318013890B006FE0CFC9930B050013060500EA
S31500003190B7E50C0037D50C0093850590130585D946
S315000031A0EFB0DA1813890B006FE08FC7130605001E
S315000031B0B7E50C0037D50C0093858581130585D9B5
S315000031C0EFB0DA1613890B006FE08FC5930B05007D
S315000031D013060500B7D50C0037D50C009385857C02
S315000031E0130585D9EFB09A1413890B006FE04FC30E
S315000031F0930B050013060500B7E50C0037D50C0048
S31500003200938505C1130585D9EFB05A1213890B00B2
S315000032106FE00FC1930B050013060500B7E50C0020
S3150000322037D50C00938505C5130585D9EFB01A105F
S3150000323013890B006FE0CFBE930B05001306050044
S31500003240B7E50C0037D50C009385859E130585D907
S31500003250EFB0DA0D13890B006FE08FBC930B0500FE
S3150000326013060500B7E50C0037D50C009385859944
S31500003270130585D9EFB09A0B13890B006FE04FBA8F
S3150000328013060500B7E50C0037D50C00938585A815
S31500003290130585D9EFB09A0913090B006FE04FB8F3
S315000032A0930B050013060500B7E50C0037D50C0097
S315000032B0938585A3130585D9EFB05A0713890B00AB
S315000032C06FE00FB6930B050013060500B7E50C007B
S315000032D037D50C00938505C9130585D9EFB01A05B6
S315000032E013890B006FE0CFB3930B0500130605009F
S315000032F0B7E50C0037D50C00938505D1130585D9A4
S31500003300EFB0DA0213890B006FE08FB1930B050063
S3150000331013060500B7E50C0037D50C00938505CDDF
S31500003320130585D9EFB09A0013890B006FE04FAFF4
S31500003330130B050013060500B7E50C0037D50C0086
S31500003340938585D5130585D9EFB04A7E13090B0001
S315000033506FE00FAD930B050013060500B7E50C00F3
S3150000336037D50C00938505DF130585D9EFB00A7CA8
S3150000337013890B006FE0CFAA930B05001306050017
S31500003380B7E50C0037D50C00938505DA130585D90A
S31500003390EFB0CA7913890B006FE08FA8130B0500F5
S315000033A013060500B7E50C0037D50C00938505F428
S315000033B0130585D9EFB08A7713090B006FE04FA686
S315000033C0930B050013060500B7E50C0037D50C0076
S315000033D0938585EE130585D9EFB04A7513890B00E1
S315000033E06FE00FA4930B050013060500B7E50C006C
S315000033F037D50C00938505E9130585D9EFB00A7317
S3150000340013890B006FE0CFA1930B0500130605008F
S31500003410B7E50C0037D50C00938505E4130585D96F
S31500003420EFB0CA7013890B006FE08F9F130101FA8A
S3150000343023349104233C3103938405009309060049
S31500003440930520001306810023302105233C110437
S31500003450233881042338410323345103130905001B
S31500003460EF0090116304050413040500130605001C
S31500003470B7E50C0037D50C009385054D130585D9A6
S31500003480EFB0CA6A833081051305040003340105D1
S31500003490833481040339010483398103033A010328
S315000034A0833A8102130101066780000013060101B9
S315000034B09305100013050900EF00100C1304050016
S315000034C063100506033A8100833A01013B065A035D
S315000034D063649608E38809FA130681019305600080
S315000034E013050900EF0050091304050063180504CD
S315000034F0939704021387FAFF93D70702B307F700DF
S31500003500B3D757039B870700335AFA0283378101E3
S315000035101B0A0A0033DA470323A049016FF09FF61E
S3150000352013060500B7E50C0037D50C009385055149
S31500003530130585D9EFB08A5F6FF0DFF41306050037
S31500003540B7E50C0037D50C009385055A130585D9C8
S31500003550EFB0CA5D6FF01FF337E50C0093850400EA
S3150000356013050555EFB08A5C1304F0FF6FF09FF169
S31500003570130101DB2334112423308124233C9122BF
S31500003580233821232334312323304123233C512163
S315000035902338612123347121233081216302052ED2
S315000035A093840500638E052C130B0600630A062C14
S315000035B0930A05001305810FEF405426B7470D0007
S315000035C0938787F103B48700231C011C83BB070183
S315000035D0833784FE37590D001309090613070120A6
S315000035E0B307F700233C210F2338011C2330011EAB
S315000035F02334011E2338011E233C011E233C810077
S3150000360023BC77E123300102033584FE9307810151
S31500003610930500003385A700EF30D47E374A0D00AE
S31500003620B7490D00130A0AF5938989F71305810234
S31500003630233C4101233C310FEFA0436D93058102EA
S315000036401305810FEF30147C130680009385040068
S3150000365013058102EFB0032483378101130781012B
S3150000366083B787FEB307F7006306051C93050000C2
S3150000367013850700EF3014028327811193F7570053
S31500003680639C0712130620009305000013058101B1
S31500003690EF80841F13058101EF70947A2334A10013
S315000036A02338B100930405006340051E630E051818
S315000036B0EF30407C1386040093050000130C0500D0
S315000036C0EFB00A2B130600009305000013058101D5
S315000036D0EF80841B1386040093050C0013058101FB
S315000036E0EF70141893060B001386040093050C0064
S315000036F013850A00EFD0DFD8930405006310050A8E
S3150000370063060C0013050C00EF204072B7470D004E
S31500003710938787E513058102233C4101233C310F42
S315000037202334F102EFA0536813050107EF309047E9
S31500003730B7670D0093878769130501062334F102E5
S31500003740EF500026833784FE13070120233C8100B7
S31500003750B307F70023BC77E11305810F233001027D
S31500003760233C210FEF40D4378330812403340124D6
S315000037700339012383398122033A0122833A8121C5
S31500003780033B0121833B8120033C01201385040078
S315000037908334812313010125678000001306050089
S315000037A0B7E50C0037D50C0093850563130585D95D
S315000037B0EFB0CA376FF0DFF4B72A1100B7E50C0097
S315000037C0130670009385055E13858AB4EFF0050035
S315000037D013850400EFE0DA4F130605009385040015
S315000037E013858AB4EFE0957EB7E50C001306A000BA
S315000037F09385855E13858AB4EFE0557D13878AB479
S315000038008337070083B787FEB387E70083B4070FC4
S315000038106382040883C78403638C070283C5340468
S3150000382013858AB4EFE01539EFE0051E9304F0FF27
S315000038306FF0DFED83A507021385070093E54500CA
S31500003840EF3044656FF05FE3130C00006FF09FE705
S3150000385013850400EF70415403B70400B747000016
S31500003860938787CC033707039305A000E30AF7FA8B
S3150000387013850400E7000700930505006FF05FFA63
S315000038809304F0FF6FF05FEE37E50C001305855FDC
S31500003890EFC0DFC7EFC0DFB1130405001305810FCA
S315000038A0233C210FEF40D42313050400EF308A7127
S315000038B093070500033784FE233C81001384070029
S315000038C093070120B387E70023BC77E12330010289
S315000038D06FF0DFFC1304050063060C0013050C00F3
S315000038E0EF20C05413058101EFB0034C130504000B
S315000038F0EF304A6DEF208054EF20C05D6FF0DFE2BD
S31500003900130405006FF01FFE9304050013058102E2
S31500003910EFA0D35C938704006FF0DFF9130101DB9E
S315000039202334112423308124233C9122233821235C
S315000039302334312323304123233C51212338612171
S3150000394023347121233081216302052E93840500DF
S31500003950638E052C130B0600630A062C930A0500DA
S315000039601305810FEF40846BB7470D00938787F1EE
S3150000397003B48700231C011C83BB0701833784FE25
S3150000398037590D001309090613070120B307F7007D
S31500003990233C210F2338011C2330011E2334011E32
S315000039A02338011E233C011E233C810023BC77E102
S315000039B023300102033584FE93078101930500003D
S315000039C03385A700EF301444374A0D00B7490D0080
S315000039D0130A0AF5938989F713058102233C4101ED
S315000039E0233C310FEFA08332930581021305810F2B
S315000039F0EF305441130680009385040013058102BD
S31500003A00EFA05369833781011307810183B787FECE
S31500003A10B307F7006306051C93050000138507002E
S31500003A20EF3044478327811193F75700639C0712B1
S31500003A30130620009305000013058101EF70D4647E
S31500003A4013058101EF70D43F2334A1002338B10060
S31500003A50930405006340051E630E0518EF30804190
S31500003A601386040093050000130C0500EFA05A709E
S31500003A70130600009305000013058101EF70D46062
S31500003A801386040093050C0013058101EF70445D55
S31500003A9093060B001386040093050C0013850A0099
S31500003AA0EFD05F89930405006310050A63060C00D6
S31500003AB013050C00EF208037B7470D00938787E585
S31500003AC013058102233C4101233C310F2334F102CB
S31500003AD0EFA0932D13050107EF30D00CB7670D004B
S31500003AE093878769130501062334F102EF40506B73
S31500003AF0833784FE13070120233C8100B307F700B8
S31500003B0023BC77E11305810F23300102233C210FEB
S31500003B10EF40047D833081240334012403390123DB
S31500003B2083398122033A0122833A8121033B012111
S31500003B30833B8120033C01201385040083348123C9
S31500003B40130101256780000013060500B7E50C0088
S31500003B5037D50C0093858566130585D9EFA01A7DA8
S31500003B606FF0DFF4B72A1100B7E50C0013067000FA
S31500003B709385055E13858AB4EFE0554513850400E9
S31500003B80EFE01A15130605009385040013858AB421
S31500003B90EFE0D543B7E50C001306A0009385855EDC
S31500003BA013858AB4EFE0954213878AB483370700FA
S31500003BB083B787FEB387E70083B4070F63820408E1
S31500003BC083C78403638C070283C5340413858AB4D0
S31500003BD0EFE0457EEFD055639304F0FF6FF0DFED25
S31500003BE083A507021385070093E54500EF30842A75
S31500003BF06FF05FE3130C00006FF09FE7138504007E
S31500003C00EF70811903B70400B7470000938787CC8C
S31500003C10033707039305A000E30AF7FA13850400A8
S31500003C20E7000700930505006FF05FFA9304F0FFC5
S31500003C306FF05FEE37E50C001305855FEFC01F8D53
S31500003C40EFC00FF7130405001305810F233C210F66
S31500003C50EF40046913050400EF30CA3693070500E8
S31500003C60033784FE233C8100138407009307012059
S31500003C70B387E70023BC77E1233001026FF0DFFC56
S31500003C801304050063060C0013050C00EF20001A50
S31500003C9013058101EFB0431113050400EF308A329A
S31500003CA0EF20C019EF2000236FF0DFE213040500B8
S31500003CB06FF01FFE9304050013058102EFA0132287
S31500003CC0938704006FF0DFF9138505006780000015
S31500003CD067800000130101FF23341100EF10000F6D
S31500003CE083308100B7470F00938707243305F50219
S31500003CF01301010167800000130101FD233C9100BF
S31500003D009304050023308102233821012334310135
S31500003D102334110293890500EF10400B03B404000D
S31500003D20B7D79A3B938707A03304F40283B784007E
S31500003D30B7440F0013090500938404243304F400E8
S31500003D40EF10C008B3072541B3879702E3EA87FE61
S31500003D506386090023B0090023B409008330810279
S31500003D60033401028334810103390101833981005F
S31500003D701301010367800000630C050A93077000B6
S31500003D8063ECB70AB7F70C00938787DF9395250096
S31500003D90B385F50083A7050067800700034755062E
S31500003DA09307100013050000B397E7002330F600D1
S31500003DB06780000083378506130500002330F60070
S31500003DC06780000083470506130500002330F600D0
S31500003DD06780000083471506130500002330F600B0
S31500003DE06780000083472506130500002330F60090
S31500003DF067800000833705061305000093D7870107
S31500003E009397070393D707032330F60067800000D4
S31500003E10930700042330F6001305000067800000B6
S31500003E2083370507130500002330F600678000007E
S31500003E301305F0FF6780000083B7010213860500B3
S31500003E40B7E50C0003B58701130101FF9385856A69
S31500003E5023341100EF705A07EF608A746308051067
S31500003E60130101FE233881000334850323349100B6
S31500003E70233C110093040500630A040013050400A3
S31500003E8003340400EF10907AE31A04FE03B6040329
S31500003E9003B584029305000013163600EFA05A2DD1
S31500003EA003B5840223B0040423BC0402938784056B
S31500003EB06304F500EF10907703B40402630A04006C
S31500003EC0832784001B87F7FF2324E4006306070685
S31500003ED003B4040163020404832784001B87F7FFED
S31500003EE02324E400631A0702833704001305040041
S31500003EF083B70701E78007008327C4001B87F7FF06
S31500003F002326E400631A0700833704001305040020
S31500003F1083B78701E780070013850400EF1010714F
S31500003F2083308101033401018334810013050000CD
S31500003F3013010102678000008337040013050400A3
S31500003F4083B70701E78007008327C4001B87F7FFB5
S31500003F502326E400E31E07F6833704001305040056
S31500003F6083B78701E78007006FF09FF61305F0FF20
S31500003F70678000006308053A130101FB23347101D1
S31500003F802334110423308104233C91022338210376
S31500003F902334310323304103233C5101233861018B
S31500003FA023308101938B0600638C0634138B050046
S31500003FB063880534033A85009384F5FF930A050068
S31500003FC083674A0103368A01B384F400B307F040DD
S31500003FD0B3F4F400630A0622130906008337890244
S31500003FE06384070E03B78703637897006F00C00DDD
S31500003FF003B78703636897001384070083B7070036
S31500004000E39807FE0336840103370401033C840367
S315000040108339040383368400630606282338E600C2
S315000040200337040163040700233CC7002338040058
S31500004030233C04006386061C23B0F6008337040085
S315000040406384070023B4D70083678901330C9C403F
S315000040502330040023340400637CFC0E83370902FA
S315000040602330F4026384070023B4870283378A026D
S315000040702330890213058001B384970023349A0202
S31500004080EF20505F23305501233435012338650175
S3150000409023B0AB0013050000833081040334010410
S315000040A0833481030339010383398102033A010210
S315000040B0833A8101033B0101833B8100033C0100FC
S315000040C0130101056780000003390900E31809F0B0
S315000040D083670A0183390A00138CF7FF330C9C00AF
S315000040E0B307F040337CFC008337860033073C017E
S315000040F063F8E7128339060103360600B3893701F0
S31500004100E31406FE83378A003387890163FAE710D2
S3150000411037E50C001305056DEFA09A5737D40C0050
S31500004120B7E50C001306F0FF9385856E130584D959
S31500004130EFA0DA1FB7E50C001306F0FF93850571B3
S31500004140130584D9EFA09A1E1305F0FF6FF0DFF474
S31500004150233C940213050004EF20D0518337090352
S31500004160B3893401233005002334050023380500C4
S31500004170233C05002330050223340502233835038A
S31500004180233C8503638C0718930600006F004001EB
S3150000419003B7070193860700630607149307070012
S315000041A003B70703E36637FF2338F500233CD50042
S315000041B06380061423B8A60023BCA70083378902B0
S315000041C063840714930600006F00400103B70700DD
S315000041D093860700630E070E9307070003B787034E
S315000041E0E366ECFE2330F5002334D5006386061023
S315000041F023B0A6008339040323B4A7006FF01FE69B
S315000042002334F9026FF0DFE383670A0183390A007A
S31500004210138CF7FF330C9C00B307F040337CFC0093
S3150000422013058003EF20104583274A011309050073
S31500004230233005002334350123388501232CF5006E
S315000042402330050213050004EF20D04283378A018C
S31500004250233005002334050023380500233C0500E0
S31500004260233005022334050223383503233C850316
S315000042702338A9022334A902130405006388070022
S315000042808336890003B7870063F8E6022330F90016
S31500004290233C2A01636C9C089307000093060000E8
S315000042A0130700002338E902130600006FF09FD7BA
S315000042B003B787006378D7001386070083B7070024
S315000042C0E39807FE2330F900233026016FF09FFCA8
S315000042D0233005002334F5008339040323B0A700F7
S315000042E06FF0DFD7233CF50023B8A7006FF01FED72
S315000042F02338A9026FF05FEC2334A9026FF09FEF19
S315000043001305F0FF6FF05FD9233005002334050055
S31500004310833904032334A9026FF05FD42338A9023A
S315000043206FF0DFE91305F0FF678000008337800137
S31500004330730010001304050013050900EF10102F79
S3150000434013050400EF201A48630A0532130101FB26
S31500004350233471012334110423308104233C910258
S31500004360233821032334310323304103233C5101F5
S315000043702338610123308101930B0700630A072C60
S31500004380130B06006306062C033A85009309F6FF15
S31500004390930A050083670A0103378A001384050020
S315000043A0B389F900B307F040B3F9F900B3843501D6
S315000043B06360972C83378A01639007026F000008B9
S315000043C06366040363F496066372980263F08602DA
S315000043D083B707006384070683B6870003B807011F
S315000043E033880601E37ED4FC63F4960437E50C00BB
S315000043F01305057CEFA0DA2937D40C00B7E50C00CD
S315000044001306F0FF93858576130584D9EFA00A720B
S31500004410B7E50C001306F0FF93850579130584D9DB
S31500004420EFA0CA701305F0FF6F00400EE3E286FAB4
S31500004430E3FE04FB83B70700E39007FA1305800346
S31500004440EF20502383274A01130C050013050004AF
S3150000445023300C0023348C0023383C01232CFC0031
S3150000446023300C02EF20102183378A012330050008
S315000044702334050023380500233C050023300502BC
S315000044802334050223388502233C35032338AC0246
S315000044902334AC02130905006388070083368C00B9
S315000044A003B7870063F0E60A2330FC0083278C01FC
S315000044B0233C8A0123380C0223380900233C0900D7
S315000044C023340C0223300900233409006386070ACB
S315000044D083370C022330F9026384070023B42703D1
S315000044E083378A0223302C0313058001B3893701F1
S315000044F023343A03EF201018233055012334850066
S315000045002338650123B0AB00130500008330810416
S31500004510033401048334810303390103833981029F
S31500004520033A0102833A8101033B0101833B810087
S31500004530033C0100130101056780000003B78700F3
S315000045406378D7001386070083B70700E39807FE52
S315000045502330FC0083278C012330860123380C028C
S3150000456023380900233C090023340C0223300900B8
S3150000457023340900E39E07F413050004233C3903A2
S31500004580EF20500F83370C0323300500233405003A
S3150000459023380500233C0500233005022334050299
S315000045A023389502233C05026380070C930600001E
S315000045B06F00400103B707019386070063020706F1
S315000045C09307070003B70703E36697FE2338F50052
S315000045D0233CD5006384060623B8A60023BCA700A7
S315000045E083378C02638A0706930600006F0040013A
S315000045F003B7070093860700630A070293070700BD
S3150000460003B78703E31607FE2330F5002334D500EE
S31500004610638A060223B0A60023B4A7006FF05FEBFF
S31500004620233CF50023B8A7006FF09FFB233005005D
S315000046302334F50023B0A7006FF09FE92338AC02BE
S315000046406FF0DFF92334AC0223B4A7006FF05FE804
S315000046501305F0FF6FF09FEB2330050023340500B0
S315000046602334AC026FF0DFE62338AC026FF05FF75D
S3150000467037E50C00130505746FF0DFD71305F0FF5F
S31500004680678000001304050013050C00EF10007A84
S3150000469013050400EF201A13130101FD23308102D4
S315000046A023341102233C91002338210123343101A4
S315000046B013040000630C05068337050003378500E5
S315000046C09304050003B987000334890163040408D1
S315000046D083378400636CF70683360401B387D700FB
S315000046E06376F70683350402639805006F000006BB
S315000046F083B50502638C050483B70503E31AF7FE49
S315000047001305040083B98503EF10400383370402C1
S31500004710638E07048337890213040000B387374189
S315000047202334F90213850400EF10407083308102B0
S3150000473013050400033401028334810103390101A6
S3150000474083398100130101036780000003340400EC
S31500004750E31004F837E50C00930507001305857F81
S31500004760EFA0CA3C1304F0FF6FF0DFFB833789012B
S31500004770638E0700639687006F0080036384870259
S315000047801387070083B70700E39A07FE0335040380
S3150000479063040500EF10806913050400EF1000693B
S315000047A06FF05FF7833704002330F7006FF01FFECA
S315000047B083370400233CF9006FF05FFD630A0500B0
S315000047C0833785001305000023B0F50067800000DD
S315000047D01305F0FF6780000093070500630A0502D2
S315000047E0638C05008336850003B7860083B6860290
S315000047F03307D74023B0E50013050000630C06001D
S3150000480083B7870083B787022330F60067800000EE
S315000048101305F0FF678000006308050C130101FC17
S3150000482023349102B7440F0023302103233C310186
S315000048302338410113890424233C110223388102C1
S31500004840130A0500938905009384F4231306810057
S315000048509305400113050A0023340100EF10402D93
S31500004860631C05028337810093F777002334F10038
S31500004870638C0704638A0904EF004055130405009E
S31500004880EF00C054B3078540B3872703E3FAF4FE6D
S315000048909389F9FF6FF09FFB37D40C00B7F50C0036
S315000048A01306050093858582130584D9EFA00A288F
S315000048B0B7F50C001306F0FF93850585130584D91B
S315000048C0EFA0CA261305F0FF8330810303340103EA
S315000048D0833481020339010283398101033A0101DC
S315000048E013010104678000001305F0FF67800000D4
S315000048F0130101FC233C1102233881022334910267
S3150000490023302103233C3101233841012334510153
S315000049106306051E138405006382051E0337050121
S31500004920B307D60083340500636AF71C0339850094
S31500004930330926019377F9036392071C9386F603DE
S3150000494083B7040793F906FC3307390163E8E71ACE
S31500004950376A260593050AC013850400EFF0DFEBDE
S31500004960930A0500631C050893D729006386090A84
S3150000497093992700B38989003B098940130A0AC025
S315000049806F008000630A3409032604009305800043
S3150000499013850400EF108018930705003B06890075
S315000049A0930540001385040013044400639A070826
S315000049B0EF10C01693070500130640009305C000CC
S315000049C0138504006396070AEF1040159307050048
S315000049D01306200093050000138504006392070C5C
S315000049E0EF10C0131306050093050A001385040093
S315000049F06310060EEFF05FE2E30605F837D40C000D
S31500004A00B7F50C001306F0FF93850598130584D9B6
S31500004A10EFA0CA11930AF0FF833081030334010328
S31500004A20833481020339010283398101033A01018A
S31500004A3013850A00833A8100130101046780000090
S31500004A4037D40C00B7F50C0013860700938505884C
S31500004A50130584D9EFA08A0DB7F50C001306F0FFF5
S31500004A609385858A130584D9EFA04A0C6FF05FF908
S31500004A7037D40C00B7F50C0013860700938505881C
S31500004A80130584D9EFA08A0AB7F50C001306F0FFC8
S31500004A909385858D130584D9EFA04A096FF05FF6DB
S31500004AA037D40C00B7F50C001386070093850588EC
S31500004AB0130584D9EFA08A07B7F50C001306F0FF9B
S31500004AC093850592130584D9EFA04A066FF05FF32C
S31500004AD037D40C00B7F50C0093850588130584D9E7
S31500004AE0EFA0CA04B7F50C001306F0FF93850595F1
S31500004AF0130584D9EFA08A036FF09FF0930AF0FFA5
S31500004B006FF09FF1130101FB23341104233081045C
S31500004B10233C9102233821032334310323304103FC
S31500004B20233C5101638C051E130405006308051E12
S31500004B3003B70501B307D60083B405001389060041
S31500004B40636EF71C83B98500B309360193F7F90341
S31500004B506396071C9387F60303B7040793F707FCCE
S31500004B60B3873701636CF71A376A260593050AC0BF
S31500004B7013850400EFF05FCA930A05006310050A67
S31500004B8013592900630A090A131929003309240154
S31500004B90BB898940130A0AC06F00C001EF00507933
S31500004BA0631605148337810013044400232EF4FE94
S31500004BB0630489083B868900930540001385040039
S31500004BC0EF00D07593070500130640009305C0005B
S31500004BD01385040063960708EF00507493070500D9
S31500004BE01306100093050000138504006392070A5C
S31500004BF0EF00D0721306050093050A001385040022
S31500004C006310060CEFF05FC19307050013068100E1
S31500004C109305000113850400E38207F837D40C00DE
S31500004C20B7F50C001306F0FF938505A1130584D98B
S31500004C30EF90DA6F930AF0FF8330810403340104A6
S31500004C40833481030339010383398102033A010264
S31500004C5013850A00833A810113010105678000006C
S31500004C6037D40C00B7F50C0013860700938505882A
S31500004C70130584D9EF909A6BB7F50C001306F0FF75
S31500004C809385858D130584D9EF905A6A6FF05FF985
S31500004C9037D40C00B7F50C001386070093850588FA
S31500004CA0130584D9EF909A68B7F50C001306F0FF48
S31500004CB093850592130584D9EF905A676FF05FF6D6
S31500004CC037D40C00B7F50C0093850588130584D9F5
S31500004CD0EF90DA65B7F50C001306F0FF9385859B18
S31500004CE0130584D9EF909A646FF09FF337D40C00C4
S31500004CF0B7F50C001306050093858582130584D944
S31500004D00EF90DA62B7F50C001306F0FF9385859EE7
S31500004D10130584D9EF909A616FF09FF0930AF0FF24
S31500004D206FF09FF1630E0504630C060483380503D8
S31500004D309397050293D70702B3F717030337850244
S31500004D40939637003307D70003380700630A080233
S31500004D5003370800832687006388D50203350700DA
S31500004D6013080700630E0500832685001307050058
S31500004D70139506021355050233751503E38EA7FC3A
S31500004D801305F0FF6780000083370800E38A07FEFB
S31500004D9083A7C700130500002320F60067800000E4
S31500004DA01305000067800000630A0500638806009B
S31500004DB023B0060013050000678000001305F0FF0E
S31500004DC0678000001305000067800000B717110018
S31500004DD003B587D11305150023BCA7D06780000053
S31500004DE0130101FA233C110423388104233491046E
S31500004DF023302105233C3103233841032334510357
S31500004E00233061036308052493840500130A060012
S31500004E10138605009305400013040500139B040246
S31500004E20EF00D04F135B0B026318051813060A0038
S31500004E309305800013050400EF00504E6318051A11
S31500004E40130640009305000013050400EF00104D03
S31500004E50930905006316051C833504038337840212
S31500004E603375BB02931A3500B387570103B60700A3
S31500004E70630A06068337060003A787006386E402F3
S31500004E8083B607006380060603A78600138607001D
S31500004E909317070293D70702B3F7B7026314F50413
S31500004EA093870600E39EE4FC833706001389C70058
S31500004EB0638A0702232049018330810503340105F3
S31500004EC08334810403390104033A0103833A8102DE
S31500004ED0033B01021385090083398103130101068F
S31500004EE06780000013050001EF10D07883370405B2
S31500004EF003360404833504031309050093061000E2
S31500004F00130584042330090023249900232609006D
S31500004F102334F100EF10D4562338A100233CB1000E
S31500004F201375F50F631C050203378402B30A570194
S31500004F3083B70A006388070483B707002330F900A4
S31500004F4083B70A0023B02701833704041309C90075
S31500004F50938717002330F4046FF0DFF51306810002
S31500004F6013058402EF005022833A040303378402B8
S31500004F70B37A5B03939A3A00B30A570183B70A00E0
S31500004F80E39C07FA83378403233C24032330F90088
S31500004F90638E070083E7870083360403B3F7D702DF
S31500004FA0939737003307F7002330270193078403CD
S31500004FB023B0FA006FF05FF937D40C00B7F50C0098
S31500004FC01306050093850588130584D9EF901A36D4
S31500004FD0B7F50C001306F0FF938585A4130584D955
S31500004FE0EF90DA349309F0FF6FF01FED37D40C0021
S31500004FF0B7F50C001306050093850588130584D9BB
S31500005000EF90DA32B7F50C001306F0FF938585A70B
S31500005010130584D9EF909A319309F0FF6FF0DFE919
S3150000502037D40C00B7F50C001306050093850588E8
S31500005030130584D9EF909A2FB7F50C001306F0FFED
S31500005040938585AA130584D9EF905A2E9309F0FF0C
S315000050506FF09FE69309F0FF6FF01FE6130405005B
S3150000506013050900EF00905C13050400EF109A7514
S31500005070130101FC233C11022338810223349102DF
S3150000508023302103233C31012338410123345101CC
S3150000509023306101630E05441309050013058007DB
S315000050A0EF10505DB7F5FF019395750013040500E9
S315000050B0EF00902193071000939407022338F4021F
S315000050C083A701DB93098405130684069305000272
S315000050D0130504002334040023380400233C040091
S315000050E02330040223343403233C04022330040413
S315000050F02324F40423380404233C040423389406AC
S31500005100EF00D01E631205381306040693058001CE
S3150000511013050400EF00901D6312053A1305000401
S31500005120EF105055B7F60C00938A86F43707000443
S31500005130B7060460033A04012338D50013071700A5
S31500005140B7F67F0293841400130605019396660052
S315000051501317C7002330550123349500233CD5008F
S315000051602330E50223340502233C05022334C40020
S315000051702338A400630A0A0083278A001B87F7FFE7
S315000051802324EA0063020716034A54069304100018
S31500005190339A440163FA44193706006093051000F8
S315000051A013050400EFF0DFC393040500631C05102C
S315000051B0130600009305200013050400EFF05FC2FC
S315000051C093040500630C051E13060500B7F50C00D5
S315000051D037D50C00938505BD130585D9EF901A15B3
S315000051E003398403630A090013050900033909001A
S315000051F0EF00D043E31A09FE0336040303358402A5
S315000052009305000013163600EF908A760335840264
S3150000521023300404233C04026384A900EF001041F8
S3150000522003390402630A0902832789001B87F7FFF3
S315000052302324E900631207028337090013050900D6
S3150000524083B70701E78007008327C9001B87F7FF9D
S315000052502326E9006308071E03390401630A0902CD
S31500005260832789001B87F7FF2324E90063120702BF
S31500005270833709001305090083B70701E780070094
S315000052808327C9001B87F7FF2326E9006306071C4F
S3150000529013050400EF0090398330810303340103C2
S315000052A00339010283398101033A0101833A8100FE
S315000052B0033B0100138504008334810213010104BA
S315000052C06780000013060500B7F50C0037D50C0003
S315000052D0938505B8130585D9EF905A0503398403DC
S315000052E0E31409F06FF05FF183370A0013050A0033
S315000052F083B70701E78007008327CA001B87F7FFEC
S315000053002326EA00E31207E883370A0013050A009A
S315000053109304100083B78701E7800700034A540609
S31500005320339A4401E3EA44E713050004EF1090348E
S3150000533037071000033B0402939404021307170077
S3150000534093841400930605013706007F1317C700E0
S3150000535023305501233495002338C500233C4501ED
S315000053602330E50223340502233C0502233CD40006
S315000053702330A402E3020BE283278B001B87F7FF8F
S315000053802324EB00E31A07E083370B0013050B0019
S3150000539083B70701E78007008327CB001B87F7FF4A
S315000053A02326EB00E31A07DE83370B0013050B00F9
S315000053B083B78701E78007006FF01FDE1306000042
S315000053C09305300013050400EFF09FA19304050038
S315000053D0631C050213060000930540001305040034
S315000053E0EFF01FA093040500630E050213060500E7
S315000053F0B7F50C0037D50C00938505C5130585D97F
S31500005400EF90CA726FF09FED13060500B7F50C001A
S3150000541037D50C00938585C1130585D9EF900A71A0
S315000054206FF0DFEB13060000930550001305040030
S31500005430EFF01F9B93040500631A050223308900D1
S315000054406FF09FE5833709001305090083B78701CD
S31500005450E78007006FF05FE0833709001305090056
S3150000546083B78701E78007006FF09FE21306050008
S31500005470B7F50C0037D50C00938585C8130585D97B
S31500005480EF90CA6A6FF09FE537D40C00B7F50C00B1
S3150000549013060500938505AE130584D9EF900A69B6
S315000054A0B7F50C001306F0FF938505B0130584D9F4
S315000054B0EF90CA679304F0FF6FF01FDE37D40C003D
S315000054C0B7F50C0013060500938505AE130584D9C0
S315000054D0EF90CA65B7F50C001306F0FF938505B487
S315000054E0130584D9EF908A649304F0FF6FF0DFDA36
S315000054F09304F0FF6FF05FDA9304050013050400D0
