S00F00002E2F62617369632E73726563B6
S11300009741000093810128996273A00230731014
S11300103000970200009382E214739052307324EC
S113002040F111EC970200009382C2147390523095
S1130030EF000059970200009382C23B829213138F
S11300402400970200009382E20B9A9203A3020019
S11300500F00F00FE31C03FE138E014C93134400B6
S1130060B30E7E00138F8E0083BF0E0003310F008A
S1130070970200009382021073905230732540F16E
S1130080829F1300000013000000130000001300FF
S11300900000130000001300000013000000130010
S11300A00000130000001300000013000000130000
S11300B000001300000013000000130000001300F0
S11300C000001300000013000000130000001300E0
S11300D000001300000013000000130000001300D0
S11300E000001300000013000000130000001300C0
S11300F000001300000013000000130000000100C2
S113010073001000730010007300100073001000DF
S113011073001000730010007300100073001000CF
S113012073001000730010007300100073001000BF
S113013073001000730010007300100073001000AF
S113014013132500970300009383C3FBB3027300CA
S11301500F00500F2FA00208130500008280010039
S113016002900100130000001300000013000000BF
S113017073202034130181DE06E00EE812EC16F041
S11301801AF41EF822FCA6E0AAE4AEE8B2ECB6F03B
S1130190BAF4BEF8C2FC46E14AE54EE952ED56F126
S11301A05AF55EF962FDE6E1EAE5EEE9F2EDF6F113
S11301B0FAF5FEF973250030F32510347326203444
S11301C0AAFD2EE232E6F32230002328511002AEBB
S11301D006B20AB60EBA12BE96A29AA69EAAA2AEFB
S11301E0A6B2AAB6AEBAB2BE36A33AA73EAB42AFE7
S11301F046B34AB74EBB52BFD6A3DAA7DEABE2AFD3
S1130200E6B3EAB7EEBBF2BF2730D1212734E121B0
S11302102738F12163550600EF00204521A08A8686
S1130220EF0060448260C261626282722273C273B0
S1130230627486642665C665666686762677C677A2
S113024066788A682A69CA696A6A8A7A2A7BCA7B52
S11302506A7C8E6C2E6DCE6D6E6E8E7E72209230A8
S11302603231D231723296223623D6237624963412
S11302703635D63576369A263A27DA277A289A38C2
S11302803A39DA397A3A9E2A3E2BDE2B7E2C9E3C72
S11302903E3DDE3D7E3E873E0120073F8120873F75
S11302A00121032F011173103F006E7F926F7310B1
S11302B00F3073901F342E7FCE7F13018121730082
S11302C020300000000000000000000000000000DA
S11302D0000000000000000000000000000000001A
S11302E0000000000000000000000000000000000A
S11302F000000000000000000000000000000000FA
S113030000000000000000000000000000000000E9
S113031000000000000000000000000000000000D9
S113032000000000000000000000000000000000C9
S113033000000000000000000000000000000000B9
S113034000000000000000001165397113050592DA
S113035006FC22F826F437F4FF01EF0050511E0486
S1130360B70700801CC485475CC091471CC0232488
S11303700400094758C01CC0232404008D4444C011
S113038011651CC013058592EF00704E03A6012E63
S11303909165938505A01B56260037050080EF0064
S11303A0E017A9473EE49307000219462C0037F5ED
S11303B0FF7F3EE8930700103EECEF002016116526
S11303C013050593EF00B04A04C05C489D8BF5FF0C
S11303D0116513058593EF009049E2704274A2748D
S11303E0014521618280000000000000000000003F
S11303F0EF00001D0A8493020000639E020013852F
S1130400013C174600001306E667B306A64093D5E1
S11304103600EF00601B9382014823B08200EF0096
S1130420001CEF00E019EF006039EF00C03CEF0062
S1130430A02B17150000130505AEEF00102BEF00DD
S11304409030EF00E0179382813C03A50200938271
S1130450812E83B5020013060000EFF0FFEEEF00DB
S11304607029029000000000000000000000938743
S1130470812B1387812B6308F7009307000081C742
S11304801385812B828782809387812B9385812B8F
S11304909D8D93D73540FD91BE95858599C593076C
S11304A0000081C71385812B82878280411122E05D
S11304B083C7814806E499EFEFF07FFB93070000C0
S11304C099C71385013197000000E70000008547B4
S11304D02384F148A26002644101828093070000F2
S11304E091CF4111938501491385013106E49700A9
S11304F00000E7000000A260410179B771B7B707B7
S1130500F8FFA99F82178193884301258280B7074A
S1130510F8FFA99F821781938CC382806350C00423
S11305209B06F6FF821637F7FF01F9829387450091
S11305301E073B06B540BE969308C70011480945FF
S1130540BB07B6005CC39C411CC723A0080108C3B9
S11305505C4B9D8BF5FF9105E394D5FE828063513E
S1130560C0049B06F6FF821637F7FF01F9829387D2
S113057045001E073B06B540BE969308C7001148C8
S11305800545BB07B6005CC323A0080108C35C4B48
S11305909D8BF5FF1C4B910523AEF5FEE393D5FE31
S11305A082808547BB97A700FD37ED8F3B95A5005B
S11305B05D8D0125828003A5013E8280000000003C
S11305C082800000000000009387F5FF81C97D57F9
S11305D023300500FD172105E39CE7FE8280916727
S11305E01167138607A0930507A0630DB6069166ED
S11305F0938606A063F8D5063365B600FD161D89FB
S1130600130707A08D8E39E113B5C60213451500F3
S11306101375F50F05CD8982850613D816000E08CB
S1130620938707A032988863A1072107233CA7FE7C
S1130630E39B07FF13F5E6FF13172500B307E60056
S1130640BA956381A6029C439CC18280F19A91066B
S1130650B296938707A098439107910523AEE5FED0
S1130660E39BF6FE828002908280931716008583B6
S11306702D476384E7000290828079714EE483B948
S1130680813DB70720004AE8BE9903A9490052E01A
S113069006F422F026EC0129138A015C630709029F
S11306A093170902F583D29780639B04090019C448
S11306B01C68086CA685829700607DF823A2290136
S11306C003A949000129E31D09FCA2700274E26434
S11306D04269A269026A4561828083A7013E01459D
S11306E0852723A0F13E82801D71A2E883A7013EE5
S11306F086ECA6E4C5C383B7813D9DE303A5012F22
S113070085679387A7DF0A88114789461306200C5B
S11307108545EF00E06D93170502819323BCF13CFE
S113072083B7013D9DE303A5012F85679387A7DF69
S11307300A88114789461306300C8545EF00406B43
S113074093170502819323B8F13C03A7413E83B676
S1130750813D85471B17270013070720320736976B
S113076023200700854513060002139727003697B8
S11307700CC38527E39BC7FE85679B87078073A00F
S11307804730A14773A00730E6604664A66401457C
S11307902561828003A5012F81479307A06D01483D
S11307A0114785461306D00B8545EF00606483A787
S11307B0013EB1F3854723A0F13E35BF411122E04C
S11307C083B7813E06E401459DE303A5012F8567B8
S11307D001489387A7DF1147914631468545EF00CD
S11307E020610215019123B4A13E13351500A260C6
S11307F0026441018280797122F083B7813F06F45B
S1130800014589C7A27002744561828003A5012F46
S113081085679387A7DF13088100114791464546F2
S11308208545EF00E05C93170502819323BCF13EFC
S11308300545E9DB03479100A270027423A8E13E59
S1130840014545618280638D051463020620984149
S11308500CFE9B57570093F607067D8BFD8B558F37
S11308602300F600A300E6009C49E1EB0147814622
S1130870014823060601DC4954C218C663880710E0
S11308801B970701B706F0FF7D8F758F13F8F700EC
S11308908D480127C286630518179BD747009B978D
S11308A0470193C7F7FF81277D586389070F021714
S11308B082170193D98F1CEA9C4D230CD600FD5856
S11308C0F1C39B9607013707F0FFFD8EF98E0D43A8
S11308D013F7F70081263A88630167101BD7470096
S11308E01B1747011347F7FF01276307170BDC4D5D
S11308F054CE18D223020603B5CB1B970701B706C3
S1130900F0FF7D8F758F93F5F7000D480127AE86B4
S1130910638A05099BD747009B97470193C7F7FF55
S11309208127FD556388B706021701938217D98F73
S11309301CF62308D602014582809B9607013707DF
S1130940F0FFFD8EF98E8D4813F7F70081263A8863
S1130950630C170D1BD747001B1747011347F7FFFD
S11309600127FD57E317F7F0014721B701478147F6
S11309700217019382178146D98F1CF62308D602E9
S11309800145828001478146014895B78147014767
S1130990814631BF814749BF014791BF814701BFAC
S11309A00545828093C7F7FF9BD74700B705100022
S11309B0938505F09B9787001B57C700ED8F498FE0
S11309C093E7F70F01278127021701938217D98F25
S11309D01CF62308D6020145828013C7F7FF1B5774
S11309E04700B70710001B178700938707F09BD6B3
S11309F0C6007D8FC98E1367F70F81260127C5BDF9
S1130A0093C7F7FF9BD74700370810009B978700D1
S1130A10130808F01B57C700B3F70701498F93E782
S1130A20F70F0127812761B513C7F7FF1B5747004D
S1130A30B70710001B178700938707F09BD6C600E3
S1130A407D8FC98E1367F70F812601271DB50945D0
S1130A50828015714EFD52F95AF15EED66E56AE148
S1130A6036F086EDA2E9A6E5CAE156F562E9EEFCA8
S1130A70858A46E4AA8C2E8BB28B3A8D3E8AC28933
S1130A80D5CA37F40F00498C021401906304080A94
S1130A90638E05246306062A8564138904802299DB
S1130AA0FD1429A0130404026306240914409BD7EF
S1130AB0C600E58F1BD7860181275D8F01279BD652
S1130AC086016DD3E39066FFE39EFBFCA2851018BC
S1130AD06685EFF05FD7A2676A8785465E86DA850A
S1130AE00818829901255DDD7DA8856A93870A80AF
S1130AF0330CF400FD1A1840A28510189B54C7004B
S1130B00B3F4540181249B578701C58F81276685DF
S1130B10130404021B59870181CFEFF0DFD2A267CF
S1130B206A8785462686CA8508188299012525ED97
S1130B30E31384FD0277B707100093840780B3E4BE
S1130B409C00137C2700118B82143AE0856D0567A5
S1130B508190938D0D801309F7FFFD171B071D006E
S1130B60A69D3AEC3EF403A304001B58C30033775C
S1130B7009019B5783011B5483019B0A0700630AE5
S1130B800C00B3E7FA00812791CB630D0B02630BD2
S1130B908B0263754D018547630DF404938404024D
S1130BA0E3939DFC0145EE604E64AE640E69EA7900
S1130BB04A7AAA7A0A7BEA6B4A6CAA6C0A6DE67DC9
S1130BC02D61828063840B00E3955BFDE38309FC64
S1130BD01018A685668542C8EFF0FFC6A2676A872B
S1130BE089465686A285081882990125424855D11E
S1130BF05DBF93070002638DFA0C8567ED1733F828
S1130C00070101289307B0046304F80C8267D9D75D
S1130C109947E395FAF89C4837F40F001B930701B2
S1130C2033F36700B707F0FF3373F3000123336432
S1130C30830002140190930A040831A06304BB02E8
S1130C402104E30D54F518401B56C70033762601E2
S1130C5001269B578701D18F81279B558701EDD3AF
S1130C60E31E0BFC63840B00E39CCBFCE38A09FCCE
S1130C709B57570093F607067D8B558FFD8B2308F2
S1130C80F102A308E1025440A26762671B95460083
S1130C909BD0C6001BD84600B7061000B3F0A000D6
S1130CA0138506F0A2761B188800B3F0A0003378F1
S1130CB0A800B3E060003348D800081891461AE849
S1130CC0A2E006DA42DC82990125426335D9E1BD0E
S1130CD088440DDDA268626782764E88D2875E867C
S1130CE0DA85EFF01FD7012515D175BDE30F06DEB8
S1130CF00569930A0980A29A7D1929A013040402A4
S1130D00E38A8AE20C409BD7C500B3F72701812709
S1130D101BD785015D8F01279BD4850165D3E39F94
S1130D20FBFCA28510186685EFF0FFB1A2676A8705
S1130D3085465E86A68508188299012561D1A5B5E8
S1130D400569930A0980A29A7D1929A01304040253
S1130D50E30254DF18409B54C700B3F424019B57AB
S1130D6087018124C58F81271B578701E5D3E31FA2
S1130D70EBFCA28510186685EFF0FFACA2676A87CA
S1130D8085462686DA8508188299012561D121BD18
S1130D90A1CD29CE03A8050037071000130307F0DF
S1130DA09B56580093F806061378F801FD8A33E839
S1130DB008012300D600A3000601DC419306F7FFD7
S1130DC00CEA1BD7C7009B9547009BD747006D8F44
S1130DD09B97870033776700B3F76700598DB58F0A
S1130DE048C21CC60145828005458280094582802F
S1130DF0C2883E88BA870147A9B981CB1147638865
S1130E00E600FD360547637CD700484182801861BF
S1130E1098E3186598E71869484198EB8280033E87
S1130E2005000333850083380501033885010C71FF
S1130E3010751479187D484123B0C70123B46700A5
S1130E4023B8170123BC07018CF390F794FB98FF98
S1130E50828083B6813DB9C2F375043003A7413E55
S1130E601B56F5411B56B601299E1B1727001B561E
S1130E705640160732970A07BA960967BA969842F7
S1130E808547BB97A70093C7F7FFF98F81279CC2BB
S1130E9093F7850073A00730014582800545828061
S1130EA003B7813D29C37376043083A7413E9B5623
S1130EB0F5419BD6B601A99E9B9727009BD6564029
S1130EC09607B6978A073E9789673E971C438546DF
S1130ED03B95A6005D8D012508C39377860073A01A
S1130EE007300145828005458280AA8581460146F6
S1130EF00145E9A44111814522E006E42A84EF007A
S1130F00A03403B5012D3C6591C382972285EF205F
S1130F103008011122E8916711641304849F9387B8
S1130F2007A0818F26E406EC93D4374081C8E117EB
S1130F303E941C60FD1461148297E5FCE2604264F7
S1130F40A26405618280011122E84AE011641169FA
S1130F509307049F1309099F3309F94006EC26E41B
S1130F6013593940630B09001304049F81441C6026
S1130F70850421048297E31C99FE11641169930787
S1130F80049F1309899F3309F94013593940630BAE
S1130F9009001304049F81441C6085042104829782
S1130FA0E31C99FEE2604264A264026905618280E6
S1130FB05971A2F02A842E85A6EC86F4AE84EF0043
S1130FC0E016916793870794BEE08547BEE41C183A
S1130FD0130715003EEC894726F82AFC3AF43ED064
S1130FE035C01C58A9CF0C6891679387879B638889
S1130FF0F5069167938707986385F506916793874C
S113100087946382F5068397050113972703634D3D
S1131010070003A7850A8966D58FF976FD16758FB3
S11310202398F50023A4E50A30082285EF008062A6
S11310300DED2945A6700674E664656182802285FB
S1131040EF00C0601C580C68C5F322852EE4EF0045
S1131050E05FA26591679387879BE39CF5F80C6436
S11310605DB70C684DB70C6C79BF7D55E1B759710C
S1131070A2F0A6EC03B4812FAA8486F4EF00000B3F
S1131080916793870794BEE08547BEE41C18130755
S113109015003EEC894726F82AFC3AF43ED035C0C8
S11310A01C58A9CF0C6891679387879B6388F506C2
S11310B09167938707986385F5069167938787946B
S11310C06382F5068397050113972703634D070091
S11310D003A7850A8966D58FF976FD16758F23983F
S11310E0F50023A4E50A30082285EF00A0560DED93
S11310F02945A6700674E664656182802285EF0046
S1131100E0541C580C68C5F322852EE4EF0000540B
S1131110A26591679387879BE39CF5F80C645DB7A0
S11311200C684DB70C6C79BF7D55E1B793777500AA
S11311302A87A9EB83B6812BFD5510632107B3776A
S1131140D600B697D18FD58FE389B7FE834687FF44
S1131150B307A740A9C6834697FF9DCE8346A7FF42
S1131160A9C68346B7FF9DCE8346C7FF0346D7FF74
S11311700345E7FF95CE21C23335A0003E9579158E
S11311808280CDDA83470700050793767700F5FB65
S1131190098F1305F7FF8280138597FF82801385DB
S11311A087FF82801385B7FF82801385A7FF828023
S11311B01385C7FF82801385D7FF828083B70140E0
S11311C0B1C798477D48634FE80605C903B80711BE
S11311D0630A080693183700C29823B0C800032393
S11311E0082005463B16E6003363C300232068202D
S11311F023B0D81089466309D502930627008E06CA
S1131200052798C7B6978CE3014582809388016CC3
S113121023B01141130700009387016C5DD303379A
S1131220000023B8E71071BF832648200145558E7E
S1131230930627002322C82005278E0698C7B69751
S11312408CE382807D5582801D7156F4CAE003B917
S1131250014086ECA2E8A6E44EFC52F85AF05EEC9B
S113126062E866E46AE063040908AA8B2E8A054BE7
S11312707D5D83248900033C09111B84F4FF6348CA
S11312800406630D0A0863040C068E04B3099C006B
S1131290CA9431A07D34E119E114630AA40583B72B
S11312A0890FE319FAFE832C890098649B87FCFF5D
S11312B0638F870423B4040071DF83270C20BB16DB
S11312C08B00F58F8127B1C383274C2083B589FF19
S11312D0F58F8127A9C32E8502970327890083B739
S11312E0014063149701E307F9FA3E89D9F3E660F4
S11312F04664A6640669E279427AA27A027BE26BCA
S1131300426CA26C026D256182800297F9B7232496
S11313108900A28C55B75E850297C1B7630E0C068F
S1131320939C3400B30999011B87F4FF83B78900A8
S1131330E29C630A870423B409008DCB03270C20A5
S1131340BB168B00758F012739C303274C2083B547
S11313508CFF758F012715EF5E858297032789001F
S113136083B70140E31397F8E311F9F87D34E119E9
S1131370E11CE30EA4F78324890083B789001B874B
S1131380F4FFE31A87FA23248900A2847DB78297A5
S1131390F1B72E858297D9B793993400CA991DA0C5
S11313A023B409007D3491CB82970327890083B746
S11313B00140E31C97F2E39A27F3E119E309A4F34C
S11313C0832489001B87F4FF83B78900E31A87FC11
S11313D023248900A284F9B78D659385C5BE0DA524
S11313E0011126E41306000B9B84F5FFB384C402A9
S11313F04AE02E8922E806EC9385840CEF00E0682D
S11314002A8401CD6105233004002324240108E843
S11314101386040B8145EF100006E26022854264C6
S1131420A264026905618280797126EC83B4012D7E
S11314304AE806F49C5822F04EE452E02A89D9C3C3
S1131440938404089309000B114A9C4480686357F1
S1131450F006FD37821781938507B3873703A29778
S113146029A01304040B638B87040317040175FB81
S1131470C17785071CC82324040A233004002334BD
S11314800400233C040023200402232404022146F4
S113149081451305040AEF00107E2330040623243B
S11314A004062330040823240408A270228502744D
S11314B0E2644269A269026A45618280806019C45B
S11314C0A28461B72685EF00C0039DBF9305802DDC
S11314D04A85EF00805B2A8419CD6105233004001E
S11314E02324440108E81306002C8145EF00B0785A
S11314F080E0A28499BF23B00400B1472320F900FF
S11315006DB7397103B7012D856722F806FC26F4FF
S11315104AF04EEC52E856E45AE09387873D3CE5A6
S11315202330050823240508233805082A84630684
S1131530E5102285EFF05FEF08E42285EFF0DFEE9F
S113154008E82285EFF05FEE046408EC91479CC83C
S11315502146814523B0040023B4040023A4040AD3
S113156023BC040023A0040223A404021385040A58
S1131570EF0070700D6B033904018D6A0D6A8D697B
S1131580130B0B96938ACA99130AEA9E938909A4AA
S1131590C16723B0640523B4540523B8440523BCB0
S11315A0340584FCA5072328F9002146814523241A
S11315B0090A2330090023340900233C09002320AD
S11315C00902232409021305090AEF00D06A046CF6
S11315D0B707020023306905233459052338490528
S11315E0233C3905233C2903C9079CC823A4040AC6
S11315F023B0040023B4040023BC040023A0040289
S113160023A404021385040A21468145EF00B06631
S1131610854723B0640523B4540523B8440523BC8B
S1131620340584FCE2701CD84274A2740279E26925
S1131630426AA26A026B2161828085471CD9D5BDAA
S113164003B5012D8D659385C5BE5DAE1C5991E32F
S11316504DBD82801C6A638C071A83D705011D71F6
S1131660A2E852F856F486ECA6E4CAE04EFC5AF01E
S11316705EEC62E866E46AE013F78700328AAA8ABD
S11316802E8425C3986D31CF13F7270003390A0040
S113169035C73C640C7C370B008081498144134B73
S11316A00BC04E86568585C8A68663739B00DA8672
S11316B0812682976355A01483370A01AA99898CDD
S11316C03385A7402338AA00630705103C640C7CCB
S11316D04E865685F1F8833909008334890041091F
S11316E0C9B7A2855685EF10C039631805288357FA
S11316F0040103390A0013F7270041FF13F7170009
S113170035EB44440860370B0080934BEBFF014CEE
S11317108149134BFBFFA68C6388090413F7072048
S1131720630A0712268D63F79918CE8C4E8D6A864C
S1131730E285EF00903A58441C60CE84BB0C97417C
S1131740EA97232694011CE0814903360A01269C6A
S1131750B304964023389A00BDCC444408608357B0
S11317600401A68CE39C09FA033C0900833989002F
S1131770410955B781490145814C014C630B0C0863
S113178045C1CE8B63733C01E28B08601C6C145022
S1131790DE8463F7A7005C443B8BD700634D7B0971
S11317A063C4DB183C640C7C668656858297AA84E5
S11317B06357A0049B070500BB89F9400545638B6B
S11317C0090283370A01A69C330C9C40B3849740DA
S11317D023389A00C5F40145E6604664A6640669A8
S11317E0E279427AA27A027BE26B426CA26C026DCD
S11317F025618280A2855685EF10E07179D1831727
S1131800040193E707042318F4007D55F1B701455B
S11318108280033C8900833C09004109E30B0CFEF0
S11318206286A9456685EF003008630F0512050539
S1131830BB099541B9B7E6855A86EF00102A1C60AA
S1131840A2855685DA971CE0EF10E06C4DF9DA8733
S1131850DA849DB71C6C63E8A7021C5063E5F902A7
S1131860CE8663F33B01DA86BBC6F60238640C7C91
S113187062865685BB86F6020297AA84E351A0F8D5
S1131880B3899940D9B563F39900CE842686E2855D
S1131890EF00B0245C441860BB869740269754C47C
S11318A018E0F9FEA2855685EF10E06629F9B389A0
S11318B0994061BD13F70748E30B07E604500C6C2D
S11318C0138719009B961400A59E0D8D9BD4F601D9
S11318D01B0D0500B59C9BD414406A9763F5E40086
S11318E09B841900A99C93F70740A9CFA685568528
S11318F0EF00A019AA8C25CD0C6C6A86EF00B0030A
S11319008357040193F7F7B793E707082318F40004
S11319103385AC01BB87A441233C940108E004D087
S1131920CE8C5CC44E8D21B55E86E685EF00F01A40
S1131930544418609B870B00BB8676415E9754C461
S113194018E09DBD26865685EF00D03DAA8C69F12E
S11319500C6C5685EF10807783170401314723A060
S1131960EA0093F7F7F771BD9B091C0019BD3147D5
S11319708317040123A0EA0069B57D55B1BD5D71EB
S11319804AF84EF452F056EC5AE85EE486E4A2E0DB
S113199026FC2E8A13090508014B930A000B854B7C
S11319A0FD598327890003340901635BF0029B849A
S11319B0F7FF821481908504B3845403A29483575F
S11319C0040163FBFB00831724012285638637012E
S11319D0029A336B6501012B1304040BE39184FE1B
S11319E003390900E31F09FAA6600664E274427928
S11319F0A279027AE26AA26B5A85426B61618280A3
S1131A005D714AF84EF452F056EC5AE85EE462E036
S1131A1086E4A2E026FC2A8C2E8A13090508014BD1
S1131A20930A000B854BFD59832789000334090170
S1131A30635CF0029B84F7FF821481908504B38475
S1131A405403A2948357040163FCFB00831724010D
S1131A50A285628563863701029A336B6501012B87
S1131A601304040BE39084FE03390900E31E09FA0E
S1131A70A6600664E2744279A279027AE26AA26BF1
S1131A80026C5A85426B616182801D71A6E4CAE0D2
S1131A9086ECA2E84EFC52F856F45AF05EEC62E88A
S1131AA066E4938475019307E0022A8963E7970447
S1131AB09307000263E2B71EEF009026930400022E
S1131AC09307000511469169938989D2CE9780675F
S1131AD0138707FF6303E41E1C64146C1068F19BF6
S1131AE0A297986714EE90EA136717004A8598E75F
S1131AF0EF0030231305040165A2B7070080C198E5
S1131B0093C7F7FF63EA971863E8B418EF0050210E
S1131B109307701F63F1973A93D79400638D072658
S1131B2011476361F73093D764001B8697039B16B4
S1131B3016001B8587038E069169938989D2CE96F8
S1131B408066C116638F8616FD4531A0635607284B
S1131B50006C638886161C64F19B33879740E3D737
S1131B60E5FE03B409021168130888D32A866311B9
S1131B70041783B789001B5726408545B395E500B4
S1131B8063F8B71A03B40901033A8400937ACAFFCD
S1131B9063E79A00B3879A407D476340F72203BA0C
S1131BA0814103B70130FD57330C5401269A630277
S1131BB0F73A8567FD073E9AFD77337AFA00D285B6
S1131BC04A85EF009056FD572A8B630BF530636707
S1131BD08531956B938B8BA503A70B00BB0747013E
S1131BE023A0FB00BE866300AC4003B70130FD5761
S1131BF06307F740B3078B41B59F23A0FB00137C19
S1131C00FB0063060C360567330B8B419307070112
S1131C10410BB3878741B30C4B01338A97417D173E
S1131C20337AEA00D2854A85EF003050FD57630DC0
S1131C30F540330565411B070A002A9A83A70B0068
S1131C4023B86901136A1A00B99F23A0FB00233447
S1131C504B016309343B7D466378563B1464138718
S1131C608AFE419B858AD98E14E4A545B306E40017
S1131C708CE68CEA6361E63E033A8B005A8483B6B1
S1131C80014163F4F60023B8F14083B6814063FD5B
S1131C90F62423B4F14089ACB1472320F90001456F
S1131CA0E6604664A6640669E279427AA27A027B17
S1131CB0E26B426CA26C25618280806F0926E39DF1
S1131CC087E003B409021168130888D3E30304EB23
S1131CD01C64FD46F19B3387974063C7E61A23B41F
S1131CE0090323B00903635F070A1307F01F63683E
S1131CF0F70E8D831B8717001B1717000E0703B5FC
S1131D0089004E970C639BD627408547B397D7002D
S1131D10C98F930607FF14EC0CE823B4F90000E321
S1131D2080ED1B5726408545B395E500E3ECB7E409
S1131D3033F7F50001EF8605719A33F7F5001126A4
S1131D4011E7860533F7F500112665DFFD481B030F
S1131D5016001B1313000E0341134E931A851C6DBA
S1131D60328E6302F50E98673E849C6F719BB306B6
S1131D70974063C1D80EE3C606FE22971467106825
S1131D804A8593E6160014E71CEE90EBEF006079A9
S1131D901305040131B7930600401306000413052C
S1131DA0F00359BBA29798674A851367170098E711
S1131DB0EF00207713050401E5B513E7140018E4D8
S1131DC0A29423B8990093E717004A859CE4EF0096
S1131DD0407513050401E9B5146C106811B313D7E9
S1131DE09700914663F2E60ED14663E8E61A9B0536
S1131DF0C7059B9515009B06B7058E05CE95986182
S1131E00C115638BE5141467F19A63F5D700186B59
S1131E10E39BE5FE0C6F83B789000CEC18E880E9BE
S1131E2000EF01B75147637FF70C13074005636464
S1131E30F71893D7C4001B86F7069B1616001B855C
S1131E40E7068E06D5B9052E93773E004105E1CB12
S1131E501C6D01BF106893E514000CE41CEE90EBBC
S1131E60A29423B4990223B0990293E7160023BCE9
S1131E70040123B804019CE422974A8514E3EF008B
S1131E80406A1305040129BD93E6140014E4A294E6
S1131E9023B4990223B099029366170023BC04016A
S1131EA023B8040194E4A2974A8598E3EF0060679D
S1131EB013050401F5B313D634009B0716009B9752
S1131EC0170001268E0701B113D767009B059703FE
S1131ED09B9515009B0687038E050DB7630B340F86
S1131EE003B40901033A8400137ACAFFB3079A4082
S1131EF063659A007D47E342F7EC4A85EF00606230
S1131F00014579BB1B86C7059B1616001B85B705C3
S1131F108E061DB1833703017D366394671893776A
S1131F2036004113E5FB03B7890093C7F5FFF98F2A
S1131F3023B4F9008605E3E7B7C4E38505C433F7A2
S1131F40F50011E7860533F7F500112E65DF72867B
S1131F50FDBB130A0A02A5B103B589009BD626402E
S1131F608547B397D700C98F23B4F9007DB5330CE7
S1131F704B01330C8041521C135C4C03E2854A85AF
S1131F80EF00B01AFD570147E30AF5CA330565416E
S1131F901B070C00330A850155B19306400563E91C
S1131FA0E60613D7C7009B05F7069B9515009B060D
S1131FB0E7068E05A1B5130740156369F70693D7A5
S1131FC0F4001B8687079B1616001B8577078E0671
S1131FD0A5B6956B938B8BA583A70B00BB86470196
S1131FE023A0DB0019B113174C03E31007C003B49B
S1131FF00901569A136A1A002334440149B123B0E3
S11320006131F5BE5A84A5B985472334FB00F5B583
S11320109306401563EDE60413D7F7009B05870785
S11320209B9515009B0677078E05C9BB1307405582
S1132030636DF70493D724011B86D7079B161600FC
S11320401B85C7078E06CDBC411C338A8C01330A1D
S11320506A410147E5B6930504014A85EF1000077C
S113206003B4090183A70B00033A840009B993065A
S1132070405563E3E60213D727019B05D7079B95D9
S113208015009B06C7078E0595BB9306007F1306B4
S1132090F0071305E0074DB49305007F9306E007AE
S11320A0B1BB83B7890079B59377750093F6F50FC3
S11320B095C39307F6FF05C67D5601A8050513775A
S11320C0750011CBFD17638CC70003470500E317A8
S11320D0D7FE8280B2871D47636FF70099E30145FD
S11320E08280AA9721A00505E30BF5FE03470500AE
S11320F0E31BD7FE828093F5F50F13978500D98DE6
S11321001397050183B8012C4D8F03B8812C9315C7
S11321100702D98D1D4318612D8F3306170113470C
S1132120F7FF718F337707014DFFE1172105E36452
S1132130F3FEC5FB6DB7B3C7A5009D8BB308C500FF
S1132140E9E39D4763FFC70A93777500AA868DEF7D
S113215013F688FF930706FC63EBF60463F3C602E9
S11321602E87B68703380700A107210723BC07FF82
S1132170E3EAC7FE9307F6FF958FE19BA107BE969E
S1132180BE9563E31609828003C70500850693F7AD
S11321907600A38FE6FE8505C5DF03C70500850627
S11321A093F77600A38FE6FE8505F9FF55B783B351
S11321B0850083BF050103BF850183BE050203BEFD
S11321C0850203B3050303B88503B86183B2050030
S11321D09386860423B076FC23BC56FA23B4F6FD1A
S11321E023B8E6FD23BCD6FD23B0C6FF23B466FEA8
S11321F023B806FF23BCE6FE93858504E3E9F6FADB
S1132200B1BFAA86E37115F99387F8FF1386160008
S1132210958F93B7970033B7C8001347170093C738
S11322201700F98F93F7F70F3687C5C3B3E7B600E6
S11322309D8BC1EF054363E4C8003383D840137812
S113224083FFAE872E989063A1072107233CC7FE26
S1132250E39B07FF937783FFBE95E306F3F203C77F
S113226005008507BE96A38FE6FEE3FE16F103C7BD
S11322701500938716002380E600E3F617F103C7E1
S1132280250093872600A380E600E3FE17EF03C72B
S11322903500938736002381E600E3F617EF03C782
S11322A0450093874600A381E600E3FE17ED03C7CC
S11322B05500938756002382E600E3F617ED83C7A3
S11322C06500A382F6008280050683C705008505A4
S11322D0A30FF6FEE36A16FF828063F3A502B387B9
S11322E0C500637FF5003307C500630E061683C679
S11322F0F7FFFD177D172300D700E39AF5FE8280D0
S1132300FD4763E7C70CAA879308F6FF6302061626
S11323109386150033E7B7003386D7401D8B1336F9
S113232076001346160013371700718F63030712E4
S113233013B7A800134717001377F70F630B0710A1
S1132340138898FF13583800138E180005082E863A
S1132350BE860147033306000507210623B0660045
S1132360A106E36907FF0E08C297C295B388084126
S1132370630B0E0F03C705002380E7006385080E77
S113238083C615000547A380D700638EE80C83C677
S1132390250009472381D7006387E80C83C63500ED
S11323A00D47A381D7006380E80C83C6450011471D
S11323B02382D7006389E80A83C655001547A382A0
S11323C0D7006382E80A03C765002383E70082809D
S11323D0B3E7A5009D8BC9EB930806FE93F808FEAE
S11323E093880802330815012E87AA8714631307FC
S11323F007029387070223B0D7FE833687FE23B4F0
S1132400D7FE833607FF23B8D7FE833687FF23BC66
S1132410D7FEE31DF8FC13778601C6959376F60183
S113242029CB83B80500138786FF1D4823B0170105
S1132430637BE80083B88500C11623B41701637475
S1132440D800946994EB619B21071D8ABA97BA95C9
S113245065BD8508BE9803C7F6FF85078506A38F6B
S1132460E7FEE39A17FF82809308F6FFAA874DB52B
S11324708280368651BD3D432A876371C3029377B8
S1132480F700C1E3BDE1937606FF3D8ABA960CE3FB
S11324900CE74107E36DD7FE11E28280B306C34027
S11324A08A069702000096966780A6002307B70065
S11324B0A306B7002306B700A305B7002305B7009A
S11324C0A304B7002304B700A303B7002303B70092
S11324D0A302B7002302B700A301B7002301B7008A
S11324E0A300B7002300B700828093F5F50F9396FD
S11324F08500D58D93960501D58D93960502D58DCE
S113250059B7939627009702000096968682E78033
S113251026FA9680C1171D8F3E96E371C3F89DB7C6
S1132520828082805D714AF886E4A2E026FC4EF443
S113253052F056EC5AE85EE462E03289638C05148A
S11325402E84AA8AEFF0DFFD033784FF9304790118
S11325509307E002130B04FF137AC7FF63FD970A86
S1132560B7070080C19893C7F7FF63EA970A63E847
S1132570240BB3094B01635E9A0C9167938B87D24A
S113258083B60B0183B789006387361593F6E7FF9B
S1132590CE969466858AEDE6F19BB306FA0063D184
S11325A0960A058B0DE3033C04FF330C8B41033780
S11325B08C00719BBA97B38B470163D49B26B30BF2
S11325C0EA0063D09B20CA855685EFF00FCC2A8998
S11325D01DCD833784FF130705FFF99BDA97638BBF
S11325E0E71C13068AFF9307800463E8C7221307D6
S11325F0700214606360C718AA87228794E3146783
S113260094E7186B98EBA2855685EF00302C56851D
S1132610EFF03FF109A893040002E3FC24F5B1476D
S113262023A0FA000149A6600664E274A279027A42
S1132630E26A426BA26B026C4A85427961618280D4
S113264083B7890103B70901368AB309DB001CEF9C
S113265098EB83378B0033079A40FD46858B63E9FB
S1132660E604B367FA002334FB0083B7890093E7D9
S1132670170023B4F9005685EFF0BFEA228965B745
S1132680058B31F3033C04FF330C8B4103378C007F
S1132690719B35B70664A660E2744279A279027A26
S11326A0E26A426BA26B026CB28561616FF0EFBDAE
S11326B0C58F2334FB00B3059B001367170098E50F
S11326C083B78900C105568593E7170023B4F90041
S11326D0EF00D01F4DB7F19BB306FA001386040236
S11326E063D7C60A058BE31007EE033C04FF330CE3
S11326F08B4103378C00719BBA97B3894701E3C0C0
S1132700C9EC83378C0103370C0113068AFF930647
S113271080041CEF98EB13090C0163EAC61C9305B3
S113272070021860CA8763FFC5002338EC00186480
S113273093077003233CEC0063E0C71C18689307FD
S11327400C02410498E3186498E7186898EB33077F
S11327509C00B389994023B8EB0093E719001CE768
S113276083378C005685858BDD8C23349C00EFF0F9
S11327705FDB55BD14E114641307700314E5636F44
S1132780C7101468130704019307050185BD269B30
S1132790858E23B86B0193E716002334FB0083373F
S11327A084FF56852289858BDD8C233C94FEEFF0D3
S11327B05FD795BD833785FFF19B3E9AB3094B01E3
S11327C049BD83378C0103370C0113068AFF930636
S11327D080041CEF98EB13090C01B3097C0163E737
S11327E0C60A930570021860CA8763FFC5002338C0
S11327F0EC00186493077003233CEC0063ECC70AF5
S1132800186893070C02410498E318645E8A628B8B
S113281098E718684A8498EB2DBDA285EFF0FFABCA
S1132820DDB383B7890103B7090113068AFF930651
S113283080041CEF98EB03370C0183378C011309D8
S11328400C01B3097C011CEF98EB63E1C604930609
S113285070021860CA87E3F9C6FA2338EC001864DA
S113286093077003233CEC001868E3FCC7F823309B
S1132870EC02186C930780042334EC021870630490
S1132880F60493070C0313040402BDBFA2854A8512
S1132890EFF0BFA44A845E8A628B65BB186818E9AE
S11328A0186C18ED1470630BF602130704029307F7
S11328B00502A9B31C682330FC021C6C2334FC02FF
S11328C01870E310D6FC2338EC02187493070C0438
S11328D013040403233CEC0218603DB714F1147490
S11328E0130704039307050314F5147801BBA285A9
S11328F04A85EFF09F9EA1BD1C682330FC021C6C2E
S11329002334FC0218706307D60093070C031304E6
S113291004020DBD2338EC02187493070C0413044D
S11329200403233CEC02186031BD011122E826E4C3
S11329302A842E8506EC23A00142EF00706BFD571C
S11329406307F500E2604264A2640561828083A7A4
S11329500142EDDBE2601CC04264A2640561828036
S1132960411122E02E848395250106E4EF0070389E
S1132970634905005C6CA260AA975CEC02644101A7
S11329808280835704017D777D17F98FA260231815
S1132990F40002644101828001458280839705012D
S11329A0797122F026EC4AE84EE406F413F7071096
S11329B02E84AA84839525013289B68905E37D771F
S11329C07D17F98F2318F4000274A270CE864A860C
S11329D0A26942692685E2644561B5A0894601463B
S11329E0EF0090138317040183152401C9BF41111B
S11329F022E02E848395250106E4EF00F011FD57B3
S1132A006301F502835704010567A260D98F9B9780
S1132A1007019BD7074148EC2318F40002644101E5
S1132A208280835704017D777D17F98F9B97070177
S1132A309BD70741A2602318F400026441018280FD
S1132A40839525018DAA01112E8722E826E4B285FB
S1132A502A8436863A8506EC23A00142EF00705E94
S1132A60FD576307F500E2604264A2640561828059
S1132A7083A70142EDDBE2601CC04264A2640561ED
S1132A808280011126E483B4812F22E84AE006EC17
S1132A902A892E8499C09C58B9CB91679387879BC8
S1132AA0630FF4049167938707986305F40C9167A7
S1132AB0938787946306F40E03170401931707039F
S1132AC093768700C193A9C6146CADC213F61700A0
S1132AD049C210502326040001453B06C04010D4CF
S1132AE0C9C2E2604264A2640269056182802685EB
S1132AF0EFE0DFB591679387879BE315F4FA806471
S1132B00031704019317070393768700C193CDFE3F
S1132B1093F60701C1CA918BA5E3146C1367870070
S1132B20931707032318E400C193CDF213F6072883
S1132B3093050020E30CB6F8A2854A85EF009001C6
S1132B4003170401146C93170703C19313F61700BA
S1132B5049F213F62700814511E20C504CC401459B
S1132B60C9F293F70708B5DF136707042318E400D5
S1132B707D5585BF806889B72C7081CD9307C407C4
S1132B806387F5004A85EF0060540317040123307E
S1132B900406146C1377B7FD2324040014E0BDBFAE
S1132BA0806C19BFA5472320F90013670704231875
S1132BB0E4007D553DB7011122E826E42A842E85E0
S1132BC006EC23A00142EF00B04DFD576307F5006A
S1132BD0E2604264A2640561828083A70142EDDB66
S1132BE0E2601CC04264A26405618280011106ECAB
S1132BF022E826E44AE0C1C52E84AA8419C11C59DE
S1132C00C9CB91679387879B6303F4089167938784
S1132C1007986303F408916793878794630BF40818
S1132C2083170401A9CFA2852685EF00A0153C6C6B
S1132C302A8991C70C7C26858297634105068357B0
S1132C40040193F70708ADE32C7091C99307C407F7
S1132C506385F5002685EF006047233004064C6049
S1132C6091C52685EF00804623300408E2602318CE
S1132C7004004264A2644A85026905618280E260BC
S1132C8042640149A2644A850269056182808064C4
S1132C9041BFEFE0BF9BB5B7806859B783570401C4
S1132CA07D5993F70708CDD30C6C2685EF000042BD
S1132CB061BF806CB5B7011106EC22E826E44AE056
S1132CC049C583B4812F2A8499C09C58C9CB916784
S1132CD09387879B6303F40891679387079863043A
S1132CE0F408916793878794630CF40883170401AD
S1132CF0A9CFA2852685EF00E0083C6C2A8991C7FC
S1132D000C7C26858297634205068357040193F75A
S1132D100708B5E32C7091C99307C4076385F500D0
S1132D202685EF00A03A233004064C6091C5268521
S1132D30EF00C03923300408E26023180400426421
S1132D40A2644A85026905618280E26042640149A5
S1132D50A2644A85026905618280806441BF268538
S1132D60EFE0DF8EADB7806851B7835704017D591A
S1132D7093F70708C5D30C6C2685EF00203559BF9F
S1132D80806CADB783970501797122F04EE406F4A7
S1132D9026EC4AE893F687002E84AA89D5EA0567CB
S1132DA0130707809445D98F2398F5006350D010FA
S1132DB0386859C7C217C193856683A40900FD8E7C
S1132DC023A009000C7CFDE6014685464E8502974A
S1132DD0FD572A866307F5108357040138680C7C75
S1132DE0918B99C714443C70158E99C33C5C1D8E1D
S1132DF081464E850297FD576310F50C03A7090021
S1132E00831704016DCFF5466305D700D946631EC9
S1132E10D70E146C7D771307F77FF98F2318F4000E
S1132E202324040014E02C7023A0990091C9930773
S1132E30C4076385F5004E85EF004029233004065E
S1132E400145A2700274E2644269A269456182800C
S1132E5003B98501E30609FE8461139707034193CF
S1132E600D8B23B02501BB842441814711E39C5180
S1132E705CC463469000E9B72A99E35390FC3C6430
S1132E800C7CA6864A864E858297899CE346A0FEE2
S1132E9083570401A270E26493E707042318F40043
S1132EA002744269A2697D5545618280B85DE3413F
S1132EB0E0F079B7506C2DB7835704017D77130781
S1132EC0F77FF98F146C9B9707019BD70741056720
S1132ED02318F4002324040014E0F98FA9D748EC44
S1132EE099B783A70900E38907EE75476385E7006F
S1132EF05947E39FE7F823A09900014599B77D77E7
S1132F001307F77F146CF98FD9B793E707042318D5
S1132F10F4007D553DB79C6DB9CF011122E806EC54
S1132F202A8419C11C599DCF91679387879B638914
S1132F30F502916793870798638BF50291679387EE
S1132F4087946388F5028397050191C722854264BB
S1132F50E260056105BDE26042640145056182806D
S1132F600C64D5B72EE4EFE06FEEA26575BF0C6874
S1132F70D9BF0C6CC9BF0145828035C51C6D0111D8
S1132F8022E806EC2A84A9C303B5812F19C11C5970
S1132F90A9C391679387879B6304F402916793871E
S1132FA007986309F4049167938787946306F4048C
S1132FB08317040191CBA2854264E2600561D9B311
S1132FC0006583170401E5FBE26042640145056185
S1132FD082802AE4EFE08FE791679387879B2265DD
S1132FE0E31EF4FAF1BF03B5012D8D65938565F1F8
S1132FF06FE01FA100696DBF006D5DBF79714EE484
S1133000916922F026EC4AE852E006F42E8A2A89D5
S1133010938989D2EFF0CFD003B709018567138470
S1133020F7FD046733044441F198269431807D14FC
S11330303204634BF40081454A85EFF01F8F83B758
S11330400901A697630EF5004A85EFF08FCDA270B3
S11330500274E2644269A269026A014545618280A0
S1133060B30580404A85EFF05F8CFD57630BF50292
S11330709567938787A5984383B60901818C93E468
S113308014003B0487404A8584E680C3EFF06FC98F
S1133090A2700274E2644269A269026A054545614C
S11330A0828081454A85EFF05F8803B70901FD46B8
S11330B0B307E540E3DAF6F883B6013093E7170087
S11330C01CE7158D956623ACA6A4BDBFEDC5011103
S11330D022E826E42E84AA8406ECEFF06FC40335BC
S11330E084FF130704FF91659377E5FF3306F70028
S11330F0938585D2146603B80501F19A6300C81458
S113310014E605893308D60041E1033304FF03388C
S1133110880011653307674083380701130585D399
S11331209A97137818006388A80E0333870123BC89
S1133130680023381301630D081493E6170014E79D
S11331401CE29306F01F63E2F6088D839B8617004A
S11331509B9616008E0603B88500AE9688621BD631
S113316027408547B397C700B3E70701138606FFD7
S113317010EF08EB9CE598E218ED4264E2602685C6
S1133180A26405616FF0EFB90335880005890DE588
S11331901165B697130585D3146A93E817003308AD
S11331A0F7006381A610106E90EE14EA2334170121
S11331B02330F80079B7828093E61700233CD4FECD
S11331C01CE29306F01FE3F2F6F893D6970011463B
S11331D0636FD60893D667001B8596031B151500ED
S11331E01B8686030E052E95146141156305D50CC7
S11331F09066719A63F5C700946AE31BD5FE886EE6
S113320008EF14EB426418E9E2602685A26498EEA4
S113321005616FF00FB1631C080E0C6E106AB6974F
S113322042640CEE90E993E61700E26014E7268509
S11332303E97A2641CE305616FF0AFAE0589B697B3
S113324009E9033504FF098F146F106BAA9714EE74
S113325090EA13E6170083B6813010E798E9E3EEAD
S1133260D7F083B581412685EFF05FD939B7514650
S11332706372D60213064005636AD60493D6C70068
S11332801B85F6061B1515001B86E6060E05A1BF59
S1133290B69719B71B85C6051B1515001B86B60501
S11332A00E0591B798F598F108EF08EB2334170150
S11332B02330F800D9B503B885001B56264085474E
S11332C03396C7003366060190E51DBF130640150B
S11332D0636CD60093D6F7001B8586071B15150073
S11332E01B8676070E0501B713064055636CD6009E
S11332F093D627011B85D6071B1515001B86C60709
S11333000E05D5B51305007F1306E007E9BD93E666
S1133310170014E71CE295B501112E8722E826E474
S1133320B2852A8436863A8506EC23A00142EF0052
S11333302057FD576307F500E2604264A26405610B
S1133340828083A70142EDDBE2601CC04264A26478
S11333500561828083D70501357122E906ED26E5F2
S11333604AE1CEFCD2F813F727002E8419CF9387B5
S1133370F5079CE19CED85479CD1EA604A64AA6408
S11333800A69E679467A0D61828083952501AA84CB
S113339063C905063000EF00003863420506B249F0
S11333A0BD670569B3F9F9008967B389F94093B931
S11333B0190013090980130A00409305004026856B
S11333C0EFE0AFEC8317040121CD05671307873DB8
S11333D0B8E493E707082318F40008E008EC232076
S11333E0440363940906B367F900EA602318F40000
S11333F04A64AA640A69E679467A0D618280835731
S1133400040193F7070801499DCB93050004268521
S1133410EFE0AFE783170401130A0004814955F56F
S113342013F7072039FBF19B93E727001307F407F1
S11334302318F400854718E018EC1CD03DBF130A8C
S113344000408149930500409DBF831524012685D2
S1133450EF00003001E58317040171B783570401BD
S1133460F19B93E717009B9707019BD70741A5BFE3
S1133470757122E12E8483952501A6FCCAF806E520
S1133480B284368963CC05023000EF00C02863475C
S11334900502B2473D67AA60F98F0967998F0A64EC
S11334A093B717002320F900930700409CE00565BB
S11334B0E674467913050580496182808317040107
S11334C02320090093F7070899CBAA600A6493079D
S11334D000049CE04679E674014549618280AA6053
S11334E00A64930700409CE04679E674014549610B
S11334F0828001112E8722E826E4B2852A8436864A
S11335003A8506EC23A00142EF00A028FD5763078B
S1133510F500E2604264A2640561828083A70142EF
S1133520EDDBE2601CC04264A264056182807971B3
S11335304AE803B9050022F026EC06F44EE452E012
S11335402E84AA84630B0902833909006383090268
S113355003BA0900630B0A0083350A0099C1EFF02E
S11335601FFDD2852685EFF07FB6CE852685EFF048
S1133570FFB5CA852685EFF07FB5A2850274A270D7
S11335804269A269026A2685E26445616FF01FB44C
S113359083B7812F638CA7163C615D7126FC86E49A
S11335A0A2E04AF84EF452F056EC5AE85EE462E0C7
S11335B0AA84638D07128C6F9DC50149930900206D
S11335C0B3872501806309C8A28500602685EFF0D2
S11335D0FFAF7DF8BC608C6F2109E31339FF2685AA
S11335E0EFF0DFAEBC608C63638305122685EFF0D9
S11335F0FFAD8C7481C52685EFF05FADBC6089C7D3
S1133600BE852685EFF09FACAC7081C52685EFF0B2
S1133610FFABAC7481C52685EFF05FABAC7881C598
S11336202685EFF0BFAACC7481C52685EFF01FAACA
S1133630CC7081C52685EFF07FA9AC6C81C5268549
S1133640EFF0DFA89C58DDC7BC6426858297C06074
S113365055C003390400630C0906833909006384E7
S1133660090603BA0900630C0A04833A0A00638456
S11336700A0403BB0A00630C0B02833B0B00638444
S11336800B0203BC0B00630C0C0083350C0081C5DA
S11336902685EFF0DFE9E2852685EFF03FA3DE859E
S11336A02685EFF0BFA2DA852685EFF03FA2D68506
S11336B02685EFF0BFA1D2852685EFF03FA1CE8508
S11336C02685EFF0BFA0CA852685EFF03FA0A2852E
S11336D00664A6604279A279027AE26A426BA26B1E
S11336E0026C2685E27461616FF05F9E0C75E39451
S11336F005F019BFA6600664E2744279A279027AE1
S1133700E26A426BA26B026C6161828082808C747B
S1133710E39305EEF5B501112E8722E826E42A8409
S1133720B2853A8506EC23A00142EF006017FD57ED
S11337306307F500E2604264A2640561828083A7A6
S11337400142EDDBE2601CC04264A2640561828038
S1133750011122E826E42A842E8506EC23A00142E6
S1133760EF00E014FD576307F500E2604264A264D1
S11337700561828083A70142EDDBE2601CC04264E4
S1133780A2640561828000000000000000000000C7
S1133790029029CE797122F026EC4AE84EE452E0F8
S11337A006F4B2842E890144A949354A29A0630D3F
S11337B0450163848402EF00E014B3078900238089
S11337C0A7000504E31535FFA27022850274E264A4
S11337D04269A269026A45618280A27002744269E8
S11337E0A269026A2685E26445618280014582807D
S11337F083B68143AA8799CE03B7014315C703B59E
S1133800814205CDAA9763F5E70023B4F142828093
S11338107D5582809566138606A823BCC14203B7F2
S11338200143938606A861FF03B70148F9752E97F3
S113383023B8E14203B5814271F523B4D142368500
S1133840D1B779714EE406F422F026EC4AE8B28945
S113385011CE2E843389C500A94403450400630FA7
S113386095000504EF00A005E31924FFA27002747B
S1133870E26442694E85A269456182803545EF0064
S1133880000405042945EF008003E31824FDA27019
S11338900274E26442694E85A26945618280000037
S11338A093078005138501421CC17D55828005451F
S11338B0828000000000000000000000000003B748
S11338C0813E05C783A7014485456384B7028946C1
S11338D06388D7001C47812763CB070023A0D1440A
S11338E05C43918BF5DF012508C30145828023A049
S11338F0B1445C4393F70720FDD75C4393F707205B
S1133900EDFBD5B703B7813E014519C75C43858BF1
S10D3910F5DF08431375F50F8280FC
S109391A000000000000A3
S1133920646372000000000075706C6F61640000D5
S11339307374617274000000444F4E45000000002F
S11339400A00000000000000000000000000000069
S11339500000000000000000000000000000000063
S11339600000000000000000000000000000000053
S11339700000000000000000000000000000000043
S11339800000000000000000000000000000000033
S11339900000000000000000000000000000000023
S11339A00000000000000000000000000000000013
S11339B00000000000000000000000000000000003
S11339C000000000000000000000000000000000F3
S11339D000000000000000000000000000000000E3
S11339E000000000000000000000000000000000D3
S10B39F0DC04000000000000EB
S10B39F8AC0400000000000013
S1133A00EF00C000EF0080050B000000B7F7FF7F58
S1133A1003A7070083A6870083A50701F32720CC0B
S1133A20B387E702630807023307F7001317270079
S1133A3093972700B387D7003307D700B385D540C2
S1133A4003A60700B386F5009387470023A0C600AA
S1133A50E398E7FE1305000067800000F32720CCFD
S1133A6013978700B74700FF93870704B307F7004E
S1133A70732700B023A0E700732710B023A2E70048
S1133A80732720B023A4E700732730B023A6E700F0
S1133A90732740B023A8E700732750B023AAE70098
S1133AA0732760B023ACE700732770B023AEE70040
S1133AB0732780B023A0E702732790B023A2E70204
S1133AC07327A0B023A4E7027327B0B023A6E702AC
S1133AD07327C0B023A8E7027327D0B023AAE70254
S1133AE07327E0B023ACE7027327F0B023AEE702FC
S1133AF0732700B123A0E704732710B123A2E704BE
S1133B00732720B123A4E704732730B123A6E70465
S1133B10732740B123A8E704732750B123AAE7040D
S1133B20732760B123ACE704732770B123AEE704B5
S1133B30732780B123A0E706732790B123A2E70679
S1133B407327A0B123A4E7067327B0B123A6E70621
S1133B507327C0B123A8E7067327D0B123AAE706C9
S1133B607327E0B123ACE7067327F0B123AEE70671
S1133B70732700B823A0E708732710B823A2E70827
S1133B80732720B823A4E708732730B823A6E708CF
S1133B90732740B823A8E708732750B823AAE70877
S1133BA0732760B823ACE708732770B823AEE7081F
S1133BB0732780B823A0E70A732790B823A2E70AE3
S1133BC07327A0B823A4E70A7327B0B823A6E70A8B
S1133BD07327C0B823A8E70A7327D0B823AAE70A33
S1133BE07327E0B823ACE70A7327F0B823AEE70ADB
S1133BF0732700B923A0E70C732710B923A2E70C9D
S1133C00732720B923A4E70C732730B923A6E70C44
S1133C10732740B923A8E70C732750B923AAE70CEC
S1133C20732760B923ACE70C732770B923AEE70C94
S1133C30732780B923A0E70E732790B923A2E70E58
S1133C407327A0B923A4E70E7327B0B923A6E70E00
S1133C507327C0B923A8E70E7327D0B923AAE70EA8
S1133C607327E0B923ACE70E7327F0B923AEE70E50
S1133C706780000000000000000000000000000059
S1133C80B839000000000000803900000000000086
S1133C90483900000000000000000000000000009F
S1133CA00000000000000000000000000000000010
S1133CB00000000000000000000000000000000000
S1133CC000000000000000000000000000000000F0
S1133CD000000000000000000000000000000000E0
S1133CE000000000000000000000000000000000D0
S1133CF000000000000000000000000000000000C0
S1133D0000000000000000000000000000000000AF
S1133D10000000000000000000000000000000009F
S1133D20000000000000000000000000000000008F
S1133D300000000000000000283D0000000000001A
S1133D40283D000000000000383D00000000000095
S1133D50383D000000000000483D00000000000065
S1133D60483D000000000000583D00000000000035
S1133D70583D000000000000683D00000000000005
S1133D80683D000000000000783D000000000000D5
S1133D90783D000000000000883D000000000000A5
S1133DA0883D000000000000983D00000000000075
S1133DB0983D000000000000A83D00000000000045
S1133DC0A83D000000000000B83D00000000000015
S1133DD0B83D000000000000C83D000000000000E5
S1133DE0C83D000000000000D83D000000000000B5
S1133DF0D83D000000000000E83D00000000000085
S1133E00E83D000000000000F83D00000000000054
S1133E10F83D000000000000083E00000000000023
S1133E20083E000000000000183E000000000000F2
S1133E30183E000000000000283E000000000000C2
S1133E40283E000000000000383E00000000000092
S1133E50383E000000000000483E00000000000062
S1133E60483E000000000000583E00000000000032
S1133E70583E000000000000683E00000000000002
S1133E80683E000000000000783E000000000000D2
S1133E90783E000000000000883E000000000000A2
S1133EA0883E000000000000983E00000000000072
S1133EB0983E000000000000A83E00000000000042
S1133EC0A83E000000000000B83E00000000000012
S1133ED0B83E000000000000C83E000000000000E2
S1133EE0C83E000000000000D83E000000000000B2
S1133EF0D83E000000000000E83E00000000000082
S1133F00E83E000000000000F83E00000000000051
S1133F10F83E000000000000083F00000000000020
S1133F20083F000000000000183F000000000000EF
S1133F30183F000000000000283F000000000000BF
S1133F40283F000000000000383F0000000000008F
S1133F50383F000000000000483F0000000000005F
S1133F60483F000000000000583F0000000000002F
S1133F70583F000000000000683F000000000000FF
S1133F80683F000000000000783F000000000000CF
S1133F90783F000000000000883F0000000000009F
S1133FA0883F000000000000983F0000000000006F
S1133FB0983F000000000000A83F0000000000003F
S1133FC0A83F000000000000B83F0000000000000F
S1133FD0B83F000000000000C83F000000000000DF
S1133FE0C83F000000000000D83F000000000000AF
S1133FF0D83F000000000000E83F0000000000007F
S1134000E83F000000000000F83F0000000000004E
S1134010F83F00000000000008400000000000001D
S113402008400000000000001840000000000000EC
S113403018400000000000002840000000000000BC
S1134040284000000000000038400000000000008C
S1134050384000000000000048400000000000005C
S1134060484000000000000058400000000000002C
S113407058400000000000006840000000000000FC
S113408068400000000000007840000000000000CC
S1134090784000000000000088400000000000009C
S11340A0884000000000000098400000000000006C
S11340B09840000000000000A8400000000000003C
S11340C0A840000000000000B8400000000000000C
S11340D0B840000000000000C840000000000000DC
S11340E0C840000000000000D840000000000000AC
S11340F0D840000000000000E8400000000000007C
S1134100E840000000000000F8400000000000004B
S1134110F84000000000000008410000000000001A
S113412008410000000000001841000000000000E9
S113413018410000000000002841000000000000B9
S11341402841000000000000384100000000000089
S11341503841000000000000484100000000000059
S11341604841000000000000584100000000000029
S113417058410000000000006841000000000000F9
S113418068410000000000007841000000000000C9
S11341907841000000000000884100000000000099
S11341A08841000000000000984100000000000069
S11341B09841000000000000A84100000000000039
S11341C0A841000000000000B84100000000000009
S11341D0B841000000000000C841000000000000D9
S11341E0C841000000000000D841000000000000A9
S11341F0D841000000000000E84100000000000079
S1134200E841000000000000F84100000000000048
S1134210F841000000000000084200000000000017
S113422008420000000000001842000000000000E6
S113423018420000000000002842000000000000B6
S11342402842000000000000384200000000000086
S11342503842000000000000484200000000000056
S11342604842000000000000584200000000000026
S113427058420000000000006842000000000000F6
S113428068420000000000007842000000000000C6
S11342907842000000000000884200000000000096
S11342A08842000000000000984200000000000066
S11342B09842000000000000A84200000000000036
S11342C0A842000000000000B84200000000000006
S11342D0B842000000000000C842000000000000D6
S11342E0C842000000000000D842000000000000A6
S11342F0D842000000000000E84200000000000076
S1134300E842000000000000F84200000000000045
S1134310F842000000000000084300000000000014
S113432008430000000000001843000000000000E3
S113433018430000000000002843000000000000B3
S11343402843000000000000384300000000000083
S11343503843000000000000484300000000000053
S11343604843000000000000584300000000000023
S113437058430000000000006843000000000000F3
S113438068430000000000007843000000000000C3
S11343907843000000000000884300000000000093
S11343A08843000000000000984300000000000063
S11343B09843000000000000A84300000000000033
S11343C0A843000000000000B84300000000000003
S11343D0B843000000000000C843000000000000D3
S11343E0C843000000000000D843000000000000A3
S11343F0D843000000000000E84300000000000073
S1134400E843000000000000F84300000000000042
S1134410F843000000000000084400000000000011
S113442008440000000000001844000000000000E0
S113443018440000000000002844000000000000B0
S11344402844000000000000384400000000000080
S11344503844000000000000484400000000000050
S11344604844000000000000584400000000000020
S113447058440000000000006844000000000000F0
S113448068440000000000007844000000000000C0
S11344907844000000000000884400000000000090
S11344A08844000000000000984400000000000060
S11344B09844000000000000A84400000000000030
S11344C0A844000000000000B84400000000000000
S11344D0B844000000000000C844000000000000D0
S11344E0C844000000000000D844000000000000A0
S11344F0D844000000000000E84400000000000070
S1134500E844000000000000F8440000000000003F
S1134510F84400000000000008450000000000000E
S113452008450000000000001845000000000000DD
S10B4530184500000000000022
S11345387F7F7F7F7F7F7F7FFFFEFEFEFEFEFEFE86
S11345488080808080808080783C000000000000AB
S113455800000000000000007402000000000000D9
S113456840460000000000000000F0FF00000000CA
S1134578783C000000000000FFFFFFFFFFFFFFFF83
S10B4588000002000000000025
S11345901000000000000000037A5200017C0101B9
S11345A01B0D0200100000001800000052BFFFFFA6
S11345B01000000000000000100000002C000000AB
S11345C04EBFFFFF0E0000000000000010000000BE
S11345D04000000048BFFFFF420000000000000050
S11345E0100000005400000076BFFFFF44000000EC
S11345F0000000001000000068000000A6BFFFFFDC
S11346001400000000000000240000007C000000F2
S113461038BDFFFF9E00000000440E404A8102881E
S11346200489060286C142C842C9440E0000000043
S10746300000000082
S9030000FC
