S01200006770752D6D656D6F72792E7372656300
S3150000000097C10D00938101A7970200009382821584
S3150000001073905230732440F163100402970200007B
S315000000209382421573905230EF609A5797120000F0
S31500000030938242D9E780020013132400970200003E
S315000000409382420CB302530003A302000F00F00F89
S31500000050E31C03FE177E1000130ECE889313440094
S31500000060B30E7E00138F8E0083BF0E0003310F0088
S31500000070970200009382021073905230732540F16C
S31500000080E7800F00130000001300000013000000BB
S31500000090130000001300000013000000130000000E
S315000000A013000000130000001300000013000000FE
S315000000B013000000130000001300000013000000EE
S315000000C013000000130000001300000013000000DE
S315000000D013000000130000001300000013000000CE
S315000000E013000000130000001300000013000000BE
S315000000F013000000130000001300000013000000AE
S3150000010073001000730010007300100073001000DD
S3150000011073001000730010007300100073001000CD
S3150000012073001000730010007300100073001000BD
S3150000013073001000730010007300100073001000AD
S3150000014013132500970300009383C3FBB3027300C8
S315000001500F00500F23A00200130500006780000067
S3150000016073001000130000001300000013000000CD
S3150000017073202034130101EF23301100233831009E
S31500000180233C41002330510223346102233871029B
S31500000190233C8102233091042334A1042338B10483
S315000001A0233CC1042330D1062334E1062338F1066B
S315000001B0233C01072330110923342109233831094F
S315000001C0233C41092330510B2334610B2338710B37
S315000001D0233C810B2330910D2334A10D2338B10D1F
S315000001E0233CC10D2330D10F2334E10F2338F10F07
S315000001F073250030F325103473262034233CA10EDA
S315000002002330B1102334C11063560600EF609A48BC
S315000002106F00C00093060100EF605A47833001006B
S3150000022083310101033281018332010203338102EA
S3150000023083330103033481038334010403358104CA
S3150000024083350105033681058336010603378106AA
S31500000250833701070338810783380108033981088A
S3150000026083390109033A8109833A010A033B810A6A
S31500000270833B010B033C810B833C010C033D810C4A
S31500000280833D010D033E810D833E010E033F810F29
S31500000290833F011073100F3073901F34033F810E9C
S315000002A0833F010F1301011173002030000000008D
S315000002B00000000000000000000000000000000038
S315000002C00000000000000000000000000000000028
S315000002D00000000000000000000000000000000018
S315000002E00000000000000000000000000000000008
S315000002F000000000000000000000000000000000F8
S3150000030000000000000000000000000000000000E7
S3150000031000000000000000000000000000000000D7
S3150000032000000000000000000000000000000000C7
S3150000033000000000000000000000000000000000B7
S3150000034000000000000000000000000000000000A7
S31500000350130101FF1305800023341100EFF08828F4
S31500000360B7570D009387073437F60800B7550D00C9
S315000003702330F5001306867193858528EF40C01655
S31500000380130101FF1305800023341100EFF08825C7
S31500000390B7370D009387871A37D60700B7350D0094
S315000003A02330F500130686C093850518EF40C01369
S315000003B0130101FF1305800023341100EFF088229A
S315000003C0B7370D009387872037D60700B7350D005E
S315000003D02330F5001306C6C59385051EEF40C010F1
S315000003E0130101FF1305800023341100EFF0881F6D
S315000003F0B7370D009387872637D60700B7350D0028
S315000004002330F500130606CB93850524EF40C00D77
S31500000410130101FE233881001304050013050001B2
S31500000420233C110023349100EFF0C81B9305040010
S3150000043013040500EF40992737360900B7650D000C
S315000004401306C67D938585AF13050400EF40C009EA
S315000004509304050013050400EFF0481E13850400FD
S31500000460EF408A10130101FE2338810013040500B2
S3150000047013050001233C110023349100EFF0881688
S315000004809305040013040500EF4099273746090039
S31500000490B7650D001306C6C7938585B2130504001C
S315000004A0EF4080049304050013050400EFF00819DB
S315000004B013850400EF404A0B130101FE2338810027
S315000004C01304050013050001233C11002334910099
S315000004D0EFF048119305040013040500EF40592876
S315000004E037460900B7650D001306C6C1938585B565
S315000004F013050400EF30507F930405001305040034
S31500000500EFF0C81313850400EF400A06130101FE3D
S31500000510233881001304050013050001233C110054
S3150000052023349100EFF0080C930504001304050032
S31500000530EF40192937460900B7650D001306C6B501
S31500000540938585B813050400EF30107A93040500EF
S3150000055013050400EFF0880E13850400EF40CA006F
S31500000560130101FE23388100130405001305000161
S31500000570233C110023349100EFF0C80693050400D4
S3150000058013040500EF40D92937460900B7650D0069
S315000005901306C6BB938585BB13050400EF30D074E4
S315000005A09304050013050400EFF0480913850400C1
S315000005B0EF309A7B130101FE2338810013040500F6
S315000005C013050001233C110023349100EFF088014C
S315000005D09305040013040500EF40992A37460900E5
S315000005E0B7650D001306C683938585BE1305040003
S315000005F0EF30906F9304050013050400EFF0080434
S3150000060013850400EF305A76130101FE233881006A
S315000006101304050013050001233C11002334910047
S31500000620EFE0587C9305040013040500EF40992A77
S3150000063037460900B7650D001306C68F938505C1B9
S3150000064013050400EF30506A9304050013050400F7
S31500000650EFE0D87E13850400EF301A71130101FE16
S31500000660233881001304050013050001233C110003
S3150000067023349100EFE01877930504001304050076
S31500000680EF40592B37460900B7650D001306C6958E
S31500000690938505C413050400EF3010659304050027
S315000006A013050400EFE0987913850400EF30DA6B48
S315000006B0130101FE23388100130405001305000110
S315000006C0233C110023349100EFE0D8719305040018
S315000006D013040500EF40192C37460900B7650D00D5
S315000006E01306C689938505C713050400EF30D05F4E
S315000006F09304050013050400EFE058741385040005
S31500000700EF309A66130101FF1305800023341100B0
S31500000710EFE0586DB7370D009387872037D607006F
S31500000720B7350D002330F5001306C6C59385051EA3
S31500000730EF30905B130101FF130580002334110095
S31500000740EFE0586AB7370D009387872637D607003C
S31500000750B7350D002330F500130606CB9385052427
S31500000760EF309058130101FF130580002334110068
S31500000770EFE05867B7770D00938707A33786090020
S31500000780B7750D002330F500130646E9938585A05D
S31500000790EF309055130101FD233C910093040500B1
S315000007A0130500032334110223308102EFE098631E
S315000007B013040500EF50195E930710002320F10083
S315000007C08335010013060500938604001305040013
S315000007D0EF60093FB7670D009387074713050400CD
S315000007E02330F400EF20197F93050500130504025A
S315000007F0EF70190237660900B7650D001306867596
S315000008009385053E13050400EF30104EB7670D00C3
S315000008109304050093878744130504002330F400EE
S31500000820EF60597E6F0080009304050013050400F5
S31500000830EFE0D86013850400EF301A53130101FD71
S315000008402338210113090500130500032330810213
S31500000850233C91002334110293840500EFE098585D
S315000008601304050063880400EF70091313060500DE
S315000008706F000001EF501952130605009304100093
S315000008802320910083350100930609001305040017
S31500000890EF600933B7670D00938707471305040018
S315000008A02330F400EF2019739305050013050402A5
S315000008B0EF70097637660900B7650D001306867571
S315000008C09385053E13050400EF301042B7670D000F
S315000008D09304050093878744130504002330F4002E
S315000008E0EF6059726F008000930405001305040041
S315000008F0EFE0D85413850400EF301A47130101FBCB
S31500000900233821031309050013050002233081044F
S31500000910233C91022334110423343103EFE0984C35
S315000009209304050013060900938581FF1305010052
S31500000930EF60D9789305010013850400930901013E
S31500000940EF60C9680335010063043501EF20904E5E
S31500000950B7770D00138481FF37860900B7750D0040
S315000009609387078813064680938585801385040040
S3150000097023B0F40023A8240123BC8400EF30D03632
S315000009808337010013040500638A370113850700C6
S31500000990EF20504A6F008000130405001385040001
S315000009A0EFE0D84913050400EF301A3C130101FFAC
S315000009B02330810037441000130584EB23341100E3
S315000009C0EF40806E930584EB033401008330810091
S315000009D037550000138681F91305450C13010101F3
S315000009E06F704A2EB747100003C707F66316070055
S315000009F0130710002380E7F6B747100003C787F5F3
S31500000A006316070013071000238CE7F4B74710009E
S31500000A1003C707F563160700130710002388E7F4DA
S31500000A20B747100003C787F46316070013071000C3
S31500000A302384E7F4B747100003C707F463160700DB
S31500000A40130710002380E7F4B747100003C787F3A6
S31500000A506316070013071000238CE7F2B747100050
S31500000A6003C707F363160700130710002388E7F28E
S31500000A70B747100003C787F2631607001307100075
S31500000A802384E7F267800000B747100003C707FE1C
S31500000A9063160700130710002380E7FEB747100010
S31500000AA003C787FD6316070013071000238CE7FCB6
S31500000AB0B747100003C707FD6316070013071000AA
S31500000AC02388E7FCB747100003C787FC63160700B7
S31500000AD0130710002384E7FCB747100003C707FC81
S31500000AE063160700130710002380E7FCB7471000C2
S31500000AF003C787FB6316070013071000238CE7FA6A
S31500000B00B747100003C707FB63160700130710005B
S31500000B102388E7FAB747100003C787FA631607006A
S31500000B20130710002384E7FA67800000B747100018
S31500000B3003C7870863160700130710002384E70816
S31500000B40B747100003C7070863160700130710000E
S31500000B502380E708B747100003C787076316070017
S31500000B6013071000238CE706B747100003C70707D3
S31500000B7063160700130710002388E706B74710001F
S31500000B8003C7870663160700130710002384E706CA
S31500000B90B747100003C707066316070013071000C0
S31500000BA02380E706B747100003C7870563160700CB
S31500000BB013071000238CE704B747100003C7070587
S31500000BC063160700130710002388E704B7471000D1
S31500000BD003C7870463160700130710002384E7047E
S31500000BE0B747100003C70704631607001307100072
S31500000BF02380E704B747100003C78703631607007F
S31500000C0013071000238CE702B747100003C707033A
S31500000C1063160700130710002388E70267800000A9
S31500000C20B747100003C787146316070013071000A1
S31500000C302384E714B747100003C707146316070099
S31500000C40130710002380E714B747100003C7871364
S31500000C506316070013071000238CE712B74710002E
S31500000C6003C7071363160700130710002388E7124C
S31500000C70B747100003C78712631607001307100053
S31500000C802384E712B747100003C70712631607004D
S31500000C90130710002380E712B747100003C7871118
S31500000CA06316070013071000238CE710B7471000E0
S31500000CB003C7071163160700130710002388E71000
S31500000CC0B747100003C78710631607001307100005
S31500000CD02384E710B747100003C707106316070001
S31500000CE0130710002380E710B747100003C7870FCC
S31500000CF06316070013071000238CE70EB747100092
S31500000D0003C7070F63160700130710002388E70EB3
S31500000D1067800000130101FE23349100B714000020
S31500000D20233881009384041C3764100013048492D2
S31500000D3013850400233C1100233C9400EFA00A19FC
S31500000D402338A400630205022334A400233095004F
S31500000D50233405008330810103340101833481008B
S31500000D601301010267800000233C040023340400C1
S31500000D706FF05FFE130101FF233081003775090014
S31500000D80138681F9938581FF1305857F233411002E
S31500000D90EF605A73138681F90334010083308100B2
S31500000DA037750900938501FF1305457F130101017E
S31500000DB06F605A7100000000000000000000000093
S31500000DC0EF501A7E130401009302000063900202A2
S31500000DD0173510001305050E1766100013060607D3
S31500000DE0B306A64093D53600EF509A7C9732100092
S31500000DF09382425123B08200EF509A7DEF505A7A87
S31500000E00EF60CA29EF608A2FEF60CA1517850A00BE
S31500000E10130505AEEF605A55EF905A2BEF505A78EE
S31500000E20973210009382023E03A50200938281004E
S31500000E3083B5020013060000EF00400FEF605A6A08
S31500000E4073001000000000000000000037B50D0020
S31500000E5037B70D009307052713070727630AF7001F
S31500000E6093070000638607001305052767800700C0
S31500000E706780000037B50D009307052737B70D00CB
S31500000E8093050727B385F54093D7354093D5F503EA
S31500000E90B385F50093D51540638A050093070000D6
S31500000EA06386070013050527678007006780000033
S31500000EB0130101FF2330810037441000834784303B
S31500000EC02334110063920702EFF05FF8B7770A0048
S31500000ED0938747936386070013850104EF509A258D
S31500000EE0930710002304F43083308100033401009B
S31500000EF01301010167800000B7670A0093874771F5
S31500000F0063840702B7451000130101FF938505317D
S31500000F101385010423341100EF50CA7F833081000A
S31500000F20130101016FF01FF56FF0DFF4130101FAF1
S31500000F30233C1104233881042334910423302105F2
S31500000F40233C310313050040EF905A78130905003E
S31500000F5013050040EF909A7793090500930709005F
S31500000F60130709402380070093871700E39CE7FED9
S31500000F70938409001384094093870900238007009E
S31500000F8093871700E39C87FE233401022330010276
S31500000F9037A50C0013050525EFB00A3513058102A8
S31500000FA0EF10402E37A50C0013050527EFB0CA3306
S31500000FB0130601019305100003358102EF00802E10
S31500000FC0130681019305200003358102EF00802D71
S31500000FD0130681009305300003358102EF00802C53
S31500000FE083360101033681018335810037A50C0064
S31500000FF013050529EFA01A799305004037A50C00C3
S315000010001305852CEFA01A7893060102130610002B
S315000010109305004003358102EF00804893050100E7
S3150000102003350102EF00D04C37A50C001305052F40
S31500001030EFB08A2B930600401306000093050900C3
S3150000104003350102EF00105E37A50C00130585304D
S31500001050EFB08A299306004013060000833501028B
S3150000106013850900EF00D06483C704006396070C5C
S3150000107093841400E39A84FE930600403307F90034
S315000010802300F70093871700E39AD7FE93050040E5
S3150000109037A50C0013050532EFA0DA6E9306004063
S315000010A0130600009305090003350102EF0090576F
S315000010B09305004037A50C0013058534EFA09A6C04
S315000010C093060040130600008335010213850900CC
S315000010D0EF00105E9305004037A50C001305853719
S315000010E0EFA05A6A03350102EF00502E37A50C0017
S315000010F01305053AEFB04A1F03358102EF00C028F9
S3150000110093070000130600409B850700B386F9008D
S315000011103307F90083C60600034707006390E60815
S3150000112093871700E392C7FE37A50C001305053C0D
S31500001130EFB08A1B6F00800383C6090003460900CF
S315000011409305000037A50C001305053DEFA09A6333
S3150000115037A50C0013050540EFB00A190335010247
S31500001160EF00D02603358102EF00002213050900A7
S31500001170EF909A5613850900EF901A561305000052
S315000011808330810503340105833481040339010466
S315000011908339810313010106678000003387B90094
S315000011A0B307B9008346070003C6070037A50C003E
S315000011B01305053DEFA01A5D37A50C001305054084
S315000011C0EFB08A126FF09FFAB747100083B7071F78
S315000011D0639A070037471000B7771000938787E4B4
S315000011E02338F71EB747100083B7871E639807009A
S315000011F0B74710003707001023B4E71E67800000CA
S31500001200130101FF23341100EF609A278330810018
S31500001210B7470F00938707243305F5021301010131
S3150000122067800000130101FD233C91009304050033
S315000012302330810223382101233431012334110262
S3150000124093890500EF60DA2303B40400B7D79A3B0D
S31500001250938707A03304F40283B78400B7440F00D2
S3150000126013090500938404243304F400EF605A2123
S31500001270B3072541B3879702E3EA87FE6386090031
S3150000128023B0090023B4090083308102033401022C
S31500001290833481010339010183398100130101037C
S315000012A067800000630C050A9307700063ECB70AB9
S315000012B0B7B70C00938707A393952500B385F50070
S315000012C083A70500678007000347550693071000AC
S315000012D013050000B397E7002330F600678000008F
S315000012E083378506130500002330F600678000006B
S315000012F083470506130500002330F60067800000CB
S3150000130083471506130500002330F60067800000AA
S3150000131083472506130500002330F600678000008A
S31500001320833705061305000093D7870193970703B4
S3150000133093D707032330F600678000009307000465
S315000013402330F60013050000678000008337050789
S31500001350130500002330F600678000001305F0FF38
S315000013606780000083B7810113860500B7A50C00CE
S3150000137003B58701130101FF93850541233411004D
S31500001380EF705A0FEF60CA7C63080510130101FE67
S31500001390233881000334850323349100233C110054
S315000013A093040500630A04001305040003340400D3
S315000013B0EF204028E31A04FE03B6040303B58402B3
S315000013C09305000013163600EFA01A2003B5840219
S315000013D023B0040423BC0402938784056304F50048
S315000013E0EF20402503B40402630A04008327840027
S315000013F01B87F7FF2324E4006306070603B40401F2
S3150000140063020404832784001B87F7FF2324E40078
S31500001410631A0702833704001305040083B7070124
S31500001420E78007008327C4001B87F7FF2326E40015
S31500001430631A0700833704001305040083B7870186
S31500001440E780070013850400EF20C01E833081016A
S3150000145003340101833481001305000013010102E6
S3150000146067800000833704001305040083B7070173
S31500001470E78007008327C4001B87F7FF2326E400C5
S31500001480E31E07F6833704001305040083B78701BC
S31500001490E78007006FF09FF61305F0FF67800000F6
S315000014A0630C053A130101FB23386101233411044F
S315000014B023308104233C9102233821032334310352
S315000014C023304103233C5101233471012330810130
S315000014D0138B060063800636938A0500638C0534F9
S315000014E0833985009384F5FF130A050083E74901D4
S315000014F003B68901B384F400B307F040B3F4F400F3
S31500001500630A062213090600833789026384070EDD
S3150000151003B78703637897006F00C00D03B787038F
S31500001520636897001384070083B70700E39807FEF4
S315000015300336840103370401033C8403833B04031D
S3150000154083368400630606282338E6000337040141
S3150000155063040700233CC70023380400233C04002F
S31500001560638E062823B0F6008337040063840700E1
S3150000157023B4D70083678901330C9C4023300400D1
S31500001580233404006370FC10833709022330F4020D
S315000015906384070023B4870283B789022330890254
S315000015A013058001B384970023B49902EF304000FD
S315000015B02330450123347501233855012330AB0010
S315000015C0130500008330810403340104833481034E
S315000015D00339010383398102033A0102833A810107
S315000015E0033B0101833B8100033C0100130101051C
S315000015F06780000003390900E31809F083E7090151
S3150000160083BB0900138CF7FF330C9C00B307F04033
S31500001610337CFC00B3067C018337860063F8D7125F
S3150000162003370601B387E70063F6FB00938B0700D9
S31500001630B306FC0003360600E31006FE83B78900F6
S3150000164063F6D71037A50C0013058543EFA0DA49DA
S3150000165037A40C00B7A50C001306F0FF93850545CB
S3150000166013058447EFA01A12B7A50C001306F0FF66
S315000016709385054A13058447EFA0DA101305F0FF9A
S315000016806FF05FF4233C940213050004EF205072C0
S3150000169083370903B38B7401233005002334050017
S315000016A023380500233C05002330050223340502B8
S315000016B023387503233C8503638C071893060000C3
S315000016C06F00400103B707019386070063060714FE
S315000016D09307070003B70703E36677FF2338F50090
S315000016E0233CD5006380061423B8A60023BCA700BC
S315000016F08337890263840714930600006F00400154
S3150000170003B7070093860700630E070E93070700CB
S3150000171003B78703E366ECFE2330F5002334D500D8
S315000017206386061023B0A600833B040323B4A700F8
S315000017306FF09FE583E7090183BB0900138CF7FF70
S31500001740330C9C00B307F040337CFC001305800388
S31500001750EF20106683A74901130905002330050011
S315000017602334750123388501232CF5002330050227
S3150000177013050004EF20D06383B7890123300500E9
S315000017802334050023380500233C050023300502D9
S315000017902334050223387503233C85032338A90225
S315000017A02334A902130405006388070083368900E1
S315000017B003B7870063F8E6022330F90023BC29014A
S315000017C063609C0A9307000093060000130700005D
S315000017D02338E902130600006FF09FD703B787008E
S315000017E06378D7001386070083B70700E39807FEE0
S315000017F02330F900233026016FF09FFC2334F902D1
S315000018006FF0DFD6233005002334F500833B040355
S3150000181023B0A7006FF05FD7233CF50023B8A700DD
S315000018206FF01FED2338A9026FF05FEC2334A90295
S315000018306FF09FEF1305F0FF6FF0DFD82330050040
S3150000184023340500833B04032334A9026FF0DFD35E
S315000018502338A9026FF0DFE91305F0FF6780000067
S315000018608337800173001000130405001305090077
S31500001870EF10505C13050400EF201A4F630A05327F
S31500001880130101FB23347101233411042330810435
S31500001890233C9102233821032334310323304103AF
S315000018A0233C51012338610123308101930B07004A
S315000018B0630A072C130B06006306062C033A850001
S315000018C09309F6FF930A050083670A0103378A0026
S315000018D013840500B389F900B307F040B3F9F900A2
S315000018E0B38435016360972C83378A0163900702BE
S315000018F06F0000086366040363F496066372980239
S3150000190063F0860283B707006384070683B6870001
S3150000191003B8070133880601E37ED4FC63F496041A
S3150000192037A50C0013050555EFA01A1C37A40C00AB
S31500001930B7A50C001306F0FF9385854F1305844762
S31500001940EFA04A64B7A50C001306F0FF9385055275
S3150000195013058447EFA00A631305F0FF6F00400EDE
S31500001960E3E286FAE3FE04FB83B70700E39007FA97
S3150000197013058003EF20D04383274A01130C05008B
S315000019801305000423300C0023348C0023383C015B
S31500001990232CFC0023300C02EF20904183378A0170
S315000019A0233005002334050023380500233C0500B9
S315000019B0233005022334050223388502233C3503F0
S315000019C02338AC022334AC021309050063880700F0
S315000019D083368C0003B7870063F0E60A2330FC00E9
S315000019E083278C01233C8A0123380C022338090003
S315000019F0233C090023340C02233009002334090058
S31500001A006386070A83370C022330F90263840700D2
S31500001A1023B4270383378A0223302C03130580015E
S31500001A20B389370123343A03EF2090382330550128
S31500001A30233485002338650123B0AB00130500006D
S31500001A4083308104033401048334810303390103A1
S31500001A5083398102033A0102833A8101033B010182
S31500001A60833B8100033C01001301010567800000F0
S31500001A7003B787006378D7001386070083B707008C
S31500001A80E39807FE2330FC0083278C012330860170
S31500001A9023380C0223380900233C090023340C02A6
S31500001AA02330090023340900E39E07F413050004DC
S31500001AB0233C3903EF20D02F83370C032330050056
S31500001AC02334050023380500233C05002330050296
S31500001AD02334050223389502233C05026380070C54
S31500001AE0930600006F00400103B7070193860700C5
S31500001AF0630207069307070003B70703E36697FE2B
S31500001B002338F500233CD5006384060623B8A600D7
S31500001B1023BCA70083378C02638A0706930600005E
S31500001B206F00400103B7070093860700630A0702A8
S31500001B309307070003B78703E31607FE2330F50074
S31500001B402334D500638A060223B0A60023B4A70077
S31500001B506FF05FEB233CF50023B8A7006FF09FFB07
S31500001B60233005002334F50023B0A7006FF09FE96A
S31500001B702338AC026FF0DFF92334AC0223B4A7009C
S31500001B806FF05FE81305F0FF6FF09FEB2330050061
S31500001B90233405002334AC026FF0DFE62338AC02B1
S31500001BA06FF05FF737A50C001305054D6FF0DFD713
S31500001BB01305F0FF678000001304050013050C00F1
S31500001BC0EF10502713050400EF201A1A130101FD28
S31500001BD02330810223341102233C91002338210152
S31500001BE02334310113040000630C05068337050016
S31500001BF0033785009304050003B987000334890180
S31500001C006304040883378400636CF7068336040193
S31500001C10B387D7006376F706833504026398050019
S31500001C206F00000683B50502638C050483B70503C0
S31500001C30E31AF7FE1305040083B98503EF0050513C
S31500001C4083370402638E0704833789021304000076
S31500001C50B38737412334F90213850400EF10901D32
S31500001C6083308102130504000334010283348101A9
S31500001C7003390101833981001301010367800000E4
S31500001C8003340400E31004F837A50C00930507009D
S31500001C9013058558EFA00A2F1304F0FF6FF0DFFB42
S31500001CA083378901638E0700639687006F00800380
S31500001CB0638487021387070083B70700E39A07FE4A
S31500001CC00335040363040500EF10D0161305040062
S31500001CD0EF1050166FF05FF7833704002330F700DC
S31500001CE06FF01FFE83370400233CF9006FF05FFDA1
S31500001CF0630A0500833785001305000023B0F5004D
S31500001D00678000001305F0FF678000009307050059
S31500001D10630A0502638C05008336850003B78600D7
S31500001D2083B686023307D74023B0E50013050000CB
S31500001D30630C060083B7870083B787022330F6005B
S31500001D40678000001305F0FF678000006308050C3C
S31500001D50130101FC23349102B7440F002330210301
S31500001D60233C31012338410113890424233C110209
S31500001D7023388102130A0500938905009384F4230E
S31500001D80130681009305400113050A002334010060
S31500001D90EF10805A631C05028337810093F77700A2
S31500001DA02334F100638C0704638A0904EF505A6DEB
S31500001DB013040500EF50DA6CB3078540B387270399
S31500001DC0E3FAF4FE9389F9FF6FF09FFB37A40C004A
S31500001DD0B7A50C00130605009385855B130584479C
S31500001DE0EFA04A1AB7A50C001306F0FF9385055E0F
S31500001DF013058447EFA00A191305F0FF833081030A
S31500001E0003340103833481020339010283398101DA
S31500001E10033A010113010104678000001305F0FF76
S31500001E206780000063020506930706001386050017
S31500001E30638C050403380501B385D7001307050035
S31500001E40033505006362B80483358700B385B700A0
S31500001E5093F7F503639A07029386F603833705071C
S31500001E6093F606FC3387D50063E0E702130101FF12
S31500001E7023341100EF009052631C0500833081006B
S31500001E8013010101678000001305F0FF6780000061
S31500001E9013060500B7A50C0037A50C009385056150
S31500001EA013058547EFA00A0E1305F0FF6FF01FFD1F
S31500001EB013870500638E050493050500630A050470
S31500001EC0833807013308D6000335070063E20805A7
S31500001ED0033787003306E6001377F603631A070213
S31500001EE09387F6030337050793F707FCB387C70005
S31500001EF06360F702130101FF23341100EF00507DE8
S31500001F00631C050083308100130101016780000016
S31500001F101305F0FF6780000013060500B7A50C0047
S31500001F2037A50C009385856413058547EFA08A05C0
S31500001F301305F0FF6FF01FFD630E0504630C060426
S31500001F40833805039397050293D70702B3F7170360
S31500001F5003378502939637003307D7000338070007
S31500001F60630A080203370800832687006388D502C0
S31500001F700335070013080700630E05008326850056
S31500001F80130705001395060213550502337515034D
S31500001F90E38EA7FC1305F0FF678000008337080077
S31500001FA0E38A07FE83A7C700130500002320F60077
S31500001FB0678000001305000067800000630A0500C3
S31500001FC06388060023B00600130500006780000042
S31500001FD01305F0FF6780000013050000678000000E
S31500001FE0B747100003B507EB1305150023B8A7EA9A
S31500001FF067800000130101FA233C11042338810491
S315000020002334910423302105233C31032338410333
S3150000201023345103233061036308052493840500A8
S31500002020130A0600138605009305400013040500F5
S31500002030139B0402EF10002F135B0B0263180518A5
S3150000204013060A009305800013050400EF10802D87
S315000020506318051A130640009305000013050400D3
S31500002060EF10402C930905006316051C8335040305
S31500002070833784023375BB02931A3500B387570141
S3150000208003B60700630A06068337060003A7870020
S315000020906386E40283B607006380060603A786000C
S315000020A0138607009317070293D70702B3F7B70201
S315000020B06314F50493870600E39EE4FC8337060069
S315000020C01389C700638A07022320490183308105EB
S315000020D0033401058334810403390104033A0103FF
S315000020E0833A8102033B0102138509008339810388
S315000020F0130101066780000013050001EF20404B25
S3150000210083370405033604048335040313090500E5
S315000021109306100013058404233009002324990034
S31500002120232609002334F100EF10944B2338A10035
S31500002130233CB1001375F50F631C050203378402B7
S31500002140B30A570183B70A006388070483B70700F9
S315000021502330F90083B70A0023B02701833704042C
S315000021601309C900938717002330F4046FF0DFF5D5
S315000021701306810013058402EF108001833A0403DD
S3150000218003378402B37A5B03939A3A00B30A570182
S3150000219083B70A00E39C07FA83378403233C2403AE
S315000021A02330F900638E070083E787008336040334
S315000021B0B3F7D702939737003307F7002330270189
S315000021C09307840323B0FA006FF05FF937A40C007D
S315000021D0B7B50C0013060500938505A513058447BE
S315000021E0EF905A5AB7A50C001306F0FF93850568C1
S315000021F013058447EF901A599309F0FF6FF01FED0E
S3150000220037A40C00B7B50C0013060500938505A589
S3150000221013058447EF901A57B7A50C001306F0FF75
S315000022209385056B13058447EF90DA559309F0FF04
S315000022306FF0DFE937A40C00B7B50C0013060500F4
S31500002240938505A513058447EF90DA53B7A50C00CF
S315000022501306F0FF9385056E13058447EF909A5297
S315000022609309F0FF6FF09FE69309F0FF6FF01FE60A
S315000022701304050013050900EF10C03B1305040005
S31500002280EF208A2E130101FC233C11022338810220
S315000022902334910223302103233C310123384101A9
S315000022A02334510123306101630E054413090500EF
S315000022B013058007EF20C02FB7F5FF019395750032
S315000022C013040500EF10C000930710009394070253
S315000022D02338F40283A781DA93098405130684065A
S315000022E09305000213050400233404002338040078
S315000022F0233C04002330040223343403233C040229
S31500002300233004042324F40423380404233C040463
S3150000231023389406EF00107E631205381306040670
S315000023209305800113050400EF00D07C6312053A83
S3150000233013050004EF20C027B7B60C00938A06D118
S3150000234037070004B7060070033A04012338D500A6
S3150000235013071700930690009384140013060501D3
S315000023609396C6011317C7002330550123349500F1
S31500002370233CD5002330E50223340502233C050225
S315000023802334C4002338A400630A0A0083278A0082
S315000023901B87F7FF2324EA0063020716034A540645
S315000023A093041000339A440163FA44193706006017
S315000023B09305100013050400EFF0DFC39304050036
S315000023C0631C051013060000930520001305040086
S315000023D0EFF05FC293040500630C051E13060500AB
S315000023E0B7B50C0037A50C00938585801305854786
S315000023F0EF905A3903398403630A0900130509006B
S3150000240003390900EF100023E31A09FE033604031B
S31500002410033584029305000013163600EF90DA1A8E
S315000024200335840223300404233C04026384A90098
S31500002430EF10402003390402630A0902832789004A
S315000024401B87F7FF2324E90063120702833709007D
S315000024501305090083B70701E78007008327C90032
S315000024601B87F7FF2326E9006308071E03390401CB
S31500002470630A0902832789001B87F7FF2324E900E3
S3150000248063120702833709001305090083B70701A2
S31500002490E78007008327C9001B87F7FF2326E9008B
S315000024A06306071C13050400EF10C0188330810370
S315000024B0033401030339010283398101033A01011F
S315000024C0833A8100033B01001385040083348102B3
S315000024D0130101046780000013060500B7A50C0070
S315000024E037A50C009385857B13058547EF909A29C0
S315000024F003398403E31409F06FF05FF183370A00B0
S3150000250013050A0083B70701E78007008327CA007F
S315000025101B87F7FF2326EA00E31207E883370A0042
S3150000252013050A009304100083B78701E7800700AC
S31500002530034A5406339A4401E3EA44E713050004C8
S31500002540EF20000737071000033B040293940402B0
S315000025501307170093841400930605013706007FBE
S315000025601317C70023305501233495002338C500BF
S31500002570233C45012330E50223340502233C0502B2
S31500002580233CD4002330A402E3020BE283278B0012
S315000025901B87F7FF2324EB00E31A07E083370B00C2
S315000025A013050B0083B70701E78007008327CB00DD
S315000025B01B87F7FF2326EB00E31A07DE83370B00A2
S315000025C013050B0083B78701E78007006FF01FDE56
S315000025D0130600009305300013050400EFF09FA1D9
S315000025E093040500631C05021306000093054000D2
S315000025F013050400EFF01FA093040500630E050207
S3150000260013060500B7B50C0037A50C009385858821
S3150000261013058547EF901A176FF09FED1306050017
S31500002620B7B50C0037A50C009385058513058547BE
S31500002630EF905A156FF0DFEB13060000930550007C
S3150000264013050400EFF01F9B93040500631A0502AF
S31500002650233089006FF09FE58337090013050900D1
S3150000266083B78701E78007006FF05FE083370900D3
S315000026701305090083B78701E78007006FF09FE223
S3150000268013060500B7B50C0037A50C009385058C1D
S3150000269013058547EF901A0F6FF09FE537A40C00DE
S315000026A0B7A50C00130605009385857113058447AD
S315000026B0EF905A0DB7A50C001306F0FF93858573AE
S315000026C013058447EF901A0C9304F0FF6FF01FDE9A
S315000026D037A40C00B7A50C00130605009385857179
S315000026E013058447EF901A0AB7A50C001306F0FFEE
S315000026F09385857713058447EF90DA089304F0FFF6
S315000027006FF0DFDA9304F0FF6FF05FDA93040500F1
S3150000271013050400EF00107213850400EF10DA644D
S315000027206302051263800512630E0610130101FE93
S315000027302334910083B485002330210193051000D2
S31500002740033986001B86040023388100233C1100D0
S3150000275013040500EFF01F8A6316050613D604421C
S315000027609305200013050400EFF0DF88631C0506BF
S315000027701B0609009305300013050400EFF09F8740
S315000027806312050813560942930540001305040019
S31500002790EFF05F8663180508130630009305000006
S315000027A013050400EF0010386312050A8330810117
S315000027B0033401018334810003390100130101024E
S315000027C06780000013060500B7B50C0037A50C009E
S315000027D09385058F13058547EF90CA7A1305F0FF99
S315000027E06FF0DFFC13060500B7B50C0037A50C002B
S315000027F09385059313058547EF90CA781305F0FF77
S315000028006FF0DFFA13060500B7B50C0037A50C000C
S315000028109385859713058547EF90CA761305F0FFD4
S315000028206FF0DFF813060500B7B50C0037A50C00EE
S315000028309385859B13058547EF90CA741305F0FFB2
S315000028406FF0DFF61305F0FF6780000037A40C0079
S31500002850B7B50C0013060500938505A51305844737
S31500002860EF904A72B7B50C001306F0FF938505A0EA
S3150000287013058447EF900A711305F0FF6FF01FF3FD
S3150000288067800000130101FE2338810003348502AE
S31500002890233C110023349100630204020335040330
S315000028A0930404000334040063040500EF00905809
S315000028B013850400EF001058E31204FE83308101F3
S315000028C00334010183348100130101026780000093
S315000028D06F0050566F001056130101FFB7B70C007A
S315000028E02330810023341100938787D31304050115
S315000028F0638AF50203B58500B7B50C00938705C258
S315000029006302F502034705009307A0026306F70278
S31500002910938505C2EFB0CA3A133515003305A040BA
S315000029203374A400833081001305040003340100CE
S315000029301301010167800000130400008330810049
S315000029401305040003340100130101016780000030
S3150000295003B78502130101FE233881002334910059
S31500002960233C11002330210183B70502138405009F
S31500002970930405006304071A2330F70263840700F3
S3150000298023B4E70283B7040323300402233404028A
S31500002990638E071E03360403930600006F00400192
S315000029A003B707019386070063060714930707001A
S315000029B003B70703E366C7FE2338F400233CD400BD
S315000029C06394060E23B8840223BC8700033984016E
S315000029D013850700630C090003378903833709034E
S315000029E0B307F700638AC706630C05000337840341
S315000029F08337040383360503B307F7006388F612AB
S31500002A0083B78402638C071603368403930600009B
S31500002A106F00400103B7070093860700630A070AA1
S31500002A209307070003B78703E366E6FE2330F40047
S31500002A302334D4006388060E23B0860023B48700AF
S31500002A40833081010334010183348100033901009D
S31500002A501301010267800000833784032338A9002D
S31500002A603387E700233CE90263040500233C250184
S31500002A700337890083370900630A070E2330F700FE
S31500002A80833709006384070023B4E70013050400B5
S31500002A902330090023340900EF00D039033509013A
S31500002AA0130409006FF05FF423B8860003350401B0
S31500002AB023BC870003398401E30809F2033789033D
S31500002AC083370903B307F700E390C7F26FF0DFF827
S31500002AD0233004002334F4008330810123B08700BF
S31500002AE0033401018334810003390100130101021B
S31500002AF067800000233CF400033984012338040076
S31500002B0023B8870003378903833709030335040194
S31500002B10B307F700E39AC7EC6FF01FF42330F50212
S31500002B206FF0DFE523B484026FF05FF1833785032E
S31500002B30833605013387E700233CE4022338D400BB
S31500002B406384060023BC86000337850083370500AF
S31500002B50630207022330F70083370500638407000A
S31500002B6023B4E700EF00102D6FF09FE923B4F402C1
S31500002B706FF05FF123B4F4026FF05FFE23300400C0
S31500002B802334040023B484026FF09FEB233804003F
S31500002B90233C040023B884026FF09FE6130101FA78
S31500002BA0233C3103B769260523388101138C0500C0
S31500002BB0938509C02338810423345103233C7101D2
S31500002BC0233C110423349104233021052338410387
S31500002BD02330610313040500930A0600938B060055
S31500002BE0EFF0CF966310050A13D92B00130B0500DF
S31500002BF06306090C1319290093840A003309590145
S31500002C003B0A5C41938909C06F0080006308990AFA
S31500002C1003A604009305800013050400EF008070EE
S31500002C20930705003B069A00930540001305040030
S31500002C309384440063980710EF00C06E9307050065
S31500002C40130640009305C00013050400639607129F
S31500002C50EF00406D93070500130620009305000062
S31500002C601305040063940714EF00C06B13060500F8
S31500002C70938509001305040063140616EFF00F8D03
S31500002C80E30605F8130BF0FF8330810503340105D5
S31500002C90833481040339010483398103033A010330
S31500002CA0833A8102833B8101033C010113050B003A
S31500002CB0033B0102130101066780000013F63B0087
S31500002CC0E30406FC93FBCBFFB3857A011305C10031
S31500002CD023260100EF809A4F0326C100930580004A
S31500002CE013050400EF000064631405123B067C0123
S31500002CF09305400013050400EF00C0626312051A35
S31500002D00130640009305C00013050400EF00806120
S31500002D106310051613062000930500001305040032
S31500002D20EF004060631E0510B7652605938505C054
S31500002D3013050400EFF08F81130B0500E30605F47D
S31500002D406FF05FF437A40C00B7B50C0013860700CC
S31500002D50938505A513058447EF90CA22B7B50C00E5
S31500002D601306F0FF938585A713058447EF908A2104
S31500002D70130BF0FF6FF05FF137A40C00B7B50C0032
S31500002D8013860700938505A513058447EF908A1FD0
S31500002D90B7B50C001306F0FF938585AA1305844783
S31500002DA0EF904A1E130BF0FF6FF01FEE37A40C00D6
S31500002DB0B7B50C0013860700938505A51305844750
S31500002DC0EF904A1CB7B50C001306F0FF938505AFCC
S31500002DD013058447EF900A1B130BF0FF6FF0DFEA31
S31500002DE037A40C00B7B50C00938505A513058447D9
S31500002DF0EF904A19B7B50C001306F0FF938505B29C
S31500002E0013058447EF900A18130BF0FF6FF0DFE706
S31500002E1037A40C00B7B50C0013060500938505A56D
S31500002E2013058447EF900A16B7A50C001306F0FFAA
S31500002E309385856B13058447EF90CA146FF09FE462
S31500002E4037A40C00B7B50C0013060500938505A53D
S31500002E5013058447EF900A13B7B50C001306F0FF6D
S31500002E60938505B213058447EF90CA116FF09FE171
S31500002E7037A40C00B7B50C0013060500938505A50D
S31500002E8013058447EF900A10B7B50C001306F0FF40
S31500002E90938505AF13058447EF90CA0E6FF09FDE4A
S31500002EA037A40C00B7B50C0013060500938505A5DD
S31500002EB013058447EF900A0DB7B50C001306F0FF13
S31500002EC0938505B513058447EF90CA0B6FF09FDB1A
S31500002ED0130101FA233C3103B76926052330610348
S31500002EE0138B0500938509C023388104233C7101A7
S31500002EF023388101233C1104233491042330210516
S31500002F00233841032334510313040500130C060030
S31500002F10938B0600EFE09FE36314050A13D92B0099
S31500002F20930A0500630A090C1319290093040B0080
S31500002F30330969013B0A6C41938909C06F00C001DE
S31500002F40EF00803F6314051C83378100938444009F
S31500002F5023AEF4FE6302990A3B069A0093054000ED
S31500002F6013050400EF00003C93070500130640001C
S31500002F709305C0001305040063940710EF00803A20
S31500002F8093070500130610009305000013050400BF
S31500002F9063900712EF0000391306050093850900B8
S31500002FA013050400631E0612EFE05FDA93070500BF
S31500002FB0130681009305000113050400E38207F858
S31500002FC0930AF0FF833081050334010583348104BD
S31500002FD00339010483398103033A0103033B0102E8
S31500002FE0833B8101033C010113850A00833A810278
S31500002FF0130101066780000093F43B00E38404FCA0
S3150000300093FBCBFF3B067C019305400013050400B0
S31500003010EF00403163140512130640009305C0000B
S3150000302013050400EF000030631E0514130610009C
S315000030309305000013050400EF00C02E631E051261
S31500003040B7652605938505C013050400EFE01FD07C
S31500003050E31805F613068100930500011305040025
S31500003060EF00802D930A05006312051013860400F5
S315000030709305810033057B01EF805A156FF09FF4AD
S3150000308037A40C00B7B50C0013860700938505A579
S3150000309013058447EF801A6FB7B50C001306F0FFCF
S315000030A0938585AA13058447EF80DA6D6FF05FF18B
S315000030B037A40C0013860700B7B50C00938505A549
S315000030C013058447EF801A6CB7B50C001306F0FFA2
S315000030D0938505AF13058447EF80DA6A6FF05FEEDC
S315000030E037A40C00B7B50C00938505A513058447D6
S315000030F0EF805A69B7B50C001306F0FF938585B8C3
S3150000310013058447EF801A686FF09FEB37A40C0015
S3150000311013060500B7A50C009385855B1305844748
S31500003120EF805A66B7B50C001306F0FF938585BB92
S3150000313013058447EF801A656FF09FE837A40C00EB
S31500003140B7B50C0013060500938505A5130584473E
S31500003150EF805A63B7B50C001306F0FF938505B5EB
S3150000316013058447EF801A626FF09FE537A40C00C1
S31500003170130605006FF01FFA37A40C0013060500AE
S315000031806FF05FF637A40C00130605006FF0DFF250
S31500003190130101FD23308102233C910023341102E7
S315000031A023382101233431019307100013840500CD
S315000031B0930405006384F50E9307F0FF93D7470049
S315000031C01309060063E4B70E9399350013850900C9
S315000031D0EF10003E13860900930500001309050051
S315000031E0EF809A3E1383040303B6040123B8040058
S315000031F06300060493050000938804018366860035
S315000032001307060003360600B3F6860293973600C8
S31500003210B307F90003B807006304080483360800FF
S315000032202330D70083B7070023B0E700E31806FC76
S3150000323003B5040063046500EF00C03F23B48400B7
S31500003240833081020334010223B0240183398100D3
S3150000325083348101033901011301010367800000F2
S3150000326003B504012330A70023B8E40023B01701F7
S3150000327083370700638E070093953500B305B900C1
S3150000328023B0E50093850600E31A06F66FF05FFAB1
S3150000329093850600E31406F66FF09FF913090503FC
S315000032A023380502130309006FF01FF4EFD04F8D8A
S315000032B0EF0040398337090023B4F402EF10C02829
S315000032C013040500EF00804113050400EF10CA291E
S315000032D02330B50067800000833705001305000022
S315000032E0B385F5009357060223A0C50023A2F50077
S315000032F0678000006304060283370500130500009B
S31500003300B385F50083E7450003E7050093970702B9
S31500003310B3E7E7002330F600678000001305F0FFEF
S31500003320678000008337050013050000B387B700E8
S3150000333023A0C70067800000630E060083370500E0
S3150000334013050000B385B70083A705002320F60008
S31500003350678000001305F0FF6780000083370500D3
S31500003360130101FD2330810203B70703130406008E
S315000033709307100003360600939747022338F1009F
S315000033802334110223340100233C010093068100FB
S31500003390E7000700832701011307600013050000FB
S315000033A093F767006398E7008337810013051000E1
S315000033B02330F40083308102033401021301010338
S315000033C067800000130510006304C70067800000D3
S315000033D01305600067800000B7B70C00938787D994
S315000033E02330F5006F10004F130101FFB7B70C0033
S315000033F02330810023341100938787D92330F500C9
S3150000340013040500EF10004D1305040003340100FA
S315000034108330810093050001130101016F00C02173
S315000034200335850083B58500130101FE233881002D
S3150000343023349100233C110023302101930406001C
S3150000344013840600630EB500034705009307A00228
S31500003450130900006302F702EFA09A06631E050037
S31500003460930700012338F40093076000233094008B
S315000034702324F40013091000833081010334010171
S315000034808334810013050900033901001301010289
S3150000349067800000130101FD23308102233C910067
S315000034A0138405009304050083B585000335850064
S315000034B02334110223382101233431016300B5027C
S315000034C0034705009307A002930906001389060027
S315000034D06306F702EFA0CA7E6312050283308102FB
S315000034E003340102833481010339010183398100E8
S315000034F013051000130101036780000093073000D5
S3150000350063EA27038337040013050400033401022A
S31500003510833081020339010183B7870213860900CC
S3150000352093850400833981008334810113010103EB
S3150000353067800700833081020334010283348101EE
S3150000354003390101833981001305000013010103CA
S3150000355067800000130101FC2338810223349102A5
S3150000356023302103233C3101233C1102033985001A
S31500003570130407009309060093840800630A0705ED
S3150000358083B58600638E2501034709009307A002D1
S315000035906300F70213050900EFA08A72631A05009B
S315000035A09307100023B0840023A4340123A8F40059
S315000035B0833081030334010383348102033901021A
S315000035C0833981011305000013010104678000009F
S315000035D083B58700638E2503034709009307A0027E
S315000035E06302F702130509002334D100EFA04A6DE8
S315000035F083368100630E050083B58600E31CB9F8A7
S315000036006FF01FFA83B78600E39427FB6FF05FF92C
S31500003610833081030334010323A6340103390102F5
S3150000362083348102833981011305000013010104EB
S31500003630678000006F705A0A6FF0DFFF033585FF61
S3150000364067800000130101FF23308100233411003D
S3150000365013040500EF000017B7B60D0083B6062762
S315000036600337040013061000930705003307D7003D
S3150000367003350500930604FB637EE600631E05041E
S31500003680833081000334010023B0D7001301010108
S3150000369067800000032784FD1B061700635607009A
S315000036A0130610003B06E64003A78700232CC4FC44
S315000036B01B07F7FF23A4E7006306D5002338A4FC05
S315000036C023B0D700033584FF833081000334010023
S315000036D01301010167800000EF00504C130101FF48
S315000036E023341100EF00400D1307050003350500D4
S315000036F0630C0502B7B50D008336050583B50527AE
S3150000370013061000B386B6006362D60483268502CC
S3150000371063C206029B86F6FF638406041307F0FF66
S31500003720638CE6042324D502833081001301010152
S31500003730678000009B861600E39606FE03360502A8
S315000037402330C7002324D5026FF01FFE833081008B
S315000037502330070013050505130101016F10CA0D7B
S315000037608336050283308100130505052330D70013
S31500003770130101016F104A0CEF005042130101FFC3
S3150000378023341100EF0000040325850083308100F7
S315000037903335A0001301010167800000130101FF0A
S315000037A023341100EF0000028330810003258500D9
S315000037B01301010167800000374510001305053429
S315000037C06780000037451000130505346780000048
S315000037D083B7050003370600130101FD83B7070110
S315000037E023308102233C9100233821012334110226
S315000037F0930405002334E1001385050013840500B6
S3150000380013090600E7800700630805008337810077
S3150000381083B707002334F10083B704009306100032
S315000038201306810083B7070293050400138504007D
S31500003830E780070063060500833781002330F9001F
S31500003840833081020334010283348101033901018B
S31500003850130101036780000093070005630AF50A58
S31500003860130705009377F5001305C0006364F51E82
S3150000387037B50C0093972700130505DEB387A7001D
S3150000388083A70700678007008347160003450600E5
S31500003890034E26000343360083484600939787006D
S315000038A0B3E7A70003485600131E0E01336EFE0051
S315000038B00345660013138301834776003363C30110
S315000038C093980802B3E86800131888023368180151
S315000038D0131505033365050193978703B3E7A7001F
S315000038E01305860063820702137807079308000111
S315000038F063141801930506001B1787011B578741A0
S31500003900B387B7006342070223B0F6006780000062
S3150000391013057600137585FF8337050013058500AB
S3150000392023B0F6006780000083B7070023B0F600D7
S31500003930678000008347160003480600130526002B
S3150000394093978700B3E707016FF0DFF90348160086
S31500003950834806000345260083473600131888006F
S31500003960336818011315050133650501939787011F
S31500003970B3E7A700130546006FF0DFF6034816000D
S31500003980834806000345260083473600131888003F
S3150000399033681801131505013365050193978701EF
S315000039A0B3E7A7009B870700130546006FF09FF358
S315000039B083471600034806001305260093978700E1
S315000039C0B3E707019B9707019BD707416FF09FF16C
S315000039D013050600930700001303000003480500C3
S315000039E0130515009378F8071B188801B39868002B
S315000039F01B588841B3E717011B037300E34008FE19
S31500003A006FF05FEE130506009307000093080000B1
S31500003A1003430500130515001378F3071B1E8301E6
S31500003A20331818011B5E8E41B3E707019B887800A7
S31500003A30E3400EFE1308F003E36618EB137303046A
S31500003A40E30203EA1308F0FFB3181801B3E71701FE
S31500003A506FF09FE9130101FF23341100EF404A0F75
S31500003A601307F00F930705006308E50413F707072C
S31500003A7093060003138505006304D70463E8E60094
S31500003A8093060002631AD7006F008A4D930700045D
S31500003A906310F7026F004A4963E6E60093F70706EC
S31500003AA0638C0700130101FF23341100EF404A0A1B
S31500003AB093070005E318F7FE130500006780000072
S31500003AC06F008A49130101FD23308102233C9100D6
S31500003AD0233821012334110223343101130905004F
S31500003AE0138405009304060093070000630605008F
S31500003AF0EF008A439307050023B0F40083490400CE
S31500003B001307F00F130414006396E90A23B4F400B4
S31500003B10834704001307F00F130514002384F402EF
S31500003B206386E70C930500009306000083470500B3
S31500003B301305150013F7F7079B9787013317D7006F
S31500003B409BD78741B3E5E5009B867600E3C007FE79
S31500003B50B305B50023BCB4008347050093050000F8
S31500003B6013051500A384F40293060000834705009D
S31500003B701305150013F7F7079B9787013317D7002F
S31500003B809BD78741B3E5E5009B867600E3C007FE39
S31500003B908330810203340102B305B50023B0B402B9
S31500003BA00339010183348101833981001301010343
S31500003BB0678000009305090013850900EFF05FEAAE
S31500003BC093050500130604009386840013850900F7
S31500003BD0EFF09FC813040500834704001307F00F96
S31500003BE0130514002384F402E39EE7F223BC0400C9
S31500003BF06FF09FF6130101FA23388104033485011F
S31500003C0093C6F6FF2334910423302105233C310368
S31500003C10233841032334510323306103233C110429
S31500003C20130B0500138905002334C1003304D400A7
S31500003C309309F00F93042000930A3000130A400002
S31500003C4013080000930600008347040013041400C1
S31500003C5013F7F7079B9787013317D7009BD7874141
S31500003C603368E8009B867600E3C007FE6300080A17
S31500003C7003458B026308350993777500638E9706B3
S31500003C8063F8F406131628003306C040639A5705F6
S31500003C9083378B0183350B01930681013386C70079
S31500003CA0EFF09FBB033581011306810093050900E0
S31500003CB0EFF01FB2E30605F88330810503340105F2
S31500003CC0833481040339010483398103033A0103F0
S31500003CD0833A8102033B010213010106678000005B
S31500003CE0639A470113183800330600416FF05FFAF4
S31500003CF0E38A07FEEF30DA65131818003306004131
S31500003D006FF01FF9130600006FF09FF8130500000F
S31500003D106FF09FFA130101F2233C110C2338810C3A
S31500003D202334910C2330210D233C310B2338410BD6
S31500003D302334510B2330610B233C7109233881094D
S31500003D40233491092330A109233CB1072330010212
S31500003D50232E010093071000631AF51613040700BB
S31500003D6037B70D00833407279307600013890500D2
S31500003D7093890600B30496006394F5006372951C5C
S31500003D8013050400EF00CA19130A05006300051A9B
S31500003D90130601049305050013050400EFF09FD2F6
S31500003DA0930A05000345810693050400EFF05FCBF7
S31500003DB0930705009305C101130504002338F10498
S31500003DC0EF004A148327C1010337010693B7170092
S31500003DD0330BF54063FCEA0A034C91069305000099
S31500003DE0930B000013050C00EFF09FC713860A0023
S31500003DF0930505009306810213050C00EFF0DFA57D
S31500003E00034C9106930A05009305000013050C0068
S31500003E10EFF01FC513860A009305050093060103FC
S31500003E2013050C00EFF05FA3034C9106930A0500FF
S31500003E309305000013050C00EFF09FC293050500E3
S31500003E409306810313860A0013050C00EFF0DFA02A
S31500003E50930A05009306000083C70A00938A1A0096
S31500003E6013F7F7079B9787013317D7009BD787412F
S31500003E70B3EBEB009B867600E3C007FE83370104B5
S31500003E8003378102B387E7006372FB089377190053
S31500003E906382070A93080000930A0000130D0000CE
S31500003EA0930710001305600063E49702833701024D
S31500003EB023AE19FD23B0A9FF23B449FF23BCF9FEA5
S31500003EC023B859FF130560006F008000130530000A
S31500003ED08330810D0334010D8334810C0339010CC9
S31500003EE08339810B033A010B833A810A033B010AAA
S31500003EF0833B8109033C0109833C8108033D01089A
S31500003F00833D81071301010E67800000033701031B
S31500003F10B387E7006368FB0083370106E3EEFAEA3E
S31500003F206FF0DFF6833A810363940A061305800077
S31500003F306FF01FFA137989006306090AEF0000463D
S31500003F4083BA06FF63840A0A83A8C6FD03BA86FEFF
S31500003F50938B080063DE08041306010493050A0028
S31500003F6013050400EFF01FB6034581069305040010
S31500003F70EFF01FAF93070500034581069305040084
S31500003F802338F104EFF0DFAD23B8A9FE6F0040023D
S31500003F9083378104B38AFA00639E0B04E3880AF828
S31500003FA093771900E39407F89378890063820828C9
S31500003FB09305A0001305040013860900EFF0596D60
S31500003FC013860B009305B00013050400EFF0596C3F
S31500003FD01305040093850A00EFF0197413057000A9
S31500003FE06FF01FEF93071000E3EA97F413850900BB
S31500003FF0EFB0886E03330106938BFBFF330D73011D
S31500004000E3860AF2630C0D20937789002334F100CE
S31500004010639807229307100063FA9722B75E0D0094
S31500004020138C8E2F23300100930CF003130B0D001D
S31500004030930D00001307000083460B00130B1B00B3
S3150000404093F7F6071B968601B397E7001B56864142
S31500004050B3EDFD001B077700E34006FE63EEEC00C0
S3150000406093F60604638A060093071000B397E700E9
S31500004070B307F040B3EDFD0013060B00930B0000F1
S3150000408013070000834606001306160093F7F6078B
S315000040909B958601B397E7009BD58541B3EBFB0063
S315000040A01B077700E3C005FE63EEEC0093F60604FB
S315000040B0638A060093071000B397E700B307F04042
S315000040C0B3EBFB00638A0D106340B007630A0C0074
S315000040D083378100639607009307100063F4970CFB
S315000040E08337810593C6FDFF93050000B386D7008D
S315000040F01306000083C706009386160013F7F7071A
S315000041009B9787013317C7009BD78741B3E5E50027
S315000041101B067600E3C007FE63860506638C0B0E5E
S31500004120330D7B016FF09FF0034581069307F00F77
S31500004130630EF50C13777500930720006302F70CE6
S3150000414063F2E70A93972D0093063000B307F04019
S315000041506312D70A03368105833501059306810369
S315000041603306F600EFF04FEF03358103630C0500CD
S31500004170E3060CFA1306010293050C00EFF04FE577
S31500004180E30E05F8137919009B880D00E31A09D090
S3150000419083378100638A070263CA080C938B080081
S315000041A06FF01FE10336010293860D0093050C00A4
S315000041B013050104EFF01FA4E31205F613791900A5
S315000041C09B880D00E31409CE93071000E3F297D8FD
S315000041D0E3D608FC6F008009930710002330F10036
S315000041E06FF0DFF3631C070093973D00B307F040C1
S315000041F06FF05FF693074000E308F7FEEF305A15BD
S3150000420093971D00B307F0406FF0DFF493070000AB
S315000042106FF05FF483370100E38A07D093771900C4
S31500004220E39607D093788900930B0000E39208D8B1
S3150000423093071000E3FE97D6938B08006FF05FD7C5
S31500004240B75E0D00138C0E2C6FF0DFDD03B709008F
S3150000425093870902137717006304070083B709FBE6
S3150000426003BC07F92330F1026FF0DFDBEF00001526
S31500004270EFF04FBD6FF09FCC130101FA2338810494
S31500004280233491041304050023302105233C110433
S31500004290233C3103EFF00FBB833704FF033504FCE7
S315000042A0033984FE8324C4FD2338F100033484FCDF
S315000042B0EF00C00FEFF00FB9EFF00FD08337050016
S315000042C003B70705137717006308070683B90700C6
S315000042D0130601009305090013050000EFF08FFE99
S315000042E083B509F9938604001386090013050100B6
S315000042F0EFF05F906310050637590D0093860400B2
S31500004300130600009305892813050100EFF09F8E20
S315000043106304050413058000EFB0C82CB7570D00E1
S315000043209387073437F608002330F50013068671A5
S3150000433093058928EF00401B938907076FF05FF903
S3150000434013040500EFF08FB9EFF04FB91305040021
S31500004350EF008A21EF00401F13050400EF00400024
S31500004360130101FE233C110023388100E7000500FC
S31500004370EF300A7EEFF00FADEF308A7D2334A100D7
S3150000438013840500EFF08FB59307F0FF0335810026
S315000043906314F400EFF05FEEEF000A1D03B581FC35
S315000043A0130101FF23341100EFF09FFB130101FFFE
S315000043B023341100E7000500EFF05FFE03B581FA34
S315000043C0130101FF23341100EFF05FFE9307050090
S315000043D06308050003B581FC23B4F1FC6780000087
S315000043E0B75700009387879303B581FC23B4F1FC8C
S315000043F06780000003B581FC678000009307050015
S315000044006308050003B581FA23B4F1FA678000005A
S31500004410B74700009387C73903B581FA23B4F1FA89
S315000044206780000003B581FA67800000130101FF71
S3150000443023341100233081009307100063E6A7049C
S3150000444003A705FA9B06F7FF23A0D5FA630AF70030
S3150000445083308100033401001301010167800000ED
S3150000446083B785FB138405026386070013050400E2
S31500004470E780070013050400033401008330810040
S31500004480130101016FB0881B03B585FCEFF05FEDEA
S31500004490130101FF23341100233081002338B5F8BE
S315000044A0233CC5F8232005F813040500EFF09FF719
S315000044B02330A4FAEFF01FF4B7B70D0083B78727B0
S315000044C02334A4FA833081002330F4FEB74700007A
S315000044D09387C7422334F4FE130504F8033401001E
S315000044E01301010167800000130101FE233C110046
S315000044F02338810023349100130405002330210161
S315000045009384050013090600EFF0CFAB83278500DF
S3150000451013060900938504009B8717002324F500E2
S3150000452013050400EFF0DFF69307100013040506E9
S315000045302320F50013050400EFF0193413050400D9
S31500004540EFF04F90EFF09FE5130101FF23341100C8
S3150000455023308100EFF00FA703278500833705007E
S315000045601B0717002324E500638A070237B60D00F0
S3150000457003B7070503360627930610003307C7005F
S3150000458063F0E602233005001384070513050400D3
S31500004590EF004A1213050400EFF0CF8AEFF01FE098
S315000045A003A787023B07E04023A4E7026FF0DFFD85
S315000045B0130101FF23308100233411001304050089
S315000045C0631405001304100013050400EF601A10AD
S315000045D0630A0500833081000334010013010101E1
S315000045E067800000EFB0882963060500E700050034
S315000045F06FF09FFD13058000EFA0D87EB7370D0042
S315000046009387871A37D60700B7350D002330F50094
S31500004610130686C093850518EFF01FEDB7B70C009B
S31500004620938787E62330F5006FE01FDB130101FF58
S31500004630B7B70C002330810023341100938787E637
S315000046402330F50013040500EFE01FD9130504001D
S3150000465003340100833081009305800113010101B9
S315000046606FE09FFD130101FA2334910423306103A7
S3150000467093840600033B850083B6860023388104B5
S31500004680233C310323384103233C71012338810144
S31500004690233C110423302105233451032334910193
S315000046A0138C0500930B060013040700130A080079
S315000046B0938908006304DB02834C0B00938A07008E
S315000046C09307A002130905006386FC06938506007E
S315000046D013050B00EF90CA5E631E050423B0890024
S315000046E023A47901634A0C0CB30584019307600087
S315000046F06304BA009307100023A8F90083308105EC
S3150000470003340105833481040339010483398103A9
S31500004710033A0103833A8102033B0102833B810191
S31500004720033C0101833C81001305000013010106CF
S31500004730678000006300440703350901130704007E
S3150000474003340105833605008330810503390104EE
S3150000475003B38603033B0102833C8100938809006F
S3150000476013080A0083398103033A010393870A0079
S3150000477093860400833A81028334810413860B00F6
S3150000478093050C00833B8101033C010113010106E3
S315000047906700030083B58A00630CBB009307A00281
S315000047A0E38CFCF813050B00EF908A51E31605F82D
S315000047B023A679016FF09FF49307E0FFE310FCF462
S315000047C06FF05FF3130101FC233881022334910259
S315000047D0233C110213040500938405006304C702F9
S315000047E00335040103340103833081038337050055
S315000047F0938504008334810283B7070413010104FF
S31500004800678007000335850083B586006308B50217
S31500004810034805009307A002E304F8FC233CE100EB
S315000048202338D1002334C100EF908A490336810032
S315000048308336010103378101E31405FA83308103CE
S31500004840033401038334810213056000130101045C
S3150000485067800000130101FD23308102233C910093
S315000048602338210123343101233411029309050031
S31500004870138405009304060013890600EFE05FBA6F
S31500004880631C050203B50901930504000334010204
S3150000489083370500833081028339810083B707039C
S315000048A0930609001386040003390101833481014C
S315000048B0130101036780070083308102033401027C
S315000048C08334810103390101833981001301010316
S315000048D06780000067800000130500006780000005
S315000048E01305000067800000930500016FE0DFD428
S315000048F08337850083B58500638CB70283C60700BE
S315000049001307A002130500006382E602130101FFEC
S315000049101385070023341100EF908A3A8330810013
S315000049201335150013010101678000006780000040
S315000049301305100067800000B7471000938797EBB8
S3150000494003C70700130101FD23341102233081023E
S31500004950233C9100233821016310070E1307100032
S315000049602380E700EFA018606308050A033485007A
S315000049709306C10013060000834704009305000058
S31500004980938767FD93B717003304F40013050400FB
S315000049909307F0FF2326F100EFA0C87E03B781013D
S315000049A01309050037B50C0083368701130600038B
S315000049B093051000130505F3EF509A468327C100AF
S315000049C06382070483B781011305040083B5870159
S315000049D0EF40CA5583B7810137B50C001306200096
S315000049E083B6870193051000130585F6EF505A43E9
S315000049F08327C1006396070013050900EF60CA4DBF
S31500004A00EFF09FB483B781011305090083B58701D1
S31500004A10EF40CA516FF01FFC83B7810137B50C0018
S31500004A201306D00283B6870193051000130505F718
S31500004A30EF501A3FEF30CA1183B7810137B50C002A
S31500004A401306D00183B6870193051000130505F1FF
S31500004A50EF501A3DEF30CA0F93071000639EF5041E
S31500004A60EFE05FBE8337050083B70701E7800700E5
S31500004A7083B781011304050037B50C0083B687019F
S31500004A801306B00093051000130505FAEF505A39C6
S31500004A9083B781011305040083B58701EF400A49F6
S31500004AA083B781011305A00083B58701EF400A2D66
S31500004AB0EFE0DFC26FF01FF8EFE0DFB8EFE01FC2F4
S31500004AC06FF05FF713040500EFE05FC11305040004
S31500004AD0EFF09929130101F92330410583B78101CC
S31500004AE0233C5103233C9101B72A0D00B76C1000FB
S31500004AF02334110623308106233C910413848C9EB3
S31500004B002338210523343105233861032334710307
S31500004B10233081032338A1012334B101938A8A1BF0
S31500004B203765100083BB07011307100023305401BB
S31500004B30130505A22334040023380400233C040093
S31500004B40233004022334040223380402238CE1FABE
S31500004B50EF20100083B78101B769100037F90C0008
S31500004B6093848994130BF0FF13098943376510006A
S31500004B7083BD870023B054012330740523246405C4
S31500004B80130505982330240123B4040023B8040038
S31500004B9023BC040023B0040223B4040223B8040295
S31500004BA0EF20007B83B78101B76B100013848B99CC
S31500004BB003BD87013765100023A464051305059D11
S31500004BC023B0240123B0B405233054012334040058
S31500004BD023380400233C0400233004022334040257
S31500004BE023380402EF20C076376C100013058C348E
S31500004BF023246405233024012330A405B764100060
S31500004C00372B0D00B72A0D00EF0044579384043468
S31500004C10130B8BFC938A0AFF93858C9E13058C34A9
S31500004C2023B0040E2394040E23B8040E23BC040EF2
S31500004C3023B0041023B4041023B0640123B4540138
S31500004C40EFF053323764100013058401EF0004536C
S31500004C5037691000B7170D001309890093870702FB
S31500004C602330F900B7170D0093878704938589943D
S31500004C70130584012334090E2318090E233C090E5B
S31500004C802330091023340910233809102338F9007A
S31500004C9023340900EFF0132DB7691000138589122C
S31500004CA037641000EF00844D1304041293858B992A
S31500004CB0138589122330040E2314040E2338040EA0
S31500004CC0233C040E233004102334041023306401E3
S31500004CD023345401EFF01329376C100013058C238D
S31500004CE0B7691000EF0084499389092393858B994E
S31500004CF013058C2323B0090E2394090E23B8090E3D
S31500004D0023BC090E23B0091023B4091023B069018E
S31500004D1023B45901EFF013258327040203B7810159
S31500004D20B7260000B76C1000B72A0D0093898CAD2A
S31500004D30B3E7D700938A8A2337651000033B070140
S31500004D4023B059012334990E2320F4022330940E04
S31500004D50130505B123B4090023B8090023BC0900D3
S31500004D6023B0090223B4090223B80902EF20405EEA
S31500004D7083B78101B76B100037F90C0093848BA3BE
S31500004D801309894B130CF0FF3765100003BD87002C
S31500004D9023B0540123B06905130505A723B02901E3
S31500004DA023A4890523B4040023B8040023BC04000B
S31500004DB023B0040223B4040223B80402EF204059AE
S31500004DC083B78101376B100013048BA803BA8701E0
S31500004DD037651000130505AC23B0240123B0A405E4
S31500004DE023A484052330540123340400233804000B
S31500004DF0233C040023300402233404022338040233
S31500004E00EF200055B7691000138509792330440552
S31500004E102330240123248405B7641000B72A0D002B
S31500004E20372A0D00EF00843593848478938A8A02AA
S31500004E30130A0A0593858CAD1385097923B0040EF0
S31500004E4023A4040E2386040E23B8040E23BC040EEA
S31500004E5023B0041023B4041023B0540123B4440136
S31500004E60EF00C4113764100013050446EF00043147
S31500004E7037691000B7170D0013090945938707080E
S31500004E802330F900B7170D009387870A93858BA304
S31500004E90130504462334090E2328090E230A090E96
S31500004EA0233C090E23300910233409102338091036
S31500004EB02338F90023340900EF00440CB7691000C9
S31500004EC01385095737641000EF00442B13048456EA
S31500004ED093058BA8138509572330040E2324040E4B
S31500004EE02306040E2338040E233C040E233004103C
S31500004EF0233404102330540123344401EF00040802
S31500004F00B76B100013850B68B7691000EF00042714
S31500004F109389896793058BA813850B6823B0090EBF
S31500004F2023A4090E2386090E23B8090E23BC090EF5
S31500004F3023B0091023B4091023B0590123B4490141
S31500004F40EF00C40303270402B746100083A78602B6
S31500004F50372600003367C7002330940E833081065E
S31500004F602320E402033401069B8717002334990E9D
S31500004F7023A4F602833481050339010583398104AC
S31500004F80033A0104833A8103033B0103833B810215
S31500004F90033C0102833C8101033D0101833D810005
S31500004FA01301010767800000B7170D00938707B844
S31500004FB01304050023B4F40013058C34EF004448B1
S31500004FC013050400EFF0495AB7170D00938707BA87
S31500004FD01304050023B4F90013850B68EF0044465B
S31500004FE013050400EFF04958B7170D00938707BA69
S31500004FF0930405002334F40013850957EF00444455
S3150000500013850400EFF04956B7170D00938707BACA
S31500005010930405002338F90013050446EF004442C3
S3150000502013850400EFF04954B7170D00938707BAAC
S315000050301304050023B4F40013850979EF004440F6
S3150000504013050400EFF04952B7170D00938707B810
S315000050501304050023B4F90013058C23EF00443E26
S3150000506013050400EFF04950B7170D00938707B8F2
S31500005070930405002334F40013858912EF00443CA1
S3150000508013850400EFF0494EB7170D00938707B854
S31500005090930405002338F90013058401EF00443A10
S315000050A013850400EFF0494C374710008327870229
S315000050B09B8617002324D7026384070067800000BD
S315000050C06FF05FA137471000832787029306200001
S315000050D01B86F7FF2324C7026384D700678000007E
S315000050E037651000130101FF130505342334110041
S315000050F0EF9095273765100013050512EF90D5261A
S315000051003765100013050523EF9015263765100047
S3150000511013058578EFB0956537651000130585563C
S31500005120EFB0D5643765100013058567EFB01564D9
S31500005130833081001301010167800000EFE08FD00A
S3150000514083308100130101016FE04FD9130101FC87
S315000051502338810223349102233C11022330210398
S31500005160233C31012338410103C481FB631405004C
S31500005170631404028330810313050400033401031E
S31500005180833481020339010283398101033A010123
S315000051901301010467800000374710008327870248
S315000051A09B8617002324D7026382071C37290D002C
S315000051B0376510001309891BB7671000130505A290
S315000051C023B4279F238C01FAEF00101337651000D4
S315000051D0B76710001305059823B42795EF00D01183
S315000051E037651000B76710001305059D23BC279986
S315000051F0EF00901037290D00376510001309892339
S31500005200B7671000130505B123BC27ADEF00D00E1C
S3150000521037651000B7671000130505A723BC27A341
S31500005220EF00900D37651000B7671000130505AC49
S3150000523023B427A9EF00500C83B78101376A100009
S315000052409306004083B507011306000113058ACCB7
S31500005250EF30536683B78101B769100093060040AB
S3150000526083B5870013068000138589B2EF309364F7
S3150000527083B78101376910009306004083B5870123
S3150000528013060001130589BFEF30D362376510009E
S3150000529093058ACC13058534EFE0936337651000D8
S315000052A0938589B213058501EFE093623765100097
S315000052B0930589BF13058512EFE0936137651000EA
S315000052C0930589BF13058523EFE0936083B78101BA
S315000052D0B76910009306004083B507011306000165
S315000052E0138589F3EF40C31E83B781013769100028
S315000052F09306004083B5870013068000130589D9FD
S31500005300EF40031D83B78101B76410009306004088
S3150000531083B5870113060001138584E6EF40431B1E
S3150000532037651000938589F313050579EFF043730C
S3150000533037651000930589D913050546EFF04372CA
S3150000534037651000938584E613050557EFF0437122
S3150000535037651000938584E613050568EFF0437002
S3150000536013058100EFF01FD66FF0DFE0EFF08FF648
S315000053706FF0DFE31304050013058100EFF09FD4FF
S3150000538013050400EFF0491E678000006FE08FAA46
S3150000539083B7050037471000033787EC2330F50045
S315000053A06388E70003A707001B07170023A0E70091
S315000053B0678000002330B50067800000130101FA02
S315000053C0233881042330210523306103233C110453
S315000053D023349104233C31032338410323345103FE
S315000053E0233C710123388101233491012330A1012B
S315000053F02308050083B7050013090501233025019D
S3150000540083B70702233405001304050003BB070016
S3150000541063000B2803B7870063080702938905001A
S3150000542093848700938A0703130A0B0013050A0067
S3150000543003BA040093050A00EF809A086314050670
S3150000544093848400E3949AFE13050B00EFA0CA4DE3
S315000054501307050093060B001306000093050000D2
S3150000546013050400EF00D6138330810513050400ED
S31500005470033401058334810403390104833981032C
S31500005480033A0103833A8102033B0102833B810114
S31500005490033C0101833C8100033D01001301010629
S315000054A0678000009305000813050400EF0006025C
S315000054B083BA81F683B40A0013850400EFA0CA46B6
S315000054C0033784009307F0FF93D72700B387E7409D
S315000054D01306050063E0A722938504001305040064
S315000054E0EF108634033A84008337040093041A00CD
S315000054F0630CF91C033704016368971A1307D0037A
