S01800006770752D6D656D6F72792D6C696768742E73726563B5
S3150000000097B10D00938101749702000093828215C7
S3150000001073905230732440F163100402970200007B
S315000000209382421573905230EF609A28971200001F
S31500000030938242D9E780020013132400970200003E
S315000000409382420CB302530003A302000F00F00F89
S31500000050E31C03FE176E1000130ECE4893134400E4
S31500000060B30E7E00138F8E0083BF0E0003310F0088
S31500000070970200009382021073905230732540F16C
S31500000080E7800F00130000001300000013000000BB
S31500000090130000001300000013000000130000000E
S315000000A013000000130000001300000013000000FE
S315000000B013000000130000001300000013000000EE
S315000000C013000000130000001300000013000000DE
S315000000D013000000130000001300000013000000CE
S315000000E013000000130000001300000013000000BE
S315000000F013000000130000001300000013000000AE
S3150000010073001000730010007300100073001000DD
S3150000011073001000730010007300100073001000CD
S3150000012073001000730010007300100073001000BD
S3150000013073001000730010007300100073001000AD
S3150000014013132500970300009383C3FBB3027300C8
S315000001500F00500F23A00200130500006780000067
S3150000016073001000130000001300000013000000CD
S3150000017073202034130101EF23301100233831009E
S31500000180233C41002330510223346102233871029B
S31500000190233C8102233091042334A1042338B10483
S315000001A0233CC1042330D1062334E1062338F1066B
S315000001B0233C01072330110923342109233831094F
S315000001C0233C41092330510B2334610B2338710B37
S315000001D0233C810B2330910D2334A10D2338B10D1F
S315000001E0233CC10D2330D10F2334E10F2338F10F07
S315000001F073250030F325103473262034233CA10EDA
S315000002002330B1102334C11063560600EF609A19EB
S315000002106F00C00093060100EF605A18833001009A
S3150000022083310101033281018332010203338102EA
S3150000023083330103033481038334010403358104CA
S3150000024083350105033681058336010603378106AA
S31500000250833701070338810783380108033981088A
S3150000026083390109033A8109833A010A033B810A6A
S31500000270833B010B033C810B833C010C033D810C4A
S31500000280833D010D033E810D833E010E033F810F29
S31500000290833F011073100F3073901F34033F810E9C
S315000002A0833F010F1301011173002030000000008D
S315000002B00000000000000000000000000000000038
S315000002C00000000000000000000000000000000028
S315000002D00000000000000000000000000000000018
S315000002E00000000000000000000000000000000008
S315000002F000000000000000000000000000000000F8
S3150000030000000000000000000000000000000000E7
S3150000031000000000000000000000000000000000D7
S3150000032000000000000000000000000000000000C7
S3150000033000000000000000000000000000000000B7
S3150000034000000000000000000000000000000000A7
S31500000350130101FF1305800023341100EFE09879A3
S31500000360B7570D009387070137F60800B7550D00FC
S315000003702330F50013068642938585F5EF30D06766
S31500000380130101FF1305800023341100EFE0987676
S31500000390B7370D00938787E737D60700B7350D00C7
S315000003A02330F50013068691938505E5EF30D0647A
S315000003B0130101FF1305800023341100EFE0987349
S315000003C0B7370D00938787ED37D60700B7350D0091
S315000003D02330F5001306C696938505EBEF30D06102
S315000003E0130101FF1305800023341100EFE098701C
S315000003F0B7370D00938787F337D60700B7350D005B
S315000004002330F5001306069C938505F1EF30D05E88
S31500000410130101FE233881001304050013050001B2
S31500000420233C110023349100EFE0D86C93050400BF
S3150000043013040500EF40897837360900B7550D00DB
S315000004401306C64E9385857C13050400EF30D05AFB
S315000004509304050013050400EFE0586F13850400AC
S31500000460EF309A61130101FE233881001304050061
S3150000047013050001233C110023349100EFE0986737
S315000004809305040013040500EF40897837460900F8
S31500000490B7550D001306C6989385857F130504008E
S315000004A0EF3090559304050013050400EFE0186A39
S315000004B013850400EF305A5C130101FE23388100D6
S315000004C01304050013050001233C11002334910099
S315000004D0EFE058629305040013040500EF404979E4
S315000004E037460900B7650D001306C69293858582C7
S315000004F013050400EF305050930405001305040063
S31500000500EFE0D86413850400EF301A57130101FE9B
S31500000510233881001304050013050001233C110054
S3150000052023349100EFE0185D9305040013040500E1
S31500000530EF40097A37460900B7650D001306C686EF
S315000005409385858513050400EF30104B9304050051
S3150000055013050400EFE0985F13850400EF30DA51CD
S31500000560130101FE23388100130405001305000161
S31500000570233C110023349100EFE0D8579305040083
S3150000058013040500EF40C97A37460900B7650D0028
S315000005901306C68C9385858813050400EF30D04575
S315000005A09304050013050400EFE0585A1385040070
S315000005B0EF309A4C130101FE233881001304050025
S315000005C013050001233C110023349100EFE09852FB
S315000005D09305040013040500EF40897B37360900B4
S315000005E0B7650D001306C6549385858B1305040065
S315000005F0EF3090409304050013050400EFE0185512
S3150000060013850400EF305A47130101FE2338810099
S315000006101304050013050001233C11002334910047
S31500000620EFE0584D9305040013040500EF40897B65
S3150000063037360900B7650D001306C6609385058E2B
S3150000064013050400EF30503B930405001305040026
S31500000650EFE0D84F13850400EF301A42130101FE74
S31500000660233881001304050013050001233C110003
S3150000067023349100EFE018489305040013040500A5
S31500000680EF40497C37360900B7650D001306C6668C
S315000006909385059113050400EF3010369304050089
S315000006A013050400EFE0984A13850400EF30DA3CA6
S315000006B0130101FE23388100130405001305000110
S315000006C0233C110023349100EFE0D8429305040047
S315000006D013040500EF40097D37360900B7650D00A4
S315000006E01306C65A9385059413050400EF30D030DF
S315000006F09304050013050400EFE058451385040034
S31500000700EF309A37130101FF1305800023341100DF
S31500000710EFE0583EB7370D00938787ED37D60700D1
S31500000720B7350D002330F5001306C696938505EB05
S31500000730EF30902C130101FF1305800023341100C4
S31500000740EFE0583BB7370D00938787F337D607009E
S31500000750B7350D002330F5001306069C938505F189
S31500000760EF309029130101FF130580002334110097
S31500000770EFE05838B7670D00938707703786090092
S31500000780B7650D002330F500130646BA9385856DCF
S31500000790EF309026130101FD233C910093040500E0
S315000007A0130500032334110223308102EFE098344D
S315000007B013040500EF50192F930710002320F100B2
S315000007C08335010013060500938604001305040013
S315000007D0EF600910B7670D0093870714130504002F
S315000007E02330F400EF201950930505001305040289
S315000007F0EF70095337660900B7650D001306864684
S315000008009385050B13050400EF30101FB7670D0025
S315000008109304050093878711130504002330F40021
S31500000820EF60594F6F008000930405001305040024
S31500000830EFE0D83113850400EF301A24130101FDCF
S315000008402338210113090500130500032330810213
S31500000850233C91002334110293840500EFE098298C
S315000008601304050063880400EF601964130605008D
S315000008706F000001EF5019231306050093041000C2
S315000008802320910083350100930609001305040017
S31500000890EF600904B7670D0093870714130504007A
S315000008A02330F400EF2019449305050013050402D4
S315000008B0EF70094737660900B7650D0013068646CF
S315000008C09385050B13050400EF301013B7670D0071
S315000008D09304050093878711130504002330F40061
S315000008E0EF6059436F008000930405001305040070
S315000008F0EFE0D82513850400EF301A18130101FB29
S31500000900233821031309050013050002233081044F
S31500000910233C91022334110423343103EFE0981D64
S315000009209304050013060900938581FF1305010052
S31500000930EF60D9499305010013850400930901016D
S31500000940EF60C9390335010063043501EF20901FBC
S31500000950B7670D00138481FF37760900B7650D0070
S3150000096093870755130646519385854D13850400D5
S3150000097023B0F40023A8240123BC8400EF30D00761
S315000009808337010013040500638A370113850700C6
S31500000990EF20501B6F008000130405001385040030
S315000009A0EFE0D81A13050400EF301A0D130101FF0A
S315000009B02330810037441000130504AF233411009F
S315000009C0EF40803F930504AF03340100833081007C
S315000009D037550000138681F9130545DD1301010122
S315000009E06F605A7FB747100003C787B963160700C1
S315000009F013071000238CE7B8B747100003C707B9E1
S31500000A0063160700130710002388E7B8B7471000DE
S31500000A1003C787B863160700130710002384E7B8D7
S31500000A20B747100003C707B863160700130710007F
S31500000A302380E7B8B747100003C787B763160700D8
S31500000A4013071000238CE7B6B747100003C707B794
S31500000A5063160700130710002388E7B6B747100090
S31500000A6003C787B663160700130710002384E7B68B
S31500000A70B747100003C707B6631607001307100031
S31500000A802380E7B667800000B747100003C787C119
S31500000A906316070013071000238CE7C0B747100042
S31500000AA003C707C163160700130710002388E7C0B2
S31500000AB0B747100003C787C0631607001307100067
S31500000AC02384E7C0B747100003C707C063160700B3
S31500000AD0130710002380E7C0B747100003C787BF7E
S31500000AE06316070013071000238CE7BEB7471000F4
S31500000AF003C707BF63160700130710002388E7BE66
S31500000B00B747100003C787BE631607001307100018
S31500000B102384E7BEB747100003C707BE6316070066
S31500000B20130710002380E7BE67800000B747100058
S31500000B3003C707CC63160700130710002380E7CC12
S31500000B40B747100003C787CB6316070013071000CB
S31500000B50238CE7CAB747100003C707CB6316070005
S31500000B60130710002388E7CAB747100003C787CAD0
S31500000B7063160700130710002384E7CAB74710005F
S31500000B8003C707CA63160700130710002380E7CAC6
S31500000B90B747100003C787C963160700130710007D
S31500000BA0238CE7C8B747100003C707C963160700B9
S31500000BB0130710002388E7C8B747100003C787C884
S31500000BC063160700130710002384E7C8B747100011
S31500000BD003C707C863160700130710002380E7C87A
S31500000BE0B747100003C787C763160700130710002F
S31500000BF0238CE7C6B747100003C707C7631607006D
S31500000C00130710002388E7C6B747100003C787C637
S31500000C1063160700130710002384E7C667800000E9
S31500000C20B747100003C707D863160700130710005D
S31500000C302380E7D8B747100003C787D76316070096
S31500000C4013071000238CE7D6B747100003C707D752
S31500000C5063160700130710002388E7D6B74710006E
S31500000C6003C787D663160700130710002384E7D649
S31500000C70B747100003C707D663160700130710000F
S31500000C802380E7D6B747100003C787D5631607004A
S31500000C9013071000238CE7D4B747100003C707D506
S31500000CA063160700130710002388E7D4B747100020
S31500000CB003C787D463160700130710002384E7D4FD
S31500000CC0B747100003C707D46316070013071000C1
S31500000CD02380E7D4B747100003C787D363160700FE
S31500000CE013071000238CE7D2B747100003C707D3BA
S31500000CF063160700130710002388E7D2B7471000D2
S31500000D0003C787D263160700130710002384E7D2B0
S31500000D1067800000130101FE23349100B714000020
S31500000D20233881009384041C375410001304845222
S31500000D3013850400233C1100233C9400EF901A6AAB
S31500000D402338A400630205022334A400233095004F
S31500000D50233405008330810103340101833481008B
S31500000D601301010267800000233C040023340400C1
S31500000D706FF05FFE130101FF233081003775090014
S31500000D80138681F9938581FF13058550233411005D
S31500000D90EF605A44138681F90334010083308100E1
S31500000DA037750900938501FF1305455013010101AD
S31500000DB06F605A42000000000000000000000000C2
S31500000DC0EF501A4F130401009302000063900202D1
S31500000DD017351000130505D217661000130606C74F
S31500000DE0B306A64093D53600EF509A4D97321000C1
S31500000DF09382421123B08200EF509A4EEF505A4B25
S31500000E00EF50DA7AEF608A00EF50DA6617750A005B
S31500000E101305057FEF605A26EF904A7CEF505A493A
S31500000E20973210009382820103A50200938281000B
S31500000E3083B5020013060000EF00400FEF605A3B37
S31500000E4073001000000000000000000037B50D0020
S31500000E5037B70D00930705F4130707F4630AF70085
S31500000E609307000063860700130505F467800700F3
S31500000E706780000037B50D00930705F437B70D00FE
S31500000E80930507F4B385F54093D7354093D5F5031D
S31500000E90B385F50093D51540638A050093070000D6
S31500000EA063860700130505F4678007006780000066
S31500000EB0130101FF2330810037441000834784F07B
S31500000EC02334110063920702EFF05FF8B7670A0058
S31500000ED0938747646386070013850104EF508A767B
S31500000EE0930710002304F4F08330810003340100DB
S31500000EF01301010167800000B7670A009387474224
S31500000F0063840702B7451000130101FF938505F1BD
S31500000F101385010423341100EF50CA508330810039
S31500000F20130101016FF01FF56FF0DFF4130101FAF1
S31500000F30233C1104233881042334910423302105F2
S31500000F40233C310313050040EF905A49130905006D
S31500000F5013050040EF909A4893090500930709008E
S31500000F60130709402380070093871700E39CE7FED9
S31500000F70938409001384094093870900238007009E
S31500000F8093871700E39C87FE233401022330010276
S31500000F9037A50C00130505F6EFB00A061305810206
S31500000FA0EF10C05D37A50C00130505F8EFB0CA04B5
S31500000FB0130601019305100003358102EF00802E10
S31500000FC0130681019305200003358102EF00802D71
S31500000FD0130681009305300003358102EF00802C53
S31500000FE083360101033681018335810037A50C0064
S31500000FF0130505FAEFA01A4A9305004037A50C0021
S31500001000130585FDEFA01A49930601021306100089
S315000010109305004003358102EF00804893050100E7
S3150000102003350102EF00504C37A50C0013050500EF
S31500001030EFA09A7C93060040130600009305090072
S3150000104003350102EF00505D37A50C00130585013D
S31500001050EFA09A7A9306004013060000833501023A
S3150000106013850900EF00907C83C704006396070C84
S3150000107093841400E39A84FE930600403307F90034
S315000010802300F70093871700E39AD7FE93050040E5
S3150000109037A50C0013050503EFA0DA3F93060040C1
S315000010A0130600009305090003350102EF00D05630
S315000010B09305004037A50C0013058505EFA09A3D62
S315000010C093060040130600008335010213850900CC
S315000010D0EF00D0759305004037A50C001305850871
S315000010E0EFA05A3B03350102EF00D02D37A50C00C7
S315000010F01305050BEFA05A7003358102EF00C028D7
S3150000110093070000130600409B850700B386F9008D
S315000011103307F90083C60600034707006390E60815
S3150000112093871700E392C7FE37A50C001305050D3C
S31500001130EFA09A6C6F00800383C60900034609007E
S315000011409305000037A50C001305050EEFA09A3491
S3150000115037A50C0013050511EFA01A6A0335010225
S31500001160EF00502603358102EF0000221305090027
S31500001170EF909A2713850900EF901A2713050000B0
S315000011808330810503340105833481040339010466
S315000011908339810313010106678000003387B90094
S315000011A0B307B9008346070003C6070037A50C003E
S315000011B01305050EEFA01A2E37A50C001305051111
S315000011C0EFA09A636FF09FFAB747100083B787E2E4
S315000011D0639A070037471000B7771000938787A4F4
S315000011E02334F7E2B747100083B707E26398070096
S315000011F0B74710003707001023B0E7E2678000000A
S31500001200130101FF23341100EF608A7883308100D7
S31500001210B7470F00938707243305F5021301010131
S3150000122067800000130101FD233C91009304050033
S315000012302330810223382101233431012334110262
S3150000124093890500EF60CA7403B40400B7D79A3BCC
S31500001250938707A03304F40283B78400B7440F00D2
S3150000126013090500938404243304F400EF604A72E2
S31500001270B3072541B3879702E3EA87FE6386090031
S3150000128023B0090023B4090083308102033401022C
S31500001290833481010339010183398100130101037C
S315000012A067800000630C050A9307700063ECB70AB9
S315000012B0B7B70C009387878893952500B385F5000B
S315000012C083A70500678007000347550693071000AC
S315000012D013050000B397E7002330F600678000008F
S315000012E083378506130500002330F600678000006B
S315000012F083470506130500002330F60067800000CB
S3150000130083471506130500002330F60067800000AA
S3150000131083472506130500002330F600678000008A
S31500001320833705061305000093D7870193970703B4
S3150000133093D707032330F600678000009307000465
S315000013402330F60013050000678000008337050789
S31500001350130500002330F600678000001305F0FF38
S315000013606780000083B7810113860500B7A50C00CE
S3150000137003B58701130101FF93850512233411007C
S31500001380EF704A60EF60CA4D63080510130101FE55
S31500001390233881000334850323349100233C110054
S315000013A093040500630A04001305040003340400D3
S315000013B0EF105079E31A04FE03B6040303B5840262
S315000013C09305000013163600EFA00A7103B58402D8
S315000013D023B0040423BC0402938784056304F50048
S315000013E0EF10507603B40402630A040083278400D6
S315000013F01B87F7FF2324E4006306070603B40401F2
S3150000140063020404832784001B87F7FF2324E40078
S31500001410631A0702833704001305040083B7070124
S31500001420E78007008327C4001B87F7FF2326E40015
S31500001430631A0700833704001305040083B7870186
S31500001440E780070013850400EF10D06F8330810119
S3150000145003340101833481001305000013010102E6
S3150000146067800000833704001305040083B7070173
S31500001470E78007008327C4001B87F7FF2326E400C5
S31500001480E31E07F6833704001305040083B78701BC
S31500001490E78007006FF09FF61305F0FF67800000F6
S315000014A06308053A130101FB233471012334110447
S315000014B023308104233C9102233821032334310352
S315000014C023304103233C510123386101233081013C
S315000014D0938B0600638C0634138B050063880534F2
S315000014E0033A85009384F5FF930A050083674A0152
S315000014F003368A01B384F400B307F040B3F4F40072
S31500001500630A062213090600833789026384070EDD
S3150000151003B78703637897006F00C00D03B787038F
S31500001520636897001384070083B70700E39807FEF4
S315000015300336840103370401033C8403833904031F
S3150000154083368400630606282338E6000337040141
S3150000155063040700233CC70023380400233C04002F
S315000015606386061C23B0F6008337040063840700F5
S3150000157023B4D70083678901330C9C4023300400D1
S3150000158023340400637CFC0E833709022330F40203
S315000015906384070023B4870283378A0223308902D3
S315000015A013058001B384970023349A02EF2050512B
S315000015B023305501233435012338650123B0AB00B0
S315000015C0130500008330810403340104833481034E
S315000015D00339010383398102033A0102833A810107
S315000015E0033B0101833B8100033C0100130101051C
S315000015F06780000003390900E31809F083670A01D0
S3150000160083390A00138CF7FF330C9C00B307F040B4
S31500001610337CFC008337860033073C0163F8E7120E
S315000016208339060103360600B3893701E31406FE43
S3150000163083378A003387890163FAE71037A50C00E0
S3150000164013058514EFA05A1B37A40C00B7A50C0090
S315000016501306F0FF9385051613058418EFA08A6319
S31500001660B7A50C001306F0FF9385051B1305841818
S31500001670EFA04A621305F0FF6FF0DFF4233C9402FB
S3150000168013050004EF20D04383370903B3893401DF
S31500001690233005002334050023380500233C0500CC
S315000016A0233005022334050223383503233C850302
S315000016B0638C0718930600006F00400103B707010B
S315000016C093860700630607149307070003B707030B
S315000016D0E36637FF2338F500233CD5006380061404
S315000016E023B8A60023BCA7008337890263840714A6
S315000016F0930600006F00400103B7070093860700BA
S31500001700630E070E9307070003B78703E366ECFE35
S315000017102330F5002334D5006386061023B0A600D7
S315000017208339040323B4A7006FF01FE62334F902BC
S315000017306FF0DFE383670A0183390A00138CF7FF32
S31500001740330C9C00B307F040337CFC001305800388
S31500001750EF20103783274A011309050023300500BF
S315000017602334350123388501232CF5002330050267
S3150000177013050004EF20D03483378A012330050097
S315000017802334050023380500233C050023300502D9
S315000017902334050223383503233C85032338A90265
S315000017A02334A902130405006388070083368900E1
S315000017B003B7870063F8E6022330F900233C2A01C9
S315000017C0636C9C0893070000930600001307000053
S315000017D02338E902130600006FF09FD703B787008E
S315000017E06378D7001386070083B70700E39807FEE0
S315000017F02330F900233026016FF09FFC23300500CB
S315000018002334F5008339040323B0A7006FF0DFD734
S31500001810233CF50023B8A7006FF01FED2338A9027B
S315000018206FF05FEC2334A9026FF09FEF1305F0FF12
S315000018306FF05FD923300500233405008339040394
S315000018402334A9026FF05FD42338A9026FF0DFE9D1
S315000018501305F0FF678000008337800173001000D6
S315000018601304050013050900EF10D02D130504001D
S31500001870EF209A20630A0532130101FB233471011C
S315000018802334110423308104233C9102233821039D
S315000018902334310323304103233C510123386101B2
S315000018A023308101930B0700630A072C130B0600F4
S315000018B06306062C033A85009309F6FF930A050092
S315000018C083670A0103378A0013840500B389F90088
S315000018D0B307F040B3F9F900B38435016360972C80
S315000018E083378A01639007026F000008636604036A
S315000018F063F496066372980263F0860283B7070064
S315000019006384070683B6870003B807013388060198
S31500001910E37ED4FC63F4960437A50C001305052674
S31500001920EFA08A6D37A40C00B7A50C001306F0FFD4
S315000019309385852013058418EFA0CA35B7A50C003A
S315000019401306F0FF9385052313058418EFA08A3448
S315000019501305F0FF6F00400EE3E286FAE3FE04FB98
S3150000196083B70700E39007FA13058003EF205015AD
S3150000197083274A01130C05001305000423300C00CD
S3150000198023348C0023383C01232CFC0023300C022A
S31500001990EF20101383378A01233005002334050016
S315000019A023380500233C05002330050223340502B5
S315000019B023388502233C35032338AC022334AC029A
S315000019C0130905006388070083368C0003B7870078
S315000019D063F0E60A2330FC0083278C01233C8A014E
S315000019E023380C0223380900233C090023340C0257
S315000019F023300900233409006386070A83370C0263
S31500001A002330F9026384070023B4270383378A024D
S31500001A1023302C0313058001B389370123343A039D
S31500001A20EF20100A23305501233485002338650141
S31500001A3023B0AB0013050000833081040334010496
S31500001A40833481030339010383398102033A010296
S31500001A50833A8101033B0101833B8100033C010082
S31500001A60130101056780000003B787006378D7007C
S31500001A701386070083B70700E39807FE2330FC00B0
S31500001A8083278C012330860123380C022338090072
S31500001A90233C090023340C022330090023340900B7
S31500001AA0E39E07F413050004233C3903EF2050019D
S31500001AB083370C0323300500233405002338050043
S31500001AC0233C050023300502233405022338950202
S31500001AD0233C05026380070C930600006F0040015B
S31500001AE003B70701938607006302070693070700FB
S31500001AF003B70703E36697FE2338F500233CD500BA
S31500001B006384060623B8A60023BCA70083378C028D
S31500001B10638A0706930600006F00400103B70700BB
S31500001B2093860700630A07029307070003B7870334
S31500001B30E31607FE2330F5002334D500638A060238
S31500001B4023B0A60023B4A7006FF05FEB233CF5009B
S31500001B5023B8A7006FF09FFB233005002334F50060
S31500001B6023B0A7006FF09FE92338AC026FF0DFF9CE
S31500001B702334AC0223B4A7006FF05FE81305F0FF2F
S31500001B806FF09FEB23300500233405002334AC02AD
S31500001B906FF0DFE62338AC026FF05FF737A50C0075
S31500001BA01305051E6FF0DFD71305F0FF67800000F1
S31500001BB01304050013050C00EF10C078130504008C
S31500001BC0EF208A6B130101FD2330810223341102B9
S31500001BD0233C9100233821012334310113040000F2
S31500001BE0630C05068337050003378500930405005B
S31500001BF003B987000334890163040408833784002A
S31500001C00636CF70683360401B387D7006376F7065D
S31500001C1083350402639805006F00000683B505024C
S31500001C20638C050483B70503E31AF7FE1305040066
S31500001C3083B98503EF10400183370402638E0704DE
S31500001C408337890213040000B38737412334F9022E
S31500001C5013850400EF10006F833081021305040022
S31500001C600334010283348101033901018339810080
S31500001C70130101036780000003340400E31004F835
S31500001C8037A50C009305070013058529EFA08A00E8
S31500001C901304F0FF6FF0DFFB83378901638E0700C3
S31500001CA0639687006F0080036384870213870700AB
S31500001CB083B70700E39A07FE0335040363040500B0
S31500001CC0EF10406813050400EF10C0676FF05FF770
S31500001CD0833704002330F7006FF01FFE83370400BC
S31500001CE0233CF9006FF05FFD630A0500833785002A
S31500001CF01305000023B0F500678000001305F0FF10
S31500001D006780000093070500630A0502638C0500DF
S31500001D108336850003B7860083B686023307D7402D
S31500001D2023B0E50013050000630C060083B78700A7
S31500001D3083B787022330F600678000001305F0FFA3
S31500001D40678000006306050C130101FC2334910231
S31500001D50B7440F0023302103233C310123384101CE
S31500001D6013890424233C110223388102130A050037
S31500001D70938905009384F4231306C100930540015B
S31500001D8013050A0023260100EF10002C631A050232
S31500001D908327C10093F77700638C0704638A0904DD
S31500001DA0EF501A3F13040500EF509A3EB3078540E3
S31500001DB0B3872703E3FAF4FE9389F9FF6FF0DFFB9D
S31500001DC037A40C00B7A50C00130605009385852CD7
S31500001DD013058418EF901A6CB7A50C001306F0FFD4
S31500001DE09385052E13058418EF90DA6A1305F0FF24
S31500001DF083308103033401038334810203390102F2
S31500001E0083398101033A010113010104678000004F
S31500001E101305F0FF67800000130101FC233C11024B
S31500001E20233881022334910223302103233C3101DC
S31500001E3023384101233451016306051E138405002E
S31500001E406382051E03370501B307D60083340500F8
S31500001E50636AF71C03398500330926019377F90372
S31500001E606392071C9386F60383B7040793F906FC6F
S31500001E703307390163E8E71A376A260593050AC06E
S31500001E8013850400EFF01FEC930A0500631C050898
S31500001E9093D729006386090A93992700B389890095
S31500001EA03B098940130A0AC06F008000630A34099F
S31500001EB0032604009305800013850400EF108017A5
S31500001EC0930705003B06890093054000138504002F
S31500001ED013044400639A0708EF10C0159307050022
S31500001EE0130640009305C000138504006396070A95
S31500001EF0EF10401493070500130620009305000019
S31500001F00138504006392070CEF10C0121306050038
S31500001F1093050A00138504006310060EEFF09FE296
S31500001F20E30605F837A40C00B7A50C001306F0FF6E
S31500001F309385054113058418EF90DA55930AF0FF4F
S31500001F4083308103033401038334810203390102A0
S31500001F5083398101033A010113850A00833A81001E
S31500001F60130101046780000037A40C00B7A50C001C
S31500001F70138607009385053113058418EF909A514F
S31500001F80B7A50C001306F0FF938585331305841857
S31500001F90EF905A506FF05FF937A40C00B7A50C000C
S31500001FA0138607009385053113058418EF909A4E22
S31500001FB0B7A50C001306F0FF938585361305841824
S31500001FC0EF905A4D6FF05FF637A40C00B7A50C00E2
S31500001FD0138607009385053113058418EF909A4BF5
S31500001FE0B7A50C001306F0FF9385053B130584186F
S31500001FF0EF905A4A6FF05FF337A40C00B7A50C00B8
S315000020009385053113058418EF90DA48B7A50C00BF
S315000020101306F0FF9385053E13058418EF909A4743
S315000020206FF09FF0930AF0FF6FF09FF1130101FB31
S315000020302334110423308104233C910223382103E5
S315000020402334310323304103233C5101638C051EA5
S31500002050130405006308051E03B70501B307D60080
S3150000206083B405006360F71E03B9850033092601B2
S315000020709377F9036398071C9386F60383B70407DF
S3150000208093F906FC3307390163EEE71A376A26052A
S3150000209093050AC013850400EFF0DFCA930A050012
S315000020A06312050A93D72900638C090A93992700BE
S315000020B0B30934013B098940130A0AC06F000002C4
S315000020C023260100EF005078631605148327C1000C
S315000020D013044400232EF4FE638489083B0689001A
S315000020E09305400013850400EF00D07493070500A4
S315000020F0130640009305C000138504006396070885
S31500002100EF005073930705001306100093050000B7
S31500002110138504006392070AEF00D07113060500C9
S3150000212093050A00138504006310060CEFF09FC1A7
S31500002130930705001306C1009305000113850400EB
S31500002140E38007F837A40C00B7A50C001306F0FFD0
S315000021509385054A13058418EF90DA33930AF0FF46
S31500002160833081040334010483348103033901037A
S3150000217083398102033A010213850A00833A8101F9
S31500002180130101056780000037A40C00B7A50C00F9
S31500002190138607009385053113058418EF909A2F4F
S315000021A0B7A50C001306F0FF938585361305841832
S315000021B0EF905A2E6FF05FF937A40C00B7A50C000C
S315000021C0138607009385053113058418EF909A2C22
S315000021D0B7A50C001306F0FF9385053B130584187D
S315000021E0EF905A2B6FF05FF637A40C00B7A50C00E2
S315000021F09385053113058418EF90DA29B7A50C00ED
S315000022001306F0FF9385854413058418EF909A28EA
S315000022106FF09FF337A40C00B7A50C00130605005A
S315000022209385852C13058418EF90DA26B7A50C0044
S315000022301306F0FF9385854713058418EF909A25BA
S315000022406FF09FF0930AF0FF6FF09FF1630E0504A5
S31500002250630C0604833805039397050293D7070298
S31500002260B3F7170303378502939637003307D70072
S3150000227003380700630A080203370800832687002D
S315000022806388D5020335070013080700630E0500AF
S3150000229083268500130705001395060213550502CC
S315000022A033751503E38EA7FC1305F0FF6780000066
S315000022B083370800E38A07FE83A7C70013050000DB
S315000022C02320F600678000001305000067800000E9
S315000022D0630A05006388060023B0060013050000A4
S315000022E0678000001305F0FF67800000130101FA04
S315000022F0233C11042338810423349104233021051F
S31500002300233C310323384103233451032330610333
S315000023106308052493840500130A06001386050046
S315000023209305400013040500139B0402EF00905030
S31500002330135B0B026318051813060A009305800049
S3150000234013050400EF00104F6318051A130640002A
S315000023509305000013050400EF00D04D9309050016
S315000023606316051C83350403833784023375BB0269
S31500002370931A3500B387570103B60700630A0606AA
S315000023808337060003A787006386E40283B6070047
S315000023906380060603A786001386070093170702C5
S315000023A093D70702B3F7B7026314F50493870600C1
S315000023B0E39EE4FC833706001389C700638A07029D
S315000023C023204901833081050334010583348104C8
S315000023D003390104033A0103833A8102033B0102F4
S315000023E01385090083398103130101066780000004
S315000023F013050001EF10D06C83370405033604047F
S31500002400833504031309050093061000130584049D
S315000024102330090023249900232609002334F100E0
S31500002420EF10046D2338A100233CB1001375F50F9E
S31500002430631C050203378402B30A570183B70A00F7
S315000024406388070483B707002330F90083B70A00BF
S3150000245023B02701833704041309C90093871700A3
S315000024602330F4046FF0DFF51306810013058402B0
S31500002470EF005022833A040303378402B37A5B03E6
S31500002480939A3A00B30A570183B70A00E39C07FA06
S3150000249083378403233C24032330F900638E07002B
S315000024A083E7870083360403B3F7D7029397370091
S315000024B03307F700233027019307840323B0FA007C
S315000024C06FF05FF937A40C00B7A50C0013060500E2
S315000024D09385053113058418EF90CA7BB7A50C00C8
S315000024E01306F0FF9385854D13058418EF908A7ABD
S315000024F09309F0FF6FF01FED37A40C00B7A50C0091
S31500002500130605009385053113058418EF908A7824
S31500002510B7A50C001306F0FF9385855013058418A4
S31500002520EF904A779309F0FF6FF0DFE937A40C00CC
S31500002530B7A50C001306050093850531130584180D
S31500002540EF904A75B7A50C001306F0FF93858553E7
S3150000255013058418EF900A749309F0FF6FF09FE655
S315000025609309F0FF6FF01FE6130405001305090039
S31500002570EF00505D13050400EF101A50130101FC23
S31500002580233C110223388102233491022330210394
S31500002590233C3101233841012334510123306101A9
S315000025A0630E05441309050013058007EF1050510B
S315000025B0B7F5FF019395750013040500EF00902110
S315000025C093071000939407022338F40283A781DA55
S315000025D09309840513068406930500021305040077
S315000025E02334040023380400233C0400233004026F
S315000025F023343403233C0402233004042324F40448
S3150000260023380404233C040423389406EF00101FE7
S3150000261063120538130604069305800113050400AA
S31500002620EF00D01D6312053A13050004EF10504960
S31500002630B7B60C00938A869D37070004B7060100DB
S31500002640033A04012338D50013071700B7F6FF0F26
S315000026509384140013060501939646001317C700CA
S315000026602330550123349500233CD5002330E50261
S3150000267023340502233C05022334C4002338A40076
S31500002680630A0A0083278A001B87F7FF2324EA00D0
S3150000269063020716034A540693041000339A440152
S315000026A063EA441937060060930510001305040019
S315000026B0EFF0DFC393040500631C0510130600004A
S315000026C09305200013050400EFF05FC29304050094
S315000026D0630C051E13060500B7A50C0037A50C00F4
S315000026E09385056613058518EF90CA5A0339840346
S315000026F0630A09001305090003390900EF00904435
S31500002700E31A09FE03360403033584029305000029
S3150000271013163600EF904A3C033584022330040436
S31500002720233C04026384A900EF00D041033904026C
S31500002730630A0902832789001B87F7FF2324E90020
S3150000274063120702833709001305090083B70701DF
S31500002750E78007008327C9001B87F7FF2326E900C8
S315000027606302072003390401630A090283278900EB
S315000027701B87F7FF2324E90063120702833709004A
S315000027801305090083B70701E78007008327C900FF
S315000027901B87F7FF2326E900630C071A13050400BD
S315000027A0EF00503A833081030334010303390102F9
S315000027B083398101033A0101833A8100033B010019
S315000027C0138504008334810213010104678000002D
S315000027D013060500B7A50C0037A50C009385056107
S315000027E013058518EF900A4B03398403E31409F0A7
S315000027F06FF05FF183370A0013050A0083B70701FC
S31500002800E78007008327CA001B87F7FF2326EA0015
S31500002810E31207E883370A0013050A009304100041
S3150000282083B78701E7800700034A5406339A4401B9
S31500002830E3FA44E713050004EF1090283707100069
S31500002840033B0402939404021307170093841400B5
S31500002850930605013706007F1317C700233055017D
S31500002860233495002338C500233C45012330E50277
S3150000287023340502233C0502233CD4002330A40262
S31500002880E3020BE283278B001B87F7FF2324EB0071
S31500002890E31A07E083370B0013050B0083B7070124
S315000028A0E78007008327CB001B87F7FF2326EB0073
S315000028B0E31A07DE83370B0013050B0083B7870186
S315000028C0E78007006FF01FDE130600009305300057
S315000028D013050400EFF09FA193040500631C050295
S315000028E0130600009305400013050400EFF01FA037
S315000028F093040500630E050213060500B7A50C0038
S3150000290037A50C009385056E13058518EF908A3858
S315000029106FF09FED13060500B7A50C0037A50C0058
S315000029209385856A13058518EF90CA366FF0DFEB3D
S31500002930130600009305500013050400EFF01F9BDB
S3150000294093040500631A0502233089006FF09FE5A2
S31500002950833709001305090083B78701E78007005D
S315000029606FF0DFE3833709001305090083B787019A
S31500002970E78007006FF01FDF13060500B7A50C0000
S3150000298037A50C009385857113058518EF908A305D
S315000029906FF09FE537A40C00B7A50C0013060500E1
S315000029A09385055713058418EF90CA2EB7A50C001A
S315000029B01306F0FF9385055913058418EF908A2DA9
S315000029C09304F0FF6FF01FDE37A40C00B7A50C00D0
S315000029D0130605009385055713058418EF908A2B77
S315000029E0B7A50C001306F0FF9385055D1305841843
S315000029F0EF904A2A9304F0FF6FF0DFDA9304F0FFBA
S31500002A006FF05FDA9304050013050400EF009013DE
S31500002A1013850400EF105A0663020512638005123F
S31500002A20630E0610130101FE2334910083B4850062
S31500002A302330210193051000033986001B8604000C
S31500002A4023388100233C110013040500EFF01F8A90
S31500002A506316050613D604429305200013050400E9
S31500002A60EFF0DF88631C05061B060900930530009E
S31500002A7013050400EFF09F876312050813560942F9
S31500002A809305400013050400EFF05F866318050800
S31500002A90130630009305000013050400EF0080596B
S31500002AA06312050A833081010334010183348100F6
S31500002AB003390100130101026780000013060500B7
S31500002AC0B7A50C0037A50C009385857413058518EA
S31500002AD0EF904A1C1305F0FF6FF0DFFC13060500AC
S31500002AE0B7A50C0037A50C009385857813058518C6
S31500002AF0EF904A1A1305F0FF6FF0DFFA1306050090
S31500002B00B7A50C0037A50C009385057D1305851820
S31500002B10EF904A181305F0FF6FF0DFF81306050073
S31500002B20B7B50C0037A50C009385058113058518EC
S31500002B30EF904A161305F0FF6FF0DFF61305F0FF6E
S31500002B406780000037A40C00B7A50C00130605002B
S31500002B509385053113058418EF90CA13B7B50C0099
S31500002B601306F0FF9385858513058418EF908A1266
S31500002B701305F0FF6FF01FF367800000130101FEDD
S31500002B802338810003348502233C1100233491004D
S31500002B9063020402033504039304040003340400AF
S31500002BA063040500EF00007A13850400EF008079C6
S31500002BB0E31204FE83308101033401018334810072
S31500002BC013010102678000006F00C0776F008077F5
S31500002BD0130101FFB7B70C00233081002334110025
S31500002BE0938707A013040501638AF50203B58500E0
S31500002BF0B7B50C009387858E6302F502034705007F
S31500002C009307A0026306F7029385858EEFA05A5CB0
S31500002C10133515003305A0403374A40083308100BA
S31500002C20130504000334010013010101678000004D
S31500002C3013040000833081001305040003340100EF
S31500002C40130101016780000003B78502130101FE2D
S31500002C502338810023349100233C110023302101C5
S31500002C6083B7050213840500930405006304071A5D
S31500002C702330F7026384070023B4E70283B7040313
S31500002C802330040223340402638E071E0336040332
S31500002C90930600006F00400103B707019386070003
S31500002CA0630607149307070003B70703E366C7FE27
S31500002CB02338F400233CD4006394060E23B8840220
S31500002CC023BC87000339840113850700630C0900C0
S31500002CD00337890383370903B307F700638AC706F7
S31500002CE0630C050003378403833704038336050327
S31500002CF0B307F7006388F61283B78402638C07165E
S31500002D0003368403930600006F00400103B70700F3
S31500002D1093860700630A070A9307070003B787032A
S31500002D20E366E6FE2330F4002334D4006388060EFF
S31500002D3023B0860023B48700833081010334010168
S31500002D40833481000339010013010102678000000A
S31500002D50833784032338A9003387E700233CE9023D
S31500002D6063040500233C25010337890083370900E6
S31500002D70630A070E2330F7008337090063840700D0
S31500002D8023B4E700130504002330090023340900A7
S31500002D90EF00405B03350901130409006FF05FF48F
S31500002DA023B886000335040123BC87000339840158
S31500002DB0E30809F20337890383370903B307F700EA
S31500002DC0E390C7F26FF0DFF8233004002334F400F9
S31500002DD08330810123B087000334010183348100ED
S31500002DE0033901001301010267800000233CF4004F
S31500002DF0033984012338040023B887000337890385
S31500002E008337090303350401B307F700E39AC7ECD8
S31500002E106FF01FF42330F5026FF0DFE523B4840270
S31500002E206FF05FF183378503833605013387E7004B
S31500002E30233CE4022338D4006384060023BC8600C6
S31500002E400337850083370500630207022330F70046
S31500002E50833705006384070023B4E700EF00804E44
S31500002E606FF09FE923B4F4026FF05FF123B4F4022C
S31500002E706FF05FFE233004002334040023B4840281
S31500002E806FF09FEB23380400233C040023B8840230
S31500002E906FF09FE6130101FD23308102233C910070
S31500002EA02334110223382101233431019307100002
S31500002EB013840500930405006384F50E9307F0FF61
S31500002EC093D747001309060063E4B70E93993500BC
S31500002ED013850900EF10C03E138609009305000014
S31500002EE013090500EF805A3F1383040303B6040158
S31500002EF023B80400630006049305000093880401C8
S31500002F00836686001307060003360600B3F68602BC
S31500002F1093973600B307F90003B807006304080463
S31500002F20833608002330D70083B7070023B0E700B5
S31500002F30E31806FC03B5040063046500EF00804057
S31500002F4023B48400833081020334010223B02401B8
S31500002F50833981008334810103390101130101039F
S31500002F606780000003B504012330A70023B8E400FE
S31500002F7023B0170183370700638E0700939535004A
S31500002F80B305B90023B0E50093850600E31A06F6FB
S31500002F906FF05FFA93850600E31406F66FF09FF96B
S31500002FA01309050323380502130309006FF01FF404
S31500002FB0EFD00FBDEF00003A8337090023B4F402C7
S31500002FC0EF10802913040500EF00404213050400AA
S31500002FD0EF108A2A2330B50067800000833705008A
S31500002FE013050000B385F5009B07060023A0F50036
S31500002FF01356064223A2C500678000006308060236
S315000030008337050013050000B385F50083A7450047
S3150000301003A7050093970702131707021357070222
S31500003020B3E7E7002330F600678000001305F0FFE2
S31500003030678000008337050013050000B385F5009F
S3150000304023A0C50067800000630E060083370500D5
S3150000305013050000B385F50083A705002320F600BD
S31500003060678000001305F0FF6780000083370500C6
S31500003070130101FD2330810203B707031304060081
S315000030809307100003360600939747022338F10092
S315000030902334110223340100233C010093068100EE
S315000030A0E7000700832701011307600013050000EE
S315000030B093F767006398E7008337810013051000D4
S315000030C02330F4008330810203340102130101032B
S315000030D067800000130510006304C70067800000C6
S315000030E01305600067800000B7B70C00938707A63A
S315000030F02330F5006F10004F130101FFB7B70C0026
S315000031002330810023341100938707A62330F5006E
S3150000311013040500EF10004D1305040003340100ED
S315000031208330810093050001130101016F00C02166
S315000031300335850083B58500130101FE2338810020
S3150000314023349100233C110023302101930406000F
S3150000315013840600630EB500034705009307A0021B
S31500003160130900006302F702EFA09A06631E05002A
S31500003170930700012338F40093076000233094007E
S315000031802324F40013091000833081010334010164
S31500003190833481001305090003390100130101027C
S315000031A067800000130101FD23308102233C91005A
S315000031B0138405009304050083B585000335850057
S315000031C02334110223382101233431016300B5026F
S315000031D0034705009307A00293090600138906001A
S315000031E06306F702EFA0CA7E6312050283308102EE
S315000031F003340102833481010339010183398100DB
S3150000320013051000130101036780000093073000C7
S3150000321063EA27038337040013050400033401021D
S31500003220833081020339010183B7870213860900BF
S3150000323093850400833981008334810113010103DE
S3150000324067800700833081020334010283348101E1
S3150000325003390101833981001305000013010103BD
S3150000326067800000130101FC233881022334910298
S3150000327023302103233C3101233C1102033985000D
S31500003280130407009309060093840800630A0705E0
S3150000329083B58600638E2501034709009307A002C4
S315000032A06300F70213050900EFA08A72631A05008E
S315000032B09307100023B0840023A4340123A8F4004C
S315000032C0833081030334010383348102033901020D
S315000032D08339810113050000130101046780000092
S315000032E083B58700638E2503034709009307A00271
S315000032F06302F702130509002334D100EFA04A6DDB
S3150000330083368100630E050083B58600E31CB9F899
S315000033106FF01FFA83B78600E39427FB6FF05FF91F
S31500003320833081030334010323A6340103390102E8
S3150000333083348102833981011305000013010104DE
S31500003340678000006F705A0A6FF0DFFF033585FF54
S3150000335067800000130101FF233081002334110030
S3150000336013040500EF000017B7B60D0083B606F488
S315000033700337040013061000930705003307D70030
S3150000338003350500930604FB637EE600631E050411
S31500003390833081000334010023B0D70013010101FB
S315000033A067800000032784FD1B061700635607008D
S315000033B0130610003B06E64003A78700232CC4FC37
S315000033C01B07F7FF23A4E7006306D5002338A4FCF8
S315000033D023B0D700033584FF833081000334010016
S315000033E01301010167800000EF00504C130101FF3B
S315000033F023341100EF00400D1307050003350500C7
S31500003400630C0502B7B50D008336050583B505F4D3
S3150000341013061000B386B6006362D60483268502BF
S3150000342063C206029B86F6FF638406041307F0FF59
S31500003430638CE6042324D502833081001301010145
S31500003440678000009B861600E39606FE033605029B
S315000034502330C7002324D5026FF01FFE833081007E
S315000034602330070013050505130101016F10CA0D6E
S315000034708336050283308100130505052330D70006
S31500003480130101016F104A0CEF005042130101FFB6
S3150000349023341100EF0000040325850083308100EA
S315000034A03335A0001301010167800000130101FFFD
S315000034B023341100EF0000028330810003258500CC
S315000034C0130101016780000037451000130505F45C
S315000034D06780000037451000130505F4678000007B
S315000034E083B7050003370600130101FD83B7070103
S315000034F023308102233C9100233821012334110219
S31500003500930405002334E1001385050013840500A8
S3150000351013090600E780070063080500833781006A
S3150000352083B707002334F10083B704009306100025
S315000035301306810083B70702930504001385040070
S31500003540E780070063060500833781002330F90012
S31500003550833081020334010283348101033901017E
S31500003560130101036780000093070005630AF50A4B
S31500003570130705009377F5001305C0006364F51E75
S3150000358037B50C0093972700130585AAB387A700C4
S3150000359083A70700678007008347160003450600D8
S315000035A0034E260003433600834846009397870060
S315000035B0B3E7A70003485600131E0E01336EFE0044
S315000035C00345660013138301834776003363C30103
S315000035D093980802B3E86800131888023368180144
S315000035E0131505033365050193978703B3E7A70012
S315000035F01305860063820702137807079308000104
S3150000360063141801930506001B1787011B57874192
S31500003610B387B7006342070223B0F6006780000055
S3150000362013057600137585FF83370500130585009E
S3150000363023B0F6006780000083B7070023B0F600CA
S31500003640678000008347160003480600130526001E
S3150000365093978700B3E707016FF0DFF90348160079
S315000036608348060003452600834736001318880062
S315000036703368180113150501336505019397870112
S31500003680B3E7A700130546006FF0DFF60348160000
S315000036908348060003452600834736001318880032
S315000036A033681801131505013365050193978701E2
S315000036B0B3E7A7009B870700130546006FF09FF34B
S315000036C083471600034806001305260093978700D4
S315000036D0B3E707019B9707019BD707416FF09FF15F
S315000036E013050600930700001303000003480500B6
S315000036F0130515009378F8071B188801B39868001E
S315000037001B588841B3E717011B037300E34008FE0B
S315000037106FF05FEE130506009307000093080000A4
S3150000372003430500130515001378F3071B1E8301D9
S31500003730331818011B5E8E41B3E707019B8878009A
S31500003740E3400EFE1308F003E36618EB137303045D
S31500003750E30203EA1308F0FFB3181801B3E71701F1
S315000037606FF09FE9130101FF23341100EF404A0F68
S315000037701307F00F930705006308E50413F707071F
S3150000378093060003138505006304D70463E8E60087
S3150000379093060002631AD7006F008A4D9307000450
S315000037A06310F7026F004A4963E6E60093F70706DF
S315000037B0638C0700130101FF23341100EF404A0A0E
S315000037C093070005E318F7FE130500006780000065
S315000037D06F008A49130101FD23308102233C9100C9
S315000037E02338210123341102233431011309050042
S315000037F01384050093040600930700006306050082
S31500003800EF008A439307050023B0F40083490400C0
S315000038101307F00F130414006396E90A23B4F400A7
S31500003820834704001307F00F130514002384F402E2
S315000038306386E70C930500009306000083470500A6
S315000038401305150013F7F7079B9787013317D70062
S315000038509BD78741B3E5E5009B867600E3C007FE6C
S31500003860B305B50023BCB4008347050093050000EB
S3150000387013051500A384F402930600008347050090
S315000038801305150013F7F7079B9787013317D70022
S315000038909BD78741B3E5E5009B867600E3C007FE2C
S315000038A08330810203340102B305B50023B0B402AC
S315000038B00339010183348101833981001301010336
S315000038C0678000009305090013850900EFF05FEAA1
S315000038D093050500130604009386840013850900EA
S315000038E0EFF09FC813040500834704001307F00F89
S315000038F0130514002384F402E39EE7F223BC0400BC
S315000039006FF09FF6130101FA233881040334850111
S3150000391093C6F6FF2334910423302105233C31035B
S31500003920233841032334510323306103233C11041C
S31500003930130B0500138905002334C1003304D4009A
S315000039409309F00F93042000930A3000130A4000F5
S3150000395013080000930600008347040013041400B4
S3150000396013F7F7079B9787013317D7009BD7874134
S315000039703368E8009B867600E3C007FE6300080A0A
S3150000398003458B026308350993777500638E9706A6
S3150000399063F8F406131628003306C040639A5705E9
S315000039A083378B0183350B01930681013386C7006C
S315000039B0EFF09FBB033581011306810093050900D3
S315000039C0EFF01FB2E30605F88330810503340105E5
S315000039D0833481040339010483398103033A0103E3
S315000039E0833A8102033B010213010106678000004E
S315000039F0639A470113183800330600416FF05FFAE7
S31500003A00E38A07FEEF30DA65131818003306004123
S31500003A106FF01FF9130600006FF09FF81305000002
S31500003A206FF09FFA130101F2233C110C2338810C2D
S31500003A302334910C2330210D233C310B2338410BC9
S31500003A402334510B2330610B233C71092338810940
S31500003A50233491092330A109233CB1072330010205
S31500003A60232E010093071000631AF51613040700AE
S31500003A7037B70D00833407F49307600013890500F8
S31500003A8093890600B30496006394F5006372951C4F
S31500003A9013050400EF00CA19130A05006300051A8E
S31500003AA0130601049305050013050400EFF09FD2E9
S31500003AB0930A05000345810693050400EFF05FCBEA
S31500003AC0930705009305C101130504002338F1048B
S31500003AD0EF004A148327C1010337010693B7170085
S31500003AE0330BF54063FCEA0A034C9106930500008C
S31500003AF0930B000013050C00EFF09FC713860A0016
S31500003B00930505009306810213050C00EFF0DFA56F
S31500003B10034C9106930A05009305000013050C005B
S31500003B20EFF01FC513860A009305050093060103EF
S31500003B3013050C00EFF05FA3034C9106930A0500F2
S31500003B409305000013050C00EFF09FC293050500D6
S31500003B509306810313860A0013050C00EFF0DFA01D
S31500003B60930A05009306000083C70A00938A1A0089
S31500003B7013F7F7079B9787013317D7009BD7874122
S31500003B80B3EBEB009B867600E3C007FE83370104A8
S31500003B9003378102B387E7006372FB089377190046
S31500003BA06382070A93080000930A0000130D0000C1
S31500003BB0930710001305600063E497028337010240
S31500003BC023AE19FD23B0A9FF23B449FF23BCF9FE98
S31500003BD023B859FF130560006F00800013053000FD
S31500003BE08330810D0334010D8334810C0339010CBC
S31500003BF08339810B033A010B833A810A033B010A9D
S31500003C00833B8109033C0109833C8108033D01088C
S31500003C10833D81071301010E67800000033701030E
S31500003C20B387E7006368FB0083370106E3EEFAEA31
S31500003C306FF0DFF6833A810363940A06130580006A
S31500003C406FF01FFA137989006306090AEF00004630
S31500003C5083BA06FF63840A0A83A8C6FD03BA86FEF2
S31500003C60938B080063DE08041306010493050A001B
S31500003C7013050400EFF01FB6034581069305040003
S31500003C80EFF01FAF93070500034581069305040077
S31500003C902338F104EFF0DFAD23B8A9FE6F00400230
S31500003CA083378104B38AFA00639E0B04E3880AF81B
S31500003CB093771900E39407F89378890063820828BC
S31500003CC09305A0001305040013860900EFF0596D53
S31500003CD013860B009305B00013050400EFF0596C32
S31500003CE01305040093850A00EFF01974130570009C
S31500003CF06FF01FEF93071000E3EA97F413850900AE
S31500003D00EFB0886E03330106938BFBFF330D73010F
S31500003D10E3860AF2630C0D20937789002334F100C1
S31500003D20639807229307100063FA9722B75E0D0087
S31500003D30138C8EFC23300100930CF003130B0D0043
S31500003D40930D00001307000083460B00130B1B00A6
S31500003D5093F7F6071B968601B397E7001B56864135
S31500003D60B3EDFD001B077700E34006FE63EEEC00B3
S31500003D7093F60604638A060093071000B397E700DC
S31500003D80B307F040B3EDFD0013060B00930B0000E4
S31500003D9013070000834606001306160093F7F6077E
S31500003DA09B958601B397E7009BD58541B3EBFB0056
S31500003DB01B077700E3C005FE63EEEC0093F60604EE
S31500003DC0638A060093071000B397E700B307F04035
S31500003DD0B3EBFB00638A0D106340B007630A0C0067
S31500003DE083378100639607009307100063F4970CEE
S31500003DF08337810593C6FDFF93050000B386D70080
S31500003E001306000083C706009386160013F7F7070C
S31500003E109B9787013317C7009BD78741B3E5E5001A
S31500003E201B067600E3C007FE63860506638C0B0E51
S31500003E30330D7B016FF09FF0034581069307F00F6A
S31500003E40630EF50C13777500930720006302F70CD9
S31500003E5063F2E70A93972D0093063000B307F0400C
S31500003E606312D70A0336810583350105930681035C
S31500003E703306F600EFF04FEF03358103630C0500C0
S31500003E80E3060CFA1306010293050C00EFF04FE56A
S31500003E90E30E05F8137919009B880D00E31A09D083
S31500003EA083378100638A070263CA080C938B080074
S31500003EB06FF01FE10336010293860D0093050C0097
S31500003EC013050104EFF01FA4E31205F61379190098
S31500003ED09B880D00E31409CE93071000E3F297D8F0
S31500003EE0E3D608FC6F008009930710002330F10029
S31500003EF06FF0DFF3631C070093973D00B307F040B4
S31500003F006FF05FF693074000E308F7FEEF305A15AF
S31500003F1093971D00B307F0406FF0DFF4930700009E
S31500003F206FF05FF483370100E38A07D093771900B7
S31500003F30E39607D093788900930B0000E39208D8A4
S31500003F4093071000E3FE97D6938B08006FF05FD7B8
S31500003F50B75E0D00138C0EF96FF0DFDD03B70900B5
S31500003F6093870902137717006304070083B709FBD9
S31500003F7003BC07F92330F1026FF0DFDBEF00001519
S31500003F80EFF04FBD6FF09FCC130101FA2338810487
S31500003F90233491041304050023302105233C110426
S31500003FA0233C3103EFF00FBB833704FF033504FCDA
S31500003FB0033984FE8324C4FD2338F100033484FCD2
S31500003FC0EF00C00FEFF00FB9EFF00FD08337050009
S31500003FD003B70705137717006308070683B90700B9
S31500003FE0130601009305090013050000EFF08FFE8C
S31500003FF083B509F9938604001386090013050100A9
S31500004000EFF05F906310050637590D0093860400A4
S3150000401013060000930589F513050100EFF09F8E46
S315000040206304050413058000EFB0C82CB7570D00D4
S315000040309387070137F608002330F50013068642FA
S31500004040930589F5EF00401B938907076FF05FF929
S3150000405013040500EFF08FB9EFF04FB91305040014
S31500004060EF008A21EF00401F13050400EF00400017
S31500004070130101FE233C110023388100E7000500EF
S31500004080EF300A7EEFF00FADEF308A7D2334A100CA
S3150000409013840500EFF08FB59307F0FF0335810019
S315000040A06314F400EFF05FEEEF000A1D03B581FC28
S315000040B0130101FF23341100EFF09FFB130101FFF1
S315000040C023341100E7000500EFF05FFE03B581FA27
S315000040D0130101FF23341100EFF05FFE9307050083
S315000040E06308050003B581FC23B4F1FC678000007A
S315000040F0B74700009387876403B581FC23B4F1FCBE
S315000041006780000003B581FC678000009307050007
S315000041106308050003B581FA23B4F1FA678000004D
S31500004120B74700009387C70A03B581FA23B4F1FAAB
S315000041306780000003B581FA67800000130101FF64
S3150000414023341100233081009307100063E6A7048F
S3150000415003A705FA9B06F7FF23A0D5FA630AF70023
S3150000416083308100033401001301010167800000E0
S3150000417083B785FB138405026386070013050400D5
S31500004180E780070013050400033401008330810033
S31500004190130101016FB0881B03B585FCEFF05FEDDD
S315000041A0130101FF23341100233081002338B5F8B1
S315000041B0233CC5F8232005F813040500EFF09FF70C
S315000041C02330A4FAEFF01FF4B7B70D0083B787F4D6
S315000041D02334A4FA833081002330F4FEB74700006D
S315000041E09387C7132334F4FE130504F80334010040
S315000041F01301010167800000130101FE233C110039
S315000042002338810023349100130405002330210153
S315000042109384050013090600EFF0CFAB83278500D2
S3150000422013060900938504009B8717002324F500D5
S3150000423013050400EFF0DFF69307100013040506DC
S315000042402320F50013050400EFF0193413050400CC
S31500004250EFF04F90EFF09FE5130101FF23341100BB
S3150000426023308100EFF00FA7032785008337050071
S315000042701B0717002324E500638A070237B60D00E3
S3150000428003B70705033606F4930610003307C70085
S3150000429063F0E602233005001384070513050400C6
S315000042A0EF004A1213050400EFF0CF8AEFF01FE08B
S315000042B003A787023B07E04023A4E7026FF0DFFD78
S315000042C0130101FF2330810023341100130405007C
S315000042D0631405001304100013050400EF601A10A0
S315000042E0630A0500833081000334010013010101D4
S315000042F067800000EFB0882963060500E700050027
S315000043006FF09FFD13058000EFA0D87EB7370D0034
S31500004310938787E737D60700B7350D002330F500BA
S3150000432013068691938505E5EFF01FEDB7B70C00F0
S31500004330938707B32330F5006FE01FDB130101FFFE
S31500004340B7B70C002330810023341100938707B3DD
S315000043502330F50013040500EFE01FD91305040010
S3150000436003340100833081009305800113010101AC
S315000043706FE09FFD130101FA23349104233061039A
S3150000438093840600033B850083B6860023388104A8
S31500004390233C310323384103233C71012338810137
S315000043A0233C110423302105233451032334910186
S315000043B0138C0500930B060013040700130A08006C
S315000043C0938908006304DB02834C0B00938A070081
S315000043D09307A002130905006386FC069385060071
S315000043E013050B00EF90CA5E631E050423B0890017
S315000043F023A47901634A0C0CB3058401930760007A
S315000044006304BA009307100023A8F90083308105DE
S31500004410033401058334810403390104833981039C
S31500004420033A0103833A8102033B0102833B810184
S31500004430033C0101833C81001305000013010106C2
S315000044406780000063004407033509011307040071
S3150000445003340105833605008330810503390104E1
S3150000446003B38603033B0102833C81009388090062
S3150000447013080A0083398103033A010393870A006C
S3150000448093860400833A81028334810413860B00E9
S3150000449093050C00833B8101033C010113010106D6
S315000044A06700030083B58A00630CBB009307A00274
S315000044B0E38CFCF813050B00EF908A51E31605F820
S315000044C023A679016FF09FF49307E0FFE310FCF455
S315000044D06FF05FF3130101FC23388102233491024C
S315000044E0233C110213040500938405006304C702EC
S315000044F00335040103340103833081038337050048
S31500004500938504008334810283B7070413010104F1
S31500004510678007000335850083B586006308B5020A
S31500004520034805009307A002E304F8FC233CE100DE
S315000045302338D1002334C100EF908A490336810025
S315000045408336010103378101E31405FA83308103C1
S31500004550033401038334810213056000130101044F
S3150000456067800000130101FD23308102233C910086
S315000045702338210123343101233411029309050024
S31500004580138405009304060013890600EFE05FBA62
S31500004590631C050203B509019305040003340102F7
S315000045A083370500833081028339810083B707038F
S315000045B0930609001386040003390101833481013F
S315000045C0130101036780070083308102033401026F
S315000045D08334810103390101833981001301010309
S315000045E067800000678000001305000067800000F8
S315000045F01305000067800000930500016FE0DFD41B
S315000046008337850083B58500638CB70283C60700B0
S315000046101307A002130500006382E602130101FFDF
S315000046201385070023341100EF908A3A8330810006
S315000046301335150013010101678000006780000033
S315000046401305100067800000B7471000938717AF67
S3150000465003C70700130101FD233411022330810231
S31500004660233C9100233821016310070E1307100025
S315000046702380E700EFA018606308050A033485006D
S315000046809306C1001306000083470400930500004B
S31500004690938767FD93B717003304F40013050400EE
S315000046A09307F0FF2326F100EFA0C87E03B7810130
S315000046B01309050037B50C0083368701130600037E
S315000046C093051000130585BFEF509A468327C10056
S315000046D06382070483B781011305040083B587014C
S315000046E0EF40CA5583B7810137B50C001306200089
S315000046F083B6870193051000130505C3EF505A438F
S315000047008327C1006396070013050900EF60CA4DB1
S31500004710EFF09FB483B781011305090083B58701C4
S31500004720EF40CA516FF01FFC83B7810137B50C000B
S315000047301306D00283B6870193051000130585C3BF
S31500004740EF501A3FEF30CA1183B7810137B50C001D
S315000047501306D00183B6870193051000130585BDA6
S31500004760EF501A3DEF30CA0F93071000639EF50411
S31500004770EFE05FBE8337050083B70701E7800700D8
S3150000478083B781011304050037B50C0083B6870192
S315000047901306B00093051000130585C6EF505A396D
S315000047A083B781011305040083B58701EF400A49E9
S315000047B083B781011305A00083B58701EF400A2D59
S315000047C0EFE0DFC26FF01FF8EFE0DFB8EFE01FC2E7
S315000047D06FF05FF713040500EFE05FC113050400F7
S315000047E0EFF09929130101F92330410583B78101BF
S315000047F0233C5103233C9101B72A0D00B75C1000FE
S315000048002334110623308106233C910413848C5EE5
S3150000481023382105233431052338610323347103FA
S31500004820233081032338A1012334B101938A8AE816
S315000048303755100083BB07011307100023305401BE
S31500004840130505622334040023380400233C0400C6
S31500004850233004022334040223380402238CE1FAB1
S31500004860EF20100083B78101B759100037F90C000B
S3150000487093848954130BF0FF130909103755100060
S3150000488083BD870023B054012330740523246405B7
S31500004890130505582330240123B4040023B804006B
S315000048A023BC040023B0040223B4040223B8040288
S315000048B0EF20007B83B78101B75B100013848B590F
S315000048C003BD87013755100023A464051305055D54
S315000048D023B0240123B0B40523305401233404004B
S315000048E023380400233C040023300402233404024A
S315000048F023380402EF20C076376C100013058CF4C1
S3150000490023246405233024012330A405B764100052
S31500004910372B0D00B72A0D00EF004457938404F49B
S31500004920130B8BC9938A0ACC93858C5E13058CF482
S3150000493023B0040E2394040E23B8040E23BC040EE5
S3150000494023B0041023B4041023B0640123B454012B
S31500004950EFF0533237641000130584C1EF0004539F
S3150000496037691000B7170D00130989C0938707CF61
S315000049702330F900B7170D00938787D193858954A3
S31500004980130584C12334090E2318090E233C090E8E
S315000049902330091023340910233809102338F9006D
S315000049A023340900EFF0132DB7691000138589D25F
S315000049B037641000EF00844D130404D293858B599D
S315000049C0138589D22330040E2314040E2338040ED3
S315000049D0233C040E233004102334041023306401D6
S315000049E023345401EFF01329376C100013058CE3C0
S315000049F0B7691000EF008449938909E393858B59C1
S31500004A0013058CE323B0090E2394090E23B8090E6F
S31500004A1023BC090E23B0091023B4091023B0690181
S31500004A2023B45901EFF013258327040203B781014C
S31500004A30B7260000B75C1000B72A0D0093898C6D6D
S31500004A40B3E7D700938A8AF037551000033B070176
S31500004A5023B059012334990E2320F4022330940EF7
S31500004A601305057123B4090023B8090023BC090006
S31500004A7023B0090223B4090223B80902EF20405EDD
S31500004A8083B78101B75B100037F90C0093848B6301
S31500004A9013090918130CF0FF3755100003BD8700E2
S31500004AA023B0540123B069051305056723B0290116
S31500004AB023A4890523B4040023B8040023BC0400FE
S31500004AC023B0040223B4040223B80402EF204059A1
S31500004AD083B78101375B100013048B6803BA870123
S31500004AE0375510001305056C23B0240123B0A40527
S31500004AF023A48405233054012334040023380400FE
S31500004B00233C040023300402233404022338040225
S31500004B10EF200055B7691000138509392330440585
S31500004B202330240123248405B7641000B72A0D001E
S31500004B30372A0D00EF00843593848438938A8ACF10
S31500004B40130A0AD293858C6D1385093923B0040E96
S31500004B5023A4040E2386040E23B8040E23BC040EDD
S31500004B6023B0041023B4041023B0540123B4440129
S31500004B70EF00C4113764100013050406EF0004317A
S31500004B8037691000B7170D0013090905938707D574
S31500004B902330F900B7170D00938787D793858B636A
S31500004BA0130504062334090E2328090E230A090EC9
S31500004BB0233C090E23300910233409102338091029
S31500004BC02338F90023340900EF00440CB7691000BC
S31500004BD01385091737641000EF00442B130484165D
S31500004BE093058B68138509172330040E2324040EBE
S31500004BF02306040E2338040E233C040E233004102F
S31500004C00233404102330540123344401EF000408F4
S31500004C10B76B100013850B28B7691000EF00042747
S31500004C209389892793058B6813850B2823B0090E72
S31500004C3023A4090E2386090E23B8090E23BC090EE8
S31500004C4023B0091023B4091023B0590123B4490134
S31500004C50EF00C40303270402B746100083A706C665
S31500004C60372600003367C7002330940E8330810651
S31500004C702320E402033401069B8717002334990E90
S31500004C8023A0F6C6833481050339010583398104DF
S31500004C90033A0104833A8103033B0103833B810208
S31500004CA0033C0102833C8101033D0101833D8100F8
S31500004CB01301010767800000B7170D00938707856A
S31500004CC01304050023B4F40013058CF4EF004448E4
S31500004CD013050400EFF0495AB7170D0093870787AD
S31500004CE01304050023B4F90013850B28EF0044468E
S31500004CF013050400EFF04958B7170D00938707878F
S31500004D00930405002334F40013850917EF00444487
S31500004D1013850400EFF04956B7170D0093870787F0
S31500004D20930405002338F90013050406EF004442F6
S31500004D3013850400EFF04954B7170D0093870787D2
S31500004D401304050023B4F40013850939EF00444029
S31500004D5013050400EFF04952B7170D009387078536
S31500004D601304050023B4F90013058CE3EF00443E59
S31500004D7013050400EFF04950B7170D009387078518
S31500004D80930405002334F400138589D2EF00443CD4
S31500004D9013850400EFF0494EB7170D00938707857A
S31500004DA0930405002338F900130584C1EF00443A43
S31500004DB013850400EFF0494C37471000832707C6D8
S31500004DC09B8617002320D7C66384070067800000F0
S31500004DD06FF05FA137471000832707C693062000B0
S31500004DE01B86F7FF2320C7C66384D70067800000B1
S31500004DF037651000130101FF130505F42334110074
S31500004E00EF90952737651000130505D2EF90D5264C
S31500004E1037651000130505E3EF901526376510007A
S31500004E2013058538EFB095653765100013058516AF
S31500004E30EFB0D5643765100013058527EFB015640C
S31500004E40833081001301010167800000EFE08FD0FD
S31500004E5083308100130101016FE04FD9130101FC7A
S31500004E602338810223349102233C1102233021038B
S31500004E70233C31012338410103C481FB631405003F
S31500004E806314040283308103130504000334010311
S31500004E90833481020339010283398101033A010116
S31500004EA0130101046780000037471000832707C6F7
S31500004EB09B8617002320D7C66382071C37290D005F
S31500004EC037551000130989E8B75710001305056216
S31500004ED023B4275F238C01FAEF0010133755100017
S31500004EE0B75710001305055823B42755EF00D01106
S31500004EF037551000B75710001305055D23BC275919
S31500004F00EF00901037290D0037551000130989F06E
S31500004F10B75710001305057123BC276DEF00D00E9F
S31500004F2037551000B75710001305056723BC2763D4
S31500004F30EF00900D37551000B75710001305056C9C
S31500004F4023B42769EF00500C83B78101376A10003C
S31500004F509306004083B507011306000113058A8CEA
S31500004F60EF30536683B78101B759100093060040AE
S31500004F7083B587001306800013858972EF3093642A
S31500004F8083B78101375910009306004083B5870126
S31500004F90130600011305897FEF30D36237651000D1
S31500004FA093058A8C130585F4EFE09363376510004B
S31500004FB093858972130585C1EFE09362376510000A
S31500004FC09305897F130585D2EFE09361376510005D
S31500004FD09305897F130585E3EFE0936083B781012D
S31500004FE0B76910009306004083B507011306000158
S31500004FF0138589B3EF40C31E83B78101376910005B
S315000050009306004083B5870013068000130589992F
S31500005010EF40031D83B78101B7641000930600407B
S3150000502083B5870113060001138584A6EF40431B51
S3150000503037651000938589B313050539EFF043737F
S31500005040376510009305899913050506EFF043723D
S3150000505037651000938584A613050517EFF0437195
S3150000506037651000938584A613050528EFF0437075
S3150000507013058100EFF01FD66FF0DFE0EFF08FF63B
S315000050806FF0DFE31304050013058100EFF09FD4F2
S3150000509013050400EFF0491E678000006FE08FAA39
S315000050A083B7050037471000033707B02330F500F4
S315000050B06388E70003A707001B07170023A0E70084
S315000050C0678000002330B50067800000130101FAF5
S315000050D0233881042330210523306103233C110446
S315000050E023349104233C31032338410323345103F1
S315000050F0233C710123388101233491012330A1011E
S315000051002308050083B7050013090501233025018F
S3150000511083B70702233405001304050003BB070009
S3150000512063000B2803B7870063080702938905000D
S3150000513093848700938A0703130A0B0013050A005A
S3150000514003BA040093050A00EF809A086314050663
S3150000515093848400E3949AFE13050B00EFA0CA4DD6
S315000051601307050093060B001306000093050000C5
S3150000517013050400EF00D6138330810513050400E0
S31500005180033401058334810403390104833981031F
S31500005190033A0103833A8102033B0102833B810107
S315000051A0033C0101833C8100033D0100130101061C
S315000051B0678000009305000813050400EF0006024F
S315000051C083BA81F683B40A0013850400EFA0CA46A9
S315000051D0033784009307F0FF93D72700B387E74090
S315000051E01306050063E0A722938504001305040057
S315000051F0EF108634033A84008337040093041A00C0
S31500005200630CF91C033704016368971A1307D0036C
S31500005210B38747012380E7008337040023349400D3
S31500005220B38797002380070083B7090083B7070277
S3150000523083B4070013850400EFA00A4003378400F7
S315000052409307F0FF93D72700B387E74013060500BF
S3150000525063E4A71A9385040013050400EF10C62D16
S31500005260033D840083370400130AF0FF9304800093
S31500005270130BB003135A2A00130CD003930B00032D
S31500005280930C1D006306F90C033704016366970D42
S31500005290B387A70123806701833704002334940171
S315000052A033879A00B387970123800700833C070062
S315000052B013850C00EFA04A388337840013060500D7
S315000052C0B307FA4063E4A71293850C0013050400A4
S315000052D0EF108626033D840083370400930C1D00DF
S315000052E0630CF90A0337040163689709B387A701BA
S315000052F0238087018337040023349401B387970101
S315000053002380070083B7090083B70702B387970096
S3150000531083BC070013850C00EFA00A328337840094
S3150000532013060500B307FA4063ECA70A93850C0041
S3150000533013050400EF10462093848400E38E74E383
S31500005340033D840083370400930C1D00E31EF9F22D
S315000053501307F000E37E97F313071000930600008F
S315000053601306000093050D0013050400EFF0D51495
S31500005370833704006FF0DFF1130710009306000077
S315000053801306000093050D0013050400EFF0D51277
S31500005390833704006FF09FF51307F0006FF0DFF41A
S315000053A01307A002930610001306000093050000E1
S315000053B0EF0086406FF05FDC1307100093060000D5
S315000053C01306000093050A0013050400EFF0D50E3E
S315000053D0833704006FF09FE31307F0006FF0DFE2FE
S315000053E037B50C00130585C7EFB04F9237B50C00E3
S315000053F0130585C7EFB08F9137B50C00130585C728
S31500005400EFB0CF9037B50C00130585C7EFB00F90FE
S3150000541083370400130405006306F90013850700AB
S31500005420EFD05FF213050400EFE01965833705003E
S3150000543003B70500130101F9233411062330810651
S31500005440233C91042338210523343105638CE70A74
S3150000545003B907029304050003350900630E050628
S31500005460833907021384050083B5090063860506A0
S31500005470EF800A56631205068337890063800708A2
S315000054809385040013050100EFF05FC49305040043
S3150000549013050102EFF09FC30336810083378102B3
S315000054A0833401000339010213040000630EF6067B
S315000054B0930701036308F90013050900EFD09FE87D
S315000054C08334010093070101638AF4001385040005
S315000054D0EFD05FE76F008000130400008330810681
S315000054E013050400033401068334810503390105DD
S315000054F083398104130101076780000083B789009F
